12292535000162010120203004202008052020CAMARA DE VEREADORES DE INDEPENDENCIA-RS                                        
000001000000000000000101000000669434300000000000000000110783127000009705584400000204216260000000000000ATIVO                                                                                                                                               S01FNPF00000000
000001100000000000000101000000000153300000000000000000109422498000009539887500000140251560000000000000ATIVO CIRCULANTE                                                                                                                                    S02FNPF00000000
000001110000000000000101000000000000000000000000000000109317691000009539446800000139232230000000000000CAIXA E EQUIVALENTES DE CAIXA                                                                                                                       S03FNPF11140000
000001111000000000000101000000000000000000000000000000109317691000009539446800000139232230000000000000CAIXA E EQUIVALENTES DE CAIXA EM MOEDA NACIONAL                                                                                                     S04FNPF11140000
000001111100000000000101000000000000000000000000000000109317691000009539446800000139232230000000000000CAIXA E EQUIVALENTES DE CAIXA EM MOEDA NACIONAL - CONSOLIDACAO                                                                                      S05FNPF11140000
000001111119000000000101000000000000000000000000000000068705533000006870553300000000000000000000000000BANCOS CONTA MOVIMENTO - DEMAIS CONTAS                                                                                                              S06FNPF11140000
000001111119120000000101000000000000000000000000000000068705533000006870553300000000000000000000000000BANCO DO ESTADO DO RIO GRANDE DO SUL                                                                                                                S07FNPF11140000
000001111119120500000101000000000000000000000000000000068688935000006868893500000000000000000000000000BANRISUL GERAL CAMARA MOV 0001 1064/04.080187.0-6                                                                                                   A08FSPF00010000
000001111119122000000101000000000000000000000000000000000016598000000001659800000000000000000000000000BANRISUL CM RETENCOES MOV 8001 1064/04.080187.0-6                                                                                                   A08FSPF80010000
000001111150000000000101000000000000000000000000000000040612158000002668893500000139232230000000000000APLICACOES FINANCEIRAS DE LIQUIDEZ IMEDIATA                                                                                                         S06FNPF80010000
000001111150030000000101000000000000000000000000000000040612158000002668893500000139232230000000000000FUNDOS DE INVESTIMENTO                                                                                                                              S07FNPF80010000
000001111150032200000101000000000000000000000000000000040612158000002668893500000139232230000000000000BANRISUL GERAL CAMARA APLIC 0001 1064/04.080187.0-6                                                                                                 A08FSPF00010000
000001130000000000000101000000000153300000000000000000000000000000000000153300000000000000000000000000DEMAIS CREDITOS E VALORES A CURTO PRAZO                                                                                                             S03PNPP00000000
000001132000000000000101000000000153300000000000000000000000000000000000153300000000000000000000000000TRIBUTOS A RECUPERAR/COMPENSAR                                                                                                                      S04PNPP00000000
000001132100000000000101000000000153300000000000000000000000000000000000153300000000000000000000000000TRIBUTOS A RECUPERAR/COMPENSAR - CONSOLIDACAO                                                                                                       S05PNPF00000000
000001132105000000000101000000000153300000000000000000000000000000000000153300000000000000000000000000IR E CSLL A RECUPERAR/COMPENSAR                                                                                                                     A06PSPF00000000
000001160000000000000101000000000000000000000000000000000093307000000000000000000000933070000000000000ATIVO NAO CIRCULANTE MANTIDO PARA VENDA                                                                                                             S03FNPP00000000
000001162000000000000101000000000000000000000000000000000093307000000000000000000000933070000000000000IMOBILIZADO MANTIDO PARA VENDA                                                                                                                      S04FNPP00000000
000001162100000000000101000000000000000000000000000000000093307000000000000000000000933070000000000000IMOBILIZADO MANTIDO PARA VENDA - CONSOLIDACAO                                                                                                       A05FSPP00000000
000001190000000000000101000000000000000000000000000000000011500000000000287400000000086260000000000000VARIACOES PATRIMONIAIS DIMINUTIVAS PAGAS ANTECIPADAMENTE                                                                                            S03FNPF00000000
000001193000000000000101000000000000000000000000000000000011500000000000287400000000086260000000000000ASSINATURAS E ANUIDADES A APROPRIAR                                                                                                                 S04FNPF00000000
000001193100000000000101000000000000000000000000000000000011500000000000287400000000086260000000000000ASSINATURAS E ANUIDADES A APROPRIAR - CONSOLIDACAO                                                                                                  A05FSPP00000000
000001200000000000000101000000669281000000000000000000001360629000000165696900000063964700000000000000ATIVO NAO CIRCULANTE                                                                                                                                S02FNPF00000000
000001230000000000000101000000669281000000000000000000001360629000000165696900000063964700000000000000IMOBILIZADO                                                                                                                                         S03PNPP00000000
000001231000000000000101000000951292500000000000000000000818354000000126091400000090703650000000000000BENS MOVEIS                                                                                                                                         S04PNPP00000000
000001231100000000000101000000951292500000000000000000000818354000000126091400000090703650000000000000BENS MOVEIS- CONSOLIDACAO                                                                                                                           S05PNPP00000000
000001231101000000000101000000255180000000000000000000000107000000000002600000000026328000000000000000MAQUINAS, APARELHOS, EQUIPAMENTOS E FERRAMENTAS                                                                                                     S06PNPP00000000
000001231101020000000101000000012990000000000000000000000000000000000000000000000001299000000000000000APARELHOS E EQUIPAMENTOS DE COMUNICACAO                                                                                                             A07PSPP00000000
000001231101070000000101000000000000000000000000000000000013000000000001300000000000000000000000000000MAQUINAS E EQUIPAMENTOS ENERGETICOS                                                                                                                 A07PSPP00000000
000001231101990000000101000000242190000000000000000000000094000000000001300000000025029000000000000000OUTRAS MAQUINAS, APARELHOS, EQUIPAMENTOS E FERRAMENTAS                                                                                              A07PSPP00000000
000001231102000000000101000000202151000000000000000000000623609000000105776400000015873550000000000000BENS DE INFORMATICA                                                                                                                                 S06PNPP00000000
000001231102010000000101000000000000000000000000000000000528882000000052888200000000000000000000000000EQUIPAMENTOS DE PROCESSAMENTO DE DADOS                                                                                                              A07PSPP00000000
000001231102020000000101000000202151000000000000000000000094727000000052888200000015873550000000000000EQUIPAMENTOS DE TECNOLOGIA DA INFORMACAO                                                                                                            A07PSPP00000000
000001231103000000000101000000193099500000000000000000000087745000000000325000000020154900000000000000MOVEIS E UTENSILIOS                                                                                                                                 S06PNPP00000000
000001231103010000000101000000000790000000000000000000000000000000000000000000000000079000000000000000APARELHOS E UTENSILIOS DOMESTICOS                                                                                                                   A07PSPP00000000
000001231103030000000101000000192309500000000000000000000087745000000000325000000020075900000000000000MOBILIARIO EM GERAL                                                                                                                                 A07PSPP00000000
000001231104000000000101000000300862000000000000000000000000000000000017390000000028347200000000000000MATERIAIS CULTURAIS, EDUCACIONAIS E DE COMUNICACAO                                                                                                  S06PNPP00000000
000001231104050000000101000000096500000000000000000000000000000000000000000000000009650000000000000000EQUIPAMENTOS PARA AUDIO, VIDEO E FOTO                                                                                                               A07PSPP00000000
000001231104990000000101000000204362000000000000000000000000000000000017390000000018697200000000000000OUTROS MATERIAIS CULTURAIS, EDUCACIONAIS E DE COMUNICACAO                                                                                           A07PSPP00000000
000001238000000000000101000000000000000000028201150000000542275000000039605500000000000000000002673895(-) DEPRECIACAO, EXAUSTAO E AMORTIZACAO ACUMULADAS                                                                                                  S04PNPP00000000
000001238100000000000101000000000000000000028201150000000542275000000039605500000000000000000002673895(-) DEPRECIACAO, EXAUSTAO E AMORTIZACAO ACUMULADAS - CONSOLIDACAO                                                                                   S05PNPP00000000
000001238101000000000101000000000000000000028201150000000542275000000039605500000000000000000002673895(-) DEPRECIACAO ACUMULADA – BENS MOVEIS                                                                                                             S06PNPP00000000
000001238101010000000101000000000000000000003696080000000000000000000010512400000000000000000000474732(-) DEPRECIACAO ACUMULADA DE MAQUINAS, APARELHOS, EQUIPAMENTOS E FERRAMENTAS                                                                        A07PSPP00000000
000001238101020000000101000000000000000000015156140000000451825000000013663200000000000000000001200421(-) DEPRECIACAO ACUMULADA DE BENS DE INFORMATICA                                                                                                    A07PSPP00000000
000001238101030000000101000000000000000000004180640000000000000000000009946700000000000000000000517531(-) DEPRECIACAO ACUMULADA DE MOVEIS E UTENSILIOS                                                                                                    A07PSPP00000000
000001238101040000000101000000000000000000005168290000000090450000000005483200000000000000000000481211(-) DEPRECIACAO ACUMULADA DE MATERIAIS CULTURAIS, EDUCACIONAIS E DE COMUNICACAO                                                                     A07PSPP00000000
000002000000000000000101000000000000000000066943430000238563387000024052798400000000000000000008658940PASSIVO E PATRIMONIO LIQUIDO                                                                                                                        S01FNPF00000000
000002100000000000000101000000000000000000020715290000029722859000003168745600000000000000000004036126PASSIVO CIRCULANTE                                                                                                                                  S02FNPF00000000
000002110000000000000101000000000000000000020715290000002392536000000417863300000000000000000003857626OBRIGACOES TRABALHISTAS, PREVIDENCIARIAS E ASSISTENCIAIS A PAGAR A CURTO PRAZO                                                                      S03FNPF00000000
000002111000000000000101000000000000000000020715290000002233422000000292742800000000000000000002765535PESSOAL A PAGAR                                                                                                                                     S04FNPF00000000
000002111100000000000101000000000000000000020715290000002233422000000292742800000000000000000002765535PESSOAL A PAGAR - CONSOLIDACAO                                                                                                                      S05FNPF00000000
000002111101000000000101000000000000000000020715290000002233422000000292742800000000000000000002765535PESSOAL A PAGAR                                                                                                                                     S06FNPF00000000
000002111101010000000101000000000000000000000000000000000882468000000088246800000000000000000000000000SALARIOS, REMUNERACOES E BENEFICIOS                                                                                                                 S07FNPF00000000
000002111101010200000101000000000000000000000000000000000882468000000088246800000000000000000000000000SALARIOS, REMUNERACOES E BENEFICIOS (F)                                                                                                             A08FSPF00000000
000002111101020000000101000000000000000000000000000000000000000000000180272500000000000000000001802725DECIMO TERCEIRO SALARIO                                                                                                                             S07FNPP00000000
000002111101020100000101000000000000000000000000000000000000000000000180272500000000000000000001802725DECIMO TERCEIRO SALARIO (P)                                                                                                                         A08FSPP00000000
000002111101030000000101000000000000000000020715290000001350954000000024223500000000000000000000962810FERIAS                                                                                                                                              S07FNPP00000000
000002111101030100000101000000000000000000020715290000001350954000000024223500000000000000000000962810FERIAS (P)                                                                                                                                          A08FSPP00000000
000002114000000000000101000000000000000000000000000000000159114000000125120500000000000000000001092091ENCARGOS SOCIAIS A PAGAR                                                                                                                            S04FNPF00000000
000002114200000000000101000000000000000000000000000000000159114000000024521800000000000000000000086104ENCARGOS SOCIAIS A PAGAR-INTRA OFSS                                                                                                                 S05FNPF00000000
000002114201000000000101000000000000000000000000000000000159114000000024521800000000000000000000086104CONTRIBUICAO A REGIME PROPRIO DE PREVIDENCIA (RPPS)                                                                                                 S06FNPF00000000
000002114201020000000101000000000000000000000000000000000159114000000024521800000000000000000000086104CONTRIBUICAO A REGIME PROPRIO DE PREVIDENCIA (RPPS) (F)                                                                                             A07FSPF00000000
000002114300000000000101000000000000000000000000000000000000000000000100598700000000000000000001005987ENCARGOS SOCIAIS A PAGAR-INTER OFSS - UNIAO                                                                                                         S05FNPF00000000
000002114301000000000101000000000000000000000000000000000000000000000100598700000000000000000001005987CONTRIBUICOES AO RGPS A PAGAR                                                                                                                       S06FNPF00000000
000002114301010000000101000000000000000000000000000000000000000000000100598700000000000000000001005987CONTRIBUICOES AO RGPS SOBRE SALARIOS E REMUNERACOES                                                                                                 S07FNPF00000000
000002114301010200000101000000000000000000000000000000000000000000000100598700000000000000000001005987CONTRIBUICOES AO RGPS SOBRE SALARIOS E REMUNERACOES (F)                                                                                             A08FSPF00000000
000002130000000000000101000000000000000000000000000000027174460000002735296000000000000000000000178500FORNECEDORES E CONTAS A PAGAR A CURTO PRAZO                                                                                                         S03FNPF00000000
000002131000000000000101000000000000000000000000000000027174460000002735296000000000000000000000178500FORNECEDORES E CONTAS A PAGAR NACIONAIS A CURTO PRAZO                                                                                               S04FNPF00000000
000002131100000000000101000000000000000000000000000000027174460000002735296000000000000000000000178500FORNECEDORES E CONTAS A PAGAR NACIONAIS A CURTO PRAZO - CONSOLIDACAO                                                                                S05FNPF00000000
000002131101000000000101000000000000000000000000000000027174460000002735296000000000000000000000178500FORNECEDORES NACIONAIS                                                                                                                              S06FNPF00000000
000002131101010000000101000000000000000000000000000000027174460000002735296000000000000000000000178500FORNECEDORES NAO PARCELADOS A PAGAR                                                                                                                 S07FNPF00000000
000002131101010100000101000000000000000000000000000000027174460000002735296000000000000000000000178500FORNECEDORES DO EXERCICIO                                                                                                                           A08FSPF00000000
000002180000000000000101000000000000000000000000000000000155863000000015586300000000000000000000000000DEMAIS OBRIGACOES A CURTO PRAZO                                                                                                                     S03FNPF00000000
000002188000000000000101000000000000000000000000000000000155863000000015586300000000000000000000000000VALORES RESTITUIVEIS                                                                                                                                S04FNPF00000000
000002188100000000000101000000000000000000000000000000000139265000000013926500000000000000000000000000VALORES RESTITUIVEIS - CONSOLIDACAO                                                                                                                 S05FNPF00000000
000002188104000000000101000000000000000000000000000000000139265000000013926500000000000000000000000000DEPOSITOS NAO JUDICIAIS                                                                                                                             S06FNPF00000000
000002188104990000000101000000000000000000000000000000000139265000000013926500000000000000000000000000OUTROS DEPOSITOS                                                                                                                                    A07FSPF00000000
000002188200000000000101000000000000000000000000000000000015000000000001500000000000000000000000000000VALORES RESTITUIVEIS – INTRA OFSS                                                                                                                   S05FNPF00000000
000002188299010000000101000000000000000000000000000000000015000000000001500000000000000000000000000000OUTROS VALORES RESTITUIVEIS                                                                                                                         S07FNPP00000000
000002188299010100000101000000000000000000000000000000000015000000000001500000000000000000000000000000DESCONTOS A RECOLHER AO TESOURO MUNICIPAL                                                                                                           A08FSPF80010000
000002188300000000000101000000000000000000000000000000000001598000000000159800000000000000000000000000VALORES RESTITUIVEIS - INTER UNIAO                                                                                                                  S05FNPF00000000
000002188301000000000101000000000000000000000000000000000001598000000000159800000000000000000000000000CONSIGNACOES                                                                                                                                        S06FNPF00000000
000002188301040000000101000000000000000000000000000000000001598000000000159800000000000000000000000000IMPOSTO SOBRE A RENDA RETIDO NA FONTE - IRRF                                                                                                        S07FNPF00000000
000002188301040200000101000000000000000000000000000000000001598000000000159800000000000000000000000000IRRF SERVICOS PJ 1708-06 LEGISLATIVO                                                                                                                A08FSPF80010000
000002300000000000000101000000000000000000046228140000208840528000020884052800000000000000000004622814PATRIMONIO LIQUIDO                                                                                                                                  S02PNPF00000000
000002370000000000000101000000000000000000046228140000208840528000020884052800000000000000000004622814RESULTADOS ACUMULADOS                                                                                                                               S03PNPP00000000
000002371000000000000101000000000000000000046228140000208840528000020884052800000000000000000004622814SUPERAVITS OU DEFICITS ACUMULADOS                                                                                                                   S04PNPP00000000
000002371100000000000101000017674843200000000000000000090536030000009053603000001767484320000000000000SUPERAVITS OU DEFICITS ACUMULADOS - CONSOLIDACAO                                                                                                    S05PNPP00000000
000002371101000000000101000009053603000000000000000000000000000000009053603000000000000000000000000000SUPERAVITS OU DEFICITS DO EXERCICIO                                                                                                                 A06PSPP00000000
000002371102000000000101000008621240200000000000000000090536030000000000000000001767484320000000000000SUPERAVITS OU DEFICITS DE EXERCICIOS ANTERIORES                                                                                                     A06PSPP00000000
000002371200000000000101000000000000000002067538660000105151862000010515186200000000000000000206753866SUPERAVITS OU DEFICITS ACUMULADOS - INTRA OFSS                                                                                                      S05PNPP00000000
000002371201000000000101000000000000000001051518620000105151862000000000000000000000000000000000000000SUPERAVITS OU DEFICITS DO EXERCICIO                                                                                                                 A06PSPP00000000
000002371202000000000101000000000000000001016020040000000000000000010515186200000000000000000206753866SUPERAVITS OU DEFICITS DE EXERCICIOS ANTERIORES                                                                                                     A06PSPP00000000
000002371300000000000101000002538262000000000000000000013152636000001315263600000253826200000000000000SUPERAVITS OU DEFICITS ACUMULADOS - INTER OFSS - UNIAO                                                                                              S05PNPP00000000
000002371301000000000101000001315263600000000000000000000000000000001315263600000000000000000000000000SUPERAVITS OU DEFICITS DO EXERCICIO                                                                                                                 A06PSPP00000000
000002371302000000000101000001222998400000000000000000013152636000000000000000000253826200000000000000SUPERAVITS OU DEFICITS DE EXERCICIOS ANTERIORES                                                                                                     A06PSPP00000000
000003000000000000000101000000000000000000000000000000030810166000000043358700000303765790000000000000VARIACAO PATRIMONIAL DIMINUTIVA                                                                                                                     S01CNPF00000000
000003100000000000000101000000000000000000000000000000027158698000000000000000000271586980000000000000PESSOAL E ENCARGOS                                                                                                                                  S02FNPF00000000
000003110000000000000101000000000000000000000000000000022554676000000000000000000225546760000000000000REMUNERACAO A PESSOAL                                                                                                                               S03FNPF00000000
000003111000000000000101000000000000000000000000000000002714684000000000000000000027146840000000000000REMUNERACAO A PESSOAL ATIVO CIVIL – ABRANGIDOS PELO RPPS                                                                                            S04FNPF00000000
000003111100000000000101000000000000000000000000000000002714684000000000000000000027146840000000000000REMUNERACAO A PESSOAL ATIVO CIVIL – ABRANGIDOS PELO RPPS - CONSOLIDACAO                                                                             S05FNPF00000000
000003111101000000000101000000000000000000000000000000002714684000000000000000000027146840000000000000VENCIMENTOS E VANTAGENS FIXAS - PESSOAL CIVIL - RPPS                                                                                                S06FNPF00000000
000003111101010000000101000000000000000000000000000000002249280000000000000000000022492800000000000000VENCIMENTOS E SALARIOS                                                                                                                              A07FSPF00000000
000003111101180000000101000000000000000000000000000000000185940000000000000000000001859400000000000000GRATIFICACAO DE TEMPO DE SERVICO                                                                                                                    A07FSPF00000000
00000311110122000000010100000000000000000000000000000000020592500000000000000000000205925000000000000013o SALARIO                                                                                                                                         A07FSPF00000000
000003111101240000000101000000000000000000000000000000000073539000000000000000000000735390000000000000FERIAS – ABONO CONSTITUCIONAL                                                                                                                       A07FSPF00000000
000003112000000000000101000000000000000000000000000000019839992000000000000000000198399920000000000000REMUNERACAO A PESSOAL ATIVO CIVIL – ABRANGIDOS PELO RGPS                                                                                            S04FNPF00000000
000003112100000000000101000000000000000000000000000000019839992000000000000000000198399920000000000000REMUNERACAO A PESSOAL ATIVO CIVIL – ABRANGIDOS PELO RGPS - CONSOLIDACAO                                                                             S05FNPF00000000
000003112101000000000101000000000000000000000000000000019839992000000000000000000198399920000000000000VENCIMENTOS E VANTAGENS FIXAS - PESSOAL CIVIL - RGPS                                                                                                S06FNPF00000000
000003112101010000000101000000000000000000000000000000003261456000000000000000000032614560000000000000VENCIMENTOS E SALARIOS                                                                                                                              A07FSPF00000000
00000311210122000000010100000000000000000000000000000000159680000000000000000000001596800000000000000013o SALARIO                                                                                                                                         A07FSPF00000000
000003112101240000000101000000000000000000000000000000000168696000000000000000000001686960000000000000FERIAS - ABONO CONSTITUCIONAL                                                                                                                       A07FSPF00000000
000003112101280000000101000000000000000000000000000000000477840000000000000000000004778400000000000000REPRESENTACAO MENSAL                                                                                                                                A07FSPF00000000
000003112101310000000101000000000000000000000000000000014335200000000000000000000143352000000000000000SUBSIDIOS                                                                                                                                           A07FSPF00000000
000003120000000000000101000000000000000000000000000000004604022000000000000000000046040220000000000000ENCARGOS PATRONAIS                                                                                                                                  S03FNPF00000000
000003121000000000000101000000000000000000000000000000000321501000000000000000000003215010000000000000ENCARGOS PATRONAIS - RPPS                                                                                                                           S04FNPF00000000
000003121200000000000101000000000000000000000000000000000321501000000000000000000003215010000000000000ENCARGOS PATRONAIS - RPPS - INTRA OFSS                                                                                                              S05FNPF00000000
000003121201000000000101000000000000000000000000000000000321501000000000000000000003215010000000000000CONTRIBUICAO PATRONAL PARA O RPPS                                                                                                                   A06FSPF00000000
000003122000000000000101000000000000000000000000000000004282521000000000000000000042825210000000000000ENCARGOS PATRONAIS - RGPS                                                                                                                           S04FNPF00000000
000003122300000000000101000000000000000000000000000000004282521000000000000000000042825210000000000000ENCARGOS PATRONAIS - RGPS - INTER OFSS - UNIAO                                                                                                      S05FNPF00000000
000003122301000000000101000000000000000000000000000000004282521000000000000000000042825210000000000000CONTRIBUICOES PREVIDENCIARIAS - RGPS                                                                                                                A06FSPF00000000
000003200000000000000101000000000000000000000000000000000882468000000000000000000008824680000000000000BENEFICIOS PREVIDENCIARIOS E ASSISTENCIAIS                                                                                                          S02FNPF00000000
000003290000000000000101000000000000000000000000000000000882468000000000000000000008824680000000000000OUTROS BENEFICIOS PREVIDENCIARIOS E ASSISTENCIAIS                                                                                                   S03FNPF00000000
000003291000000000000101000000000000000000000000000000000882468000000000000000000008824680000000000000OUTROS BENEFICIOS PREVIDENCIARIOS E ASSISTENCIAIS - RPPS                                                                                            S04FNPF00000000
000003291100000000000101000000000000000000000000000000000882468000000000000000000008824680000000000000OUTROS BENEFICIOS PREVIDENCIARIOS E ASSISTENCIAIS - RPPS - CONSOLIDACAO                                                                             S05FNPF00000000
000003291110000000000101000000000000000000000000000000000117662000000000000000000001176620000000000000AUXILIO-DOENCA                                                                                                                                      A06FSPF00000000
000003291111000000000101000000000000000000000000000000000764806000000000000000000007648060000000000000SALARIO MATERNIDADE                                                                                                                                 A06FSPF00000000
000003300000000000000101000000000000000000000000000000002652467000000043358700000022188800000000000000USO DE BENS, SERVICOS E CONSUMO DE CAPITAL FIXO                                                                                                     S02FNPF00000000
000003310000000000000101000000000000000000000000000000000827838000000000000000000008278380000000000000USO DE MATERIAL DE CONSUMO                                                                                                                          S03FNPF00000000
000003311000000000000101000000000000000000000000000000000827838000000000000000000008278380000000000000CONSUMO DE MATERIAL                                                                                                                                 S04FNPF00000000
000003311100000000000101000000000000000000000000000000000827838000000000000000000008278380000000000000CONSUMO DE MATERIAL - CONSOLIDACAO                                                                                                                  S05FNPF00000000
000003311106000000000101000000000000000000000000000000000747974000000000000000000007479740000000000000GENEROS ALIMENTACAO                                                                                                                                 A06FSPF00000000
000003311116000000000101000000000000000000000000000000000021530000000000000000000000215300000000000000MATERIAL DE EXPEDIENTE                                                                                                                              A06FSPF00000000
000003311121000000000101000000000000000000000000000000000002199000000000000000000000021990000000000000MATERIAL DE COPA E COZINHA                                                                                                                          A06FSPF00000000
000003311122000000000101000000000000000000000000000000000056135000000000000000000000561350000000000000MATERIAL DE LIMPEZA E PRODUTOS DE HIGIENIZACAO                                                                                                      A06FSPF00000000
000003320000000000000101000000000000000000000000000000001621596000000043358700000011880090000000000000SERVICOS                                                                                                                                            S03FNPF00000000
000003321000000000000101000000000000000000000000000000000867174000000043358700000004335870000000000000DIARIAS                                                                                                                                             S04FNPF00000000
000003321100000000000101000000000000000000000000000000000867174000000043358700000004335870000000000000DIARIAS - CONSOLIDACAO                                                                                                                              S05FNPF00000000
000003321101000000000101000000000000000000000000000000000867174000000043358700000004335870000000000000DIARIAS PESSOAL CIVIL                                                                                                                               A06FSPF00000000
000003322000000000000101000000000000000000000000000000000150000000000000000000000001500000000000000000SERVICOS TERCEIROS - PF                                                                                                                             S04FNPF00000000
000003322100000000000101000000000000000000000000000000000150000000000000000000000001500000000000000000SERVICOS TERCEIROS - PF - CONSOLIDACAO                                                                                                              S05FNPF00000000
000003322101000000000101000000000000000000000000000000000150000000000000000000000001500000000000000000CONSULTORIA E ASSESSORIA                                                                                                                            A06FSPF00000000
000003323000000000000101000000000000000000000000000000000604422000000000000000000006044220000000000000SERVICOS TERCEIROS - PJ                                                                                                                             S04FNPF00000000
000003323100000000000101000000000000000000000000000000000604422000000000000000000006044220000000000000SERVICOS TERCEIROS - PJ - CONSOLIDACAO                                                                                                              S05FNPF00000000
000003323101000000000101000000000000000000000000000000000150000000000000000000000001500000000000000000CONSULTORIA E ASSESSORIA                                                                                                                            A06FSPF00000000
000003323104000000000101000000000000000000000000000000000073670000000000000000000000736700000000000000COMUNICACAO                                                                                                                                         A06FSPF00000000
000003323111000000000101000000000000000000000000000000000173878000000000000000000001738780000000000000SERVICOS RELACIONADOS A TECNOLOGIA DA INFORMACAO                                                                                                    A06FSPF00000000
000003323114000000000101000000000000000000000000000000000002874000000000000000000000028740000000000000ASSINATURAS DE PERIODICOS E ANUIDADES                                                                                                               A06FSPF00000000
000003323130000000000101000000000000000000000000000000000192000000000000000000000001920000000000000000SELECAO E TREINAMENTO                                                                                                                               A06FSPF00000000
000003323146000000000101000000000000000000000000000000000012000000000000000000000000120000000000000000SERVICOS GRAFICOS E EDITORIAIS                                                                                                                      A06FSPF00000000
000003330000000000000101000000000000000000000000000000000203033000000000000000000002030330000000000000DEPRECIACAO, AMORTIZACAO E EXAUSTAO                                                                                                                 S03FNPF00000000
000003331000000000000101000000000000000000000000000000000203033000000000000000000002030330000000000000DEPRECIACAO                                                                                                                                         S04FNPF00000000
000003331100000000000101000000000000000000000000000000000203033000000000000000000002030330000000000000DEPRECIACAO - CONSOLIDACAO                                                                                                                          S05FNPF00000000
000003331101000000000101000000000000000000000000000000000203033000000000000000000002030330000000000000DEPRECIACAO DE IMOBILIZADO                                                                                                                          S06FNPF00000000
000003331101010000000101000000000000000000000000000000000203033000000000000000000002030330000000000000DEPRECIACAO DE BENS MOVEIS                                                                                                                          A07FSPF00000000
000003600000000000000101000000000000000000000000000000000001533000000000000000000000015330000000000000DESVALORIZACAO E PERDA DE ATIVOS E INCORPORACAO DE PASSIVOS                                                                                         S02FNPF00000000
000003630000000000000101000000000000000000000000000000000001533000000000000000000000015330000000000000PERDAS INVOLUNTARIAS                                                                                                                                S03FNPF00000000
000003639000000000000101000000000000000000000000000000000001533000000000000000000000015330000000000000OUTRAS PERDAS INVOLUNTARIAS                                                                                                                         S04FNPF00000000
000003639100000000000101000000000000000000000000000000000001533000000000000000000000015330000000000000OUTRAS PERDAS INVOLUNTARIAS - CONSOLIDACAO                                                                                                          S05FNPF00000000
000003639101000000000101000000000000000000000000000000000001533000000000000000000000015330000000000000BAIXA DE ATIVOS IRRECUPERAVEIS                                                                                                                      A06FSPF00000000
000003900000000000000101000000000000000000000000000000000115000000000000000000000001150000000000000000OUTRAS VARIACOES PATRIMONIAIS DIMINUTIVAS                                                                                                           S02FNPF00000000
000003990000000000000101000000000000000000000000000000000115000000000000000000000001150000000000000000DIVERSAS VARIACOES PATRIMONIAIS DIMINUTIVAS                                                                                                         S03FNPF00000000
000003996000000000000101000000000000000000000000000000000115000000000000000000000001150000000000000000INDENIZACOES, RESTITUICOES E RESSARCIMENTOS                                                                                                         S04FNPF00000000
000003996100000000000101000000000000000000000000000000000115000000000000000000000001150000000000000000INDENIZACOES, RESTITUICOES E RESSARCIMENTOS - CONSOLIDACAO                                                                                          A05FSPF00000000
000004000000000000000101000000000000000000000000000000000000000000004213926500000000000000000042139265VARIACAO PATRIMONIAL AUMENTATIVA                                                                                                                    S01FNPF00000000
000004500000000000000101000000000000000000000000000000000000000000004213926500000000000000000042139265TRANSFERENCIAS E DELEGACOES RECEBIDAS                                                                                                               S02FNPF00000000
000004510000000000000101000000000000000000000000000000000000000000004213926500000000000000000042139265TRANSFERENCIAS INTRAGOVERNAMENTAIS                                                                                                                  S03FNPF00000000
000004511000000000000101000000000000000000000000000000000000000000004213926500000000000000000042139265TRANSFERENCIAS RECEBIDAS PARA A EXECUCAO ORCAMENTARIA                                                                                               S04FNPF00000000
000004511200000000000101000000000000000000000000000000000000000000004213926500000000000000000042139265TRANSFERENCIAS RECEBIDAS PARA A EXECUCAO ORCAMENTARIA - INTRA OFSS                                                                                  S05FNPF00000000
000004511202000000000101000000000000000000000000000000000000000000004213926500000000000000000042139265REPASSE RECEBIDO                                                                                                                                    A06FSPF00000000
000005000000000000000101000000000000000000000000000000195135194000000402705100001911081430000000000000CONTROLES DA APROVACAO DO PLANEJAMENTO E ORCAMENTO                                                                                                  S01FNOF00000000
000005200000000000000101000000000000000000000000000000195135194000000402705100001911081430000000000000ORCAMENTO APROVADO                                                                                                                                  S02PNOF00000000
000005220000000000000101000000000000000000000000000000195135194000000402705100001911081430000000000000FIXACAO DA DESPESA                                                                                                                                  S03FNOF00000000
000005221000000000000101000000000000000000000000000000163747760000000400000000001597477600000000000000DOTACAO ORCAMENTARIA                                                                                                                                S04FNOF00000000
000005221100000000000101000000000000000000000000000000159747760000000000000000001597477600000000000000DOTACAO INICIAL                                                                                                                                     S05FNOF00000000
000005221101000000000101000000000000000000000000000000159747760000000000000000001597477600000000000000CREDITO INICIAL                                                                                                                                     A06FSOF00000000
000005221200000000000101000000000000000000000000000000002000000000000000000000000020000000000000000000DOTACAO ADICIONAL POR TIPO DE CREDITO                                                                                                               S05FNOF00000000
000005221202000000000101000000000000000000000000000000002000000000000000000000000020000000000000000000CREDITO ADICIONAL - ESPECIAL                                                                                                                        S06FNOF00000000
000005221202010000000101000000000000000000000000000000002000000000000000000000000020000000000000000000CREDITOS ESPECIAIS ABERTOS                                                                                                                          A07FSOF00000000
000005221300000000000101000000000000000000000000000000002000000000000400000000000000000000000002000000DOTACAO ADICIONAL POR FONTE                                                                                                                         S05FNOF00000000
000005221303000000000101000000000000000000000000000000002000000000000000000000000020000000000000000000ANULACAO DE DOTACAO                                                                                                                                 A06FSOF00000000
000005221309000000000101000000000000000000000000000000000000000000000200000000000000000000000002000000(-) CANCELAMENTO DE DOTACOES                                                                                                                        A06FSOF00000000
000005221399000000000101000000000000000000000000000000000000000000000200000000000000000000000002000000VALOR GLOBAL DA DOTACAO ADICIONAL POR FONTE                                                                                                         A06FSOF00000000
000005229000000000000101000000000000000000000000000000031387434000000002705100000313603830000000000000OUTROS CONTROLES DA DESPESA ORCAMENTARIA                                                                                                            S04FNOF00000000
000005229200000000000101000000000000000000000000000000031387434000000002705100000313603830000000000000EMPENHOS POR EMISSAO                                                                                                                                S05FNOF00000000
000005229201000000000101000000000000000000000000000000031387434000000002705100000313603830000000000000EXECUCAO DA DESPESA POR NOTA DE EMPENHO                                                                                                             S06FNOF00000000
000005229201010000000101000000000000000000000000000000031364934000000000000000000313649340000000000000EMISSAO DE EMPENHOS                                                                                                                                 A07FSOF00000000
000005229201020000000101000000000000000000000000000000000022500000000000000000000000225000000000000000REFORCO DE EMPENHOS                                                                                                                                 A07FSOF00000000
000005229201030000000101000000000000000000000000000000000000000000000002705100000000000000000000027051(-) ANULACAO DE EMPENHOS                                                                                                                            A07FSOF00000000
000006000000000000000101000000000000000000000000000000148846886000033995502900000000000000000191108143CONTROLES DA EXECUCAO DO PLANEJAMENTO E ORCAMENTO                                                                                                   S01PNOF00000000
000006200000000000000101000000000000000000000000000000148846886000033995502900000000000000000191108143EXECUCAO DO ORCAMENTO                                                                                                                               S02PNOF00000000
000006220000000000000101000000000000000000000000000000148846886000033995502900000000000000000191108143EXECUCAO DA DESPESA                                                                                                                                 S03FNOF00000000
000006221000000000000101000000000000000000000000000000091117160000025086492000000000000000000159747760DISPONIBILIDADES DE CREDITO                                                                                                                         S04FNOF00000000
000006221100000000000101000000000000000000000000000000033387434000016177481100000000000000000128387377CREDITO DISPONIVEL                                                                                                                                  A05FSOF00000000
000006221300000000000101000000000000000000000000000000057729726000008909010900000000000000000031360383CREDITO UTILIZADO                                                                                                                                   S05FNOF00000000
000006221301000000000101000000000000000000000000000000029513684000003138743400000000000000000001873750CREDITO EMPENHADO A LIQUIDAR                                                                                                                        A06FSOF00000000
000006221303000000000101000000000000000000000000000000028216042000002948663300000000000000000001270591CREDITO EMPENHADO LIQUIDADO A PAGAR                                                                                                                 A06FSOF00000000
000006221304000000000101000000000000000000000000000000000000000000002821604200000000000000000028216042CREDITO EMPENHADO LIQUIDADO PAGO                                                                                                                    A06FSOF00000000
000006229000000000000101000000000000000000000000000000057729726000008909010900000000000000000031360383OUTROS CONTROLES DA DESPESA ORCAMENTARIA                                                                                                            S04FNOF00000000
000006229200000000000101000000000000000000000000000000057729726000008909010900000000000000000031360383EMISSAO DE EMPENHO                                                                                                                                  S05FNOF00000000
000006229201000000000101000000000000000000000000000000057729726000008909010900000000000000000031360383EMPENHOS POR NOTA DE EMPENHO                                                                                                                        S06FNOF00000000
000006229201010000000101000000000000000000000000000000029513684000003138743400000000000000000001873750EMPENHOS A LIQUIDAR                                                                                                                                 A07FSOF00000000
000006229201030000000101000000000000000000000000000000028216042000002948663300000000000000000001270591EMPENHOS LIQUIDADOS A PAGAR                                                                                                                         A07FSOF00000000
000006229201040000000101000000000000000000000000000000000000000000002821604200000000000000000028216042EMPENHOS LIQUIDADOS PAGOS                                                                                                                           A07FSOF00000000
000007000000000000000101000002067104700000000000000000066119625000002041538300000663752890000000000000CONTROLES DEVEDORES                                                                                                                                 S01FNCF00000000
000007100000000000000101000000025726200000000000000000000000000000000000000000000002572620000000000000ATOS POTENCIAIS                                                                                                                                     S02FNCF00000000
000007120000000000000101000000025726200000000000000000000000000000000000000000000002572620000000000000ATOS POTENCIAIS PASSIVOS                                                                                                                            S03FNCF00000000
000007123000000000000101000000025726200000000000000000000000000000000000000000000002572620000000000000OBRIGACOES CONTRATUAIS                                                                                                                              S04FNCF00000000
000007123100000000000101000000025726200000000000000000000000000000000000000000000002572620000000000000OBRIGACOES CONTRATUAIS - CONSOLIDACAO                                                                                                               S05FNCF00000000
000007123102000000000101000000025726200000000000000000000000000000000000000000000002572620000000000000CONTRATOS DE SERVICOS                                                                                                                               A06FSCF00000000
000007200000000000000101000000000000000000000000000000042157461000000000159800000421558630000000000000ADMINISTRACAO FINANCEIRA                                                                                                                            S02FNCF00000000
000007210000000000000101000000000000000000000000000000042157461000000000159800000421558630000000000000DISPONIBILIDADES POR DESTINACAO                                                                                                                     S03FNCF00000000
000007211000000000000101000000000000000000000000000000042157461000000000159800000421558630000000000000CONTROLE DA DISPONIBILIDADE DE RECURSOS                                                                                                             S04FNCF00000000
000007211100000000000101000000000000000000000000000000042140064000000000079900000421392650000000000000RECURSOS ORDINARIOS                                                                                                                                 S05FNCF00000000
000007211100010000000101000000000000000000000000000000042140064000000000079900000421392650000000000000DISPONIBILIDADE POR DESTINACAO DE RECURSOS - LIVRE                                                                                                  A07FSCF00000000
000007211380010000000101000000000000000000000000000000000017397000000000079900000000165980000000000000DISPONIBILIDADE POR DESTINACAO DE RECURSOS - RETENCOES E OUTROS EXTRAORCAMENTARIOS                                                                  A07FSCF00000000
000007900000000000000101000002041378500000000000000000023962164000002041378500000239621640000000000000OUTROS CONTROLES                                                                                                                                    S02FNCF00000000
000007990000000000000101000002041378500000000000000000023962164000002041378500000239621640000000000000DEMAIS CONTROLES                                                                                                                                    A03FSCF00000000
000008000000000000000101000000000000000000206710470000109657182000015536142400000000000000000066375289CONTROLES CREDORES                                                                                                                                  S01FNCF00000000
000008100000000000000101000000000000000000002572620000000106508000000010650800000000000000000000257262EXECUCAO DOS ATOS POTENCIAIS                                                                                                                        S02FNCF00000000
000008120000000000000101000000000000000000002572620000000106508000000010650800000000000000000000257262EXECUCAO DOS ATOS POTENCIAIS PASSIVOS                                                                                                               S03FNCF00000000
000008123000000000000101000000000000000000002572620000000106508000000010650800000000000000000000257262EXECUCAO DE OBRIGACOES CONTRATUAIS                                                                                                                  S04FNCF00000000
000008123100000000000101000000000000000000002572620000000106508000000010650800000000000000000000257262EXECUCAO DE OBRIGACOES -CONSOLIDACAO                                                                                                                S05FNCF00000000
000008123102000000000101000000000000000000002572620000000106508000000010650800000000000000000000257262CONTRATOS DE SERVICOS                                                                                                                               S06FNCF00000000
000008123102010000000101000000000000000000002572620000000106508000000000000000000000000000000000150754A EXECUTAR                                                                                                                                          A07FSCF00000000
000008123102020000000101000000000000000000000000000000000000000000000010650800000000000000000000106508EXECUTADOS                                                                                                                                          A07FSCF00000000
000008200000000000000101000000000000000000000000000000089136889000013129275200000000000000000042155863EXECUCAO DA ADMINISTRACAO FINANCEIRA                                                                                                                S02FNCF00000000
000008210000000000000101000000000000000000000000000000089136889000013129275200000000000000000042155863EXECUCAO DAS DISPONIBILIDADES POR DESTINACAO                                                                                                        S03FNCF00000000
000008211000000000000101000000000000000000000000000000089136889000013129275200000000000000000042155863EXECUCAO DA DISPONIBILIDADE DE RECURSOS                                                                                                             S04FNCF00000000
000008211100000000000101000000000000000000000015330000031390565000004216791400000000000000000010778882DISPONIBILIDADE POR DESTINACAO DE RECURSOS                                                                                                          S05FNCF00010000
000008211101000100000101000000000000000000000015330000031389766000004216711500000000000000000010778882DISPONIBILIDADE POR DESTINACAO DE RECURSOS - LIVRE                                                                                                  A08FSCF00010000
000008211101800100000101000000000000000000000000000000000000799000000000079900000000000000000000000000DISPONIBILIDADE POR DESTINACAO DE RECURSOS - RETENCOES E OUTROS EXTRAORCAMENTARIOS                                                                  A08FSCF00010000
000008211200000000000101000000000000000000000000000000029513684000003138743400000000000000000001873750DISPONIBILIDADE POR DESTINACAO DE RECURSOS COMPROMETIDA POR EMPENHO                                                                                 S05FNCF00000000
000008211201000100000101000000000000000000000000000000029513684000003138743400000000000000000001873750DISPONIBILIDADE POR DESTINACAO DE RECURSOS COMPROMETIDA POR EMPENHO - LIVRE                                                                         A08FSCF00000000
000008211300000000000101000000000153300000000000000000028232640000002950476400000000000000000001270591DISPONIBILIDADE POR DESTINACAO DE RECURSOS COMPROMETIDA POR LIQUIDACAO E ENTRADAS COMPENSATORIAS                                                    S05FNCF00000000
000008211301000100000101000000000153300000000000000000028216042000002948816600000000000000000001270591DISPONIBILIDADE POR DESTINACAO DE RECURSOS - LIVRE                                                                                                  A08FSCF00000000
000008211302800100000101000000000000000000000000000000000016598000000001659800000000000000000000000000DISPONIBILIDADE POR DESTINACAO DE RECURSOS - RETENCOES E OUTROS EXTRAORCAMENTARIOS                                                                  A08FSCF00000000
000008211400000000000101000000000000000000000000000000000000000000002823264000000000000000000028232640DISPONIBILIDADE POR DESTINACAO DE RECURSOS UTILIZADA                                                                                                S05FNCF00000000
000008211400010000000101000000000000000000000000000000000000000000002821604200000000000000000028216042DISPONIBILIDADE POR DESTINACAO DE RECURSOS - LIVRE                                                                                                  A07FSCF00000000
000008211480010000000101000000000000000000000000000000000000000000000001659800000000000000000000016598DISPONIBILIDADE POR DESTINACAO DE RECURSOS - RETENCOES E OUTROS EXTRAORCAMENTARIOS                                                                  A07FSCF00000000
000008900000000000000101000000000000000000204137850000020413785000002396216400000000000000000023962164OUTROS CONTROLES                                                                                                                                    S02FNCF00000000
000008990000000000000101000000000000000000204137850000020413785000002396216400000000000000000023962164DEMAIS CONTROLES CREDORES                                                                                                                           S03FNCF00000000
000008999000000000000101000000000000000000204137850000020413785000002396216400000000000000000023962164DEMAIS CONTROLES                                                                                                                                    S04FNCF00000000
000008999007000000000101000000000000000000204137850000020413785000002396216400000000000000000023962164CONTROLE DA SUPLEMENTACAO AUTORIZADO EM LOA                                                                                                         S06FNCF00000000
000008999007201900000101000000000000000000204137850000020413785000002396216400000000000000000023962164LOA 2019 LEI 2845/2018                                                                                                                              S08FNCF00000000
000008999007201901000101000000000000000000182300810000018230081000002396216400000000000000000023962164LIMITE DISPONIVEL                                                                                                                                   A09FSCF00000000
000008999007201903000101000000000000000000021837040000002183704000000000000000000000000000000000000000LIMITE UTILIZADO                                                                                                                                    A09FSCF00000000
FINALIZADOR0000000247                                                                                                                                                                                                                                                                                                                                                                                                                                                                                                                                                                                                                                                                                                                                                                                                           
