12292535000162010120183112201823012019CAMARA DE VEREADORES DE INDEPENDENCIA-RS                                        
000001000000000000000101000000344107000000000000000000308766780000030899620400000032116460000000000000ATIVO                                                                                                                                               S01FNPF
000001100000000000000101000000010100000000000000000000308624931000030871623100000000097000000000000000ATIVO CIRCULANTE                                                                                                                                    S02FNPF
000001110000000000000101000000010100000000000000000000295991731000029609273100000000000000000000000000CAIXA E EQUIVALENTES DE CAIXA                                                                                                                       S03FNPF
000001111000000000000101000000010100000000000000000000295991731000029609273100000000000000000000000000CAIXA E EQUIVALENTES DE CAIXA EM MOEDA NACIONAL                                                                                                     S04FNPF
000001111100000000000101000000010100000000000000000000295991731000029609273100000000000000000000000000CAIXA E EQUIVALENTES DE CAIXA EM MOEDA NACIONAL - CONSOLIDACAO                                                                                      S05FNPF
000001111119000000000101000000010100000000000000000000201937525000020203852500000000000000000000000000BANCOS CONTA MOVIMENTO - DEMAIS CONTAS                                                                                                              S06FNPF
000001111119120000000101000000010100000000000000000000201937525000020203852500000000000000000000000000BANCO DO ESTADO DO RIO GRANDE DO SUL                                                                                                                S07FNPF
000001111119120500000101000000010100000000000000000000201937525000020203852500000000000000000000000000BANRISUL GERAL CAMARA MOV 0001 1064/04.080187.0-6                                                                                                   A08FSPF
000001111150000000000101000000000000000000000000000000094054206000009405420600000000000000000000000000APLICACOES FINANCEIRAS DE LIQUIDEZ IMEDIATA                                                                                                         S06FNPF
000001111150030000000101000000000000000000000000000000094054206000009405420600000000000000000000000000FUNDOS DE INVESTIMENTO                                                                                                                              S07FNPF
000001111150032200000101000000000000000000000000000000094054206000009405420600000000000000000000000000BANRISUL GERAL CAMARA APLIC 0001 1064/04.080187.0-6                                                                                                 A08FSPF
000001190000000000000101000000000000000000000000000000012633200000001262350000000000097000000000000000VARIACOES PATRIMONIAIS DIMINUTIVAS PAGAS ANTECIPADAMENTE                                                                                            S03FNPF
000001193000000000000101000000000000000000000000000000000009500000000000950000000000000000000000000000ASSINATURAS E ANUIDADES A APROPRIAR                                                                                                                 S04FNPF
000001193100000000000101000000000000000000000000000000000009500000000000950000000000000000000000000000ASSINATURAS E ANUIDADES A APROPRIAR - CONSOLIDACAO                                                                                                  A05FSPP
000001198000000000000101000000000000000000000000000000012623700000001261400000000000097000000000000000DEMAIS VPD A APROPRIAR                                                                                                                              S04FNPF
000001198100000000000101000000000000000000000000000000012623700000001261400000000000097000000000000000DEMAIS VPD A APROPRIAR - CONSOLIDACAO                                                                                                               S05FNPP
000001198103000000000101000000000000000000000000000000012283700000001227400000000000097000000000000000DIARIAS A APROPRIAR                                                                                                                                 A06FSPP
000001198199000000000101000000000000000000000000000000000340000000000034000000000000000000000000000000OUTRAS VPD A APROPRIAR                                                                                                                              A06FSPP
000001200000000000000101000000334007000000000000000000000141849000000027997300000032019460000000000000ATIVO NAO CIRCULANTE                                                                                                                                S02FNPF
000001230000000000000101000000334007000000000000000000000141849000000027997300000032019460000000000000IMOBILIZADO                                                                                                                                         S03PNPP
000001231000000000000101000000524316100000000000000000000130346000000008624500000052872620000000000000BENS MOVEIS                                                                                                                                         S04PNPP
000001231100000000000101000000524316100000000000000000000130346000000008624500000052872620000000000000BENS MOVEIS- CONSOLIDACAO                                                                                                                           S05PNPP
000001231101000000000101000000077760000000000000000000000000000000000000000000000007776000000000000000MAQUINAS, APARELHOS, EQUIPAMENTOS E FERRAMENTAS                                                                                                     A06PSPP
000001231102000000000101000000148161000000000000000000000000000000000000000000000014816100000000000000BENS DE INFORMATICA                                                                                                                                 A06PSPP
000001231103000000000101000000162045100000000000000000000076796000000003269500000016645520000000000000MOVEIS E UTENSILIOS                                                                                                                                 A06PSPP
000001231104000000000101000000136350000000000000000000000053550000000005355000000013635000000000000000MATERIAIS CULTURAIS, EDUCACIONAIS E DE COMUNICACAO                                                                                                  A06PSPP
000001238000000000000101000000000000000000019030910000000011503000000019372800000000000000000002085316(-) DEPRECIACAO, EXAUSTAO E AMORTIZACAO ACUMULADAS                                                                                                  S04PNPP
000001238100000000000101000000000000000000019030910000000011503000000019372800000000000000000002085316(-) DEPRECIACAO, EXAUSTAO E AMORTIZACAO ACUMULADAS - CONSOLIDACAO                                                                                   S05PNPP
000001238101000000000101000000000000000000019030910000000011503000000019372800000000000000000002085316(-) DEPRECIACAO ACUMULADA – BENS MOVEIS                                                                                                             S06PNPP
000001238101010000000101000000000000000000001143370000000000000000000004360800000000000000000000157945(-) DEPRECIACAO ACUMULADA DE MAQUINAS, APARELHOS, EQUIPAMENTOS E FERRAMENTAS                                                                        A07PSPP
000001238101020000000101000000000000000000012452260000000000000000000006511000000000000000000001310336(-) DEPRECIACAO ACUMULADA DE BENS DE INFORMATICA                                                                                                    A07PSPP
000001238101030000000101000000000000000000001987380000000011503000000006225000000000000000000000249485(-) DEPRECIACAO ACUMULADA DE MOVEIS E UTENSILIOS                                                                                                    A07PSPP
000001238101040000000101000000000000000000003447900000000000000000000002276000000000000000000000367550(-) DEPRECIACAO ACUMULADA DE MATERIAIS CULTURAIS, EDUCACIONAIS E DE COMUNICACAO                                                                     A07PSPP
000002000000000000000101000000000000000000034410700000113581005000011544745500000000000000000005307520PASSIVO E PATRIMONIO LIQUIDO                                                                                                                        S01FNPF
000002100000000000000101000000000000000000045597200000113505681000011111456200000000000000000002168601PASSIVO CIRCULANTE                                                                                                                                  S02FNPF
000002110000000000000101000000000000000000045597200000010076932000000768581300000000000000000002168601OBRIGACOES TRABALHISTAS, PREVIDENCIARIAS E ASSISTENCIAIS A PAGAR A CURTO PRAZO                                                                      S03FNPF
000002111000000000000101000000000000000000045597200000010076932000000768581300000000000000000002168601PESSOAL A PAGAR                                                                                                                                     S04FNPF
000002111100000000000101000000000000000000045597200000010076932000000768581300000000000000000002168601PESSOAL A PAGAR - CONSOLIDACAO                                                                                                                      S05FNPF
000002111101000000000101000000000000000000045597200000010076932000000768581300000000000000000002168601PESSOAL A PAGAR                                                                                                                                     S06FNPF
000002111101020000000101000000000000000000000000000000005512749000000551274900000000000000000000000000DECIMO TERCEIRO SALARIO                                                                                                                             A07FSPP
000002111101030000000101000000000000000000045597200000004564183000000217306400000000000000000002168601FERIAS                                                                                                                                              A07FSPP
000002130000000000000101000000000000000000000000000000102127304000010212730400000000000000000000000000FORNECEDORES E CONTAS A PAGAR A CURTO PRAZO                                                                                                         S03FNPF
000002131000000000000101000000000000000000000000000000102127304000010212730400000000000000000000000000FORNECEDORES E CONTAS A PAGAR NACIONAIS A CURTO PRAZO                                                                                               S04FNPF
000002131100000000000101000000000000000000000000000000102127304000010212730400000000000000000000000000FORNECEDORES E CONTAS A PAGAR NACIONAIS A CURTO PRAZO - CONSOLIDACAO                                                                                S05FNPF
000002131101000000000101000000000000000000000000000000102127304000010212730400000000000000000000000000FORNECEDORES NACIONAIS                                                                                                                              S06FNPF
000002131101010100000101000000000000000000000000000000102026304000010202630400000000000000000000000000FORNECEDORES DO EXERCICIO                                                                                                                           A08FSPF
000002131101010200000101000000000000000000000000000000000101000000000010100000000000000000000000000000FORNECEDORES DE EXERCICIOS ANTERIORES                                                                                                               S08FNPF
000002131101010207000101000000000000000000000000000000000101000000000010100000000000000000000000000000RESTOS A PAGAR NAO PROCESSADOS 2016 LIQUIDADOS                                                                                                      A09FSPF
000002180000000000000101000000000000000000000000000000001301445000000130144500000000000000000000000000DEMAIS OBRIGACOES A CURTO PRAZO                                                                                                                     S03FNPF
000002188000000000000101000000000000000000000000000000001301445000000130144500000000000000000000000000VALORES RESTITUIVEIS                                                                                                                                S04FNPF
000002188100000000000101000000000000000000000000000000001238509000000123850900000000000000000000000000VALORES RESTITUIVEIS - CONSOLIDACAO                                                                                                                 S05FNPF
000002188101000000000101000000000000000000000000000000000003260000000000326000000000000000000000000000CONSIGNACOES                                                                                                                                        S06FNPF
000002188101080000000101000000000000000000000000000000000003260000000000326000000000000000000000000000ISS                                                                                                                                                 A07FSPF
000002188104000000000101000000000000000000000000000000000894249000000089424900000000000000000000000000DEPOSITOS NAO JUDICIAIS                                                                                                                             S06FNPF
000002188104990000000101000000000000000000000000000000000894249000000089424900000000000000000000000000OUTROS DEPOSITOS                                                                                                                                    A07FSPF
000002188199000000000101000000000000000000000000000000000341000000000034100000000000000000000000000000OUTROS VALORES RESTITUIVEIS                                                                                                                         A06FSPF
000002188301040000000101000000000000000000000000000000000062936000000006293600000000000000000000000000IMPOSTO SOBRE A RENDA RETIDO NA FONTE - IRRF - INTER-OFSS UNIAO                                                                                     S07FNPF
000002188301040200000101000000000000000000000000000000000062936000000006293600000000000000000000000000IRRF SERVICOS PJ 1708-06                                                                                                                            S08FNPF
000002188301040202000101000000000000000000000000000000000062936000000006293600000000000000000000000000IRRF SERVICOS PJ 1708-06 LEGISLATIVO                                                                                                                A09FSPF
000002300000000000000101000000111865000000000000000000000075324000000433289300000000000000000003138919PATRIMONIO LIQUIDO                                                                                                                                  S02PNPF
000002370000000000000101000000111865000000000000000000000075324000000433289300000000000000000003138919RESULTADOS ACUMULADOS                                                                                                                               S03PNPP
000002371000000000000101000000111865000000000000000000000075324000000433289300000000000000000003138919SUPERAVITS OU DEFICITS ACUMULADOS                                                                                                                   S04PNPP
000002371100000000000101000000104541400000000000000000000053550000000431111900000000000000000003212155SUPERAVITS OU DEFICITS ACUMULADOS - CONSOLIDACAO                                                                                                    S05PNPP
000002371102000000000101000000104541400000000000000000000000000000000000000000000010454140000000000000SUPERAVITS OU DEFICITS DE EXERCICIOS ANTERIORES                                                                                                     A06PSPP
000002371103000000000101000000000000000000000000000000000053550000000431111900000000000000000004257569AJUSTES DE EXERCICIOS ANTERIORES                                                                                                                    A06PSPP
000002371200000000000101000000007323600000000000000000000021774000000002177400000000732360000000000000SUPERAVITS OU DEFICITS ACUMULADOS - INTRA OFSS                                                                                                      S05PNPP
000002371202000000000101000000005146200000000000000000000021774000000000000000000000732360000000000000SUPERAVITS OU DEFICITS DE EXERCICIOS ANTERIORES                                                                                                     A06PSPP
000002371203000000000101000000002177400000000000000000000000000000000002177400000000000000000000000000AJUSTES DE EXERCICIOS ANTERIORES                                                                                                                    A06PSPP
000003000000000000000101000000000000000000000000000000111548754000000059991300001109488410000000000000VARIACAO PATRIMONIAL DIMINUTIVA                                                                                                                     S01FNPF
000003100000000000000101000000000000000000000000000000081622259000000058701300000810352460000000000000PESSOAL E ENCARGOS                                                                                                                                  S02FNPF
000003110000000000000101000000000000000000000000000000064790495000000058701300000642034820000000000000REMUNERACAO A PESSOAL                                                                                                                               S03FNPF
000003111000000000000101000000000000000000000000000000059793603000000058701300000592065900000000000000REMUNERACAO A PESSOAL ATIVO CIVIL – ABRANGIDOS PELO RPPS                                                                                            S04FNPF
000003111100000000000101000000000000000000000000000000059793603000000058701300000592065900000000000000REMUNERACAO A PESSOAL ATIVO CIVIL – ABRANGIDOS PELO RPPS  - CONSOLIDACAO                                                                            S05FNPF
000003111101000000000101000000000000000000000000000000059793603000000058701300000592065900000000000000VENCIMENTOS E VANTAGENS FIXAS - PESSOAL CIVIL - RPPS                                                                                                S06FNPF
000003111101010000000101000000000000000000000000000000016595365000000000000000000165953650000000000000VENCIMENTOS E SALARIOS                                                                                                                              A07FSPF
000003111101170000000101000000000000000000000000000000000477119000000000000000000004771190000000000000INDENIZACAO DE LOCALIZACAO                                                                                                                          A07FSPF
000003111101180000000101000000000000000000000000000000000737476000000000000000000007374760000000000000GRATIFICACAO DE TEMPO DE SERVICO                                                                                                                    A07FSPF
00000311110122000000010100000000000000000000000000000000063719100000005870130000000050178000000000000013. SALARIO                                                                                                                                         A07FSPF
000003111101240000000101000000000000000000000000000000000275780000000000000000000002757800000000000000FERIAS – ABONO CONSTITUCIONAL                                                                                                                       A07FSPF
000003111101250000000101000000000000000000000000000000000160290000000000000000000001602900000000000000LICENCA-PREMIO                                                                                                                                      A07FSPF
000003111101280000000101000000000000000000000000000000001312800000000000000000000013128000000000000000REPRESENTACAO MENSAL                                                                                                                                A07FSPF
000003111101310000000101000000000000000000000000000000039214587000000000000000000392145870000000000000SUBSIDIOS                                                                                                                                           A07FSPF
000003111101990000000101000000000000000000000000000000000382995000000000000000000003829950000000000000OUTROS VENCIMENTOS E VANTAGENS FIXAS – PESSOAL CIVIL RPPS                                                                                           A07FSPF
000003112000000000000101000000000000000000000000000000004996892000000000000000000049968920000000000000REMUNERACAO A PESSOAL ATIVO CIVIL – ABRANGIDOS PELO - RGPS                                                                                          S04FNPF
000003112100000000000101000000000000000000000000000000004996892000000000000000000049968920000000000000REMUNERACAO A PESSOAL ATIVO CIVIL – ABRANGIDOS PELO - RGPS - CONSOLIDACAO                                                                           S05FNPF
000003112101000000000101000000000000000000000000000000004996892000000000000000000049968920000000000000VENCIMENTOS E VANTAGENS FIXAS - PESSOAL CIVIL - RGPS                                                                                                S06FNPF
00000311210122000000010100000000000000000000000000000000390219500000000000000000003902195000000000000013. SALARIO                                                                                                                                         A07FSPF
000003112101240000000101000000000000000000000000000000001094697000000000000000000010946970000000000000FERIAS - ABONO CONSTITUCIONAL                                                                                                                       A07FSPF
000003120000000000000101000000000000000000000000000000016831764000000000000000000168317640000000000000ENCARGOS PATRONAIS                                                                                                                                  S03FNPF
000003121000000000000101000000000000000000000000000000001904506000000000000000000019045060000000000000ENCARGOS PATRONAIS - RPPS                                                                                                                           S04FNPF
000003121200000000000101000000000000000000000000000000001904506000000000000000000019045060000000000000ENCARGOS PATRONAIS - RPPS - INTRA OFSS                                                                                                              S05FNPF
000003121201000000000101000000000000000000000000000000001904506000000000000000000019045060000000000000CONTRIBUICAO PATRONAL PARA O RPPS                                                                                                                   A06FSPF
000003122000000000000101000000000000000000000000000000014927258000000000000000000149272580000000000000ENCARGOS PATRONAIS - RGPS                                                                                                                           S04FNPF
000003122100000000000101000000000000000000000000000000001023871000000000000000000010238710000000000000ENCARGOS PATRONAIS - RGPS - CONSOLIDACAO                                                                                                            S05FNPF
000003122101000000000101000000000000000000000000000000001023871000000000000000000010238710000000000000CONTRIBUICOES PREVIDENCIARIAS - INSS                                                                                                                A06FSPF
000003122300000000000101000000000000000000000000000000013903387000000000000000000139033870000000000000ENCARGOS PATRONAIS - RGPS - INTER OFSS - UNIAO                                                                                                      S05FNPF
000003122301000000000101000000000000000000000000000000013903387000000000000000000139033870000000000000CONTRIBUICOES PREVIDENCIARIAS - INSS                                                                                                                A06FSPF
000003300000000000000101000000000000000000000000000000020787532000000001290000000207746320000000000000USO DE BENS, SERVICOS E CONSUMO DE CAPITAL FIXO                                                                                                     S02FNPF
000003310000000000000101000000000000000000000000000000004231770000000001290000000042188700000000000000USO DE MATERIAL DE CONSUMO                                                                                                                          S03FNPF
000003311000000000000101000000000000000000000000000000004231770000000001290000000042188700000000000000CONSUMO DE MATERIAL                                                                                                                                 S04FNPF
000003311100000000000101000000000000000000000000000000004231770000000001290000000042188700000000000000CONSUMO DE MATERIAL - CONSOLIDACAO                                                                                                                  S05FNPF
000003311101000000000101000000000000000000000000000000002105606000000000000000000021056060000000000000COMBUSTIVEIS E LUBRIFICANTES AUTOMOTIVEIS                                                                                                           A06FSPF
000003311103000000000101000000000000000000000000000000000036800000000000000000000000368000000000000000GAS E OUTROS MATERIAIS ENGARRAFADOS                                                                                                                 A06FSPF
000003311106000000000101000000000000000000000000000000001396088000000000000000000013960880000000000000GENEROS ALIMENTACAO                                                                                                                                 A06FSPF
000003311115000000000101000000000000000000000000000000000021000000000000000000000000210000000000000000MATERIAL PARA  FESTIVIDADES E HOMENAGENS                                                                                                            A06FSPF
000003311116000000000101000000000000000000000000000000000227352000000000000000000002273520000000000000MATERIAL DE EXPEDIENTE                                                                                                                              A06FSPF
000003311117000000000101000000000000000000000000000000000146100000000000000000000001461000000000000000MATERIAL DE PROCESSAMENTO DE DADOS                                                                                                                  A06FSPF
000003311119000000000101000000000000000000000000000000000012900000000001290000000000000000000000000000MATERIAL DE ACONDICIONAMENTO E EMBALAGEM                                                                                                            A06FSPF
000003311122000000000101000000000000000000000000000000000114320000000000000000000001143200000000000000MATERIAL DE LIMPEZA E PRODUTOS DE HIGIENIZACAO                                                                                                      A06FSPF
000003311124000000000101000000000000000000000000000000000008900000000000000000000000089000000000000000MATERIAL PARA MANUTENCAO DE BENS IMOVEIS/INSTALACOES                                                                                                A06FSPF
000003311126000000000101000000000000000000000000000000000006444000000000000000000000064440000000000000MATERIAL ELETRICO E ELETRONICO                                                                                                                      A06FSPF
000003311129000000000101000000000000000000000000000000000098000000000000000000000000980000000000000000MATERIAL PARA  AUDIO, VIDEO E FOTO                                                                                                                  A06FSPF
000003311131000000000101000000000000000000000000000000000045390000000000000000000000453900000000000000SEMENTES, MUDAS DE PLANTAS E INSUMOS                                                                                                                A06FSPF
000003311148000000000101000000000000000000000000000000000012870000000000000000000000128700000000000000BENS MOVEIS NAO ATIVAVEIS                                                                                                                           A06FSPF
000003320000000000000101000000000000000000000000000000016368208000000000000000000163682080000000000000SERVICOS                                                                                                                                            S03FNPF
000003321000000000000101000000000000000000000000000000009925200000000000000000000099252000000000000000DIARIAS                                                                                                                                             S04FNPF
000003321100000000000101000000000000000000000000000000009925200000000000000000000099252000000000000000DIARIAS - CONSOLIDACAO                                                                                                                              S05FNPF
000003321101000000000101000000000000000000000000000000009925200000000000000000000099252000000000000000DIARIAS  PESSOAL CIVIL                                                                                                                              A06FSPF
000003323000000000000101000000000000000000000000000000006443008000000000000000000064430080000000000000SERVICOS TERCEIROS - PJ                                                                                                                             S04FNPF
000003323100000000000101000000000000000000000000000000006443008000000000000000000064430080000000000000SERVICOS TERCEIROS - PJ - CONSOLIDACAO                                                                                                              S05FNPF
000003323104000000000101000000000000000000000000000000000375159000000000000000000003751590000000000000COMUNICACAO                                                                                                                                         A06FSPF
000003323105000000000101000000000000000000000000000000000060000000000000000000000000600000000000000000PUBLICIDADE                                                                                                                                         A06FSPF
000003323106000000000101000000000000000000000000000000000680000000000000000000000006800000000000000000MANUTENCAO E CONSERVACAO                                                                                                                            A06FSPF
000003323108000000000101000000000000000000000000000000000243444000000000000000000002434440000000000000SERVICOS DE AGUA E ESGOTO, ENERGIA ELETRICA, GAS E OUTROS.                                                                                          A06FSPF
000003323110000000000101000000000000000000000000000000000370500000000000000000000003705000000000000000LOCACOES                                                                                                                                            A06FSPF
000003323111000000000101000000000000000000000000000000000470305000000000000000000004703050000000000000SERVICOS RELACIONADOS A TECNOLOGIA DA INFORMACAO                                                                                                    A06FSPF
000003323114000000000101000000000000000000000000000000000009500000000000000000000000095000000000000000ASSINATURAS DE PERIODICOS E ANUIDADES                                                                                                               A06FSPF
000003323130000000000101000000000000000000000000000000003510000000000000000000000035100000000000000000SELECAO E TREINAMENTO                                                                                                                               A06FSPF
000003323146000000000101000000000000000000000000000000000022400000000000000000000000224000000000000000SERVICOS GRAFICOS E EDITORIAIS                                                                                                                      A06FSPF
000003323151000000000101000000000000000000000000000000000701700000000000000000000007017000000000000000SERVICOS TECNICOS PROFISSIONAIS                                                                                                                     A06FSPF
000003330000000000000101000000000000000000000000000000000187554000000000000000000001875540000000000000DEPRECIACAO, AMORTIZACAO E EXAUSTAO                                                                                                                 S03FNPF
000003331000000000000101000000000000000000000000000000000187554000000000000000000001875540000000000000DEPRECIACAO                                                                                                                                         S04FNPF
000003331100000000000101000000000000000000000000000000000187554000000000000000000001875540000000000000DEPRECIACAO - CONSOLIDACAO                                                                                                                          S05FNPF
000003331101000000000101000000000000000000000000000000000187554000000000000000000001875540000000000000DEPRECIACAO DE IMOBILIZADO                                                                                                                          S06FNPF
000003331101010000000101000000000000000000000000000000000187554000000000000000000001875540000000000000DEPRECIACAO DE BENS MOVEIS                                                                                                                          A07FSPF
000003500000000000000101000000000000000000000000000000009138963000000000000000000091389630000000000000TRANSFERENCIAS E DELEGACOES CONCEDIDAS                                                                                                              S02FNPF
000003510000000000000101000000000000000000000000000000009138963000000000000000000091389630000000000000TRANSFERENCIAS INTRAGOVERNAMENTAIS                                                                                                                  S03FNPF
000003511000000000000101000000000000000000000000000000006764164000000000000000000067641640000000000000TRANSFERENCIAS CONCEDIDAS PARA A EXECUCAO ORCAMENTARIA                                                                                              S04FNPF
000003511200000000000101000000000000000000000000000000006764164000000000000000000067641640000000000000TRANSFERENCIAS CONCEDIDAS PARA A   EXECUCAO ORCAMENTARIA – INTRA OFSS                                                                               S05FNPF
000003511202010100000101000000000000000000000000000000006764164000000000000000000067641640000000000000REPASSE FINANCEIRO CONCEDIDO PARA OUTRA ENTIDADE - RECURSO LIVRE                                                                                    A08FSPF
000003512000000000000101000000000000000000000000000000002374799000000000000000000023747990000000000000TRANSFERENCIAS CONCEDIDAS - INDEPENDENTES DE EXECUCAO ORCAMENTARIA                                                                                  S04FNPF
000003512200000000000101000000000000000000000000000000002374799000000000000000000023747990000000000000TRANSFERENCIAS CONCEDIDAS - INDEPENDENTES DE EXECUCAO ORCAMENTARIA – INTRA OFSS                                                                     S05FNPF
000003512202000000000101000000000000000000000000000000002374799000000000000000000023747990000000000000TRANSFERENCIAS NAO FINANCEIRAS CONCEDIDAS - INDEPENDENTES DE EXECUCAO ORCAMENTARIA                                                                  S06FNPF
000003512202030000000101000000000000000000000000000000000025999000000000000000000000259990000000000000TRANFERENCIAS CONCEDIDAS DE BENS MOVEIS                                                                                                             A07FSPF
000003512202990000000101000000000000000000000000000000002348800000000000000000000023488000000000000000OUTRAS TRANSFERENCIAS NAO FINANCEIRAS CONCEDIDAS - INDEPENDENTES DE EXECUCAO ORCAMENTARIA                                                           A07FSPF
000004000000000000000101000000000000000000000000000000000000000000010885296700000000000000000108852967VARIACAO PATRIMONIAL AUMENTATIVA                                                                                                                    S01FNPF
000004500000000000000101000000000000000000000000000000000000000000010885296700000000000000000108852967TRANSFERENCIAS E DELEGACOES RECEBIDAS                                                                                                               S02FNPF
000004510000000000000101000000000000000000000000000000000000000000010885296700000000000000000108852967TRANSFERENCIAS INTRAGOVERNAMENTAIS                                                                                                                  S03FNPF
000004511000000000000101000000000000000000000000000000000000000000010877756800000000000000000108777568TRANSFERENCIAS RECEBIDAS PARA A EXECUCAO ORCAMENTARIA                                                                                               S04FNPF
000004511200000000000101000000000000000000000000000000000000000000010877756800000000000000000108777568TRANSFERENCIAS RECEBIDAS PARA A EXECUCAO ORCAMENTARIA - INTRA OFSS                                                                                  S05FNPF
000004511202010100000101000000000000000000000000000000000000000000010877756800000000000000000108777568TRANSFERENCIA DE COTA FINANCEIRA RECEBIDA DE OUTRA ENTIDADE - RECURSO LIVRE                                                                         A08FSPF
000004512000000000000101000000000000000000000000000000000000000000000007539900000000000000000000075399TRANSFERENCIAS RECEBIDAS INDEPENDENTES DE EXECUCAO ORCAMENTARIA                                                                                     S04FNPF
000004512200000000000101000000000000000000000000000000000000000000000007539900000000000000000000075399TRANSFERENCIAS RECEBIDAS INDEPENDENTES DE EXECUCAO ORCAMENTARIA - INTRA OFSS                                                                        S05FNPF
000004512202000000000101000000000000000000000000000000000000000000000007539900000000000000000000075399TRANSFERENCIAS NAO FINANCEIRAS RECEBIDAS - INDEPENDENTES DE EXECUCAO ORCAMENTARIA                                                                   A06FSPF
000005000000000000000101000000010100000000000000000000237648869000002685789700002108919720000000000000CONTROLES DA APROVACAO DO PLANEJAMENTO E ORCAMENTO                                                                                                  S01FNOF
000005200000000000000101000000000000000000000000000000237648869000002685789700002107909720000000000000ORCAMENTO APROVADO                                                                                                                                  S02FNOF
000005220000000000000101000000000000000000000000000000237648869000002685789700002107909720000000000000FIXACAO DA DESPESA                                                                                                                                  S03FNOF
000005221000000000000101000000000000000000000000000000135255568000002647800000001087775680000000000000DOTACAO ORCAMENTARIA                                                                                                                                S04FNOF
000005221100000000000101000000000000000000000000000000111277568000000000000000001112775680000000000000DOTACAO INICIAL                                                                                                                                     S05FNOF
000005221101000000000101000000000000000000000000000000111277568000000000000000001112775680000000000000CREDITO INICIAL                                                                                                                                     A06FSOF
000005221200000000000101000000000000000000000000000000011989000000000000000000000119890000000000000000DOTACAO ADICIONAL POR TIPO DE CREDITO                                                                                                               S05FNOF
000005221201000000000101000000000000000000000000000000011989000000000000000000000119890000000000000000CREDITO ADICIONAL – SUPLEMENTAR                                                                                                                     A06FSOF
000005221300000000000101000000000000000000000000000000011989000000002647800000000000000000000014489000DOTACAO ADICIONAL POR FONTE                                                                                                                         S05FNOF
000005221303000000000101000000000000000000000000000000011989000000000000000000000119890000000000000000ANULACAO DE DOTACAO                                                                                                                                 A06FSOF
000005221309000000000101000000000000000000000000000000000000000000001448900000000000000000000014489000(-) CANCELAMENTO DE DOTACOES                                                                                                                        A06FSOF
000005221399000000000101000000000000000000000000000000000000000000001198900000000000000000000011989000VALOR GLOBAL DA DOTACAO ADICIONAL POR FONTE                                                                                                         A06FSOF
000005229000000000000101000000000000000000000000000000102393301000000037989700001020134040000000000000OUTROS CONTROLES DA DESPESA ORCAMENTARIA                                                                                                            S04FNOF
000005229200000000000101000000000000000000000000000000102393301000000037989700001020134040000000000000EMPENHOS POR EMISSAO                                                                                                                                S05FNOF
000005229201000000000101000000000000000000000000000000102393301000000037989700001020134040000000000000EXECUCAO DA DESPESA POR NOTA DE EMPENHO                                                                                                             S06FNOF
000005229201010000000101000000000000000000000000000000102393301000000000000000001023933010000000000000EMISSAO DE EMPENHOS                                                                                                                                 A07FSOF
000005229201030000000101000000000000000000000000000000000000000000000037989700000000000000000000379897(-)ANULACAO DE EMPENHOS                                                                                                                             A07FSOF
000005300000000000000101000000010100000000000000000000000000000000000000000000000001010000000000000000INSCRICAO DE RESTOS A PAGAR                                                                                                                         S02PNOF
000005310000000000000101000000010100000000000000000000000000000000000000000000000001010000000000000000INSCRICAO DE RP NAO PROCESSADOS                                                                                                                     S03PNOF
000005311000000000000101000000010100000000000000000000000000000000000000000000000001010000000000000000RP NAO PROCESSADOS INSCRITOS                                                                                                                        A04PSOF
000006000000000000000101000000000000000000001010000000525949311000073674028300000000000000000210891972CONTROLES DA EXECUCAO DO PLANEJAMENTO E ORCAMENTO                                                                                                   S01FNOF
000006200000000000000101000000000000000000000000000000525747311000073653828300000000000000000210790972EXECUCAO DO ORCAMENTO                                                                                                                               S02PNOF
000006220000000000000101000000000000000000000000000000525747311000073653828300000000000000000210790972EXECUCAO DA DESPESA                                                                                                                                 S03FNOF
000006221000000000000101000000000000000000000000000000321314806000043009237400000000000000000108777568DISPONIBILIDADES DE CREDITO                                                                                                                         S04FNOF
000006221100000000000101000000000000000000000000000000116882301000012364646500000000000000000006764164CREDITO DISPONIVEL                                                                                                                                  A05FSOF
000006221300000000000101000000000000000000000000000000204432505000030644590900000000000000000102013404CREDITO UTILIZADO                                                                                                                                   S05FNOF
000006221301000000000101000000000000000000000000000000102406201000010240620100000000000000000000000000CREDITO EMPENHADO A LIQUIDAR                                                                                                                        A06FSOF
000006221303000000000101000000000000000000000000000000102026304000010202630400000000000000000000000000CREDITO EMPENHADO LIQUIDADO A PAGAR                                                                                                                 A06FSOF
000006221304000000000101000000000000000000000000000000000000000000010201340400000000000000000102013404CREDITO EMPENHADO LIQUIDADO PAGO                                                                                                                    A06FSOF
000006229000000000000101000000000000000000000000000000204432505000030644590900000000000000000102013404OUTROS CONTROLES DA DESPESA ORCAMENTARIA                                                                                                            S04FNOF
000006229200000000000101000000000000000000000000000000204432505000030644590900000000000000000102013404EMISSAO DE EMPENHO                                                                                                                                  S05FNOF
000006229201000000000101000000000000000000000000000000204432505000030644590900000000000000000102013404EMPENHOS POR NOTA DE EMPENHO                                                                                                                        S06FNOF
000006229201010000000101000000000000000000000000000000102406201000010240620100000000000000000000000000EMPENHOS A LIQUIDAR                                                                                                                                 A07FSOF
000006229201030000000101000000000000000000000000000000102026304000010202630400000000000000000000000000EMPENHOS LIQUIDADOS A PAGAR                                                                                                                         A07FSOF
000006229201040000000101000000000000000000000000000000000000000000010201340400000000000000000102013404EMPENHOS LIQUIDADOS PAGOS                                                                                                                           A07FSOF
000006300000000000000101000000000000000000001010000000000202000000000020200000000000000000000000101000EXECUCAO DE RESTOS A PAGAR                                                                                                                          S02FNOF
000006310000000000000101000000000000000000001010000000000202000000000020200000000000000000000000101000EXECUCAO DE RP NAO PROCESSADOS                                                                                                                      S03FNOF
000006311000000000000101000000000000000000001010000000000101000000000000000000000000000000000000000000RP NAO PROCESSADOS A LIQUIDAR                                                                                                                       A04FSOF
000006313000000000000101000000000000000000000000000000000101000000000010100000000000000000000000000000RP NAO PROCESSADOS LIQUIDADOS A PAGAR                                                                                                               A04FSOF
000006314000000000000101000000000000000000000000000000000000000000000010100000000000000000000000101000RP NAO PROCESSADOS PAGOS                                                                                                                            A04FSOF
000007000000000000000101000000017955000000000000000000136875026000002776881200001092857640000000000000CONTROLES DEVEDORES                                                                                                                                 S01FNCF
000007200000000000000101000000010100000000000000000000136822922000002763815800001092857640000000000000ADMINISTRACAO FINANCEIRA                                                                                                                            S02FNCF
000007210000000000000101000000010100000000000000000000136822922000002763815800001092857640000000000000DISPONIBILIDADES POR DESTINACAO                                                                                                                     S03FNCF
000007211000000000000101000000010100000000000000000000136822922000002763815800001092857640000000000000CONTROLE DA DISPONIBILIDADE DE RECURSOS                                                                                                             S04FNCF
000007211100010000000101000000000000000000000000000000108881828000000000000000001088818280000000000000DISPONIBILIDADE POR DESTINACAO DE RECURSOS - LIVRE                                                                                                  A07FSCF
000007211199990000000101000000010100000000000000000000027240132000002734113200000000000000000000000000DISPONIBILIDADE POR DESTINACAO DE RECURSOS COMPROMETIDA POR EMPENHO - OUTROS RECURSOS                                                               A07FSCF
000007211300000000000101000000000000000000000000000000000297026000000029702600000000000000000000000000RECURSOS EXTRAORCAMENTARIOS                                                                                                                         A05FSCF
000007211381080000000101000000000000000000000000000000000062936000000000000000000000629360000000000000DISPONIBILIDADE POR DESTINACAO DE RECURSOS - IRRF A RECOLHER NA RFB                                                                                 A07FSCF
000007211382000000000101000000000000000000000000000000000341000000000000000000000003410000000000000000DISPONIBILIDADE POR DESTINACAO DE RECURSOS - VALORES RETIDOS PELA CAMARA - A REPASSAR                                                               A06FSCF
000007900000000000000101000000007855000000000000000000000052104000000013065400000000000000000000000000OUTROS CONTROLES                                                                                                                                    S02FNCF
000007910000000000000101000000005355000000000000000000000012900000000006645000000000000000000000000000RESPONSABILIDADE POR VALORES, TITULOS E BENS                                                                                                        S03FNCF
000007912000000000000101000000005355000000000000000000000012900000000006645000000000000000000000000000RESPONSABILIDADE DE TERCEIROS POR VALORES, TITULOS E BENS                                                                                           S04FNCF
000007912900000000000101000000005355000000000000000000000012900000000006645000000000000000000000000000OUTRAS RESPONSABILIDADES DE TERCEIROS                                                                                                               S05FNCF
000007912902000000000101000000005355000000000000000000000012900000000006645000000000000000000000000000ATIVO IMOBILIZADO CONTROLADO EM RELACAO CARGA                                                                                                       A06FSCF
000007920000000000000101000000002500000000000000000000000013602000000003860200000000000000000000000000DIVERSOS RESPONSAVEIS EM APURACAO                                                                                                                   S03FNCF
000007929000000000000101000000002500000000000000000000000013602000000003860200000000000000000000000000RESPONSAVEIS POR DANOS AO PATRIMONIO                                                                                                                A04FSCF
000007990000000000000101000000000000000000000000000000000025602000000002560200000000000000000000000000DEMAIS CONTROLES                                                                                                                                    A03FSCF
000008000000000000000101000000000000000000001795500000343167835000045227404900000000000000000109285764CONTROLES CREDORES                                                                                                                                  S01FNCF
000008100000000000000101000000000000000000000000000000001214860000000121486000000000000000000000000000EXECUCAO DOS ATOS POTENCIAIS                                                                                                                        S02FNCF
000008110000000000000101000000000000000000000000000000001214860000000121486000000000000000000000000000EXECUCAO DOS ATOS POTENCIAIS ATIVOS                                                                                                                 S03FNCF
000008113000000000000101000000000000000000000000000000001214860000000121486000000000000000000000000000EXECUCAO DE DIREITOS CONTRATUAIS                                                                                                                    S04FNCF
000008113100000000000101000000000000000000000000000000001214860000000121486000000000000000000000000000EXECUCAO DE DIREITOS CONTRATUAIS - CONSOLIDACAO                                                                                                     S05FNCF
000008113199000000000101000000000000000000000000000000001214860000000121486000000000000000000000000000OUTROS DIREITOS CONTRATUAIS                                                                                                                         S06FNCF
000008113199010000000101000000000000000000000000000000000607430000000060743000000000000000000000000000OUTROS DIREITOS CONTRATUAIS - A EXECUTAR                                                                                                            A07FSCF
000008113199020000000101000000000000000000000000000000000607430000000060743000000000000000000000000000OUTROS DIREITOS CONTRATUAIS - EM EXECUCAO                                                                                                           A07FSCF
000008200000000000000101000000000000000000001010000000341842724000045102748800000000000000000109285764EXECUCAO DA ADMINISTRACAO FINANCEIRA                                                                                                                S02FNCF
000008210000000000000101000000000000000000001010000000341842724000045102748800000000000000000109285764EXECUCAO DAS DISPONIBILIDADES POR DESTINACAO                                                                                                        S03FNCF
000008211000000000000101000000000000000000001010000000341842724000045102748800000000000000000109285764EXECUCAO DA DISPONIBILIDADE DE RECURSOS                                                                                                             S04FNCF
000008211100000000000101000000000000000000000000000000122199832000012219983200000000000000000000000000DISPONIBILIDADE POR DESTINACAO DE RECURSOS                                                                                                          S05FNCF
000008211101000000000101000000000000000000000000000000027217450000002721745000000000000000000000000000RECURSOS DISPONIVEIS PARA O EXERCICIO                                                                                                               A06FSCF
000008211101000100000101000000000000000000000000000000094982382000009498238200000000000000000000000000DISPONIBILIDADE POR DESTINACAO DE RECURSOS - LIVRE                                                                                                  A08FSCF
000008211200000000000101000000000000000000001010000000103397879000010329687900000000000000000000000000DISPONIBILIDADE POR DESTINACAO DE RECURSOS COMPROMETIDA POR EMPENHO                                                                                 S05FNCF
000008211200010000000101000000000000000000000000000000089121796000008912179600000000000000000000000000DISPONIBILIDADE POR DESTINACAO DE RECURSOS COMPROMETIDA POR EMPENHO - LIVRE                                                                         A07FSCF
000008211201000000000101000000000000000000001010000000014276083000001417508300000000000000000000000000DISPONIBILIDADE POR DESTINACAO DE RECURSOS COMPROMETIDA POR EMPENHO - A LIQUIDAR                                                                    A06FSCF
000008211300000000000101000000000000000000000000000000103966803000010396680300000000000000000000000000DISPONIBILIDADE POR DESTINACAO DE RECURSOS COMPROMETIDA POR LIQUIDACAO E ENTRADAS COMPENSATORIAS                                                    S05FNCF
000008211301000100000101000000000000000000000000000000089875054000008987505400000000000000000000000000DISPONIBILIDADE POR LIQUIDACAO - LIVRE                                                                                                              A08FSCF
000008211301010000000101000000000000000000000000000000013385405000001338540500000000000000000000000000RECURSOS ORDINARIO                                                                                                                                  A07FSCF
000008211302000000000101000000000000000000000000000000000005382000000000538200000000000000000000000000COMPROMETIDA POR CONSIGNACOES/RETENCOES                                                                                                             A06FSCF
000008211302810800000101000000000000000000000000000000000062936000000006293600000000000000000000000000DISPONIBILIDADE POR LIQUIDACAO - IRRF A RECOLHER NA RFB                                                                                             A08FSCF
000008211302820000000101000000000000000000000000000000000321000000000032100000000000000000000000000000DISPONIBILIDADE POR LIQUIDACAO - VALORES RETIDOS PELA CAMARA - A REPASSAR                                                                           A07FSCF
000008211303000000000101000000000000000000000000000000000297026000000029702600000000000000000000000000COMPROMETIDA POR ENTRADAS COMPENSATORIAS                                                                                                            A06FSCF
000008211399990000000101000000000000000000000000000000000020000000000002000000000000000000000000000000DISPONIBILIDADE POR DESTINACAO DE RECURSOS COMPROMETIDA POR LIQUIDACAO E ENTRADAS COMPENSATORIAS - O                                                A07FSCF
000008211400000000000101000000000000000000000000000000012278210000012156397400000000000000000109285764DISPONIBILIDADE POR DESTINACAO DE RECURSOS UTILIZADA                                                                                                S05FNCF
000008211400010000000101000000000000000000000000000000000000000000010888182800000000000000000108881828DISPONIBILIDADE POR DESTINACAO DE RECURSOS UTILIZADA - LIVRE                                                                                        A07FSCF
000008211401000000000101000000000000000000000000000000012255510000001225551000000000000000000000000000RECURSOS ORDINARIOS                                                                                                                                 A06FSCF
000008211481080000000101000000000000000000000000000000000000000000000006293600000000000000000000062936DISPONIBILIDADE POR DESTINACAO DE RECURSOS UTILIZADA - IRRF A RECOLHER NA RFB                                                                       A07FSCF
000008211482000000000101000000000000000000000000000000000000000000000034100000000000000000000000341000DISPONIBILIDADE POR DESTINACAO DE RECURSOS UTILIZADA - VALORES RETIDOS PELA CAMARA - A REPASSAR                                                     A06FSCF
000008211499990000000101000000000000000000000000000000000022700000000002270000000000000000000000000000DISPONIBILIDADE POR DESTINACAO DE RECURSOS UTILIZADA - OUTROS RECURSOS                                                                              A07FSCF
000008900000000000000101000000000000000000000785500000000110251000000003170100000000000000000000000000OUTROS CONTROLES                                                                                                                                    S02FNCF
000008910000000000000101000000000000000000000535500000000066450000000001290000000000000000000000000000EXECUCAO DE RESPONSABILIDADE POR VALORES, TITULOS E BENS                                                                                            S03FNCF
000008912000000000000101000000000000000000000535500000000066450000000001290000000000000000000000000000EXECUCAO DE RESPONSABILIDADE DE TERCEIROS POR VALORES, TITULOS E BENS                                                                               S04FNCF
000008912902000000000101000000000000000000000535500000000066450000000001290000000000000000000000000000ATIVO IMOBILIZADO CONTROLADO EM RELACAO CARGA                                                                                                       A06FSCF
000008990000000000000101000000000000000000000250000000000043801000000001880100000000000000000000000000DEMAIS CONTROLES CREDORES                                                                                                                           S03FNCF
000008999000000000000101000000000000000000000250000000000043801000000001880100000000000000000000000000DEMAIS CONTROLES                                                                                                                                    S04FNCF
000008999001000000000101000000000000000000000250000000000043801000000001880100000000000000000000000000EXECUCAO DE DESPESA SEM EMPENHO PREVIO                                                                                                              A06FSCF
FINALIZADOR0000000249                                                                                                                                                                                                                                                                                                                                                                                                                                                                                                                                                                                                                                                                                                                                                                                                           
