12292535000162010120203004202008052020CAMARA DE VEREADORES DE INDEPENDENCIA-RS                                        
000001000000000000000101000000432223600000000000000000354798555000035242644800000066943430000000000000ATIVO                                                                                                                                               S01FNPF
000001100000000000000101000000000000000000000000000000350253452000035025191900000000015330000000000000ATIVO CIRCULANTE                                                                                                                                    S02FNPF
000001110000000000000101000000000000000000000000000000350076919000035007691900000000000000000000000000CAIXA E EQUIVALENTES DE CAIXA                                                                                                                       S03FNPF
000001111000000000000101000000000000000000000000000000350076919000035007691900000000000000000000000000CAIXA E EQUIVALENTES DE CAIXA EM MOEDA NACIONAL                                                                                                     S04FNPF
000001111100000000000101000000000000000000000000000000350076919000035007691900000000000000000000000000CAIXA E EQUIVALENTES DE CAIXA EM MOEDA NACIONAL - CONSOLIDACAO                                                                                      S05FNPF
000001111101000000000101000000000000000000000000000000000016480000000001648000000000000000000000000000CAIXA                                                                                                                                               A06FSPF
000001111119000000000101000000000000000000000000000000235873335000023587333500000000000000000000000000BANCOS CONTA MOVIMENTO - DEMAIS CONTAS                                                                                                              S06FNPF
000001111119120000000101000000000000000000000000000000235873335000023587333500000000000000000000000000BANCO DO ESTADO DO RIO GRANDE DO SUL                                                                                                                S07FNPF
000001111119120500000101000000000000000000000000000000235606514000023560651400000000000000000000000000BANRISUL GERAL CAMARA MOV 0001 1064/04.080187.0-6                                                                                                   A08FSPF
000001111119122000000101000000000000000000000000000000000266821000000026682100000000000000000000000000BANRISUL CM RETENCOES MOV 8001 1064/04.080187.0-6                                                                                                   A08FSPF
000001111150000000000101000000000000000000000000000000114187104000011418710400000000000000000000000000APLICACOES FINANCEIRAS DE LIQUIDEZ IMEDIATA                                                                                                         S06FNPF
000001111150030000000101000000000000000000000000000000114187104000011418710400000000000000000000000000FUNDOS DE INVESTIMENTO                                                                                                                              S07FNPF
000001111150032200000101000000000000000000000000000000114187104000011418710400000000000000000000000000BANRISUL GERAL CAMARA APLIC 0001 1064/04.080187.0-6                                                                                                 A08FSPF
000001130000000000000101000000000000000000000000000000000001533000000000000000000000015330000000000000DEMAIS CREDITOS E VALORES A CURTO PRAZO                                                                                                             S03PNPP
000001132000000000000101000000000000000000000000000000000001533000000000000000000000015330000000000000TRIBUTOS A RECUPERAR/COMPENSAR                                                                                                                      S04PNPP
000001132100000000000101000000000000000000000000000000000001533000000000000000000000015330000000000000TRIBUTOS A RECUPERAR/COMPENSAR - CONSOLIDACAO                                                                                                       S05PNPF
000001132105000000000101000000000000000000000000000000000001533000000000000000000000015330000000000000IR E CSLL A RECUPERAR/COMPENSAR                                                                                                                     A06PSPF
000001190000000000000101000000000000000000000000000000000175000000000017500000000000000000000000000000VARIACOES PATRIMONIAIS DIMINUTIVAS PAGAS ANTECIPADAMENTE                                                                                            S03FNPF
000001198000000000000101000000000000000000000000000000000175000000000017500000000000000000000000000000DEMAIS VPD A APROPRIAR                                                                                                                              S04FNPF
000001198100000000000101000000000000000000000000000000000175000000000017500000000000000000000000000000DEMAIS VPD A APROPRIAR - CONSOLIDACAO                                                                                                               S05FNPP
000001198112000000000101000000000000000000000000000000000175000000000017500000000000000000000000000000INSCRICOES PAGAS ANTECIPADAMENTE                                                                                                                    A06FSPP
000001200000000000000101000000432223600000000000000000004545103000000217452900000066928100000000000000ATIVO NAO CIRCULANTE                                                                                                                                S02FNPF
000001230000000000000101000000432223600000000000000000004545103000000217452900000066928100000000000000IMOBILIZADO                                                                                                                                         S03PNPP
000001231000000000000101000000661828200000000000000000004545103000000165046000000095129250000000000000BENS MOVEIS                                                                                                                                         S04PNPP
000001231100000000000101000000661828200000000000000000004545103000000165046000000095129250000000000000BENS MOVEIS- CONSOLIDACAO                                                                                                                           S05PNPP
000001231101000000000101000000077760000000000000000000001774200000000000000000000025518000000000000000MAQUINAS, APARELHOS, EQUIPAMENTOS E FERRAMENTAS                                                                                                     S06PNPP
000001231101020000000101000000000000000000000000000000000129900000000000000000000001299000000000000000APARELHOS E EQUIPAMENTOS DE COMUNICACAO                                                                                                             A07PSPP
000001231101990000000101000000077760000000000000000000001644300000000000000000000024219000000000000000OUTRAS MAQUINAS, APARELHOS, EQUIPAMENTOS E FERRAMENTAS                                                                                              A07PSPP
000001231102000000000101000000202151000000000000000000000000000000000000000000000020215100000000000000BENS DE INFORMATICA                                                                                                                                 S06PNPP
000001231102020000000101000000202151000000000000000000000000000000000000000000000020215100000000000000EQUIPAMENTOS DE TECNOLOGIA DA INFORMACAO                                                                                                            A07PSPP
000001231103000000000101000000177555200000000000000000001805903000000165046000000019309950000000000000MOVEIS E UTENSILIOS                                                                                                                                 S06PNPP
000001231103010000000101000000000000000000000000000000001652200000000164430000000000079000000000000000APARELHOS E UTENSILIOS DOMESTICOS                                                                                                                   A07PSPP
000001231103030000000101000000177555200000000000000000000153703000000000616000000019230950000000000000MOBILIARIO EM GERAL                                                                                                                                 A07PSPP
000001231104000000000101000000204362000000000000000000000965000000000000000000000030086200000000000000MATERIAIS CULTURAIS, EDUCACIONAIS E DE COMUNICACAO                                                                                                  S06PNPP
000001231104050000000101000000000000000000000000000000000965000000000000000000000009650000000000000000EQUIPAMENTOS PARA AUDIO, VIDEO E FOTO                                                                                                               A07PSPP
000001231104990000000101000000204362000000000000000000000000000000000000000000000020436200000000000000OUTROS MATERIAIS CULTURAIS, EDUCACIONAIS E DE COMUNICACAO                                                                                           A07PSPP
000001238000000000000101000000000000000000022960460000000000000000000052406900000000000000000002820115(-) DEPRECIACAO, EXAUSTAO E AMORTIZACAO ACUMULADAS                                                                                                  S04PNPP
000001238100000000000101000000000000000000022960460000000000000000000052406900000000000000000002820115(-) DEPRECIACAO, EXAUSTAO E AMORTIZACAO ACUMULADAS - CONSOLIDACAO                                                                                   S05PNPP
000001238101000000000101000000000000000000022960460000000000000000000052406900000000000000000002820115(-) DEPRECIACAO ACUMULADA – BENS MOVEIS                                                                                                             S06PNPP
000001238101010000000101000000000000000000001993030000000000000000000017030500000000000000000000369608(-) DEPRECIACAO ACUMULADA DE MAQUINAS, APARELHOS, EQUIPAMENTOS E FERRAMENTAS                                                                        A07PSPP
000001238101020000000101000000000000000000013694900000000000000000000014612400000000000000000001515614(-) DEPRECIACAO ACUMULADA DE BENS DE INFORMATICA                                                                                                    A07PSPP
000001238101030000000101000000000000000000003128010000000000000000000010526300000000000000000000418064(-) DEPRECIACAO ACUMULADA DE MOVEIS E UTENSILIOS                                                                                                    A07PSPP
000001238101040000000101000000000000000000004144520000000000000000000010237700000000000000000000516829(-) DEPRECIACAO ACUMULADA DE MATERIAIS CULTURAIS, EDUCACIONAIS E DE COMUNICACAO                                                                     A07PSPP
000002000000000000000101000000000000000000043222360000723173595000072408250600000000000000000005231147PASSIVO E PATRIMONIO LIQUIDO                                                                                                                        S01FNPF
000002100000000000000101000000000000000000011626180000114532864000011544177500000000000000000002071529PASSIVO CIRCULANTE                                                                                                                                  S02FNPF
000002110000000000000101000000000000000000011626180000089365042000009027395300000000000000000002071529OBRIGACOES TRABALHISTAS, PREVIDENCIARIAS E ASSISTENCIAIS A PAGAR A CURTO PRAZO                                                                      S03FNPF
000002111000000000000101000000000000000000011626180000075275966000007618487700000000000000000002071529PESSOAL A PAGAR                                                                                                                                     S04FNPF
000002111100000000000101000000000000000000011626180000075275966000007618487700000000000000000002071529PESSOAL A PAGAR - CONSOLIDACAO                                                                                                                      S05FNPF
000002111101000000000101000000000000000000011626180000075275966000007618487700000000000000000002071529PESSOAL A PAGAR                                                                                                                                     S06FNPF
000002111101010000000101000000000000000000000000000000061306154000006130615400000000000000000000000000SALARIOS, REMUNERACOES E BENEFICIOS                                                                                                                 S07FNPF
000002111101010200000101000000000000000000000000000000061306154000006130615400000000000000000000000000SALARIOS, REMUNERACOES E BENEFICIOS (F)                                                                                                             A08FSPF
000002111101020000000101000000000000000000000000000000010178850000001017885000000000000000000000000000DECIMO TERCEIRO SALARIO                                                                                                                             S07FNPP
000002111101020100000101000000000000000000000000000000005193742000000519374200000000000000000000000000DECIMO TERCEIRO SALARIO (P)                                                                                                                         A08FSPP
000002111101020200000101000000000000000000000000000000004985108000000498510800000000000000000000000000DECIMO TERCEIRO SALARIO (F)                                                                                                                         A08FSPF
000002111101030000000101000000000000000000011626180000003790962000000469987300000000000000000002071529FERIAS                                                                                                                                              S07FNPP
000002111101030100000101000000000000000000011626180000001895481000000280439200000000000000000002071529FERIAS (P)                                                                                                                                          A08FSPP
000002111101030200000101000000000000000000000000000000001895481000000189548100000000000000000000000000FERIAS (F)                                                                                                                                          A08FSPF
000002114000000000000101000000000000000000000000000000014089076000001408907600000000000000000000000000ENCARGOS SOCIAIS A PAGAR                                                                                                                            S04FNPF
000002114200000000000101000000000000000000000000000000000936440000000093644000000000000000000000000000ENCARGOS SOCIAIS A PAGAR-INTRA OFSS                                                                                                                 S05FNPF
000002114201000000000101000000000000000000000000000000000936440000000093644000000000000000000000000000CONTRIBUICAO A REGIME PROPRIO DE PREVIDENCIA (RPPS)                                                                                                 S06FNPF
000002114201020000000101000000000000000000000000000000000936440000000093644000000000000000000000000000CONTRIBUICAO A REGIME PROPRIO DE PREVIDENCIA (RPPS) (F)                                                                                             A07FSPF
000002114300000000000101000000000000000000000000000000013152636000001315263600000000000000000000000000ENCARGOS SOCIAIS A PAGAR-INTER OFSS - UNIAO                                                                                                         S05FNPF
000002114301000000000101000000000000000000000000000000013152636000001315263600000000000000000000000000CONTRIBUICOES AO RGPS A PAGAR                                                                                                                       S06FNPF
000002114301010000000101000000000000000000000000000000013152636000001315263600000000000000000000000000CONTRIBUICOES AO RGPS SOBRE SALARIOS E REMUNERACOES                                                                                                 S07FNPF
000002114301010200000101000000000000000000000000000000013152636000001315263600000000000000000000000000CONTRIBUICOES AO RGPS SOBRE SALARIOS E REMUNERACOES (F)                                                                                             A08FSPF
000002130000000000000101000000000000000000000000000000015559422000001555942200000000000000000000000000FORNECEDORES E CONTAS A PAGAR A CURTO PRAZO                                                                                                         S03FNPF
000002131000000000000101000000000000000000000000000000015559422000001555942200000000000000000000000000FORNECEDORES E CONTAS A PAGAR NACIONAIS A CURTO PRAZO                                                                                               S04FNPF
000002131100000000000101000000000000000000000000000000015559422000001555942200000000000000000000000000FORNECEDORES E CONTAS A PAGAR NACIONAIS A CURTO PRAZO - CONSOLIDACAO                                                                                S05FNPF
000002131101000000000101000000000000000000000000000000015559422000001555942200000000000000000000000000FORNECEDORES NACIONAIS                                                                                                                              S06FNPF
000002131101010000000101000000000000000000000000000000015559422000001555942200000000000000000000000000FORNECEDORES NAO PARCELADOS A PAGAR                                                                                                                 S07FNPF
000002131101010100000101000000000000000000000000000000015559422000001555942200000000000000000000000000FORNECEDORES DO EXERCICIO                                                                                                                           A08FSPF
000002180000000000000101000000000000000000000000000000009608400000000960840000000000000000000000000000DEMAIS OBRIGACOES A CURTO PRAZO                                                                                                                     S03FNPF
000002188000000000000101000000000000000000000000000000001225460000000122546000000000000000000000000000VALORES RESTITUIVEIS                                                                                                                                S04FNPF
000002188100000000000101000000000000000000000000000000000958639000000095863900000000000000000000000000VALORES RESTITUIVEIS - CONSOLIDACAO                                                                                                                 S05FNPF
000002188104000000000101000000000000000000000000000000000958639000000095863900000000000000000000000000DEPOSITOS NAO JUDICIAIS                                                                                                                             S06FNPF
000002188104990000000101000000000000000000000000000000000958639000000095863900000000000000000000000000OUTROS DEPOSITOS                                                                                                                                    A07FSPF
000002188200000000000101000000000000000000000000000000000233270000000023327000000000000000000000000000VALORES RESTITUIVEIS – INTRA OFSS                                                                                                                   S05FNPF
000002188299010000000101000000000000000000000000000000000233270000000023327000000000000000000000000000OUTROS VALORES RESTITUIVEIS                                                                                                                         S07FNPP
000002188299010100000101000000000000000000000000000000000233270000000023327000000000000000000000000000DESCONTOS A RECOLHER AO TESOURO MUNICIPAL                                                                                                           A08FSPF
000002188300000000000101000000000000000000000000000000000033551000000003355100000000000000000000000000VALORES RESTITUIVEIS - INTER UNIAO                                                                                                                  S05FNPF
000002188301000000000101000000000000000000000000000000000033551000000003355100000000000000000000000000CONSIGNACOES                                                                                                                                        S06FNPF
000002188301040000000101000000000000000000000000000000000033551000000003355100000000000000000000000000IMPOSTO SOBRE A RENDA RETIDO NA FONTE - IRRF                                                                                                        S07FNPF
000002188301040200000101000000000000000000000000000000000033551000000003355100000000000000000000000000IRRF SERVICOS PJ 1708-06 LEGISLATIVO                                                                                                                A08FSPF
000002189000000000000101000000000000000000000000000000008382940000000838294000000000000000000000000000OUTRAS OBRIGACOES A CURTO PRAZO                                                                                                                     S04FNPF
000002189100000000000101000000000000000000000000000000008382940000000838294000000000000000000000000000OUTRAS OBRIGACOES A CURTO PRAZO - CONSOLIDACAO                                                                                                      S05FNPF
000002189102000000000101000000000000000000000000000000008382940000000838294000000000000000000000000000DIARIAS A PAGAR                                                                                                                                     A06FSPF
000002300000000000000101000000000000000000031596180000608640731000060864073100000000000000000003159618PATRIMONIO LIQUIDO                                                                                                                                  S02PNPF
000002370000000000000101000000000000000000031596180000608640731000060864073100000000000000000003159618RESULTADOS ACUMULADOS                                                                                                                               S03PNPP
000002371000000000000101000000000000000000031596180000608640731000060864073100000000000000000003159618SUPERAVITS OU DEFICITS ACUMULADOS                                                                                                                   S04PNPP
000002371100000000000101000008621240200000000000000000266925059000026692505900000862124020000000000000SUPERAVITS OU DEFICITS ACUMULADOS - CONSOLIDACAO                                                                                                    S05PNPP
000002371101000000000101000008960043500000000000000000087526436000017712687100000000000000000000000000SUPERAVITS OU DEFICITS DO EXERCICIO                                                                                                                 A06PSPP
000002371102000000000101000000000000000000011162810000177126871000008979818800000862124020000000000000SUPERAVITS OU DEFICITS DE EXERCICIOS ANTERIORES                                                                                                     A06PSPP
000002371103000000000101000000000000000000022717520000002271752000000000000000000000000000000000000000AJUSTES DE EXERCICIOS ANTERIORES                                                                                                                    S06PNPP
000002371103010000000101000000000000000000022717520000002271752000000000000000000000000000000000000000AJUSTES DE EXERCICIOS ANTERIORES - PERMANENTE                                                                                                       A07PSPP
000002371200000000000101000000000000000001016020040000305025720000030502572000000000000000000101602004SUPERAVITS OU DEFICITS ACUMULADOS - INTRA OFSS                                                                                                      S05PNPP
000002371201000000000101000000000000000001016752400000203350480000010167524000000000000000000000000000SUPERAVITS OU DEFICITS DO EXERCICIO                                                                                                                 A06PSPP
000002371202000000000101000000007323600000000000000000101675240000020335048000000000000000000101602004SUPERAVITS OU DEFICITS DE EXERCICIOS ANTERIORES                                                                                                     A06PSPP
000002371300000000000101000001222998400000000000000000036689952000003668995200000122299840000000000000SUPERAVITS OU DEFICITS ACUMULADOS - INTER OFSS - UNIAO                                                                                              S05PNPP
000002371301000000000101000001222998400000000000000000012229984000002445996800000000000000000000000000SUPERAVITS OU DEFICITS DO EXERCICIO                                                                                                                 A06PSPP
000002371302000000000101000000000000000000000000000000024459968000001222998400000122299840000000000000SUPERAVITS OU DEFICITS DE EXERCICIOS ANTERIORES                                                                                                     A06PSPP
000003000000000000000101000000000000000000000000000000128141388000000713853800001210028500000000000000VARIACAO PATRIMONIAL DIMINUTIVA                                                                                                                     S01FNPF
000003100000000000000101000000000000000000000000000000084233780000000000817600000842256040000000000000PESSOAL E ENCARGOS                                                                                                                                  S02FNPF
000003110000000000000101000000000000000000000000000000070144704000000000817600000701365280000000000000REMUNERACAO A PESSOAL                                                                                                                               S03FNPF
000003111000000000000101000000000000000000000000000000007307741000000000817600000072995650000000000000REMUNERACAO A PESSOAL ATIVO CIVIL – ABRANGIDOS PELO RPPS                                                                                            S04FNPF
000003111100000000000101000000000000000000000000000000007307741000000000817600000072995650000000000000REMUNERACAO A PESSOAL ATIVO CIVIL – ABRANGIDOS PELO RPPS - CONSOLIDACAO                                                                             S05FNPF
000003111101000000000101000000000000000000000000000000007307741000000000817600000072995650000000000000VENCIMENTOS E VANTAGENS FIXAS - PESSOAL CIVIL - RPPS                                                                                                S06FNPF
000003111101010000000101000000000000000000000000000000004552742000000000000000000045527420000000000000VENCIMENTOS E SALARIOS                                                                                                                              A07FSPF
000003111101180000000101000000000000000000000000000000000627570000000000000000000006275700000000000000GRATIFICACAO DE TEMPO DE SERVICO                                                                                                                    A07FSPF
00000311110122000000010100000000000000000000000000000000060462300000000081760000000596447000000000000013o SALARIO                                                                                                                                         A07FSPF
000003111101240000000101000000000000000000000000000000001522806000000000000000000015228060000000000000FERIAS – ABONO CONSTITUCIONAL                                                                                                                       A07FSPF
000003112000000000000101000000000000000000000000000000062836963000000000000000000628369630000000000000REMUNERACAO A PESSOAL ATIVO CIVIL – ABRANGIDOS PELO RGPS                                                                                            S04FNPF
000003112100000000000101000000000000000000000000000000062836963000000000000000000628369630000000000000REMUNERACAO A PESSOAL ATIVO CIVIL – ABRANGIDOS PELO RGPS - CONSOLIDACAO                                                                             S05FNPF
000003112101000000000101000000000000000000000000000000062836963000000000000000000628369630000000000000VENCIMENTOS E VANTAGENS FIXAS - PESSOAL CIVIL - RGPS                                                                                                S06FNPF
000003112101010000000101000000000000000000000000000000012783818000000000000000000127838180000000000000VENCIMENTOS E SALARIOS                                                                                                                              A07FSPF
00000311210122000000010100000000000000000000000000000000458911900000000000000000004589119000000000000013o SALARIO                                                                                                                                         A07FSPF
000003112101240000000101000000000000000000000000000000002475706000000000000000000024757060000000000000FERIAS - ABONO CONSTITUCIONAL                                                                                                                       A07FSPF
000003112101280000000101000000000000000000000000000000001413684000000000000000000014136840000000000000REPRESENTACAO MENSAL                                                                                                                                A07FSPF
000003112101310000000101000000000000000000000000000000041574636000000000000000000415746360000000000000SUBSIDIOS                                                                                                                                           A07FSPF
000003120000000000000101000000000000000000000000000000014089076000000000000000000140890760000000000000ENCARGOS PATRONAIS                                                                                                                                  S03FNPF
000003121000000000000101000000000000000000000000000000000936440000000000000000000009364400000000000000ENCARGOS PATRONAIS - RPPS                                                                                                                           S04FNPF
000003121200000000000101000000000000000000000000000000000936440000000000000000000009364400000000000000ENCARGOS PATRONAIS - RPPS - INTRA OFSS                                                                                                              S05FNPF
000003121201000000000101000000000000000000000000000000000936440000000000000000000009364400000000000000CONTRIBUICAO PATRONAL PARA O RPPS                                                                                                                   A06FSPF
000003122000000000000101000000000000000000000000000000013152636000000000000000000131526360000000000000ENCARGOS PATRONAIS - RGPS                                                                                                                           S04FNPF
000003122300000000000101000000000000000000000000000000013152636000000000000000000131526360000000000000ENCARGOS PATRONAIS - RGPS - INTER OFSS - UNIAO                                                                                                      S05FNPF
000003122301000000000101000000000000000000000000000000013152636000000000000000000131526360000000000000CONTRIBUICOES PREVIDENCIARIAS - RGPS                                                                                                                A06FSPF
000003200000000000000101000000000000000000000000000000000353704000000000000000000003537040000000000000BENEFICIOS PREVIDENCIARIOS E ASSISTENCIAIS                                                                                                          S02FNPF
000003290000000000000101000000000000000000000000000000000353704000000000000000000003537040000000000000OUTROS BENEFICIOS PREVIDENCIARIOS E ASSISTENCIAIS                                                                                                   S03FNPF
000003291000000000000101000000000000000000000000000000000353704000000000000000000003537040000000000000OUTROS BENEFICIOS PREVIDENCIARIOS E ASSISTENCIAIS - RPPS                                                                                            S04FNPF
000003291100000000000101000000000000000000000000000000000353704000000000000000000003537040000000000000OUTROS BENEFICIOS PREVIDENCIARIOS E ASSISTENCIAIS - RPPS - CONSOLIDACAO                                                                             S05FNPF
000003291110000000000101000000000000000000000000000000000353704000000000000000000003537040000000000000AUXILIO-DOENCA                                                                                                                                      A06FSPF
000003300000000000000101000000000000000000000000000000025271161000000712457800000181465830000000000000USO DE BENS, SERVICOS E CONSUMO DE CAPITAL FIXO                                                                                                     S02FNPF
000003310000000000000101000000000000000000000000000000003021146000000000000000000030211460000000000000USO DE MATERIAL DE CONSUMO                                                                                                                          S03FNPF
000003311000000000000101000000000000000000000000000000003021146000000000000000000030211460000000000000CONSUMO DE MATERIAL                                                                                                                                 S04FNPF
000003311100000000000101000000000000000000000000000000003021146000000000000000000030211460000000000000CONSUMO DE MATERIAL - CONSOLIDACAO                                                                                                                  S05FNPF
000003311103000000000101000000000000000000000000000000000024000000000000000000000000240000000000000000GAS E OUTROS MATERIAIS ENGARRAFADOS                                                                                                                 A06FSPF
000003311106000000000101000000000000000000000000000000001970308000000000000000000019703080000000000000GENEROS ALIMENTACAO                                                                                                                                 A06FSPF
000003311116000000000101000000000000000000000000000000000277208000000000000000000002772080000000000000MATERIAL DE EXPEDIENTE                                                                                                                              A06FSPF
000003311117000000000101000000000000000000000000000000000163800000000000000000000001638000000000000000MATERIAL DE PROCESSAMENTO DE DADOS                                                                                                                  A06FSPF
000003311121000000000101000000000000000000000000000000000059782000000000000000000000597820000000000000MATERIAL DE COPA E COZINHA                                                                                                                          A06FSPF
000003311122000000000101000000000000000000000000000000000101048000000000000000000001010480000000000000MATERIAL DE LIMPEZA E PRODUTOS DE HIGIENIZACAO                                                                                                      A06FSPF
000003311124000000000101000000000000000000000000000000000425000000000000000000000004250000000000000000MATERIAL PARA MANUTENCAO DE BENS IMOVEIS E INSTALACOES                                                                                              A06FSPF
000003320000000000000101000000000000000000000000000000021725946000000712457800000146013680000000000000SERVICOS                                                                                                                                            S03FNPF
000003321000000000000101000000000000000000000000000000015387674000000712457800000082630960000000000000DIARIAS                                                                                                                                             S04FNPF
000003321100000000000101000000000000000000000000000000015387674000000712457800000082630960000000000000DIARIAS - CONSOLIDACAO                                                                                                                              S05FNPF
000003321101000000000101000000000000000000000000000000015387674000000712457800000082630960000000000000DIARIAS PESSOAL CIVIL                                                                                                                               A06FSPF
000003322000000000000101000000000000000000000000000000000751890000000000000000000007518900000000000000SERVICOS TERCEIROS - PF                                                                                                                             S04FNPF
000003322100000000000101000000000000000000000000000000000751890000000000000000000007518900000000000000SERVICOS TERCEIROS - PF - CONSOLIDACAO                                                                                                              S05FNPF
000003322101000000000101000000000000000000000000000000000750000000000000000000000007500000000000000000CONSULTORIA E ASSESSORIA                                                                                                                            A06FSPF
000003322135000000000101000000000000000000000000000000000001890000000000000000000000018900000000000000SERVICOS JUDICIARIOS                                                                                                                                A06FSPF
000003323000000000000101000000000000000000000000000000005586382000000000000000000055863820000000000000SERVICOS TERCEIROS - PJ                                                                                                                             S04FNPF
000003323100000000000101000000000000000000000000000000005586382000000000000000000055863820000000000000SERVICOS TERCEIROS - PJ - CONSOLIDACAO                                                                                                              S05FNPF
000003323104000000000101000000000000000000000000000000000315874000000000000000000003158740000000000000COMUNICACAO                                                                                                                                         A06FSPF
000003323105000000000101000000000000000000000000000000000086268000000000000000000000862680000000000000PUBLICIDADE                                                                                                                                         A06FSPF
000003323106000000000101000000000000000000000000000000000800000000000000000000000008000000000000000000MANUTENCAO E CONSERVACAO                                                                                                                            A06FSPF
000003323108000000000101000000000000000000000000000000000529202000000000000000000005292020000000000000SERVICOS DE AGUA E ESGOTO, ENERGIA ELETRICA, GAS E OUTROS                                                                                           A06FSPF
000003323111000000000101000000000000000000000000000000000647438000000000000000000006474380000000000000SERVICOS RELACIONADOS A TECNOLOGIA DA INFORMACAO                                                                                                    A06FSPF
000003323114000000000101000000000000000000000000000000000011000000000000000000000000110000000000000000ASSINATURAS DE PERIODICOS E ANUIDADES                                                                                                               A06FSPF
000003323130000000000101000000000000000000000000000000003157000000000000000000000031570000000000000000SELECAO E TREINAMENTO                                                                                                                               A06FSPF
000003323146000000000101000000000000000000000000000000000015600000000000000000000000156000000000000000SERVICOS GRAFICOS E EDITORIAIS                                                                                                                      A06FSPF
000003323151000000000101000000000000000000000000000000000024000000000000000000000000240000000000000000SERVICOS TECNICOS PROFISSIONAIS                                                                                                                     A06FSPF
000003330000000000000101000000000000000000000000000000000524069000000000000000000005240690000000000000DEPRECIACAO, AMORTIZACAO E EXAUSTAO                                                                                                                 S03FNPF
000003331000000000000101000000000000000000000000000000000524069000000000000000000005240690000000000000DEPRECIACAO                                                                                                                                         S04FNPF
000003331100000000000101000000000000000000000000000000000524069000000000000000000005240690000000000000DEPRECIACAO - CONSOLIDACAO                                                                                                                          S05FNPF
000003331101000000000101000000000000000000000000000000000524069000000000000000000005240690000000000000DEPRECIACAO DE IMOBILIZADO                                                                                                                          S06FNPF
000003331101010000000101000000000000000000000000000000000524069000000000000000000005240690000000000000DEPRECIACAO DE BENS MOVEIS                                                                                                                          A07FSPF
000003500000000000000101000000000000000000000000000000016224041000000000000000000162240410000000000000TRANSFERENCIAS E DELEGACOES CONCEDIDAS                                                                                                              S02FNPF
000003510000000000000101000000000000000000000000000000016224041000000000000000000162240410000000000000TRANSFERENCIAS INTRAGOVERNAMENTAIS                                                                                                                  S03FNPF
000003511000000000000101000000000000000000000000000000016224041000000000000000000162240410000000000000TRANSFERENCIAS CONCEDIDAS PARA A EXECUCAO ORCAMENTARIA                                                                                              S04FNPF
000003511200000000000101000000000000000000000000000000016224041000000000000000000162240410000000000000TRANSFERENCIAS CONCEDIDAS PARA A EXECUCAO ORCAMENTARIA -  INTRA OFSS                                                                                S05FNPF
000003511202000000000101000000000000000000000000000000016224041000000000000000000162240410000000000000REPASSE CONCEDIDO                                                                                                                                   A06FSPF
000003600000000000000101000000000000000000000000000000000006160000000000000000000000061600000000000000DESVALORIZACAO E PERDA DE ATIVOS E INCORPORACAO DE PASSIVOS                                                                                         S02FNPF
000003610000000000000101000000000000000000000000000000000006160000000000000000000000061600000000000000REAVALIACAO, REDUCAO A VALOR RECUPERAVEL E AJUSTE PARA PERDAS                                                                                       S03FNPF
000003611000000000000101000000000000000000000000000000000006160000000000000000000000061600000000000000REAVALIACAO DE IMOBILIZADO                                                                                                                          S04FNPF
000003611100000000000101000000000000000000000000000000000006160000000000000000000000061600000000000000REAVALIACAO DE IMOBILIZADO - CONSOLIDACAO                                                                                                           S05FNPF
000003611101000000000101000000000000000000000000000000000006160000000000000000000000061600000000000000REAVALIACAO DE BENS MOVEIS                                                                                                                          S06FNPF
000003611101030000000101000000000000000000000000000000000006160000000000000000000000061600000000000000REAVALIACAO DE MOVEIS E UTENSILIOS                                                                                                                  A07FSPF
000003900000000000000101000000000000000000000000000000002052542000000000578400000020467580000000000000OUTRAS VARIACOES PATRIMONIAIS DIMINUTIVAS                                                                                                           S02FNPF
000003990000000000000101000000000000000000000000000000002052542000000000578400000020467580000000000000DIVERSAS VARIACOES PATRIMONIAIS DIMINUTIVAS                                                                                                         S03FNPF
000003996000000000000101000000000000000000000000000000002052542000000000578400000020467580000000000000INDENIZACOES E RESTITUICOES                                                                                                                         S04FNPF
000003996100000000000101000000000000000000000000000000002052542000000000578400000020467580000000000000INDENIZACOES E RESTITUICOES - CONSOLIDACAO                                                                                                          A05FSPF
000004000000000000000101000000000000000000000000000000000016480000012248252600000000000000000122466046VARIACAO PATRIMONIAL AUMENTATIVA                                                                                                                    S01FNPF
000004100000000000000101000000000000000000000000000000000016480000000001648000000000000000000000000000IMPOSTOS, TAXAS E CONTRIBUICOES DE MELHORIA                                                                                                         S02FNPF
000004110000000000000101000000000000000000000000000000000016480000000001648000000000000000000000000000IMPOSTOS                                                                                                                                            S03FNPF
000004113000000000000101000000000000000000000000000000000016480000000001648000000000000000000000000000IMPOSTOS SOBRE A PRODUCAO E A CIRCULACAO                                                                                                            S04FNPF
000004113100000000000101000000000000000000000000000000000016480000000001648000000000000000000000000000IMPOSTOS SOBRE A PRODUCAO E A CIRCULACAO - CONSOLIDACAO                                                                                             S05FNPF
000004113102000000000101000000000000000000000000000000000016480000000001648000000000000000000000000000ISS                                                                                                                                                 A06FSPF
000004500000000000000101000000000000000000000000000000000000000000012231234300000000000000000122312343TRANSFERENCIAS E DELEGACOES RECEBIDAS                                                                                                               S02FNPF
000004510000000000000101000000000000000000000000000000000000000000012231234300000000000000000122312343TRANSFERENCIAS INTRAGOVERNAMENTAIS                                                                                                                  S03FNPF
000004511000000000000101000000000000000000000000000000000000000000012231234300000000000000000122312343TRANSFERENCIAS RECEBIDAS PARA A EXECUCAO ORCAMENTARIA                                                                                               S04FNPF
000004511200000000000101000000000000000000000000000000000000000000012231234300000000000000000122312343TRANSFERENCIAS RECEBIDAS PARA A EXECUCAO ORCAMENTARIA - INTRA OFSS                                                                                  S05FNPF
000004511202000000000101000000000000000000000000000000000000000000012231234300000000000000000122312343REPASSE RECEBIDO                                                                                                                                    A06FSPF
000004600000000000000101000000000000000000000000000000000000000000000015370300000000000000000000153703VALORIZACAO E GANHOS COM ATIVOS E DESINCORPORACAO DE PASSIVOS                                                                                       S02FNPF
000004610000000000000101000000000000000000000000000000000000000000000015370300000000000000000000153703REAVALIACAO DE ATIVOS                                                                                                                               S03FNPF
000004611000000000000101000000000000000000000000000000000000000000000015370300000000000000000000153703REAVALIACAO DE IMOBILIZADO                                                                                                                          S04FNPF
000004611100000000000101000000000000000000000000000000000000000000000015370300000000000000000000153703REAVALIACAO DE IMOBILIZADO - CONSOLIDACAO                                                                                                           S05FNPF
000004611101000000000101000000000000000000000000000000000000000000000015370300000000000000000000153703REAVALIACAO DE BENS MOVEIS                                                                                                                          S06FNPF
000004611101030000000101000000000000000000000000000000000000000000000015370300000000000000000000153703REAVALIACAO DE MOVEIS E UTENSILIOS                                                                                                                  A07FSPF
000005000000000000000101000000000000000000000000000000249923350000002774468100002221786690000000000000CONTROLES DA APROVACAO DO PLANEJAMENTO E ORCAMENTO                                                                                                  S01FNOF
000005200000000000000101000000000000000000000000000000249923350000002774468100002221786690000000000000ORCAMENTO APROVADO                                                                                                                                  S02FNOF
000005220000000000000101000000000000000000000000000000249923350000002774468100002221786690000000000000FIXACAO DA DESPESA                                                                                                                                  S03FNOF
000005221000000000000101000000000000000000000000000000143659308000002756740800001160919000000000000000DOTACAO ORCAMENTARIA                                                                                                                                S04FNOF
000005221100000000000101000000000000000000000000000000136091900000000000000000001360919000000000000000DOTACAO INICIAL                                                                                                                                     S05FNOF
000005221101000000000101000000000000000000000000000000136091900000000000000000001360919000000000000000CREDITO INICIAL                                                                                                                                     A06FSOF
000005221200000000000101000000000000000000000000000000003783704000000000000000000037837040000000000000DOTACAO ADICIONAL POR TIPO DE CREDITO                                                                                                               S05FNOF
000005221201000000000101000000000000000000000000000000002183704000000000000000000021837040000000000000CREDITO ADICIONAL – SUPLEMENTAR                                                                                                                     A06FSOF
000005221202000000000101000000000000000000000000000000001600000000000000000000000016000000000000000000CREDITO ADICIONAL - ESPECIAL                                                                                                                        S06FNOF
000005221202010000000101000000000000000000000000000000001600000000000000000000000016000000000000000000CREDITOS ESPECIAIS ABERTOS                                                                                                                          A07FSOF
000005221300000000000101000000000000000000000000000000003783704000002756740800000000000000000023783704DOTACAO ADICIONAL POR FONTE                                                                                                                         S05FNOF
000005221303000000000101000000000000000000000000000000003783704000000000000000000037837040000000000000ANULACAO DE DOTACAO                                                                                                                                 A06FSOF
000005221309000000000101000000000000000000000000000000000000000000002378370400000000000000000023783704(-) CANCELAMENTO DE DOTACOES                                                                                                                        A06FSOF
000005221399000000000101000000000000000000000000000000000000000000000378370400000000000000000003783704VALOR GLOBAL DA DOTACAO ADICIONAL POR FONTE                                                                                                         A06FSOF
000005229000000000000101000000000000000000000000000000106264042000000017727300001060867690000000000000OUTROS CONTROLES DA DESPESA ORCAMENTARIA                                                                                                            S04FNOF
000005229200000000000101000000000000000000000000000000106264042000000017727300001060867690000000000000EMPENHOS POR EMISSAO                                                                                                                                S05FNOF
000005229201000000000101000000000000000000000000000000106264042000000017727300001060867690000000000000EXECUCAO DA DESPESA POR NOTA DE EMPENHO                                                                                                             S06FNOF
000005229201010000000101000000000000000000000000000000106221146000000000000000001062211460000000000000EMISSAO DE EMPENHOS                                                                                                                                 A07FSOF
000005229201020000000101000000000000000000000000000000000042896000000000000000000000428960000000000000REFORCO DE EMPENHOS                                                                                                                                 A07FSOF
000005229201030000000101000000000000000000000000000000000000000000000017727300000000000000000000177273(-) ANULACAO DE EMPENHOS                                                                                                                            A07FSOF
000006000000000000000101000000000000000000000000000000555307976000077748664500000000000000000222178669CONTROLES DA EXECUCAO DO PLANEJAMENTO E ORCAMENTO                                                                                                   S01FNOF
000006200000000000000101000000000000000000000000000000555307976000077748664500000000000000000222178669EXECUCAO DO ORCAMENTO                                                                                                                               S02PNOF
000006210000000000000101000000000000000000000000000000000032960000000003296000000000000000000000000000EXECUCAO DA RECEITA                                                                                                                                 S03FNOF
000006211000000000000101000000000000000000000000000000000016480000000001648000000000000000000000000000RECEITA A REALIZAR                                                                                                                                  A04FSOF
000006212000000000000101000000000000000000000000000000000016480000000001648000000000000000000000000000RECEITA REALIZADA                                                                                                                                   A04FSOF
000006220000000000000101000000000000000000000000000000555275016000077745368500000000000000000222178669EXECUCAO DA DESPESA                                                                                                                                 S03FNOF
000006221000000000000101000000000000000000000000000000342661381000045875328100000000000000000116091900DISPONIBILIDADES DE CREDITO                                                                                                                         S04FNOF
000006221100000000000101000000000000000000000000000000130047746000014005287700000000000000000010005131CREDITO DISPONIVEL                                                                                                                                  A05FSOF
000006221300000000000101000000000000000000000000000000212613635000031870040400000000000000000106086769CREDITO UTILIZADO                                                                                                                                   S05FNOF
000006221301000000000101000000000000000000000000000000106329748000010632974800000000000000000000000000CREDITO EMPENHADO A LIQUIDAR                                                                                                                        A06FSOF
000006221303000000000101000000000000000000000000000000106218181000010621818100000000000000000000000000CREDITO EMPENHADO LIQUIDADO A PAGAR                                                                                                                 A06FSOF
000006221304000000000101000000000000000000000000000000000065706000010615247500000000000000000106086769CREDITO EMPENHADO LIQUIDADO PAGO                                                                                                                    A06FSOF
000006229000000000000101000000000000000000000000000000212613635000031870040400000000000000000106086769OUTROS CONTROLES DA DESPESA ORCAMENTARIA                                                                                                            S04FNOF
000006229200000000000101000000000000000000000000000000212613635000031870040400000000000000000106086769EMISSAO DE EMPENHO                                                                                                                                  S05FNOF
000006229201000000000101000000000000000000000000000000212613635000031870040400000000000000000106086769EMPENHOS POR NOTA DE EMPENHO                                                                                                                        S06FNOF
000006229201010000000101000000000000000000000000000000106329748000010632974800000000000000000000000000EMPENHOS A LIQUIDAR                                                                                                                                 A07FSOF
000006229201030000000101000000000000000000000000000000106218181000010621818100000000000000000000000000EMPENHOS LIQUIDADOS A PAGAR                                                                                                                         A07FSOF
000006229201040000000101000000000000000000000000000000000065706000010615247500000000000000000106086769EMPENHOS LIQUIDADOS PAGOS                                                                                                                           A07FSOF
000007000000000000000101000000000000000000000000000000144935271000001625924800001286760230000000000000CONTROLES DEVEDORES                                                                                                                                 S01FNCF
000007100000000000000101000000000000000000000000000000001908648000000000000000000019086480000000000000ATOS POTENCIAIS                                                                                                                                     S02FNCF
000007120000000000000101000000000000000000000000000000001908648000000000000000000019086480000000000000ATOS POTENCIAIS PASSIVOS                                                                                                                            S03FNCF
000007123000000000000101000000000000000000000000000000001908648000000000000000000019086480000000000000OBRIGACOES CONTRATUAIS                                                                                                                              S04FNCF
000007123100000000000101000000000000000000000000000000001908648000000000000000000019086480000000000000OBRIGACOES CONTRATUAIS - CONSOLIDACAO                                                                                                               S05FNCF
000007123102000000000101000000000000000000000000000000001908648000000000000000000019086480000000000000CONTRATOS DE SERVICOS                                                                                                                               A06FSCF
000007200000000000000101000000000000000000000000000000122612838000001625924800001063535900000000000000ADMINISTRACAO FINANCEIRA                                                                                                                            S02FNCF
000007210000000000000101000000000000000000000000000000122612838000001625924800001063535900000000000000DISPONIBILIDADES POR DESTINACAO                                                                                                                     S03FNCF
000007211000000000000101000000000000000000000000000000122612838000001625924800001063535900000000000000CONTROLE DA DISPONIBILIDADE DE RECURSOS                                                                                                             S04FNCF
000007211100000000000101000000000000000000000000000000122330828000001624405900001060867690000000000000RECURSOS ORDINARIOS                                                                                                                                 S05FNCF
000007211100010000000101000000000000000000000000000000122330828000001624405900001060867690000000000000DISPONIBILIDADE POR DESTINACAO DE RECURSOS - LIVRE                                                                                                  A07FSCF
000007211200200000000101000000000000000000000000000000000004120000000000412000000000000000000000000000DISPONIBILIDADE POR DESTINACAO DE RECURSOS - MDE                                                                                                    A07FSCF
000007211200400000000101000000000000000000000000000000000002472000000000247200000000000000000000000000DISPONIBILIDADE POR DESTINACAO DE RECURSOS - ASPS                                                                                                   A07FSCF
000007211380010000000101000000000000000000000000000000000275418000000000859700000002668210000000000000DISPONIBILIDADE POR DESTINACAO DE RECURSOS - RETENCOES E OUTROS EXTRAORCAMENTARIOS                                                                  A07FSCF
000007900000000000000101000000000000000000000000000000020413785000000000000000000204137850000000000000OUTROS CONTROLES                                                                                                                                    S02FNCF
000007990000000000000101000000000000000000000000000000020413785000000000000000000204137850000000000000DEMAIS CONTROLES                                                                                                                                    A03FSCF
000008000000000000000101000000000000000000000000000000355483952000048415997500000000000000000128676023CONTROLES CREDORES                                                                                                                                  S01FNCF
000008100000000000000101000000000000000000000000000000001651386000000356003400000000000000000001908648EXECUCAO DOS ATOS POTENCIAIS                                                                                                                        S02FNCF
000008120000000000000101000000000000000000000000000000001651386000000356003400000000000000000001908648EXECUCAO DOS ATOS POTENCIAIS PASSIVOS                                                                                                               S03FNCF
000008123000000000000101000000000000000000000000000000001651386000000356003400000000000000000001908648EXECUCAO DE OBRIGACOES CONTRATUAIS                                                                                                                  S04FNCF
000008123100000000000101000000000000000000000000000000001651386000000356003400000000000000000001908648EXECUCAO DE OBRIGACOES -CONSOLIDACAO                                                                                                                S05FNCF
000008123102000000000101000000000000000000000000000000001651386000000356003400000000000000000001908648CONTRATOS DE SERVICOS                                                                                                                               S06FNCF
000008123102010000000101000000000000000000000000000000001651386000000190864800000000000000000000257262A EXECUTAR                                                                                                                                          A07FSCF
000008123102020000000101000000000000000000000000000000000000000000000165138600000000000000000001651386EXECUTADOS                                                                                                                                          A07FSCF
000008200000000000000101000000000000000000000000000000351648862000045800245200000000000000000106353590EXECUCAO DA ADMINISTRACAO FINANCEIRA                                                                                                                S02FNCF
000008210000000000000101000000000000000000000000000000351648862000045800245200000000000000000106353590EXECUCAO DAS DISPONIBILIDADES POR DESTINACAO                                                                                                        S03FNCF
000008211000000000000101000000000000000000000000000000351648862000045800245200000000000000000106353590EXECUCAO DA DISPONIBILIDADE DE RECURSOS                                                                                                             S04FNCF
000008211100000000000101000000000000000000000000000000122527494000012252902700000000000000000000001533DISPONIBILIDADE POR DESTINACAO DE RECURSOS                                                                                                          S05FNCF
000008211101000100000101000000000000000000000000000000122505834000012250736700000000000000000000001533DISPONIBILIDADE POR DESTINACAO DE RECURSOS - LIVRE                                                                                                  A08FSCF
000008211101002000000101000000000000000000000000000000000004120000000000412000000000000000000000000000DISPONIBILIDADE POR DESTINACAO DE RECURSOS - MDE                                                                                                    A08FSCF
000008211101004000000101000000000000000000000000000000000002472000000000247200000000000000000000000000DISPONIBILIDADE POR DESTINACAO DE RECURSOS - ASPS                                                                                                   A08FSCF
000008211101800100000101000000000000000000000000000000000015068000000001506800000000000000000000000000DISPONIBILIDADE POR DESTINACAO DE RECURSOS - RETENCOES E OUTROS EXTRAORCAMENTARIOS                                                                  A08FSCF
000008211200000000000101000000000000000000000000000000106329748000010632974800000000000000000000000000DISPONIBILIDADE POR DESTINACAO DE RECURSOS COMPROMETIDA POR EMPENHO                                                                                 S05FNCF
000008211200010000000101000000000000000000000000000000106329748000010632974800000000000000000000000000DISPONIBILIDADE POR DESTINACAO DE RECURSOS - LIVRE                                                                                                  A07FSCF
000008211300000000000101000000000000000000000000000000106488068000010648653500000000015330000000000000DISPONIBILIDADE POR DESTINACAO DE RECURSOS COMPROMETIDA POR LIQUIDACAO E ENTRADAS COMPENSATORIAS                                                    S05FNCF
000008211301000100000101000000000000000000000000000000106221247000010621971400000000015330000000000000DISPONIBILIDADE POR DESTINACAO DE RECURSOS - LIVRE                                                                                                  A08FSCF
000008211302800100000101000000000000000000000000000000000266821000000026682100000000000000000000000000DISPONIBILIDADE POR LIQUIDACAO - RETENCOES E OUTROS EXTRAORCAMENTARIOS                                                                              A08FSCF
000008211400000000000101000000000000000000000000000000016303552000012265714200000000000000000106353590DISPONIBILIDADE POR DESTINACAO DE RECURSOS UTILIZADA                                                                                                S05FNCF
000008211400010000000101000000000000000000000000000000016300252000012238702100000000000000000106086769DISPONIBILIDADE POR DESTINACAO DE RECURSOS - LIVRE                                                                                                  A07FSCF
000008211480010000000101000000000000000000000000000000000003300000000027012100000000000000000000266821DISPONIBILIDADE POR DESTINACAO DE RECURSOS UTILIZADA - RETENCOES E OUTROS EXTRAORCAMENTARIOS                                                        A07FSCF
000008900000000000000101000000000000000000000000000000002183704000002259748900000000000000000020413785OUTROS CONTROLES                                                                                                                                    S02FNCF
000008990000000000000101000000000000000000000000000000002183704000002259748900000000000000000020413785DEMAIS CONTROLES CREDORES                                                                                                                           S03FNCF
000008999000000000000101000000000000000000000000000000002183704000002259748900000000000000000020413785DEMAIS CONTROLES                                                                                                                                    S04FNCF
000008999007000000000101000000000000000000000000000000002183704000002259748900000000000000000020413785CONTROLE DA SUPLEMENTACAO AUTORIZADO EM LOA                                                                                                         S06FNCF
000008999007201900000101000000000000000000000000000000002183704000002259748900000000000000000020413785LOA 2019 LEI 2845/2018                                                                                                                              S08FNCF
000008999007201901000101000000000000000000000000000000002183704000002041378500000000000000000018230081LIMITE DISPONIVEL                                                                                                                                   A09FSCF
000008999007201903000101000000000000000000000000000000000000000000000218370400000000000000000002183704LIMITE UTILIZADO                                                                                                                                    A09FSCF
FINALIZADOR0000000282                                                                                                                                                                                                                                            
