12292535000162010120183112201823012019CAMARA DE VEREADORES DE INDEPENDENCIA-RS                                        
0000000006CONTRIBUICAO AO FAPS                                        12091144000180000000000000000000000000000000RUA SENADOR PINHEIRO                              INDEPENDENCIA                 RS989150000000000000000000000000000000000202
0000000052ANTONIO AVELINO FERREIRA                                    00046252240044000000000000000000000000000000MOTORISTA/VEREADOR                                INDEPENDENCIA                 RS989150000000000000000000000000000000000201
0000000077VIACAO OURO E PRATA S/A                                     92954106000142000000962042935000000000000000DENISE - 51-3375-8672                             PORTO ALEGRE                  RS900109080000055351255440000000000000000202
0000000149OI - BRASIL TELECOM S.A- (51-074-6918)net                   76535764000224000000962845833000000000000000AV.BORGES DE MEDEIROS,512                         PORTO ALEGRE                  RS989150000000080003108000000000000000000202
0000000155CONTRIBUICAO AO INSS                                        29979036000140000000000000000000000000000000SEM ENDERECO                                      INDEPENDENCIA                 RS989150000000000000000000000000000000000202
0000000166ORIDES ZIMERMANN DE OLIVEIRA - ME                           87687463000151000000000000000000000000000000AV.TRES DE MAIO, 1023                             INDEPENDENCIA                 RS989150000000055961549230000000000000000202
0000000167ABASE SISTEMAS E SOLUCOES LTDA                              93088649000197000001470025474000000000000000AV.SEN.ALBERTO PASQUALINI, 347                    TRES DE MAIO                  RS989100000000000353549000000000000000000202
0000000222ADILAR MELLER                                               00056028326020000000000000000000000000000000Motorista e Vereador                              INDEPENDENCIA                 RS989150000000000000000000000000000000000201
0000000223CORSAN - COMP. RIOGRANDENSE DE SANEAMENTO                   92802784000190000001980000000000000000000000AV. TRES DE MAIO, 646/0                           INDEPENDENCIA                 RS989150000001451321558180000000000000000202
0000000247FOLHA DE PAGTO - VEREADORES                                 12292535000162000000000000000000000000000000RUA SENADOR PINHEIR, 1348                         INDEPENDENCIA                 RS989150000000000000000000000000000000000102
0000000266JORNAL SEMANAL LTDA                                         92152651000115000001470000001000000000000000RUA SANTO ANGELO No 413 SALA 4                    TRES DE MAIO                  RS989100000000055353510330000000000000000202
0000000340JOAILSON ROBERTO REDEL                                      00040963551000000000000000000000000000000000ESQUINA BUDEL No 328                              INDEPENDENCIA                 RS989150000000000991666550000000000000000201
0000000368ADELIO JOSE DUPONT                                          05045644000110000001980008423000000000000000AV. IGNACIO PINTO, 118                            INDEPENDENCIA                 RS989150000000055996132810000000000000000202
0000000410NATALINO FACCIN                                             94968120000120000001980004339000000000000000RUA SAO MIGUEL , 716                              INDEPENDENCIA                 RS989150000000000353911130000000000000000202
0000000413SONIA CRISTINA TAVARES SOUTO-DIARIAS                        00043883362034000000000000000000000000000000ENFERMEIRA                                        INDEPENDENCIA                 RS989150000000000000000000000000000000000201
0000000475DIOMAR AUZANI - DIARIAS                                     00024720755020000000000000000000000000000000VEREADOR                                          INDEPENDENCIA                 RS989150000000000000000000000000000000000201
0000000854UVERGS(UNIAO VEREADORES DO RIO G.DO SUL                     88993175000198000000000000000000000000000000PORTO ALEGRE                                      PORTO ALEGRE                  RS905500000000000000000000000000000000000202
0000001169RIO GRANDE ENERGIA - RGE                                    02016439000138000000962636193000000000000000RUA SAO LUIS,77                                   PORTO ALEGRE                  RS906201700000054321810830000000000000000202
0000001744JEFERSON LUIS SCHAKOFSKI                                    04286078000175000000000000000000000000000000R. SANTA ROSA DE LIMA, 789, SALA 1                INDEPENDENCIA                 RS989150000000055353912600000000000000000202
0000001830ADELAR GARCIA MACHADO                                       00049907085049000000000000000000000000000000ASSESSOR PARLAMENTAR                              INDEPENDENCIA                 RS989150000000000000000000000000000000000201
0000001953PEDRO ALEX DE LIMA                                          00072811463020000000000000000000000000000000AGENTE DE SAUDE/VEREADOR                          INDEPENDENCIA                 RS989150000000000000000000000000000000000201
0000001960SUSANA KOPPER                                               00051264200030000000000000000000000000000000SECRETARIA DO LEGISLATIVO                         INDEPENDENCIA                 RS989150000000000000000000000000000000000201
0000002066WNL -PRODUTOS E SOLUCOES EM INFORMATICA LTDA                05203653000191000001470041097000000000000000AV. URUGUAI, 236                                  TRES DE MAIO                  RS989100000000055353544560000000000000000202
0000003705FOLHA  PAG SERVIDORES DA CAMARA DE VEREADORES               12292535000162000000000000000000000000000000RUA SENADOR PNHEIRO, 1348                         INDEPENDENCIA                 RS989150000000000353912950000000000000000202
0000003719FRANCISCO CALEGARI  DE OLIVEIRA - DIARIAS                   00038804166053000000000000000000000000000000RUA DUQUE DE CAXIAS, 1411                         INDEPENDENCIA                 RS989150000000000000000000000000000000000201
0000003742LEANDRO NOGARA                                              07611894000103000000000000000000000000000000AV. TRES DE MAIO, 918                             INDEPENDENCIA                 RS989150000000055915823780000000000000000202
0000004109JAIR AZILDO MASSUDA GRENZEL                                 00049907344087000000000000000000000000000000AV. IGNACIO PINTO, 480                            INDEPENDENCIA                 RS989150000000000000000000000000000000000201
0000004212INSTITUTO DE APOIO AO PODER PUBLICO - INLEGIS               08117028000115000000000000000000000000000000RUA XV DE NOVEMBRO, 1525                          ALEGRIA                       RS989050000000000000000000000000000000000202
0000004698PAULO RICARDO SARTORI                                       00058762922068000000000000000000000000000000CONSELHEIRO DA AGRICULTURA                        INDEPENDENCIA                 RS989150000000000000000000000000000000000201
0000004789W INSTRUMENTOS MUSICAIS EIRELE - A MUSICAL                  94356177000179000000000000000000000000000000RUA EXPED. BERTOLDO BOEK No 571, SALA2            TRES DE MAIO                  RS989100000000009840608370000000000000000202
0000005301BUTZKE CONTRUCOES LTDA - ME LOJA INDEPENDENCIA              93587293000136000000000000000000000000000000AV TRES DE MAIO 750                               INDEPENDENCIA                 RS989150000000055353913200000000000000000202
0000005325CHARLES ALAIR MEINKE SERIGRAFIA-MEI                         17635464000177000000000000000000000000000000RUA ANISIO ARAUJO E SILVA, 223                    INDEPENDENCIA                 RS989150000000559997719650000000000000000202
0000005394BELLA PRESENTES E UTILIDADES LTDA - ME                      18012618000137000000000000000000000000000000AV. TRES DE MAIO, 997                             INDEPENDENCIA                 RS989150000000055353911680000000000000000202
0000005462UNIAO DOS VEREADORES DO BRASIL                              83594978000156000000000000000000000000000000Q SRTVS QD 01 - CENTRO EMPRES. ASSIS SALA 502/504 BRASILIA (VER CEP POR LOGRADOUDF700000000000000000000000000000000000000202
0000005740GRAFICA E EDITORA CASA MUNDO DA MIDIA LTDA                  05289241000116000000000000000000000000000000RUA DAHNE DE ABREU 577                            HORIZONTINA                   RS989200000000055353730050000000000000000202
0000006139ELI TEREZINHA DE OLIVEIRA BORGES                            00051775085015000000000000000000000000000000AV. TRES DE MAIO, 679                             INDEPENDENCIA                 RS989150000000000961402580000000000000000201
0000006260BRASIL DE FREITAS NETO                                      00059837926015000000000000000000000000000000ESQUINA ARAUJO, S/N                               INDEPENDENCIA                 RS989150000000559991296670000000000000000101
0000006264NORMELIA LOTTERMANN EPP                                     20132150000166000000000000000000000000000000RUA PLANALTO, 2100                                TRES DE MAIO                  RS989100000000055353532830000000000000000102
0000006412DIEGO KREMER DOS SANTOS- SKY NET TECNOLOGIA                 11149154000166000000000000000000000000000000R. THOMAZIA DE CARVALHO No 1109                   CHIAPETTA                     RS987600000000055378414680000000000000000202
0000006424FACE CARD ADMINISTRADORA DE CARTOES LTDA-ME                 21935659000100000000000000000000000000000000RUA TREZE DE MAIO, No 670, SALA 7, CENTRO         LIMEIRA (VER CEP POR LOGRADOURSP134800000000000000000000000000000000000102
0000006531AR CONTADORES CERTIFICACAO DIGITAL LTDA - ME                03151200000133000000000000000000000000000000AV. GETULIO VARGAS, 774 SALLA 401                 PORTO ALEGRE                  RS901500010000051302576000000000000000000102
0000006583ISAIAS DIAS PIRES                                           17818505000160000000000000000000000000000000RUA MARECHAL CANDIDO RONDON, 1410                 INDEPENDENCIA                 RS989150000000559999456350000000000000000102
0000006637TIAGO BRASIL DORNELES   CIA LTDA - ME                       10926435000115000000000000000000000000000000R EXPEDICIONARIO BERTOLDO BOECK, 136              TRES DE MAIO                  RS989100000000000353524590000000000000000102
0000006698NELSON ADAO BARROS PACHECO - MEI 12337898174                28825878000185000000000000000000000000000000INDEPENDNECIA                                     INDEPENDENCIA                 RS989150000000000000000000000000000000000102
0000006837DARLA ANTONIO BARASUOL - MEI                                29842206000140000000000000000000000000000000R PC AV. TRES DE MAIO 904                         INDEPENDENCIA                 RS989150000000009972066500000000000000000202
0000006857IRINEU MAIER BOYARSKI JUNIOR-MEI                            30058029000195000000000000000000000000000000RUA SANTO ANGELO 521                              INDEPENDENCIA                 RS989150000000000964815720000000000000000102
0000006872INLEGIS CONSULTORIA E TREINAMENTO EIRELI                    30050141000180000000000000000000000000000000TV TUYUTY  No 53 APT 503                          PORTO ALEGRE                  RS900502700000051999158090000000000000000202
0000006901RONALDO F. WENDLAND   CIA LTDA JOA. E OTICA SAFIRA          98037203000157000000000000000000000000000000AV. URUGUAI   No 5050                             TRES DE MAIO                  RS989100000000000000000000000000000000000202
0000006978CLAUDIA BAUMGARTNER                                         29647965000152000000000000000000000000000000RUA SENADOR SALGADO FILHO No 696                  INDEPENDENCIA                 RS989150000000000962641200000000000000000202
0000007082FABIO AUGUSTO CAPPI SCHONARDIE 020.690.090-25               3197183700010100000000000000000000000000000010 RUA SENADOR PINHEIRO 612                       INDEPENDENCIA                 RS989150000000000353539120000000000000000202
FINALIZADOR0000000050                                                                                                                                                                                                                                                                                                                                                                                                                                                                                                                                                                                                                                                                                                                                                                                                           
