12292535000162010120203004202008052020CAMARA DE VEREADORES DE INDEPENDENCIA-RS                                        
0000000006CONTRIBUICAO AO FAPS                                        12091144000180000000000000000000000000000000RUA SENADOR PINHEIRO                              INDEPENDENCIA                 RS989150000000000000000000000000000000000202
0000000149OI - BRASIL TELECOM S.A- (51-074-6918)net                   76535764000224000000962845833000000000000000AV.BORGES DE MEDEIROS,512                         PORTO ALEGRE                  RS989150000000080003108000000000000000000202
0000000155CONTRIBUICAO AO INSS                                        29979036000140000000000000000000000000000000SEM ENDERECO                                      INDEPENDENCIA                 RS989150000000000000000000000000000000000202
0000000167ABASE SISTEMAS E SOLUCOES LTDA                              93088649000197000001470025474000000000000000AV.SEN.ALBERTO PASQUALINI, 347                    TRES DE MAIO                  RS989100000000000353549000000000000000000202
0000000222ADILAR MELLER                                               00056028326020000000000000000000000000000000Motorista e Vereador                              INDEPENDENCIA                 RS989150000000000000000000000000000000000201
0000000223CORSAN - COMP. RIOGRANDENSE DE SANEAMENTO                   92802784000190000001980000000000000000000000AV. TRES DE MAIO, 646/0                           INDEPENDENCIA                 RS989150000001451321558180000000000000000202
0000000247FOLHA DE PAGTO - VEREADORES                                 12292535000162000000000000000000000000000000RUA SENADOR PINHEIR, 1348                         INDEPENDENCIA                 RS989150000000000000000000000000000000000102
0000000266JORNAL SEMANAL LTDA                                         92152651000115000001470000001000000000000000RUA SANTO ANGELO No 413 SALA 4                    TRES DE MAIO                  RS989100000000055353510330000000000000000202
0000000678VILSON MEURER - ME                                          91814285000150000000000000000000000000000000AV. TRES DE MAIO                                  INDEPENDENCIA                 RS989150000000055353911470000000000000000202
0000001169RIO GRANDE ENERGIA - RGE                                    02016439000138000000962636193000000000000000RUA SAO LUIS,77                                   PORTO ALEGRE                  RS906201700000054321810830000000000000000202
0000003705FOLHA  PAG SERVIDORES DA CAMARA DE VEREADORES               12292535000162000000000000000000000000000000RUA SENADOR PNHEIRO, 1348                         INDEPENDENCIA                 RS989150000000000353912950000000000000000202
0000003719FRANCISCO CALEGARI  DE OLIVEIRA - DIARIAS                   00038804166053000000000000000000000000000000RUA DUQUE DE CAXIAS, 1411                         INDEPENDENCIA                 RS989150000000000000000000000000000000000201
0000004698PAULO RICARDO SARTORI                                       00058762922068000000000000000000000000000000CONSELHEIRO DA AGRICULTURA                        INDEPENDENCIA                 RS989150000000000000000000000000000000000201
0000004824OI S.A- EM RECUPERAcaO JUDICIAL                             76535764000143000000000000000000000000000000rua do lavradio                                   RIO DE JANEIRO                RJ202300700000071313131790000000000000000202
0000005394BELLA PRESENTES E UTILIDADES LTDA - ME                      18012618000137000000000000000000000000000000AV. TRES DE MAIO, 997                             INDEPENDENCIA                 RS989150000000055353911680000000000000000202
0000005740GRAFICA E EDITORA CASA MUNDO DA MIDIA LTDA                  05289241000116000000000000000000000000000000RUA DAHNE DE ABREU 577                            HORIZONTINA                   RS989200000000055353730050000000000000000202
0000006412DIEGO KREMER DOS SANTOS- SKY NET TECNOLOGIA                 11149154000166000000000000000000000000000000R. THOMAZIA DE CARVALHO No 1109                   CHIAPETTA                     RS987600000000055378414680000000000000000202
0000006424FACE CARD ADMINISTRADORA DE CARTOES LTDA-ME                 21935659000100000000000000000000000000000000RUA TREZE DE MAIO, No 670, SALA 7, CENTRO         LIMEIRA (VER CEP POR LOGRADOURSP134800000000000000000000000000000000000102
0000006531AR CONTADORES CERTIFICACAO DIGITAL LTDA - ME                03151200000133000000000000000000000000000000AV. GETULIO VARGAS, 774 SALLA 401                 PORTO ALEGRE                  RS901500010000051302576000000000000000000102
0000006872INLEGIS CONSULTORIA E TREINAMENTO EIRELI                    30050141000180000000000000000000000000000000TV TUYUTY  No 53 APT 503                          PORTO ALEGRE                  RS900502700000051999158090000000000000000202
FINALIZADOR0000000020                                                                                                                                                                                                                                                                                                                                                                                                                                                                                                                                                                                                                                                                                                                                                                                                           
