12292535000162010120203004202008052020CAMARA DE VEREADORES DE INDEPENDENCIA-RS                                        
020200200220200000000000000002747240420200000000119460+                                                                                                                                                                     000000000000000000000000000000REMUNERACAO REFERENTE AO MES DE ABRIL 2020.   CAMARA VEREADORES  REPRESENTACAO                                                                                                                                                                                                                                                                                                                                  X00000000000000000000                    0000X000000000   X
020200200220300000000000000002748240420200000003583800+                                                                                                                                                                     000000000000000000000000000000REMUNERACAO REFERENTE AO MES DE ABRIL 2020.   CAMARA VEREADORES  SUBSIDIOS                                                                                                                                                                                                                                                                                                                                      X00000000000000000000                    0000X000000000   X
020200200220400000000000000002749240420200000001087152+                                                                                                                                                                     000000000000000000000000000000REMUNERACAO REFERENTE AO MES DE ABRIL 2020.   CAMARA CCS  SALARIO C/C                                                                                                                                                                                                                                                                                                                                           X00000000000000000000                    0000X000000000   X
020200200220500000000000000002750240420200000000290532+                                                                                                                                                                     000000000000000000000000000000REMUNERACAO REFERENTE AO MES DE ABRIL 2020.   CAMARA ESTATUTARIOS  VENCIMENTO                                                                                                                                                                                                                                                                                                                                   X00000000000000000000                    0000X000000000   X
020200200220600000000000000002751240420200000000071790+                                                                                                                                                                     000000000000000000000000000000REMUNERACAO REFERENTE AO MES DE ABRIL 2020.   CAMARA ESTATUTARIOS  FERIAS                                                                                                                                                                                                                                                                                                                                       X00000000000000000000                    0000X000000000   X
020200200220700000000000000002752240420200000000220617+                                                                                                                                                                     000000000000000000000000000000REMUNERACAO REFERENTE AO MES DE ABRIL 2020.   CAMARA ESTATUTARIOS   SALARIO MATERNIDADE                                                                                                                                                                                                                                                                                                                         X00000000000000000000                    0000X000000000   X
020200200220800000000000000002753240420200000000046485+                                                                                                                                                                     000000000000000000000000000000REMUNERACAO REFERENTE AO MES DE ABRIL 2020.   CAMARA ESTATUTARIOS   ANUENIOS                                                                                                                                                                                                                                                                                                                                    X00000000000000000000                    0000X000000000   X
020200200244000000000000000002989280420200000000178500+                                                                                                                                                                     000000000000000000000000000000VALE ALIMENTACAO PARA OS SERVIDORES MUNICIPAIS CONF. LEI 2734/17 E DECRETO No 72/17 CONF.  RELATORIO PARA EMPENHO E NF-E 13076 EM ANEXO.   PROC. 144/17 ED. 065/17 PREG. 059/17 CONTRATO 121/2017 REF. DEZ/19                                                                                                                                                                                                   S00000000000000000121134                 2017S0000130760  C
020200200244100000000000000002990280420200000000777685+                                                                                                                                                                     000000000000000000000000000000CONTRIB. PATRONAL AO INSS REF REMUNERACAO DE ABRIL 2020.  VEREADORES                                                                                                                                                                                                                                                                                                                                            X00000000000000000000                    0000X000000000   X
020200200244200000000000000002991280420200000000228302+                                                                                                                                                                     000000000000000000000000000000CONTRIB. PATRONAL AO INSS REF REMUNERACAO DE ABRIL 2020.  CAMARA CCS                                                                                                                                                                                                                                                                                                                                            X00000000000000000000                    0000X000000000   X
020200200249800000000000000003047280420200000000086104+                                                                                                                                                                     000000000000000000000000000000CONTRIB  AO FPSM PARTE PATRONAL 13,68% REF. REMUNERACAO DE ABRIL/2020  CAMARA ESTATUTARIOS                                                                                                                                                                                                                                                                                                                      X00000000000000000000                    0000X000000000   X
020200200029800000000000000000133170120200000000192000+                                                                                                                                                                     00000000000000000000000000000003 TAXAS DE INSCRICAO PARA OS VEREADORES FRANCISCO CALEGARI DE OLIVEIRA, ADILAR MELLER E PAULO RICARDO SARTORI PARTICIPAREM DO CURSO: GRANDE ENCONTRO DE ATUALIZACAO, ORIENTACAO E PROVIDENCIAS PARA MESA DIRETORA, VEREADORES E SERVIDORES PARA O ULTIMO ANO DE MANDATO. A SER REALIZAR-SE NOS DIAS 04, 05, 06 E 07/02/2020 NO INLEGIS EM POA. CONF RD 108 EM ANEXO.                                           N00000000000000000000                    0000N000000000   X
020200200030000000000000000000134170120200000000115000+                                                                                                                                                                     000000000000000000000000000000RESSARCIMENTO DE DESPESAS DE DESLOCAMENTO DOS VEREADORES FRANCISCO CALEGARI DE OLIVEIRA, ADILAR MELLER E PAULO RICARDO SARTORI PARTICIPAREM DO CURSO: GRANDE ENCONTRO DE ATUALIZACAO, ORIENTACAO E PROVIDENCIAS PARA MESA DIRETORA, VEREADORES E SERVIDORES PARA O ULTIMO ANO DE MANDATO. A SER REALIZAR-SE NOS DIAS 04, 05, 06 E 07/02/2020 NO INLEGIS EM POA. CONF RD 009/2020 EM ANEXO.                      X00000000000000000000                    0000X000000000   X
020200200030100000000000000000135170120200000000144529+                                                                                                                                                                     0000000000000000000000000000003,5 DIARIAS A PORTO ALEGRE PARA PARTICIPAR DO CURSO: GRANDE ENCONTRO DE ATUALIZACAO, ORIENTACAO E PROVIDENCIAS PARA MESAS DIRETORAS, VEREADORES E SERVIDORES PARA O ULTIMO ANO DE MANDATO A REALIZAR-SE NOS DIAS 04, 05, 06 E 07/02/2020 NO INLEGIS. CONF SD 005/2020 EM ANEXO.                                                                                                                                 X00000000000000000000                    0000X000000000   X
020200200030200000000000000000136170120200000000144529+                                                                                                                                                                     0000000000000000000000000000003,5 DIARIAS A PORTO ALEGRE PARA PARTICIPAR DO CURSO: GRANDE ENCONTRO DE ATUALIZACAO, ORIENTACAO E PROVIDENCIAS PARA MESAS DIRETORAS, VEREADORES E SERVIDORES PARA O ULTIMO ANO DE MANDATO A REALIZAR-SE NOS DIAS 04, 05, 06 E 07/02/2020 NO INLEGIS. CONF SD 007/2020 EM ANEXO.                                                                                                                                 X00000000000000000000                    0000X000000000   X
020200200030300000000000000000137170120200000000144529+                                                                                                                                                                     0000000000000000000000000000003,5 DIARIAS A PORTO ALEGRE PARA PARTICIPAR DO CURSO: GRANDE ENCONTRO DE ATUALIZACAO, ORIENTACAO E PROVIDENCIAS PARA MESAS DIRETORAS, VEREADORES E SERVIDORES PARA O ULTIMO ANO DE MANDATO A REALIZAR-SE NOS DIAS 04, 05, 06 E 07/02/2020 NO INLEGIS. CONF SD 006/2020 EM ANEXO.                                                                                                                                 X00000000000000000000                    0000X000000000   X
020200200030500000000000000000138170120200000000075000+                                                                                                                                                                     000000000000000000000000000000ASSESSORIA E CONSULTORIA TECNICA E JURIDICA PRESENCIAL E A DISTANCIA PARA A CAMARA DE VEREADORES CONF CONTRATO No 01/2019 E RD 09/2020 EM ANEXO.  VIGENCIA ATE 21/02/2020.                                                                                                                                                                                                                                      N00000000000000000000                    0000S0000000010  X
020200200006400000000000000000001130120200000000037400+                                                                                                                                                                     000000000000000000000000000000CERTIFICADO DIGITAL - TOKEN PARA USO DO PRESIDENTE DA CAMARA DE VEREADORES CONF RD 02/2020 EM ANEXO.                                                                                                                                                                                                                                                                                                            N00000000000000000000                    0000N000000000   X
020200200034800000000000000000147220120200000000018538+                                                                                                                                                                     000000000000000000000000000000LIGACOES TELEFONICAS REALIZADAS ATRAVES DA LINHA 3539-1295 DA CAMARA DE VEREADORES NO EXERCICIO DE 2020.   FATURA No  REF. MES.                                                                                                                                                                                                                                                                                 N00000000000000000000                    0000S011687239U  X
020200200041400000000000000000227270120200000000290532+                                                                                                                                                                     000000000000000000000000000000REMUNERACAO REFERENTE AO MES DE JANEIRO 2020.   CAMARA ESTATUTARIOS   VENCIMENTO                                                                                                                                                                                                                                                                                                                                X00000000000000000000                    0000X000000000   X
020200200041500000000000000000228270120200000000102955+                                                                                                                                                                     000000000000000000000000000000REMUNERACAO REFERENTE AO MES DE JANEIRO 2020.   CAMARA ESTATUTARIOS   SALARIO MATERNIDADE                                                                                                                                                                                                                                                                                                                       X00000000000000000000                    0000X000000000   X
020200200041600000000000000000229270120200000000117662+                                                                                                                                                                     000000000000000000000000000000REMUNERACAO REFERENTE AO MES DE JANEIRO 2020.   CAMARA ESTATUTARIOS   AUXILIO DOENCA                                                                                                                                                                                                                                                                                                                            X00000000000000000000                    0000X000000000   X
020200200041700000000000000000230270120200000000046485+                                                                                                                                                                     000000000000000000000000000000REMUNERACAO REFERENTE AO MES DE JANEIRO 2020.   CAMARA ESTATUTARIOS   ANUENIOS                                                                                                                                                                                                                                                                                                                                  X00000000000000000000                    0000X000000000   X
020200200041800000000000000000231270120200000000119460+                                                                                                                                                                     000000000000000000000000000000REMUNERACAO REFERENTE AO MES DE JANEIRO 2020.   CAMARA VEREADORES  REPRESENTACAO                                                                                                                                                                                                                                                                                                                                X00000000000000000000                    0000X000000000   X
020200200041900000000000000000232270120200000003583800+                                                                                                                                                                     000000000000000000000000000000REMUNERACAO REFERENTE AO MES DE JANEIRO 2020.   CAMARA VEREADORES  SUBSIDIOS                                                                                                                                                                                                                                                                                                                                    X00000000000000000000                    0000X000000000   X
020200200042000000000000000000233270120200000001194597+                                                                                                                                                                     000000000000000000000000000000REMUNERACAO REFERENTE AO MES DE JANEIRO 2020.   CAMARA VEREADORES  FERIAS                                                                                                                                                                                                                                                                                                                                       X00000000000000000000                    0000X000000000   X
020200200042100000000000000000234270120200000000036707+                                                                                                                                                                     000000000000000000000000000000REMUNERACAO REFERENTE AO MES DE JANEIRO 2020.   CAMARA CCS  FERIAS                                                                                                                                                                                                                                                                                                                                              X00000000000000000000                    0000X000000000   X
020200200042200000000000000000235270120200000001087152+                                                                                                                                                                     000000000000000000000000000000REMUNERACAO REFERENTE AO MES DE JANEIRO 2020.   CAMARA CCS  SALARIO C/C                                                                                                                                                                                                                                                                                                                                         X00000000000000000000                    0000X000000000   X
020200200108900000000000000001060210220200000000119460+                                                                                                                                                                     000000000000000000000000000000REMUNERACAO REFERENTE AO MES DE FEVEREIRO 2020.   CAMARA VEREADORES  REPRESENTACAO                                                                                                                                                                                                                                                                                                                              X00000000000000000000                    0000X000000000   X
020200200109000000000000000001061210220200000003583800+                                                                                                                                                                     000000000000000000000000000000REMUNERACAO REFERENTE AO MES DE FEVEREIRO 2020.   CAMARA VEREADORES  SUBSIDIOS                                                                                                                                                                                                                                                                                                                                  X00000000000000000000                    0000X000000000   X
020200200109100000000000000001062210220200000001087152+                                                                                                                                                                     000000000000000000000000000000REMUNERACAO REFERENTE AO MES DE FEVEREIRO 2020.   CAMARA CCS  SALARIO C/C                                                                                                                                                                                                                                                                                                                                       X00000000000000000000                    0000X000000000   X
020200200109200000000000000001063210220200000000290532+                                                                                                                                                                     000000000000000000000000000000REMUNERACAO REFERENTE AO MES DE FEVEREIRO 2020.   CAMARA ESTATUTARIOS   VENCIMENTO                                                                                                                                                                                                                                                                                                                              X00000000000000000000                    0000X000000000   X
020200200109300000000000000001064210220200000000047860+                                                                                                                                                                     000000000000000000000000000000REMUNERACAO REFERENTE AO MES DE FEVEREIRO 2020.   CAMARA ESTATUTARIOS   FERIAS                                                                                                                                                                                                                                                                                                                                  X00000000000000000000                    0000X000000000   X
020200200109400000000000000001065210220200000000220617+                                                                                                                                                                     000000000000000000000000000000REMUNERACAO REFERENTE AO MES DE FEVEREIRO 2020.   CAMARA ESTATUTARIOS   SALARIO MATERNIDADE                                                                                                                                                                                                                                                                                                                     X00000000000000000000                    0000X000000000   X
020200200109500000000000000001066210220200000000046485+                                                                                                                                                                     000000000000000000000000000000REMUNERACAO REFERENTE AO MES DE FEVEREIRO 2020.   CAMARA ESTATUTARIOS   ANUENIOS                                                                                                                                                                                                                                                                                                                                X00000000000000000000                    0000X000000000   X
020200200078900000000000000000606310120200000000189000+                                                                                                                                                                     000000000000000000000000000000VALE ALIMENTACAO PARA OS SERVIDORES MUNICIPAIS CONF. LEI 2734/17 E DECRETO No 72/17 CONF.  RELATORIO PARA EMPENHO E NF-E 7767 EM ANEXO.   PROC. 144/17 ED. 065/17 PREG. 059/17 CONTRATO 121/2017 REF. DEZ/19                                                                                                                                                                                                    S00000000000000000121134                 2017S0000077670  C
020200200082000000000000000000620310120200000000019514+                                                                                                                                                                     000000000000000000000000000000LIGACOES TELEFONICAS REALIZADAS ATRAVES DA LINHA 3539-1295 DA CAMARA DE VEREADORES NO EXERCICIO DE 2020.   FATURA No  REF. MES.                                                                                                                                                                                                                                                                                 N00000000000000000000                    0000S012257718U  X
020200200006500000000000000000662030220200000000053254+                                                                                                                                                                     000000000000000000000000000000LOCACAO DE SISTEMAS DE INFORMATICA PARA O ANO DE 2020. SISTEMAS: PORTAL DA TRANSPARENCIA E SITE OFICIAL DA CAMARA CONF CONTRATO No 111/2018.  PROCESSO 107/18  EDITAL 54/18  PREGAO 47/18  VALOR MENSAL R$ 532,54  IRRF 1,5% NA LIQUIDACAO                                                                                                                                                                      S00000000000000000111142                 2018S0000467241  C
020200200074900000000000000000562310120200000001028550+                                                                                                                                                                     000000000000000000000000000000CONTRIB. PATRONAL AO INSS REF REMUNERACAO DE JANEIRO 2020.  VEREADORES                                                                                                                                                                                                                                                                                                                                          X00000000000000000000                    0000X000000000   X
020200200075000000000000000000563310120200000000236010+                                                                                                                                                                     000000000000000000000000000000CONTRIB. PATRONAL AO INSS REF REMUNERACAO DE JANEIRO 2020.  CAMARA CCS                                                                                                                                                                                                                                                                                                                                          X00000000000000000000                    0000X000000000   X
020200200075100000000000000000564310120200000000076283+                                                                                                                                                                     000000000000000000000000000000CONTRIB  AO FPSM PARTE PATRONAL 13,68% REF. REMUNERACAO DE JANEIRO/2020  CAMARA ESTATUTARIOS                                                                                                                                                                                                                                                                                                                    X00000000000000000000                    0000X000000000   X
020200200006600000000000000000764050220200000000009990+                                                                                                                                                                     000000000000000000000000000000SINAL DE INTERNET COM FIBRA OPTICA JUNTO A CAMARA DE VEREADORES NO EXERCICIO 2020 CONF RD 001/2020 EM ANEXO.  VALOR MENSAL R$ 99,90                                                                                                                                                                                                                                                                             N00000000000000000000                    0000S0000141111  X
020200200096500000000000000000829100220200000000022500+                                                                                                                                                                     000000000000000000000000000000ASSESSORIA E CONSULTORIA TECNICA E JURIDICA PRESENCIAL E A DISTANCIA PARA A CAMARA DE VEREADORES CONF CONTRATO No 01/2019 E 12/2020 EM ANEXO.  NE COMPLEMENTAR A NE 305.                                                                                                                                                                                                                                        N00000000000000000000                    0000S0000001220  X
020200200030500000000000000000830100220200000000052500+                                                                                                                                                                     000000000000000000000000000000ASSESSORIA E CONSULTORIA TECNICA E JURIDICA PRESENCIAL E A DISTANCIA PARA A CAMARA DE VEREADORES CONF CONTRATO No 01/2019 E RD 09/2020 EM ANEXO.  VIGENCIA ATE 21/02/2020.                                                                                                                                                                                                                                      N00000000000000000000                    0000S0000001220  X
020200200066100000000000000000847100220200000000029774+                                                                                                                                                                     000000000000000000000000000000GENEROS ALIMENTICIOS PARA MANUTENCAO DAS ATIVIDADES DA CAMARA DE VEREADORES NO ANO DE 2020. CONF RD 11 EM ANEXO NE 663.                                                                                                                                                                                                                                                                                         N00000000000000000000                    0000S0000002103  X
020200200066200000000000000000848100220200000000002199+                                                                                                                                                                     000000000000000000000000000000MATERIAL DE COPA E COZINHA PARA MANUTENCAO DAS ATIVIDADES DA CAMARA DE VEREADORES CONF RD 11 EM ANEXO NE 663.                                                                                                                                                                                                                                                                                                   N00000000000000000000                    0000S0000002103  X
020200200066300000000000000000849100220200000000056135+                                                                                                                                                                     000000000000000000000000000000MATERIAL DE LIMPEZA E HIGIENE PARA MANUTENCAO DAS ATIVIDADES DA CAMARA DE VEREADORES CONF RD 11 EM ANEXO.  NE 661 R$ 297,74  NE 662 R$ 21,99  NE 663 R$ 561,35                                                                                                                                                                                                                                                  N00000000000000000000                    0000S0000002103  X
020200200066400000000000000000973170220200000000011500+                                                                                                                                                                     000000000000000000000000000000ASSINATURA DO JORNAL SEMANAL PARA A CAMARA DE VEREADORES NO ANO DE 2020. CONF RD 10 EM ANEXO.                                                                                                                                                                                                                                                                                                                   N00000000000000000000                    0000S0000016871  X
020200200006500000000000000001346030320200000000053254+                                                                                                                                                                     000000000000000000000000000000LOCACAO DE SISTEMAS DE INFORMATICA PARA O ANO DE 2020. SISTEMAS: PORTAL DA TRANSPARENCIA E SITE OFICIAL DA CAMARA CONF CONTRATO No 111/2018.  PROCESSO 107/18  EDITAL 54/18  PREGAO 47/18  VALOR MENSAL R$ 532,54  IRRF 1,5% NA LIQUIDACAO                                                                                                                                                                      S00000000000000000111142                 2018S0000478070  C
020200200141200000000000000001362280220200000000777685+                                                                                                                                                                     000000000000000000000000000000CONTRIB. PATRONAL AO INSS REF REMUNERACAO DE FEVEREIRO 2020.  VEREADORES                                                                                                                                                                                                                                                                                                                                        X00000000000000000000                    0000X000000000   X
020200200141300000000000000001363280220200000000228302+                                                                                                                                                                     000000000000000000000000000000CONTRIB. PATRONAL AO INSS REF REMUNERACAO DE FEVEREIRO 2020.  CAMARA CCS                                                                                                                                                                                                                                                                                                                                        X00000000000000000000                    0000X000000000   X
020200200147100000000000000001421280220200000000082830+                                                                                                                                                                     000000000000000000000000000000CONTRIB  AO FPSM PARTE PATRONAL 13,68% REF. REMUNERACAO DE FEVEREIRO/2020  CAMARA ESTATUTARIOS                                                                                                                                                                                                                                                                                                                  X00000000000000000000                    0000X000000000   X
020200200148400000000000000001435280220200000000165900+                                                                                                                                                                     000000000000000000000000000000VALE ALIMENTACAO PARA OS SERVIDORES MUNICIPAIS CONF. LEI 2734/17 E DECRETO No 72/17 CONF.  RELATORIO PARA EMPENHO E NF-E 9346 EM ANEXO.   PROC. 144/17 ED. 065/17 PREG. 059/17 CONTRATO 121/2017 REF. DEZ/19                                                                                                                                                                                                    S00000000000000000121134                 2017S0000093460  C
020200200151400000000000000001561050320200000000019262+                                                                                                                                                                     000000000000000000000000000000LIGACOES TELEFONICAS REALIZADAS ATRAVES DA LINHA 3539-1295 DA CAMARA DE VEREADORES NO EXERCICIO DE 2020.   FATURA No  REF. MES.                                                                                                                                                                                                                                                                                 N00000000000000000000                    0000S012815251U  X
020200200006600000000000000001603040320200000000009990+                                                                                                                                                                     000000000000000000000000000000SINAL DE INTERNET COM FIBRA OPTICA JUNTO A CAMARA DE VEREADORES NO EXERCICIO 2020 CONF RD 001/2020 EM ANEXO.  VALOR MENSAL R$ 99,90                                                                                                                                                                                                                                                                             N00000000000000000000                    0000S0000155381  X
020200200174000000000000000001962230320200000000290532+                                                                                                                                                                     000000000000000000000000000000REMUNERACAO REFERENTE AO MES DE MARCO 2020.   CAMARA ESTATUTARIOS   VENCIMENTO                                                                                                                                                                                                                                                                                                                                  X00000000000000000000                    0000X000000000   X
020200200174100000000000000001963230320200000000220617+                                                                                                                                                                     000000000000000000000000000000REMUNERACAO REFERENTE AO MES DE MARCO 2020.   CAMARA ESTATUTARIOS   SALARIO MATERNIDADE                                                                                                                                                                                                                                                                                                                         X00000000000000000000                    0000X000000000   X
020200200174200000000000000001964230320200000000046485+                                                                                                                                                                     000000000000000000000000000000REMUNERACAO REFERENTE AO MES DE MARCO 2020.   CAMARA ESTATUTARIOS   ANUENIOS                                                                                                                                                                                                                                                                                                                                    X00000000000000000000                    0000X000000000   X
020200200174300000000000000001965230320200000000119460+                                                                                                                                                                     000000000000000000000000000000REMUNERACAO REFERENTE AO MES DE MARCO 2020.   CAMARA VEREADORES  REPRESENTACAO                                                                                                                                                                                                                                                                                                                                  X00000000000000000000                    0000X000000000   X
020200200174400000000000000001966230320200000003583800+                                                                                                                                                                     000000000000000000000000000000REMUNERACAO REFERENTE AO MES DE MARCO 2020.   CAMARA VEREADORES  SUBSIDIOS                                                                                                                                                                                                                                                                                                                                      X00000000000000000000                    0000X000000000   X
020200200174500000000000000001967230320200000001087152+                                                                                                                                                                     000000000000000000000000000000REMUNERACAO REFERENTE AO MES DE MARCO 2020.   CAMARA CCS  SALARIO C/C                                                                                                                                                                                                                                                                                                                                           X00000000000000000000                    0000X000000000   X
020200200103800000000000000002643160420200000000075000+                                                                                                                                                                     000000000000000000000000000000ASSESSORIA E CONSULTORIA TECNICA E JURIDICA PRESENCIAL E A DISTANCIA PARA A CAMARA DE VEREADORES NO EXERCICIO DE 2020 CONF CONTRATO No 01/2019 E ADITIVO 001/2019 EM ANEXO.  VIGENCIA 21.02.2021                                                                                                                                                                                                                N00000000000000000000                    0000S0000004790  X
020200200103800000000000000002644160420200000000075000+                                                                                                                                                                     000000000000000000000000000000ASSESSORIA E CONSULTORIA TECNICA E JURIDICA PRESENCIAL E A DISTANCIA PARA A CAMARA DE VEREADORES NO EXERCICIO DE 2020 CONF CONTRATO No 01/2019 E ADITIVO 001/2019 EM ANEXO.  VIGENCIA 21.02.2021                                                                                                                                                                                                                N00000000000000000000                    0000S0000004800  X
020200200196800000000000000002193240320200000000184800+                                                                                                                                                                     000000000000000000000000000000VALE ALIMENTACAO PARA OS SERVIDORES MUNICIPAIS CONF. LEI 2734/17 E DECRETO No 72/17 CONF.  RELATORIO PARA EMPENHO E NF-E 10933 EM ANEXO.   PROC. 144/17 ED. 065/17 PREG. 059/17 CONTRATO 121/2017 REF. DEZ/19                                                                                                                                                                                                   S00000000000000000121134                 2017S0000109330  C
020200200203500000000000000002295300320200000000777685+                                                                                                                                                                     000000000000000000000000000000CONTRIB. PATRONAL AO INSS REF REMUNERACAO DE MARCO 2020.  VEREADORES                                                                                                                                                                                                                                                                                                                                            X00000000000000000000                    0000X000000000   X
020200200203600000000000000002296300320200000000228302+                                                                                                                                                                     000000000000000000000000000000CONTRIB. PATRONAL AO INSS REF REMUNERACAO DE MARCO 2020.  CAMARA CCS                                                                                                                                                                                                                                                                                                                                            X00000000000000000000                    0000X000000000   X
020200200200500000000000000002230240320200000000076284+                                                                                                                                                                     000000000000000000000000000000CONTRIB  AO FPSM PARTE PATRONAL 13,68% REF. REMUNERACAO DE MARCO/2020  CAMARA ESTATUTARIOS                                                                                                                                                                                                                                                                                                                      X00000000000000000000                    0000X000000000   X
020200200006600000000000000002417060420200000000009990+                                                                                                                                                                     000000000000000000000000000000SINAL DE INTERNET COM FIBRA OPTICA JUNTO A CAMARA DE VEREADORES NO EXERCICIO 2020 CONF RD 001/2020 EM ANEXO.  VALOR MENSAL R$ 99,90                                                                                                                                                                                                                                                                             N00000000000000000000                    0000S000017503001X
020200200210300000000000000002487070420200000000016356+                                                                                                                                                                     000000000000000000000000000000LIGACOES TELEFONICAS REALIZADAS ATRAVES DA LINHA 3539-1295 DA CAMARA DE VEREADORES NO EXERCICIO DE 2020.   FATURA No  REF. MES.                                                                                                                                                                                                                                                                                 N00000000000000000000                    0000S013365950U  X
020200200158900000000000000002518080420200000000012000+                                                                                                                                                                     000000000000000000000000000000SERVICOS DE ENCADERNACAO DE DOCUMENTOS DA SECRETARIA DA CAMARA DE VEREADORES. CONF RD 020 EM ANEXO NE 1590.                                                                                                                                                                                                                                                                                                     N00000000000000000000                    0000S0000055110  X
020200200159000000000000000002519080420200000000021530+                                                                                                                                                                     000000000000000000000000000000MATERIAL DE EXPEDIENTE PARA SECRETARIA DA CAMARA DE VEREADORES. CONF RD 020 EM ANEXO.                                                                                                                                                                                                                                                                                                                           N00000000000000000000                    0000S0000055110  X
FINALIZADOR0000000071                                                                                                                                                                                                                                                                                                                                                                                                                                                                                                                                                                                                                                                                                                                                                                                                           
