12292535000162010120183112201823012019CAMARA DE VEREADORES DE INDEPENDENCIA-RS                                        
000005221101000000000101000000000000000100000000000000000000000000201201800000000010500000D000000000000Despesa Orcada para o Exercicio Referente Proj/Atv-Despesa 2001 3190 13 00 00 000 OBRIGAÇÕES PATRONAIS                                                0
000006221100000000000101000000000000000100000000000000000000000000201201800000000010500000C000000000000Despesa Orcada para o Exercicio Referente Proj/Atv-Despesa 2001 3190 13 00 00 000 OBRIGAÇÕES PATRONAIS                                                0
000005221101000000000101000000000000000100000000000000000000000000201201800000000000240000D000000000000Despesa Orcada para o Exercicio Referente Proj/Atv-Despesa 2001 3390 30 00 00 000 MATERIAL DE CONSUMO                                                 0
000006221100000000000101000000000000000100000000000000000000000000201201800000000000240000C000000000000Despesa Orcada para o Exercicio Referente Proj/Atv-Despesa 2001 3390 30 00 00 000 MATERIAL DE CONSUMO                                                 0
000005221101000000000101000000000000000100000000000000000000000000201201800000000000240000D000000000000Despesa Orcada para o Exercicio Referente Proj/Atv-Despesa 2001 3390 36 00 00 000 OUTROS SERVIÇOS DE TERCEIROS - PESSOA FÍSICA                        0
000006221100000000000101000000000000000100000000000000000000000000201201800000000000240000C000000000000Despesa Orcada para o Exercicio Referente Proj/Atv-Despesa 2001 3390 36 00 00 000 OUTROS SERVIÇOS DE TERCEIROS - PESSOA FÍSICA                        0
000005221101000000000101000000000000000100000000000000000000000000201201800000000003100000D000000000000Despesa Orcada para o Exercicio Referente Proj/Atv-Despesa 2001 3390 93 00 00 000 INDENIZACOES E RESTITUICOES                                         0
000006221100000000000101000000000000000100000000000000000000000000201201800000000003100000C000000000000Despesa Orcada para o Exercicio Referente Proj/Atv-Despesa 2001 3390 93 00 00 000 INDENIZACOES E RESTITUICOES                                         0
000005221101000000000101000000000000000100000000000000000000000000201201800000000019000000D000000000000Despesa Orcada para o Exercicio Referente Proj/Atv-Despesa 2002 3190 11 00 00 000 VENCIMENTOS E VANTAGENS FIXAS - PESSOAL CIVIL                       0
000006221100000000000101000000000000000100000000000000000000000000201201800000000019000000C000000000000Despesa Orcada para o Exercicio Referente Proj/Atv-Despesa 2002 3190 11 00 00 000 VENCIMENTOS E VANTAGENS FIXAS - PESSOAL CIVIL                       0
000005221101000000000101000000000000000100000000000000000000000000201201800000000000120000D000000000000Despesa Orcada para o Exercicio Referente Proj/Atv-Despesa 2002 3190 16 00 00 000 OUTRAS DESPESAS VARIÁVEIS - PESSOAL CIVIL                           0
000006221100000000000101000000000000000100000000000000000000000000201201800000000000120000C000000000000Despesa Orcada para o Exercicio Referente Proj/Atv-Despesa 2002 3190 16 00 00 000 OUTRAS DESPESAS VARIÁVEIS - PESSOAL CIVIL                           0
000005221101000000000101000000000000000100000000000000000000000000201201800000000000900000D000000000000Despesa Orcada para o Exercicio Referente Proj/Atv-Despesa 2002 3191 13 00 00 000 OBRIGAÇÕES PATRONAIS                                                0
000006221100000000000101000000000000000100000000000000000000000000201201800000000000900000C000000000000Despesa Orcada para o Exercicio Referente Proj/Atv-Despesa 2002 3191 13 00 00 000 OBRIGAÇÕES PATRONAIS                                                0
000005221101000000000101000000000000000100000000000000000000000000201201800000000003000000D000000000000Despesa Orcada para o Exercicio Referente Proj/Atv-Despesa 2002 3390 30 00 00 000 MATERIAL DE CONSUMO                                                 0
000006221100000000000101000000000000000100000000000000000000000000201201800000000003000000C000000000000Despesa Orcada para o Exercicio Referente Proj/Atv-Despesa 2002 3390 30 00 00 000 MATERIAL DE CONSUMO                                                 0
000005221101000000000101000000000000000100000000000000000000000000201201800000000002400000D000000000000Despesa Orcada para o Exercicio Referente Proj/Atv-Despesa 2002 3390 35 00 00 000 SERVICOS DE CONSULTORIA                                             0
000006221100000000000101000000000000000100000000000000000000000000201201800000000002400000C000000000000Despesa Orcada para o Exercicio Referente Proj/Atv-Despesa 2002 3390 35 00 00 000 SERVICOS DE CONSULTORIA                                             0
000005221101000000000101000000000000000100000000000000000000000000201201800000000000120000D000000000000Despesa Orcada para o Exercicio Referente Proj/Atv-Despesa 2002 3190 94 00 00 000 INDENIZAÇÕES E RESTITUIÇÕES TRABALHISTAS                            0
000006221100000000000101000000000000000100000000000000000000000000201201800000000000120000C000000000000Despesa Orcada para o Exercicio Referente Proj/Atv-Despesa 2002 3190 94 00 00 000 INDENIZAÇÕES E RESTITUIÇÕES TRABALHISTAS                            0
000005221101000000000101000000000000000100000000000000000000000000201201800000000000600000D000000000000Despesa Orcada para o Exercicio Referente Proj/Atv-Despesa 2002 3390 36 00 00 000 OUTROS SERVIÇOS DE TERCEIROS - PESSOA FÍSICA                        0
000006221100000000000101000000000000000100000000000000000000000000201201800000000000600000C000000000000Despesa Orcada para o Exercicio Referente Proj/Atv-Despesa 2002 3390 36 00 00 000 OUTROS SERVIÇOS DE TERCEIROS - PESSOA FÍSICA                        0
000005221101000000000101000000000000000100000000000000000000000000201201800000000000600000D000000000000Despesa Orcada para o Exercicio Referente Proj/Atv-Despesa 2002 3390 93 00 00 000 INDENIZACOES E RESTITUICOES                                         0
000006221100000000000101000000000000000100000000000000000000000000201201800000000000600000C000000000000Despesa Orcada para o Exercicio Referente Proj/Atv-Despesa 2002 3390 93 00 00 000 INDENIZACOES E RESTITUICOES                                         0
000005221101000000000101000000000000000100000000000000000000000000201201800000000009000000D000000000000Despesa Orcada para o Exercicio Referente Proj/Atv-Despesa 2001 3390 14 00 00 000 DIÁRIAS -  CIVIL                                                    0
000006221100000000000101000000000000000100000000000000000000000000201201800000000009000000C000000000000Despesa Orcada para o Exercicio Referente Proj/Atv-Despesa 2001 3390 14 00 00 000 DIÁRIAS -  CIVIL                                                    0
000005221101000000000101000000000000000100000000000000000000000000201201800000000000500000D000000000000Despesa Orcada para o Exercicio Referente Proj/Atv-Despesa 2001 3390 33 00 00 000 PASSAGENS E DESPESAS COM LOCOMOÇÃO                                  0
000006221100000000000101000000000000000100000000000000000000000000201201800000000000500000C000000000000Despesa Orcada para o Exercicio Referente Proj/Atv-Despesa 2001 3390 33 00 00 000 PASSAGENS E DESPESAS COM LOCOMOÇÃO                                  0
000005221101000000000101000000000000000100000000000000000000000000201201800000000003600000D000000000000Despesa Orcada para o Exercicio Referente Proj/Atv-Despesa 2001 3390 39 00 00 000 OUTROS SERVIÇOS DE TERCEIROS - PESSOA JURÍDICA                      0
000006221100000000000101000000000000000100000000000000000000000000201201800000000003600000C000000000000Despesa Orcada para o Exercicio Referente Proj/Atv-Despesa 2001 3390 39 00 00 000 OUTROS SERVIÇOS DE TERCEIROS - PESSOA JURÍDICA                      0
000005221101000000000101000000000000000100000000000000000000000000201201800000000002600000D000000000000Despesa Orcada para o Exercicio Referente Proj/Atv-Despesa 2002 3190 13 00 00 000 OBRIGAÇÕES PATRONAIS                                                0
000006221100000000000101000000000000000100000000000000000000000000201201800000000002600000C000000000000Despesa Orcada para o Exercicio Referente Proj/Atv-Despesa 2002 3190 13 00 00 000 OBRIGAÇÕES PATRONAIS                                                0
000005221101000000000101000000000000000100000000000000000000000000201201800000000000600000D000000000000Despesa Orcada para o Exercicio Referente Proj/Atv-Despesa 2002 3390 33 00 00 000 PASSAGENS E DESPESAS COM LOCOMOÇÃO                                  0
000006221100000000000101000000000000000100000000000000000000000000201201800000000000600000C000000000000Despesa Orcada para o Exercicio Referente Proj/Atv-Despesa 2002 3390 33 00 00 000 PASSAGENS E DESPESAS COM LOCOMOÇÃO                                  0
000005221101000000000101000000000000000100000000000000000000000000201201800000000001500000D000000000000Despesa Orcada para o Exercicio Referente Proj/Atv-Despesa 2002 3390 46 00 00 000 AUXÍLIO-ALIMENTAÇÃO                                                 0
000006221100000000000101000000000000000100000000000000000000000000201201800000000001500000C000000000000Despesa Orcada para o Exercicio Referente Proj/Atv-Despesa 2002 3390 46 00 00 000 AUXÍLIO-ALIMENTAÇÃO                                                 0
000005221101000000000101000000000000000100000000000000000000000000201201800000000002400000D000000000000Despesa Orcada para o Exercicio Referente Proj/Atv-Despesa 2001 4490 52 00 00 000 EQUIPAMENTOS E MATERIAL PERMANENTE                                  0
000006221100000000000101000000000000000100000000000000000000000000201201800000000002400000C000000000000Despesa Orcada para o Exercicio Referente Proj/Atv-Despesa 2001 4490 52 00 00 000 EQUIPAMENTOS E MATERIAL PERMANENTE                                  0
000005221101000000000101000000000000000100000000000000000000000000201201800000000003600000D000000000000Despesa Orcada para o Exercicio Referente Proj/Atv-Despesa 2002 3390 14 00 00 000 DIÁRIAS -  CIVIL                                                    0
000006221100000000000101000000000000000100000000000000000000000000201201800000000003600000C000000000000Despesa Orcada para o Exercicio Referente Proj/Atv-Despesa 2002 3390 14 00 00 000 DIÁRIAS -  CIVIL                                                    0
000005221101000000000101000000000000000100000000000000000000000000201201800000000006000000D000000000000Despesa Orcada para o Exercicio Referente Proj/Atv-Despesa 2002 3390 39 00 00 000 OUTROS SERVIÇOS DE TERCEIROS - PESSOA JURÍDICA                      0
000006221100000000000101000000000000000100000000000000000000000000201201800000000006000000C000000000000Despesa Orcada para o Exercicio Referente Proj/Atv-Despesa 2002 3390 39 00 00 000 OUTROS SERVIÇOS DE TERCEIROS - PESSOA JURÍDICA                      0
000005221101000000000101000000000000000100000000000000000000000000201201800000000006000000D000000000000Despesa Orcada para o Exercicio Referente Proj/Atv-Despesa 2002 4490 52 00 00 000 EQUIPAMENTOS E MATERIAL PERMANENTE                                  0
000006221100000000000101000000000000000100000000000000000000000000201201800000000006000000C000000000000Despesa Orcada para o Exercicio Referente Proj/Atv-Despesa 2002 4490 52 00 00 000 EQUIPAMENTOS E MATERIAL PERMANENTE                                  0
000005221101000000000101000000000000000100000000000000000000000000201201800000000045500000D000000000000Despesa Orcada para o Exercicio Referente Proj/Atv-Despesa 2001 3190 11 00 00 000 VENCIMENTOS E VANTAGENS FIXAS - PESSOAL CIVIL                       0
000006221100000000000101000000000000000100000000000000000000000000201201800000000045500000C000000000000Despesa Orcada para o Exercicio Referente Proj/Atv-Despesa 2001 3190 11 00 00 000 VENCIMENTOS E VANTAGENS FIXAS - PESSOAL CIVIL                       0
000005221101000000000101000000000000000100000000000000000000000000201201800000000000288000D000000000000Despesa Orcada para o Exercicio Referente Proj/Atv-Despesa 2002 3190 08 99 04 000 CONTRIBUICAO DA ENTIDADE PARA O ATENDIMENTO A SAUDE DO SERVIDOR     0
000006221100000000000101000000000000000100000000000000000000000000201201800000000000288000C000000000000Despesa Orcada para o Exercicio Referente Proj/Atv-Despesa 2002 3190 08 99 04 000 CONTRIBUICAO DA ENTIDADE PARA O ATENDIMENTO A SAUDE DO SERVIDOR     0
000002371101000000000101000000000000000100000000000000000000000000201201800000000002095874C000000000000Encerramento Exercicio Transferência entre contas                                                                                                     0
000002371102000000000101000000000000000100000000000000000000000000201201800000000002095874D000000000000Encerramento Exercicio Transferência entre contas                                                                                                     0
000002371103000000000101000000000000000100000000000000000000000000201201800000000004257569D000000000000Encerramento Exercicio Transferência entre contas                                                                                                     0
000002371102000000000101000000000000000100000000000000000000000000201201800000000004257569C000000000000Encerramento Exercicio Transferência entre contas                                                                                                     0
000006221100000000000101000000000000000200000000000002018020000200201201800000000000320000D000000000000Empenhos efetuados n/data Referente empenho 000020/2018 - RIO GRANDE ENERGIA - RGE                                                                    1
000006221301000000000101000000000000000200000000000002018020000200201201800000000000320000C000000000000Empenhos efetuados n/data Referente empenho 000020/2018 - RIO GRANDE ENERGIA - RGE                                                                    1
000008211199990000000101000000000000000200000000000002018020000200201201800000000000320000D000000000000Empenhos efetuados n/data Referente empenho 000020/2018 - RIO GRANDE ENERGIA - RGE                                                                    1
000006229201010000000101000000000000000200000000000002018020000200201201800000000000320000C000000000000Empenhos efetuados n/data Referente empenho 000020/2018 - RIO GRANDE ENERGIA - RGE                                                                    1
000008211200010000000101000000000000000200000000000002018020000200201201800000000000320000C000000000000Empenhos efetuados n/data Referente empenho 000020/2018 - RIO GRANDE ENERGIA - RGE                                                                    1
000005229201010000000101000000000000000200000000000002018020000200201201800000000000320000D000000000000Empenhos efetuados n/data Referente empenho 000020/2018 - RIO GRANDE ENERGIA - RGE                                                                    1
000006221100000000000101000000000000000300000000000002018020000210201201800000000000020000D000000000000Empenhos efetuados n/data Referente empenho 000021/2018 - CORSAN - COMP. RIOGRANDENSE DE SANEAMENTO                                                   1
000006221301000000000101000000000000000300000000000002018020000210201201800000000000020000C000000000000Empenhos efetuados n/data Referente empenho 000021/2018 - CORSAN - COMP. RIOGRANDENSE DE SANEAMENTO                                                   1
000008211199990000000101000000000000000300000000000002018020000210201201800000000000020000D000000000000Empenhos efetuados n/data Referente empenho 000021/2018 - CORSAN - COMP. RIOGRANDENSE DE SANEAMENTO                                                   1
000006229201010000000101000000000000000300000000000002018020000210201201800000000000020000C000000000000Empenhos efetuados n/data Referente empenho 000021/2018 - CORSAN - COMP. RIOGRANDENSE DE SANEAMENTO                                                   1
000008211200010000000101000000000000000300000000000002018020000210201201800000000000020000C000000000000Empenhos efetuados n/data Referente empenho 000021/2018 - CORSAN - COMP. RIOGRANDENSE DE SANEAMENTO                                                   1
000005229201010000000101000000000000000300000000000002018020000210201201800000000000020000D000000000000Empenhos efetuados n/data Referente empenho 000021/2018 - CORSAN - COMP. RIOGRANDENSE DE SANEAMENTO                                                   1
000006221100000000000101000000000000000400000000000002018020000580201201800000000000400000D000000000000Empenhos efetuados n/data Referente empenho 000058/2018 - OI - BRASIL TELECOM S.A- (51-074-6918)net                                                   1
000006221301000000000101000000000000000400000000000002018020000580201201800000000000400000C000000000000Empenhos efetuados n/data Referente empenho 000058/2018 - OI - BRASIL TELECOM S.A- (51-074-6918)net                                                   1
000008211199990000000101000000000000000400000000000002018020000580201201800000000000400000D000000000000Empenhos efetuados n/data Referente empenho 000058/2018 - OI - BRASIL TELECOM S.A- (51-074-6918)net                                                   1
000006229201010000000101000000000000000400000000000002018020000580201201800000000000400000C000000000000Empenhos efetuados n/data Referente empenho 000058/2018 - OI - BRASIL TELECOM S.A- (51-074-6918)net                                                   1
000008211200010000000101000000000000000400000000000002018020000580201201800000000000400000C000000000000Empenhos efetuados n/data Referente empenho 000058/2018 - OI - BRASIL TELECOM S.A- (51-074-6918)net                                                   1
000005229201010000000101000000000000000400000000000002018020000580201201800000000000400000D000000000000Empenhos efetuados n/data Referente empenho 000058/2018 - OI - BRASIL TELECOM S.A- (51-074-6918)net                                                   1
000006221100000000000101000000000000000500000000000002018020001431001201800000000000036000D000000000000Empenhos efetuados n/data Referente empenho 000143/2018 - WNL -PRODUTOS E SOLUÇÕES EM INFORMATICA LTDA                                                1
000006221301000000000101000000000000000500000000000002018020001431001201800000000000036000C000000000000Empenhos efetuados n/data Referente empenho 000143/2018 - WNL -PRODUTOS E SOLUÇÕES EM INFORMATICA LTDA                                                1
000008211199990000000101000000000000000500000000000002018020001431001201800000000000036000D000000000000Empenhos efetuados n/data Referente empenho 000143/2018 - WNL -PRODUTOS E SOLUÇÕES EM INFORMATICA LTDA                                                1
000006229201010000000101000000000000000500000000000002018020001431001201800000000000036000C000000000000Empenhos efetuados n/data Referente empenho 000143/2018 - WNL -PRODUTOS E SOLUÇÕES EM INFORMATICA LTDA                                                1
000008211200010000000101000000000000000500000000000002018020001431001201800000000000036000C000000000000Empenhos efetuados n/data Referente empenho 000143/2018 - WNL -PRODUTOS E SOLUÇÕES EM INFORMATICA LTDA                                                1
000005229201010000000101000000000000000500000000000002018020001431001201800000000000036000D000000000000Empenhos efetuados n/data Referente empenho 000143/2018 - WNL -PRODUTOS E SOLUÇÕES EM INFORMATICA LTDA                                                1
000006221100000000000101000000000000000600000000000002018020001441001201800000000000166000D000000000000Empenhos efetuados n/data Referente empenho 000144/2018 - ABASE SISTEMAS E SOLUÇOES LTDA                                                              1
000006221301000000000101000000000000000600000000000002018020001441001201800000000000166000C000000000000Empenhos efetuados n/data Referente empenho 000144/2018 - ABASE SISTEMAS E SOLUÇOES LTDA                                                              1
000008211199990000000101000000000000000600000000000002018020001441001201800000000000166000D000000000000Empenhos efetuados n/data Referente empenho 000144/2018 - ABASE SISTEMAS E SOLUÇOES LTDA                                                              1
000006229201010000000101000000000000000600000000000002018020001441001201800000000000166000C000000000000Empenhos efetuados n/data Referente empenho 000144/2018 - ABASE SISTEMAS E SOLUÇOES LTDA                                                              1
000008211200010000000101000000000000000600000000000002018020001441001201800000000000166000C000000000000Empenhos efetuados n/data Referente empenho 000144/2018 - ABASE SISTEMAS E SOLUÇOES LTDA                                                              1
000005229201010000000101000000000000000600000000000002018020001441001201800000000000166000D000000000000Empenhos efetuados n/data Referente empenho 000144/2018 - ABASE SISTEMAS E SOLUÇOES LTDA                                                              1
000006221100000000000101000000000000000700000000000002018020001451001201800000000000037400D000000000000Empenhos efetuados n/data Referente empenho 000145/2018 - AR CONTADORES CERTIFICAÇÃO DIGITAL LTDA - ME                                                1
000006221301000000000101000000000000000700000000000002018020001451001201800000000000037400C000000000000Empenhos efetuados n/data Referente empenho 000145/2018 - AR CONTADORES CERTIFICAÇÃO DIGITAL LTDA - ME                                                1
000008211199990000000101000000000000000700000000000002018020001451001201800000000000037400D000000000000Empenhos efetuados n/data Referente empenho 000145/2018 - AR CONTADORES CERTIFICAÇÃO DIGITAL LTDA - ME                                                1
000006229201010000000101000000000000000700000000000002018020001451001201800000000000037400C000000000000Empenhos efetuados n/data Referente empenho 000145/2018 - AR CONTADORES CERTIFICAÇÃO DIGITAL LTDA - ME                                                1
000008211200010000000101000000000000000700000000000002018020001451001201800000000000037400C000000000000Empenhos efetuados n/data Referente empenho 000145/2018 - AR CONTADORES CERTIFICAÇÃO DIGITAL LTDA - ME                                                1
000005229201010000000101000000000000000700000000000002018020001451001201800000000000037400D000000000000Empenhos efetuados n/data Referente empenho 000145/2018 - AR CONTADORES CERTIFICAÇÃO DIGITAL LTDA - ME                                                1
000002131101010100000101000000000000000800000000000002018020001451001201800000000000037400C000000000000Liquidacao de Empenhos n/data Liquidação empenho 000145/2018 - AR CONTADORES CERTIFICAÇÃO DIGITAL LTDA - ME CERTIFICADO  DIGITAL -                    1
000006221301000000000101000000000000000800000000000002018020001451001201800000000000037400D000000000000Liquidacao de Empenhos n/data Liquidação empenho 000145/2018 - AR CONTADORES CERTIFICAÇÃO DIGITAL LTDA - ME CERTIFICADO  DIGITAL -                    1
000006221303000000000101000000000000000800000000000002018020001451001201800000000000037400C000000000000Liquidacao de Empenhos n/data Liquidação empenho 000145/2018 - AR CONTADORES CERTIFICAÇÃO DIGITAL LTDA - ME CERTIFICADO  DIGITAL -                    1
000008211399990000000101000000000000000800000000000002018020001451001201800000000000037400C000000000000Liquidacao de Empenhos n/data Liquidação empenho 000145/2018 - AR CONTADORES CERTIFICAÇÃO DIGITAL LTDA - ME CERTIFICADO  DIGITAL -                    1
000006229201010000000101000000000000000800000000000002018020001451001201800000000000037400D000000000000Liquidacao de Empenhos n/data Liquidação empenho 000145/2018 - AR CONTADORES CERTIFICAÇÃO DIGITAL LTDA - ME CERTIFICADO  DIGITAL -                    1
000006229201030000000101000000000000000800000000000002018020001451001201800000000000037400C000000000000Liquidacao de Empenhos n/data Liquidação empenho 000145/2018 - AR CONTADORES CERTIFICAÇÃO DIGITAL LTDA - ME CERTIFICADO  DIGITAL -                    1
000008211200010000000101000000000000000800000000000002018020001451001201800000000000037400D000000000000Liquidacao de Empenhos n/data Liquidação empenho 000145/2018 - AR CONTADORES CERTIFICAÇÃO DIGITAL LTDA - ME CERTIFICADO  DIGITAL -                    1
000003311116000000000101000000000000000800000000000002018020001451001201800000000000037400D000000000000Liquidacao de Empenhos n/data Liquidação empenho 000145/2018 - AR CONTADORES CERTIFICAÇÃO DIGITAL LTDA - ME CERTIFICADO  DIGITAL -                    1
000004511202010100000101000000000000000900000000000000000000000001501201800000000010000000C000000000000TRANSFERENCIA DUODECIMO DE JANEIRO/2018                                                                                                               0
000001111119120500000101000000000000000900000000000000000000000001501201800000000010000000D000000000000TRANSFERENCIA DUODECIMO DE JANEIRO/2018                                                                                                               0
000007211199990000000101000000000000000900000000000000000000000001501201800000000010000000D000000000000TRANSFERENCIA DUODECIMO DE JANEIRO/2018                                                                                                               0
000008211199990000000101000000000000000900000000000000000000000001501201800000000010000000C000000000000TRANSFERENCIA DUODECIMO DE JANEIRO/2018                                                                                                               0
000001111119120500000101000000000000000900000000000000000000000001501201800000000009944921C000000000000APLICACAO VALOR APLICADO                                                                                                                              0
000001111150032200000101000000000000000900000000000000000000000001501201800000000009944921D000000000000APLICACAO VALOR APLICADO                                                                                                                              0
000002131101010100000101000000000000001000000000000002018020000581501201800000000000017679C000000000000Liquidacao de Empenhos n/data Liquidação empenho 000058/2018 - OI - BRASIL TELECOM S.A- (51-074-6918)net LIGAÇÕES  TELEFONICAS  RE                    1
000006221301000000000101000000000000001000000000000002018020000581501201800000000000017679D000000000000Liquidacao de Empenhos n/data Liquidação empenho 000058/2018 - OI - BRASIL TELECOM S.A- (51-074-6918)net LIGAÇÕES  TELEFONICAS  RE                    1
000006221303000000000101000000000000001000000000000002018020000581501201800000000000017679C000000000000Liquidacao de Empenhos n/data Liquidação empenho 000058/2018 - OI - BRASIL TELECOM S.A- (51-074-6918)net LIGAÇÕES  TELEFONICAS  RE                    1
000008211399990000000101000000000000001000000000000002018020000581501201800000000000017679C000000000000Liquidacao de Empenhos n/data Liquidação empenho 000058/2018 - OI - BRASIL TELECOM S.A- (51-074-6918)net LIGAÇÕES  TELEFONICAS  RE                    1
000006229201010000000101000000000000001000000000000002018020000581501201800000000000017679D000000000000Liquidacao de Empenhos n/data Liquidação empenho 000058/2018 - OI - BRASIL TELECOM S.A- (51-074-6918)net LIGAÇÕES  TELEFONICAS  RE                    1
000006229201030000000101000000000000001000000000000002018020000581501201800000000000017679C000000000000Liquidacao de Empenhos n/data Liquidação empenho 000058/2018 - OI - BRASIL TELECOM S.A- (51-074-6918)net LIGAÇÕES  TELEFONICAS  RE                    1
000008211200010000000101000000000000001000000000000002018020000581501201800000000000017679D000000000000Liquidacao de Empenhos n/data Liquidação empenho 000058/2018 - OI - BRASIL TELECOM S.A- (51-074-6918)net LIGAÇÕES  TELEFONICAS  RE                    1
000003323104000000000101000000000000001000000000000002018020000581501201800000000000017679D000000000000Liquidacao de Empenhos n/data Liquidação empenho 000058/2018 - OI - BRASIL TELECOM S.A- (51-074-6918)net LIGAÇÕES  TELEFONICAS  RE                    1
000002131101010100000101000000000000001100000000000002018020001451501201800000000000037400D000000000000Pagamento de Empenho Referente pagamento do empenho nro 000145/2018 - AR CONTADORES CERTIFICAÇÃO DIGITAL LTDA - ME                                    1
000001111119120500000101000000000000001100000000000002018020001451501201800000000000037400C000000000000Pagamento de Empenho Referente pagamento do empenho nro 000145/2018 - AR CONTADORES CERTIFICAÇÃO DIGITAL LTDA - ME - BANRISUL C/CAMARA TITULO = 374,001
000006221303000000000101000000000000001100000000000002018020001451501201800000000000037400D000000000000Pagamento de Empenho Referente pagamento do empenho nro 000145/2018 - AR CONTADORES CERTIFICAÇÃO DIGITAL LTDA - ME                                    1
000006221304000000000101000000000000001100000000000002018020001451501201800000000000037400C000000000000Pagamento de Empenho Referente pagamento do empenho nro 000145/2018 - AR CONTADORES CERTIFICAÇÃO DIGITAL LTDA - ME                                    1
000008211399990000000101000000000000001100000000000002018020001451501201800000000000037400D000000000000Pagamento de Empenho Referente pagamento do empenho nro 000145/2018 - AR CONTADORES CERTIFICAÇÃO DIGITAL LTDA - ME                                    1
000006229201030000000101000000000000001100000000000002018020001451501201800000000000037400D000000000000Pagamento de Empenho Referente pagamento do empenho nro 000145/2018 - AR CONTADORES CERTIFICAÇÃO DIGITAL LTDA - ME                                    1
000006229201040000000101000000000000001100000000000002018020001451501201800000000000037400C000000000000Pagamento de Empenho Referente pagamento do empenho nro 000145/2018 - AR CONTADORES CERTIFICAÇÃO DIGITAL LTDA - ME                                    1
000008211400010000000101000000000000001100000000000002018020001451501201800000000000037400C000000000000Pagamento de Empenho Referente pagamento do empenho nro 000145/2018 - AR CONTADORES CERTIFICAÇÃO DIGITAL LTDA - ME                                    1
000002131101010100000101000000000000001200000000000002018020000581501201800000000000017679D000000000000Pagamento de Empenho Referente pagamento do empenho nro 000058/2018 - OI - BRASIL TELECOM S.A- (51-074-6918)net                                       1
000001111119120500000101000000000000001200000000000002018020000581501201800000000000017679C000000000000Pagamento de Empenho Referente pagamento do empenho nro 000058/2018 - OI - BRASIL TELECOM S.A- (51-074-6918)net - BANRISUL C/CAMARA TRANSF. = 176,79  1
000006221303000000000101000000000000001200000000000002018020000581501201800000000000017679D000000000000Pagamento de Empenho Referente pagamento do empenho nro 000058/2018 - OI - BRASIL TELECOM S.A- (51-074-6918)net                                       1
000006221304000000000101000000000000001200000000000002018020000581501201800000000000017679C000000000000Pagamento de Empenho Referente pagamento do empenho nro 000058/2018 - OI - BRASIL TELECOM S.A- (51-074-6918)net                                       1
000008211399990000000101000000000000001200000000000002018020000581501201800000000000017679D000000000000Pagamento de Empenho Referente pagamento do empenho nro 000058/2018 - OI - BRASIL TELECOM S.A- (51-074-6918)net                                       1
000006229201030000000101000000000000001200000000000002018020000581501201800000000000017679D000000000000Pagamento de Empenho Referente pagamento do empenho nro 000058/2018 - OI - BRASIL TELECOM S.A- (51-074-6918)net                                       1
000006229201040000000101000000000000001200000000000002018020000581501201800000000000017679C000000000000Pagamento de Empenho Referente pagamento do empenho nro 000058/2018 - OI - BRASIL TELECOM S.A- (51-074-6918)net                                       1
000008211400010000000101000000000000001200000000000002018020000581501201800000000000017679C000000000000Pagamento de Empenho Referente pagamento do empenho nro 000058/2018 - OI - BRASIL TELECOM S.A- (51-074-6918)net                                       1
000006221100000000000101000000000000001300000000000002018020003262201201800000000000111600D000000000000Empenhos efetuados n/data Referente empenho 000326/2018 - FOLHA DE PAGTO - VEREADORES                                                                 1
000006221301000000000101000000000000001300000000000002018020003262201201800000000000111600C000000000000Empenhos efetuados n/data Referente empenho 000326/2018 - FOLHA DE PAGTO - VEREADORES                                                                 1
000008211199990000000101000000000000001300000000000002018020003262201201800000000000111600D000000000000Empenhos efetuados n/data Referente empenho 000326/2018 - FOLHA DE PAGTO - VEREADORES                                                                 1
000006229201010000000101000000000000001300000000000002018020003262201201800000000000111600C000000000000Empenhos efetuados n/data Referente empenho 000326/2018 - FOLHA DE PAGTO - VEREADORES                                                                 1
000008211200010000000101000000000000001300000000000002018020003262201201800000000000111600C000000000000Empenhos efetuados n/data Referente empenho 000326/2018 - FOLHA DE PAGTO - VEREADORES                                                                 1
000005229201010000000101000000000000001300000000000002018020003262201201800000000000111600D000000000000Empenhos efetuados n/data Referente empenho 000326/2018 - FOLHA DE PAGTO - VEREADORES                                                                 1
000006221100000000000101000000000000001400000000000002018020003272201201800000000003348000D000000000000Empenhos efetuados n/data Referente empenho 000327/2018 - FOLHA DE PAGTO - VEREADORES                                                                 1
000006221301000000000101000000000000001400000000000002018020003272201201800000000003348000C000000000000Empenhos efetuados n/data Referente empenho 000327/2018 - FOLHA DE PAGTO - VEREADORES                                                                 1
000008211199990000000101000000000000001400000000000002018020003272201201800000000003348000D000000000000Empenhos efetuados n/data Referente empenho 000327/2018 - FOLHA DE PAGTO - VEREADORES                                                                 1
000006229201010000000101000000000000001400000000000002018020003272201201800000000003348000C000000000000Empenhos efetuados n/data Referente empenho 000327/2018 - FOLHA DE PAGTO - VEREADORES                                                                 1
000008211200010000000101000000000000001400000000000002018020003272201201800000000003348000C000000000000Empenhos efetuados n/data Referente empenho 000327/2018 - FOLHA DE PAGTO - VEREADORES                                                                 1
000005229201010000000101000000000000001400000000000002018020003272201201800000000003348000D000000000000Empenhos efetuados n/data Referente empenho 000327/2018 - FOLHA DE PAGTO - VEREADORES                                                                 1
000006221100000000000101000000000000001500000000000002018020003282201201800000000000087627D000000000000Empenhos efetuados n/data Referente empenho 000328/2018 - FOLHA  PAG SERVIDORES DA CÂMARA DE VEREADORES                                               1
000006221301000000000101000000000000001500000000000002018020003282201201800000000000087627C000000000000Empenhos efetuados n/data Referente empenho 000328/2018 - FOLHA  PAG SERVIDORES DA CÂMARA DE VEREADORES                                               1
000008211199990000000101000000000000001500000000000002018020003282201201800000000000087627D000000000000Empenhos efetuados n/data Referente empenho 000328/2018 - FOLHA  PAG SERVIDORES DA CÂMARA DE VEREADORES                                               1
000006229201010000000101000000000000001500000000000002018020003282201201800000000000087627C000000000000Empenhos efetuados n/data Referente empenho 000328/2018 - FOLHA  PAG SERVIDORES DA CÂMARA DE VEREADORES                                               1
000008211200010000000101000000000000001500000000000002018020003282201201800000000000087627C000000000000Empenhos efetuados n/data Referente empenho 000328/2018 - FOLHA  PAG SERVIDORES DA CÂMARA DE VEREADORES                                               1
000005229201010000000101000000000000001500000000000002018020003282201201800000000000087627D000000000000Empenhos efetuados n/data Referente empenho 000328/2018 - FOLHA  PAG SERVIDORES DA CÂMARA DE VEREADORES                                               1
000006221100000000000101000000000000001600000000000002018020003292201201800000000000999806D000000000000Empenhos efetuados n/data Referente empenho 000329/2018 - FOLHA  PAG SERVIDORES DA CÂMARA DE VEREADORES                                               1
000006221301000000000101000000000000001600000000000002018020003292201201800000000000999806C000000000000Empenhos efetuados n/data Referente empenho 000329/2018 - FOLHA  PAG SERVIDORES DA CÂMARA DE VEREADORES                                               1
000008211199990000000101000000000000001600000000000002018020003292201201800000000000999806D000000000000Empenhos efetuados n/data Referente empenho 000329/2018 - FOLHA  PAG SERVIDORES DA CÂMARA DE VEREADORES                                               1
000006229201010000000101000000000000001600000000000002018020003292201201800000000000999806C000000000000Empenhos efetuados n/data Referente empenho 000329/2018 - FOLHA  PAG SERVIDORES DA CÂMARA DE VEREADORES                                               1
000008211200010000000101000000000000001600000000000002018020003292201201800000000000999806C000000000000Empenhos efetuados n/data Referente empenho 000329/2018 - FOLHA  PAG SERVIDORES DA CÂMARA DE VEREADORES                                               1
000005229201010000000101000000000000001600000000000002018020003292201201800000000000999806D000000000000Empenhos efetuados n/data Referente empenho 000329/2018 - FOLHA  PAG SERVIDORES DA CÂMARA DE VEREADORES                                               1
000006221100000000000101000000000000001700000000000002018020003302201201800000000000435259D000000000000Empenhos efetuados n/data Referente empenho 000330/2018 - FOLHA  PAG SERVIDORES DA CÂMARA DE VEREADORES                                               1
000006221301000000000101000000000000001700000000000002018020003302201201800000000000435259C000000000000Empenhos efetuados n/data Referente empenho 000330/2018 - FOLHA  PAG SERVIDORES DA CÂMARA DE VEREADORES                                               1
000008211199990000000101000000000000001700000000000002018020003302201201800000000000435259D000000000000Empenhos efetuados n/data Referente empenho 000330/2018 - FOLHA  PAG SERVIDORES DA CÂMARA DE VEREADORES                                               1
000006229201010000000101000000000000001700000000000002018020003302201201800000000000435259C000000000000Empenhos efetuados n/data Referente empenho 000330/2018 - FOLHA  PAG SERVIDORES DA CÂMARA DE VEREADORES                                               1
000008211200010000000101000000000000001700000000000002018020003302201201800000000000435259C000000000000Empenhos efetuados n/data Referente empenho 000330/2018 - FOLHA  PAG SERVIDORES DA CÂMARA DE VEREADORES                                               1
000005229201010000000101000000000000001700000000000002018020003302201201800000000000435259D000000000000Empenhos efetuados n/data Referente empenho 000330/2018 - FOLHA  PAG SERVIDORES DA CÂMARA DE VEREADORES                                               1
000006221100000000000101000000000000001800000000000002018020003312201201800000000000189090D000000000000Empenhos efetuados n/data Referente empenho 000331/2018 - FOLHA  PAG SERVIDORES DA CÂMARA DE VEREADORES                                               1
000006221301000000000101000000000000001800000000000002018020003312201201800000000000189090C000000000000Empenhos efetuados n/data Referente empenho 000331/2018 - FOLHA  PAG SERVIDORES DA CÂMARA DE VEREADORES                                               1
000008211199990000000101000000000000001800000000000002018020003312201201800000000000189090D000000000000Empenhos efetuados n/data Referente empenho 000331/2018 - FOLHA  PAG SERVIDORES DA CÂMARA DE VEREADORES                                               1
000006229201010000000101000000000000001800000000000002018020003312201201800000000000189090C000000000000Empenhos efetuados n/data Referente empenho 000331/2018 - FOLHA  PAG SERVIDORES DA CÂMARA DE VEREADORES                                               1
000008211200010000000101000000000000001800000000000002018020003312201201800000000000189090C000000000000Empenhos efetuados n/data Referente empenho 000331/2018 - FOLHA  PAG SERVIDORES DA CÂMARA DE VEREADORES                                               1
000005229201010000000101000000000000001800000000000002018020003312201201800000000000189090D000000000000Empenhos efetuados n/data Referente empenho 000331/2018 - FOLHA  PAG SERVIDORES DA CÂMARA DE VEREADORES                                               1
000006221100000000000101000000000000001900000000000002018020003322201201800000000000045810D000000000000Empenhos efetuados n/data Referente empenho 000332/2018 - FOLHA  PAG SERVIDORES DA CÂMARA DE VEREADORES                                               1
000006221301000000000101000000000000001900000000000002018020003322201201800000000000045810C000000000000Empenhos efetuados n/data Referente empenho 000332/2018 - FOLHA  PAG SERVIDORES DA CÂMARA DE VEREADORES                                               1
000008211199990000000101000000000000001900000000000002018020003322201201800000000000045810D000000000000Empenhos efetuados n/data Referente empenho 000332/2018 - FOLHA  PAG SERVIDORES DA CÂMARA DE VEREADORES                                               1
000006229201010000000101000000000000001900000000000002018020003322201201800000000000045810C000000000000Empenhos efetuados n/data Referente empenho 000332/2018 - FOLHA  PAG SERVIDORES DA CÂMARA DE VEREADORES                                               1
000008211200010000000101000000000000001900000000000002018020003322201201800000000000045810C000000000000Empenhos efetuados n/data Referente empenho 000332/2018 - FOLHA  PAG SERVIDORES DA CÂMARA DE VEREADORES                                               1
000005229201010000000101000000000000001900000000000002018020003322201201800000000000045810D000000000000Empenhos efetuados n/data Referente empenho 000332/2018 - FOLHA  PAG SERVIDORES DA CÂMARA DE VEREADORES                                               1
000002131101010100000101000000000000002000000000000002018020003262201201800000000000111600C000000000000Liquidacao de Empenhos n/data Liquidação empenho 000326/2018 - FOLHA DE PAGTO - VEREADORES REMUNERAÇÃO REFERENTE AO MÊS DE JANEIRO                    1
000006221301000000000101000000000000002000000000000002018020003262201201800000000000111600D000000000000Liquidacao de Empenhos n/data Liquidação empenho 000326/2018 - FOLHA DE PAGTO - VEREADORES REMUNERAÇÃO REFERENTE AO MÊS DE JANEIRO                    1
000006221303000000000101000000000000002000000000000002018020003262201201800000000000111600C000000000000Liquidacao de Empenhos n/data Liquidação empenho 000326/2018 - FOLHA DE PAGTO - VEREADORES REMUNERAÇÃO REFERENTE AO MÊS DE JANEIRO                    1
000008211399990000000101000000000000002000000000000002018020003262201201800000000000111600C000000000000Liquidacao de Empenhos n/data Liquidação empenho 000326/2018 - FOLHA DE PAGTO - VEREADORES REMUNERAÇÃO REFERENTE AO MÊS DE JANEIRO                    1
000006229201010000000101000000000000002000000000000002018020003262201201800000000000111600D000000000000Liquidacao de Empenhos n/data Liquidação empenho 000326/2018 - FOLHA DE PAGTO - VEREADORES REMUNERAÇÃO REFERENTE AO MÊS DE JANEIRO                    1
000006229201030000000101000000000000002000000000000002018020003262201201800000000000111600C000000000000Liquidacao de Empenhos n/data Liquidação empenho 000326/2018 - FOLHA DE PAGTO - VEREADORES REMUNERAÇÃO REFERENTE AO MÊS DE JANEIRO                    1
000008211200010000000101000000000000002000000000000002018020003262201201800000000000111600D000000000000Liquidacao de Empenhos n/data Liquidação empenho 000326/2018 - FOLHA DE PAGTO - VEREADORES REMUNERAÇÃO REFERENTE AO MÊS DE JANEIRO                    1
000003111101280000000101000000000000002000000000000002018020003262201201800000000000111600D000000000000Liquidacao de Empenhos n/data Liquidação empenho 000326/2018 - FOLHA DE PAGTO - VEREADORES REMUNERAÇÃO REFERENTE AO MÊS DE JANEIRO                    1
000002131101010100000101000000000000002100000000000002018020003272201201800000000003348000C000000000000Liquidacao de Empenhos n/data Liquidação empenho 000327/2018 - FOLHA DE PAGTO - VEREADORES REMUNERAÇÃO REFERENTE AO MÊS DE JANEIRO                    1
000006221301000000000101000000000000002100000000000002018020003272201201800000000003348000D000000000000Liquidacao de Empenhos n/data Liquidação empenho 000327/2018 - FOLHA DE PAGTO - VEREADORES REMUNERAÇÃO REFERENTE AO MÊS DE JANEIRO                    1
000006221303000000000101000000000000002100000000000002018020003272201201800000000003348000C000000000000Liquidacao de Empenhos n/data Liquidação empenho 000327/2018 - FOLHA DE PAGTO - VEREADORES REMUNERAÇÃO REFERENTE AO MÊS DE JANEIRO                    1
000008211399990000000101000000000000002100000000000002018020003272201201800000000003348000C000000000000Liquidacao de Empenhos n/data Liquidação empenho 000327/2018 - FOLHA DE PAGTO - VEREADORES REMUNERAÇÃO REFERENTE AO MÊS DE JANEIRO                    1
000006229201010000000101000000000000002100000000000002018020003272201201800000000003348000D000000000000Liquidacao de Empenhos n/data Liquidação empenho 000327/2018 - FOLHA DE PAGTO - VEREADORES REMUNERAÇÃO REFERENTE AO MÊS DE JANEIRO                    1
000006229201030000000101000000000000002100000000000002018020003272201201800000000003348000C000000000000Liquidacao de Empenhos n/data Liquidação empenho 000327/2018 - FOLHA DE PAGTO - VEREADORES REMUNERAÇÃO REFERENTE AO MÊS DE JANEIRO                    1
000008211200010000000101000000000000002100000000000002018020003272201201800000000003348000D000000000000Liquidacao de Empenhos n/data Liquidação empenho 000327/2018 - FOLHA DE PAGTO - VEREADORES REMUNERAÇÃO REFERENTE AO MÊS DE JANEIRO                    1
000003111101310000000101000000000000002100000000000002018020003272201201800000000003348000D000000000000Liquidacao de Empenhos n/data Liquidação empenho 000327/2018 - FOLHA DE PAGTO - VEREADORES REMUNERAÇÃO REFERENTE AO MÊS DE JANEIRO                    1
000002131101010100000101000000000000002200000000000002018020003282201201800000000000087627C000000000000Liquidacao de Empenhos n/data Liquidação empenho 000328/2018 - FOLHA  PAG SERVIDORES DA CÂMARA DE VEREADORES REMUNERAÇÃO REFERENTE                    1
000006221301000000000101000000000000002200000000000002018020003282201201800000000000087627D000000000000Liquidacao de Empenhos n/data Liquidação empenho 000328/2018 - FOLHA  PAG SERVIDORES DA CÂMARA DE VEREADORES REMUNERAÇÃO REFERENTE                    1
000006221303000000000101000000000000002200000000000002018020003282201201800000000000087627C000000000000Liquidacao de Empenhos n/data Liquidação empenho 000328/2018 - FOLHA  PAG SERVIDORES DA CÂMARA DE VEREADORES REMUNERAÇÃO REFERENTE                    1
000008211399990000000101000000000000002200000000000002018020003282201201800000000000087627C000000000000Liquidacao de Empenhos n/data Liquidação empenho 000328/2018 - FOLHA  PAG SERVIDORES DA CÂMARA DE VEREADORES REMUNERAÇÃO REFERENTE                    1
000006229201010000000101000000000000002200000000000002018020003282201201800000000000087627D000000000000Liquidacao de Empenhos n/data Liquidação empenho 000328/2018 - FOLHA  PAG SERVIDORES DA CÂMARA DE VEREADORES REMUNERAÇÃO REFERENTE                    1
000006229201030000000101000000000000002200000000000002018020003282201201800000000000087627C000000000000Liquidacao de Empenhos n/data Liquidação empenho 000328/2018 - FOLHA  PAG SERVIDORES DA CÂMARA DE VEREADORES REMUNERAÇÃO REFERENTE                    1
000008211200010000000101000000000000002200000000000002018020003282201201800000000000087627D000000000000Liquidacao de Empenhos n/data Liquidação empenho 000328/2018 - FOLHA  PAG SERVIDORES DA CÂMARA DE VEREADORES REMUNERAÇÃO REFERENTE                    1
000002111101030000000101000000000000002200000000000002018020003282201201800000000000087627D000000000000Liquidacao de Empenhos n/data Liquidação empenho 000328/2018 - FOLHA  PAG SERVIDORES DA CÂMARA DE VEREADORES REMUNERAÇÃO REFERENTE                    1
000002131101010100000101000000000000002300000000000002018020003292201201800000000000999806C000000000000Liquidacao de Empenhos n/data Liquidação empenho 000329/2018 - FOLHA  PAG SERVIDORES DA CÂMARA DE VEREADORES REMUNERAÇÃO REFERENTE                    1
000006221301000000000101000000000000002300000000000002018020003292201201800000000000999806D000000000000Liquidacao de Empenhos n/data Liquidação empenho 000329/2018 - FOLHA  PAG SERVIDORES DA CÂMARA DE VEREADORES REMUNERAÇÃO REFERENTE                    1
000006221303000000000101000000000000002300000000000002018020003292201201800000000000999806C000000000000Liquidacao de Empenhos n/data Liquidação empenho 000329/2018 - FOLHA  PAG SERVIDORES DA CÂMARA DE VEREADORES REMUNERAÇÃO REFERENTE                    1
000008211399990000000101000000000000002300000000000002018020003292201201800000000000999806C000000000000Liquidacao de Empenhos n/data Liquidação empenho 000329/2018 - FOLHA  PAG SERVIDORES DA CÂMARA DE VEREADORES REMUNERAÇÃO REFERENTE                    1
000006229201010000000101000000000000002300000000000002018020003292201201800000000000999806D000000000000Liquidacao de Empenhos n/data Liquidação empenho 000329/2018 - FOLHA  PAG SERVIDORES DA CÂMARA DE VEREADORES REMUNERAÇÃO REFERENTE                    1
000006229201030000000101000000000000002300000000000002018020003292201201800000000000999806C000000000000Liquidacao de Empenhos n/data Liquidação empenho 000329/2018 - FOLHA  PAG SERVIDORES DA CÂMARA DE VEREADORES REMUNERAÇÃO REFERENTE                    1
000008211200010000000101000000000000002300000000000002018020003292201201800000000000999806D000000000000Liquidacao de Empenhos n/data Liquidação empenho 000329/2018 - FOLHA  PAG SERVIDORES DA CÂMARA DE VEREADORES REMUNERAÇÃO REFERENTE                    1
000003111101010000000101000000000000002300000000000002018020003292201201800000000000999806D000000000000Liquidacao de Empenhos n/data Liquidação empenho 000329/2018 - FOLHA  PAG SERVIDORES DA CÂMARA DE VEREADORES REMUNERAÇÃO REFERENTE                    1
000002131101010100000101000000000000002400000000000002018020003302201201800000000000435259C000000000000Liquidacao de Empenhos n/data Liquidação empenho 000330/2018 - FOLHA  PAG SERVIDORES DA CÂMARA DE VEREADORES REMUNERAÇÃO REFERENTE                    1
000006221301000000000101000000000000002400000000000002018020003302201201800000000000435259D000000000000Liquidacao de Empenhos n/data Liquidação empenho 000330/2018 - FOLHA  PAG SERVIDORES DA CÂMARA DE VEREADORES REMUNERAÇÃO REFERENTE                    1
000006221303000000000101000000000000002400000000000002018020003302201201800000000000435259C000000000000Liquidacao de Empenhos n/data Liquidação empenho 000330/2018 - FOLHA  PAG SERVIDORES DA CÂMARA DE VEREADORES REMUNERAÇÃO REFERENTE                    1
000008211399990000000101000000000000002400000000000002018020003302201201800000000000435259C000000000000Liquidacao de Empenhos n/data Liquidação empenho 000330/2018 - FOLHA  PAG SERVIDORES DA CÂMARA DE VEREADORES REMUNERAÇÃO REFERENTE                    1
000006229201010000000101000000000000002400000000000002018020003302201201800000000000435259D000000000000Liquidacao de Empenhos n/data Liquidação empenho 000330/2018 - FOLHA  PAG SERVIDORES DA CÂMARA DE VEREADORES REMUNERAÇÃO REFERENTE                    1
000006229201030000000101000000000000002400000000000002018020003302201201800000000000435259C000000000000Liquidacao de Empenhos n/data Liquidação empenho 000330/2018 - FOLHA  PAG SERVIDORES DA CÂMARA DE VEREADORES REMUNERAÇÃO REFERENTE                    1
000008211200010000000101000000000000002400000000000002018020003302201201800000000000435259D000000000000Liquidacao de Empenhos n/data Liquidação empenho 000330/2018 - FOLHA  PAG SERVIDORES DA CÂMARA DE VEREADORES REMUNERAÇÃO REFERENTE                    1
000003111101010000000101000000000000002400000000000002018020003302201201800000000000435259D000000000000Liquidacao de Empenhos n/data Liquidação empenho 000330/2018 - FOLHA  PAG SERVIDORES DA CÂMARA DE VEREADORES REMUNERAÇÃO REFERENTE                    1
000002131101010100000101000000000000002500000000000002018020003312201201800000000000189090C000000000000Liquidacao de Empenhos n/data Liquidação empenho 000331/2018 - FOLHA  PAG SERVIDORES DA CÂMARA DE VEREADORES REMUNERAÇÃO REFERENTE                    1
000006221301000000000101000000000000002500000000000002018020003312201201800000000000189090D000000000000Liquidacao de Empenhos n/data Liquidação empenho 000331/2018 - FOLHA  PAG SERVIDORES DA CÂMARA DE VEREADORES REMUNERAÇÃO REFERENTE                    1
000006221303000000000101000000000000002500000000000002018020003312201201800000000000189090C000000000000Liquidacao de Empenhos n/data Liquidação empenho 000331/2018 - FOLHA  PAG SERVIDORES DA CÂMARA DE VEREADORES REMUNERAÇÃO REFERENTE                    1
000008211399990000000101000000000000002500000000000002018020003312201201800000000000189090C000000000000Liquidacao de Empenhos n/data Liquidação empenho 000331/2018 - FOLHA  PAG SERVIDORES DA CÂMARA DE VEREADORES REMUNERAÇÃO REFERENTE                    1
000006229201010000000101000000000000002500000000000002018020003312201201800000000000189090D000000000000Liquidacao de Empenhos n/data Liquidação empenho 000331/2018 - FOLHA  PAG SERVIDORES DA CÂMARA DE VEREADORES REMUNERAÇÃO REFERENTE                    1
000006229201030000000101000000000000002500000000000002018020003312201201800000000000189090C000000000000Liquidacao de Empenhos n/data Liquidação empenho 000331/2018 - FOLHA  PAG SERVIDORES DA CÂMARA DE VEREADORES REMUNERAÇÃO REFERENTE                    1
000008211200010000000101000000000000002500000000000002018020003312201201800000000000189090D000000000000Liquidacao de Empenhos n/data Liquidação empenho 000331/2018 - FOLHA  PAG SERVIDORES DA CÂMARA DE VEREADORES REMUNERAÇÃO REFERENTE                    1
000002111101030000000101000000000000002500000000000002018020003312201201800000000000189090D000000000000Liquidacao de Empenhos n/data Liquidação empenho 000331/2018 - FOLHA  PAG SERVIDORES DA CÂMARA DE VEREADORES REMUNERAÇÃO REFERENTE                    1
000002131101010100000101000000000000002600000000000002018020003322201201800000000000045810C000000000000Liquidacao de Empenhos n/data Liquidação empenho 000332/2018 - FOLHA  PAG SERVIDORES DA CÂMARA DE VEREADORES REMUNERAÇÃO REFERENTE                    1
000006221301000000000101000000000000002600000000000002018020003322201201800000000000045810D000000000000Liquidacao de Empenhos n/data Liquidação empenho 000332/2018 - FOLHA  PAG SERVIDORES DA CÂMARA DE VEREADORES REMUNERAÇÃO REFERENTE                    1
000006221303000000000101000000000000002600000000000002018020003322201201800000000000045810C000000000000Liquidacao de Empenhos n/data Liquidação empenho 000332/2018 - FOLHA  PAG SERVIDORES DA CÂMARA DE VEREADORES REMUNERAÇÃO REFERENTE                    1
000008211399990000000101000000000000002600000000000002018020003322201201800000000000045810C000000000000Liquidacao de Empenhos n/data Liquidação empenho 000332/2018 - FOLHA  PAG SERVIDORES DA CÂMARA DE VEREADORES REMUNERAÇÃO REFERENTE                    1
000006229201010000000101000000000000002600000000000002018020003322201201800000000000045810D000000000000Liquidacao de Empenhos n/data Liquidação empenho 000332/2018 - FOLHA  PAG SERVIDORES DA CÂMARA DE VEREADORES REMUNERAÇÃO REFERENTE                    1
000006229201030000000101000000000000002600000000000002018020003322201201800000000000045810C000000000000Liquidacao de Empenhos n/data Liquidação empenho 000332/2018 - FOLHA  PAG SERVIDORES DA CÂMARA DE VEREADORES REMUNERAÇÃO REFERENTE                    1
000008211200010000000101000000000000002600000000000002018020003322201201800000000000045810D000000000000Liquidacao de Empenhos n/data Liquidação empenho 000332/2018 - FOLHA  PAG SERVIDORES DA CÂMARA DE VEREADORES REMUNERAÇÃO REFERENTE                    1
000003111101180000000101000000000000002600000000000002018020003322201201800000000000045810D000000000000Liquidacao de Empenhos n/data Liquidação empenho 000332/2018 - FOLHA  PAG SERVIDORES DA CÂMARA DE VEREADORES REMUNERAÇÃO REFERENTE                    1
000001111150032200000101000000000000002700000000000000000000000002601201800000000005217192C000000000000RESGATE RESGATE DE APLICAÇÃO                                                                                                                          0
000001111119120500000101000000000000002700000000000000000000000002601201800000000005217192D000000000000RESGATE RESGATE DE APLICAÇÃO                                                                                                                          0
000002131101010100000101000000000000002800000000000002018020003262601201800000000000111600D000000000000Pagamento de Empenho Referente Pagamento do Empenho nro 000326/2018 - FOLHA DE PAGTO - VEREADORES                                                     1
000001111119120500000101000000000000002800000000000002018020003262601201800000000000111600C000000000000Pagamento de Empenho Referente Pagamento do Empenho nro 000326/2018 - FOLHA DE PAGTO - VEREADORES -                                                   1
000006221303000000000101000000000000002800000000000002018020003262601201800000000000111600D000000000000Pagamento de Empenho Referente Pagamento do Empenho nro 000326/2018 - FOLHA DE PAGTO - VEREADORES                                                     1
000006221304000000000101000000000000002800000000000002018020003262601201800000000000111600C000000000000Pagamento de Empenho Referente Pagamento do Empenho nro 000326/2018 - FOLHA DE PAGTO - VEREADORES                                                     1
000008211399990000000101000000000000002800000000000002018020003262601201800000000000111600D000000000000Pagamento de Empenho Referente Pagamento do Empenho nro 000326/2018 - FOLHA DE PAGTO - VEREADORES                                                     1
000006229201030000000101000000000000002800000000000002018020003262601201800000000000111600D000000000000Pagamento de Empenho Referente Pagamento do Empenho nro 000326/2018 - FOLHA DE PAGTO - VEREADORES                                                     1
000006229201040000000101000000000000002800000000000002018020003262601201800000000000111600C000000000000Pagamento de Empenho Referente Pagamento do Empenho nro 000326/2018 - FOLHA DE PAGTO - VEREADORES                                                     1
000008211400010000000101000000000000002800000000000002018020003262601201800000000000111600C000000000000Pagamento de Empenho Referente Pagamento do Empenho nro 000326/2018 - FOLHA DE PAGTO - VEREADORES                                                     1
000002131101010100000101000000000000002900000000000002018020003272601201800000000003348000D000000000000Pagamento de Empenho Referente Pagamento do Empenho nro 000327/2018 - FOLHA DE PAGTO - VEREADORES                                                     1
000001111119120500000101000000000000002900000000000002018020003272601201800000000003348000C000000000000Pagamento de Empenho Referente Pagamento do Empenho nro 000327/2018 - FOLHA DE PAGTO - VEREADORES -                                                   1
000006221303000000000101000000000000002900000000000002018020003272601201800000000003348000D000000000000Pagamento de Empenho Referente Pagamento do Empenho nro 000327/2018 - FOLHA DE PAGTO - VEREADORES                                                     1
000006221304000000000101000000000000002900000000000002018020003272601201800000000003348000C000000000000Pagamento de Empenho Referente Pagamento do Empenho nro 000327/2018 - FOLHA DE PAGTO - VEREADORES                                                     1
000008211399990000000101000000000000002900000000000002018020003272601201800000000003348000D000000000000Pagamento de Empenho Referente Pagamento do Empenho nro 000327/2018 - FOLHA DE PAGTO - VEREADORES                                                     1
000006229201030000000101000000000000002900000000000002018020003272601201800000000003348000D000000000000Pagamento de Empenho Referente Pagamento do Empenho nro 000327/2018 - FOLHA DE PAGTO - VEREADORES                                                     1
000006229201040000000101000000000000002900000000000002018020003272601201800000000003348000C000000000000Pagamento de Empenho Referente Pagamento do Empenho nro 000327/2018 - FOLHA DE PAGTO - VEREADORES                                                     1
000008211400010000000101000000000000002900000000000002018020003272601201800000000003348000C000000000000Pagamento de Empenho Referente Pagamento do Empenho nro 000327/2018 - FOLHA DE PAGTO - VEREADORES                                                     1
000002131101010100000101000000000000003000000000000002018020003282601201800000000000087627D000000000000Pagamento de Empenho Referente Pagamento do Empenho nro 000328/2018 - FOLHA  PAG SERVIDORES DA CÂMARA DE VEREADORES                                   1
000001111119120500000101000000000000003000000000000002018020003282601201800000000000087627C000000000000Pagamento de Empenho Referente Pagamento do Empenho nro 000328/2018 - FOLHA  PAG SERVIDORES DA CÂMARA DE VEREADORES -                                 1
000006221303000000000101000000000000003000000000000002018020003282601201800000000000087627D000000000000Pagamento de Empenho Referente Pagamento do Empenho nro 000328/2018 - FOLHA  PAG SERVIDORES DA CÂMARA DE VEREADORES                                   1
000006221304000000000101000000000000003000000000000002018020003282601201800000000000087627C000000000000Pagamento de Empenho Referente Pagamento do Empenho nro 000328/2018 - FOLHA  PAG SERVIDORES DA CÂMARA DE VEREADORES                                   1
000008211399990000000101000000000000003000000000000002018020003282601201800000000000087627D000000000000Pagamento de Empenho Referente Pagamento do Empenho nro 000328/2018 - FOLHA  PAG SERVIDORES DA CÂMARA DE VEREADORES                                   1
000006229201030000000101000000000000003000000000000002018020003282601201800000000000087627D000000000000Pagamento de Empenho Referente Pagamento do Empenho nro 000328/2018 - FOLHA  PAG SERVIDORES DA CÂMARA DE VEREADORES                                   1
000006229201040000000101000000000000003000000000000002018020003282601201800000000000087627C000000000000Pagamento de Empenho Referente Pagamento do Empenho nro 000328/2018 - FOLHA  PAG SERVIDORES DA CÂMARA DE VEREADORES                                   1
000008211400010000000101000000000000003000000000000002018020003282601201800000000000087627C000000000000Pagamento de Empenho Referente Pagamento do Empenho nro 000328/2018 - FOLHA  PAG SERVIDORES DA CÂMARA DE VEREADORES                                   1
000002131101010100000101000000000000003100000000000002018020003292601201800000000000999806D000000000000Pagamento de Empenho Referente Pagamento do Empenho nro 000329/2018 - FOLHA  PAG SERVIDORES DA CÂMARA DE VEREADORES                                   1
000001111119120500000101000000000000003100000000000002018020003292601201800000000000999806C000000000000Pagamento de Empenho Referente Pagamento do Empenho nro 000329/2018 - FOLHA  PAG SERVIDORES DA CÂMARA DE VEREADORES -                                 1
000006221303000000000101000000000000003100000000000002018020003292601201800000000000999806D000000000000Pagamento de Empenho Referente Pagamento do Empenho nro 000329/2018 - FOLHA  PAG SERVIDORES DA CÂMARA DE VEREADORES                                   1
000006221304000000000101000000000000003100000000000002018020003292601201800000000000999806C000000000000Pagamento de Empenho Referente Pagamento do Empenho nro 000329/2018 - FOLHA  PAG SERVIDORES DA CÂMARA DE VEREADORES                                   1
000008211399990000000101000000000000003100000000000002018020003292601201800000000000999806D000000000000Pagamento de Empenho Referente Pagamento do Empenho nro 000329/2018 - FOLHA  PAG SERVIDORES DA CÂMARA DE VEREADORES                                   1
000006229201030000000101000000000000003100000000000002018020003292601201800000000000999806D000000000000Pagamento de Empenho Referente Pagamento do Empenho nro 000329/2018 - FOLHA  PAG SERVIDORES DA CÂMARA DE VEREADORES                                   1
000006229201040000000101000000000000003100000000000002018020003292601201800000000000999806C000000000000Pagamento de Empenho Referente Pagamento do Empenho nro 000329/2018 - FOLHA  PAG SERVIDORES DA CÂMARA DE VEREADORES                                   1
000008211400010000000101000000000000003100000000000002018020003292601201800000000000999806C000000000000Pagamento de Empenho Referente Pagamento do Empenho nro 000329/2018 - FOLHA  PAG SERVIDORES DA CÂMARA DE VEREADORES                                   1
000002131101010100000101000000000000003200000000000002018020003302601201800000000000435259D000000000000Pagamento de Empenho Referente Pagamento do Empenho nro 000330/2018 - FOLHA  PAG SERVIDORES DA CÂMARA DE VEREADORES                                   1
000001111119120500000101000000000000003200000000000002018020003302601201800000000000435259C000000000000Pagamento de Empenho Referente Pagamento do Empenho nro 000330/2018 - FOLHA  PAG SERVIDORES DA CÂMARA DE VEREADORES -                                 1
000006221303000000000101000000000000003200000000000002018020003302601201800000000000435259D000000000000Pagamento de Empenho Referente Pagamento do Empenho nro 000330/2018 - FOLHA  PAG SERVIDORES DA CÂMARA DE VEREADORES                                   1
000006221304000000000101000000000000003200000000000002018020003302601201800000000000435259C000000000000Pagamento de Empenho Referente Pagamento do Empenho nro 000330/2018 - FOLHA  PAG SERVIDORES DA CÂMARA DE VEREADORES                                   1
000008211399990000000101000000000000003200000000000002018020003302601201800000000000435259D000000000000Pagamento de Empenho Referente Pagamento do Empenho nro 000330/2018 - FOLHA  PAG SERVIDORES DA CÂMARA DE VEREADORES                                   1
000006229201030000000101000000000000003200000000000002018020003302601201800000000000435259D000000000000Pagamento de Empenho Referente Pagamento do Empenho nro 000330/2018 - FOLHA  PAG SERVIDORES DA CÂMARA DE VEREADORES                                   1
000006229201040000000101000000000000003200000000000002018020003302601201800000000000435259C000000000000Pagamento de Empenho Referente Pagamento do Empenho nro 000330/2018 - FOLHA  PAG SERVIDORES DA CÂMARA DE VEREADORES                                   1
000008211400010000000101000000000000003200000000000002018020003302601201800000000000435259C000000000000Pagamento de Empenho Referente Pagamento do Empenho nro 000330/2018 - FOLHA  PAG SERVIDORES DA CÂMARA DE VEREADORES                                   1
000002131101010100000101000000000000003300000000000002018020003312601201800000000000189090D000000000000Pagamento de Empenho Referente Pagamento do Empenho nro 000331/2018 - FOLHA  PAG SERVIDORES DA CÂMARA DE VEREADORES                                   1
000001111119120500000101000000000000003300000000000002018020003312601201800000000000189090C000000000000Pagamento de Empenho Referente Pagamento do Empenho nro 000331/2018 - FOLHA  PAG SERVIDORES DA CÂMARA DE VEREADORES -                                 1
000006221303000000000101000000000000003300000000000002018020003312601201800000000000189090D000000000000Pagamento de Empenho Referente Pagamento do Empenho nro 000331/2018 - FOLHA  PAG SERVIDORES DA CÂMARA DE VEREADORES                                   1
000006221304000000000101000000000000003300000000000002018020003312601201800000000000189090C000000000000Pagamento de Empenho Referente Pagamento do Empenho nro 000331/2018 - FOLHA  PAG SERVIDORES DA CÂMARA DE VEREADORES                                   1
000008211399990000000101000000000000003300000000000002018020003312601201800000000000189090D000000000000Pagamento de Empenho Referente Pagamento do Empenho nro 000331/2018 - FOLHA  PAG SERVIDORES DA CÂMARA DE VEREADORES                                   1
000006229201030000000101000000000000003300000000000002018020003312601201800000000000189090D000000000000Pagamento de Empenho Referente Pagamento do Empenho nro 000331/2018 - FOLHA  PAG SERVIDORES DA CÂMARA DE VEREADORES                                   1
000006229201040000000101000000000000003300000000000002018020003312601201800000000000189090C000000000000Pagamento de Empenho Referente Pagamento do Empenho nro 000331/2018 - FOLHA  PAG SERVIDORES DA CÂMARA DE VEREADORES                                   1
000008211400010000000101000000000000003300000000000002018020003312601201800000000000189090C000000000000Pagamento de Empenho Referente Pagamento do Empenho nro 000331/2018 - FOLHA  PAG SERVIDORES DA CÂMARA DE VEREADORES                                   1
000002131101010100000101000000000000003400000000000002018020003322601201800000000000045810D000000000000Pagamento de Empenho Referente Pagamento do Empenho nro 000332/2018 - FOLHA  PAG SERVIDORES DA CÂMARA DE VEREADORES                                   1
000001111119120500000101000000000000003400000000000002018020003322601201800000000000045810C000000000000Pagamento de Empenho Referente Pagamento do Empenho nro 000332/2018 - FOLHA  PAG SERVIDORES DA CÂMARA DE VEREADORES -                                 1
000006221303000000000101000000000000003400000000000002018020003322601201800000000000045810D000000000000Pagamento de Empenho Referente Pagamento do Empenho nro 000332/2018 - FOLHA  PAG SERVIDORES DA CÂMARA DE VEREADORES                                   1
000006221304000000000101000000000000003400000000000002018020003322601201800000000000045810C000000000000Pagamento de Empenho Referente Pagamento do Empenho nro 000332/2018 - FOLHA  PAG SERVIDORES DA CÂMARA DE VEREADORES                                   1
000008211399990000000101000000000000003400000000000002018020003322601201800000000000045810D000000000000Pagamento de Empenho Referente Pagamento do Empenho nro 000332/2018 - FOLHA  PAG SERVIDORES DA CÂMARA DE VEREADORES                                   1
000006229201030000000101000000000000003400000000000002018020003322601201800000000000045810D000000000000Pagamento de Empenho Referente Pagamento do Empenho nro 000332/2018 - FOLHA  PAG SERVIDORES DA CÂMARA DE VEREADORES                                   1
000006229201040000000101000000000000003400000000000002018020003322601201800000000000045810C000000000000Pagamento de Empenho Referente Pagamento do Empenho nro 000332/2018 - FOLHA  PAG SERVIDORES DA CÂMARA DE VEREADORES                                   1
000008211400010000000101000000000000003400000000000002018020003322601201800000000000045810C000000000000Pagamento de Empenho Referente Pagamento do Empenho nro 000332/2018 - FOLHA  PAG SERVIDORES DA CÂMARA DE VEREADORES                                   1
000006221100000000000101000000000000003500000000000002018020006063001201800000000000726516D000000000000Empenhos efetuados n/data Referente empenho 000606/2018 - CONTRIBUICAO AO INSS                                                                        1
000006221301000000000101000000000000003500000000000002018020006063001201800000000000726516C000000000000Empenhos efetuados n/data Referente empenho 000606/2018 - CONTRIBUICAO AO INSS                                                                        1
000008211199990000000101000000000000003500000000000002018020006063001201800000000000726516D000000000000Empenhos efetuados n/data Referente empenho 000606/2018 - CONTRIBUICAO AO INSS                                                                        1
000006229201010000000101000000000000003500000000000002018020006063001201800000000000726516C000000000000Empenhos efetuados n/data Referente empenho 000606/2018 - CONTRIBUICAO AO INSS                                                                        1
000008211200010000000101000000000000003500000000000002018020006063001201800000000000726516C000000000000Empenhos efetuados n/data Referente empenho 000606/2018 - CONTRIBUICAO AO INSS                                                                        1
000005229201010000000101000000000000003500000000000002018020006063001201800000000000726516D000000000000Empenhos efetuados n/data Referente empenho 000606/2018 - CONTRIBUICAO AO INSS                                                                        1
000002131101010100000101000000000000003600000000000002018020006063001201800000000000726516C000000000000Liquidacao de Empenhos n/data Liquidação empenho 000606/2018 - CONTRIBUICAO AO INSS CONTRIB. PATRONAL AO INSS REF REMUNERAÇÃO DE J                    1
000006221301000000000101000000000000003600000000000002018020006063001201800000000000726516D000000000000Liquidacao de Empenhos n/data Liquidação empenho 000606/2018 - CONTRIBUICAO AO INSS CONTRIB. PATRONAL AO INSS REF REMUNERAÇÃO DE J                    1
000006221303000000000101000000000000003600000000000002018020006063001201800000000000726516C000000000000Liquidacao de Empenhos n/data Liquidação empenho 000606/2018 - CONTRIBUICAO AO INSS CONTRIB. PATRONAL AO INSS REF REMUNERAÇÃO DE J                    1
000008211399990000000101000000000000003600000000000002018020006063001201800000000000726516C000000000000Liquidacao de Empenhos n/data Liquidação empenho 000606/2018 - CONTRIBUICAO AO INSS CONTRIB. PATRONAL AO INSS REF REMUNERAÇÃO DE J                    1
000006229201010000000101000000000000003600000000000002018020006063001201800000000000726516D000000000000Liquidacao de Empenhos n/data Liquidação empenho 000606/2018 - CONTRIBUICAO AO INSS CONTRIB. PATRONAL AO INSS REF REMUNERAÇÃO DE J                    1
000006229201030000000101000000000000003600000000000002018020006063001201800000000000726516C000000000000Liquidacao de Empenhos n/data Liquidação empenho 000606/2018 - CONTRIBUICAO AO INSS CONTRIB. PATRONAL AO INSS REF REMUNERAÇÃO DE J                    1
000008211200010000000101000000000000003600000000000002018020006063001201800000000000726516D000000000000Liquidacao de Empenhos n/data Liquidação empenho 000606/2018 - CONTRIBUICAO AO INSS CONTRIB. PATRONAL AO INSS REF REMUNERAÇÃO DE J                    1
000003122301000000000101000000000000003600000000000002018020006063001201800000000000726516D000000000000Liquidacao de Empenhos n/data Liquidação empenho 000606/2018 - CONTRIBUICAO AO INSS CONTRIB. PATRONAL AO INSS REF REMUNERAÇÃO DE J                    1
000006221100000000000101000000000000003700000000000002018020006073001201800000000000228361D000000000000Empenhos efetuados n/data Referente empenho 000607/2018 - CONTRIBUICAO AO INSS                                                                        1
000006221301000000000101000000000000003700000000000002018020006073001201800000000000228361C000000000000Empenhos efetuados n/data Referente empenho 000607/2018 - CONTRIBUICAO AO INSS                                                                        1
000008211199990000000101000000000000003700000000000002018020006073001201800000000000228361D000000000000Empenhos efetuados n/data Referente empenho 000607/2018 - CONTRIBUICAO AO INSS                                                                        1
000006229201010000000101000000000000003700000000000002018020006073001201800000000000228361C000000000000Empenhos efetuados n/data Referente empenho 000607/2018 - CONTRIBUICAO AO INSS                                                                        1
000008211200010000000101000000000000003700000000000002018020006073001201800000000000228361C000000000000Empenhos efetuados n/data Referente empenho 000607/2018 - CONTRIBUICAO AO INSS                                                                        1
000005229201010000000101000000000000003700000000000002018020006073001201800000000000228361D000000000000Empenhos efetuados n/data Referente empenho 000607/2018 - CONTRIBUICAO AO INSS                                                                        1
000002131101010100000101000000000000003800000000000002018020006073001201800000000000228361C000000000000Liquidacao de Empenhos n/data Liquidação empenho 000607/2018 - CONTRIBUICAO AO INSS CONTRIB. PATRONAL AO INSS REF REMUNERAÇÃO DE J                    1
000006221301000000000101000000000000003800000000000002018020006073001201800000000000228361D000000000000Liquidacao de Empenhos n/data Liquidação empenho 000607/2018 - CONTRIBUICAO AO INSS CONTRIB. PATRONAL AO INSS REF REMUNERAÇÃO DE J                    1
000006221303000000000101000000000000003800000000000002018020006073001201800000000000228361C000000000000Liquidacao de Empenhos n/data Liquidação empenho 000607/2018 - CONTRIBUICAO AO INSS CONTRIB. PATRONAL AO INSS REF REMUNERAÇÃO DE J                    1
000008211399990000000101000000000000003800000000000002018020006073001201800000000000228361C000000000000Liquidacao de Empenhos n/data Liquidação empenho 000607/2018 - CONTRIBUICAO AO INSS CONTRIB. PATRONAL AO INSS REF REMUNERAÇÃO DE J                    1
000006229201010000000101000000000000003800000000000002018020006073001201800000000000228361D000000000000Liquidacao de Empenhos n/data Liquidação empenho 000607/2018 - CONTRIBUICAO AO INSS CONTRIB. PATRONAL AO INSS REF REMUNERAÇÃO DE J                    1
000006229201030000000101000000000000003800000000000002018020006073001201800000000000228361C000000000000Liquidacao de Empenhos n/data Liquidação empenho 000607/2018 - CONTRIBUICAO AO INSS CONTRIB. PATRONAL AO INSS REF REMUNERAÇÃO DE J                    1
000008211200010000000101000000000000003800000000000002018020006073001201800000000000228361D000000000000Liquidacao de Empenhos n/data Liquidação empenho 000607/2018 - CONTRIBUICAO AO INSS CONTRIB. PATRONAL AO INSS REF REMUNERAÇÃO DE J                    1
000003122301000000000101000000000000003800000000000002018020006073001201800000000000228361D000000000000Liquidacao de Empenhos n/data Liquidação empenho 000607/2018 - CONTRIBUICAO AO INSS CONTRIB. PATRONAL AO INSS REF REMUNERAÇÃO DE J                    1
000006221100000000000101000000000000003900000000000002018020006643001201800000000000091677D000000000000Empenhos efetuados n/data Referente empenho 000664/2018 - CONTRIBUICAO AO FAPS                                                                        1
000006221301000000000101000000000000003900000000000002018020006643001201800000000000091677C000000000000Empenhos efetuados n/data Referente empenho 000664/2018 - CONTRIBUICAO AO FAPS                                                                        1
000008211199990000000101000000000000003900000000000002018020006643001201800000000000091677D000000000000Empenhos efetuados n/data Referente empenho 000664/2018 - CONTRIBUICAO AO FAPS                                                                        1
000006229201010000000101000000000000003900000000000002018020006643001201800000000000091677C000000000000Empenhos efetuados n/data Referente empenho 000664/2018 - CONTRIBUICAO AO FAPS                                                                        1
000008211200010000000101000000000000003900000000000002018020006643001201800000000000091677C000000000000Empenhos efetuados n/data Referente empenho 000664/2018 - CONTRIBUICAO AO FAPS                                                                        1
000005229201010000000101000000000000003900000000000002018020006643001201800000000000091677D000000000000Empenhos efetuados n/data Referente empenho 000664/2018 - CONTRIBUICAO AO FAPS                                                                        1
000002131101010100000101000000000000004000000000000002018020006643001201800000000000091677C000000000000Liquidacao de Empenhos n/data Liquidação empenho 000664/2018 - CONTRIBUICAO AO FAPS CONTRIB    AO    FPSM  PARTE  PATRONAL  13,68%                    1
000006221301000000000101000000000000004000000000000002018020006643001201800000000000091677D000000000000Liquidacao de Empenhos n/data Liquidação empenho 000664/2018 - CONTRIBUICAO AO FAPS CONTRIB    AO    FPSM  PARTE  PATRONAL  13,68%                    1
000006221303000000000101000000000000004000000000000002018020006643001201800000000000091677C000000000000Liquidacao de Empenhos n/data Liquidação empenho 000664/2018 - CONTRIBUICAO AO FAPS CONTRIB    AO    FPSM  PARTE  PATRONAL  13,68%                    1
000008211399990000000101000000000000004000000000000002018020006643001201800000000000091677C000000000000Liquidacao de Empenhos n/data Liquidação empenho 000664/2018 - CONTRIBUICAO AO FAPS CONTRIB    AO    FPSM  PARTE  PATRONAL  13,68%                    1
000006229201010000000101000000000000004000000000000002018020006643001201800000000000091677D000000000000Liquidacao de Empenhos n/data Liquidação empenho 000664/2018 - CONTRIBUICAO AO FAPS CONTRIB    AO    FPSM  PARTE  PATRONAL  13,68%                    1
000006229201030000000101000000000000004000000000000002018020006643001201800000000000091677C000000000000Liquidacao de Empenhos n/data Liquidação empenho 000664/2018 - CONTRIBUICAO AO FAPS CONTRIB    AO    FPSM  PARTE  PATRONAL  13,68%                    1
000003121201000000000101000000000000004000000000000002018020006643001201800000000000091677D000000000000Liquidacao de Empenhos n/data Liquidação empenho 000664/2018 - CONTRIBUICAO AO FAPS CONTRIB    AO    FPSM  PARTE  PATRONAL  13,68%                    1
000008211200010000000101000000000000004000000000000002018020006643001201800000000000091677D000000000000Liquidacao de Empenhos n/data Liquidação empenho 000664/2018 - CONTRIBUICAO AO FAPS CONTRIB    AO    FPSM  PARTE  PATRONAL  13,68%                    1
000006221100000000000101000000000000004100000000000002018020006903001201800000000000141120D000000000000Empenhos efetuados n/data Referente empenho 000690/2018 - FACE CARD ADMINISTRADORA DE CARTÕES LTDA-ME                                                 1
000006221301000000000101000000000000004100000000000002018020006903001201800000000000141120C000000000000Empenhos efetuados n/data Referente empenho 000690/2018 - FACE CARD ADMINISTRADORA DE CARTÕES LTDA-ME                                                 1
000008211199990000000101000000000000004100000000000002018020006903001201800000000000141120D000000000000Empenhos efetuados n/data Referente empenho 000690/2018 - FACE CARD ADMINISTRADORA DE CARTÕES LTDA-ME                                                 1
000006229201010000000101000000000000004100000000000002018020006903001201800000000000141120C000000000000Empenhos efetuados n/data Referente empenho 000690/2018 - FACE CARD ADMINISTRADORA DE CARTÕES LTDA-ME                                                 1
000008211200010000000101000000000000004100000000000002018020006903001201800000000000141120C000000000000Empenhos efetuados n/data Referente empenho 000690/2018 - FACE CARD ADMINISTRADORA DE CARTÕES LTDA-ME                                                 1
000005229201010000000101000000000000004100000000000002018020006903001201800000000000141120D000000000000Empenhos efetuados n/data Referente empenho 000690/2018 - FACE CARD ADMINISTRADORA DE CARTÕES LTDA-ME                                                 1
000002131101010100000101000000000000004200000000000002018020006903001201800000000000141120C000000000000Liquidacao de Empenhos n/data Liquidação empenho 000690/2018 - FACE CARD ADMINISTRADORA DE CARTÕES LTDA-ME VALE  ALIMENTAÇÃO PARA                     1
000006221301000000000101000000000000004200000000000002018020006903001201800000000000141120D000000000000Liquidacao de Empenhos n/data Liquidação empenho 000690/2018 - FACE CARD ADMINISTRADORA DE CARTÕES LTDA-ME VALE  ALIMENTAÇÃO PARA                     1
000006221303000000000101000000000000004200000000000002018020006903001201800000000000141120C000000000000Liquidacao de Empenhos n/data Liquidação empenho 000690/2018 - FACE CARD ADMINISTRADORA DE CARTÕES LTDA-ME VALE  ALIMENTAÇÃO PARA                     1
000008211399990000000101000000000000004200000000000002018020006903001201800000000000141120C000000000000Liquidacao de Empenhos n/data Liquidação empenho 000690/2018 - FACE CARD ADMINISTRADORA DE CARTÕES LTDA-ME VALE  ALIMENTAÇÃO PARA                     1
000006229201010000000101000000000000004200000000000002018020006903001201800000000000141120D000000000000Liquidacao de Empenhos n/data Liquidação empenho 000690/2018 - FACE CARD ADMINISTRADORA DE CARTÕES LTDA-ME VALE  ALIMENTAÇÃO PARA                     1
000006229201030000000101000000000000004200000000000002018020006903001201800000000000141120C000000000000Liquidacao de Empenhos n/data Liquidação empenho 000690/2018 - FACE CARD ADMINISTRADORA DE CARTÕES LTDA-ME VALE  ALIMENTAÇÃO PARA                     1
000008211200010000000101000000000000004200000000000002018020006903001201800000000000141120D000000000000Liquidacao de Empenhos n/data Liquidação empenho 000690/2018 - FACE CARD ADMINISTRADORA DE CARTÕES LTDA-ME VALE  ALIMENTAÇÃO PARA                     1
000003311106000000000101000000000000004200000000000002018020006903001201800000000000141120D000000000000Liquidacao de Empenhos n/data Liquidação empenho 000690/2018 - FACE CARD ADMINISTRADORA DE CARTÕES LTDA-ME VALE  ALIMENTAÇÃO PARA                     1
000001111150032200000101000000000000004300000000000000000000000003101201800000000000025110D000000000000Receita realizada n/data RENDIMENTOS DE JANEIRO/2018 BANRISUL C/CAMARA                                                                                0
000002188104990000000101000000000000004300000000000000000000000003101201800000000000025110C000000000000Receita realizada n/data RENDIMENTOS DE JANEIRO/2018 BANRISUL C/CAMARA                                                                                0
000002188104990000000101000000000000004300000000000000000000000003101201800000000000025110D000000000000Receita realizada n/data RENDIMENTOS DE JANEIRO/2018 BANRISUL C/CAMARA                                                                                0
000004511202010100000101000000000000004300000000000000000000000003101201800000000000025110C000000000000Receita realizada n/data RENDIMENTOS DE JANEIRO/2018 BANRISUL C/CAMARA                                                                                0
000007211100010000000101000000000000004300000000000000000000000003101201800000000000025110D000000000000Receita realizada n/data RENDIMENTOS DE JANEIRO/2018 BANRISUL C/CAMARA                                                                                0
000008211199990000000101000000000000004300000000000000000000000003101201800000000000025110C000000000000Receita realizada n/data RENDIMENTOS DE JANEIRO/2018 BANRISUL C/CAMARA                                                                                0
000003111101220000000101000000000000004300000000000000000000000003101201800000000000047271D00000000000013º SALARIO RPPS VPD 13º salário; janeiro 2018; estatutários camara                                                                                   0
000002111101020000000101000000000000004300000000000000000000000003101201800000000000047271C00000000000013º SALARIO RPPS VPD 13º salário; janeiro 2018; estatutários camara                                                                                   0
000003121201000000000101000000000000004300000000000000000000000003101201800000000000019091D000000000000ENCARGOS SOBRE 13 SALARIO RPPS VPD 13º salário; janeiro 2018; estatutários camara; encargos                                                           0
000002111101020000000101000000000000004300000000000000000000000003101201800000000000019091C000000000000ENCARGOS SOBRE 13 SALARIO RPPS VPD 13º salário; janeiro 2018; estatutários camara; encargos                                                           0
000003112101220000000101000000000000004300000000000000000000000003101201800000000000376798D00000000000013º SALARIO RGPS VPD 13º salário; janeiro 2018; CC câmara e vereadores                                                                                0
000002111101020000000101000000000000004300000000000000000000000003101201800000000000376798C00000000000013º SALARIO RGPS VPD 13º salário; janeiro 2018; CC câmara e vereadores                                                                                0
000003122101000000000101000000000000004300000000000000000000000003101201800000000000075360D000000000000ENCARGOS SOBRE 13 SALARIO RGPS VPD 13º salário; janeiro 2018; CC câmara e vereadores; encargos                                                        0
000002111101020000000101000000000000004300000000000000000000000003101201800000000000075360C000000000000ENCARGOS SOBRE 13 SALARIO RGPS VPD 13º salário; janeiro 2018; CC câmara e vereadores; encargos                                                        0
000003112101240000000101000000000000004300000000000000000000000003101201800000000000198847D000000000000FERIAS E 1/3 DE FERIAS RGPS VPd de 1/3 de férias; janeiro 2018; CC câmara                                                                             0
000002111101030000000101000000000000004300000000000000000000000003101201800000000000198847C000000000000FERIAS E 1/3 DE FERIAS RGPS VPd de 1/3 de férias; janeiro 2018; CC câmara                                                                             0
000003122101000000000101000000000000004300000000000000000000000003101201800000000000039769D000000000000ENCARGOS FÉRIAS RGPS VPd de 1/3 de férias; janeiro 2018; CC câmara; encargos                                                                          0
000002111101030000000101000000000000004300000000000000000000000003101201800000000000039769C000000000000ENCARGOS FÉRIAS RGPS VPd de 1/3 de férias; janeiro 2018; CC câmara; encargos                                                                          0
000003331101010000000101000000000000004300000000000000000000000003101201800000000000003634D000000000000PATRIMONIO - IMOBILIZADO depreciação; janeiro 2018; câmara                                                                                            0
000001238101010000000101000000000000004300000000000000000000000003101201800000000000003634C000000000000PATRIMONIO - IMOBILIZADO depreciação; janeiro 2018; câmara                                                                                            0
000003331101010000000101000000000000004300000000000000000000000003101201800000000000005177D000000000000PATRIMONIO - IMOBILIZADO depreciação; janeiro 2018; câmara                                                                                            0
000001238101020000000101000000000000004300000000000000000000000003101201800000000000005177C000000000000PATRIMONIO - IMOBILIZADO depreciação; janeiro 2018; câmara                                                                                            0
000003331101010000000101000000000000004300000000000000000000000003101201800000000000004643D000000000000PATRIMONIO - IMOBILIZADO depreciação; janeiro 2018; câmara                                                                                            0
000001238101030000000101000000000000004300000000000000000000000003101201800000000000004643C000000000000PATRIMONIO - IMOBILIZADO depreciação; janeiro 2018; câmara                                                                                            0
000003331101010000000101000000000000004300000000000000000000000003101201800000000000001075D000000000000PATRIMONIO - IMOBILIZADO depreciação; janeiro 2018; câmara                                                                                            0
000001238101040000000101000000000000004300000000000000000000000003101201800000000000001075C000000000000PATRIMONIO - IMOBILIZADO depreciação; janeiro 2018; câmara                                                                                            0
000006221100000000000101000000000000004400000000000002018020007220102201800000000000154300D000000000000Empenhos efetuados n/data Referente empenho 000722/2018 - ADILAR MELLER                                                                               1
000006221301000000000101000000000000004400000000000002018020007220102201800000000000154300C000000000000Empenhos efetuados n/data Referente empenho 000722/2018 - ADILAR MELLER                                                                               1
000008211199990000000101000000000000004400000000000002018020007220102201800000000000154300D000000000000Empenhos efetuados n/data Referente empenho 000722/2018 - ADILAR MELLER                                                                               1
000006229201010000000101000000000000004400000000000002018020007220102201800000000000154300C000000000000Empenhos efetuados n/data Referente empenho 000722/2018 - ADILAR MELLER                                                                               1
000008211200010000000101000000000000004400000000000002018020007220102201800000000000154300C000000000000Empenhos efetuados n/data Referente empenho 000722/2018 - ADILAR MELLER                                                                               1
000005229201010000000101000000000000004400000000000002018020007220102201800000000000154300D000000000000Empenhos efetuados n/data Referente empenho 000722/2018 - ADILAR MELLER                                                                               1
000002131101010100000101000000000000004500000000000002018020007220102201800000000000154300C000000000000Liquidacao de Empenhos n/data Liquidação empenho 000722/2018 - ADILAR MELLER 04  DIARIAS  A PORTO ALEGRE NOS DIAS 06, 07, 08 E 09.                    1
000001198103000000000101000000000000004500000000000002018020007220102201800000000000154300D000000000000Liquidacao de Empenhos n/data Liquidação empenho 000722/2018 - ADILAR MELLER 04  DIARIAS  A PORTO ALEGRE NOS DIAS 06, 07, 08 E 09.                    1
000006221301000000000101000000000000004500000000000002018020007220102201800000000000154300D000000000000Liquidacao de Empenhos n/data Liquidação empenho 000722/2018 - ADILAR MELLER 04  DIARIAS  A PORTO ALEGRE NOS DIAS 06, 07, 08 E 09.                    1
000006221303000000000101000000000000004500000000000002018020007220102201800000000000154300C000000000000Liquidacao de Empenhos n/data Liquidação empenho 000722/2018 - ADILAR MELLER 04  DIARIAS  A PORTO ALEGRE NOS DIAS 06, 07, 08 E 09.                    1
000008211399990000000101000000000000004500000000000002018020007220102201800000000000154300C000000000000Liquidacao de Empenhos n/data Liquidação empenho 000722/2018 - ADILAR MELLER 04  DIARIAS  A PORTO ALEGRE NOS DIAS 06, 07, 08 E 09.                    1
000006229201010000000101000000000000004500000000000002018020007220102201800000000000154300D000000000000Liquidacao de Empenhos n/data Liquidação empenho 000722/2018 - ADILAR MELLER 04  DIARIAS  A PORTO ALEGRE NOS DIAS 06, 07, 08 E 09.                    1
000006229201030000000101000000000000004500000000000002018020007220102201800000000000154300C000000000000Liquidacao de Empenhos n/data Liquidação empenho 000722/2018 - ADILAR MELLER 04  DIARIAS  A PORTO ALEGRE NOS DIAS 06, 07, 08 E 09.                    1
000008211200010000000101000000000000004500000000000002018020007220102201800000000000154300D000000000000Liquidacao de Empenhos n/data Liquidação empenho 000722/2018 - ADILAR MELLER 04  DIARIAS  A PORTO ALEGRE NOS DIAS 06, 07, 08 E 09.                    1
000006221100000000000101000000000000004600000000000002018020007230102201800000000000154300D000000000000Empenhos efetuados n/data Referente empenho 000723/2018 - PAULO RICARDO SARTORI                                                                       1
000006221301000000000101000000000000004600000000000002018020007230102201800000000000154300C000000000000Empenhos efetuados n/data Referente empenho 000723/2018 - PAULO RICARDO SARTORI                                                                       1
000008211199990000000101000000000000004600000000000002018020007230102201800000000000154300D000000000000Empenhos efetuados n/data Referente empenho 000723/2018 - PAULO RICARDO SARTORI                                                                       1
000006229201010000000101000000000000004600000000000002018020007230102201800000000000154300C000000000000Empenhos efetuados n/data Referente empenho 000723/2018 - PAULO RICARDO SARTORI                                                                       1
000008211200010000000101000000000000004600000000000002018020007230102201800000000000154300C000000000000Empenhos efetuados n/data Referente empenho 000723/2018 - PAULO RICARDO SARTORI                                                                       1
000005229201010000000101000000000000004600000000000002018020007230102201800000000000154300D000000000000Empenhos efetuados n/data Referente empenho 000723/2018 - PAULO RICARDO SARTORI                                                                       1
000002131101010100000101000000000000004700000000000002018020007230102201800000000000154300C000000000000Liquidacao de Empenhos n/data Liquidação empenho 000723/2018 - PAULO RICARDO SARTORI 04  DIARIAS  A PORTO ALEGRE NOS DIAS 06, 07,                     1
000001198103000000000101000000000000004700000000000002018020007230102201800000000000154300D000000000000Liquidacao de Empenhos n/data Liquidação empenho 000723/2018 - PAULO RICARDO SARTORI 04  DIARIAS  A PORTO ALEGRE NOS DIAS 06, 07,                     1
000006221301000000000101000000000000004700000000000002018020007230102201800000000000154300D000000000000Liquidacao de Empenhos n/data Liquidação empenho 000723/2018 - PAULO RICARDO SARTORI 04  DIARIAS  A PORTO ALEGRE NOS DIAS 06, 07,                     1
000006221303000000000101000000000000004700000000000002018020007230102201800000000000154300C000000000000Liquidacao de Empenhos n/data Liquidação empenho 000723/2018 - PAULO RICARDO SARTORI 04  DIARIAS  A PORTO ALEGRE NOS DIAS 06, 07,                     1
000008211399990000000101000000000000004700000000000002018020007230102201800000000000154300C000000000000Liquidacao de Empenhos n/data Liquidação empenho 000723/2018 - PAULO RICARDO SARTORI 04  DIARIAS  A PORTO ALEGRE NOS DIAS 06, 07,                     1
000006229201010000000101000000000000004700000000000002018020007230102201800000000000154300D000000000000Liquidacao de Empenhos n/data Liquidação empenho 000723/2018 - PAULO RICARDO SARTORI 04  DIARIAS  A PORTO ALEGRE NOS DIAS 06, 07,                     1
