12292535000162010120203004202008052020CAMARA DE VEREADORES DE INDEPENDENCIA-RS                                        000000000001
000005221101000000000101000000000000000200000000000000000000000000201202000000000050000000D000000000000Despesa Orcada para o Exercicio Referente Proj/Atv-Despesa 2001 3190 11 00 00 000 VENCIMENTOS E VANTAGENS FIXAS - PESSOAL CIVIL                       0OF00000000
000006221100000000000101000000000000000200000000000000000000000000201202000000000050000000C000000000000Despesa Orcada para o Exercicio Referente Proj/Atv-Despesa 2001 3190 11 00 00 000 VENCIMENTOS E VANTAGENS FIXAS - PESSOAL CIVIL                       0OF00000000
000005221101000000000101000000000000000200000000000000000000000000201202000000000010400000D000000000000Despesa Orcada para o Exercicio Referente Proj/Atv-Despesa 2001 3190 13 00 00 000 OBRIGAÇÕES PATRONAIS                                                0OF00000000
000006221100000000000101000000000000000200000000000000000000000000201202000000000010400000C000000000000Despesa Orcada para o Exercicio Referente Proj/Atv-Despesa 2001 3190 13 00 00 000 OBRIGAÇÕES PATRONAIS                                                0OF00000000
000005221101000000000101000000000000000200000000000000000000000000201202000000000022500000D000000000000Despesa Orcada para o Exercicio Referente Proj/Atv-Despesa 2002 3190 11 00 00 000 VENCIMENTOS E VANTAGENS FIXAS - PESSOAL CIVIL                       0OF00000000
000006221100000000000101000000000000000200000000000000000000000000201202000000000022500000C000000000000Despesa Orcada para o Exercicio Referente Proj/Atv-Despesa 2002 3190 11 00 00 000 VENCIMENTOS E VANTAGENS FIXAS - PESSOAL CIVIL                       0OF00000000
000005221101000000000101000000000000000200000000000000000000000000201202000000000004000000D000000000000Despesa Orcada para o Exercicio Referente Proj/Atv-Despesa 2002 3190 13 00 00 000 OBRIGAÇÕES PATRONAIS                                                0OF00000000
000006221100000000000101000000000000000200000000000000000000000000201202000000000004000000C000000000000Despesa Orcada para o Exercicio Referente Proj/Atv-Despesa 2002 3190 13 00 00 000 OBRIGAÇÕES PATRONAIS                                                0OF00000000
000005221101000000000101000000000000000200000000000000000000000000201202000000000001200000D000000000000Despesa Orcada para o Exercicio Referente Proj/Atv-Despesa 2002 3191 13 00 00 000 OBRIGAÇÕES PATRONAIS                                                0OF00000000
000006221100000000000101000000000000000200000000000000000000000000201202000000000001200000C000000000000Despesa Orcada para o Exercicio Referente Proj/Atv-Despesa 2002 3191 13 00 00 000 OBRIGAÇÕES PATRONAIS                                                0OF00000000
000005221101000000000101000000000000000200000000000000000000000000201202000000000003000000D000000000000Despesa Orcada para o Exercicio Referente Proj/Atv-Despesa 0803 3390 46 00 00 000 AUXÍLIO-ALIMENTAÇÃO                                                 0OF00000000
000006221100000000000101000000000000000200000000000000000000000000201202000000000003000000C000000000000Despesa Orcada para o Exercicio Referente Proj/Atv-Despesa 0803 3390 46 00 00 000 AUXÍLIO-ALIMENTAÇÃO                                                 0OF00000000
000005221101000000000101000000000000000200000000000000000000000000201202000000000001000000D000000000000Despesa Orcada para o Exercicio Referente Proj/Atv-Despesa 2001 3190 94 00 00 000 INDENIZAÇÕES E RESTITUIÇÕES TRABALHISTAS                            0OF00000000
000006221100000000000101000000000000000200000000000000000000000000201202000000000001000000C000000000000Despesa Orcada para o Exercicio Referente Proj/Atv-Despesa 2001 3190 94 00 00 000 INDENIZAÇÕES E RESTITUIÇÕES TRABALHISTAS                            0OF00000000
000005221101000000000101000000000000000200000000000000000000000000201202000000000001000000D000000000000Despesa Orcada para o Exercicio Referente Proj/Atv-Despesa 2002 3190 94 00 00 000 INDENIZAÇÕES E RESTITUIÇÕES TRABALHISTAS                            0OF00000000
000006221100000000000101000000000000000200000000000000000000000000201202000000000001000000C000000000000Despesa Orcada para o Exercicio Referente Proj/Atv-Despesa 2002 3190 94 00 00 000 INDENIZAÇÕES E RESTITUIÇÕES TRABALHISTAS                            0OF00000000
000005221101000000000101000000000000000200000000000000000000000000201202000000000010000000D000000000000Despesa Orcada para o Exercicio Referente Proj/Atv-Despesa 2001 3390 14 00 00 000 DIÁRIAS -  CIVIL                                                    0OF00000000
000006221100000000000101000000000000000200000000000000000000000000201202000000000010000000C000000000000Despesa Orcada para o Exercicio Referente Proj/Atv-Despesa 2001 3390 14 00 00 000 DIÁRIAS -  CIVIL                                                    0OF00000000
000005221101000000000101000000000000000200000000000000000000000000201202000000000000500000D000000000000Despesa Orcada para o Exercicio Referente Proj/Atv-Despesa 2001 3390 30 00 00 000 MATERIAL DE CONSUMO                                                 0OF00000000
000006221100000000000101000000000000000200000000000000000000000000201202000000000000500000C000000000000Despesa Orcada para o Exercicio Referente Proj/Atv-Despesa 2001 3390 30 00 00 000 MATERIAL DE CONSUMO                                                 0OF00000000
000005221101000000000101000000000000000200000000000000000000000000201202000000000000100000D000000000000Despesa Orcada para o Exercicio Referente Proj/Atv-Despesa 2001 3390 36 00 00 000 OUTROS SERVIÇOS DE TERCEIROS - PESSOA FÍSICA                        0OF00000000
000006221100000000000101000000000000000200000000000000000000000000201202000000000000100000C000000000000Despesa Orcada para o Exercicio Referente Proj/Atv-Despesa 2001 3390 36 00 00 000 OUTROS SERVIÇOS DE TERCEIROS - PESSOA FÍSICA                        0OF00000000
000005221101000000000101000000000000000200000000000000000000000000201202000000000005000000D000000000000Despesa Orcada para o Exercicio Referente Proj/Atv-Despesa 2001 3390 39 00 00 000 OUTROS SERVIÇOS DE TERCEIROS - PESSOA JURÍDICA                      0OF00000000
000006221100000000000101000000000000000200000000000000000000000000201202000000000005000000C000000000000Despesa Orcada para o Exercicio Referente Proj/Atv-Despesa 2001 3390 39 00 00 000 OUTROS SERVIÇOS DE TERCEIROS - PESSOA JURÍDICA                      0OF00000000
000005221101000000000101000000000000000200000000000000000000000000201202000000000002000000D000000000000Despesa Orcada para o Exercicio Referente Proj/Atv-Despesa 2001 3390 40 00 00 000 SERVIÇOS DE TECNOLOGIA DA INFORMAÇÃO E COMUNICAÇÃO - PJ             0OF00000000
000006221100000000000101000000000000000200000000000000000000000000201202000000000002000000C000000000000Despesa Orcada para o Exercicio Referente Proj/Atv-Despesa 2001 3390 40 00 00 000 SERVIÇOS DE TECNOLOGIA DA INFORMAÇÃO E COMUNICAÇÃO - PJ             0OF00000000
000005221101000000000101000000000000000200000000000000000000000000201202000000000004000000D000000000000Despesa Orcada para o Exercicio Referente Proj/Atv-Despesa 2001 3390 93 00 00 000 INDENIZAÇÕES E RESTITUIÇÕES                                         0OF00000000
000006221100000000000101000000000000000200000000000000000000000000201202000000000004000000C000000000000Despesa Orcada para o Exercicio Referente Proj/Atv-Despesa 2001 3390 93 00 00 000 INDENIZAÇÕES E RESTITUIÇÕES                                         0OF00000000
000005221101000000000101000000000000000200000000000000000000000000201202000000000002000000D000000000000Despesa Orcada para o Exercicio Referente Proj/Atv-Despesa 2001 4490 52 00 00 000 EQUIPAMENTOS E MATERIAL PERMANENTE                                  0OF00000000
000006221100000000000101000000000000000200000000000000000000000000201202000000000002000000C000000000000Despesa Orcada para o Exercicio Referente Proj/Atv-Despesa 2001 4490 52 00 00 000 EQUIPAMENTOS E MATERIAL PERMANENTE                                  0OF00000000
000005221101000000000101000000000000000200000000000000000000000000201202000000000000100000D000000000000Despesa Orcada para o Exercicio Referente Proj/Atv-Despesa 2002 3190 16 00 00 000 OUTRAS DESPESAS VARIÁVEIS - PESSOAL CIVIL                           0OF00000000
000006221100000000000101000000000000000200000000000000000000000000201202000000000000100000C000000000000Despesa Orcada para o Exercicio Referente Proj/Atv-Despesa 2002 3190 16 00 00 000 OUTRAS DESPESAS VARIÁVEIS - PESSOAL CIVIL                           0OF00000000
000005221101000000000101000000000000000200000000000000000000000000201202000000000004000000D000000000000Despesa Orcada para o Exercicio Referente Proj/Atv-Despesa 2002 3390 14 00 00 000 DIÁRIAS -  CIVIL                                                    0OF00000000
000006221100000000000101000000000000000200000000000000000000000000201202000000000004000000C000000000000Despesa Orcada para o Exercicio Referente Proj/Atv-Despesa 2002 3390 14 00 00 000 DIÁRIAS -  CIVIL                                                    0OF00000000
000005221101000000000101000000000000000200000000000000000000000000201202000000000004000000D000000000000Despesa Orcada para o Exercicio Referente Proj/Atv-Despesa 2002 3390 30 00 00 000 MATERIAL DE CONSUMO                                                 0OF00000000
000006221100000000000101000000000000000200000000000000000000000000201202000000000004000000C000000000000Despesa Orcada para o Exercicio Referente Proj/Atv-Despesa 2002 3390 30 00 00 000 MATERIAL DE CONSUMO                                                 0OF00000000
000005221101000000000101000000000000000200000000000000000000000000201202000000000004000000D000000000000Despesa Orcada para o Exercicio Referente Proj/Atv-Despesa 2002 3390 35 00 00 000 SERVIÇOS DE CONSULTORIA                                             0OF00000000
000006221100000000000101000000000000000200000000000000000000000000201202000000000004000000C000000000000Despesa Orcada para o Exercicio Referente Proj/Atv-Despesa 2002 3390 35 00 00 000 SERVIÇOS DE CONSULTORIA                                             0OF00000000
000005221101000000000101000000000000000200000000000000000000000000201202000000000000100000D000000000000Despesa Orcada para o Exercicio Referente Proj/Atv-Despesa 2002 3390 36 00 00 000 OUTROS SERVIÇOS DE TERCEIROS - PESSOA FÍSICA                        0OF00000000
000006221100000000000101000000000000000200000000000000000000000000201202000000000000100000C000000000000Despesa Orcada para o Exercicio Referente Proj/Atv-Despesa 2002 3390 36 00 00 000 OUTROS SERVIÇOS DE TERCEIROS - PESSOA FÍSICA                        0OF00000000
000005221101000000000101000000000000000200000000000000000000000000201202000000000007000000D000000000000Despesa Orcada para o Exercicio Referente Proj/Atv-Despesa 2002 3390 39 00 00 000 OUTROS SERVIÇOS DE TERCEIROS - PESSOA JURÍDICA                      0OF00000000
000006221100000000000101000000000000000200000000000000000000000000201202000000000007000000C000000000000Despesa Orcada para o Exercicio Referente Proj/Atv-Despesa 2002 3390 39 00 00 000 OUTROS SERVIÇOS DE TERCEIROS - PESSOA JURÍDICA                      0OF00000000
000005221101000000000101000000000000000200000000000000000000000000201202000000000002000000D000000000000Despesa Orcada para o Exercicio Referente Proj/Atv-Despesa 2002 3390 40 00 00 000 SERVIÇOS DE TECNOLOGIA DA INFORMAÇÃO E COMUNICAÇÃO - PJ             0OF00000000
000006221100000000000101000000000000000200000000000000000000000000201202000000000002000000C000000000000Despesa Orcada para o Exercicio Referente Proj/Atv-Despesa 2002 3390 40 00 00 000 SERVIÇOS DE TECNOLOGIA DA INFORMAÇÃO E COMUNICAÇÃO - PJ             0OF00000000
000005221101000000000101000000000000000200000000000000000000000000201202000000000000461446D000000000000Despesa Orcada para o Exercicio Referente Proj/Atv-Despesa 2002 3390 93 00 00 000 INDENIZAÇÕES E RESTITUIÇÕES                                         0OF00000000
000006221100000000000101000000000000000200000000000000000000000000201202000000000000461446C000000000000Despesa Orcada para o Exercicio Referente Proj/Atv-Despesa 2002 3390 93 00 00 000 INDENIZAÇÕES E RESTITUIÇÕES                                         0OF00000000
000005221101000000000101000000000000000200000000000000000000000000201202000000000016786314D000000000000Despesa Orcada para o Exercicio Referente Proj/Atv-Despesa 2002 4490 52 00 00 000 EQUIPAMENTOS E MATERIAL PERMANENTE                                  0OF00000000
000006221100000000000101000000000000000200000000000000000000000000201202000000000016786314C000000000000Despesa Orcada para o Exercicio Referente Proj/Atv-Despesa 2002 4490 52 00 00 000 EQUIPAMENTOS E MATERIAL PERMANENTE                                  0OF00000000
000005221101000000000101000000000000000200000000000000000000000000201202000000000000100000D000000000000Despesa Orcada para o Exercicio Referente Proj/Atv-Despesa 2116 3390 30 00 00 000 MATERIAL DE CONSUMO                                                 0OF00000000
000006221100000000000101000000000000000200000000000000000000000000201202000000000000100000C000000000000Despesa Orcada para o Exercicio Referente Proj/Atv-Despesa 2116 3390 30 00 00 000 MATERIAL DE CONSUMO                                                 0OF00000000
000005221101000000000101000000000000000200000000000000000000000000201202000000000003000000D000000000000Despesa Orcada para o Exercicio Referente Proj/Atv-Despesa 2116 3390 39 00 00 000 OUTROS SERVIÇOS DE TERCEIROS - PESSOA JURÍDICA                      0OF00000000
000006221100000000000101000000000000000200000000000000000000000000201202000000000003000000C000000000000Despesa Orcada para o Exercicio Referente Proj/Atv-Despesa 2116 3390 39 00 00 000 OUTROS SERVIÇOS DE TERCEIROS - PESSOA JURÍDICA                      0OF00000000
000005221101000000000101000000000000000200000000000000000000000000201202000000000001200000D000000000000Despesa Orcada para o Exercicio Referente Proj/Atv-Despesa 2116 3390 40 00 00 000 SERVIÇOS DE TECNOLOGIA DA INFORMAÇÃO E COMUNICAÇÃO - PJ             0OF00000000
000006221100000000000101000000000000000200000000000000000000000000201202000000000001200000C000000000000Despesa Orcada para o Exercicio Referente Proj/Atv-Despesa 2116 3390 40 00 00 000 SERVIÇOS DE TECNOLOGIA DA INFORMAÇÃO E COMUNICAÇÃO - PJ             0OF00000000
000005221101000000000101000000000000000200000000000000000000000000201202000000000000200000D000000000000Despesa Orcada para o Exercicio Referente Proj/Atv-Despesa 2116 4490 52 00 00 000 EQUIPAMENTOS E MATERIAL PERMANENTE                                  0OF00000000
000006221100000000000101000000000000000200000000000000000000000000201202000000000000200000C000000000000Despesa Orcada para o Exercicio Referente Proj/Atv-Despesa 2116 4490 52 00 00 000 EQUIPAMENTOS E MATERIAL PERMANENTE                                  0OF00000000
000005221101000000000101000000000000000200000000000000000000000000201202000000000000050000D000000000000Despesa Orcada para o Exercicio Referente Proj/Atv-Despesa 2001 4490 40 00 00 000 SERVIÇOS DE TECNOLOGIA DA INFORMAÇÃO E COMUNICAÇÃO - PJ             0OF00000000
000006221100000000000101000000000000000200000000000000000000000000201202000000000000050000C000000000000Despesa Orcada para o Exercicio Referente Proj/Atv-Despesa 2001 4490 40 00 00 000 SERVIÇOS DE TECNOLOGIA DA INFORMAÇÃO E COMUNICAÇÃO - PJ             0OF00000000
000005221101000000000101000000000000000200000000000000000000000000201202000000000000050000D000000000000Despesa Orcada para o Exercicio Referente Proj/Atv-Despesa 2002 4490 40 00 00 000 SERVIÇOS DE TECNOLOGIA DA INFORMAÇÃO E COMUNICAÇÃO - PJ             0OF00000000
000006221100000000000101000000000000000200000000000000000000000000201202000000000000050000C000000000000Despesa Orcada para o Exercicio Referente Proj/Atv-Despesa 2002 4490 40 00 00 000 SERVIÇOS DE TECNOLOGIA DA INFORMAÇÃO E COMUNICAÇÃO - PJ             0OF00000000
000002371101000000000101000000000000000200000000000000000000000000201202000000000090536030C000000000000Despesa Orcada para o Exercicio Transferência entre contas                                                                                            0PP00000000
000002371102000000000101000000000000000200000000000000000000000000201202000000000090536030D000000000000Despesa Orcada para o Exercicio Transferência entre contas                                                                                            0PP00000000
000002371201000000000101000000000000000200000000000000000000000000201202000000000105151862D000000000000Despesa Orcada para o Exercicio Transferência entre contas                                                                                            0PP00000000
000002371202000000000101000000000000000200000000000000000000000000201202000000000105151862C000000000000Despesa Orcada para o Exercicio Transferência entre contas                                                                                            0PP00000000
000002371301000000000101000000000000000200000000000000000000000000201202000000000013152636C000000000000Despesa Orcada para o Exercicio Transferência entre contas                                                                                            0PP00000000
000002371302000000000101000000000000000200000000000000000000000000201202000000000013152636D000000000000Despesa Orcada para o Exercicio Transferência entre contas                                                                                            0PP00000000
000006221100000000000101000000000000000300000000000002020020000480201202000000000000550000D000000000000Empenhos efetuados n/data Referente empenho 000048/2020 - RIO GRANDE ENERGIA - RGE                                                                    1OF00000000
000006221301000000000101000000000000000300000000000002020020000480201202000000000000550000C000000000000Empenhos efetuados n/data Referente empenho 000048/2020 - RIO GRANDE ENERGIA - RGE                                                                    1OF00000000
000006229201010000000101000000000000000300000000000002020020000480201202000000000000550000C000000000000Empenhos efetuados n/data Referente empenho 000048/2020 - RIO GRANDE ENERGIA - RGE                                                                    1OF00000000
000005229201010000000101000000000000000300000000000002020020000480201202000000000000550000D000000000000Empenhos efetuados n/data Referente empenho 000048/2020 - RIO GRANDE ENERGIA - RGE                                                                    1OF00000000
000008211101000100000101000000000000000300000000000002020020000480201202000000000000550000D000000000000Empenhos efetuados n/data Referente empenho 000048/2020 - RIO GRANDE ENERGIA - RGE                                                                    1CF00010000
000008211201000100000101000000000000000300000000000002020020000480201202000000000000550000C000000000000Empenhos efetuados n/data Referente empenho 000048/2020 - RIO GRANDE ENERGIA - RGE                                                                    1CF00010000
000006221100000000000101000000000000000400000000000002020020000490201202000000000000018000D000000000000Empenhos efetuados n/data Referente empenho 000049/2020 - CORSAN - COMP. RIOGRANDENSE DE SANEAMENTO                                                   1OF00000000
000006221301000000000101000000000000000400000000000002020020000490201202000000000000018000C000000000000Empenhos efetuados n/data Referente empenho 000049/2020 - CORSAN - COMP. RIOGRANDENSE DE SANEAMENTO                                                   1OF00000000
000006229201010000000101000000000000000400000000000002020020000490201202000000000000018000C000000000000Empenhos efetuados n/data Referente empenho 000049/2020 - CORSAN - COMP. RIOGRANDENSE DE SANEAMENTO                                                   1OF00000000
000005229201010000000101000000000000000400000000000002020020000490201202000000000000018000D000000000000Empenhos efetuados n/data Referente empenho 000049/2020 - CORSAN - COMP. RIOGRANDENSE DE SANEAMENTO                                                   1OF00000000
000008211101000100000101000000000000000400000000000002020020000490201202000000000000018000D000000000000Empenhos efetuados n/data Referente empenho 000049/2020 - CORSAN - COMP. RIOGRANDENSE DE SANEAMENTO                                                   1CF00010000
000008211201000100000101000000000000000400000000000002020020000490201202000000000000018000C000000000000Empenhos efetuados n/data Referente empenho 000049/2020 - CORSAN - COMP. RIOGRANDENSE DE SANEAMENTO                                                   1CF00010000
000006221100000000000101000000000000000500000000000002020020000640201202000000000000037400D000000000000Empenhos efetuados n/data Referente empenho 000064/2020 - AR CONTADORES CERTIFICAÇÃO DIGITAL LTDA - ME                                                1OF00000000
000006221301000000000101000000000000000500000000000002020020000640201202000000000000037400C000000000000Empenhos efetuados n/data Referente empenho 000064/2020 - AR CONTADORES CERTIFICAÇÃO DIGITAL LTDA - ME                                                1OF00000000
000006229201010000000101000000000000000500000000000002020020000640201202000000000000037400C000000000000Empenhos efetuados n/data Referente empenho 000064/2020 - AR CONTADORES CERTIFICAÇÃO DIGITAL LTDA - ME                                                1OF00000000
000005229201010000000101000000000000000500000000000002020020000640201202000000000000037400D000000000000Empenhos efetuados n/data Referente empenho 000064/2020 - AR CONTADORES CERTIFICAÇÃO DIGITAL LTDA - ME                                                1OF00000000
000008211101000100000101000000000000000500000000000002020020000640201202000000000000037400D000000000000Empenhos efetuados n/data Referente empenho 000064/2020 - AR CONTADORES CERTIFICAÇÃO DIGITAL LTDA - ME                                                1CF00010000
000008211201000100000101000000000000000500000000000002020020000640201202000000000000037400C000000000000Empenhos efetuados n/data Referente empenho 000064/2020 - AR CONTADORES CERTIFICAÇÃO DIGITAL LTDA - ME                                                1CF00010000
000006221100000000000101000000000000000600000000000002020020000650201202000000000000639848D000000000000Empenhos efetuados n/data Referente empenho 000065/2020 - ABASE SISTEMAS E SOLUÇOES LTDA                                                              1OF00000000
000006221301000000000101000000000000000600000000000002020020000650201202000000000000639848C000000000000Empenhos efetuados n/data Referente empenho 000065/2020 - ABASE SISTEMAS E SOLUÇOES LTDA                                                              1OF00000000
000006229201010000000101000000000000000600000000000002020020000650201202000000000000639848C000000000000Empenhos efetuados n/data Referente empenho 000065/2020 - ABASE SISTEMAS E SOLUÇOES LTDA                                                              1OF00000000
000005229201010000000101000000000000000600000000000002020020000650201202000000000000639848D000000000000Empenhos efetuados n/data Referente empenho 000065/2020 - ABASE SISTEMAS E SOLUÇOES LTDA                                                              1OF00000000
000008211101000100000101000000000000000600000000000002020020000650201202000000000000639848D000000000000Empenhos efetuados n/data Referente empenho 000065/2020 - ABASE SISTEMAS E SOLUÇOES LTDA                                                              1CF00010000
000008211201000100000101000000000000000600000000000002020020000650201202000000000000639848C000000000000Empenhos efetuados n/data Referente empenho 000065/2020 - ABASE SISTEMAS E SOLUÇOES LTDA                                                              1CF00010000
000006221100000000000101000000000000000700000000000002020020000660201202000000000000119880D000000000000Empenhos efetuados n/data Referente empenho 000066/2020 - DIEGO KREMER DOS SANTOS- SKY NET TECNOLOGIA                                                 1OF00000000
000006221301000000000101000000000000000700000000000002020020000660201202000000000000119880C000000000000Empenhos efetuados n/data Referente empenho 000066/2020 - DIEGO KREMER DOS SANTOS- SKY NET TECNOLOGIA                                                 1OF00000000
000006229201010000000101000000000000000700000000000002020020000660201202000000000000119880C000000000000Empenhos efetuados n/data Referente empenho 000066/2020 - DIEGO KREMER DOS SANTOS- SKY NET TECNOLOGIA                                                 1OF00000000
000005229201010000000101000000000000000700000000000002020020000660201202000000000000119880D000000000000Empenhos efetuados n/data Referente empenho 000066/2020 - DIEGO KREMER DOS SANTOS- SKY NET TECNOLOGIA                                                 1OF00000000
000008211101000100000101000000000000000700000000000002020020000660201202000000000000119880D000000000000Empenhos efetuados n/data Referente empenho 000066/2020 - DIEGO KREMER DOS SANTOS- SKY NET TECNOLOGIA                                                 1CF00010000
000008211201000100000101000000000000000700000000000002020020000660201202000000000000119880C000000000000Empenhos efetuados n/data Referente empenho 000066/2020 - DIEGO KREMER DOS SANTOS- SKY NET TECNOLOGIA                                                 1CF00010000
000008999007201901000101000000000000000800000000000000000000000000201202000000000018230081D000000000000RECLASSIFICAÇÃO CONTÁBIL Encerramento dos controles de superavit relativo a 2019.                                                                     0CF00000000
000007990000000000000101000000000000000800000000000000000000000000201202000000000018230081C000000000000RECLASSIFICAÇÃO CONTÁBIL Encerramento dos controles de superavit relativo a 2019.                                                                     0CF00000000
000008999007201903000101000000000000000900000000000000000000000000201202000000000002183704D000000000000RECLASSIFICAÇÃO CONTÁBIL Encerramento dos controles de superavit relativo a 2019.                                                                     0CF00000000
000007990000000000000101000000000000000900000000000000000000000000201202000000000002183704C000000000000RECLASSIFICAÇÃO CONTÁBIL Encerramento dos controles de superavit relativo a 2019.                                                                     0CF00000000
000008999007201901000101000000000000001000000000000000000000000000201202000000000023962164C000000000000CONTROLE DO LIMITE DE SUPLEMENTACAO Início do controle do limite de suplementação por decreto do Poder Legislativo conforme art. 7º da Lei nº 2.918/200CF00000000
000007990000000000000101000000000000001000000000000000000000000000201202000000000023962164D000000000000CONTROLE DO LIMITE DE SUPLEMENTACAO Início do controle do limite de suplementação por decreto do Poder Legislativo conforme art. 7º da Lei nº 2.918/200CF00000000
000006221100000000000101000000000000001100000000000000000000000000301202000000000001000000C000000000000CREDITO ESPECIAL CFE Referente suplementação dotação 0034 3390 08 00 00 000 -Lei 2924 -Decreto: 000002/2020                                           9OF00000000
000005221202010000000101000000000000001100000000000000000000000000301202000000000001000000D000000000000CREDITO ESPECIAL CFE Referente suplementação dotação 0034 3390 08 00 00 000 -Lei 2924 -Decreto: 000002/2020                                           9OF00000000
000005221303000000000101000000000000001100000000000000000000000000301202000000000001000000D000000000000CREDITO ESPECIAL CFE Referente suplementação dotação 0034 3390 08 00 00 000 -Lei 2924 -Decreto: 000002/2020                                           9OF00000000
000005221399000000000101000000000000001100000000000000000000000000301202000000000001000000C000000000000CREDITO ESPECIAL CFE Referente suplementação dotação 0034 3390 08 00 00 000 -Lei 2924 -Decreto: 000002/2020                                           9OF00000000
000006221100000000000101000000000000001200000000000000000000000000301202000000000001000000C000000000000CREDITO ESPECIAL CFE Referente suplementação dotação 0034 3190 11 00 00 000 -Lei 2924 -Decreto: 000002/2020                                           9OF00000000
000005221202010000000101000000000000001200000000000000000000000000301202000000000001000000D000000000000CREDITO ESPECIAL CFE Referente suplementação dotação 0034 3190 11 00 00 000 -Lei 2924 -Decreto: 000002/2020                                           9OF00000000
000005221303000000000101000000000000001200000000000000000000000000301202000000000001000000D000000000000CREDITO ESPECIAL CFE Referente suplementação dotação 0034 3190 11 00 00 000 -Lei 2924 -Decreto: 000002/2020                                           9OF00000000
000005221399000000000101000000000000001200000000000000000000000000301202000000000001000000C000000000000CREDITO ESPECIAL CFE Referente suplementação dotação 0034 3190 11 00 00 000 -Lei 2924 -Decreto: 000002/2020                                           9OF00000000
000006221100000000000101000000000000001300000000000000000000000000301202000000000002000000D000000000000REDUCAO ORCAMENTARIA CFE Referente dotação 2002 4490 52 00 00 000 -Lei 2924 -Decreto: 000002/2020                                                     9OF00000000
000005221309000000000101000000000000001300000000000000000000000000301202000000000002000000C000000000000REDUCAO ORCAMENTARIA CFE Referente dotação 2002 4490 52 00 00 000 -Lei 2924 -Decreto: 000002/2020                                                     9OF00000000
000001132105000000000101000000000000001400000000000000000000000000901202000000000000001533C000000000000BAIXA Baixa do valor objeto da PER/DECOMP nº 22074.00371.240919.1.2.04-5000 em virtude do indeferimento da mesma pela SRFB e da irrelevância do valor.0PF00000000
000003639101000000000101000000000000001400000000000000000000000000901202000000000000001533D000000000000BAIXA Baixa do valor objeto da PER/DECOMP nº 22074.00371.240919.1.2.04-5000 em virtude do indeferimento da mesma pela SRFB e da irrelevância do valor.0PF00000000
000008211101000100000101000000000000001500000000000000000000000000901202000000000000001533D000000000000BAIXA Baixa do valor objeto da PER/DECOMP nº 22074.00371.240919.1.2.04-5000 em virtude do indeferimento da mesma pela SRFB e da irrelevância do valor.0CF00010000
000008211301000100000101000000000000001500000000000000000000000000901202000000000000001533C000000000000BAIXA Baixa do valor objeto da PER/DECOMP nº 22074.00371.240919.1.2.04-5000 em virtude do indeferimento da mesma pela SRFB e da irrelevância do valor.0CF00010000
000002131101010100000101000000000000001600000000000002020020000641301202000000000000037400C000000000000Liquidacao de Empenhos n/data Liquidação empenho 000064/2020 - AR CONTADORES CERTIFICAÇÃO DIGITAL LTDA - ME CERTIFICADO DIGITAL -                     1PF00010000
000006221301000000000101000000000000001600000000000002020020000641301202000000000000037400D000000000000Liquidacao de Empenhos n/data Liquidação empenho 000064/2020 - AR CONTADORES CERTIFICAÇÃO DIGITAL LTDA - ME CERTIFICADO DIGITAL -                     1OF00000000
000006221303000000000101000000000000001600000000000002020020000641301202000000000000037400C000000000000Liquidacao de Empenhos n/data Liquidação empenho 000064/2020 - AR CONTADORES CERTIFICAÇÃO DIGITAL LTDA - ME CERTIFICADO DIGITAL -                     1OF00000000
000003323111000000000101000000000000001600000000000002020020000641301202000000000000037400D000000000000Liquidacao de Empenhos n/data Liquidação empenho 000064/2020 - AR CONTADORES CERTIFICAÇÃO DIGITAL LTDA - ME CERTIFICADO DIGITAL -                     1PF00000000
000006229201010000000101000000000000001600000000000002020020000641301202000000000000037400D000000000000Liquidacao de Empenhos n/data Liquidação empenho 000064/2020 - AR CONTADORES CERTIFICAÇÃO DIGITAL LTDA - ME CERTIFICADO DIGITAL -                     1OF00000000
000006229201030000000101000000000000001600000000000002020020000641301202000000000000037400C000000000000Liquidacao de Empenhos n/data Liquidação empenho 000064/2020 - AR CONTADORES CERTIFICAÇÃO DIGITAL LTDA - ME CERTIFICADO DIGITAL -                     1OF00000000
000008211301000100000101000000000000001600000000000002020020000641301202000000000000037400C000000000000Liquidacao de Empenhos n/data Liquidação empenho 000064/2020 - AR CONTADORES CERTIFICAÇÃO DIGITAL LTDA - ME CERTIFICADO DIGITAL -                     1CF00010000
000008211201000100000101000000000000001600000000000002020020000641301202000000000000037400D000000000000Liquidacao de Empenhos n/data Liquidação empenho 000064/2020 - AR CONTADORES CERTIFICAÇÃO DIGITAL LTDA - ME CERTIFICADO DIGITAL -                     1CF00010000
000004511202000000000101000000000000001700000000000000000000000001401202000000000013000000C000000000000Recebimento de Duodécimo DUODECIMO DE JANEIRO DE 2020                                                                                                 0PF00000000
000001111119120500000101000000000000001700000000000000000000000001401202000000000013000000D000000000000Recebimento de Duodécimo DUODECIMO DE JANEIRO DE 2020                                                                                                 0PF00010000
000001111119120500000101000000000000001700000000000000000000000001401202000000000012962600C000000000000APLICACAO VALOR APLICADO                                                                                                                              0PF00010000
000001111150032200000101000000000000001700000000000000000000000001401202000000000012962600D000000000000APLICACAO VALOR APLICADO                                                                                                                              0PF00010000
000007211100010000000101000000000000001800000000000000000000000001401202000000000013000000D000000000000Recebimento de Duodécimo DUODECIMO DE JANEIRO DE 2020                                                                                                 0CF00010000
000008211101000100000101000000000000001800000000000000000000000001401202000000000013000000C000000000000Recebimento de Duodécimo DUODECIMO DE JANEIRO DE 2020                                                                                                 0CF00010000
000002131101010100000101000000000000001900000000000002020020000641401202000000000000037400D000000000000Pagamento de Empenho Referente pagamento do empenho nro 000064/2020 - AR CONTADORES CERTIFICAÇÃO DIGITAL LTDA - ME                                    1PF00010000
000006221303000000000101000000000000001900000000000002020020000641401202000000000000037400D000000000000Pagamento de Empenho Referente pagamento do empenho nro 000064/2020 - AR CONTADORES CERTIFICAÇÃO DIGITAL LTDA - ME                                    1OF00000000
000006221304000000000101000000000000001900000000000002020020000641401202000000000000037400C000000000000Pagamento de Empenho Referente pagamento do empenho nro 000064/2020 - AR CONTADORES CERTIFICAÇÃO DIGITAL LTDA - ME                                    1OF00000000
000001111119120500000101000000000000001900000000000002020020000641401202000000000000037400C000000000000Pagamento de Empenho Referente pagamento do empenho nro 000064/2020 - AR CONTADORES CERTIFICAÇÃO DIGITAL LTDA - ME - BANRISUL C/CAMARA TITULO = 374,001PF00010000
000006229201030000000101000000000000001900000000000002020020000641401202000000000000037400D000000000000Pagamento de Empenho Referente pagamento do empenho nro 000064/2020 - AR CONTADORES CERTIFICAÇÃO DIGITAL LTDA - ME                                    1OF00000000
000006229201040000000101000000000000001900000000000002020020000641401202000000000000037400C000000000000Pagamento de Empenho Referente pagamento do empenho nro 000064/2020 - AR CONTADORES CERTIFICAÇÃO DIGITAL LTDA - ME                                    1OF00000000
000008211301000100000101000000000000001900000000000002020020000641401202000000000000037400D000000000000Pagamento de Empenho Referente pagamento do empenho nro 000064/2020 - AR CONTADORES CERTIFICAÇÃO DIGITAL LTDA - ME                                    1CF00010000
000008211400010000000101000000000000001900000000000002020020000641401202000000000000037400C000000000000Pagamento de Empenho Referente pagamento do empenho nro 000064/2020 - AR CONTADORES CERTIFICAÇÃO DIGITAL LTDA - ME                                    1CF00010000
000006221100000000000101000000000000002000000000000002020020002981701202000000000000192000D000000000000Empenhos efetuados n/data Referente empenho 000298/2020 - INLEGIS CONSULTORIA E TREINAMENTO EIRELI                                                    1OF00000000
000006221301000000000101000000000000002000000000000002020020002981701202000000000000192000C000000000000Empenhos efetuados n/data Referente empenho 000298/2020 - INLEGIS CONSULTORIA E TREINAMENTO EIRELI                                                    1OF00000000
000006229201010000000101000000000000002000000000000002020020002981701202000000000000192000C000000000000Empenhos efetuados n/data Referente empenho 000298/2020 - INLEGIS CONSULTORIA E TREINAMENTO EIRELI                                                    1OF00000000
000005229201010000000101000000000000002000000000000002020020002981701202000000000000192000D000000000000Empenhos efetuados n/data Referente empenho 000298/2020 - INLEGIS CONSULTORIA E TREINAMENTO EIRELI                                                    1OF00000000
000008211101000100000101000000000000002000000000000002020020002981701202000000000000192000D000000000000Empenhos efetuados n/data Referente empenho 000298/2020 - INLEGIS CONSULTORIA E TREINAMENTO EIRELI                                                    1CF00010000
000008211201000100000101000000000000002000000000000002020020002981701202000000000000192000C000000000000Empenhos efetuados n/data Referente empenho 000298/2020 - INLEGIS CONSULTORIA E TREINAMENTO EIRELI                                                    1CF00010000
000002131101010100000101000000000000002100000000000002020020002981701202000000000000192000C000000000000Liquidacao de Empenhos n/data Liquidação empenho 000298/2020 - INLEGIS CONSULTORIA E TREINAMENTO EIRELI 03 TAXAS DE INSCRIÇÃO PARA                    1PF00010000
000006221301000000000101000000000000002100000000000002020020002981701202000000000000192000D000000000000Liquidacao de Empenhos n/data Liquidação empenho 000298/2020 - INLEGIS CONSULTORIA E TREINAMENTO EIRELI 03 TAXAS DE INSCRIÇÃO PARA                    1OF00000000
000006221303000000000101000000000000002100000000000002020020002981701202000000000000192000C000000000000Liquidacao de Empenhos n/data Liquidação empenho 000298/2020 - INLEGIS CONSULTORIA E TREINAMENTO EIRELI 03 TAXAS DE INSCRIÇÃO PARA                    1OF00000000
000003323130000000000101000000000000002100000000000002020020002981701202000000000000192000D000000000000Liquidacao de Empenhos n/data Liquidação empenho 000298/2020 - INLEGIS CONSULTORIA E TREINAMENTO EIRELI 03 TAXAS DE INSCRIÇÃO PARA                    1PF00000000
000006229201010000000101000000000000002100000000000002020020002981701202000000000000192000D000000000000Liquidacao de Empenhos n/data Liquidação empenho 000298/2020 - INLEGIS CONSULTORIA E TREINAMENTO EIRELI 03 TAXAS DE INSCRIÇÃO PARA                    1OF00000000
000006229201030000000101000000000000002100000000000002020020002981701202000000000000192000C000000000000Liquidacao de Empenhos n/data Liquidação empenho 000298/2020 - INLEGIS CONSULTORIA E TREINAMENTO EIRELI 03 TAXAS DE INSCRIÇÃO PARA                    1OF00000000
000008211301000100000101000000000000002100000000000002020020002981701202000000000000192000C000000000000Liquidacao de Empenhos n/data Liquidação empenho 000298/2020 - INLEGIS CONSULTORIA E TREINAMENTO EIRELI 03 TAXAS DE INSCRIÇÃO PARA                    1CF00010000
000008211201000100000101000000000000002100000000000002020020002981701202000000000000192000D000000000000Liquidacao de Empenhos n/data Liquidação empenho 000298/2020 - INLEGIS CONSULTORIA E TREINAMENTO EIRELI 03 TAXAS DE INSCRIÇÃO PARA                    1CF00010000
000006221100000000000101000000000000002200000000000002020020003001701202000000000000115000D000000000000Empenhos efetuados n/data Referente empenho 000300/2020 - FRANCISCO CALEGARI  DE OLIVEIRA - DIARIAS                                                   1OF00000000
000006221301000000000101000000000000002200000000000002020020003001701202000000000000115000C000000000000Empenhos efetuados n/data Referente empenho 000300/2020 - FRANCISCO CALEGARI  DE OLIVEIRA - DIARIAS                                                   1OF00000000
000006229201010000000101000000000000002200000000000002020020003001701202000000000000115000C000000000000Empenhos efetuados n/data Referente empenho 000300/2020 - FRANCISCO CALEGARI  DE OLIVEIRA - DIARIAS                                                   1OF00000000
000005229201010000000101000000000000002200000000000002020020003001701202000000000000115000D000000000000Empenhos efetuados n/data Referente empenho 000300/2020 - FRANCISCO CALEGARI  DE OLIVEIRA - DIARIAS                                                   1OF00000000
000008211101000100000101000000000000002200000000000002020020003001701202000000000000115000D000000000000Empenhos efetuados n/data Referente empenho 000300/2020 - FRANCISCO CALEGARI  DE OLIVEIRA - DIARIAS                                                   1CF00010000
000008211201000100000101000000000000002200000000000002020020003001701202000000000000115000C000000000000Empenhos efetuados n/data Referente empenho 000300/2020 - FRANCISCO CALEGARI  DE OLIVEIRA - DIARIAS                                                   1CF00010000
000002131101010100000101000000000000002300000000000002020020003001701202000000000000115000C000000000000Liquidacao de Empenhos n/data Liquidação empenho 000300/2020 - FRANCISCO CALEGARI  DE OLIVEIRA - DIARIAS RESSARCIMENTO DE DESPESAS                    1PF00010000
000006221301000000000101000000000000002300000000000002020020003001701202000000000000115000D000000000000Liquidacao de Empenhos n/data Liquidação empenho 000300/2020 - FRANCISCO CALEGARI  DE OLIVEIRA - DIARIAS RESSARCIMENTO DE DESPESAS                    1OF00000000
000006221303000000000101000000000000002300000000000002020020003001701202000000000000115000C000000000000Liquidacao de Empenhos n/data Liquidação empenho 000300/2020 - FRANCISCO CALEGARI  DE OLIVEIRA - DIARIAS RESSARCIMENTO DE DESPESAS                    1OF00000000
000006229201010000000101000000000000002300000000000002020020003001701202000000000000115000D000000000000Liquidacao de Empenhos n/data Liquidação empenho 000300/2020 - FRANCISCO CALEGARI  DE OLIVEIRA - DIARIAS RESSARCIMENTO DE DESPESAS                    1OF00000000
000006229201030000000101000000000000002300000000000002020020003001701202000000000000115000C000000000000Liquidacao de Empenhos n/data Liquidação empenho 000300/2020 - FRANCISCO CALEGARI  DE OLIVEIRA - DIARIAS RESSARCIMENTO DE DESPESAS                    1OF00000000
000003996100000000000101000000000000002300000000000002020020003001701202000000000000115000D000000000000Liquidacao de Empenhos n/data Liquidação empenho 000300/2020 - FRANCISCO CALEGARI  DE OLIVEIRA - DIARIAS RESSARCIMENTO DE DESPESAS                    1PF00000000
000008211301000100000101000000000000002300000000000002020020003001701202000000000000115000C000000000000Liquidacao de Empenhos n/data Liquidação empenho 000300/2020 - FRANCISCO CALEGARI  DE OLIVEIRA - DIARIAS RESSARCIMENTO DE DESPESAS                    1CF00010000
000008211201000100000101000000000000002300000000000002020020003001701202000000000000115000D000000000000Liquidacao de Empenhos n/data Liquidação empenho 000300/2020 - FRANCISCO CALEGARI  DE OLIVEIRA - DIARIAS RESSARCIMENTO DE DESPESAS                    1CF00010000
000006221100000000000101000000000000002400000000000002020020003011701202000000000000144529D000000000000Empenhos efetuados n/data Referente empenho 000301/2020 - FRANCISCO CALEGARI  DE OLIVEIRA - DIARIAS                                                   1OF00000000
000006221301000000000101000000000000002400000000000002020020003011701202000000000000144529C000000000000Empenhos efetuados n/data Referente empenho 000301/2020 - FRANCISCO CALEGARI  DE OLIVEIRA - DIARIAS                                                   1OF00000000
000006229201010000000101000000000000002400000000000002020020003011701202000000000000144529C000000000000Empenhos efetuados n/data Referente empenho 000301/2020 - FRANCISCO CALEGARI  DE OLIVEIRA - DIARIAS                                                   1OF00000000
000005229201010000000101000000000000002400000000000002020020003011701202000000000000144529D000000000000Empenhos efetuados n/data Referente empenho 000301/2020 - FRANCISCO CALEGARI  DE OLIVEIRA - DIARIAS                                                   1OF00000000
000008211101000100000101000000000000002400000000000002020020003011701202000000000000144529D000000000000Empenhos efetuados n/data Referente empenho 000301/2020 - FRANCISCO CALEGARI  DE OLIVEIRA - DIARIAS                                                   1CF00010000
000008211201000100000101000000000000002400000000000002020020003011701202000000000000144529C000000000000Empenhos efetuados n/data Referente empenho 000301/2020 - FRANCISCO CALEGARI  DE OLIVEIRA - DIARIAS                                                   1CF00010000
000002131101010100000101000000000000002500000000000002020020003011701202000000000000144529C000000000000Liquidacao de Empenhos n/data Liquidação empenho 000301/2020 - FRANCISCO CALEGARI  DE OLIVEIRA - DIARIAS 3,5 DIARIAS A PORTO ALEGR                    1PF00010000
000006221301000000000101000000000000002500000000000002020020003011701202000000000000144529D000000000000Liquidacao de Empenhos n/data Liquidação empenho 000301/2020 - FRANCISCO CALEGARI  DE OLIVEIRA - DIARIAS 3,5 DIARIAS A PORTO ALEGR                    1OF00000000
000006221303000000000101000000000000002500000000000002020020003011701202000000000000144529C000000000000Liquidacao de Empenhos n/data Liquidação empenho 000301/2020 - FRANCISCO CALEGARI  DE OLIVEIRA - DIARIAS 3,5 DIARIAS A PORTO ALEGR                    1OF00000000
000006229201010000000101000000000000002500000000000002020020003011701202000000000000144529D000000000000Liquidacao de Empenhos n/data Liquidação empenho 000301/2020 - FRANCISCO CALEGARI  DE OLIVEIRA - DIARIAS 3,5 DIARIAS A PORTO ALEGR                    1OF00000000
000006229201030000000101000000000000002500000000000002020020003011701202000000000000144529C000000000000Liquidacao de Empenhos n/data Liquidação empenho 000301/2020 - FRANCISCO CALEGARI  DE OLIVEIRA - DIARIAS 3,5 DIARIAS A PORTO ALEGR                    1OF00000000
000003321101000000000101000000000000002500000000000002020020003011701202000000000000144529D000000000000Liquidacao de Empenhos n/data Liquidação empenho 000301/2020 - FRANCISCO CALEGARI  DE OLIVEIRA - DIARIAS 3,5 DIARIAS A PORTO ALEGR                    1PF00000000
000008211301000100000101000000000000002500000000000002020020003011701202000000000000144529C000000000000Liquidacao de Empenhos n/data Liquidação empenho 000301/2020 - FRANCISCO CALEGARI  DE OLIVEIRA - DIARIAS 3,5 DIARIAS A PORTO ALEGR                    1CF00010000
000008211201000100000101000000000000002500000000000002020020003011701202000000000000144529D000000000000Liquidacao de Empenhos n/data Liquidação empenho 000301/2020 - FRANCISCO CALEGARI  DE OLIVEIRA - DIARIAS 3,5 DIARIAS A PORTO ALEGR                    1CF00010000
000006221100000000000101000000000000002600000000000002020020003021701202000000000000144529D000000000000Empenhos efetuados n/data Referente empenho 000302/2020 - ADILAR MELLER                                                                               1OF00000000
000006221301000000000101000000000000002600000000000002020020003021701202000000000000144529C000000000000Empenhos efetuados n/data Referente empenho 000302/2020 - ADILAR MELLER                                                                               1OF00000000
000006229201010000000101000000000000002600000000000002020020003021701202000000000000144529C000000000000Empenhos efetuados n/data Referente empenho 000302/2020 - ADILAR MELLER                                                                               1OF00000000
000005229201010000000101000000000000002600000000000002020020003021701202000000000000144529D000000000000Empenhos efetuados n/data Referente empenho 000302/2020 - ADILAR MELLER                                                                               1OF00000000
000008211101000100000101000000000000002600000000000002020020003021701202000000000000144529D000000000000Empenhos efetuados n/data Referente empenho 000302/2020 - ADILAR MELLER                                                                               1CF00010000
000008211201000100000101000000000000002600000000000002020020003021701202000000000000144529C000000000000Empenhos efetuados n/data Referente empenho 000302/2020 - ADILAR MELLER                                                                               1CF00010000
000002131101010100000101000000000000002700000000000002020020003021701202000000000000144529C000000000000Liquidacao de Empenhos n/data Liquidação empenho 000302/2020 - ADILAR MELLER 3,5 DIARIAS A PORTO ALEGRE PARA PARTICIPAR DO CURSO:                     1PF00010000
000006221301000000000101000000000000002700000000000002020020003021701202000000000000144529D000000000000Liquidacao de Empenhos n/data Liquidação empenho 000302/2020 - ADILAR MELLER 3,5 DIARIAS A PORTO ALEGRE PARA PARTICIPAR DO CURSO:                     1OF00000000
000006221303000000000101000000000000002700000000000002020020003021701202000000000000144529C000000000000Liquidacao de Empenhos n/data Liquidação empenho 000302/2020 - ADILAR MELLER 3,5 DIARIAS A PORTO ALEGRE PARA PARTICIPAR DO CURSO:                     1OF00000000
000006229201010000000101000000000000002700000000000002020020003021701202000000000000144529D000000000000Liquidacao de Empenhos n/data Liquidação empenho 000302/2020 - ADILAR MELLER 3,5 DIARIAS A PORTO ALEGRE PARA PARTICIPAR DO CURSO:                     1OF00000000
000006229201030000000101000000000000002700000000000002020020003021701202000000000000144529C000000000000Liquidacao de Empenhos n/data Liquidação empenho 000302/2020 - ADILAR MELLER 3,5 DIARIAS A PORTO ALEGRE PARA PARTICIPAR DO CURSO:                     1OF00000000
000003321101000000000101000000000000002700000000000002020020003021701202000000000000144529D000000000000Liquidacao de Empenhos n/data Liquidação empenho 000302/2020 - ADILAR MELLER 3,5 DIARIAS A PORTO ALEGRE PARA PARTICIPAR DO CURSO:                     1PF00000000
000008211301000100000101000000000000002700000000000002020020003021701202000000000000144529C000000000000Liquidacao de Empenhos n/data Liquidação empenho 000302/2020 - ADILAR MELLER 3,5 DIARIAS A PORTO ALEGRE PARA PARTICIPAR DO CURSO:                     1CF00010000
000008211201000100000101000000000000002700000000000002020020003021701202000000000000144529D000000000000Liquidacao de Empenhos n/data Liquidação empenho 000302/2020 - ADILAR MELLER 3,5 DIARIAS A PORTO ALEGRE PARA PARTICIPAR DO CURSO:                     1CF00010000
000006221100000000000101000000000000002800000000000002020020003031701202000000000000144529D000000000000Empenhos efetuados n/data Referente empenho 000303/2020 - PAULO RICARDO SARTORI                                                                       1OF00000000
000006221301000000000101000000000000002800000000000002020020003031701202000000000000144529C000000000000Empenhos efetuados n/data Referente empenho 000303/2020 - PAULO RICARDO SARTORI                                                                       1OF00000000
000006229201010000000101000000000000002800000000000002020020003031701202000000000000144529C000000000000Empenhos efetuados n/data Referente empenho 000303/2020 - PAULO RICARDO SARTORI                                                                       1OF00000000
000005229201010000000101000000000000002800000000000002020020003031701202000000000000144529D000000000000Empenhos efetuados n/data Referente empenho 000303/2020 - PAULO RICARDO SARTORI                                                                       1OF00000000
000008211101000100000101000000000000002800000000000002020020003031701202000000000000144529D000000000000Empenhos efetuados n/data Referente empenho 000303/2020 - PAULO RICARDO SARTORI                                                                       1CF00010000
000008211201000100000101000000000000002800000000000002020020003031701202000000000000144529C000000000000Empenhos efetuados n/data Referente empenho 000303/2020 - PAULO RICARDO SARTORI                                                                       1CF00010000
000002131101010100000101000000000000002900000000000002020020003031701202000000000000144529C000000000000Liquidacao de Empenhos n/data Liquidação empenho 000303/2020 - PAULO RICARDO SARTORI 3,5 DIARIAS A PORTO ALEGRE PARA PARTICIPAR DO                    1PF00010000
000006221301000000000101000000000000002900000000000002020020003031701202000000000000144529D000000000000Liquidacao de Empenhos n/data Liquidação empenho 000303/2020 - PAULO RICARDO SARTORI 3,5 DIARIAS A PORTO ALEGRE PARA PARTICIPAR DO                    1OF00000000
000006221303000000000101000000000000002900000000000002020020003031701202000000000000144529C000000000000Liquidacao de Empenhos n/data Liquidação empenho 000303/2020 - PAULO RICARDO SARTORI 3,5 DIARIAS A PORTO ALEGRE PARA PARTICIPAR DO                    1OF00000000
000006229201010000000101000000000000002900000000000002020020003031701202000000000000144529D000000000000Liquidacao de Empenhos n/data Liquidação empenho 000303/2020 - PAULO RICARDO SARTORI 3,5 DIARIAS A PORTO ALEGRE PARA PARTICIPAR DO                    1OF00000000
000006229201030000000101000000000000002900000000000002020020003031701202000000000000144529C000000000000Liquidacao de Empenhos n/data Liquidação empenho 000303/2020 - PAULO RICARDO SARTORI 3,5 DIARIAS A PORTO ALEGRE PARA PARTICIPAR DO                    1OF00000000
000003321101000000000101000000000000002900000000000002020020003031701202000000000000144529D000000000000Liquidacao de Empenhos n/data Liquidação empenho 000303/2020 - PAULO RICARDO SARTORI 3,5 DIARIAS A PORTO ALEGRE PARA PARTICIPAR DO                    1PF00000000
000008211301000100000101000000000000002900000000000002020020003031701202000000000000144529C000000000000Liquidacao de Empenhos n/data Liquidação empenho 000303/2020 - PAULO RICARDO SARTORI 3,5 DIARIAS A PORTO ALEGRE PARA PARTICIPAR DO                    1CF00010000
000008211201000100000101000000000000002900000000000002020020003031701202000000000000144529D000000000000Liquidacao de Empenhos n/data Liquidação empenho 000303/2020 - PAULO RICARDO SARTORI 3,5 DIARIAS A PORTO ALEGRE PARA PARTICIPAR DO                    1CF00010000
000006221100000000000101000000000000003000000000000002020020003051701202000000000000127500D000000000000Empenhos efetuados n/data Referente empenho 000305/2020 - INLEGIS CONSULTORIA E TREINAMENTO EIRELI                                                    1OF00000000
000006221301000000000101000000000000003000000000000002020020003051701202000000000000127500C000000000000Empenhos efetuados n/data Referente empenho 000305/2020 - INLEGIS CONSULTORIA E TREINAMENTO EIRELI                                                    1OF00000000
000006229201010000000101000000000000003000000000000002020020003051701202000000000000127500C000000000000Empenhos efetuados n/data Referente empenho 000305/2020 - INLEGIS CONSULTORIA E TREINAMENTO EIRELI                                                    1OF00000000
000005229201010000000101000000000000003000000000000002020020003051701202000000000000127500D000000000000Empenhos efetuados n/data Referente empenho 000305/2020 - INLEGIS CONSULTORIA E TREINAMENTO EIRELI                                                    1OF00000000
000008211101000100000101000000000000003000000000000002020020003051701202000000000000127500D000000000000Empenhos efetuados n/data Referente empenho 000305/2020 - INLEGIS CONSULTORIA E TREINAMENTO EIRELI                                                    1CF00010000
000008211201000100000101000000000000003000000000000002020020003051701202000000000000127500C000000000000Empenhos efetuados n/data Referente empenho 000305/2020 - INLEGIS CONSULTORIA E TREINAMENTO EIRELI                                                    1CF00010000
000002131101010100000101000000000000003100000000000002020020003051701202000000000000075000C000000000000Liquidacao de Empenhos n/data Liquidação empenho 000305/2020 - INLEGIS CONSULTORIA E TREINAMENTO EIRELI ASSESSORIA E CONSULTORIA T                    1PF00010000
000006221301000000000101000000000000003100000000000002020020003051701202000000000000075000D000000000000Liquidacao de Empenhos n/data Liquidação empenho 000305/2020 - INLEGIS CONSULTORIA E TREINAMENTO EIRELI ASSESSORIA E CONSULTORIA T                    1OF00000000
000006221303000000000101000000000000003100000000000002020020003051701202000000000000075000C000000000000Liquidacao de Empenhos n/data Liquidação empenho 000305/2020 - INLEGIS CONSULTORIA E TREINAMENTO EIRELI ASSESSORIA E CONSULTORIA T                    1OF00000000
000006229201010000000101000000000000003100000000000002020020003051701202000000000000075000D000000000000Liquidacao de Empenhos n/data Liquidação empenho 000305/2020 - INLEGIS CONSULTORIA E TREINAMENTO EIRELI ASSESSORIA E CONSULTORIA T                    1OF00000000
000006229201030000000101000000000000003100000000000002020020003051701202000000000000075000C000000000000Liquidacao de Empenhos n/data Liquidação empenho 000305/2020 - INLEGIS CONSULTORIA E TREINAMENTO EIRELI ASSESSORIA E CONSULTORIA T                    1OF00000000
000003322101000000000101000000000000003100000000000002020020003051701202000000000000075000D000000000000Liquidacao de Empenhos n/data Liquidação empenho 000305/2020 - INLEGIS CONSULTORIA E TREINAMENTO EIRELI ASSESSORIA E CONSULTORIA T                    1PF00000000
000008211301000100000101000000000000003100000000000002020020003051701202000000000000075000C000000000000Liquidacao de Empenhos n/data Liquidação empenho 000305/2020 - INLEGIS CONSULTORIA E TREINAMENTO EIRELI ASSESSORIA E CONSULTORIA T                    1CF00010000
000008211201000100000101000000000000003100000000000002020020003051701202000000000000075000D000000000000Liquidacao de Empenhos n/data Liquidação empenho 000305/2020 - INLEGIS CONSULTORIA E TREINAMENTO EIRELI ASSESSORIA E CONSULTORIA T                    1CF00010000
000006221100000000000101000000000000003200000000000002020020003272001202000000000000027051D000000000000Empenhos efetuados n/data Referente empenho 000327/2020 - OI S.A- EM RECUPERAçãO JUDICIAL                                                             1OF00000000
000006221301000000000101000000000000003200000000000002020020003272001202000000000000027051C000000000000Empenhos efetuados n/data Referente empenho 000327/2020 - OI S.A- EM RECUPERAçãO JUDICIAL                                                             1OF00000000
000006229201010000000101000000000000003200000000000002020020003272001202000000000000027051C000000000000Empenhos efetuados n/data Referente empenho 000327/2020 - OI S.A- EM RECUPERAçãO JUDICIAL                                                             1OF00000000
000005229201010000000101000000000000003200000000000002020020003272001202000000000000027051D000000000000Empenhos efetuados n/data Referente empenho 000327/2020 - OI S.A- EM RECUPERAçãO JUDICIAL                                                             1OF00000000
000008211101000100000101000000000000003200000000000002020020003272001202000000000000027051D000000000000Empenhos efetuados n/data Referente empenho 000327/2020 - OI S.A- EM RECUPERAçãO JUDICIAL                                                             1CF00010000
000008211201000100000101000000000000003200000000000002020020003272001202000000000000027051C000000000000Empenhos efetuados n/data Referente empenho 000327/2020 - OI S.A- EM RECUPERAçãO JUDICIAL                                                             1CF00010000
000006221100000000000101000000000000003300000000000002020020003482001202000000000000018538D000000000000Empenhos efetuados n/data Referente empenho 000348/2020 - OI - BRASIL TELECOM S.A- (51-074-6918)net                                                   1OF00000000
000006221301000000000101000000000000003300000000000002020020003482001202000000000000018538C000000000000Empenhos efetuados n/data Referente empenho 000348/2020 - OI - BRASIL TELECOM S.A- (51-074-6918)net                                                   1OF00000000
000006229201010000000101000000000000003300000000000002020020003482001202000000000000018538C000000000000Empenhos efetuados n/data Referente empenho 000348/2020 - OI - BRASIL TELECOM S.A- (51-074-6918)net                                                   1OF00000000
000005229201010000000101000000000000003300000000000002020020003482001202000000000000018538D000000000000Empenhos efetuados n/data Referente empenho 000348/2020 - OI - BRASIL TELECOM S.A- (51-074-6918)net                                                   1OF00000000
000008211101000100000101000000000000003300000000000002020020003482001202000000000000018538D000000000000Empenhos efetuados n/data Referente empenho 000348/2020 - OI - BRASIL TELECOM S.A- (51-074-6918)net                                                   1CF00010000
000008211201000100000101000000000000003300000000000002020020003482001202000000000000018538C000000000000Empenhos efetuados n/data Referente empenho 000348/2020 - OI - BRASIL TELECOM S.A- (51-074-6918)net                                                   1CF00010000
000001111119122000000101000000000000003400000000000000000000000002201202000000000000015000C000000000000Pagamento de Empenho Extra Referente pgto despesa extra nro 000009/2020 - BANRISUL C/CV RETENÇÕES TRANSF. = 150,00                                    0PF80010000
000002188299010100000101000000000000003400000000000000000000000002201202000000000000015000D000000000000Pagamento de Empenho Extra Referente pgto despesa extra nro 000009/2020 - BANRISUL C/CV RETENÇÕES TRANSF. = 150,00                                    0PF80010000
000008211302800100000101000000000000003400000000000000000000000002201202000000000000015000D000000000000Pagamento de Empenho Extra Referente pgto despesa extra nro 000009/2020 - BANRISUL C/CV RETENÇÕES TRANSF. = 150,00                                    0CF80010000
000008211480010000000101000000000000003400000000000000000000000002201202000000000000015000C000000000000Pagamento de Empenho Extra Referente pgto despesa extra nro 000009/2020 - BANRISUL C/CV RETENÇÕES TRANSF. = 150,00                                    0CF80010000
000001111150032200000101000000000000003500000000000000000000000002201202000000000000834125C000000000000RESGATE RESGATE DE APLICAÇÃO                                                                                                                          0PF00010000
000001111119120500000101000000000000003500000000000000000000000002201202000000000000834125D000000000000RESGATE RESGATE DE APLICAÇÃO                                                                                                                          0PF00010000
000001111119120500000101000000000000003500000000000000000000000002201202000000000000015000C000000000000TRANSFERENCIA INLEGIS                                                                                                                                 0PF00010000
000001111119122000000101000000000000003500000000000000000000000002201202000000000000015000D000000000000TRANSFERENCIA INLEGIS                                                                                                                                 0PF80010000
000002131101010100000101000000000000003600000000000002020020003052201202000000000000075000D000000000000Pagamento de Empenho Referente pagamento do empenho nro 000305/2020 - INLEGIS CONSULTORIA E TREINAMENTO EIRELI                                        1PF00010000
000006221303000000000101000000000000003600000000000002020020003052201202000000000000075000D000000000000Pagamento de Empenho Referente pagamento do empenho nro 000305/2020 - INLEGIS CONSULTORIA E TREINAMENTO EIRELI                                        1OF00000000
000006221304000000000101000000000000003600000000000002020020003052201202000000000000075000C000000000000Pagamento de Empenho Referente pagamento do empenho nro 000305/2020 - INLEGIS CONSULTORIA E TREINAMENTO EIRELI                                        1OF00000000
000001111119120500000101000000000000003600000000000002020020003052201202000000000000075000C000000000000Pagamento de Empenho Referente pagamento do empenho nro 000305/2020 - INLEGIS CONSULTORIA E TREINAMENTO EIRELI - BANRISUL C/CAMARA TITULO = 750,00    1PF00010000
000006229201030000000101000000000000003600000000000002020020003052201202000000000000075000D000000000000Pagamento de Empenho Referente pagamento do empenho nro 000305/2020 - INLEGIS CONSULTORIA E TREINAMENTO EIRELI                                        1OF00000000
000006229201040000000101000000000000003600000000000002020020003052201202000000000000075000C000000000000Pagamento de Empenho Referente pagamento do empenho nro 000305/2020 - INLEGIS CONSULTORIA E TREINAMENTO EIRELI                                        1OF00000000
000008211301000100000101000000000000003600000000000002020020003052201202000000000000075000D000000000000Pagamento de Empenho Referente pagamento do empenho nro 000305/2020 - INLEGIS CONSULTORIA E TREINAMENTO EIRELI                                        1CF00010000
000008211400010000000101000000000000003600000000000002020020003052201202000000000000075000C000000000000Pagamento de Empenho Referente pagamento do empenho nro 000305/2020 - INLEGIS CONSULTORIA E TREINAMENTO EIRELI                                        1CF00010000
000002131101010100000101000000000000003700000000000002020020002982201202000000000000192000D000000000000Pagamento de Empenho Referente pagamento do empenho nro 000298/2020 - INLEGIS CONSULTORIA E TREINAMENTO EIRELI                                        1PF00010000
000006221303000000000101000000000000003700000000000002020020002982201202000000000000192000D000000000000Pagamento de Empenho Referente pagamento do empenho nro 000298/2020 - INLEGIS CONSULTORIA E TREINAMENTO EIRELI                                        1OF00000000
000006221304000000000101000000000000003700000000000002020020002982201202000000000000192000C000000000000Pagamento de Empenho Referente pagamento do empenho nro 000298/2020 - INLEGIS CONSULTORIA E TREINAMENTO EIRELI                                        1OF00000000
000001111119120500000101000000000000003700000000000000000000000002201202000000000000177000C000000000000Pagamento de Empenho Referente pagamento do empenho nro 000298/2020 - INLEGIS CONSULTORIA E TREINAMENTO EIRELI - BANRISUL C/CAMARA TITULO = 1.770,00  0PF00010000
000006229201030000000101000000000000003700000000000002020020002982201202000000000000192000D000000000000Pagamento de Empenho Referente pagamento do empenho nro 000298/2020 - INLEGIS CONSULTORIA E TREINAMENTO EIRELI                                        1OF00000000
000006229201040000000101000000000000003700000000000002020020002982201202000000000000192000C000000000000Pagamento de Empenho Referente pagamento do empenho nro 000298/2020 - INLEGIS CONSULTORIA E TREINAMENTO EIRELI                                        1OF00000000
000002188299010100000101000000000000003700000000000000000000000002201202000000000000015000C000000000000Retenção sobre pagamento de empenho Ref.Retenção sobre pagamento empenho 000298/2020 - INLEGIS CONSULTORIA E TREINAMENTO EIRELI - BANRISUL C/CAMARA TI0PF80010000
000008211301000100000101000000000000003700000000000000000000000002201202000000000000015000D000000000000Retenção sobre pagamento de empenho Ref.Retenção sobre pagamento empenho 000298/2020 - INLEGIS CONSULTORIA E TREINAMENTO EIRELI - BANRISUL C/CAMARA TI0CF00010000
000008211301000100000101000000000000003700000000000000000000000002201202000000000000177000D000000000000Pagamento de Empenho Referente pagamento do empenho nro 000298/2020 - INLEGIS CONSULTORIA E TREINAMENTO EIRELI                                        0CF00010000
000008211400010000000101000000000000003700000000000000000000000002201202000000000000015000C000000000000Retenção sobre pagamento de empenho Ref.Retenção sobre pagamento empenho 000298/2020 - INLEGIS CONSULTORIA E TREINAMENTO EIRELI - BANRISUL C/CAMARA TI0CF00010000
000008211400010000000101000000000000003700000000000000000000000002201202000000000000177000C000000000000Pagamento de Empenho Referente pagamento do empenho nro 000298/2020 - INLEGIS CONSULTORIA E TREINAMENTO EIRELI                                        0CF00010000
000007211380010000000101000000000000003700000000000000000000000002201202000000000000015000D000000000000Retenção sobre pagamento de empenho Ref.Retenção sobre pagamento empenho 000298/2020 - INLEGIS CONSULTORIA E TREINAMENTO EIRELI - BANRISUL C/CAMARA TI0CF80010000
000008211302800100000101000000000000003700000000000000000000000002201202000000000000015000C000000000000Retenção sobre pagamento de empenho Ref.Retenção sobre pagamento empenho 000298/2020 - INLEGIS CONSULTORIA E TREINAMENTO EIRELI - BANRISUL C/CAMARA TI0CF80010000
000002131101010100000101000000000000003800000000000002020020003002201202000000000000115000D000000000000Pagamento de Empenho Referente pagamento do empenho nro 000300/2020 - FRANCISCO CALEGARI  DE OLIVEIRA - DIARIAS                                       1PF00010000
000006221303000000000101000000000000003800000000000002020020003002201202000000000000115000D000000000000Pagamento de Empenho Referente pagamento do empenho nro 000300/2020 - FRANCISCO CALEGARI  DE OLIVEIRA - DIARIAS                                       1OF00000000
000006221304000000000101000000000000003800000000000002020020003002201202000000000000115000C000000000000Pagamento de Empenho Referente pagamento do empenho nro 000300/2020 - FRANCISCO CALEGARI  DE OLIVEIRA - DIARIAS                                       1OF00000000
000001111119120500000101000000000000003800000000000002020020003002201202000000000000115000C000000000000Pagamento de Empenho Referente pagamento do empenho nro 000300/2020 - FRANCISCO CALEGARI  DE OLIVEIRA - DIARIAS - BANRISUL C/CAMARA TED = 1.150,00    1PF00010000
000006229201030000000101000000000000003800000000000002020020003002201202000000000000115000D000000000000Pagamento de Empenho Referente pagamento do empenho nro 000300/2020 - FRANCISCO CALEGARI  DE OLIVEIRA - DIARIAS                                       1OF00000000
000006229201040000000101000000000000003800000000000002020020003002201202000000000000115000C000000000000Pagamento de Empenho Referente pagamento do empenho nro 000300/2020 - FRANCISCO CALEGARI  DE OLIVEIRA - DIARIAS                                       1OF00000000
000008211301000100000101000000000000003800000000000002020020003002201202000000000000115000D000000000000Pagamento de Empenho Referente pagamento do empenho nro 000300/2020 - FRANCISCO CALEGARI  DE OLIVEIRA - DIARIAS                                       1CF00010000
000008211400010000000101000000000000003800000000000002020020003002201202000000000000115000C000000000000Pagamento de Empenho Referente pagamento do empenho nro 000300/2020 - FRANCISCO CALEGARI  DE OLIVEIRA - DIARIAS                                       1CF00010000
000002131101010100000101000000000000003900000000000002020020003012201202000000000000144529D000000000000Pagamento de Empenho Referente pagamento do empenho nro 000301/2020 - FRANCISCO CALEGARI  DE OLIVEIRA - DIARIAS                                       1PF00010000
000006221303000000000101000000000000003900000000000002020020003012201202000000000000144529D000000000000Pagamento de Empenho Referente pagamento do empenho nro 000301/2020 - FRANCISCO CALEGARI  DE OLIVEIRA - DIARIAS                                       1OF00000000
000006221304000000000101000000000000003900000000000002020020003012201202000000000000144529C000000000000Pagamento de Empenho Referente pagamento do empenho nro 000301/2020 - FRANCISCO CALEGARI  DE OLIVEIRA - DIARIAS                                       1OF00000000
000001111119120500000101000000000000003900000000000002020020003012201202000000000000144529C000000000000Pagamento de Empenho Referente pagamento do empenho nro 000301/2020 - FRANCISCO CALEGARI  DE OLIVEIRA - DIARIAS - BANRISUL C/CAMARA TED = 1.445,29    1PF00010000
000006229201030000000101000000000000003900000000000002020020003012201202000000000000144529D000000000000Pagamento de Empenho Referente pagamento do empenho nro 000301/2020 - FRANCISCO CALEGARI  DE OLIVEIRA - DIARIAS                                       1OF00000000
000006229201040000000101000000000000003900000000000002020020003012201202000000000000144529C000000000000Pagamento de Empenho Referente pagamento do empenho nro 000301/2020 - FRANCISCO CALEGARI  DE OLIVEIRA - DIARIAS                                       1OF00000000
000008211301000100000101000000000000003900000000000002020020003012201202000000000000144529D000000000000Pagamento de Empenho Referente pagamento do empenho nro 000301/2020 - FRANCISCO CALEGARI  DE OLIVEIRA - DIARIAS                                       1CF00010000
000008211400010000000101000000000000003900000000000002020020003012201202000000000000144529C000000000000Pagamento de Empenho Referente pagamento do empenho nro 000301/2020 - FRANCISCO CALEGARI  DE OLIVEIRA - DIARIAS                                       1CF00010000
000002131101010100000101000000000000004000000000000002020020003022201202000000000000144529D000000000000Pagamento de Empenho Referente pagamento do empenho nro 000302/2020 - ADILAR MELLER                                                                   1PF00010000
000006221303000000000101000000000000004000000000000002020020003022201202000000000000144529D000000000000Pagamento de Empenho Referente pagamento do empenho nro 000302/2020 - ADILAR MELLER                                                                   1OF00000000
000006221304000000000101000000000000004000000000000002020020003022201202000000000000144529C000000000000Pagamento de Empenho Referente pagamento do empenho nro 000302/2020 - ADILAR MELLER                                                                   1OF00000000
000001111119120500000101000000000000004000000000000002020020003022201202000000000000144529C000000000000Pagamento de Empenho Referente pagamento do empenho nro 000302/2020 - ADILAR MELLER - BANRISUL C/CAMARA TED = 1.445,29                                1PF00010000
000006229201030000000101000000000000004000000000000002020020003022201202000000000000144529D000000000000Pagamento de Empenho Referente pagamento do empenho nro 000302/2020 - ADILAR MELLER                                                                   1OF00000000
000006229201040000000101000000000000004000000000000002020020003022201202000000000000144529C000000000000Pagamento de Empenho Referente pagamento do empenho nro 000302/2020 - ADILAR MELLER                                                                   1OF00000000
000008211301000100000101000000000000004000000000000002020020003022201202000000000000144529D000000000000Pagamento de Empenho Referente pagamento do empenho nro 000302/2020 - ADILAR MELLER                                                                   1CF00010000
000008211400010000000101000000000000004000000000000002020020003022201202000000000000144529C000000000000Pagamento de Empenho Referente pagamento do empenho nro 000302/2020 - ADILAR MELLER                                                                   1CF00010000
000002131101010100000101000000000000004100000000000002020020003032201202000000000000144529D000000000000Pagamento de Empenho Referente pagamento do empenho nro 000303/2020 - PAULO RICARDO SARTORI                                                           1PF00010000
000006221303000000000101000000000000004100000000000002020020003032201202000000000000144529D000000000000Pagamento de Empenho Referente pagamento do empenho nro 000303/2020 - PAULO RICARDO SARTORI                                                           1OF00000000
000006221304000000000101000000000000004100000000000002020020003032201202000000000000144529C000000000000Pagamento de Empenho Referente pagamento do empenho nro 000303/2020 - PAULO RICARDO SARTORI                                                           1OF00000000
000001111119120500000101000000000000004100000000000002020020003032201202000000000000144529C000000000000Pagamento de Empenho Referente pagamento do empenho nro 000303/2020 - PAULO RICARDO SARTORI - BANRISUL C/CAMARA TED = 1.445,29                        1PF00010000
000006229201030000000101000000000000004100000000000002020020003032201202000000000000144529D000000000000Pagamento de Empenho Referente pagamento do empenho nro 000303/2020 - PAULO RICARDO SARTORI                                                           1OF00000000
000006229201040000000101000000000000004100000000000002020020003032201202000000000000144529C000000000000Pagamento de Empenho Referente pagamento do empenho nro 000303/2020 - PAULO RICARDO SARTORI                                                           1OF00000000
000008211301000100000101000000000000004100000000000002020020003032201202000000000000144529D000000000000Pagamento de Empenho Referente pagamento do empenho nro 000303/2020 - PAULO RICARDO SARTORI                                                           1CF00010000
000008211400010000000101000000000000004100000000000002020020003032201202000000000000144529C000000000000Pagamento de Empenho Referente pagamento do empenho nro 000303/2020 - PAULO RICARDO SARTORI                                                           1CF00010000
000002131101010100000101000000000000004200000000000002020020003482201202000000000000018538C000000000000Liquidacao de Empenhos n/data Liquidação empenho 000348/2020 - OI - BRASIL TELECOM S.A- (51-074-6918)net LIGAÇÕES TELEFONICAS REAL                    1PF00010000
000003323104000000000101000000000000004200000000000002020020003482201202000000000000018538D000000000000Liquidacao de Empenhos n/data Liquidação empenho 000348/2020 - OI - BRASIL TELECOM S.A- (51-074-6918)net LIGAÇÕES TELEFONICAS REAL                    1PF00000000
000006221301000000000101000000000000004200000000000002020020003482201202000000000000018538D000000000000Liquidacao de Empenhos n/data Liquidação empenho 000348/2020 - OI - BRASIL TELECOM S.A- (51-074-6918)net LIGAÇÕES TELEFONICAS REAL                    1OF00000000
000006221303000000000101000000000000004200000000000002020020003482201202000000000000018538C000000000000Liquidacao de Empenhos n/data Liquidação empenho 000348/2020 - OI - BRASIL TELECOM S.A- (51-074-6918)net LIGAÇÕES TELEFONICAS REAL                    1OF00000000
000006229201010000000101000000000000004200000000000002020020003482201202000000000000018538D000000000000Liquidacao de Empenhos n/data Liquidação empenho 000348/2020 - OI - BRASIL TELECOM S.A- (51-074-6918)net LIGAÇÕES TELEFONICAS REAL                    1OF00000000
000006229201030000000101000000000000004200000000000002020020003482201202000000000000018538C000000000000Liquidacao de Empenhos n/data Liquidação empenho 000348/2020 - OI - BRASIL TELECOM S.A- (51-074-6918)net LIGAÇÕES TELEFONICAS REAL                    1OF00000000
000008211301000100000101000000000000004200000000000002020020003482201202000000000000018538C000000000000Liquidacao de Empenhos n/data Liquidação empenho 000348/2020 - OI - BRASIL TELECOM S.A- (51-074-6918)net LIGAÇÕES TELEFONICAS REAL                    1CF00010000
000008211201000100000101000000000000004200000000000002020020003482201202000000000000018538D000000000000Liquidacao de Empenhos n/data Liquidação empenho 000348/2020 - OI - BRASIL TELECOM S.A- (51-074-6918)net LIGAÇÕES TELEFONICAS REAL                    1CF00010000
000002131101010100000101000000000000004300000000000002020020003482201202000000000000018538D000000000000Pagamento de Empenho Referente pagamento do empenho nro 000348/2020 - OI - BRASIL TELECOM S.A- (51-074-6918)net                                       1PF00010000
000006221303000000000101000000000000004300000000000002020020003482201202000000000000018538D000000000000Pagamento de Empenho Referente pagamento do empenho nro 000348/2020 - OI - BRASIL TELECOM S.A- (51-074-6918)net                                       1OF00000000
000006221304000000000101000000000000004300000000000002020020003482201202000000000000018538C000000000000Pagamento de Empenho Referente pagamento do empenho nro 000348/2020 - OI - BRASIL TELECOM S.A- (51-074-6918)net                                       1OF00000000
000001111119120500000101000000000000004300000000000002020020003482201202000000000000018538C000000000000Pagamento de Empenho Referente pagamento do empenho nro 000348/2020 - OI - BRASIL TELECOM S.A- (51-074-6918)net - BANRISUL C/CAMARA TRANSF. = 185,38  1PF00010000
000006229201030000000101000000000000004300000000000002020020003482201202000000000000018538D000000000000Pagamento de Empenho Referente pagamento do empenho nro 000348/2020 - OI - BRASIL TELECOM S.A- (51-074-6918)net                                       1OF00000000
000006229201040000000101000000000000004300000000000002020020003482201202000000000000018538C000000000000Pagamento de Empenho Referente pagamento do empenho nro 000348/2020 - OI - BRASIL TELECOM S.A- (51-074-6918)net                                       1OF00000000
000008211301000100000101000000000000004300000000000002020020003482201202000000000000018538D000000000000Pagamento de Empenho Referente pagamento do empenho nro 000348/2020 - OI - BRASIL TELECOM S.A- (51-074-6918)net                                       1CF00010000
000008211400010000000101000000000000004300000000000002020020003482201202000000000000018538C000000000000Pagamento de Empenho Referente pagamento do empenho nro 000348/2020 - OI - BRASIL TELECOM S.A- (51-074-6918)net                                       1CF00010000
000006221100000000000101000000000000004400000000000002020020004142701202000000000000290532D000000000000Empenhos efetuados n/data Referente empenho 000414/2020 - FOLHA  PAG SERVIDORES DA CÂMARA DE VEREADORES                                               1OF00000000
000006221301000000000101000000000000004400000000000002020020004142701202000000000000290532C000000000000Empenhos efetuados n/data Referente empenho 000414/2020 - FOLHA  PAG SERVIDORES DA CÂMARA DE VEREADORES                                               1OF00000000
000006229201010000000101000000000000004400000000000002020020004142701202000000000000290532C000000000000Empenhos efetuados n/data Referente empenho 000414/2020 - FOLHA  PAG SERVIDORES DA CÂMARA DE VEREADORES                                               1OF00000000
000005229201010000000101000000000000004400000000000002020020004142701202000000000000290532D000000000000Empenhos efetuados n/data Referente empenho 000414/2020 - FOLHA  PAG SERVIDORES DA CÂMARA DE VEREADORES                                               1OF00000000
000008211101000100000101000000000000004400000000000002020020004142701202000000000000290532D000000000000Empenhos efetuados n/data Referente empenho 000414/2020 - FOLHA  PAG SERVIDORES DA CÂMARA DE VEREADORES                                               1CF00010000
000008211201000100000101000000000000004400000000000002020020004142701202000000000000290532C000000000000Empenhos efetuados n/data Referente empenho 000414/2020 - FOLHA  PAG SERVIDORES DA CÂMARA DE VEREADORES                                               1CF00010000
000002131101010100000101000000000000004500000000000002020020004142701202000000000000290532C000000000000Liquidacao de Empenhos n/data Liquidação empenho 000414/2020 - FOLHA  PAG SERVIDORES DA CÂMARA DE VEREADORES REMUNERAÇÃO REFERENTE                    1PF00010000
000006221301000000000101000000000000004500000000000002020020004142701202000000000000290532D000000000000Liquidacao de Empenhos n/data Liquidação empenho 000414/2020 - FOLHA  PAG SERVIDORES DA CÂMARA DE VEREADORES REMUNERAÇÃO REFERENTE                    1OF00000000
000006221303000000000101000000000000004500000000000002020020004142701202000000000000290532C000000000000Liquidacao de Empenhos n/data Liquidação empenho 000414/2020 - FOLHA  PAG SERVIDORES DA CÂMARA DE VEREADORES REMUNERAÇÃO REFERENTE                    1OF00000000
000006229201010000000101000000000000004500000000000002020020004142701202000000000000290532D000000000000Liquidacao de Empenhos n/data Liquidação empenho 000414/2020 - FOLHA  PAG SERVIDORES DA CÂMARA DE VEREADORES REMUNERAÇÃO REFERENTE                    1OF00000000
000006229201030000000101000000000000004500000000000002020020004142701202000000000000290532C000000000000Liquidacao de Empenhos n/data Liquidação empenho 000414/2020 - FOLHA  PAG SERVIDORES DA CÂMARA DE VEREADORES REMUNERAÇÃO REFERENTE                    1OF00000000
000003111101010000000101000000000000004500000000000002020020004142701202000000000000290532D000000000000Liquidacao de Empenhos n/data Liquidação empenho 000414/2020 - FOLHA  PAG SERVIDORES DA CÂMARA DE VEREADORES REMUNERAÇÃO REFERENTE                    1PF00000000
000008211301000100000101000000000000004500000000000002020020004142701202000000000000290532C000000000000Liquidacao de Empenhos n/data Liquidação empenho 000414/2020 - FOLHA  PAG SERVIDORES DA CÂMARA DE VEREADORES REMUNERAÇÃO REFERENTE                    1CF00010000
000008211201000100000101000000000000004500000000000002020020004142701202000000000000290532D000000000000Liquidacao de Empenhos n/data Liquidação empenho 000414/2020 - FOLHA  PAG SERVIDORES DA CÂMARA DE VEREADORES REMUNERAÇÃO REFERENTE                    1CF00010000
000006221100000000000101000000000000004600000000000002020020004152701202000000000000102955D000000000000Empenhos efetuados n/data Referente empenho 000415/2020 - FOLHA  PAG SERVIDORES DA CÂMARA DE VEREADORES                                               1OF00000000
000006221301000000000101000000000000004600000000000002020020004152701202000000000000102955C000000000000Empenhos efetuados n/data Referente empenho 000415/2020 - FOLHA  PAG SERVIDORES DA CÂMARA DE VEREADORES                                               1OF00000000
000006229201010000000101000000000000004600000000000002020020004152701202000000000000102955C000000000000Empenhos efetuados n/data Referente empenho 000415/2020 - FOLHA  PAG SERVIDORES DA CÂMARA DE VEREADORES                                               1OF00000000
000005229201010000000101000000000000004600000000000002020020004152701202000000000000102955D000000000000Empenhos efetuados n/data Referente empenho 000415/2020 - FOLHA  PAG SERVIDORES DA CÂMARA DE VEREADORES                                               1OF00000000
000008211101000100000101000000000000004600000000000002020020004152701202000000000000102955D000000000000Empenhos efetuados n/data Referente empenho 000415/2020 - FOLHA  PAG SERVIDORES DA CÂMARA DE VEREADORES                                               1CF00010000
000008211201000100000101000000000000004600000000000002020020004152701202000000000000102955C000000000000Empenhos efetuados n/data Referente empenho 000415/2020 - FOLHA  PAG SERVIDORES DA CÂMARA DE VEREADORES                                               1CF00010000
000003291111000000000101000000000000004700000000000002020020004152701202000000000000102955D000000000000Liquidacao de Empenhos n/data Liquidação empenho 000415/2020 - FOLHA  PAG SERVIDORES DA CÂMARA DE VEREADORES REMUNERAÇÃO REFERENTE                    1PF00000000
000002111101010200000101000000000000004700000000000002020020004152701202000000000000102955C000000000000Liquidacao de Empenhos n/data Liquidação empenho 000415/2020 - FOLHA  PAG SERVIDORES DA CÂMARA DE VEREADORES REMUNERAÇÃO REFERENTE                    1PF00000000
000006221301000000000101000000000000004700000000000002020020004152701202000000000000102955D000000000000Liquidacao de Empenhos n/data Liquidação empenho 000415/2020 - FOLHA  PAG SERVIDORES DA CÂMARA DE VEREADORES REMUNERAÇÃO REFERENTE                    1OF00000000
000006221303000000000101000000000000004700000000000002020020004152701202000000000000102955C000000000000Liquidacao de Empenhos n/data Liquidação empenho 000415/2020 - FOLHA  PAG SERVIDORES DA CÂMARA DE VEREADORES REMUNERAÇÃO REFERENTE                    1OF00000000
000006229201010000000101000000000000004700000000000002020020004152701202000000000000102955D000000000000Liquidacao de Empenhos n/data Liquidação empenho 000415/2020 - FOLHA  PAG SERVIDORES DA CÂMARA DE VEREADORES REMUNERAÇÃO REFERENTE                    1OF00000000
000006229201030000000101000000000000004700000000000002020020004152701202000000000000102955C000000000000Liquidacao de Empenhos n/data Liquidação empenho 000415/2020 - FOLHA  PAG SERVIDORES DA CÂMARA DE VEREADORES REMUNERAÇÃO REFERENTE                    1OF00000000
000008211301000100000101000000000000004700000000000002020020004152701202000000000000102955C000000000000Liquidacao de Empenhos n/data Liquidação empenho 000415/2020 - FOLHA  PAG SERVIDORES DA CÂMARA DE VEREADORES REMUNERAÇÃO REFERENTE                    1CF00010000
000008211201000100000101000000000000004700000000000002020020004152701202000000000000102955D000000000000Liquidacao de Empenhos n/data Liquidação empenho 000415/2020 - FOLHA  PAG SERVIDORES DA CÂMARA DE VEREADORES REMUNERAÇÃO REFERENTE                    1CF00010000
000006221100000000000101000000000000004800000000000002020020004162701202000000000000117662D000000000000Empenhos efetuados n/data Referente empenho 000416/2020 - FOLHA  PAG SERVIDORES DA CÂMARA DE VEREADORES                                               1OF00000000
000006221301000000000101000000000000004800000000000002020020004162701202000000000000117662C000000000000Empenhos efetuados n/data Referente empenho 000416/2020 - FOLHA  PAG SERVIDORES DA CÂMARA DE VEREADORES                                               1OF00000000
000006229201010000000101000000000000004800000000000002020020004162701202000000000000117662C000000000000Empenhos efetuados n/data Referente empenho 000416/2020 - FOLHA  PAG SERVIDORES DA CÂMARA DE VEREADORES                                               1OF00000000
000005229201010000000101000000000000004800000000000002020020004162701202000000000000117662D000000000000Empenhos efetuados n/data Referente empenho 000416/2020 - FOLHA  PAG SERVIDORES DA CÂMARA DE VEREADORES                                               1OF00000000
000008211101000100000101000000000000004800000000000002020020004162701202000000000000117662D000000000000Empenhos efetuados n/data Referente empenho 000416/2020 - FOLHA  PAG SERVIDORES DA CÂMARA DE VEREADORES                                               1CF00010000
000008211201000100000101000000000000004800000000000002020020004162701202000000000000117662C000000000000Empenhos efetuados n/data Referente empenho 000416/2020 - FOLHA  PAG SERVIDORES DA CÂMARA DE VEREADORES                                               1CF00010000
000002111101010200000101000000000000004900000000000002020020004162701202000000000000117662C000000000000Liquidacao de Empenhos n/data Liquidação empenho 000416/2020 - FOLHA  PAG SERVIDORES DA CÂMARA DE VEREADORES REMUNERAÇÃO REFERENTE                    1PF00000000
000006221301000000000101000000000000004900000000000002020020004162701202000000000000117662D000000000000Liquidacao de Empenhos n/data Liquidação empenho 000416/2020 - FOLHA  PAG SERVIDORES DA CÂMARA DE VEREADORES REMUNERAÇÃO REFERENTE                    1OF00000000
000006221303000000000101000000000000004900000000000002020020004162701202000000000000117662C000000000000Liquidacao de Empenhos n/data Liquidação empenho 000416/2020 - FOLHA  PAG SERVIDORES DA CÂMARA DE VEREADORES REMUNERAÇÃO REFERENTE                    1OF00000000
000006229201010000000101000000000000004900000000000002020020004162701202000000000000117662D000000000000Liquidacao de Empenhos n/data Liquidação empenho 000416/2020 - FOLHA  PAG SERVIDORES DA CÂMARA DE VEREADORES REMUNERAÇÃO REFERENTE                    1OF00000000
000006229201030000000101000000000000004900000000000002020020004162701202000000000000117662C000000000000Liquidacao de Empenhos n/data Liquidação empenho 000416/2020 - FOLHA  PAG SERVIDORES DA CÂMARA DE VEREADORES REMUNERAÇÃO REFERENTE                    1OF00000000
000003291110000000000101000000000000004900000000000002020020004162701202000000000000117662D000000000000Liquidacao de Empenhos n/data Liquidação empenho 000416/2020 - FOLHA  PAG SERVIDORES DA CÂMARA DE VEREADORES REMUNERAÇÃO REFERENTE                    1PF00000000
000008211301000100000101000000000000004900000000000002020020004162701202000000000000117662C000000000000Liquidacao de Empenhos n/data Liquidação empenho 000416/2020 - FOLHA  PAG SERVIDORES DA CÂMARA DE VEREADORES REMUNERAÇÃO REFERENTE                    1CF00010000
000008211201000100000101000000000000004900000000000002020020004162701202000000000000117662D000000000000Liquidacao de Empenhos n/data Liquidação empenho 000416/2020 - FOLHA  PAG SERVIDORES DA CÂMARA DE VEREADORES REMUNERAÇÃO REFERENTE                    1CF00010000
000006221100000000000101000000000000005000000000000002020020004172701202000000000000046485D000000000000Empenhos efetuados n/data Referente empenho 000417/2020 - FOLHA  PAG SERVIDORES DA CÂMARA DE VEREADORES                                               1OF00000000
000006221301000000000101000000000000005000000000000002020020004172701202000000000000046485C000000000000Empenhos efetuados n/data Referente empenho 000417/2020 - FOLHA  PAG SERVIDORES DA CÂMARA DE VEREADORES                                               1OF00000000
000006229201010000000101000000000000005000000000000002020020004172701202000000000000046485C000000000000Empenhos efetuados n/data Referente empenho 000417/2020 - FOLHA  PAG SERVIDORES DA CÂMARA DE VEREADORES                                               1OF00000000
000005229201010000000101000000000000005000000000000002020020004172701202000000000000046485D000000000000Empenhos efetuados n/data Referente empenho 000417/2020 - FOLHA  PAG SERVIDORES DA CÂMARA DE VEREADORES                                               1OF00000000
000008211101000100000101000000000000005000000000000002020020004172701202000000000000046485D000000000000Empenhos efetuados n/data Referente empenho 000417/2020 - FOLHA  PAG SERVIDORES DA CÂMARA DE VEREADORES                                               1CF00010000
000008211201000100000101000000000000005000000000000002020020004172701202000000000000046485C000000000000Empenhos efetuados n/data Referente empenho 000417/2020 - FOLHA  PAG SERVIDORES DA CÂMARA DE VEREADORES                                               1CF00010000
000003111101180000000101000000000000005100000000000002020020004172701202000000000000046485D000000000000Liquidacao de Empenhos n/data Liquidação empenho 000417/2020 - FOLHA  PAG SERVIDORES DA CÂMARA DE VEREADORES REMUNERAÇÃO REFERENTE                    1PF00000000
000002131101010100000101000000000000005100000000000002020020004172701202000000000000046485C000000000000Liquidacao de Empenhos n/data Liquidação empenho 000417/2020 - FOLHA  PAG SERVIDORES DA CÂMARA DE VEREADORES REMUNERAÇÃO REFERENTE                    1PF00010000
000006221301000000000101000000000000005100000000000002020020004172701202000000000000046485D000000000000Liquidacao de Empenhos n/data Liquidação empenho 000417/2020 - FOLHA  PAG SERVIDORES DA CÂMARA DE VEREADORES REMUNERAÇÃO REFERENTE                    1OF00000000
000006221303000000000101000000000000005100000000000002020020004172701202000000000000046485C000000000000Liquidacao de Empenhos n/data Liquidação empenho 000417/2020 - FOLHA  PAG SERVIDORES DA CÂMARA DE VEREADORES REMUNERAÇÃO REFERENTE                    1OF00000000
000006229201010000000101000000000000005100000000000002020020004172701202000000000000046485D000000000000Liquidacao de Empenhos n/data Liquidação empenho 000417/2020 - FOLHA  PAG SERVIDORES DA CÂMARA DE VEREADORES REMUNERAÇÃO REFERENTE                    1OF00000000
000006229201030000000101000000000000005100000000000002020020004172701202000000000000046485C000000000000Liquidacao de Empenhos n/data Liquidação empenho 000417/2020 - FOLHA  PAG SERVIDORES DA CÂMARA DE VEREADORES REMUNERAÇÃO REFERENTE                    1OF00000000
000008211301000100000101000000000000005100000000000002020020004172701202000000000000046485C000000000000Liquidacao de Empenhos n/data Liquidação empenho 000417/2020 - FOLHA  PAG SERVIDORES DA CÂMARA DE VEREADORES REMUNERAÇÃO REFERENTE                    1CF00010000
000008211201000100000101000000000000005100000000000002020020004172701202000000000000046485D000000000000Liquidacao de Empenhos n/data Liquidação empenho 000417/2020 - FOLHA  PAG SERVIDORES DA CÂMARA DE VEREADORES REMUNERAÇÃO REFERENTE                    1CF00010000
000006221100000000000101000000000000005200000000000002020020004182701202000000000000119460D000000000000Empenhos efetuados n/data Referente empenho 000418/2020 - FOLHA DE PAGTO - VEREADORES                                                                 1OF00000000
000006221301000000000101000000000000005200000000000002020020004182701202000000000000119460C000000000000Empenhos efetuados n/data Referente empenho 000418/2020 - FOLHA DE PAGTO - VEREADORES                                                                 1OF00000000
000006229201010000000101000000000000005200000000000002020020004182701202000000000000119460C000000000000Empenhos efetuados n/data Referente empenho 000418/2020 - FOLHA DE PAGTO - VEREADORES                                                                 1OF00000000
000005229201010000000101000000000000005200000000000002020020004182701202000000000000119460D000000000000Empenhos efetuados n/data Referente empenho 000418/2020 - FOLHA DE PAGTO - VEREADORES                                                                 1OF00000000
000008211101000100000101000000000000005200000000000002020020004182701202000000000000119460D000000000000Empenhos efetuados n/data Referente empenho 000418/2020 - FOLHA DE PAGTO - VEREADORES                                                                 1CF00010000
000008211201000100000101000000000000005200000000000002020020004182701202000000000000119460C000000000000Empenhos efetuados n/data Referente empenho 000418/2020 - FOLHA DE PAGTO - VEREADORES                                                                 1CF00010000
000002131101010100000101000000000000005300000000000002020020004182701202000000000000119460C000000000000Liquidacao de Empenhos n/data Liquidação empenho 000418/2020 - FOLHA DE PAGTO - VEREADORES REMUNERAÇÃO REFERENTE AO MÊS DE JANEIRO                    1PF00010000
000006221301000000000101000000000000005300000000000002020020004182701202000000000000119460D000000000000Liquidacao de Empenhos n/data Liquidação empenho 000418/2020 - FOLHA DE PAGTO - VEREADORES REMUNERAÇÃO REFERENTE AO MÊS DE JANEIRO                    1OF00000000
000006221303000000000101000000000000005300000000000002020020004182701202000000000000119460C000000000000Liquidacao de Empenhos n/data Liquidação empenho 000418/2020 - FOLHA DE PAGTO - VEREADORES REMUNERAÇÃO REFERENTE AO MÊS DE JANEIRO                    1OF00000000
