12292535000162010120183112201823012019CAMARA DE VEREADORES DE INDEPENDENCIA-RS                                        
20140101CAMARA DE VEREADORES                                                            0212292535000162
20150101CAMARA MUNICIPAL E VEREADORES                                                   0212292535000162
20160101CAMARA DE VEREADORES                                                            0212292535000162
20170101CAMARA DE VEREADORES                                                            0212292535000162
20180101CAMARA DE VEREADORES                                                            0212292535000162
FINALIZADOR0000000005                                                                                                                                                                                                                                                                                                                                                                                                                                                                                                                                                                                                                                                                                                                                                                                                           
