87612826000190010120183112201801012019PREFEITURA MUNICIPAL INDEPENDENCIA                                              
000001000000000000000201000259976845600029000673900000Receitas Correntes                                                                                                                                                        S010000002793978561
000001100000000000000201000016968805600002365067620000Impostos, Taxas e Contribuicoes de Melhoria                                                                                                                               S020000000232463056
000001110000000000000201000016614534700002319892960000Impostos                                                                                                                                                                  S030000000228920347
000001112000000000000201000001000000000000081978440000Impostos sobre o Patrimonio                                                                                                                                               S040000000010000000
000001112010000000000201000001000000000000081978440000Imposto sobre a Propriedade Territorial Rural                                                                                                                             S050000000010000000
000001112011000000000201000001000000000000081978440000Imposto sobre a Propriedade Territorial Rural - Municipios Conveniados                                                                                                    S060000000010000000
000001112011100000000201000001000000000000081978440000Imposto sobre a Propriedade Territorial Rural - Municipios Conveniados - Principal                                                                                        S060000000010000000
000001112011101000000201000000600000000000049187030001ITR - Municipios Conveniados - Principal - PROPRIO                                                                                                                        A070000000006000000
000001112011102000000201000000050000000000004098910020ITR - Municipios Conveniados - Principal - MDE                                                                                                                            A070000000000500000
000001112011103000000201000000150000000000012296780040ITR - Municipios Conveniados - Principal - ASPS                                                                                                                           A070000000001500000
000001112011104000000201000000200000000000016395720031ITR - Municipios Conveniados - Principal - FUNDEB                                                                                                                         A070000000002000000
000001113000000000000201000004338711400000548450150000Impostos sobre a Renda e Proventos de Qualquer Natureza                                                                                                                   S040000000050737114
000001113030000000000201000004338711400000548450150000Imposto sobre a Renda - Retido na Fonte                                                                                                                                   S050000000050737114
000001113031000000000201000004338711400000547985970000Imposto sobre a Renda - Retido na Fonte - Trabalho                                                                                                                        S060000000050737114
000001113031100000000201000004338711400000547985970000Imposto sobre a Renda - Retido na Fonte - Trabalho - Principal                                                                                                            S060000000050737114
000001113031101000000201000003421763400000449440720000IRRF sobre Rendimentos do  Trabalho - Principal - Ativos/Inativos do Poder Executivo/Indiretas                                                                            S070000000040567634
000001113031101010000201000002053058100000269664430001IRRF sobre Rendimentos do  Trabalho - Principal - Ativos/Inativos do Poder Executivo/Indiretas - PRO                                                                      A080000000024330581
000001113031101020000201000000855440800000112360190020IRRF sobre Rendimentos do  Trabalho - Principal - Ativos/Inativos do Poder Executivo/Indiretas - MDE                                                                      A080000000010154408
000001113031101030000201000000513264500000067416100040IRRF sobre Rendimentos do  Trabalho - Principal - Ativos/Inativos do Poder Executivo/Indiretas- ASPS                                                                      A080000000006082645
000001113031102000000201000000488709700000036630190000IRRF sobre Rendimentos do  Trabalho - Principal - Ativos/Inativos do Poder Legislativo                                                                                    S070000000004887097
000001113031102010000201000000293225800000021978110001IRRF sobre Rendimentos do  Trabalho - Principal - Ativos/Inativos do Poder Legislativo - PROPRIO                                                                          A080000000002932258
000001113031102020000201000000122177400000009157560020IRRF sobre Rendimentos do  Trabalho - Principal - Ativos/Inativos do Poder Legislativo - MDE                                                                              A080000000001221774
000001113031102030000201000000073306500000005494520040IRRF sobre Rendimentos do  Trabalho - Principal - Ativos/Inativos do Poder Legislativo - ASPS                                                                             A080000000000733065
000001113031103000000201000000428238300000061915060000IRRF sobre Rendimentos do  Trabalho - Principal - Inativos pagos pelo RPPS                                                                                                S070000000005282383
000001113031103010000201000000256943000000037149000001IRRF sobre Rendimentos do  Trabalho - Principal - Inativos pagos pelo RPPS - PROPRIO                                                                                      A080000000003169430
000001113031103020000201000000107059600000015478790020IRRF sobre Rendimentos do  Trabalho - Principal - Inativos pagos pelo RPPS - MDE                                                                                          A080000000001320596
000001113031103030000201000000064235700000009287270040IRRF sobre Rendimentos do  Trabalho - Principal - Inativos pagos pelo RPPS - ASPS                                                                                         A080000000000792357
000001113034000000000201000000000000000000000464180000Imposto sobre a Renda - Retido na Fonte - Outros Rendimentos                                                                                                              S060000000000000000
000001113034100000000201000000000000000000000464180000Imposto sobre a Renda - Retido na Fonte - Outros Rendimentos - Principal                                                                                                  S060000000000000000
000001113034101000000201000000000000000000000464180000IRRF - Outros Rendimentos - Principal - Poder Executivo                                                                                                                   S070000000000000000
000001113034101010000201000000000000000000000278500001IRRF - Outros Rendimentos - Principal - Poder Executivo - PROPRIO                                                                                                         A080000000000000000
000001113034101020000201000000000000000000000116050020IRRF - Outros Rendimentos - Principal - Poder Executivo - Principal - MDE                                                                                                 A080000000000000000
000001113034101030000201000000000000000000000069630040IRRF - Outros Rendimentos - Principal - Poder Executivo - Principal - ASPS                                                                                                A080000000000000000
000001118000000000000201000011275823300001689464370000Impostos Especificos de Estados/DF Municipios                                                                                                                             S040000000168183233
000001118010000000000201000008653846500001368265510000Impostos sobre o Patrimonio para Estados/DF/Municipios                                                                                                                    S050000000138963465
000001118011000000000201000004213710000000415063750000Imposto sobre a Propriedade Predial e Territorial Urbana                                                                                                                  S060000000051437100
000001118011100000000201000003233581700000340993280000Imposto sobre a Propriedade Predial e Territorial Urbana - Principal                                                                                                      S060000000041635817
000001118011101000000201000001940149000000204593640001IPTU - Principal - PROPRIO                                                                                                                                                A070000000024801490
000001118011102000000201000000808395400000085250230020IPTU - Principal - MDE                                                                                                                                                    A070000000010633954
000001118011103000000201000000485037300000051149410040IPTU - Principal - ASPS                                                                                                                                                   A070000000006200373
000001118011200000000201000000028416700000003861230000Imposto sobre a Propriedade Predial e Territorial Urbana - Multas e Juros                                                                                                 S060000000000284167
000001118011201000000201000000017050000000002316520001IPTU - Multas e Juros - PROPRIO                                                                                                                                           A070000000000170500
000001118011202000000201000000007104200000000965490020IPTU - Multas e Juros - MDE                                                                                                                                               A070000000000071042
000001118011203000000201000000004262500000000579220040IPTU - Multas e Juros - ASPS                                                                                                                                              A070000000000042625
000001118011300000000201000000711409000000052184930000Imposto sobre a Propriedade Predial e Territorial Urbana - Divida Ativa                                                                                                   S060000000007114090
000001118011301000000201000000426845400000031310310001IPTU - Divida Ativa - PROPRIO                                                                                                                                             A070000000004268454
000001118011302000000201000000177852200000013046830020IPTU - Divida Ativa - MDE                                                                                                                                                 A070000000001778522
000001118011303000000201000000106711400000007827790040IPTU - Divida Ativa - ASPS                                                                                                                                                A070000000001067114
000001118011400000000201000000240302600000018024310000Imposto sobre a Propriedade Predial e Territorial Urbana - Divida Ativa - Multas e Juros                                                                                  S060000000002403026
000001118011401000000201000000144181600000010814100001IPTU - Divida Ativa - Multas e Juros - PROPRIO                                                                                                                            A070000000001441816
000001118011402000000201000000060075600000004506460020IPTU - Divida Ativa - Multas e Juros - MDE                                                                                                                                A070000000000600756
000001118011403000000201000000036045400000002703750040IPTU - Divida Ativa - Multas e Juros - ASPS                                                                                                                               A070000000000360454
000001118014000000000201000004440136500000953201760000Imposto sobre Transmissao “Inter Vivos” de Bens Imoveis e de Direitos Reais sobre Imoveis                                                                                 S060000000087526365
000001118014100000000201000004440136500000953201760000Imposto sobre Transmissao “Inter Vivos” de Bens Imoveis e de Direitos Reais sobre Imoveis - Principa                                                                      S060000000087526365
000001118014101000000201000002664081900000571921040001ITBI - Principal - PROPRIO                                                                                                                                                A070000000052740819
000001118014102000000201000001110034100000238300450020ITBI - Principal - MDE                                                                                                                                                    A070000000021900341
000001118014103000000201000000666020500000142980270040ITBI - Principal - ASPS                                                                                                                                                   A070000000012885205
000001118020000000000201000002621976800000321198860000Impostos sobre a Producao, circulacao de Mercadorias e Servicos                                                                                                           S050000000029219768
000001118023000000000201000002621976800000321198860000Imposto sobre Servicos de Qualquer Natureza                                                                                                                               S060000000029219768
000001118023100000000201000002599699300000317474280000Imposto sobre Servicos de Qualquer Natureza - Principal                                                                                                                   S060000000028996993
000001118023101000000201000001559819600000190483750001ISS - Principal - PROPRIO                                                                                                                                                 A070000000017398196
000001118023102000000201000000649924800000079369140020ISS - Principal - MDE                                                                                                                                                     A070000000007249248
000001118023103000000201000000389954900000047621390040ISS - Principal - ASPS                                                                                                                                                    A070000000004349549
000001118023200000000201000000022277500000003248580000Imposto sobre Servicos de Qualquer Natureza - Multas e Juros                                                                                                              S060000000000222775
000001118023201000000201000000013366500000001949090001ISS - Multas e Juros - PROPRIO                                                                                                                                            A070000000000133665
000001118023202000000201000000005569400000000812190020ISS - Multas e Juros - MDE                                                                                                                                                A070000000000055694
000001118023203000000201000000003341600000000487300040ISS - Multas e Juros - ASPS                                                                                                                                               A070000000000033416
000001118023300000000201000000000000000000000373890000Imposto sobre Servicos de Qualquer Natureza - Divida Ativa                                                                                                                S060000000000000000
000001118023301000000201000000000000000000000224340001ISS - Divida Ativa - PROPRIO                                                                                                                                              A070000000000000000
000001118023302000000201000000000000000000000093470020ISS - Divida Ativa - MDE                                                                                                                                                  A070000000000000000
000001118023303000000201000000000000000000000056080040ISS - Divida Ativa - ASPS                                                                                                                                                 A070000000000000000
000001118023400000000201000000000000000000000102110000Imposto sobre Servicos de Qualquer Natureza - Divida Ativa - Multas e Juros                                                                                               S060000000000000000
000001118023401000000201000000000000000000000061260001ISS - Divida Ativa -Multas e Juros - PROPRIO                                                                                                                              A070000000000000000
000001118023402000000201000000000000000000000025530020ISS - Divida Ativa -Multas e Juros - MDE                                                                                                                                  A070000000000000000
000001118023403000000201000000000000000000000015320040ISS - Divida Ativa -Multas e Juros - ASPS                                                                                                                                 A070000000000000000
000001120000000000000201000000354270900000045174660000Taxas                                                                                                                                                                     S030000000003542709
000001121000000000000201000000325903600000044605220000Taxas pelo Exercicio do Poder de Policia                                                                                                                                  S040000000003259036
000001121010000000000201000000281007400000038869220000Taxas de Inspecao, Controle e Fiscalizacao                                                                                                                                S050000000002810074
000001121011000000000201000000281007400000038869220000Taxas de Inspecao, Controle e Fiscalizacao                                                                                                                                S060000000002810074
000001121011100000000201000000281007400000033615000001Taxas de Inspecao, Controle e Fiscalizacao - Principal                                                                                                                    A060000000002810074
000001121011200000000201000000000000000000000295530001Taxas de Inspecao, Controle e Fiscalizacao - Multas e Juros                                                                                                               A060000000000000000
000001121011300000000201000000000000000000003724670001Taxas de Inspecao, Controle e Fiscalizacao - Divida Ativa                                                                                                                 A060000000000000000
000001121011400000000201000000000000000000001234020001Taxas de Inspecao, Controle e Fiscalizacao - Divida Ativa - Multas e Juros                                                                                                A060000000000000000
000001121040000000000201000000044896200000005736000000Taxa de Controle e Fiscalizacao Ambiental                                                                                                                                 S050000000000448962
000001121041000000000201000000044896200000005736000000Taxa de Controle e Fiscalizacao Ambiental                                                                                                                                 S060000000000448962
000001121041100000000201000000044896200000005736001005Taxa de Controle e Fiscalizacao Ambiental - Principal                                                                                                                     A060000000000448962
000001122000000000000201000000028367300000000569440000Taxas pela Prestacao de Servicos                                                                                                                                          S040000000000283673
000001122010000000000201000000028367300000000569440000Taxas pela Prestacao de Servicos                                                                                                                                          S050000000000283673
000001122011000000000201000000028367300000000569440000Taxas pela Prestacao de Servicos                                                                                                                                          S060000000000283673
000001122011100000000201000000028367300000000497000001Taxas pela Prestacao de Servicos - Principal                                                                                                                              A060000000000283673
000001122011400000000201000000000000000000000072440001Taxas pela Prestacao de Servicos - Divida Ativa - Multas e Juros                                                                                                          A060000000000000000
000001200000000000000201000008921500500000951572110000Contribuicoes                                                                                                                                                             S020000000089215005
000001210000000000000201000007767776100000792627910000Contribuicoes Sociais                                                                                                                                                     S030000000077677761
000001210040000000000201000007767776100000792627910000Contribuicao para o Regime Proprio de Previdencia Social - RPPS                                                                                                           S050000000077677761
000001210041000000000201000000000000000000000000000000Contribuicao Patronal de Servidor Ativo Civil para o RPPS                                                                                                                 S060000000000000000
000001210041200000001201000000000000000000000000000050Contribuicao Patronal de Servidor Ativo Civil para o RPPS - Multas e Juros                                                                                                A060000000000000000
000001210042000000000201000007767776100000792627910000Contribuicao do Servidor Ativo Civil para o RPPS                                                                                                                          S060000000077677761
000001210042100000001201000007767776100000792627910050Segurados- Contribuicao do Servidor Ativo Civil para o RPPS - Principal                                                                                                   A060000000077677761
000001240000000000000201000001153724400000158944200000Contribuicao para o Custeio do Servico de Iluminacao Publica                                                                                                              S030000000011537244
000001240001000000000201000001153724400000158944200000Contribuicao para o Custeio do Servico de Iluminacao Publica                                                                                                              S060000000011537244
000001240001100000000201000001153724400000158944200001CIP- Contribuicao para o Custeio do Servico de Iluminacao Publica - Principal                                                                                             A060000000011537244
000001300000000000000201000019438172000002961013040000Receita Patrimonial                                                                                                                                                       S020000000230106271
000001310000000000000201000001688095000000173675720000Exploracao do Patrimonio Imobiliario do Estado                                                                                                                            S030000000016880950
000001310010000000000201000001688095000000173675720000Alugueis, Arrendamentos, Foros, Laudemios, Tarifas de Ocupacao                                                                                                            S050000000016880950
000001310011000000000201000001688095000000173675720000Alugueis e Arrendamentos                                                                                                                                                  S060000000016880950
000001310011100000000201000001688095000000171624000001Alugueis e Arrendamentos - Principal                                                                                                                                      A060000000016880950
000001310011200000000201000000000000000000000343480001Alugueis e Arrendamentos - Multas e Juros                                                                                                                                 A060000000000000000
000001310011300000000201000000000000000000001681830001Alugueis e Arrendamentos - Divida Ativa                                                                                                                                   A060000000000000000
000001310011400000000201000000000000000000000026410001Alugueis e Arrendamentos - Divida Ativa - Multas e Juros                                                                                                                  A060000000000000000
000001320000000000000201000017750077000002422337320000Valores Mobiliarios                                                                                                                                                       S030000000178440321
000001321000000000000201000017750077000002422337320000Juros e Correcoes Monetarias                                                                                                                                              S040000000178440321
000001321001000000000201000001333558700000164565970000Remuneracao de Depositos Bancarios                                                                                                                                        S060000000014275138
000001321001100000000201000001333558700000164565970000Remuneracao de Depositos Bancarios - Principal                                                                                                                            S060000000014275138
000001321001101000000201000000000000000000060600290000Remuneracao de Depositos de Recursos Vinculados - Principal                                                                                                               S070000000000939551
000001321001101020000201000000000000000000013773610031Remuneracao de Depositos  Bancarios de Recursos Vinculados - FUNDEB - Principal                                                                                           A080000000000000000
000001321001101030000201000000000000000000032797480000Remuneracao de Depositos  Bancarios de Recursos Vinculados - Fundo de Saude - Principal                                                                                   S080000000000619480
000001321001101030100201000000000000000000002017404510Rendimentos do PAB Fixo 4510                                                                                                                                              A080000000000000000
000001321001101030200201000000000000000000001225724111Rendimentos Protese Dentaria FE RV4111                                                                                                                                    A080000000000000000
000001321001101030300201000000000000000000002567034303Rendimentos Construcao UBS RV4303                                                                                                                                         A080000000000000000
000001321001101030400201000000000000000000000532094935Rendimentos Construcao UBS RV4935                                                                                                                                         A080000000000026681
000001321001101030500201000000000000000000000471464710Rendimentos PQAVS RV4710                                                                                                                                                  A080000000000012639
000001321001101030600201000000000000000000000064524510Rendimentos Telessaude RV4510                                                                                                                                             A080000000000000000
000001321001101030700201000000000000000000000552384720Rendimentos Aperfeicoamento do SUS RV4720                                                                                                                                 A080000000000023706
000001321001101030800201000000000000000000000979204710Rendimentos IPVS RV4710                                                                                                                                                   A080000000000026597
000001321001101030900201000000000000000000001503154050Rendimentos Fraldas RV4050                                                                                                                                                A080000000000000000
000001321001101031000201000000000000000000001023474590Rendimentos Teto MAC RV4590                                                                                                                                               A080000000000000000
000001321001101031100201000000000000000000000414254521Rendimentos PMAQ RV4521                                                                                                                                                   A080000000000000000
000001321001101031200201000000000000000000004653394931Rendimentos C/C 11.229-1 Equip Mat Perm FMS RV4931                                                                                                                        A080000000000000000
000001321001101031300201000000000000000000004494524931Rendimentos C/C 11.304-2 Equip Mat Perm FMS RV4931                                                                                                                        A080000000000000000
000001321001101031400201000000000000000000000172564520Rendimentos Implantacao NASF RV4520                                                                                                                                       A080000000000000000
000001321001101031500201000000000000000000000991884760Rendimentos Acoes Estrut VISA RV4760                                                                                                                                      A080000000000026086
000001321001101031600201000000000000000000000310494520RENDIMENTOS DO PAB VARIAVEL                                                                                                                                               A080000000000000000
000001321001101031800201000000000000000000000089964503RENDIMENTOS ASSISTENCIA FARMACEUTICAFEDERAL RV4503                                                                                                                        A080000000000008666
000001321001101031900201000000000000000000000131964160RENDIMENTOS PIM ESTADUAL 4160                                                                                                                                             A080000000000000000
000001321001101032000201000000000000000000001222384011RENDIMENTOS PIES 4011 FE                                                                                                                                                  A080000000000104877
000001321001101032100201000000000000000000000279804050RENDIMENTOS FARMACIA BASICA FE 4050 FE                                                                                                                                    A080000000000000000
000001321001101032200201000000000000000000001464194090RENDIMENTO PSF ESTADUAL 4090 FE                                                                                                                                           A080000000000140000
000001321001101032400201000000000000000000001909574936RENDIMENTOS AMBULANCIA PORT3673 RV4936                                                                                                                                    A080000000000000000
000001321001101032500201000000000000000000001518724931Rendimentos Equip Mat Perman FMS RV4931                                                                                                                                   A080000000000000000
000001321001101032600201000000000000000000004187994520REND. INCREMENTO TEMPORARIO PISO AB EMENDA PARLAMENTAR PORT1000/18                                                                                                        A080000000000250000
0000013210011010327002010000000000000000000000022840111734-REND. INCENTIVO P/ CONTROLE DA TUBERCULOSE (PMCT) NA ATENCAO BASICA 4011 FE RES CIBS 507/11                                                                          A080000000000000228
000001321001101032900201000000000000000000000017124503REND. ORGANIZACAO FARMACIA BLOCO CUSTEIO RV 4503                                                                                                                          A080000000000000000
000001321001101070000201000000000000000000003519360000Remuneracao de Depositos  Bancarios de Recursos Vinculados - Fundo Nacional de Assistencia Social -                                                                       S080000000000085427
000001321001101070100201000000000000000000001038541064Rendimentos PSB PBFI FMAS RV1064                                                                                                                                          A080000000000085427
000001321001101070200201000000000000000000001706231021Rendimentos PSB SCFV FMAS RV1021                                                                                                                                          A080000000000000000
000001321001101070300201000000000000000000000343251038Rendimentos GBF IGDBG RV1038                                                                                                                                              A080000000000000000
000001321001101070400201000000000000000000000237641067Rendimentos GSUAS IGD-SUAS FMAS RV1067                                                                                                                                    A080000000000000000
000001321001101070500201000000000000000000000193701103Rendimentos OASF/FEAS RV1103                                                                                                                                              A080000000000000000
000001321001101080000201000000000000000000001168500000Remuneracao de Depositos  Bancarios de Recursos Vinculados - Fundo Nacional de Desenvolvimento da Ed                                                                      S080000000000001681
000001321001101080100201000000000000000000000095491071Rendimentos PNAE Educ. Espacial RV1071                                                                                                                                    A080000000000000000
000001321001101080200201000000000000000000000039771059Rendimentos PNAE EJA RV1059                                                                                                                                               A080000000000000000
000001321001101080300201000000000000000000000389721014Rendimentos Salario Educacao QSE RV1014                                                                                                                                   A080000000000000000
000001321001101080400201000000000000000000000542841017Rendimentos PEATERS RV1017                                                                                                                                                A080000000000000000
000001321001101080500201000000000000000000000083871016Rendimentos do PNATE RV1016                                                                                                                                               A080000000000000000
000001321001101080600201000000000000000000000016811072RENDIMENTOS Apoio Financeiro AFM - Resolucao FNDE 11/2018                                                                                                                 A080000000000001681
000001321001101090000201000000000000000000000161670000Remuneracao de Depositos  Bancarios de Recursos Vinculados - Fundo de Assistencia Social do Servidor                                                                      S080000000000000000
000001321001101090800201000000000000000000000161671202Rend Poup Trator Agricola SICONV 034964/2016 RV1202                                                                                                                       A080000000000000000
000001321001101990000201000000000000000000009179670000Remuneracao de Outros Depositos  Bancarios de Recursos Vinculados - Principal                                                                                             S080000000000232963
000001321001101990100201000000000000000000001160231005Rendimentos FMDMA RV1005                                                                                                                                                  A080000000000000000
000001321001101990200201000000000000000000000080221065Rendimentos Alienacao L2345/12 FHIS RV1065                                                                                                                                A080000000000008022
000001321001101990300201000000000000000000001593591039Rendimentos Poupanca Pavim. Esq. Budel CR101314607/2013 RV1039                                                                                                            A080000000000000000
000001321001101990400201000000000000000000000039801024Rend. Poup. Revit. Praca Joao Saffi RV1024                                                                                                                                A080000000000000000
000001321001101990500201000000000000000000003884681022Rend. Poup. Quadra Joao Saffi RV1022                                                                                                                                      A080000000000000000
000001321001101990600201000000000000000000000161031050Rendimentos IR Doacao FUNDICA RV1050                                                                                                                                      A080000000000000000
000001321001101990700201000000000000000000002249411010Rendimentos Leilao Outros RV1010                                                                                                                                          A080000000000224941
000001321001101990800201000000000000000000000010711022Rend. Aplic. Quadra Joao Saffi RV1022                                                                                                                                     A080000000000000000
000001321001102000000201000001333558700000103965680000Remuneracao de Depositos de Recursos Nao Vinculados - Principal                                                                                                           S070000000013335587
000001321001102010000201000000000000000000000425770000Remuneracao de Depositos de Recursos Nao Vinculados - Depositos de Poupanca - Principal                                                                                   S080000000000000000
000001321001102010200201000000000000000000000425770001Rendimentos Poupanca Contrapartida Pavim. Esq. Budel CR101314607/2013 RV0001                                                                                              A080000000000000000
000001321001102990000201000001333558700000103539910000Remuneracao de Outros Depositos  Bancarios de Recursos Nao Vinculados - Principal                                                                                         S080000000013335587
000001321001102990100201000000622434600000056073400001Rendimentos do Executivo - BB                                                                                                                                             A080000000006224346
000001321001102990200201000000622434600000040539000001Rendimentos do Executivo - Banrisul                                                                                                                                       A080000000006224346
000001321001102990400201000000088689500000006927510001Rendimentos do Legislativo - Banrisul                                                                                                                                     A080000000000886895
000001321004000000000201000016416518300002257771350000Remuneracao dos Recursos do Regime Proprio de Previdencia Social - RPPS                                                                                                   S060000000164165183
000001321004100000001201000016416518300002257771350000Remuneracao dos Recursos do Regime Proprio de Previdencia Social - RPPS - Principal                                                                                       S060000000164165183
000001321004101000001201000002345216900000569329400050FPSM BB PREVID RF IMA-B TIT PUBL FI                                                                                                                                       A070000000023452169
000001321004102000001201000002345216900000477419410050FPSM BB RF IMAB 5+                                                                                                                                                        A070000000023452169
000001321004103000001201000002345216900000217838790050FPSM CEF NOVO BRASIL RF LP                                                                                                                                                A070000000023452169
000001321004104000001201000002345216900000299116550050FPSM CEF FI BRASIL IRF-M 1 TIT PUB RF                                                                                                                                     A070000000023452169
000001321004105000001201000002345216900000000000000050FPSM BB PREVIDENCIARIO RF TP VIII FI                                                                                                                                      A070000000023452169
000001321004106000001201000002345216900000384218510050FPSM CEF CAIXA BRASIL 2024 III TP RF                                                                                                                                      A070000000023452169
000001321004107000001201000002345216900000309848690050FPSM BB PREV RF IRF-M 1 TP                                                                                                                                                A070000000023452169
000001360000000000000201000000000000000000365000000000Cessao de Direitos                                                                                                                                                        S030000000034785000
000001360010000000000201000000000000000000365000000000Cessao do Direito de Operacionalizacao de Pagamentos                                                                                                                      S050000000034785000
000001360011000000000201000000000000000000365000000000Cessao do Direito de Operacionalizacao de Pagamentos                                                                                                                      S060000000034785000
000001360011100000000201000000000000000000365000000001Cessao do Direito de Operacionalizacao de Pagamentos - Principal                                                                                                          A060000000034785000
000001600000000000000201000000605183500000169405500000Receita de Servicos                                                                                                                                                       S020000000012051835
000001610000000000000201000000124215000000163282500000Servicos Administrativos e Comerciais Gerais                                                                                                                              S030000000007242150
000001610010000000000201000000124215000000060262500000Servicos Administrativos e Comerciais Gerais                                                                                                                              S050000000001242150
000001610011000000000201000000124215000000060262500000Servicos Administrativos e Comerciais Gerais                                                                                                                              S060000000001242150
000001610011100000000201000000124215000000059823000001Servicos Administrativos e Comerciais Gerais - Principal                                                                                                                  A060000000001242150
000001610011200000000201000000000000000000000002320001Servicos Administrativos e Comerciais Gerais - Multas e Juros                                                                                                             A060000000000000000
000001610011300000000201000000000000000000000407120001Servicos Administrativos e Comerciais Gerais - Divida Ativa                                                                                                               A060000000000000000
000001610011400000000201000000000000000000000030060001Servicos Administrativos e Comerciais Gerais - Divida Ativa - Multas e Juros                                                                                              A060000000000000000
000001610020000000000201000000000000000000103020000000Inscricao em Concursos e Processos Seletivos                                                                                                                              S050000000006000000
000001610021000000000201000000000000000000103020000000Inscricao em Concursos e Processos Seletivos                                                                                                                              S060000000006000000
000001610021100000000201000000000000000000103020000001Inscricao em Concursos e Processos Seletivos - Principal                                                                                                                  A060000000006000000
000001620000000000000201000000000000000000001296000000Servicos e Atividades Referentes a Navegacao e ao Transporte                                                                                                              S030000000000000000
000001620020000000000201000000000000000000001296000000Servicos de Transporte                                                                                                                                                    S050000000000000000
000001620021000000000201000000000000000000001296000000Servicos de Transporte                                                                                                                                                    S060000000000000000
000001620021100000000201000000000000000000001296000001Servicos de Transporte - Principal                                                                                                                                        A060000000000000000
000001640000000000000201000000000000000000004827000000Servicos e Atividades Financeiras                                                                                                                                         S030000000000000000
000001640010000000000201000000000000000000004827000000Retorno de Operacoes, Juros e Encargos Financeiros                                                                                                                        S050000000000000000
000001640011000000000201000000000000000000004827000000Retorno de Operacoes, Juros e Encargos Financeiros                                                                                                                        S060000000000000000
000001640011100000000201000000000000000000004827000001Retorno de Operacoes, Juros e Encargos Financeiros - Principal                                                                                                            A060000000000000000
000001690000000000000201000000480968500000000000000000Outros Servicos                                                                                                                                                           S030000000004809685
000001690990000000000201000000480968500000000000000000Outros Servicos                                                                                                                                                           S050000000004809685
000001690991000000000201000000480968500000000000000000Outros Servicos                                                                                                                                                           S060000000004809685
000001690991100000000201000000480968500000000000000001Outros Servicos - Principal                                                                                                                                               A060000000004809685
000001700000000000000201000213375045100022366515900000Transferencias Correntes                                                                                                                                                  S020000002223461005
000001710000000000000201000098240049200010001490310000Transferencias da Uniao e de suas Entidades                                                                                                                               S030000001039362992
000001718000000000000201000098240049200010001490310000Transferencias da Uniao - Especifica E/M                                                                                                                                  S040000001039362992
000001718010000000000201000084849132500008063854060000Participacao na Receita da Uniao                                                                                                                                          S050000000848491325
000001718012000000000201000078277862500007413358430000Cota-Parte do Fundo de Participacao dos Municipios - Cota Mensal                                                                                                          S060000000782778625
000001718012100000000201000078277862500007413358430000Cota-Parte do Fundo de Participacao dos Municipios - Cota Mensal - Principal                                                                                              S060000000782778625
000001718012101000000201000046966717500004448015040001Cota-Parte do FPM - Cota Mensal - Principal - PROPRIO                                                                                                                     A070000000469667175
000001718012102000000201000003913893100000370667930020Cota-Parte do FPM - Cota Mensal - Principal - MDE                                                                                                                         A070000000039138931
000001718012103000000201000011741679400001112003780040Cota-Parte do FPM - Cota Mensal - Principal - ASPS                                                                                                                        A070000000117416794
000001718012104000000201000015655572500001482671680031Cota-Parte do FPM - Cota Mensal - Principal - FUNDEB                                                                                                                      A070000000156555725
000001718013000000000201000003302560000000329256070000Cota-Parte do Fundo de Participacao do Municipios – 1% Cota entregue no mes de dezembro                                                                                   S060000000033025600
000001718013100000000201000003302560000000329256070000Cota-Parte do Fundo de Participacao do Municipios – 1% Cota entregue no mes de dezembro - Principal                                                                       S060000000033025600
000001718013101000000201000001981536000000197553640001Cota-Parte do FPM – 1% Cota entregue no mes de dezembro - Principal - PROPRIO                                                                                             A070000000019815360
000001718013102000000201000000825640000000082314020020Cota-Parte do FPM – 1% Cota entregue no mes de dezembro - Principal -  MDE                                                                                                A070000000008256400
000001718013103000000201000000495384000000049388410040Cota-Parte do FPM – 1% Cota entregue no mes de dezembro - Principal - ASPS                                                                                                A070000000004953840
000001718014000000000201000003268710000000321239560000Cota-Parte do Fundo de Participacao dos Municipios - 1% Cota entregue no mes de julho                                                                                     S060000000032687100
000001718014100000000201000003268710000000321239560000Cota-Parte do Fundo de Participacao dos Municipios - 1% Cota entregue no mes de julho - Principal                                                                         S060000000032687100
000001718014101000000201000001961226000000192743740001Cota-Parte do FPM - 1% Cota entregue no mes de julho - Principal - PROPRIO                                                                                                A070000000019612260
000001718014102000000201000000817177500000080309890020Cota-Parte do FPM - 1% Cota entregue no mes de julho - Principal -  MDE                                                                                                   A070000000008171775
000001718014103000000201000000490306500000048185930040Cota-Parte do FPM - 1% Cota entregue no mes de julho - Principal - ASPS                                                                                                   A070000000004903065
000001718020000000000201000000826543000000123309590000Transferencia da Compensacao Financeira pela Exploracao de Recursos Naturais                                                                                              S050000000008265430
000001718026000000000201000000826543000000123309590000Cota-Parte do Fundo Especial do Petroleo – FEP                                                                                                                            S060000000008265430
000001718026100000000201000000826543000000123309590001Cota-Parte do Fundo Especial do Petroleo – FEP - Principal                                                                                                                A060000000008265430
000001718030000000000201000007804585200001196115800000Transferencia de Recursos do Sistema Unico de Saude – SUS – Repasses Fundo a Fundo                                                                                        S050000000115221065
000001718031000000000201000007804585200001196115800000Transferencia de Recursos do Sistema Unico de Saude – SUS – Repasses Fundo a Fundo                                                                                        S060000000115221065
000001718031100000000201000007804585200001196115800000Transferencia de Recursos do Sistema Unico de Saude – SUS – Repasses Fundo a Fundo - Principal                                                                            S060000000115221065
000001718031101000000201000001823919600000185499964510PAB FIXO                                                                                                                                                                  A070000000018267041
000001718031102000000201000001335600000000000000004520PSF FEDERAL                                                                                                                                                               A070000000013856000
000001718031103000000201000002129400000000000000004520PACS FEDERAL                                                                                                                                                              A070000000021294000
000001718031104000000201000000535200000000000000004520SAUDE BUCAL FEDERAL                                                                                                                                                       A070000000005352000
000001718031105000000201000000120000000000000000004710PFVS PISO FIXO VIGILANCIA EM SAUDE FEDERAL                                                                                                                                A070000000001200000
000001718031106000000201000000342465600000037637034503FARMACIA BASICA FEDERAL                                                                                                                                                   A070000000003763703
000001718031107000000201000000528000000000000000004521PMAQ                                                                                                                                                                      A070000000005280000
000001718031108000000201000000960000000000000000004520NASF                                                                                                                                                                      A070000000009600000
000001718031109000000201000000030000000000000000004520PSE PROGRAMA DE SAUDE NA ESCOLA                                                                                                                                           A070000000000300000
000001718031110000000201000000000000000000573478254520PAB VARIAVEL                                                                                                                                                              A070000000002700000
000001718031111000000201000000000000000000072428774502VIGILANCIA EM SAUDE FEDERAL RV4502                                                                                                                                        A070000000006076563
000001718031112000000201000000000000000000079281324520Apoio Financeiro - Portaria MS n. 748/2018                                                                                                                                A070000000006148768
000001718031113000000201000000000000000000006622474501MAC FF 4501                                                                                                                                                               A070000000000882990
000001718031114000000201000000000000000000000000004936AMBULANCIA PORT3673 RV4936                                                                                                                                                A070000000000000000
000001718031115000000201000000000000000000200000004520INCREMENTO TEMPORARIO PISO AB EMENDA PARLAMENTAR PORT1000/18                                                                                                              A070000000020000000
000001718031116000000201000000000000000000011000004504EDUCACAO E FORMACAO EM SAUDE - GESTAO DO SUS FF                                                                                                                           A070000000000000000
000001718031117000000201000000000000000000000168004501APOIO A IMPLEMENTACAO DA REDE CEGONHA MAC FF                                                                                                                              A070000000000000000
000001718031118000000201000000000000000000006000004502INCENTIVO FINANCEIRO PARA VISA RV4502                                                                                                                                     A070000000000500000
000001718031120000000201000000000000000000024000004503ORGANIZACAO FARMACIA BLOCO CUSTEIO RV 4503                                                                                                                                A070000000000000000
000001718040000000000201000000893141900000104129300000Transferencias de Recursos do Fundo Nacional de Assistencia Social – FNAS                                                                                                 S050000000012006419
000001718041000000000201000000893141900000104129300000Transferencias de Recursos do Fundo Nacional de Assistencia Social – FNAS                                                                                                 S060000000012006419
000001718041100000000201000000893141900000104129300000Transferencias de Recursos do Fundo Nacional de Assistencia Social – FNAS - Principal                                                                                     S060000000012006419
000001718041101000000201000000176960100000016898091038IGD BF                                                                                                                                                                    A070000000001769601
000001718041102000000201000000045886000000007434801067IGD SUAS                                                                                                                                                                  A070000000000458860
000001718041103000000201000000497795800000031796411021SCFV                                                                                                                                                                      A070000000004977958
000001718041104000000201000000172500000000048000001064PAIF                                                                                                                                                                      A070000000004800000
000001718050000000000201000003404532800000395066130000Transferencias de Recursos do Fundo Nacional do Desenvolvimento da Educacao – FNDE                                                                                        S050000000038802207
000001718051000000000201000002304705800000234733740000Transferencias do Salario-Educacao                                                                                                                                        S060000000023047058
000001718051100000000201000002304705800000234733741014Transferencias do Salario-Educacao - Principal                                                                                                                            A060000000023047058
000001718052000000000201000000005400000000000540000000Transferencias Diretas do FNDE referentes ao Programa Dinheiro Direto na Escola – PDDE                                                                                    S060000000000054000
000001718052100000000201000000005400000000000540001036Transferencias Diretas do FNDE referentes ao Programa Dinheiro Direto na Escola – PDDE - Principal                                                                        A060000000000054000
000001718053000000000201000000616880000000063436000000Transferencias Diretas do FNDE referentes ao Programa Nacional de Alimentacao Escolar – PNAE                                                                              S060000000006168800
000001718053100000000201000000616880000000063436000000Transferencias Diretas do FNDE referentes ao Programa Nacional de Alimentacao Escolar – PNAE - Princ                                                                      S060000000006168800
000001718053101000000201000000244080000000025200001001PNAE FUNDAMENTAL                                                                                                                                                          A070000000002440800
000001718053102000000201000000226840000000022898001031PNAE CRECHE                                                                                                                                                               A070000000002268400
000001718053103000000201000000129320000000012932001033PNAE PRE-ESCOLA                                                                                                                                                           A070000000001293200
000001718053104000000201000000016640000000001664001059PNAE EJA                                                                                                                                                                  A070000000000166400
000001718053105000000201000000000000000000000742001071PNAE EDUCACAO ESPECIAL                                                                                                                                                    A070000000000000000
000001718054000000000201000000477547000000048787600000Transferencias Diretas do FNDE referentes ao Programa Nacional de Apoio ao Transporte do Escolar – P                                                                      S060000000004775470
000001718054100000000201000000477547000000048787601016Transferencias Diretas do FNDE referentes ao Programa Nacional de Apoio ao Transporte do Escolar – P                                                                      A060000000004775470
000001718059000000000201000000000000000000047568790000Outras Transferencias Diretas do Fundo Nacional do Desenvolvimento da Educacao – FNDE                                                                                     S060000000004756879
000001718059100000000201000000000000000000047568790000Outras Transferencias Diretas do Fundo Nacional do Desenvolvimento da Educacao – FNDE - Principal                                                                         S060000000004756879
000001718059101000000201000000000000000000047568791072Apoio Financeiro AFM - Resolucao FNDE 11/2018                                                                                                                             A070000000004756879
000001718060000000000201000000462113800000045260430000Transferencia Financeira do ICMS – Desoneracao – L.C. No 87/96                                                                                                            S050000000004621138
000001718061000000000201000000462113800000045260430000Transferencia Financeira do ICMS – Desoneracao – L.C. No 87/96                                                                                                            S060000000004621138
000001718061100000000201000000462113800000045260430000Transferencia Financeira do ICMS – Desoneracao – L.C. No 87/96 - Principal                                                                                                S060000000004621138
000001718061101000000201000000277268200000027156280001Transferencia Financeira do ICMS – Desoneracao – L.C. No 87/96 - Principal - PROPRIO                                                                                      A070000000002772682
000001718061102000000201000000023105700000002262980020Transferencia Financeira do ICMS – Desoneracao – L.C. No 87/96 - Principal - MDE                                                                                          A070000000000231057
000001718061103000000201000000069317100000006789040040Transferencia Financeira do ICMS – Desoneracao – L.C. No 87/96 - Principal - ASPS                                                                                         A070000000000693171
000001718061104000000201000000092422800000009052130031Transferencia Financeira do ICMS – Desoneracao – L.C. No 87/96 - Principal - FUNDEB                                                                                       A070000000000924228
000001718100000000000201000000000000000000073755000000Transferencias de Convenios da Uniao e de Suas Entidades                                                                                                                  S050000000011955408
000001718109000000000201000000000000000000073755000000Outras Transferencias de Convenios da Uniao                                                                                                                               S060000000011955408
000001718109100000000201000000000000000000073755000000Outras Transferencias de Convenios da Uniao - Principal                                                                                                                   S060000000011955408
000001718109101000000201000000000000000000073755001022REFORMA E AMPLICACAO DA QUADRA DE ESPORTES NA PRACA JOAO SAFFI RV1022                                                                                                     A070000000011955408
000001720000000000000201000088427612100009516797680000Transferencias dos Estados e do Distrito Federal e de suas Entidades                                                                                                      S030000000913024175
000001728000000000000201000088427612100009516797680000Transferencias dos Estados - Especifica E/M                                                                                                                               S040000000913024175
000001728010000000000201000082564355300008828243600000Participacao na Receita dos Estados                                                                                                                                       S050000000841541524
000001728011000000000201000076709126400008131358010000Cota-Parte do ICMS                                                                                                                                                        S060000000767091264
000001728011100000000201000076709126400008131358010000Cota-Parte do ICMS - Principal                                                                                                                                            S060000000767091264
000001728011101000000201000046025475800004878814700001Cota-Parte do ICMS - Principal - PROPRIO                                                                                                                                  A070000000460254758
000001728011102000000201000003835456300000406567920020Cota-Parte do ICMS - Principal - MDE                                                                                                                                      A070000000038354563
000001728011103000000201000011506369000001219703720040Cota-Parte do ICMS - Principal- ASPS                                                                                                                                      A070000000115063690
000001728011104000000201000015341825300001626271670031Cota-Parte do ICMS - Principal - FUNDEB                                                                                                                                   A070000000153418253
000001728012000000000201000004599398400000562316450000Cota-Parte do IPVA                                                                                                                                                        S060000000061331955
000001728012100000000201000004599398400000562316450000Cota-Parte do IPVA - Principal                                                                                                                                            S060000000061331955
000001728012101000000201000002759639000000337389580001Cota-Parte do IPVA - Principal - PROPRIO                                                                                                                                  A070000000039814361
000001728012102000000201000000229969900000028115890020Cota-Parte do IPVA - Principal - MDE                                                                                                                                      A070000000003059699
000001728012103000000201000000689909800000084347480040Cota-Parte do IPVA - Principal - ASPS                                                                                                                                     A070000000009259098
000001728012104000000201000000919879700000112463500031Cota-Parte do IPVA - Principal - FUNDEB                                                                                                                                   A070000000009198797
000001728013000000000201000001076348300000118765330000Cota-Parte do IPI - Municipios                                                                                                                                            S060000000011323483
000001728013100000000201000001076348300000118765330000Cota-Parte do IPI - Municipios - Principal                                                                                                                                S060000000011323483
000001728013101000000201000000645809000000071259160001Cota-Parte do IPI - Municipios - Principal - PROPRIO                                                                                                                      A070000000006858090
000001728013102000000201000000053817400000005938290020Cota-Parte do IPI - Municipios - Principal - MDE                                                                                                                          A070000000000568174
000001728013103000000201000000161452200000017814820040Cota-Parte do IPI - Municipios - Principal - ASPS                                                                                                                         A070000000001744522
000001728013104000000201000000215269700000023753060031Cota-Parte do IPI - Municipios - Principal - FUNDEB                                                                                                                       A070000000002152697
000001728014000000000201000000179482200000015803810000Cota-Parte da Contribuicao de Intervencao no Dominio Economico                                                                                                            S060000000001794822
000001728014100000000201000000179482200000015803811018Cota-Parte da Contribuicao de Intervencao no Dominio Economico - Principal                                                                                                A060000000001794822
000001728030000000000201000002555735800000381893040000Transferencia de Recursos do Estado para Programas de Saude – Repasse Fundo a Fundo                                                                                       S050000000038407441
000001728031000000000201000002555735800000381893040000Transferencia de Recursos do Estado para Programas de Saude – Repasse Fundo a Fundo                                                                                       S060000000038407441
000001728031100000000201000002555735800000381893040000Transferencia de Recursos do Estado para Programas de Saude – Repasse Fundo a Fundo - Principal                                                                           S060000000038407441
000001728031101000000201000000726920000000105563984011PIES                                                                                                                                                                      A070000000010520398
000001728031102000000201000000950000000000155000004090PSF ESTADUAL                                                                                                                                                              A070000000015493115
000001728031103000000201000000141960000000014931154090PACS ESTADUAL                                                                                                                                                             A070000000001419600
000001728031104000000201000000496855800000013866514050FARMACIA BASICA ESTADUAL                                                                                                                                                  A070000000004968558
000001728031105000000201000000240000000000024000004160PIM                                                                                                                                                                       A070000000002400000
000001728031106000000201000000000000000000068381404050FRALDAS FE                                                                                                                                                                A070000000003590770
000001728031107000000201000000000000000000000150004011INCENTIVO P/ CONTROLE DA TUBERCULOSE (PMCT) NA ATENCAO BASICA 4011 FE RES CIBS 507/11                                                                                     A070000000000015000
000001728100000000000201000003300915800000306551370000Transferencia de Convenios dos Estados e do Distrito Federal e de Suas Entidades                                                                                          S050000000033009158
000001728102000000000201000003225592800000299019070000Transferencias de Convenio dos Estados Destinadas a Programas de Educacao                                                                                                 S060000000032255928
000001728102100000000201000003225592800000299019070000Transferencias de Convenio dos Estados Destinadas a Programas de Educacao - Principal                                                                                     S060000000032255928
000001728102101000000201000003225592800000299019070000Transferencias de Convenios para o Transporte Escolar - Principal                                                                                                         S070000000032255928
000001728102101010000201000003225592800000299019071017PEATE RS                                                                                                                                                                  A080000000032255928
000001728109000000000201000000075323000000007532300000Outras Transferencias de Convenio dos Estados                                                                                                                             S060000000000753230
000001728109100000000201000000075323000000007532300000Outras Transferencias de Convenio dos Estados - Principal                                                                                                                 S060000000000753230
000001728109107000000201000000075323000000007532301103Programa OASF - Orientacao e Apoio Socio-familiar - Principal                                                                                                             A070000000000753230
000001728990000000000201000000006605200000000109670000Outras Transferencias dos Estados                                                                                                                                         S050000000000066052
000001728991000000000201000000006605200000000109670000Outras Transferencias dos Estados                                                                                                                                         S060000000000066052
000001728991100000000201000000006605200000000109670000Outras Transferencias dos Estados - Principal                                                                                                                             S060000000000066052
000001728991101000000201000000006605200000000109671114Cota-Parte das Multas de Transito - Principal                                                                                                                             A070000000000066052
000001740000000000000201000000000000000000006720460000Transferencias de Instituicoes Privadas                                                                                                                                   S030000000000000000
000001740001000000000201000000000000000000006720460000Transferencias de Instituicoes Privadas                                                                                                                                   S060000000000000000
000001740001100000000201000000000000000000006720460000Transferencias de Instituicoes Privadas - Principal                                                                                                                       S060000000000000000
000001740001101000000201000000000000000000006720461050Doacoes em Beneficio de Criancas e Adolescentes - PJ - Principal                                                                                                          A070000000000000000
000001750000000000000201000026707383800002841507450000Transferencias de Outras Instituicoes Publicas                                                                                                                            S030000000271073838
000001758000000000000201000026707383800002841507450000Transferencias de Outras Instituicoes Publicas - Especifica E/M                                                                                                           S040000000271073838
000001758010000000000201000026707383800002840000900000Transferencias de Recursos do Fundo de Manutencao e Desenvolvimento da Educacao Basica e de Valoriza                                                                      S050000000271073838
000001758011000000000201000026707383800002840000900000Transferencias de Recursos do Fundo de Manutencao e Desenvolvimento da Educacao Basica e de Valoriza                                                                      S060000000271073838
000001758011100000000201000026707383800002840000900031Transferencias de Recursos do FUNDEB                                                                                                                                      A060000000271073838
000001758990000000000201000000000000000000001506550000Outras Transferencias Multigovernamentais                                                                                                                                 S050000000000000000
000001758991000000000201000000000000000000001506550000Outras Transferencias Multigovernamentais                                                                                                                                 S060000000000000000
000001758991100000000201000000000000000000001506550000Outras Transferencias Multigovernamentais - Principal                                                                                                                     S060000000000000000
000001758991101000000201000000000000000000001506550001IRRF PELO COFRON RATEADO AOS MUNICIPIOS PARTICIPES                                                                                                                        A070000000000000000
000001900000000000000201000000668138900000187099730000Outras Receitas Correntes                                                                                                                                                 S020000000006681389
000001910000000000000201000000000000000000000366970000Multas Administrativas, Contratuais e Judiciais                                                                                                                           S030000000000000000
000001910010000000000201000000000000000000000305370000Multas Previstas em Legislacao Especifica                                                                                                                                 S050000000000000000
000001910011000000000201000000000000000000000305370000Multas Previstas em Legislacao Especifica                                                                                                                                 S060000000000000000
000001910011400000000201000000000000000000000305370001Multas Previstas em Legislacao Especifica - Divida Ativa - Multas e Juros                                                                                                 A060000000000000000
000001910090000000000201000000000000000000000061600000Multas e Juros Previstos em Contratos                                                                                                                                     S050000000000000000
000001910091000000000201000000000000000000000061600000Multas e Juros Previstos em Contratos                                                                                                                                     S060000000000000000
000001910091100000000201000000000000000000000061600001Multas e Juros Previstos em Contratos - Principal                                                                                                                         A060000000000000000
000001920000000000000201000000064455200000130386780000Indenizacoes, Restituicoes e Ressarcimentos                                                                                                                               S030000000000644552
000001921000000000000201000000000000000000001631360000Indenizacoes                                                                                                                                                              S040000000000000000
000001921990000000000201000000000000000000001631360000Outras Indenizacoes                                                                                                                                                       S050000000000000000
000001921991000000000201000000000000000000001631360000Outras Indenizacoes                                                                                                                                                       S060000000000000000
000001921991100000000201000000000000000000001631360001Outras Indenizacoes - Principal                                                                                                                                           A060000000000000000
000001922000000000000201000000064455200000128755420000Restituicoes                                                                                                                                                              S040000000000644552
000001922060000000000201000000000000000000004463010000Restituicao de Despesas de Exercicios Anteriores                                                                                                                          S050000000000000000
000001922061000000000201000000000000000000004463010000Restituicao de Despesas de Exercicios Anteriores                                                                                                                          S060000000000000000
000001922061100000000201000000000000000000004463010001Restituicao de Despesas de Exercicios Anteriores - Principal                                                                                                              A060000000000000000
000001922990000000000201000000064455200000124292410000Outras Restituicoes                                                                                                                                                       S050000000000644552
000001922991000000000201000000064455200000124292410000Outras Restituicoes                                                                                                                                                       S060000000000644552
000001922991100000000201000000000000000000122857630000Outras Restituicoes - Principal                                                                                                                                           S060000000000000000
000001922991102000000201000000000000000000043157600001Programa Troca-troca - Principal                                                                                                                                          A070000000000000000
000001922991104000000201000000000000000000047063230001Restituicao Pelo Pagamento Indevido - Principal                                                                                                                           A070000000000000000
000001922991106000000201000000000000000000032636800001Restituicoes do Plano de Assistencia Medica dos Servidores - Principal                                                                                                    A070000000000000000
000001922991300000000201000000035305600000000439440000Outras Restituicoes - Divida Ativa                                                                                                                                        S060000000000353056
000001922991302000000201000000035305600000000439440001Programa Troca-troca - Divida Ativa                                                                                                                                       A070000000000353056
000001922991400000000201000000029149600000000995340000Outras Restituicoes - Divida Ativa - Multas e Juros                                                                                                                       S060000000000291496
000001922991402000000201000000029149600000000995340001Programa Troca-troca - Divida Ativa - Multas e Juros                                                                                                                      A070000000000291496
000001990000000000000201000000603683700000056345980000Demais Receitas Correntes                                                                                                                                                 S030000000006036837
000001990990000000000201000000603683700000056345980000Outras Receitas                                                                                                                                                           S050000000006036837
000001990991000000000201000000000000000000006783260000Outras Receitas - Primarias                                                                                                                                               S060000000000000000
000001990991300000000201000000000000000000006535350000Outras Receitas - Primarias - Divida Ativa                                                                                                                                S060000000000000000
000001990991305000000201000000000000000000006535350001Receita de alienacao de sucatas - Divida Ativa                                                                                                                            A070000000000000000
000001990991400000000201000000000000000000000247910000Outras Receitas - Primarias - Divida Ativa - Multas e Juros                                                                                                               S060000000000000000
000001990991405000000201000000000000000000000247910001Receita de alienacao de sucatas - Divida Ativa - Multa e Juros                                                                                                            A070000000000000000
000001990992000000000201000000603683700000049562720000Outras Receitas - Financeiras                                                                                                                                             S060000000006036837
000001990992100000000201000000603683700000049151580000Outras Receitas - Financeiras - Principal                                                                                                                                 S060000000006036837
000001990992101000000201000000343230000000000000000001CONTRAPARTIDA DO SERVIDOR NO AUXILIO-ALIMENTACAO                                                                                                                          A070000000003432300
000001990992102000000201000000260453700000049151580001DESCONTOS OBTIDOS                                                                                                                                                         A070000000002604537
000001990992200000000201000000000000000000000411140001Outras Receitas - Financeiras - Multas e Juros                                                                                                                            A060000000000000000
000002000000000000000201000005917000000000478819100000Receitas de Capital                                                                                                                                                       S010000000146184188
000002400000000000000201000005917000000000475767640000Transferencias de Capital                                                                                                                                                 S020000000146184188
000002410000000000000201000005917000000000475767640000Transferencias da Uniao e de suas Entidades                                                                                                                               S030000000146184188
000002418000000000000201000005917000000000475767640000Transferencias da Uniao                                                                                                                                                   S040000000146184188
000002418030000000000201000001000000000000109092640000Transferencias de Recursos do Sistema Unico de Saude – SUS                                                                                                                S050000000018000000
000002418031000000000201000001000000000000109092640000Transferencias de Recursos do Sistema Unico de Saude – SUS                                                                                                                S060000000018000000
000002418031100000000201000001000000000000109092640000Transferencias de Recursos do Sistema Unico de Saude – SUS - Principal                                                                                                    S060000000018000000
000002418031101000000201000000050000000000000000004931MATERIAL PERMANENTE PARA ESF PROP.117010/FNS                                                                                                                              A070000000000500000
000002418031102000000201000000500000000000000000004931MATERIAL PERMANENTE PARA ESF PROP.117009/FNS                                                                                                                              A070000000005000000
000002418031103000000201000000450000000000000000004931VEICULO PARA ESF PROP.117008/FNS                                                                                                                                          A070000000004500000
000002418031104000000201000000000000000000080000004936AMBULANCIA PORT3673 RV4936                                                                                                                                                A070000000008000000
000002418031105000000201000000000000000000029092644505ORGANIZACAO FARMACIA BLOCO INVESTIMENTO RV 4505                                                                                                                           A070000000000000000
000002418100000000000201000004917000000000366675000000Transferencia de Convenios da Uniao e de suas Entidades                                                                                                                   S050000000128184188
000002418107000000000201000004917000000000122925000000Transferencias de Convenios da Uniao destinadas a Programas de Infra-Estrutura em Transporte                                                                              S060000000049170000
000002418107100000000201000004917000000000122925000000Transferencias de Convenios da Uniao destinadas a Programas de Infra-Estrutura em Transporte - Princ                                                                      S060000000049170000
000002418107101000000201000002458500000000000000001203PAVIMENTACAO URBANA SICONV PROP.017126/17 CONV847175/17                                                                                                                   A070000000024585000
000002418107102000000201000002458500000000000000001201PAVIMENTACAO DE VIAS URBANAS SICONV 034101/16                                                                                                                             A070000000024585000
000002418107103000000201000000000000000000122925001200PAVIMENTACAO URBANA SICONV CONV829118/2016 PROP6878/2016 RV1200                                                                                                           A070000000000000000
000002418109000000000201000000000000000000243750000000Outras Transferencias de Convenios da Uniao                                                                                                                               S060000000079014188
000002418109100000000201000000000000000000243750000000Outras Transferencias de Convenios da Uniao - Principal                                                                                                                   S060000000079014188
000002418109101000000201000000000000000000243750001204PATRULHA AGRICOLA CONV852132/2017 SICONV903732017 CR1044846-23MAPA RV1204                                                                                                 A070000000024375000
