87612826000190010120203004202008052020PREFEITURA MUNICIPAL INDEPENDENCIA                                              
000001000000000000000201000319760831100010190331670000Receitas Correntes                                                                                                                                                        S0100000032623017540000
000001100000000000000201000030359650500000627624820000IMPOSTOS, TAXAS E CONTRIBUICOES DE MELHORIA                                                                                                                               S0200000003035965050000
000001110000000000000201000029717757900000614210240000IMPOSTOS                                                                                                                                                                  S0300000002971775790000
000001113000000000000201000006971767700000237773520000IMPOSTOS SOBRE A RENDA E PROVENTOS DE QUALQUER NATUREZA                                                                                                                   S0400000000697176770000
000001113030000000000201000006971767700000237773520000IMPOSTO SOBRE A RENDA - RETIDO NA FONTE                                                                                                                                   S0500000000697176770000
000001113031000000000201000006971767700000237773520000IMPOSTO SOBRE A RENDA - RETIDO NA FONTE - TRABALHO                                                                                                                        S0600000000697176770000
000001113031100000000201000006971767700000237773520000IMPOSTO SOBRE A RENDA - RETIDO NA FONTE - TRABALHO - PRINCIPAL                                                                                                            S0600000000697176770000
000001113031101000000201000005935894500000186777270000IRRF SOBRE RENDIMENTOS DO  TRABALHO - PRINCIPAL  - ATIVOS/INATIVOS DO PODER EXECUTIVO/INDIRETAS                                                                           S0700000000593589450000
000001113031101010000201000003561536700000112066360001IRRF SOBRE RENDIMENTOS DO  TRABALHO - PRINCIPAL  - ATIVOS/INATIVOS DO PODER EXECUTIVO/INDIRETAS - PROPRIO                                                                 A0800000000356153670000
000001113031101020000201000001483973600000046694320020IRRF SOBRE RENDIMENTOS DO  TRABALHO - PRINCIPAL  - ATIVOS/INATIVOS DO PODER EXECUTIVO/INDIRETAS - MDE                                                                     A0800000000148397360000
000001113031101030000201000000890384200000028016590040IRRF SOBRE RENDIMENTOS DO  TRABALHO - PRINCIPAL  - ATIVOS/INATIVOS DO PODER EXECUTIVO/INDIRETAS- ASPS                                                                     A0800000000089038420000
000001113031102000000201000000435563300000017277930000IRRF SOBRE RENDIMENTOS DO  TRABALHO - PRINCIPAL  - ATIVOS/INATIVOS DO PODER LEGISLATIVO                                                                                   S0700000000043556330000
000001113031102010000201000000261338000000010366760001IRRF SOBRE RENDIMENTOS DO  TRABALHO - PRINCIPAL  - ATIVOS/INATIVOS DO PODER LEGISLATIVO - PROPRIO                                                                         A0800000000026133800000
000001113031102020000201000000108890800000004319480020IRRF SOBRE RENDIMENTOS DO  TRABALHO - PRINCIPAL  - ATIVOS/INATIVOS DO PODER LEGISLATIVO - MDE                                                                             A0800000000010889080000
000001113031102030000201000000065334500000002591690040IRRF SOBRE RENDIMENTOS DO  TRABALHO - PRINCIPAL  - ATIVOS/INATIVOS DO PODER LEGISLATIVO - ASPS                                                                            A0800000000006533450000
000001113031103000000201000000600309900000033718320000IRRF SOBRE RENDIMENTOS DO  TRABALHO - PRINCIPAL  - INATIVOS PAGOS PELO RPPS                                                                                               S0700000000060030990000
000001113031103010000201000000360185900000020230990001IRRF SOBRE RENDIMENTOS DO  TRABALHO - PRINCIPAL  - INATIVOS PAGOS PELO RPPS - PROPRIO                                                                                     A0800000000036018590000
000001113031103020000201000000150077500000008429580020IRRF SOBRE RENDIMENTOS DO  TRABALHO - PRINCIPAL  - INATIVOS PAGOS PELO RPPS - MDE                                                                                         A0800000000015007750000
000001113031103030000201000000090046500000005057750040IRRF SOBRE RENDIMENTOS DO  TRABALHO - PRINCIPAL  - INATIVOS PAGOS PELO RPPS - ASPS                                                                                        A0800000000009004650000
000001118000000000000201000022745990200000376436720000IMPOSTOS ESPECIFICOS DE ESTADOS, DF E MUNICIPIOS                                                                                                                          S0400000002274599020000
000001118010000000000201000018930964800000256681260000IMPOSTOS SOBRE O PATRIMONIO PARA ESTADOS/DF/MUNICIPIOS                                                                                                                    S0500000001893096480000
000001118011000000000201000005607192800000070698050000IMPOSTO SOBRE A PROPRIEDADE PREDIAL E TERRITORIAL URBANA                                                                                                                  S0600000000560719280000
000001118011100000000201000004658825700000045060120000IMPOSTO SOBRE A PROPRIEDADE PREDIAL E TERRITORIAL URBANA - PRINCIPAL                                                                                                      S0600000000465882570000
000001118011101000000201000002795295400000027035870001IPTU - PRINCIPAL  - PROPRIO                                                                                                                                               A0700000000279529540000
000001118011102000000201000001164706400000011265210020IPTU - PRINCIPAL  - MDE                                                                                                                                                   A0700000000116470640000
000001118011103000000201000000698823900000006759040040IPTU - PRINCIPAL  - ASPS                                                                                                                                                  A0700000000069882390000
000001118011200000000201000000038579800000000000000000IMPOSTO SOBRE A PROPRIEDADE PREDIAL E TERRITORIAL URBANA - MULTAS E JUROS DE MORA                                                                                         S0600000000003857980000
000001118011201000000201000000023147800000000000000001IPTU - MULTAS E JUROS DE MORA  - PROPRIO                                                                                                                                  A0700000000002314780000
000001118011202000000201000000009645000000000000000020IPTU - MULTAS E JUROS DE MORA  - MDE                                                                                                                                      A0700000000000964500000
000001118011203000000201000000005787000000000000000040IPTU - MULTAS E JUROS DE MORA  - ASPS                                                                                                                                     A0700000000000578700000
000001118011300000000201000000669323700000017844290000IMPOSTO SOBRE A PROPRIEDADE PREDIAL E TERRITORIAL URBANA - DIVIDA ATIVA                                                                                                   S0600000000066932370000
000001118011301000000201000000401594200000010706440001IPTU - DIVIDA ATIVA  - PROPRIO                                                                                                                                            A0700000000040159420000
000001118011302000000201000000167330900000004461210020IPTU - DIVIDA ATIVA  - MDE                                                                                                                                                A0700000000016733090000
000001118011303000000201000000100398600000002676640040IPTU - DIVIDA ATIVA  - ASPS                                                                                                                                               A0700000000010039860000
000001118011400000000201000000240463600000007793640000IMPOSTO SOBRE A PROPRIEDADE PREDIAL E TERRITORIAL URBANA - MULTAS E JUROS DE MORA DA DIVIDA ATIVA                                                                         S0600000000024046360000
000001118011401000000201000000144278200000004676140001IPTU - MULTAS E JUROS DE MORA DA DIVIDA ATIVA  - PROPRIO                                                                                                                  A0700000000014427820000
000001118011402000000201000000060115900000001948480020IPTU - MULTAS E JUROS DE MORA DA DIVIDA ATIVA  - MDE                                                                                                                      A0700000000006011590000
000001118011403000000201000000036069500000001169020040IPTU - MULTAS E JUROS DE MORA DA DIVIDA ATIVA  - ASPS                                                                                                                     A0700000000003606950000
000001118014000000000201000013323772000000185983210000IMPOSTO SOBRE TRANSMISSAO “INTER VIVOS” DE BENS IMOVEIS E DE DIREITOS REAIS SOBRE IMOVEIS                                                                                 S0600000001332377200000
000001118014100000000201000013323772000000185983210000IMPOSTO SOBRE TRANSMISSAO “INTER VIVOS” DE BENS IMOVEIS E DE DIREITOS REAIS SOBRE IMOVEIS - PRINCIPAL                                                                     S0600000001332377200000
000001118014101000000201000007994263200000111589920001ITBI - PRINCIPAL  - PROPRIO                                                                                                                                               A0700000000799426320000
000001118014102000000201000003330943000000046495810020ITBI - PRINCIPAL  - MDE                                                                                                                                                   A0700000000333094300000
000001118014103000000201000001998565800000027897480040ITBI - PRINCIPAL  - ASPS                                                                                                                                                  A0700000000199856580000
000001118020000000000201000003815025400000119755460000IMPOSTOS SOBRE A PRODUCAO, CIRCULACAO DE MERCADORIAS E SERVICOS                                                                                                           S0500000000381502540000
000001118023000000000201000003815025400000119755460000IMPOSTO SOBRE SERVICOS DE QUALQUER NATUREZA                                                                                                                               S0600000000381502540000
000001118023100000000201000003636035600000118370080000IMPOSTO SOBRE SERVICOS DE QUALQUER NATUREZA - PRINCIPAL                                                                                                                   S0600000000363603560000
000001118023101000000201000002181621400000071021810001ISS - PRINCIPAL  - PROPRIO                                                                                                                                                A0700000000218162140000
000001118023102000000201000000909008900000029592650020ISS - PRINCIPAL  - MDE                                                                                                                                                    A0700000000090900890000
000001118023103000000201000000545405300000017755620040ISS - PRINCIPAL  - ASPS                                                                                                                                                   A0700000000054540530000
000001118023200000000201000000036330400000001066860000IMPOSTO SOBRE SERVICOS DE QUALQUER NATUREZA - MULTAS E JUROS DE MORA                                                                                                      S0600000000003633040000
000001118023201000000201000000021798200000000640100001ISS - MULTAS E JUROS DE MORA  - PROPRIO                                                                                                                                   A0700000000002179820000
000001118023202000000201000000009082600000000266730020ISS - MULTAS E JUROS DE MORA  - MDE                                                                                                                                       A0700000000000908260000
000001118023203000000201000000005449600000000160030040ISS - MULTAS E JUROS DE MORA  - ASPS                                                                                                                                      A0700000000000544960000
000001118023300000000201000000066442100000000297670000IMPOSTO SOBRE SERVICOS DE QUALQUER NATUREZA - DIVIDA ATIVA                                                                                                                S0600000000006644210000
000001118023301000000201000000039865300000000178600001ISS - DIVIDA ATIVA  - PROPRIO                                                                                                                                             A0700000000003986530000
000001118023302000000201000000016610500000000074420020ISS - DIVIDA ATIVA  - MDE                                                                                                                                                 A0700000000001661050000
000001118023303000000201000000009966300000000044650040ISS - DIVIDA ATIVA  - ASPS                                                                                                                                                A0700000000000996630000
000001118023400000000201000000076217300000000020850000IMPOSTO SOBRE SERVICOS DE QUALQUER NATUREZA - MULTAS E JUROS DE MORA DA DIVIDA ATIVA                                                                                      S0600000000007621730000
000001118023401000000201000000045730400000000012510001ISS - MULTAS E JUROS DE MORA DA DIVIDA ATIVA  - PROPRIO                                                                                                                   A0700000000004573040000
000001118023402000000201000000019054300000000005220020ISS - MULTAS E JUROS DE MORA DA DIVIDA ATIVA  - MDE                                                                                                                       A0700000000001905430000
000001118023403000000201000000011432600000000003120040ISS - MULTAS E JUROS DE MORA DA DIVIDA ATIVA  - ASPS                                                                                                                      A0700000000001143260000
000001120000000000000201000000641892600000013414580000TAXAS                                                                                                                                                                     S0300000000064189260000
000001128000000000000201000000641892600000013414580000TAXAS - ESPECIFICAS DE ESTADOS, DF E MUNICIPIOS                                                                                                                           S0400000000064189260000
000001128010000000000201000000641892600000013414580000TAXAS DE INSPECAO, CONTROLE E FISCALIZACAO                                                                                                                                S0500000000064189260000
000001128011000000000201000000032937000000000895000000TAXA DE FISCALIZACAO DE VIGILANCIA SANITARIA                                                                                                                              S0600000000003293700000
000001128011100000000201000000032937000000000895000001TAXA DE FISCALIZACAO DE VIGILANCIA SANITARIA - PRINCIPAL                                                                                                                  A0600000000003293700000
000001128019000000000201000000608955600000012519580000TAXAS DE INSPECAO, CONTROLE E FISCALIZACAO - OUTRAS                                                                                                                       S0600000000060895560000
000001128019100000000201000000608955600000011639000000TAXAS DE INSPECAO, CONTROLE E FISCALIZACAO - OUTRAS - PRINCIPAL                                                                                                           S0600000000060895560000
000001128019101000000201000000293096100000001509000001TAXA DE VISTORIA - PRINCIPAL                                                                                                                                              A0700000000029309610000
000001128019103000000201000000062528100000002300000001ALVARA DE LICENCA E LOCALIZACAO - PRINCIPAL                                                                                                                               A0700000000006252810000
000001128019104000000201000000131376700000004785000001TAXA DE EXPEDIENTE - PRINCIPAL                                                                                                                                            A0700000000013137670000
000001128019105000000201000000087041600000001428001005TAXA DE LICENCA AMBIENTAL - PRINCIPAL                                                                                                                                     A0700000000008704160000
000001128019106000000201000000034913100000001505000001TAXA DE APROVACAO DE PROJETOS DE CONSTRUCAO CIVIL - PRINCIPAL                                                                                                             A0700000000003491310000
000001128019107000000201000000000000000000000112000001TAXA DE APROVACAO DE LOTEAMENTO/FRACIONAMENTO - PRINCIPAL                                                                                                                 A0700000000000000000000
000001128019300000000201000000000000000000000742710000TAXAS DE INSPECAO, CONTROLE E FISCALIZACAO - OUTRAS - DIVIDA ATIVA                                                                                                        S0600000000000000000000
000001128019301000000201000000000000000000000531710001TAXA DE VISTORIA - DIVIDA ATIVA                                                                                                                                           A0700000000000000000000
000001128019304000000201000000000000000000000211000001TAXA DE EXPEDIENTE - DIVIDA ATIVA                                                                                                                                         A0700000000000000000000
000001128019400000000201000000000000000000000137870000TAXAS DE INSPECAO, CONTROLE E FISCALIZACAO - OUTRAS - MULTAS E JUROS DE MORA DA DIVIDA ATIVA                                                                              S0600000000000000000000
000001128019401000000201000000000000000000000130580001TAXA DE VISTORIA - MULTA E JUROS DE MORA DA DIVIDA ATIVA                                                                                                                  A0700000000000000000000
000001128019404000000201000000000000000000000007290001TAXA DE EXPEDIENTE - MULTA E JUROS DE MORA DA DIVIDA ATIVA                                                                                                                A0700000000000000000000
000001200000000000000201000011002781000000297989610000CONTRIBUICOES                                                                                                                                                             S0200000001100278100000
000001210000000000000201000009068595900000225140760000CONTRIBUICOES SOCIAIS                                                                                                                                                     S0300000000906859590000
000001218000000000000201000009068595900000225140760000CONTRIBUICOES SOCIAIS ESPECIFICAS DE ESTADOS, DF E MUNICIPIOS                                                                                                             S0400000000906859590000
000001218010000000000201000009068595900000225140760000CONTRIBUICAO DO SERVIDOR CIVIL PARA O PLANO DE SEGURIDADE SOCIAL - CPSSS - ESPECIFICO DE EST/DF/MUN                                                                       S0500000000906859590000
000001218011000000000201000009025900000000224201280000CPSSS DO SERVIDOR CIVIL ATIVO                                                                                                                                             S0600000000902590000000
000001218011100000001201000009025900000000224201280050CPSSS DO SERVIDOR CIVIL ATIVO - PRINCIPAL                                                                                                                                 A0600000000902590000000
000001218013000000000201000000042695900000000939480000CPSSS DO SERVIDOR CIVIL - PENSIONISTAS                                                                                                                                    S0600000000004269590000
000001218013100000001201000000042695900000000939480050CPSSS DO SERVIDOR CIVIL - PENSIONISTAS - PRINCIPAL                                                                                                                        A0600000000004269590000
000001240000000000000201000001934185100000072848850000CONTRIBUICAO PARA O CUSTEIO DO SERVICO DE ILUMINACAO PUBLICA                                                                                                              S0300000000193418510000
000001240001000000000201000001934185100000072848850000CONTRIBUICAO PARA O CUSTEIO DO SERVICO DE ILUMINACAO PUBLICA                                                                                                              S0600000000193418510000
000001240001100000000201000001934185100000072848850001CONTRIBUICAO PARA O CUSTEIO DO SERVICO DE ILUMINACAO PUBLICA - PRINCIPAL                                                                                                  A0600000000193418510000
000001300000000000000201000026965202400000570392700000RECEITA PATRIMONIAL                                                                                                                                                       S0200000002696788560000
000001310000000000000201000002002701200000067872010000EXPLORACAO DO PATRIMONIO IMOBILIARIO DO ESTADO                                                                                                                            S0300000000200270120000
000001310010000000000201000002002701200000067872010000ALUGUEIS, ARRENDAMENTOS, FOROS, LAUDEMIOS, TARIFAS DE OCUPACAO                                                                                                            S0500000000200270120000
000001310011000000000201000002002701200000067872010000ALUGUEIS E ARRENDAMENTOS                                                                                                                                                  S0600000000200270120000
000001310011100000000201000001979007500000067178000001ALUGUEIS E ARRENDAMENTOS - PRINCIPAL                                                                                                                                      A0600000000197900750000
000001310011200000000201000000003190900000000128800001ALUGUEIS E ARRENDAMENTOS - MULTAS E JUROS DE MORA                                                                                                                         A0600000000000319090000
000001310011300000000201000000018690700000000445860001ALUGUEIS E ARRENDAMENTOS - DIVIDA ATIVA                                                                                                                                   A0600000000001869070000
000001310011400000000201000000001812100000000119350001ALUGUEIS E ARRENDAMENTOS - MULTAS E JUROS DE MORA DA DIVIDA ATIVA                                                                                                         A0600000000000181210000
000001320000000000000201000024962501200000502520690000VALORES MOBILIARIOS                                                                                                                                                       S0300000002496518440000
000001321000000000000201000024962501200000502520690000JUROS E CORRECOES MONETARIAS                                                                                                                                              S0400000002496518440000
000001321001000000000201000001542501200000023018790000REMUNERACAO DE DEPOSITOS BANCARIOS                                                                                                                                        S0600000000154518440000
000001321001100000000201000001542501200000023018790000REMUNERACAO DE DEPOSITOS BANCARIOS - PRINCIPAL                                                                                                                            S0600000000154518440000
000001321001101000000201000000126051500000010755470000REMUNERACAO DE DEPOSITOS DE RECURSOS VINCULADOS - PRINCIPAL                                                                                                               S0700000000012873470000
000001321001101020000201000000126051500000002957810031REMUNERACAO DE DEPOSITOS  BANCARIOS DE RECURSOS VINCULADOS - FUNDEB - PRINCIPAL                                                                                           A0800000000012605150000
000001321001101030000201000000000000000000001429120000REMUNERACAO DE DEPOSITOS  BANCARIOS DE RECURSOS VINCULADOS - FUNDO DE SAUDE - PRINCIPAL                                                                                   S0800000000000000000000
000001321001101030200201000000000000000000000188934050RENDIMENTOS FRALDAS FE RV4050                                                                                                                                             A0800000000000000000000
000001321001101030300201000000000000000000000003194931RENDIMENTOS C/C 11.229-1 EQUIP MAT PERM FMS RV4931                                                                                                                        A0800000000000000000000
000001321001101030500201000000000000000000000548654500RENDIMENTOS ATENCAO BASICA FEDERAL RV4500                                                                                                                                 A0800000000000000000000
000001321001101030700201000000000000000000000025174503RENDIMENTOS ASSISTENCIA FARMACEUTICA FF RV4503                                                                                                                            A0800000000000000000000
000001321001101030800201000000000000000000000018354160RENDIMENTOS PIM FE RV4160                                                                                                                                                 A0800000000000000000000
000001321001101030900201000000000000000000000102344011RENDIMENTOS PIES FE RV4011                                                                                                                                                A0800000000000000000000
000001321001101031000201000000000000000000000124524050RENDIMENTOS FARMACIA BASICA FE RV4050                                                                                                                                     A0800000000000000000000
000001321001101031100201000000000000000000000062374090RENDIMENTOS PSF FE RV4090                                                                                                                                                 A0800000000000000000000
000001321001101031600201000000000000000000000045294503RENDIMENTOS ORGANIZACAO FARMACIA CUSTEIO RV4503                                                                                                                           A0800000000000000000000
000001321001101031700201000000000000000000000082824303RENDIMENTOS CONSTRUCAO UBS FE RV4303                                                                                                                                      A0800000000000000000000
000001321001101032000201000000000000000000000082004505RENDIMENTOS ORGANIZACAO FARMACIA INVESTIMENTO RV4505                                                                                                                      A0800000000000000000000
000001321001101032200201000000000000000000000018284520RENDIMENTOS INCREMENTO PISO AB EMENDA PARLAMENTAR PORTARIA 1000/18 RV4520                                                                                                 A0800000000000000003110
000001321001101032500201000000000000000000000091644500REND. INCREMENTO TEMPORARIO CUSTEIO AB PORT. MS 1331/2019DEP. JOSE STEDILE PROP. 36000.253327/2019-00                                                                     A0800000000000000000000
000001321001101032600201000000000000000000000031200900RENDIMENTOS DOACAO SICREDI COVID-19 RV0900                                                                                                                                A0800000000000000003160
000001321001101032700201000000000000000000000004374170REND ENFRENTAMENTO CORONAVIRUS RES CIB 75/2020 RV4170                                                                                                                     A0800000000000000003160
000001321001101060000201000000000000000000000004461018REMUNERACAO DE DEPOSITOS  BANCARIOS DE RECURSOS VINCULADOS - CONTRIBUICAO DE INTERVENCAO NO DOMINIO ECONOMICO - CIDE - PRINCIPAL                                          A0800000000000000000000
000001321001101070000201000000000000000000000438960000REMUNERACAO DE DEPOSITOS  BANCARIOS DE RECURSOS VINCULADOS - FUNDO NACIONAL DE ASSISTENCIA SOCIAL - FNAS - PRINCIPAL                                                      S0800000000000000000000
000001321001101070100201000000000000000000000012431064RENDIMENTOS PSB PBFI FMAS RV1064                                                                                                                                          A0800000000000000000000
000001321001101070200201000000000000000000000361101021RENDIMENTOS PSB SCFV FMAS RV1021                                                                                                                                          A0800000000000000000000
000001321001101070300201000000000000000000000004401038RENDIMENTOS GBF IGD-BF RV1038                                                                                                                                             A0800000000000000000000
000001321001101070400201000000000000000000000013181067RENDIMENTOS GSUAS IGD-SUAS FMAS RV1067                                                                                                                                    A0800000000000000000000
000001321001101070500201000000000000000000000047851103RENDIMENTOS OASF/FEAS RV1103                                                                                                                                              A0800000000000000000000
000001321001101080000201000000000000000000000232040000REMUNERACAO DE DEPOSITOS  BANCARIOS DE RECURSOS VINCULADOS - FUNDO NACIONAL DE DESENVOLVIMENTO DA EDUCACAO - FNDE - PRINCIPAL                                             S0800000000000091890000
000001321001101080300201000000000000000000000083161014RENDIMENTOS QSE RV1014                                                                                                                                                    A0800000000000000000000
000001321001101080400201000000000000000000000004311016RENDIMENTOS PNATE RV1016                                                                                                                                                  A0800000000000000000000
000001321001101080500201000000000000000000000044201001RENDIMENTOS PNAE FUNDAMENTAL RV1001                                                                                                                                       A0800000000000000000000
000001321001101080600201000000000000000000000003721031RENDIMENTOS PNAE CRECHE RV1031                                                                                                                                            A0800000000000000000000
000001321001101080700201000000000000000000000091891070RENDIMENTOS PNAE MAIS EDUCACAO FUNDAMENTAL RV1070                                                                                                                         A0800000000000091890000
000001321001101080800201000000000000000000000004761033RENDIMENTOS PNAE PRE-ESCOLA RV1033                                                                                                                                        A0800000000000000000000
000001321001101990000201000000000000000000005693080000REMUNERACAO DE OUTROS DEPOSITOS  BANCARIOS DE RECURSOS VINCULADOS - PRINCIPAL                                                                                             S0800000000000176430000
000001321001101990100201000000000000000000000270621005RENDIMENTOS FMDMA RV1005                                                                                                                                                  A0800000000000000000000
000001321001101990200201000000000000000000000108211017RENDIMENTOS PEATE RS RV1017                                                                                                                                               A0800000000000000000000
000001321001101990600201000000000000000000000116941050RENDIMENTOS IR DOACAO FUNDICA RV1050                                                                                                                                      A0800000000000000000000
000001321001101990700201000000000000000000000560991022REND. POUP. QUADRA JOAO SAFFI RV1022                                                                                                                                      A0800000000000000000000
000001321001101990800201000000000000000000000349451200RENDIMENTOS POUP. PAVIMENTACAO CONVENIO 829118/2016/SICONV PROPOSTA 6878/2016 RV1200                                                                                      A0800000000000000000000
000001321001101991200201000000000000000000000517801207REND. POUP. CONVENIO 877247/2018/SICONV PROP054169/2018SICONV RV1207                                                                                                      A0800000000000000000000
000001321001101991300201000000000000000000000009591112REND. PIT FE - PROGRAMA DE INTEGRACAO TRIBUTARIA RV1112                                                                                                                   A0800000000000000000000
000001321001101991400201000000000000000000000008141203REND APLIC PAV URB SICONV CONVENIO 847175/17 RV1203                                                                                                                       A0800000000000000000000
000001321001101991500201000000000000000000000308001203REND POUP PAV URB SICONV CONVENIO 847175/17 RV1203                                                                                                                        A0800000000000000000000
000001321001101991600201000000000000000000000615931206Rend. Poup. CONVENIO 876152/2018/SICONV PROP045635/2018SICONV RV1206                                                                                                      A0800000000000000000000
000001321001101991700201000000000000000000000019824300Rendimentos NOTA FISCAL GAUCHA PROGRAMA SOLIDARIEDADE RV4300                                                                                                              A0800000000000019820000
000001321001101991800201000000000000000000002544931008RENDIMENTOS - CESSAO ONEROSA - PRE-SAL - LEI N. 13885/2019                                                                                                                A0800000000000000000000
000001321001101991900201000000000000000000000010471011RENDIMENTOS LEILAO EDUCACAO RV1011                                                                                                                                        A0800000000000000000000
000001321001101992000201000000000000000000000045584002RENDIMENTOS LEILAO SAUDE RV4002                                                                                                                                           A0800000000000000000000
000001321001101992100201000000000000000000000206611010RENDIMENTOS LEILAO PROPRIO RV1010                                                                                                                                         A0800000000000156610000
000001321001102000000201000001416449700000012263320000REMUNERACAO DE DEPOSITOS DE RECURSOS NAO VINCULADOS - PRINCIPAL                                                                                                           S0700000000141644970000
000001321001102990100201000000576242000000002663580001RENDIMENTOS PODER EXECUTIVO - BANCO DO BRASIL                                                                                                                             A0800000000057624200000
000001321001102990200201000000573944200000003752570001RENDIMENTOS PODER EXECUTIVO - BANRISUL                                                                                                                                    A0800000000057394420000
000001321001102990500201000000085479200000001392650001RENDIMENTOS PODER LEGISLATIVO - BANRISUL                                                                                                                                  A0800000000008547920000
000001321001102990800201000000180784300000004454520001RENDIMENTOS PODER EXECUTIVO - SICREDI                                                                                                                                     A0800000000018078430000
000001321004000000000201000023420000000000479501900000REMUNERACAO DOS RECURSOS DO REGIME PROPRIO DE PREVIDENCIA SOCIAL - RPPS                                                                                                   S0600000002342000000000
000001321004101000001201000005942500000000046166390050FPSM BB PREVID RF IMA-B TIT PUBL FI                                                                                                                                       A0700000000594250000000
000001321004102000001201000004802500000000024765200050FPSM BB RF IMAB 5+                                                                                                                                                        A0700000000480250000000
000001321004103000001201000002252500000000000000000050FPSM CEF NOVO BRASIL RF LP                                                                                                                                                A0700000000225250000000
000001321004104000001201000003607500000000000000000050FPSM CEF FI BRASIL IRF-M 1 TIT PUB RF                                                                                                                                     A0700000000360750000000
000001321004106000001201000003545000000000054753180050FPSM CEF CAIXA BRASIL 2024 III TP RF                                                                                                                                      A0700000000354500000000
000001321004107000001201000003270000000000084498880050FPSM BB PREV RF IRF-M 1 TP                                                                                                                                                A0700000000327000000000
000001321004109000001201000000000000000000058408760050FPSM CAIXA FI BRASIL IDKA IPCA 2A TP RF LP                                                                                                                                A0700000000000000000000
000001321004110000001201000000000000000000111558960050FPSM SICREDI  FI INSTITUCIONAL RF IRF-M LP                                                                                                                                A0700000000000000000000
000001321004111000001201000000000000000000020288660050FPSM SICREDI FIC INSTITUCIONAL RF IMA-B                                                                                                                                   A0700000000000000000000
000001321004112000001201000000000000000000079061870050FPSM BB PREV RF ALOCACAO ATIVA                                                                                                                                            A0700000000000000000000
000001600000000000000201000000155360700000008170000000Receita de Servicos                                                                                                                                                       S0200000000015536070000
000001610000000000000201000000155360700000008170000000SERVICOS ADMINISTRATIVOS E COMERCIAIS GERAIS                                                                                                                              S0300000000015536070000
000001610010000000000201000000155360700000008170000000SERVICOS ADMINISTRATIVOS E COMERCIAIS GERAIS                                                                                                                              S0500000000015536070000
000001610011000000000201000000155360700000008170000000SERVICOS ADMINISTRATIVOS E COMERCIAIS GERAIS                                                                                                                              S0600000000015536070000
000001610011100000000201000000155360700000008170000000SERVICOS ADMINISTRATIVOS E COMERCIAIS GERAIS - PRINCIPAL                                                                                                                  S0600000000015536070000
000001610011101000000201000000155360700000008170000001SERVICOS DE MAQUINAS - PRINCIPAL                                                                                                                                          A0700000000015536070000
000001700000000000000201000249574621500008634345830000TRANSFERENCIAS CORRENTES                                                                                                                                                  S0200000025589085760000
000001710000000000000201000107001659200003518479420000TRANSFERENCIAS DA UNIAO E DE SUAS ENTIDADES                                                                                                                               S0300000010790947920000
000001718000000000000201000107001659200003518479420000TRANSFERENCIAS DA UNIAO - ESPECIFICAS DE ESTADOS, DF E MUNICIPIOS                                                                                                         S0400000010790947920000
000001718010000000000201000093570236400002902224260000PARTICIPACAO NA RECEITA DA UNIAO                                                                                                                                          S0500000009357023640000
000001718012000000000201000085697262500002889607390000COTA-PARTE DO FUNDO DE PARTICIPACAO DOS MUNICIPIOS - COTA MENSAL                                                                                                          S0600000008569726250000
000001718012100000000201000085697262500002889607390000COTA-PARTE DO FUNDO DE PARTICIPACAO DOS MUNICIPIOS - COTA MENSAL - PRINCIPAL                                                                                              S0600000008569726250000
000001718012101000000201000051418357500001733764430001COTA-PARTE DO FPM - COTA MENSAL - PRINCIPAL  - PROPRIO                                                                                                                    A0700000005141835750000
000001718012102000000201000004284863100000144480370020COTA-PARTE DO FPM - COTA MENSAL - PRINCIPAL  - MDE                                                                                                                        A0700000000428486310000
000001718012103000000201000012854589400000433441120040COTA-PARTE DO FPM - COTA MENSAL - PRINCIPAL  - ASPS                                                                                                                       A0700000001285458940000
000001718012104000000201000017139452500000577921470031COTA-PARTE DO FPM - COTA MENSAL - PRINCIPAL  - FUNDEB                                                                                                                     A0700000001713945250000
000001718013000000000201000003641070000000000000000000COTA-PARTE DO FUNDO DE PARTICIPACAO DO MUNICIPIOS – 1% COTA ENTREGUE NO MES DE DEZEMBRO                                                                                   S0600000000364107000000
000001718013100000000201000003641070000000000000000000COTA-PARTE DO FUNDO DE PARTICIPACAO DO MUNICIPIOS – 1% COTA ENTREGUE NO MES DE DEZEMBRO - PRINCIPAL                                                                       S0600000000364107000000
000001718013101000000201000002184642000000000000000001COTA-PARTE DO FPM – 1% COTA ENTREGUE NO MES DE DEZEMBRO - PRINCIPAL  - PROPRIO                                                                                            A0700000000218464200000
000001718013102000000201000000910267500000000000000020COTA-PARTE DO FPM – 1% COTA ENTREGUE NO MES DE DEZEMBRO - PRINCIPAL  -  MDE                                                                                               A0700000000091026750000
000001718013103000000201000000546160500000000000000040COTA-PARTE DO FPM – 1% COTA ENTREGUE NO MES DE DEZEMBRO - PRINCIPAL  - ASPS                                                                                               A0700000000054616050000
000001718014000000000201000003541660000000000000000000COTA-PARTE DO FUNDO DE PARTICIPACAO DOS MUNICIPIOS - 1% COTA ENTREGUE NO MES DE JULHO                                                                                     S0600000000354166000000
000001718014100000000201000003541660000000000000000000COTA-PARTE DO FUNDO DE PARTICIPACAO DOS MUNICIPIOS - 1% COTA ENTREGUE NO MES DE JULHO - PRINCIPAL                                                                         S0600000000354166000000
000001718014101000000201000002124996000000000000000001COTA-PARTE DO FPM - 1% COTA ENTREGUE NO MES DE JULHO - PRINCIPAL  - PROPRIO                                                                                               A0700000000212499600000
000001718014102000000201000000885415000000000000000020COTA-PARTE DO FPM - 1% COTA ENTREGUE NO MES DE JULHO - PRINCIPAL  -  MDE                                                                                                  A0700000000088541500000
000001718014103000000201000000531249000000000000000040COTA-PARTE DO FPM - 1% COTA ENTREGUE NO MES DE JULHO - PRINCIPAL  - ASPS                                                                                                  A0700000000053124900000
000001718015000000000201000000690243900000012616870000COTA-PARTE DO IMPOSTO SOBRE A PROPRIEDADE TERRITORIAL RURAL                                                                                                               S0600000000069024390000
000001718015100000000201000000690243900000012616870000COTA-PARTE DO IMPOSTO SOBRE A PROPRIEDADE TERRITORIAL RURAL - PRINCIPAL                                                                                                   S0600000000069024390000
000001718015101000000201000000414146300000007570110001COTA-PARTE DO ITR - PRINCIPAL  - PROPRIO                                                                                                                                  A0700000000041414630000
000001718015102000000201000000034512200000000630850020COTA-PARTE DO ITR - PRINCIPAL  - MDE                                                                                                                                      A0700000000003451220000
000001718015103000000201000000103536600000001892530040COTA-PARTE DO ITR - PRINCIPAL  - ASPS                                                                                                                                     A0700000000010353660000
000001718015104000000201000000138048800000002523380031COTA-PARTE DO ITR - PRINCIPAL  - FUNDEB                                                                                                                                   A0700000000013804880000
000001718020000000000201000001985196900000047092830000TRANSFERENCIA DA COMPENSACAO FINANCEIRA PELA EXPLORACAO DE RECURSOS NATURAIS                                                                                              S0500000000198519690000
000001718022000000000201000000000000000000000040050000COTA-PARTE DA COMPENSACAO FINANCEIRA DE RECURSOS MINERAIS - CFEM                                                                                                          S0600000000000000000000
000001718022100000000201000000000000000000000040050001COTA-PARTE DA COMPENSACAO FINANCEIRA DE RECURSOS MINERAIS - CFEM - PRINCIPAL                                                                                              A0600000000000000000000
000001718026000000000201000001985196900000047052780000COTA-PARTE DO FUNDO ESPECIAL DO PETROLEO – FEP                                                                                                                            S0600000000198519690000
000001718026100000000201000001985196900000047052780001COTA-PARTE DO FUNDO ESPECIAL DO PETROLEO – FEP - PRINCIPAL                                                                                                                A0600000000198519690000
000001718030000000000201000006963100000000369160930000TRANSFERENCIA DE RECURSOS DO SISTEMA UNICO DE SAUDE – SUS – REPASSES FUNDO A FUNDO BLOCO CUSTEIO DAS ACOES E SERVICOS PUBLICOS DE SAUDE                                   S0500000000785364000000
000001718031000000000201000006028629600000309600420000TRANSFERENCIA DE RECURSOS DO SUS – ATENCAO BASICA                                                                                                                         S0600000000677862960000
000001718031100000000201000006028629600000309600424500TRANSFERENCIA DE RECURSOS DO SUS – ATENCAO BASICA - PRINCIPAL                                                                                                             A0600000000677862960000
000001718032000000000201000000068464700000002943320000TRANSFERENCIA DE RECURSOS DO SUS – ATENCAO DE MEDIA E ALTA COMPLEXIDADE AMBULATORIAL E HOSPITALAR                                                                         S0600000000006846470000
000001718032100000000201000000068464700000002943324501TRANSFERENCIA DE RECURSOS DO SUS – ATENCAO DE MEDIA E ALTA COMPLEXIDADE AMBULATORIAL E HOSPITALAR - PRINCIPAL                                                             A0600000000006846470000
000001718033000000000201000000520860100000022509280000TRANSFERENCIA DE RECURSOS DO SUS – VIGILANCIA EM SAUDE                                                                                                                    S0600000000052086010000
000001718033100000000201000000520860100000022509284502TRANSFERENCIA DE RECURSOS DO SUS – VIGILANCIA EM SAUDE - PRINCIPAL                                                                                                        A0600000000052086010000
000001718034000000000201000000345145600000019318080000TRANSFERENCIA DE RECURSOS DO SUS – ASSISTENCIA FARMACEUTICA                                                                                                               S0600000000034514560000
000001718034100000000201000000345145600000019318084503TRANSFERENCIA DE RECURSOS DO SUS – ASSISTENCIA FARMACEUTICA - PRINCIPAL                                                                                                   A0600000000034514560000
000001718039000000000201000000000000000000014789830000TRANSFERENCIA DE RECURSOS DO SUS – OUTROS PROGRAMAS FINANCIADOS POR TRANSFERENCIAS FUNDO A FUNDO                                                                          S0600000000014054000000
000001718039100000000201000000000000000000014789830000TRANSFERENCIA DE RECURSOS DO SUS – OUTROS PROGRAMAS FINANCIADOS POR TRANSFERENCIAS FUNDO A FUNDO - PRINCIPAL                                                              S0600000000014054000000
000001718039101000000201000000000000000000000000004511Combate ao COVID-19 Port. MS/GM 480/20 REs. CIB/RS 73/20                                                                                                                  A0700000000014054000000
000001718039101000000201000000000000000000014789834511Combate ao COVID-19 Port. MS/GM 480/20 REs. CIB/RS 73/20                                                                                                                  A0700000000000000003160
000001718050000000000201000003346411200000132504320000TRANSFERENCIAS DE RECURSOS DO FUNDO NACIONAL DO DESENVOLVIMENTO DA EDUCACAO – FNDE                                                                                        S0500000000336369120000
000001718051000000000201000002285504000000091311240000TRANSFERENCIAS DO SALARIO-EDUCACAO                                                                                                                                        S0600000000228550400000
000001718051100000000201000002285504000000091311241014TRANSFERENCIAS DO SALARIO-EDUCACAO - PRINCIPAL                                                                                                                            A0600000000228550400000
000001718053000000000201000000585960000000027530600000TRANSFERENCIAS DIRETAS DO FNDE REFERENTES AO PROGRAMA NACIONAL DE ALIMENTACAO ESCOLAR – PNAE                                                                              S0600000000060324000000
000001718053100000000201000000585960000000027530600000TRANSFERENCIAS DIRETAS DO FNDE REFERENTES AO PROGRAMA NACIONAL DE ALIMENTACAO ESCOLAR – PNAE - PRINCIPAL                                                                  S0600000000060324000000
000001718053101000000201000000249120000000011692801001PNAE FUNDAMENTAL                                                                                                                                                          A0700000000024912000000
000001718053102000000201000000201160000000008988001031PNAE CRECHE                                                                                                                                                               A0700000000020116000000
000001718053103000000201000000118720000000005808801033PNAE PRE-ESCOLA                                                                                                                                                           A0700000000011872000000
000001718053104000000201000000000000000000000691201059PNAE EJA                                                                                                                                                                  A0700000000001728000000
000001718053105000000201000000016960000000000349801071PNAE AEE                                                                                                                                                                  A0700000000001696000000
000001718054000000000201000000474947200000013662480000TRANSFERENCIAS DIRETAS DO FNDE REFERENTES AO PROGRAMA NACIONAL DE APOIO AO TRANSPORTE DO ESCOLAR – PNATE                                                                  S0600000000047494720000
000001718054100000000201000000474947200000013662481016TRANSFERENCIAS DIRETAS DO FNDE REFERENTES AO PROGRAMA NACIONAL DE APOIO AO TRANSPORTE DO ESCOLAR – PNATE - PRINCIPAL                                                      A0600000000047494720000
000001718120000000000201000001136714700000024869060000TRANSFERENCIAS DE RECURSOS DO FUNDO NACIONAL DE ASSISTENCIA SOCIAL – FNAS                                                                                                 S0500000000113671470000
000001718121000000000201000001136714700000024869060000TRANSFERENCIAS DE RECURSOS DO FUNDO NACIONAL DE ASSISTENCIA SOCIAL – FNAS                                                                                                 S0600000000113671470000
000001718121100000000201000001136714700000024869060000TRANSFERENCIAS DE RECURSOS DO FUNDO NACIONAL DE ASSISTENCIA SOCIAL – FNAS - PRINCIPAL                                                                                     S0600000000113671470000
000001718121101000000201000000181494200000005720001038IGD BF                                                                                                                                                                    A0700000000018149420000
000001718121102000000201000000015295600000000000001067IGD SUAS                                                                                                                                                                  A0700000000001529560000
000001718121103000000201000000219924900000009370801021SCFV FF                                                                                                                                                                   A0700000000021992490000
000001718121104000000201000000720000000000009778261064PAIF FF                                                                                                                                                                   A0700000000072000000000
000001718990000000000201000000000000000000042628020000OUTRAS TRANSFERENCIAS DA UNIAO                                                                                                                                            S0500000000000000000000
000001718991000000000201000000000000000000042628020000OUTRAS TRANSFERENCIAS DA UNIAO                                                                                                                                            S0600000000000000000000
000001718991100000000201000000000000000000042628020000OUTRAS TRANSFERENCIAS DA UNIAO - PRINCIPAL                                                                                                                                S0600000000000000000000
000001718991102000000201000000000000000000042628020001AFM MP938/2020 COMPLEMENTACAO FPM                                                                                                                                         A0700000000000000000000
000001720000000000000201000115136180200003852446020000TRANSFERENCIAS DOS ESTADOS E DO DISTRITO FEDERAL E DE SUAS ENTIDADES                                                                                                      S0300000011556016900000
000001728000000000000201000115136180200003852446020000TRANSFERENCIAS DOS ESTADOS - ESPECIFICAS DE ESTADOS, DF E MUNICIPIOS                                                                                                      S0400000011556016900000
000001728010000000000201000107877491000003561655970000PARTICIPACAO NA RECEITA DOS ESTADOS                                                                                                                                       S0500000010794147980000
000001728011000000000201000100109064900003025303490000COTA-PARTE DO ICMS                                                                                                                                                        S0600000010010906490000
000001728011100000000201000100109064900003025303490000COTA-PARTE DO ICMS - PRINCIPAL                                                                                                                                            S0600000010010906490000
000001728011101000000201000060065439000001815182080001COTA-PARTE DO ICMS - PRINCIPAL  - PROPRIO                                                                                                                                 A0700000006006543900000
000001728011102000000201000005005453200000151265170020COTA-PARTE DO ICMS - PRINCIPAL  - MDE                                                                                                                                     A0700000000500545320000
000001728011103000000201000015016359700000453795530040COTA-PARTE DO ICMS - PRINCIPAL - ASPS                                                                                                                                     A0700000001501635970000
000001728011104000000201000020021813000000605060710031COTA-PARTE DO ICMS - PRINCIPAL  - FUNDEB                                                                                                                                  A0700000002002181300000
000001728012000000000201000006276800400000490641620000COTA-PARTE DO IPVA                                                                                                                                                        S0600000000627680040000
000001728012100000000201000006276800400000490641620000COTA-PARTE DO IPVA - PRINCIPAL                                                                                                                                            S0600000000627680040000
000001728012101000000201000003766080200000294384850001COTA-PARTE DO IPVA - PRINCIPAL  - PROPRIO                                                                                                                                 A0700000000376608020000
000001728012102000000201000000313840000000024532080020COTA-PARTE DO IPVA - PRINCIPAL  - MDE                                                                                                                                     A0700000000031384000000
000001728012103000000201000000941520100000073596270040COTA-PARTE DO IPVA - PRINCIPAL  - ASPS                                                                                                                                    A0700000000094152010000
000001728012104000000201000001255360100000098128420031COTA-PARTE DO IPVA - PRINCIPAL  - FUNDEB                                                                                                                                  A0700000000125536010000
000001728013000000000201000001491625700000041275650000COTA-PARTE DO IPI - MUNICIPIOS                                                                                                                                            S0600000000149162570000
000001728013100000000201000001491625700000041275650000COTA-PARTE DO IPI - MUNICIPIOS - PRINCIPAL                                                                                                                                S0600000000149162570000
000001728013101000000201000000894975400000024765370001COTA-PARTE DO IPI - MUNICIPIOS - PRINCIPAL  - PROPRIO                                                                                                                     A0700000000089497540000
000001728013102000000201000000074581300000002063790020COTA-PARTE DO IPI - MUNICIPIOS - PRINCIPAL  - MDE                                                                                                                         A0700000000007458130000
000001728013103000000201000000223743900000006191360040COTA-PARTE DO IPI - MUNICIPIOS - PRINCIPAL  - ASPS                                                                                                                        A0700000000022374390000
000001728013104000000201000000298325100000008255130031COTA-PARTE DO IPI - MUNICIPIOS - PRINCIPAL  - FUNDEB                                                                                                                      A0700000000029832510000
000001728014000000000201000000000000000000004435210000COTA-PARTE DA CONTRIBUICAO DE INTERVENCAO NO DOMINIO ECONOMICO                                                                                                            S0600000000006398880000
000001728014100000000201000000000000000000004435211018COTA-PARTE DA CONTRIBUICAO DE INTERVENCAO NO DOMINIO ECONOMICO - PRINCIPAL                                                                                                A0600000000006398880000
000001728030000000000201000003970244800000189867970000TRANSFERENCIA DE RECURSOS DO ESTADO PARA PROGRAMAS DE SAUDE – REPASSE FUNDO A FUNDO                                                                                       S0500000000397024480000
000001728031000000000201000003970244800000189867970000TRANSFERENCIA DE RECURSOS DO ESTADO PARA PROGRAMAS DE SAUDE – REPASSE FUNDO A FUNDO                                                                                       S0600000000397024480000
000001728031100000000201000003970244800000189867970000TRANSFERENCIA DE RECURSOS DO ESTADO PARA PROGRAMAS DE SAUDE – REPASSE FUNDO A FUNDO - PRINCIPAL                                                                           S0600000000397024480000
000001728031101000000201000001500000000000085690454011PIES FE                                                                                                                                                                   A0700000000150000000000
000001728031102000000201000001300000000000060000004090PSF ESTADUAL                                                                                                                                                              A0700000000130000000000
000001728031103000000201000000150000000000000000004090PACS ESTADUAL                                                                                                                                                             A0700000000015000000000
000001728031104000000201000000158474400000007923724050FARMACIA BASICA ESTADUAL                                                                                                                                                  A0700000000015847440000
000001728031105000000201000000240000000000012000004160PIM                                                                                                                                                                       A0700000000024000000000
000001728031107000000201000000621770400000018960004050FARMACIA BASICA - DISTRIBUICAO DE FRALDAS RV4050                                                                                                                          A0700000000062177040000
000001728031108000000201000000000000000000005293804170ENFRENTAMENTO CORONAVIRUS RES CIB 75/2020 RV4170                                                                                                                          A0700000000000000003160
000001728100000000000201000003287444400000091922080000TRANSFERENCIA DE CONVENIOS DOS ESTADOS E DO DISTRITO FEDERAL E DE SUAS ENTIDADES                                                                                          S0500000000328744440000
000001728102000000000201000003184995000000081677140000TRANSFERENCIAS DE CONVENIO DOS ESTADOS DESTINADAS A PROGRAMAS DE EDUCACAO                                                                                                 S0600000000318499500000
000001728102100000000201000003184995000000081677140000TRANSFERENCIAS DE CONVENIO DOS ESTADOS DESTINADAS A PROGRAMAS DE EDUCACAO - PRINCIPAL                                                                                     S0600000000318499500000
000001728102101000000201000003184995000000081677140000TRANSFERENCIAS DE CONVENIOS PARA O TRANSPORTE ESCOLAR - PRINCIPAL                                                                                                         S0700000000318499500000
000001728102101010000201000003184995000000081677141017PEATE RS                                                                                                                                                                  A0800000000318499500000
000001728109000000000201000000102449400000010244940000OUTRAS TRANSFERENCIAS DE CONVENIO DOS ESTADOS                                                                                                                             S0600000000010244940000
000001728109100000000201000000102449400000010244940000OUTRAS TRANSFERENCIAS DE CONVENIO DOS ESTADOS - PRINCIPAL                                                                                                                 S0600000000010244940000
000001728109107000000201000000102449400000010244941103PROGRAMA OASF - ORIENTACAO E APOIO SOCIO-FAMILIAR - PRINCIPAL                                                                                                             A0700000000010244940000
000001728990000000000201000000001000000000009000000000OUTRAS TRANSFERENCIAS DOS ESTADOS                                                                                                                                         S0500000000036100000000
000001728991000000000201000000001000000000009000000000OUTRAS TRANSFERENCIAS DOS ESTADOS                                                                                                                                         S0600000000036100000000
000001728991100000000201000000001000000000009000000000OUTRAS TRANSFERENCIAS DOS ESTADOS - PRINCIPAL                                                                                                                             S0600000000036100000000
000001728991101000000201000000001000000000000000001114COTA-PARTE DAS MULTAS DE TRANSITO - PRINCIPAL                                                                                                                             A0700000000000100000000
000001728991102000000201000000000000000000009000001112PIT FE - PROGRAMA DE INTEGRACAO TRIBUTARIA RV1112                                                                                                                         A0700000000036000000000
000001740000000000000201000000000000000000022000000000TRANSFERENCIAS DE INSTITUICOES PRIVADAS                                                                                                                                   S0300000000022000000000
000001748000000000000201000000000000000000022000000000TRANSFERENCIAS DE INSTITUICOES PRIVADAS - ESPECIFICAS DE ESTADOS, DF E MUNICIPIOS                                                                                         S0400000000022000000000
000001748100000000000201000000000000000000022000000000OUTRAS TRANSFERENCIA DE INSTITUICOES PRIVADAS PARA EST/DF/MUN - NAO ESPECIFICADAS ANTERIORMENTE                                                                           S0500000000022000000000
000001748101000000000201000000000000000000022000000000OUTRAS TRANSFERENCIA DE INSTITUICOES PRIVADAS PARA EST/DF/MUN - NAO ESPECIFICADAS ANTERIORMENTE                                                                           S0600000000022000000000
000001748101100000000201000000000000000000022000000000OUTRAS TRANSFERENCIA DE INSTITUICOES PRIVADAS PARA EST/DF/MUN - NAO ESPECIFICADAS ANTERIORMENTE - PRINCIPAL                                                               S0600000000022000000000
000001748101103000000201000000000000000000022000000000Doacoes para o municipio - COVID-19 - PJ - Principal                                                                                                                      S0700000000022000000000
000001748101103010000201000000000000000000000000000900DOACAO SICREDI COVID-19 RV0900                                                                                                                                            A0800000000022000000000
000001748101103010000201000000000000000000022000000900DOACAO SICREDI COVID-19 RV0900                                                                                                                                            A0800000000000000003160
000001750000000000000201000027436782100001241420390000TRANSFERENCIAS DE OUTRAS INSTITUICOES PUBLICAS                                                                                                                            S0300000003220120940000
000001758000000000000201000027436782100001241420390000TRANSFERENCIAS DE OUTRAS INSTITUICOES PUBLICAS - ESPECIFICAS DE ESTADOS, DF E MUNICIPIOS                                                                                  S0400000003220120940000
000001758010000000000201000027436782100001241420390000TRANSFERENCIAS DE RECURSOS DO FUNDO DE MANUTENCAO E DESENVOLVIMENTO DA EDUCACAO BASICA E DE VALORIZACAO DOS PROFISSIONAIS DA EDUCACAO – FUND                              S0500000003220120940000
000001758011000000000201000027436782100001241420390000TRANSFERENCIAS DE RECURSOS DO FUNDO DE MANUTENCAO E DESENVOLVIMENTO DA EDUCACAO BASICA E DE VALORIZACAO DOS PROFISSIONAIS DA EDUCACAO – FUND                              S0600000003220120940000
000001758011100000000201000027436782100001241420390031TRANSFERENCIAS DE RECURSOS DO FUNDO DE MANUTENCAO E DESENVOLVIMENTO DA EDUCACAO BASICA E DE VALORIZACAO DOS PROFISSIONAIS DA EDUCACAO – FUND                              A0600000003220120940000
000001900000000000000201000001703215000000051808710000OUTRAS RECEITAS CORRENTES                                                                                                                                                 S0200000000185364000000
000001920000000000000201000001303215000000018020390000INDENIZACOES, RESTITUICOES E RESSARCIMENTOS                                                                                                                               S0300000000130321500000
000001928000000000000201000001303215000000018020390000INDENIZACOES, RESTITUICOES E RESSARCIMENTOS - ESPECIFICAS PARA ESTADOS/DF/MUNICIPIOS                                                                                      S0400000000130321500000
000001928010000000000201000000603215000000016354650000INDENIZACOES- ESPECIFICAS PARA ESTADOS/DF/MUNICIPIOS                                                                                                                      S0500000000060321500000
000001928011000000000201000000603215000000016354650000INDENIZACOES - ESPECIFICAS PARA ESTADOS/DF/MUNICIPIOS                                                                                                                     S0600000000060321500000
000001928011100000000201000000603215000000016354650000INDENIZACOES - ESPECIFICAS PARA ESTADOS/DF/MUNICIPIOS - PRINCIPAL                                                                                                         S0600000000060321500000
000001928011101000000201000000603215000000016354650001PARTICIPACAO DOS SERVIDORES NO AUXILIO-ALIMENTACAO - PRINCIPAL                                                                                                            A0700000000060321500000
000001928020000000000201000000700000000000001665740000RESTITUICOES - ESPECIFICAS PARA ESTADOS/DF/MUNICIPIOS                                                                                                                     S0500000000070000000000
000001928029000000000201000000700000000000001665740000OUTRAS RESTITUICOES - ESPECIFICAS PARA ESTADOS/DF/MUNICIPIOS - NAO ESPECIFICADAS ANTERIORMENTE                                                                            S0600000000070000000000
000001928029102000000201000000700000000000000000000001PROGRAMA TROCA-TROCA - PRINCIPAL                                                                                                                                          A0700000000070000000000
000001928029108000000201000000000000000000000310590001INDENIZACAO  POR DANO AO PATRIMONIO PUBLICO - PRINCIPAL                                                                                                                   A0700000000000000000000
000001928029109000000201000000000000000000001155370001RESTITUICAO DE VALORES DE ANOS ANTERIORES - PRINCIPAL                                                                                                                     A0700000000000000000000
000001928029302000000201000000000000000000000080640001PROGRAMA TROCA-TROCA - DIVIDA ATIVA                                                                                                                                       A0700000000000000000000
000001928029402000000201000000000000000000000119140001PROGRAMA TROCA-TROCA - MULTAS E JUROS DE MORA DA DIVIDA ATIVA                                                                                                             A0700000000000000000000
000001990000000000000201000000400000000000033788320000DEMAIS RECEITAS CORRENTES                                                                                                                                                 S0300000000055042500000
000001990990000000000201000000400000000000033788320000OUTRAS RECEITAS                                                                                                                                                           S0500000000055042500000
000001990991000000000201000000000000000000017990000000OUTRAS RECEITAS - PRIMARIAS                                                                                                                                               S0600000000015042500000
000001990991100000000201000000000000000000017990000000OUTRAS RECEITAS - PRIMARIAS - PRINCIPAL                                                                                                                                   S0600000000015042500000
000001990991105000000201000000000000000000017990000001RECEITAS DE ALIENACAO DE SUCATA                                                                                                                                           A0700000000015042500000
000001990992000000000201000000400000000000015798320000OUTRAS RECEITAS - FINANCEIRAS                                                                                                                                             S0600000000040000000000
000001990992100000000201000000400000000000015798320000OUTRAS RECEITAS - FINANCEIRAS - PRINCIPAL                                                                                                                                 S0600000000040000000000
000001990992102000000201000000400000000000015798320001DESCONTOS FINANCEIROS OBTIDOS - PRINCIPAL                                                                                                                                 A0700000000040000000000
000002000000000000000201000008626073800000218540000000RECEITAS DE CAPITAL                                                                                                                                                       S0100000000982857380000
000002200000000000000201000000000000000000120200000000ALIENACAO DE BENS                                                                                                                                                         S0200000000120250000000
000002210000000000000201000000000000000000120200000000ALIENACAO DE BENS MOVEIS                                                                                                                                                  S0300000000120250000000
000002213000000000000201000000000000000000120200000000ALIENACAO DE BENS MOVEIS E SEMOVENTES                                                                                                                                     S0400000000120250000000
000002213001000000000201000000000000000000120200000000ALIENACAO DE BENS MOVEIS E SEMOVENTES                                                                                                                                     S0600000000120250000000
000002213001100000000201000000000000000000120200000000ALIENACAO DE BENS MOVEIS E SEMOVENTES - PRINCIPAL                                                                                                                         S0600000000120250000000
000002213001102000000201000000000000000000120200000000ALIENACAO DE BENS MOVEIS E SEMOVENTES - PRINCIPAL  - EXCETO RPPS                                                                                                          S0700000000120250000000
000002213001102010000201000000000000000000087800001010ALIENACAO DE BENS RV1010                                                                                                                                                  A0800000000087850000000
000002213001102020000201000000000000000000011100001011ALIENACAO DE BENS DA EDUCACAO RV1011                                                                                                                                      A0800000000011100000000
000002213001102030000201000000000000000000021300004002ALIENACAO DE BENS DA SAUDE RV4002                                                                                                                                         A0800000000021300000000
000002400000000000000201000008626073800000098340000000TRANSFERENCIAS DE CAPITAL                                                                                                                                                 S0200000000862607380000
000002410000000000000201000008626073800000098340000000TRANSFERENCIAS DA UNIAO E DE SUAS ENTIDADES                                                                                                                               S0300000000862607380000
000002418000000000000201000008626073800000098340000000TRANSFERENCIAS DA UNIAO - ESPECIFICAS DE ESTADOS, DF E MUNICIPIOS                                                                                                         S0400000000862607380000
000002418100000000000201000000000000000000098340000000TRANSFERENCIA DE CONVENIOS DA UNIAO E DE SUAS ENTIDADES                                                                                                                   S0500000000000000000000
000002418107000000000201000000000000000000098340000000TRANSFERENCIAS DE CONVENIOS DA UNIAO DESTINADAS A PROGRAMAS DE INFRAESTRUTURA EM TRANSPORTE                                                                               S0600000000000000000000
000002418107102000000201000000000000000000098340001203PAV. URB. SICONV CONVENIO 847175/17 RV1203 CONTRATO 1042465-17/2017                                                                                                       A0700000000000000000000
000002418990000000000201000008626073800000000000000000OUTRAS TRANSFERENCIAS DA UNIAO                                                                                                                                            S0500000000862607380000
000002418991000000000201000008626073800000000000000000OUTRAS TRANSFERENCIAS DA UNIAO                                                                                                                                            S0600000000862607380000
000002418991100000000201000008626073800000000000000000OUTRAS TRANSFERENCIAS DA UNIAO - PRINCIPAL                                                                                                                                S0600000000862607380000
000002418991101000000201000008626073800000000000001008TRANSFERENCIA DECORRENTE DOS LEILOES DE VOLUMES EXCEDENTES - LEI No 13.885/2019                                                                                           A0700000000862607380000
000007000000000000000201000028326049400000804729950000RECEITAS CORRENTES INTRAORCAMENTARIAS                                                                                                                                     S0100000002832604940000
000007200000000000000201000028326049400000804729950000CONTRIBUICOES                                                                                                                                                             S0200000002832604940000
000007210000000000000201000028326049400000804729950000CONTRIBUICOES SOCIAIS                                                                                                                                                     S0300000002832604940000
000007218000000000000201000028326049400000804729950000CONTRIBUICOES SOCIAIS ESPECIFICAS DE ESTADOS, DF E MUNICIPIOS                                                                                                             S0400000002832604940000
000007218030000000001201000026916049400000663756230000CPSSS PATRONAL - SERVIDOR CIVIL - ESPECIFICO DE EST/DF/MUN                                                                                                                S0500000002691604940000
000007218031000000001201000026862049400000662587880000CPSSS PATRONAL - SERVIDOR CIVIL ATIVO                                                                                                                                     S0600000002686204940000
000007218031100000001201000026862049400000662587880000CPSSS PATRONAL - SERVIDOR CIVIL ATIVO - PRINCIPAL                                                                                                                         S0600000002686204940000
000007218031101000001201000011862049400000278824930050CPSSS PATRONAL - SERVIDOR CIVIL ATIVO - NORMAL - PRINCIPAL                                                                                                                A0700000001186204940000
000007218031102000001201000015000000000000383762950050CPSSS PATRONAL - AMORTIZACAO DO PASSIVO ATUARIAL - PRINCIPAL                                                                                                              A0700000001500000000000
000007218033000000000201000000054000000000001168350000CPSSS PATRONAL - SERVIDOR CIVIL - PENSIONISTAS INTRAORCAMENTARIA                                                                                                          S0600000000005400000000
000007218033100000001201000000054000000000001168350050CPSSS PATRONAL - SERVIDOR CIVIL - PENSIONISTAS - PRINCIPAL                                                                                                                A0600000000005400000000
000007218040000000001201000001410000000000140973720000CPSSS PATRONAL - PARCELAMENTOS - ESPECIFICO DE EST/DF/MUN                                                                                                                 S0500000000141000000000
000007218041000000001201000001410000000000140973720000CPSSS PATRONAL - PARCELAMENTOS - SERVIDOR CIVIL ATIVO                                                                                                                     S0600000000141000000000
000007218041100000001201000001410000000000140973720050CPSSS PATRONAL - PARCELAMENTOS - SERVIDOR CIVIL ATIVO - PRINCIPAL                                                                                                         A0600000000141000000000
000009000000000000000201-000396529995-0001468892360000(R) DEDUCOES DA RECEITA                                                                                                                                                   S01000-0003965299950000
000009100000000000000201-000396529995-0001468892360000(R) DEDUCAO DAS RECEITAS CORRENTES                                                                                                                                        S02000-0003965299950000
000009110000000000000201-000008000000-0000008950120000(R) DEDUCOES DA RECEITA DE IMPOSTOS, TAXAS E CONTRIBUICOES DE MELHORIA                                                                                                    S03000-0000080000000000
000009111000000000000201-000008000000-0000008950120000(R) DEDUCOES DA RECEITA DE IMPOSTOS                                                                                                                                       S04000-0000080000000000
000009111800000000000201-000008000000-0000008950120000(R) DEDUCOES DA RECEITA DE IMPOSTOS ESPECIFICOS DE ESTADOS/DF MUNICIPIOS                                                                                                  S05000-0000080000000000
000009111801000000000201-000008000000-0000008950120000(R) DEDUCAO DAS RECEITAS DE IMPOSTOS SOBRE O PATRIMONIO PARA ESTADOS/DF MUNICIPIOS                                                                                        S06000-0000080000000000
000009111801110000000201-000008000000-0000008950120000(R) IMPOSTO SOBRE A PROPRIEDADE PREDIAL E TERRITORIAL URBANA                                                                                                              S07000-0000080000000000
000009111801110100000201-000004800000-0000008950120001(R) IPTU - PROPRIO                                                                                                                                                        A08103-0000048000000000
000009111801110200000201-00000200000000000000000000020(R) IPTU - MDE                                                                                                                                                            A08103-0000020000000000
000009111801110300000201-00000120000000000000000000040(R) IPTU - ASPS                                                                                                                                                           A08103-0000012000000000
000009130000000000000201-000000000000-0000168053260000(R)RECEITA PATRIMONIAL                                                                                                                                                    S03000-0000000000000000
000009132000000000000201-000000000000-0000168053260000(R)VALORES MOBILIARIOS                                                                                                                                                    S04000-0000000000000000
000009132100000000000201-000000000000-0000168053260000(R)JUROS E CORRECOES MONETARIAS                                                                                                                                           S05000-0000000000000000
000009132100400000000201-000000000000-0000168053260000(R)REMUNERACAO DOS RECURSOS DO REGIME PROPRIO DE PREVIDENCIA SOCIAL - RPPS                                                                                                S06000-0000000000000000
000009132100410000001201-000000000000-0000168053260000(R)REMUNERACAO DOS RECURSOS DO REGIME PROPRIO DE PREVIDENCIA SOCIAL - RPPS - PRINCIPAL                                                                                    S07000-0000000000000000
000009132100410100001201-000000000000-0000016835960050(R)FPSM BB PREVID RF IMA-B TIT PUBL FI                                                                                                                                    A08109-0000000000000000
000009132100410200001201-000000000000-0000004161250050(R)FPSM BB RF IMAB 5+                                                                                                                                                     A08109-0000000000000000
000009132100410600001201-000000000000-0000037857180050(R)FPSM CEF CAIXA BRASIL 2024 III TP RF                                                                                                                                   A08109-0000000000000000
000009132100410900001201-000000000000-0000041552500050(R)FPSM CAIXA FI BRASIL IDKA IPCA 2A TP RF LP                                                                                                                             A08109-0000000000000000
000009132100411000001201-000000000000-0000018798470050(R)FPSM SICREDI  FI INSTITUCIONAL RF IRF-M LP                                                                                                                             A07109-0000000000000000
000009132100411100001201-000000000000-0000008413410050(R)FPSM SICREDI FIC INSTITUCIONAL RF IMA-B                                                                                                                                A08109-0000000000000000
000009132100411200001201-000000000000-0000040434490050(R)FPSM BB PREV RF ALOCACAO ATIVA                                                                                                                                         A08109-0000000000000000
000009170000000000000201-000388529995-0001291888980000(R) DEDUCOES DA RECEIAS DE TRANSFERENCIAS CORRENTES                                                                                                                       S03000-0003885299950000
000009171000000000000201-000172775013-0000580444720000(R) DEDUCOES DAS RECEITAS DE TRANSFERENCIAS DA UNIAO E DE SUAS ENTIDADES                                                                                                  S04000-0001727750130000
000009171800000000000201-000172775013-0000580444720000(R) DEDUCOES DAS RECEIAS DE TRANSFERENCIAS DA UNIAO - ESPECIFICA E/M                                                                                                      S05000-0001727750130000
000009171801000000000201-000172775013-0000580444720000(R) DEDUCOES DAS RECEITAS DE PARTICIPACAO NA RECEITA DA UNIAO                                                                                                             S06000-0001727750130000
000009171801200000000201-000171394525-0000577921370000(R) DEDUCAO DA COTA-PARTE DO FPM - MENSAL                                                                                                                                 S06000-0001713945250000
000009171801210000000201-000171394525-0000577921370000(R) DEDUCOES DA RECEITA DO FUNDO DE PARTICIPACAO DOS MUNICIPIOS - FPM                                                                                                     S07000-0001713945250000
000009171801210400000201-000171394525-0000577921370031(R) DEDUCAO DA RECEITA PARA FORMACAO DO FUNDEB - FPM                                                                                                                      A08105-0001713945250000
000009171801500000000201-000001380488-0000002523350000(R) DEDUCAO DA COTA-PARTE DO ITR                                                                                                                                          S06000-0000013804880000
000009171801510000000201-000001380488-0000002523350000(R) DEDUCAO DA RECEITA DO IMPOSTO SOBRE A PROPRIEDADE TERRITORIAL RURAL - ITR                                                                                             S07000-0000013804880000
000009171801510400000201-000001380488-0000002523350031(R) DEDUCAO DA RECEITA PARAFORMACAO DO FUNDEB - ITR                                                                                                                       A08105-0000013804880000
000009172000000000000201-000215754982-0000711444260000(R) DEDUCAO DAS TRASNFERENCIAS DOS ESTADOS E DO DF E DE SUAS ENTIDADES                                                                                                    S04000-0002157549820000
000009172800000000000201-000215754982-0000711444260000(R) DEDUCAO DA RECEITA DE TRANSFERENCIA DO ESTADO                                                                                                                         S05000-0002157549820000
000009172801000000000201-000215754982-0000711444260000(R) DEDUCAO DA RECEITA DE PARTICIPACAO NA RECEITA DO ESTADO                                                                                                               S06000-0002157549820000
000009172801100000000201-000200218130-0000605060710000(R) DEDUCAO DA COTA-PARTE DO ICMS                                                                                                                                         S06000-0002002181300000
000009172801110000000201-000200218130-0000605060710000(R) DEDUCAO DA RECEITA DE ICMS                                                                                                                                            S07000-0002002181300000
000009172801110400000201-000200218130-0000605060710031(R) DEDUCAO DA RECEITA PARA FORMACAO DO FUNDEB - ICMS                                                                                                                     A08105-0002002181300000
000009172801200000000201-000012553601-0000098128420000(R) DEDUCAO DA COTA-PARTE DO IPVA                                                                                                                                         S06000-0000125536010000
000009172801210000000201-000012553601-0000098128420000(R) DEDUCAO DA RECEITA DA COTA-PARTE DO IPVA                                                                                                                              S07000-0000125536010000
000009172801210400000201-000012553601-0000098128420031(R) DEDUCAO DA RECEITA PARA FORMACAO DO FUNDEB - IPVA                                                                                                                     A08105-0000125536010000
000009172801300000000201-000002983251-0000008255130000(R) DEDUCAO DA COTA-PARTE DO IPI-MUNICIPIOS                                                                                                                               S06000-0000029832510000
000009172801310000000201-000002983251-0000008255130000(R) DEDUCAO DA RECEITA DO IPI/EXPORTACAO                                                                                                                                  S07000-0000029832510000
000009172801310400000201-000002983251-0000008255130031(R) DEDUCAO DA RECEITA PARA FORMACAO DO FUNDEB - IPI/EXPORTACAO                                                                                                           A08105-0000029832510000
