87612826000190010120203004202008052020PREFEITURA MUNICIPAL INDEPENDENCIA                                              
0201041220001000020043190110001000003650000000000000000000000000000000000000000000000000000000000000000000000000000000000000000000000000000012212918000001221291800000122129180000000000000000000000000000000730000000000
0201041220001000020043190130001000000620000000000000000000000000000000000000000000000000000000000000000000000000000000000000000000000000000002765685000000276568500000021152300000000000000000000000000000000124000000000
0201041220001000020043190160001000000005000000000000000000000000000000000000000000000000000000000000000000000000000000000000000000000000000000000000000000000000000000000000000000000000000000000000000000000000000000000
0201041220001000020043190940001000000005000000000000000000000000000000000000000000000000000000000000000000000000000000000000000000000000000000000000000000000000000000000000000000000000000000000000000000000000000000000
0201041220001000020043191130001000000025000000000000000000000000000000000000000000000000000000000000000000000000000000000000000000000000000000080458000000008045800000000608400000000000000000000000000000000005000000000
0201041220001000020043390140001000000050000000000000000000000000000000000000000000000000000000000000000000000000000000000000000000000000000000208995000000020899500000002089950000000000000000000000000000000005000000000
0201041220001000020043390300001000000020000000000000000000000000100000000000000000000000000000000000000000000000000000000000000000000000000000151160000000013688000000001368800000000000000000000000000000000004000000000
0201041220001000020043390360001000000005000000000000000000000000000000000000000000000000000000000000000000000000000000000000000000000000000000000000000000000000000000000000000000000000000000000000000000000000000000000
0201041220001000020043390390001000000100000000000000000000000000000000000000000000000000000000000000000100000000000000000000000000000000000000440961000000015852100000001355210000000000000000000000000000000020000000000
0201041220001000020043390400001000000005000000000000000000000000000000000000000000000000000000000000000000000000000000000000000000000000000000000000000000000000000000000000000000000000000000000000000000000000000000000
0201041220001000020043390930001000000005000000000000000000000000000000000000000000000000000000000000000000000000000000000000000000000000000000000000000000000000000000000000000000000000000000000000000000000000000000000
0201041220001000020044490400001000000005000000000000000000000000000000000000000000000000000000000000000000000000000000000000000000000000000000000000000000000000000000000000000000000000000000000000000000000000000000000
0201041220001000020044490520001000000005000000000000000000000000027000000000000000000000000000000000000000000000000000000000000000000000000000024600000000000000000000000000000000000000000000000000000000000000500000000
0201042720020000000353190110001000000000000000000000000000000000000000000000010000000000000000000000000000000000000000000000000000000000000000000000000000000000000000000000000000000000000000000000000000000000000000000
0201042720020000000353390080001000000000000000000000000000000000000000000000010000000000000000000000000000000000000000000000000000000000000000004862000000000486200000000048620000000000000000000000000000000000000000000
0201043310001000000203390460001000000160000000000000000000000000000000000000000000000000000000000000000000000000000000000000000000000000000000627900000000062790000000004914000000000000000000000000000000000032000000000
0203041220001000020053350410001000000510000000000000000000000000000000000000000000000000000000000000000000000000000000000000000000000000000003931188000000117712200000011771220000000000000000000000000000000051000000000
0203041220001000020063190110001000000660000000000000000000000000000000000000000000000000000000000000000000000000000000000000000000000000000002736906000000273690600000027369060000000000000000000000000000000132000000000
0203041220001000020063190130001000000140000000000000000000000000000000000000000000000000000000000000000000000000000000000000000000000000000000563488000000056348800000004470740000000000000000000000000000000028000000000
0203041220001000020063190160001000000005000000000000000000000000000000000000000000000000000000000000000000000000000000000000000000000000000000000000000000000000000000000000000000000000000000000000000000000000000000000
0203041220001000020063190940001000000005000000000000000000000000200000000000000000000000000000000000000000000000000000000000000000000000000000225240000000022524000000002252400000000000000000000000000000000000500000000
0203041220001000020063390140001000000084000000000000000000000000000000000000000000000000000000000000000000000000000000000000000000000000000000078778000000007877800000000787780000000000000000000000000000000008400000000
0203041220001000020063390300001000000010000000000000000000000000000000000000000000000000000000000000000000000000000000000000000000000000000000016600000000000000000000000000000000000000000000000000000000000001000000000
0203041220001000020063390350001000000380000000000000000000000000020000000000000000000000000000000000000000000000000000000000000000000000000003815184000000100843200000010084320000000000000000000000000000000038000000000
0203041220001000020063390360001000000010000000000000000000000000000000000000000000000000000000000000000000000000000000000000000000000000000000000000000000000000000000000000000000000000000000000000000000000000000000000
0203041220001000020063390390001000000060000000000000000000000000000000000000000000000000000000000000000000000000000000000000000000000000000000496243000000018600300000001630030000000000000000000000000000000006000000000
0203041220001000020063390400001000000020000000000000000000000000000000000000000000000000000000000000000000000000000000000000000000000000000000000000000000000000000000000000000000000000000000000000000000000000000000000
0203041220001000020063390930001000000010000000000000000000000000000000000000000000000000000000000000000000000000000000000000000000000000000000000000000000000000000000000000000000000000000000000000000000000000000000000
0203041220001000020064490520001000000005000000000000000000000000000000000000000000000000000000000000000000000000000000000000000000000000000000024600000000000000000000000000000000000000000000000000000000000000500000000
0203041220002000020073390140001000000010000000000000000000000000000000000000000000000000000000000000000000000000000000000000000000000000000000000000000000000000000000000000000000000000000000000000000000000000000000000
0203041220002000020073390390001000000005000000000000000000000000000000000000000000000000000000000000000000000000000000000000000000000000000000000000000000000000000000000000000000000000000000000000000000000000000000000
0203041240001000020083190110001000000830000000000000000000000000000000000000000000000000000000000000000000000000000000000000000000000000000002683610000000268361000000026836100000000000000000000000000000000166000000000
0203041240001000020083190160001000000005000000000000000000000000000000000000000000000000000000000000000000000000000000000000000000000000000000000000000000000000000000000000000000000000000000000000000000000000000000000
0203041240001000020083190940001000000005000000000000000000000000000000000000000000000000000000000000000000000000000000000000000000000000000000000000000000000000000000000000000000000000000000000000000000000000000000000
0203041240001000020083191130001000000107440000000000000000000000000000000000000000000000000000000000000000000000000000000000000000000000000000315834000000031583400000002422090000000000000000000000000000000021488000000
0203041240001000020083390140001000000050000000000000000000000000000000000000000000000000000000000000000000000000000000000000000000000000000000208995000000020899500000002089950000000000000000000000000000000005000000000
0203041240001000020083390300001000000010000000000000000000000000000000000000000000000000000000000000000000000000000000000000000000000000000000000000000000000000000000000000000000000000000000000000000000000000000000000
0203041240001000020083390390001000000100000000000000000000000000000000000000000000000000000000000000000000000000000000000000000000000000000000456240000000045624000000004562400000000000000000000000000000000010000000000
0203041240001000020083390400001000000020000000000000000000000000000000000000000000000000000000000000000000000000000000000000000000000000000000022400000000002240000000000224000000000000000000000000000000000002000000000
0203041240001000020083390930001000000010000000000000000000000000000000000000000000000000000000000000000000000000000000000000000000000000000000000000000000000000000000000000000000000000000000000000000000000000000000000
0203041240001000020084490400001000000005000000000000000000000000000000000000000000000000000000000000000000000000000000000000000000000000000000000000000000000000000000000000000000000000000000000000000000000000000000000
0203041240001000020084490520001000000040000000000000000000000000000000000000000000000000000000000000000000000000000000000000000000000000000000015000000000001500000000000150000000000000000000000000000000000004000000000
0204082430011000020093190110001000001200000000000000000000000000000000000000000000000000000000000000000000000000000000000000000000000000000004004749000000400474900000040047490000000000000000000000000000000240000000000
0204082430011000020093190940001000000005000000000000000000000000700000000000000000000000000000000000000000000000000000000000000000000000000000730720000000073072000000007307200000000000000000000000000000000000500000000
0204082430011000020093390140001000000030000000000000000000000000000000000000000000000000000000000000000000000000000000000000000000000000000000089188000000008918800000000891880000000000000000000000000000000003000000000
0204082430011000020093390300001000000030000000000000000000000000000000000000000000000000000000000000000000000000000000000000000000000000000000185223000000004922300000000492230000000000000000000000000000000003000000000
0204082430011000020093390360001000000008500000000000000000000000000000000000000000000000000000000000000000000000000000000000000000000000000000000000000000000000000000000000000000000000000000000000000000000000000000000
0204082430011000020093390390001000000020000000000000000000000000650000000000000000000000000000000000000000000000000000000000000000000000000000466095000000026922900000002431340000000000000000000000000000000002000000000
0204082430011000020093390400001000000010000000000000000000000000000000000000000000000000000000000000000000000000000000000000000000000000000000004000000000000400000000000040000000000000000000000000000000000001000000000
0204082430011000020093390930001000000041500000000000000000000000000000000000000000000000000000000000000150000000000000000000000000000000000000020000000000000150000000000015000000000000000000000000000000000004150000000
0204082430011000020094490520001000000005000000000000000000000000000000000000000000000000000000000000000000000000000000000000000000000000000000000000000000000000000000000000000000000000000000000000000000000000000000000
0301020610001000000333390300001000000005000000000000000000000000000000000000000000000000000000000000000000000000000000000000000000000000000000000000000000000000000000000000000000000000000000000000000000000000000000000
0301020610001000000333390390001000000005000000000000000000000000000000000000000000000000000000000000000000000000000000000000000000000000000000000000000000000000000000000000000000000000000000000000000000000000000000000
0301020610001000000333390400001000000005000000000000000000000000000000000000000000000000000000000000000000000000000000000000000000000000000000000000000000000000000000000000000000000000000000000000000000000000000000000
0301041220001000010033390300001000000250000000000000000000000000000000000000000000000000000000000000000000000000000000000000000000000000000000000000000000000000000000000000000000000000000000000000000000000000000000000
0301041220001000010033390390001000000250000000000000000000000000000000000000000000000000000000000000001000000000000000000000000000000000000000000000000000000000000000000000000000000000000000000000000000000025000000000
0301041220001000020033190110001000000350000000000000000000000000000000000000000000000000000000000000000000000000000000000000000000000000000001103408000000110340800000011034080000000000000000000000000000000070000000000
0301041220001000020033190160001000000005000000000000000000000000000000000000000000000000000000000000000000000000000000000000000000000000000000000000000000000000000000000000000000000000000000000000000000000000000000000
0301041220001000020033190940001000000005000000000000000000000000000000000000000000000000000000000000000000000000000000000000000000000000000000000000000000000000000000000000000000000000000000000000000000000000000000000
0301041220001000020033191130001000000050000000000000000000000000000000000000000000000000000000000000000000000000000000000000000000000000000000150947000000015094700000001136330000000000000000000000000000000010000000000
0301041220001000020033390300001000000100000000000000000000000000000000000000000000000000000000000000000110000000000000000000000000000000000000534720000000037448000000003140300000000000000000000000000000000010000000000
0301041220001000020033390360001000000005000000000000000000000000000000000000000000000000000000000000000000000000000000000000000000000000000000000000000000000000000000000000000000000000000000000000000000000000000000000
0301041220001000020033390390001000000666000000000000000000000000000000000000000000000000000000000000000704000000000000000000000000000000000005392000000000157673100000015767310000000000000000000000000000000066600000000
0301041220001000020034490520001000000005000000000000000000000000110000000000000000000000000000000000000000000000000000000000000000000000000000155500000000015550000000001555000000000000000000000000000000000000500000000
0301041220001000020103190040001000000000000000000000000000000000000000000000300000000000000000000000000000000000000000000000000000000000000001445880000000144588000000013622340000000000000000000000000000000000000000000
0301041220001000020103190110001000003000000000000000000000000000000000000000000000000000000000000000003000000000000000000000000000000000000012135747000001213574700000121357470000000000000000000000000000000600000000000
0301041220001000020103190130001000000150000000000000000000000000000000000000000000000000000000000000000000000000000000000000000000000000000000464202000000046420200000003552390000000000000000000000000000000030000000000
0301041220001000020103190160001000000005000000000000000000000000000000000000000000000000000000000000000000000000000000000000000000000000000000000000000000000000000000000000000000000000000000000000000000000000000000000
0301041220001000020103190940001000000005000000000000000000000000000000000000000000000000000000000000000000000000000000000000000000000000000000000000000000000000000000000000000000000000000000000000000000000000000000000
0301041220001000020103191130001000000400000000000000000000000000000000000000000000000000000000000000000000000000000000000000000000000000000001431400000000143140000000010564670000000000000000000000000000000080000000000
0301041220001000020103390140001000000020000000000000000000000000100000000000000000000000000000000000000000000000000000000000000000000000000000228396000000022839600000002283960000000000000000000000000000000002000000000
0301041220001000020103390300001000000050000000000000000000000000000000000000000000000000000000000000000000000000000000000000000000000000000000151990000000012399000000001239900000000000000000000000000000000005000000000
0301041220001000020103390360001000000040000000000000000000000000000000000000000000000000000000000000000000000000000000000000000000000000000000300000000000012494000000001249400000000000000000000000000000000004000000000
0301041220001000020103390390001000000300000000000000000000000000000000000000000000000000000000000000000100000000000000000000000000000000000002127147000000084769200000008476920000000000000000000000000000000030000000000
0301041220001000020103390400001000000100000000000000000000000001280000000000000000000000000000000000000000000000000000000000000000000000000002161556000000051584800000005158480000000000000000000000000000000010000000000
0301041220001000020103390930001000000005000000000000000000000000000000000000000000000000000000000000000000000000000000000000000000000000000000002000000000000200000000000020000000000000000000000000000000000000500000000
0301041220001000020104490520001000000005000000000000000000000000000000000000000000000000000000000000000000000000000000000000000000000000000000044600000000000000000000000000000000000000000000000000000000000000500000000
0301041260001000011364490400001000000080000000000000000000000000000000000000000000000000000000000000000000000000000000000000000000000000000000000000000000000000000000000000000000000000000000000000000000000000000000000
0301041260001000011394490300001000000010000000000000000000000000000000000000000000000000000000000000000000000000000000000000000000000000000000000000000000000000000000000000000000000000000000000000000000000000000000000
0301041260001000011394490390001000000010000000000000000000000000000000000000000000000000000000000000000000000000000000000000000000000000000000000000000000000000000000000000000000000000000000000000000000000000000000000
0301041260001000011394490400001000000020000000000000000000000000000000000000000000000000000000000000000000000000000000000000000000000000000000000000000000000000000000000000000000000000000000000000000000000000000000000
0301041260001000011394490520001000000080000000000000000000000000000000000000000000000000000000000000000000000000000000000000000000000000000000000000000000000000000000000000000000000000000000000000000000000000000000000
0301041260001000020113190110001000001000000000000000000000000000000000000000000000000000000000000000003860000000000000000000000000000000000000000000000000000000000000000000000000000000000000000000000000000100000000000
0301041260001000020113190160001000000005000000000000000000000000000000000000000000000000000000000000000000000000000000000000000000000000000000000000000000000000000000000000000000000000000000000000000000000000000000000
0301041260001000020113190940001000000005000000000000000000000000000000000000000000000000000000000000000000000000000000000000000000000000000000000000000000000000000000000000000000000000000000000000000000000000000000000
0301041260001000020113191130001000000100000000000000000000000000000000000000000000000000000000000000000000000000000000000000000000000000000000000000000000000000000000000000000000000000000000000000000000000000000000000
0301041260001000020113390140001000000010000000000000000000000000000000000000000000000000000000000000000000000000000000000000000000000000000000000000000000000000000000000000000000000000000000000000000000000000000000000
0301041260001000020113390300001000000050000000000000000000000000000000000000000000000000000000000000000000000000000000000000000000000000000000333500000000023450000000002345000000000000000000000000000000000010000000000
0301041260001000020113390350001000000150000000000000000000000000000000000000000000000000000000000000000000000000000000000000000000000000000001138797000000027682500000002768250000000000000000000000000000000015000000000
0301041260001000020113390360001000000010000000000000000000000000000000000000000000000000000000000000000000000000000000000000000000000000000000000000000000000000000000000000000000000000000000000000000000000000000000000
0301041260001000020113390390001000000030000000000000000000000000000000000000000000000000000000000000000000000000000000000000000000000000000000000000000000000000000000000000000000000000000000000000000000000000000000000
0301041260001000020113390400001000000300000000000000000000000000700000000000000000000000000000000000002600000000000000000000000000000000000000717036000000040325600000004032560000000000000000000000000000000060000000000
0301041260001000020113390930001000000010000000000000000000000000000000000000000000000000000000000000000000000000000000000000000000000000000000000000000000000000000000000000000000000000000000000000000000000000000000000
0301041260001000020114490400001000000120000000000000000000000000000000000000000000000000000000000000000700000000000000000000000000000000000000000000000000000000000000000000000000000000000000000000000000000012000000000
0301041260001000020114490520001000000170000000000000000000000000000000000000000000000000000000000000000000000000000000000000000000000000000000000000000000000000000000000000000000000000000000000000000000000000000000000
0301041310001000020123390300001000000010000000000000000000000000000000000000000000000000000000000000000000000000000000000000000000000000000000000000000000000000000000000000000000000000000000000000000000000000000000000
0301041310001000020123390360001000000005000000000000000000000000000000000000000000000000000000000000000000000000000000000000000000000000000000000000000000000000000000000000000000000000000000000000000000000000000000000
0301041310001000020123390390001000000290000000000000000000000000000000000000000000000000000000000000000000000000000000000000000000000000000002898800000000091527000000009152700000000000000000000000000000000029000000000
0301041310001000020123390400001000000116000000000000000000000001354000000000000000000000000000000000000400000000000000000000000000000000000002079348000000042355800000004235580000000000000000000000000000000023200000000
0301041310001000020124490520001000000015000000000000000000000000000000000000000000000000000000000000000000000000000000000000000000000000000000000000000000000000000000000000000000000000000000000000000000000000000000000
0301041310001000021173390300001000000010000000000000000000000000000000000000000000000000000000000000000000000000000000000000000000000000000000000000000000000000000000000000000000000000000000000000000000000000000000000
0301041310001000021173390390001000000300000000000000000000000000000000000000000000000000000000000000000650000000000000000000000000000000000000770000000000012000000000001200000000000000000000000000000000000060000000000
0301041310001000021173390400001000000120000000000000000000000000000000000000000000000000000000000000000000000000000000000000000000000000000000000000000000000000000000000000000000000000000000000000000000000000000000000
0301041310001000021174490520001000000020000000000000000000000000000000000000000000000000000000000000000135000000000000000000000000000000000000000000000000000000000000000000000000000000000000000000000000000002000000000
0301042720020000000363190110001000000000000000000000000000000000000000000000010000000000000000000000000000000000000000000000000000000000000000000000000000000000000000000000000000000000000000000000000000000000000000000
0301042720020000000363390080001000000000000000000000000000000000000000000000010000000000000000000000000000000000000000000000000000000000000000000000000000000000000000000000000000000000000000000000000000000000000000000
0301043310001000000213390460001000000550000000000000000000000000000000000000000000000000000000000000000000000000000000000000000000000000000001715700000000171570000000012012000000000000000000000000000000000110000000000
0301047220001000021223390300001000000010000000000000000000000000000000000000000000000000000000000000000100000000000000000000000000000000000000000000000000000000000000000000000000000000000000000000000000000001000000000
0301047220001000021223390390001000000010000000000000000000000000000000000000000000000000000000000000000100000000000000000000000000000000000000000000000000000000000000000000000000000000000000000000000000000001000000000
0301047220001000021223390400001000000250000000000000000000000000435000000000000000000000000000000000000000000000000000000000000000000000000000000000000000000000000000000000000000000000000000000000000000000025000000000
0301047220001000021224490520001000000010000000000000000000000000000000000000000000000000000000000000000100000000000000000000000000000000000000000000000000000000000000000000000000000000000000000000000000000001000000000
0301051220001000020133190110001000000125000000000000000000000000000000000000000000000000000000000000000000000000000000000000000000000000000000374880000000037488000000003748800000000000000000000000000000000025000000000
0301051220001000020133191130001000000040150000000000000000000000000000000000000000000000000000000000000000000000000000000000000000000000000000000000000000000000000000000000000000000000000000000000000000000000000000000
0301051220001000020133390140001000000005000000000000000000000000000000000000000000000000000000000000000000000000000000000000000000000000000000000000000000000000000000000000000000000000000000000000000000000000000000000
0301051220001000020133390300001000000010000000000000000000000000000000000000000000000000000000000000000000000000000000000000000000000000000000000000000000000000000000000000000000000000000000000000000000000000000000000
0301051220001000020133390390001000000015000000000000000000000000000000000000000000000000000000000000000000000000000000000000000000000000000000000000000000000000000000000000000000000000000000000000000000000000000000000
0301051220001000020133390400001000000006250000000000000000000000000000000000000000000000000000000000000000000000000000000000000000000000000000000000000000000000000000000000000000000000000000000000000000000000000000000
0301051220001000020134490400001000000005000000000000000000000000000000000000000000000000000000000000000000000000000000000000000000000000000000000000000000000000000000000000000000000000000000000000000000000000000000000
0301051220001000020134490520001000000005000000000000000000000000000000000000000000000000000000000000000000000000000000000000000000000000000000000000000000000000000000000000000000000000000000000000000000000000000000000
0301144220011000011254490510001000000300000000000000000000000000000000000000000000000000000000000000002050000000000000000000000000000000000000000000000000000000000000000000000000000000000000000000000000000030000000000
0401041230001000020153190110001000005320000000000000000000000000000000000000000000000000000000000000000000000000000000000000000000000000000015544800000001554480000000155448000000000000000000000000000000001064000000000
0401041230001000020153190130001000000130000000000000000000000000000000000000000000000000000000000000000000000000000000000000000000000000000000368550000000036855000000002835000000000000000000000000000000000026000000000
0401041230001000020153190160001000000180000000000000000000000000000000000000000000000000000000000000000000000000000000000000000000000000000000341970000000034197000000003419700000000000000000000000000000000036000000000
0401041230001000020153190940001000000005000000000000000000000000000000000000000000000000000000000000000000000000000000000000000000000000000000000000000000000000000000000000000000000000000000000000000000000000000000000
0401041230001000020153191130001000000602000000000000000000000000000000000000000000000000000000000000000000000000000000000000000000000000000001908752000000190875200000014785360000000000000000000000000000000120400000000
0401041230001000020153390140001000000100000000000000000000000000000000000000000000000000000000000000000000000000000000000000000000000000000000505690000000050569000000005056900000000000000000000000000000000010000000000
0401041230001000020153390300001000000100000000000000000000000000000000000000000000000000000000000000000000000000000000000000000000000000000000054440000000000684000000000000000000000000000000000000000000000010000000000
0401041230001000020153390360001000000005000000000000000000000000000000000000000000000000000000000000000000000000000000000000000000000000000000000000000000000000000000000000000000000000000000000000000000000000000000000
0401041230001000020153390390001000000200000000000000000000000000000000000000000000000000000000000000000000000000000000000000000000000000000001016320000000049719700000004741970000000000000000000000000000000040000000000
0401041230001000020153390400001000000300000000000000000000000000705000000000000000000000000000000000000000000000000000000000000000000000000003579332000000072028000000007202800000000000000000000000000000000030000000000
0401041230001000020153390930001000000005000000000000000000000000000000000000000000000000000000000000000000000000000000000000000000000000000000000000000000000000000000000000000000000000000000000000000000000000000000000
0401041230001000020154490400001000000005000000000000000000000000000000000000000000000000000000000000000000000000000000000000000000000000000000000000000000000000000000000000000000000000000000000000000000000000000000000
0401041230001000020154490520001000000110000000000000000000000000000000000000000000000000000000000000000000000000000000000000000000000000000000041000000000004100000000000000000000000000000000000000000000000011000000000
0401041290001000020143390140001000000005000000000000000000000000000000000000000000000000000000000000000000000000000000000000000000000000000000000000000000000000000000000000000000000000000000000000000000000000000000000
0401041290001000020143390300001000000005000000000000000000000000000000000000000000000000000000000000000000000000000000000000000000000000000000000000000000000000000000000000000000000000000000000000000000000000000000000
0401041290001000020143390310001000000010000000000000000000000000000000000000000000000000000000000000000000000000000000000000000000000000000000080000000000008000000000000800000000000000000000000000000000000001000000000
0401041290001000020143390390001000000010000000000000000000000000000000000000000000000000000000000000000000000000000000000000000000000000000000000000000000000000000000000000000000000000000000000000000000000000000000000
0401041290001000021183190110001000002280000000000000000000000000000000000000000000000000000000000000000000000000000000000000000000000000000005015210000000501521000000050152100000000000000000000000000000000456000000000
0401041290001000021183190111112000000000000000000000000000000003000000000000000000000000000000000000000000000000000000000000000000000000000000697752000000069775200000006977520000000000000000000000000000000000000000000
0401041290001000021183190160001000000020000000000000000000000000000000000000000000000000000000000000000000000000000000000000000000000000000000005054000000000505400000000050540000000000000000000000000000000002000000000
0401041290001000021183190940001000000005000000000000000000000000000000000000000000000000000000000000000000000000000000000000000000000000000000000000000000000000000000000000000000000000000000000000000000000000000000000
0401041290001000021183191130001000000258000000000000000000000000000000000000000000000000000000000000000000000000000000000000000000000000000000826326000000082632600000006295070000000000000000000000000000000051600000000
0401041290001000021183390140001000000030000000000000000000000000000000000000000000000000000000000000000000000000000000000000000000000000000000167196000000016719600000001671960000000000000000000000000000000003000000000
0401041290001000021183390300001000000030000000000000000000000000000000000000000000000000000000000000000000000000000000000000000000000000000000185000000000012417000000001241700000000000000000000000000000000003000000000
0401041290001000021183390301112000000000000000000000000000000000600000000000000000000000000000000000000000000000000000000000000000000000000000269400000000005942200000000594220000000000000000000000000000000000000000000
0401041290001000021183390350001000000150000000000000000000000000000000000000000000000000000000000000000160000000000000000000000000000000000000833619000000020923500000002092350000000000000000000000000000000015000000000
0401041290001000021183390360001000000005000000000000000000000000000000000000000000000000000000000000000000000000000000000000000000000000000000000000000000000000000000000000000000000000000000000000000000000000000000000
0401041290001000021183390390001000000100000000000000000000000000000000000000000000000000000000000000000000000000000000000000000000000000000000479891000000030909100000003090910000000000000000000000000000000010000000000
0401041290001000021183390400001000000100000000000000000000000001940000000000000000000000000000000000000000000000000000000000000000000000000002773512000000046225200000004622520000000000000000000000000000000010000000000
0401041290001000021183390930001000000005000000000000000000000000150000000000000000000000000000000000000000000000000000000000000000000000000000000000000000000000000000000000000000000000000000000000000000000000500000000
0401041290001000021184490400001000000005000000000000000000000000000000000000000000000000000000000000000000000000000000000000000000000000000000000000000000000000000000000000000000000000000000000000000000000000000000000
0401041290001000021184490520001000000010000000000000000000000000000000000000000000000000000000000000000000000000000000000000000000000000000000000000000000000000000000000000000000000000000000000000000000000000000000000
0401042720020000000373190110001000000000000000000000000000000000000000000000010000000000000000000000000000000000000000000000000000000000000000000000000000000000000000000000000000000000000000000000000000000000000000000
0401042720020000000373390080001000000000000000000000000000000000000000000000010000000000000000000000000000000000000000000000000000000000000000000000000000000000000000000000000000000000000000000000000000000000000000000
0401043310001000000223390460001000000600000000000000000000000000000000000000000000000000000000000000000000000000000000000000000000000000000002005500000000200550000000015057000000000000000000000000000000000120000000000
0501041220001000020163190110001000005200000000000000000000000000000000000000000000000000000000000000000000000000000000000000000000000000000017620214000001762021400000176202140000000000000000000000000000001040000000000
0501041220001000020163190130001000000220000000000000000000000000000000000000000000000000000000000000000000000000000000000000000000000000000000916218000000091621800000006782450000000000000000000000000000000044000000000
0501041220001000020163190160001000000005000000000000000000000000000000000000000000000000000000000000000000000000000000000000000000000000000000032225000000003222500000000322250000000000000000000000000000000001000000000
0501041220001000020163190940001000000005000000000000000000000000000000000000000000000000000000000000000000000000000000000000000000000000000000000000000000000000000000000000000000000000000000000000000000000000000000000
0501041220001000020163191130001000000610000000000000000000000000000000000000000000000000000000000000000000000000000000000000000000000000000001944388000000194438800000015107640000000000000000000000000000000122000000000
0501041220001000020163390140001000000025000000000000000000000000000000000000000000000000000000000000000000000000000000000000000000000000000000069992000000006999200000000699920000000000000000000000000000000002500000000
0501041220001000020163390300001000000050000000000000000000000000000000000000000000000000000000000000000080000000000000000000000000000000000000344255000000029983400000002998340000000000000000000000000000000005000000000
0501041220001000020163390350001000000050000000000000000000000000000000000000000000000000000000000000000000000000000000000000000000000000000000144000000000014400000000001440000000000000000000000000000000000005000000000
0501041220001000020163390360001000000005000000000000000000000000000000000000000000000000000000000000000000000000000000000000000000000000000000000000000000000000000000000000000000000000000000000000000000000000000000000
0501041220001000020163390390001000000100000000000000000000000000000000000000000000000000000000000000000000000000000000000000000000000000000000457947000000035786700000003463670000000000000000000000000000000020000000000
0501041220001000020163390400001000000050000000000000000000000000630000000000000000000000000000000000000000000000000000000000000000000000000001038378000000024094600000002409460000000000000000000000000000000005000000000
0501041220001000020163390930001000000005000000000000000000000000000000000000000000000000000000000000000000000000000000000000000000000000000000000000000000000000000000000000000000000000000000000000000000000000500000000
0501041220001000020164490400001000000005000000000000000000000000000000000000000000000000000000000000000000000000000000000000000000000000000000000000000000000000000000000000000000000000000000000000000000000000000000000
0501041220001000020164490520001000000005000000000000000000000000080000000000000000000000000000000000000000000000000000000000000000000000000000128000000000012800000000001280000000000000000000000000000000000000500000000
0501042720020000000383190110001000000000000000000000000000000001200000000000010000000000000000000000000000000000000000000000000000000000000001109759000000110975900000011097590000000000000000000000000000000000000000000
0501042720020000000383390080001000000000000000000000000000000000000000000000010000000000000000000000000000000000000000000000000000000000000000053482000000005348200000000534820000000000000000000000000000000000000000000
0501043310001000000233390460001000000970000000000000000000000000000000000000000000000000000000000000000000000000000000000000000000000000000002646000000000264600000000018490500000000000000000000000000000000194000000000
0502121260002000011374490400020000000040000000000000000000000000000000000000000000000000000000000000000000000000000000000000000000000000000000000000000000000000000000000000000000000000000000000000000000000000000000000
0502121280002000020173390140020000000050000000000000000000000000000000000000000000000000000000000000000000000000000000000000000000000000000000000000000000000000000000000000000000000000000000000000000000000000000000000
0502121280002000020173390300020000000025000000000000000000000000000000000000000000000000000000000000000000000000000000000000000000000000000000000000000000000000000000000000000000000000000000000000000000000000000000000
0502121280002000020173390350020000000055000000000000000000000000000000000000000000000000000000000000000000000000000000000000000000000000000000000000000000000000000000000000000000000000000000000000000000000000000000000
0502121280002000020173390360020000000010000000000000000000000000000000000000000000000000000000000000000000000000000000000000000000000000000000000000000000000000000000000000000000000000000000000000000000000000000000000
0502121280002000020173390390020000000150000000000000000000000000000000000000000000000000000000000000000000000000000000000000000000000000000000100000000000010000000000001000000000000000000000000000000000000015000000000
0502121280002000020173390930020000000005000000000000000000000000000000000000000000000000000000000000000000000000000000000000000000000000000000000000000000000000000000000000000000000000000000000000000000000000000000000
0502122720020000000393190110001000000000000000000000000000000000000000000000010000000000000000000000000000000000000000000000000000000000000000000000000000000000000000000000000000000000000000000000000000000000000000000
0502122720020000000393190110020000000000000000000000000000000005000000000000100000000000000000000000000000000000000000000000000000000000000001527600000000152760000000015276000000000000000000000000000000000000000000000
0502122720020000000393190110031000000000000000000000000000000011000000000000100000000000000000000000000000000000000000000000000000000000000003804638000000380463800000038046380000000000000000000000000000000000000000000
0502122720020000000393390080001000000000000000000000000000000000000000000000010000000000000000000000000000000000000000000000000000000000000000014586000000001458600000000145860000000000000000000000000000000000000000000
0502122720020000000393390080020000000000000000000000000000000000000000000000100000000000000000000000000000000000000000000000000000000000000000029172000000002917200000000291720000000000000000000000000000000000000000000
0502122720020000000393390080031000000000000000000000000000000000000000000000100000000000000000000000000000000000000000000000000000000000000000000000000000000000000000000000000000000000000000000000000000000000000000000
0502123310002000000243390460020000003250000000000000000000000000000000000000000000000000000000000000000000000000000000000000000000000000000007809900000000780990000000051828000000000000000000000000000000000650000000000
0502123610002000010104490300020000000050000000000000000000000000000000000000000000000000000000000000000000000000000000000000000000000000000000000000000000000000000000000000000000000000000000000000000000000000000000000
0502123610002000010104490390020000000020000000000000000000000000000000000000000000000000000000000000000000000000000000000000000000000000000000000000000000000000000000000000000000000000000000000000000000000000000000000
0502123610002000010104490400020000000030000000000000000000000000000000000000000000000000000000000000000000000000000000000000000000000000000000000000000000000000000000000000000000000000000000000000000000000000000000000
0502123610002000010104490520020000000100000000000000000000000000000000000000000000000000000000000000000000000000000000000000000000000000000000000000000000000000000000000000000000000000000000000000000000000000000000000
0502123610002000010153390300020000000100000000000000000000000000000000000000000000000000000000000000000000000000000000000000000000000000000000000000000000000000000000000000000000000000000000000000000000000000000000000
0502123610002000010153390300031000000000000000000000000000000001500000000000000000000000000000000000000000000000000000000000000000000000000000000000000000000000000000000000000000000000000000000000000000000000000000000
0502123610002000010153390390020000000100000000000000000000000000000000000000000000000000000000000000000400000000000000000000000000000000000000000000000000000000000000000000000000000000000000000000000000000010000000000
0502123610002000010153390390031000000000000000000000000000000001500000000000000000000000000000000000000000000000000000000000000000000000000000000000000000000000000000000000000000000000000000000000000000000000000000000
0502123610002000011183390300020000000100000000000000000000000000000000000000000000000000000000000000001000000000000000000000000000000000000000000000000000000000000000000000000000000000000000000000000000000010000000000
0502123610002000011183390390020000000100000000000000000000000000000000000000000000000000000000000000001000000000000000000000000000000000000000000000000000000000000000000000000000000000000000000000000000000010000000000
0502123610002000011224490300020000000025000000000000000000000000000000000000000000000000000000000000000250000000000000000000000000000000000000000000000000000000000000000000000000000000000000000000000000000002500000000
0502123610002000011224490390020000000055000000000000000000000000000000000000000000000000000000000000000550000000000000000000000000000000000000000000000000000000000000000000000000000000000000000000000000000005500000000
0502123610002000011224490510020000000085000000000000000000000000000000000000000000000000000000000000000850000000000000000000000000000000000000000000000000000000000000000000000000000000000000000000000000000008500000000
0502123610002000011323390300020000000150000000000000000000000000000000000000000000000000000000000000001500000000000000000000000000000000000000000000000000000000000000000000000000000000000000000000000000000015000000000
0502123610002000011323390300031000000000000000000000000000000001800000000000000000000000000000000000000000000000000000000000000000000000000000000000000000000000000000000000000000000000000000000000000000000000000000000
0502123610002000011323390390020000000150000000000000000000000000000000000000000000000000000000000000001500000000000000000000000000000000000000000000000000000000000000000000000000000000000000000000000000000015000000000
0502123610002000011323390390031000000000000000000000000000000002200000000000000000000000000000000000000000000000000000000000000000000000000000000000000000000000000000000000000000000000000000000000000000000000000000000
0502123610002000011354490300020000000100000000000000000000000000000000000000000000000000000000000000000120000000000000000000000000000000000000000000000000000000000000000000000000000000000000000000000000000010000000000
0502123610002000011354490390020000000100000000000000000000000000000000000000000000000000000000000000000400000000000000000000000000000000000000000000000000000000000000000000000000000000000000000000000000000010000000000
0502123610002000011354490510020000000100000000000000000000000000000000000000000000000000000000000000000000000000000000000000000000000000000000000000000000000000000000000000000000000000000000000000000000000000000000000
0502123610002000020193190110020000001500000000000000000000000000000000000000000000000000000000000000000000000000000000000000000000000000000005512622000000551262200000055126220000000000000000000000000000000300000000000
0502123610002000020193190130020000000064010000000000000000000000000000000000000000000000000000000000000000000000000000000000000000000000000000202593000000020259300000001547680000000000000000000000000000000012802000000
0502123610002000020193190160020000000005000000000000000000000000000000000000000000000000000000000000000000000000000000000000000000000000000000012838000000001283800000000128380000000000000000000000000000000001000000000
0502123610002000020193190940020000000005000000000000000000000000000000000000000000000000000000000000000000000000000000000000000000000000000000000000000000000000000000000000000000000000000000000000000000000000000000000
0502123610002000020193191130020000000171200000000000000000000000000000000000000000000000000000000000000000000000000000000000000000000000000000637733000000063773300000004735090000000000000000000000000000000034240000000
0502123610002000020193390300020000000362250000000000000000000001590000000000000000000000000000000000001150000000000000000000000000000000000004031834000000342200900000033595490000000000000000000000000000000036225000000
0502123610002000020193390300031000000000000000000000000000000003000000000000000000000000000000000000000000000000000000000000000000000000000000065600000000000000000000000000000000000000000000000000000000000000000000000
0502123610002000020193390360020000000005000000000000000000000000000000000000000000000000000000000000000000000000000000000000000000000000000000000000000000000000000000000000000000000000000000000000000000000000000000000
0502123610002000020193390390020000000700000000000000000000000002900000000000000000000000000000000000002288000000000000000000000000000000000005260517000000129634000000012963400000000000000000000000000000000070000000000
0502123610002000020193390400020000000090000000000000000000000000000000000000000000000000000000000000000000000000000000000000000000000000000000848898000000005769700000000576970000000000000000000000000000000009000000000
0502123610002000020193393390020000000000000000000000000000000002288000000000000000000000000000000000000000000000000000000000000000000000000002288000000000030800000000003080000000000000000000000000000000000000000000000
0502123610002000020194490400020000000005000000000000000000000000000000000000000000000000000000000000000000000000000000000000000000000000000000000000000000000000000000000000000000000000000000000000000000000000000000000
0502123610002000020194490520020000000100000000000000000000000001150000000000000000000000000000000000000790000000000000000000000000000000000001320000000000000000000000000000000000000000000000000000000000000010000000000
0502123610002000020203190110001000000720000000000000000000000000000000000000000000000000000000000000000000000000000000000000000000000000000002476775000000247677500000024767750000000000000000000000000000000144000000000
0502123610002000020203190160001000000005000000000000000000000000000000000000000000000000000000000000000000000000000000000000000000000000000000001828000000000182800000000018280000000000000000000000000000000000500000000
0502123610002000020203190940001000000005000000000000000000000000000000000000000000000000000000000000000000000000000000000000000000000000000000000000000000000000000000000000000000000000000000000000000000000000000000000
0502123610002000020203191130001000000100000000000000000000000000000000000000000000000000000000000000000000000000000000000000000000000000000000338823000000033882300000002601460000000000000000000000000000000020000000000
0502123610002000020203390300001000001070000000000000000000000000000000000000000000000000000000000000000000000000000000000000000000000000000009379283000000045289400000004528940000000000000000000000000000000107000000000
0502123610002000020203390301001000000249120000000000000000000000000000000000000000000000000000000000000000000000000000000000000000000000000002346931000000075443100000007544310000000000000000000000000000000024912000000
0502123610002000020203390301059000000000000000000000000000000000172800000000000000000000000000000000000000000000000000000000000000000000000000000000000000000000000000000000000000000000000000000000000000000000000000000
0502123610002000020203390301071000000016960000000000000000000000000000000000000000000000000000000000000000000000000000000000000000000000000000150350000000003498000000000349800000000000000000000000000000000001696000000
0502123610002000020203390360001000000005000000000000000000000000000000000000000000000000000000000000000000000000000000000000000000000000000000000000000000000000000000000000000000000000000000000000000000000000000000000
0502123610002000020203390390001000000010000000000000000000000000000000000000000000000000000000000000000000000000000000000000000000000000000000000000000000000000000000000000000000000000000000000000000000000000000000000
0502123610002000020204490520001000000015000000000000000000000000000000000000000000000000000000000000000000000000000000000000000000000000000000000000000000000000000000000000000000000000000000000000000000000000000000000
0502123610002000021193190040031000000000000000000000000000000000000000000000380000000000000000000000000000000000000000000000000000000000000000000000000000000000000000000000000000000000000000000000000000000000000000000
0502123610002000021193190110031000017025540000000000000000000000000000000000000000000000000000000000003800000000000000000000000000000000000049629834000004962983400000496298340000000000000000000000000000003405108000000
0502123610002000021193190130020000000079060000000000000000000000000000000000000000000000000000000000000000000000000000000000000000000000000000288045000000028804500000002240580000000000000000000000000000000015812000000
0502123610002000021193190160031000000005000000000000000000000000200000000000000000000000000000000000000000000000000000000000000000000000000000188437000000018843700000001884370000000000000000000000000000000001000000000
0502123610002000021193190940031000000005000000000000000000000000000000000000000000000000000000000000000000000000000000000000000000000000000000000000000000000000000000000000000000000000000000000000000000000000000000000
0502123610002000021193191130020000001787259400000000000000000000000000000000000000000000000000000000000000000000000000000000000000000000000006798529000000679852900000052183430000000000000000000000000000000357451880000
0502123650002000010614490510020000000450000000000000000000000000000000000000000000000000000000000000004500000000000000000000000000000000000000000000000000000000000000000000000000000000000000000000000000000090000000000
0502123650002000011214490300020000000050000000000000000000000000000000000000000000000000000000000000000500000000000000000000000000000000000000000000000000000000000000000000000000000000000000000000000000000005000000000
0502123650002000011214490390020000000050000000000000000000000000000000000000000000000000000000000000000500000000000000000000000000000000000000000000000000000000000000000000000000000000000000000000000000000005000000000
0502123650002000011214490510020000000020000000000000000000000000000000000000000000000000000000000000000200000000000000000000000000000000000000000000000000000000000000000000000000000000000000000000000000000002000000000
0502123650002000011333390300020000000150000000000000000000000000000000000000000000000000000000000000001500000000000000000000000000000000000000000000000000000000000000000000000000000000000000000000000000000015000000000
0502123650002000011333390390020000000150000000000000000000000000000000000000000000000000000000000000001097705000000000000000000000000000000000000000000000000000000000000000000000000000000000000000000000000015000000000
0502123650002000011434490510020000000000000000000000000000000000000000000000579770500000000000000000000000000000000000000000000000000000000000000000000000000000000000000000000000000000000000000000000000000000000000000
0502123650002000020213190110001000000700000000000000000000000000000000000000000000000000000000000000000000000000000000000000000000000000000002399965000000239996500000023999650000000000000000000000000000000140000000000
0502123650002000020213190160001000000005000000000000000000000000000000000000000000000000000000000000000000000000000000000000000000000000000000005729000000000572900000000057290000000000000000000000000000000000500000000
0502123650002000020213190940001000000005000000000000000000000000000000000000000000000000000000000000000000000000000000000000000000000000000000000000000000000000000000000000000000000000000000000000000000000000000000000
0502123650002000020213191130001000000100000000000000000000000000000000000000000000000000000000000000000000000000000000000000000000000000000000328314000000032831400000002508040000000000000000000000000000000020000000000
0502123650002000020213390300001000000800000000000000000000000000250000000000000000000000000000000000000000000000000000000000000000000000000007747223000000003189000000000318900000000000000000000000000000000080000000000
0502123650002000020213390301031000000201160000000000000000000000000000000000000000000000000000000000000000000000000000000000000000000000000002007107000000067447200000006744720000000000000000000000000000000020116000000
0502123650002000020213390301033000000118720000000000000000000000000000000000000000000000000000000000000000000000000000000000000000000000000001183611000000043613600000004361360000000000000000000000000000000011872000000
0502123650002000020213390360001000000005000000000000000000000000000000000000000000000000000000000000000000000000000000000000000000000000000000000000000000000000000000000000000000000000000000000000000000000000000000000
0502123650002000020213390390001000000010000000000000000000000000000000000000000000000000000000000000000000000000000000000000000000000000000000000000000000000000000000000000000000000000000000000000000000000000000000000
0502123650002000020214490520001000000005000000000000000000000000000000000000000000000000000000000000000000000000000000000000000000000000000000000000000000000000000000000000000000000000000000000000000000000000000000000
0502123650002000020233190040031000000000000000000000000000000000000000000000400000000000000000000000000000000000000000000000000000000000000000000000000000000000000000000000000000000000000000000000000000000000000000000
0502123650002000020233190110020000004670000000000000000000000000000000000000000000000000000000000000000000000000000000000000000000000000000014748007000001474800700000147480070000000000000000000000000000000934000000000
0502123650002000020233190160020000000130000000000000000000000000000000000000000000000000000000000000000000000000000000000000000000000000000000170824000000017082400000001708240000000000000000000000000000000026000000000
0502123650002000020233190940020000000005000000000000000000000000000000000000000000000000000000000000000000000000000000000000000000000000000000000000000000000000000000000000000000000000000000000000000000000000000000000
0502123650002000020233191130020000000610000000000000000000000000000000000000000000000000000000000000000000000000000000000000000000000000000002017762000000201776200000015320170000000000000000000000000000000122000000000
0502123650002000020233390300020000000400000000000000000000000001700000000000000000000000000000000000000000000000000000000000000000000000000003088174000000183293700000017491770000000000000000000000000000000040000000000
0502123650002000020233390300031000000000000000000000000000000002000000000000000000000000000000000000000000000000000000000000000000000000000000158500000000002800000000000280000000000000000000000000000000000000000000000
0502123650002000020233390360020000000005000000000000000000000000000000000000000000000000000000000000000000000000000000000000000000000000000000000000000000000000000000000000000000000000000000000000000000000000000000000
0502123650002000020233390390020000000400000000000000000000000000000000000000000000000000000000000000000100000000000000000000000000000000000003064134000000080213100000008021310000000000000000000000000000000040000000000
0502123650002000020233390400020000000030000000000000000000000000000000000000000000000000000000000000000000000000000000000000000000000000000000135930000000007635900000000763590000000000000000000000000000000003000000000
0502123650002000020234490400020000000005000000000000000000000000000000000000000000000000000000000000000000000000000000000000000000000000000000000000000000000000000000000000000000000000000000000000000000000000000000000
0502123650002000020234490520020000000050000000000000000000000000300000000000000000000000000000000000000000000000000000000000000000000000000000780000000000000000000000000000000000000000000000000000000000000005000000000
0502123650002000020234490521011000000000000000000000000000000001110000000000000000000000000000000000000000000000000000000000000000000000000000093000000000000000000000000000000000000000000000000000000000000000000000000
0502123650002000021203190040031000000750000000000000000000000000000000000000000000000000000000000000004000000000000000000000000000000000000000000000000000000000000000000000000000000000000000000000000000000075000000000
0502123650002000021203190110031000009767293600000000000000000000000000000000000000000000000000000000000000000000000000000000000000000000000025217860000002521786000000252178600000000000000000000000000000001953458720000
0502123650002000021203190160031000000005000000000000000000000000200000000000000000000000000000000000000000000000000000000000000000000000000000196692000000019669200000001966920000000000000000000000000000000001000000000
0502123650002000021203190940031000000005000000000000000000000000000000000000000000000000000000000000000000000000000000000000000000000000000000000000000000000000000000000000000000000000000000000000000000000000000000000
0502123650002000021203191130020000001120000000000000000000000000000000000000000000000000000000000000000000000000000000000000000000000000000003618561000000361856100000027178300000000000000000000000000000000224000000000
0502123670002000020243350430020000001638000000000000000000000000000000000000000000000000000000000000000000000000000000000000000000000000000016380000000000546000000000054600000000000000000000000000000000000163800000000
0502127820002000010274490520031000000000000000000000000000000027580000000000000000000000000000000000000000000000000000000000000000000000000027580000000002758000000000275800000000000000000000000000000000000000000000000
0502127820002000010274490521008000001000000000000000000000000005644273000000000000000000000000000000000000000000000000000000000000000000000000000000000000000000000000000000000000000000000000000000000000000100000000000
0502127820002000011344490300020000000100000000000000000000000000000000000000000000000000000000000000000000000000000000000000000000000000000000000000000000000000000000000000000000000000000000000000000000000000000000000
0502127820002000011344490390020000000100000000000000000000000000000000000000000000000000000000000000000000000000000000000000000000000000000000000000000000000000000000000000000000000000000000000000000000000000000000000
0502127820002000011344490510020000000100000000000000000000000000000000000000000000000000000000000000000000000000000000000000000000000000000000000000000000000000000000000000000000000000000000000000000000000000000000000
0502127820002000020313190110020000002460000000000000000000000000000000000000000000000000000000000000000000000000000000000000000000000000000009366071000000936607100000093660710000000000000000000000000000000492000000000
0502127820002000020313190160020000000180000000000000000000000000000000000000000000000000000000000000000000000000000000000000000000000000000000621522000000062152200000006215220000000000000000000000000000000036000000000
0502127820002000020313190940020000000005000000000000000000000000000000000000000000000000000000000000000000000000000000000000000000000000000000000000000000000000000000000000000000000000000000000000000000000000000000000
0502127820002000020313191130020000000400000000000000000000000000000000000000000000000000000000000000000000000000000000000000000000000000000001447504000000144750400000011113480000000000000000000000000000000080000000000
0502127820002000020313390300020000001300000000000000000000000000000000000000000000000000000000000000007800000000000000000000000000000000000004811270000000326692400000032669240000000000000000000000000000000260000000000
0502127820002000020313390300031000000000000000000000000000000005000000000000000000000000000000000000000000000000000000000000000000000000000000937600000000038860000000000000000000000000000000000000000000000000000000000
0502127820002000020313390301014000001500000000000000000000000000000000000000000000000000000000000000003000000000000000000000000000000000000005817797000000287055700000024902570000000000000000000000000000000300000000000
0502127820002000020313390301016000000474947200000000000000000000000000000000000000000000000000000000002000000000000000000000000000000000000000000000000000000000000000000000000000000000000000000000000000000047494720000
0502127820002000020313390301017000000684995000000000000000000000000000000000000000000000000000000000001750000000000000000000000000000000000002348733000000155478000000015547800000000000000000000000000000000068499500000
0502127820002000020313390360020000000005000000000000000000000000000000000000000000000000000000000000000000000000000000000000000000000000000000000000000000000000000000000000000000000000000000000000000000000000000000000
0502127820002000020313390390020000001000000000000000000000000004623000000000000000000000000000000000001000000000000000000000000000000000000010325888000000325536100000032233610000000000000000000000000000000200000000000
0502127820002000020313390390031000000000000000000000000000000005000000000000000000000000000000000000000000000000000000000000000000000000000000143000000000014300000000000000000000000000000000000000000000000000000000000
0502127820002000020313390391014000000785504000000000000000000003000000000000000000000000000000000000000000000000000000000000000000000000000009739571000000261875200000026187520000000000000000000000000000000157100800000
0502127820002000020313390391016000000000000000000000000000000002000000000000000000000000000000000000000000000000000000000000000000000000000001959900000000086519100000008651910000000000000000000000000000000000000000000
0502127820002000020313390391017000002500000000000000000000000002000000000000000000000000000000000000000000000000000000000000000000000000000022644133000000311226200000031122620000000000000000000000000000000250000000000
0502133920003000020273390300001000000100000000000000000000000000000000000000000000000000000000000000000000000000000000000000000000000000000000895000000000089500000000008950000000000000000000000000000000000010000000000
0502133920003000020273390390001000000100000000000000000000000000000000000000000000000000000000000000000000000000000000000000000000000000000000138000000000013800000000001380000000000000000000000000000000000010000000000
0503133920003000000303350410001000000120000000000000000000000000000000000000000000000000000000000000000000000000000000000000000000000000000001200000000000030000000000003000000000000000000000000000000000000012000000000
0503133920003000020253350410001000000200000000000000000000000000000000000000000000000000000000000000000000000000000000000000000000000000000000000000000000000000000000000000000000000000000000000000000000000000000000000
0503133920003000020253390300001000000005250000000000000000000000000000000000000000000000000000000000000000000000000000000000000000000000000000000000000000000000000000000000000000000000000000000000000000000000000000000
0503133920003000020253390310001000000010000000000000000000000000000000000000000000000000000000000000000000000000000000000000000000000000000000000000000000000000000000000000000000000000000000000000000000000000000000000
0503133920003000020253390320001000000015000000000000000000000000000000000000000000000000000000000000000000000000000000000000000000000000000000000000000000000000000000000000000000000000000000000000000000000000000000000
0503133920003000020263190040001000000460000000000000000000000000000000000000000000000000000000000000000000000000000000000000000000000000000001401543000000140154300000014015430000000000000000000000000000000046000000000
0503133920003000020263190110001000000420000000000000000000000000000000000000000000000000000000000000000000000000000000000000000000000000000000000000000000000000000000000000000000000000000000000000000000000000000000000
0503133920003000020263190160001000000005000000000000000000000000000000000000000000000000000000000000000000000000000000000000000000000000000000000000000000000000000000000000000000000000000000000000000000000000000000000
0503133920003000020263190940001000000005000000000000000000000000000000000000000000000000000000000000000000000000000000000000000000000000000000000000000000000000000000000000000000000000000000000000000000000000000000000
0503133920003000020263191130001000000140000000000000000000000000000000000000000000000000000000000000000000000000000000000000000000000000000000000000000000000000000000000000000000000000000000000000000000000000000000000
0503133920003000020263390300001000000020000000000000000000000000000000000000000000000000000000000000000000000000000000000000000000000000000000019500000000000000000000000000000000000000000000000000000000000002000000000
0503133920003000020263390360001000000005000000000000000000000000000000000000000000000000000000000000000000000000000000000000000000000000000000000000000000000000000000000000000000000000000000000000000000000000000000000
0503133920003000020263390390001000000040000000000000000000000000000000000000000000000000000000000000000000000000000000000000000000000000000000084000000000001008700000000100870000000000000000000000000000000004000000000
0503133920003000020263390400001000000005000000000000000000000000000000000000000000000000000000000000000000000000000000000000000000000000000000000000000000000000000000000000000000000000000000000000000000000000000000000
0503133920003000020264490400001000000005000000000000000000000000000000000000000000000000000000000000000000000000000000000000000000000000000000000000000000000000000000000000000000000000000000000000000000000000000000000
0503133920003000020264490520001000000005000000000000000000000000000000000000000000000000000000000000000000000000000000000000000000000000000000000000000000000000000000000000000000000000000000000000000000000000000000000
0503133920003000021143390300001000000010000000000000000000000000000000000000000000000000000000000000000000000000000000000000000000000000000000000000000000000000000000000000000000000000000000000000000000000000000000000
0503133920003000021143390320001000000160000000000000000000000000000000000000000000000000000000000000000000000000000000000000000000000000000000000000000000000000000000000000000000000000000000000000000000000000000000000
0504271810003000011174490300001000000060000000000000000000000000000000000000000000000000000000000000000000000000000000000000000000000000000000000000000000000000000000000000000000000000000000000000000000000000000000000
0504271810003000011174490390001000000060000000000000000000000000000000000000000000000000000000000000000000000000000000000000000000000000000000000000000000000000000000000000000000000000000000000000000000000000000000000
0504271810003000011174490400001000000005000000000000000000000000000000000000000000000000000000000000000000000000000000000000000000000000000000000000000000000000000000000000000000000000000000000000000000000000000000000
0504271810003000011174490520001000000080000000000000000000000000000000000000000000000000000000000000000000000000000000000000000000000000000000000000000000000000000000000000000000000000000000000000000000000000000000000
0504278120003000020293390300001000000050000000000000000000000000000000000000000000000000000000000000000388800000000000000000000000000000000000011200000000001120000000000112000000000000000000000000000000000005000000000
0504278120003000020293390390001000000050000000000000000000000001100000000000000000000000000000000000000000000000000000000000000000000000000001060000000000038145800000003814580000000000000000000000000000000005000000000
0504278120003000020303390300001000000025000000000000000000000000388800000000000000000000000000000000000000000000000000000000000000000000000000000000000000000000000000000000000000000000000000000000000000000002500000000
0504278120003000020303390310001000000100000000000000000000000000000000000000000000000000000000000000000000000000000000000000000000000000000000000000000000000000000000000000000000000000000000000000000000000000000000000
0504278120003000020303390390001000000200000000000000000000000000000000000000000000000000000000000000000000000000000000000000000000000000000000000000000000000000000000000000000000000000000000000000000000000000000000000
0601261220001000020323190110001000004600000000000000000000000000000000000000000000000000000000000000000000000000000000000000000000000000000013617502000001361750200000136175020000000000000000000000000000000920000000000
0601261220001000020323190130001000000220000000000000000000000000000000000000000000000000000000000000000000000000000000000000000000000000000000509884000000050988400000004322800000000000000000000000000000000044000000000
0601261220001000020323190160001000000800000000000000000000000000000000000000000000000000000000000000000000000000000000000000000000000000000001723014000000172301400000017230140000000000000000000000000000000160000000000
0601261220001000020323190940001000000005000000000000000000000000000000000000000000000000000000000000000000000000000000000000000000000000000000000000000000000000000000000000000000000000000000000000000000000000000000000
0601261220001000020323191130001000000530000000000000000000000000000000000000000000000000000000000000000000000000000000000000000000000000000001496265000000149626500000011326160000000000000000000000000000000106000000000
0601261220001000020323390140001000000005000000000000000000000000000000000000000000000000000000000000000000000000000000000000000000000000000000000000000000000000000000000000000000000000000000000000000000000000000000000
0601261220001000020323390300001000000080000000000000000000000000000000000000000000000000000000000000000000000000000000000000000000000000000000141106000000003260600000000326060000000000000000000000000000000008000000000
0601261220001000020323390360001000000005000000000000000000000000000000000000000000000000000000000000000010000000000000000000000000000000000000000000000000000000000000000000000000000000000000000000000000000000500000000
0601261220001000020323390390001000000150000000000000000000000000010000000000000000000000000000000000000000000000000000000000000000000000000001501282000000068263500000006711350000000000000000000000000000000015000000000
0601261220001000020323390400001000000100000000000000000000000000000000000000000000000000000000000000000169000000000000000000000000000000000000830772000000013846200000001384620000000000000000000000000000000010000000000
0601261220001000020324490400001000000005000000000000000000000000000000000000000000000000000000000000000000000000000000000000000000000000000000000000000000000000000000000000000000000000000000000000000000000000000000000
0601261220001000020324490520001000000005000000000000000000000000000000000000000000000000000000000000000000000000000000000000000000000000000000000000000000000000000000000000000000000000000000000000000000000000000000000
0601262720020000000403190110001000000000000000000000000000000000000000000000020000000000000000000000000000000000000000000000000000000000000000000000000000000000000000000000000000000000000000000000000000000000000000000
0601262720020000000403390080001000000000000000000000000000000000000000000000020000000000000000000000000000000000000000000000000000000000000000000000000000000000000000000000000000000000000000000000000000000000000000000
0601263310001000000253390460001000000770000000000000000000000000000000000000000000000000000000000000000000000000000000000000000000000000000002034900000000203490000000014973000000000000000000000000000000000154000000000
0602144220011000010313390300001000000100000000000000000000000000000000000000000000000000000000000000000000000000000000000000000000000000000000000000000000000000000000000000000000000000000000000000000000000000000000000
0602144220011000010313390390001000000040000000000000000000000000000000000000000000000000000000000000000000000000000000000000000000000000000000000000000000000000000000000000000000000000000000000000000000000000000000000
0602144220011000010314490300001000000050000000000000000000000000000000000000000000000000000000000000000000000000000000000000000000000000000000000000000000000000000000000000000000000000000000000000000000000000000000000
0602144220011000010314490390001000000050000000000000000000000000000000000000000000000000000000000000000000000000000000000000000000000000000000000000000000000000000000000000000000000000000000000000000000000000000000000
0602144220011000010314490510001000000050000000000000000000000000000000000000000000000000000000000000000000000000000000000000000000000000000000000000000000000000000000000000000000000000000000000000000000000000000000000
0602154510017000010593390390001000000040000000000000000000000000000000000000000000000000000000000000000400000000000000000000000000000000000000000000000000000000000000000000000000000000000000000000000000000004000000000
0602175120012000010324490300001000000025000000000000000000000000000000000000000000000000000000000000000000000000000000000000000000000000000000000000000000000000000000000000000000000000000000000000000000000000000000000
0602175120012000010324490390001000000025000000000000000000000000000000000000000000000000000000000000000000000000000000000000000000000000000000000000000000000000000000000000000000000000000000000000000000000000000000000
0602175120012000010324490510001000000050000000000000000000000000000000000000000000000000000000000000000000000000000000000000000000000000000000000000000000000000000000000000000000000000000000000000000000000000000000000
0602175120012000010334490300001000000150000000000000000000000000000000000000000000000000000000000000001000000000000000000000000000000000000000000000000000000000000000000000000000000000000000000000000000000015000000000
0602175120012000010334490390001000000100000000000000000000000000000000000000000000000000000000000000000700000000000000000000000000000000000000000000000000000000000000000000000000000000000000000000000000000010000000000
0602175120012000010334490510001000000100000000000000000000000000000000000000000000000000000000000000000700000000000000000000000000000000000000000000000000000000000000000000000000000000000000000000000000000010000000000
0602175120012000020333390390001000000010000000000000000000000000000000000000000000000000000000000000000000000000000000000000000000000000000000000000000000000000000000000000000000000000000000000000000000000000000000000
0602175120012000020334490520001000000010000000000000000000000000000000000000000000000000000000000000000000000000000000000000000000000000000000000000000000000000000000000000000000000000000000000000000000000000000000000
0602226620004000020343390300001000000010000000000000000000000000000000000000000000000000000000000000000000000000000000000000000000000000000000000000000000000000000000000000000000000000000000000000000000000000000000000
0602226620004000020343390390001000000050000000000000000000000000000000000000000000000000000000000000000000000000000000000000000000000000000000000000000000000000000000000000000000000000000000000000000000000000000000000
0602267820017000010344490520001000000000000000000000000000000029723440000000000000000000000000000000028219100000000000000000000000000000000001017135000000101713500000010171350000000000000000000000000000000000000000000
0602267820017000010344490521008000006216073800000000000000000000000000000000000000000000000000000000005644273000000000000000000000000000000028182204000002818220400000281822040000000000000000000000000000001243214760000
0602267820017000010344490521010000000000000000000000000000000008800661000000000000000000000000000000000000000000000000000000000000000000000008800661000000880066100000088006610000000000000000000000000000000000000000000
0602267820017000010354490510001000000300000000000000000000000000000000000000000000000000000000000000002336000000000000000000000000000000000000000000000000000000000000000000000000000000000000000000000000000030000000000
0602267820017000010364490510001000000200000000000000000000000000000000000000000000000000000000000000001000000000000000000000000000000000000000000000000000000000000000000000000000000000000000000000000000000020000000000
0602267820017000010783390300001000000250000000000000000000000014500000000000000000000000000000000000000013000000000000000000000000000000000016986945000001698694500000169869450000000000000000000000000000000025000000000
0602267820017000010783390390001000000250000000000000000000000016000000000000000000000000000000000000000097400000000000000000000000000000000018402523000001840252300000184025230000000000000000000000000000000025000000000
0602267820017000011154490510001000000300000000000000000000000000000000000000000000000000000000000000003000000000000000000000000000000000000000000000000000000000000000000000000000000000000000000000000000000030000000000
0602267820017000014044490510001000000188888800000000000000000000000000000000000000000000000000000000000000000000000000000000000000000000000000000000000000000000000000000000000000000000000000000000000000000000000000000
0602267820017000014054490510001000000188888800000000000000000000000000000000000000000000000000000000000000000000000000000000000000000000000000000000000000000000000000000000000000000000000000000000000000000000000000000
0602267820017000014064490510001000000188888800000000000000000000000000000000000000000000000000000000000000000000000000000000000000000000000000000000000000000000000000000000000000000000000000000000000000000000000000000
0602267820017000014074490510001000000188888800000000000000000000000000000000000000000000000000000000000000000000000000000000000000000000000000000000000000000000000000000000000000000000000000000000000000000000000000000
0602267820017000014084490510001000000188888800000000000000000000000000000000000000000000000000000000000000000000000000000000000000000000000000056000000000005600000000000560000000000000000000000000000000000018888880000
0602267820017000014204490510001000000170000000000000000000000000000000000000000000000000000000000000000000000000000000000000000000000000000000000000000000000000000000000000000000000000000000000000000000000000000000000
0603267820017000020363390300001000000300000000000000000000000000000000000000000000000000000000000000000000000000000000000000000000000000000000873490000000087349000000008734900000000000000000000000000000000030000000000
0603267820017000020363390390001000000050000000000000000000000000000000000000000000000000000000000000000000000000000000000000000000000000000000000000000000000000000000000000000000000000000000000000000000000000000000000
0603267820017000021113390300001000004000000000000000000000000000000000000000000000000000000000000000010000000000000000000000000000000000000020555735000001301717400000126922040000000000000000000000000000000800000000000
0603267820017000021113390301018000000000000000000000000000000000639888000000000000000000000000000000000000000000000000000000000000000000000000630096000000022988700000002298870000000000000000000000000000000000000000000
0603267820017000021113390360001000000005000000000000000000000000000000000000000000000000000000000000000000000000000000000000000000000000000000000000000000000000000000000000000000000000000000000000000000000000000000000
0603267820017000021113390390001000001000000000000000000000000003000000000000000000000000000000000000004119190000000000000000000000000000000007806232000000323963100000032076310000000000000000000000000000000200000000000
0604267820010000020353390300001000000250000000000000000000000000000000000000000000000000000000000000000000000000000000000000000000000000000001108960000000109573700000010957370000000000000000000000000000000025000000000
0604267820010000020353390390001000000100000000000000000000000000000000000000000000000000000000000000000000000000000000000000000000000000000000286076000000025127600000002512760000000000000000000000000000000010000000000
0701151220001000020383190110001000005630000000000000000000000000000000000000000000000000000000000000000000000000000000000000000000000000000019736696000001973669600000197366960000000000000000000000000000001126000000000
0701151220001000020383190130001000000230000000000000000000000000000000000000000000000000000000000000000000000000000000000000000000000000000000891793000000089179300000006307570000000000000000000000000000000046000000000
0701151220001000020383190160001000000180000000000000000000000000000000000000000000000000000000000000000000000000000000000000000000000000000000452093000000045209300000004520930000000000000000000000000000000036000000000
0701151220001000020383190940001000000005000000000000000000000000100000000000000000000000000000000000000000000000000000000000000000000000000000120228000000012022800000001202280000000000000000000000000000000001000000000
0701151220001000020383191130001000000710000000000000000000000000000000000000000000000000000000000000000000000000000000000000000000000000000002491372000000249137200000018829370000000000000000000000000000000142000000000
0701151220001000020383390140001000000010000000000000000000000000000000000000000000000000000000000000000000000000000000000000000000000000000000000000000000000000000000000000000000000000000000000000000000000000000000000
0701151220001000020383390300001000000100000000000000000000000000000000000000000000000000000000000000000000000000000000000000000000000000000000055000000000000000000000000000000000000000000000000000000000000010000000000
0701151220001000020383390360001000000005000000000000000000000000000000000000000000000000000000000000000000000000000000000000000000000000000000000000000000000000000000000000000000000000000000000000000000000000000000000
0701151220001000020383390390001000000070000000000000000000000000000000000000000000000000000000000000000000000000000000000000000000000000000000199289000000002940400000000294040000000000000000000000000000000007000000000
0701151220001000020383390400001000000010000000000000000000000000170000000000000000000000000000000000000000000000000000000000000000000000000000228048000000006650900000000665090000000000000000000000000000000001000000000
0701151220001000020383390930001000000005000000000000000000000000000000000000000000000000000000000000000000000000000000000000000000000000000000000000000000000000000000000000000000000000000000000000000000000000000000000
0701151220001000020384490400001000000005000000000000000000000000000000000000000000000000000000000000000000000000000000000000000000000000000000000000000000000000000000000000000000000000000000000000000000000000000000000
0701151220001000020384490520001000000005000000000000000000000000000000000000000000000000000000000000000000000000000000000000000000000000000000000000000000000000000000000000000000000000000000000000000000000000000000000
0701152720020000000413190110001000000000000000000000000000000002600000000000100000000000000000000000000000000000000000000000000000000000000002823910000000282391000000028239100000000000000000000000000000000000000000000
0701152720020000000413390080001000000000000000000000000000000000000000000000100000000000000000000000000000000000000000000000000000000000000000102102000000010210200000001021020000000000000000000000000000000000000000000
0701153310001000000263390460001000001140000000000000000000000000000000000000000000000000000000000000000000000000000000000000000000000000000003938340000000393834000000028386750000000000000000000000000000000228000000000
0702144220011000020393390300001000000015000000000000000000000000000000000000000000000000000000000000000000000000000000000000000000000000000000000000000000000000000000000000000000000000000000000000000000000000000000000
0702144220011000020393390390001000000050000000000000000000000000000000000000000000000000000000000000000000000000000000000000000000000000000000000000000000000000000000000000000000000000000000000000000000000000000000000
0702154510017000010414490300001000000050000000000000000000000000000000000000000000000000000000000000000000000000000000000000000000000000000000000000000000000000000000000000000000000000000000000000000000000000000000000
0702154510017000010414490390001000000050000000000000000000000000000000000000000000000000000000000000000000000000000000000000000000000000000000000000000000000000000000000000000000000000000000000000000000000000000000000
0702154510017000010414490510001000000100000000000000000000000000000000000000000000000000000000000000000000000000000000000000000000000000000000000000000000000000000000000000000000000000000000000000000000000000000000000
0702154510017000011413390300001000000000000000000000000000000000300000000000020000000000000000000000000000000000000000000000000000000000000000000000000000000000000000000000000000000000000000000000000000000000000000000
0702154510017000011413390390001000000000000000000000000000000000000000000000020000000000000000000000000200000000000000000000000000000000000000000000000000000000000000000000000000000000000000000000000000000000000000000
0702154510017000011414490520001000000000000000000000000000000000000000000000110000000000000000000000000100000000000000000000000000000000000000000000000000000000000000000000000000000000000000000000000000000000000000000
0702154510017000020403390300001000000250000000000000000000000000000000000000000000000000000000000000000000000000000000000000000000000000000001962659000000189946900000018994690000000000000000000000000000000050000000000
0702154510017000020403390390001000000390000000000000000000000000000000000000000000000000000000000000002800000000000000000000000000000000000000150400000000015040000000001504000000000000000000000000000000000039000000000
0702154510017000020413390300001000000100000000000000000000000000000000000000000000000000000000000000000000000000000000000000000000000000000000734750000000031735000000003173500000000000000000000000000000000010000000000
0702154510017000020413390390001000000050000000000000000000000000000000000000000000000000000000000000000000000000000000000000000000000000000000058000000000005800000000000580000000000000000000000000000000000005000000000
0702154520010000010443390300001000000250000000000000000000000000000000000000000000000000000000000000000000000000000000000000000000000000000000000000000000000000000000000000000000000000000000000000000000000000000000000
0702154520010000010443390390001000000200000000000000000000000000000000000000000000000000000000000000000000000000000000000000000000000000000000000000000000000000000000000000000000000000000000000000000000000000000000000
0702154520010000010444490520001000000050000000000000000000000000000000000000000000000000000000000000000000000000000000000000000000000000000000000000000000000000000000000000000000000000000000000000000000000000000000000
0702154520010000010574490300001000000110000000000000000000000000000000000000000000000000000000000000000000000000000000000000000000000000000000000000000000000000000000000000000000000000000000000000000000000000000000000
0702154520010000010574490390001000000040000000000000000000000000000000000000000000000000000000000000000000000000000000000000000000000000000000000000000000000000000000000000000000000000000000000000000000000000000000000
0702154520010000020423390300001000000050000000000000000000000000000000000000000000000000000000000000000000000000000000000000000000000000000000000000000000000000000000000000000000000000000000000000000000000000000000000
0702154520010000020423390390001000002500000000000000000000000000000000000000000000000000000000000000000000000000000000000000000000000000000020744880000000588857200000058885720000000000000000000000000000000250000000000
0702154520010000020423390920001000000000000000000000000000000000000000000000004594000000000000000000000000000000000000000000000000000000000000045940000000004594000000000459400000000000000000000000000000000000000000000
0702154520010000020424490520001000000005000000000000000000000000000000000000000000000000000000000000000045940000000000000000000000000000000000000000000000000000000000000000000000000000000000000000000000000000500000000
0702154520010000020433390300001000000800000000000000000000000000000000000000000000000000000000000000000800000000000000000000000000000000000003477594000000163402600000016340260000000000000000000000000000000160000000000
0702154520010000020433390390001000000500000000000000000000000000000000000000000000000000000000000000000000000000000000000000000000000000000001182720000000013712500000001371250000000000000000000000000000000050000000000
0702154520010000020434490520001000000020000000000000000000000000000000000000000000000000000000000000000000000000000000000000000000000000000000069900000000006990000000000000000000000000000000000000000000000002000000000
0702154520010000020443390300001000000100000000000000000000000000000000000000000000000000000000000000000718500000000000000000000000000000000000000000000000000000000000000000000000000000000000000000000000000010000000000
0702154520010000020443390390001000000100000000000000000000000000000000000000000000000000000000000000001000000000000000000000000000000000000000000000000000000000000000000000000000000000000000000000000000000010000000000
0702154520010000020444490520001000000005000000000000000000000000000000000000000000000000000000000000000000000000000000000000000000000000000000000000000000000000000000000000000000000000000000000000000000000000000000000
0702154520017000020453390300001000000700000000000000000000000000000000000000000000000000000000000000001000000000000000000000000000000000000000000000000000000000000000000000000000000000000000000000000000000070000000000
0702154520017000020453390390001000003000000000000000000000000000000000000000000000000000000000000000000000000000000000000000000000000000000026100000000000725414200000071908350000000000000000000000000000000300000000000
0702175120017000020463390300001000000050000000000000000000000000000000000000000000000000000000000000000000000000000000000000000000000000000000484400000000048440000000004844000000000000000000000000000000000005000000000
0702175120017000020463390390001000000050000000000000000000000000000000000000000000000000000000000000000000000000000000000000000000000000000000328000000000016300000000001630000000000000000000000000000000000010000000000
0702278130003000011263390300001000000150000000000000000000000000000000000000000000000000000000000000000000000000000000000000000000000000000000228671000000022867100000002286710000000000000000000000000000000015000000000
0702278130003000011263390390001000000100000000000000000000000000000000000000000000000000000000000000000000000000000000000000000000000000000000000000000000000000000000000000000000000000000000000000000000000000000000000
0703267820002000020473390300001000000005000000000000000000000000000000000000000000000000000000000000000000000000000000000000000000000000000000000000000000000000000000000000000000000000000000000000000000000000000000000
0703267820002000020473390301114000000001000000000000000000000000000000000000000000000000000000000000000000000000000000000000000000000000000000000000000000000000000000000000000000000000000000000000000000000000000000000
0703267820002000020473390310001000000005000000000000000000000000000000000000000000000000000000000000000000000000000000000000000000000000000000000000000000000000000000000000000000000000000000000000000000000000000000000
0703267820002000020473390390001000000005000000000000000000000000000000000000000000000000000000000000000000000000000000000000000000000000000000000000000000000000000000000000000000000000000000000000000000000000000000000
0703267820017000014104490510001000000188888800000000000000000000000000000000000000000000000000000000000000000000000000000000000000000000000000000000000000000000000000000000000000000000000000000000000000000000000000000
0703267820018000014093390300001000000188888800000000000000000000000000000000000000000000000000000000000000000000000000000000000000000000000000000000000000000000000000000000000000000000000000000000000000000000000000000
0703267820018000020483390300001000000150000000000000000000000000000000000000000000000000000000000000000000000000000000000000000000000000000000305100000000030510000000003051000000000000000000000000000000000015000000000
0703267820018000020483390390001000000100000000000000000000000000000000000000000000000000000000000000000000000000000000000000000000000000000000400000000000016000000000001600000000000000000000000000000000000010000000000
0801101220005000020493190110040000003130000000000000000000000000000000000000000000000000000000000000002300000000000000000000000000000000000010301259000001030125900000103012590000000000000000000000000000000626000000000
0801101220005000020493190130040000000420000000000000000000000000000000000000000000000000000000000000000000000000000000000000000000000000000001231868000000123186800000009327030000000000000000000000000000000084000000000
0801101220005000020493190160040000000005000000000000000000000000000000000000000000000000000000000000000000000000000000000000000000000000000000000000000000000000000000000000000000000000000000000000000000000000000000000
0801101220005000020493190940040000000005000000000000000000000000000000000000000000000000000000000000000000000000000000000000000000000000000000009489000000000948900000000094890000000000000000000000000000000000500000000
0801101220005000020493191130040000000190000000000000000000000000000000000000000000000000000000000000000000000000000000000000000000000000000000609037000000060903700000004418020000000000000000000000000000000038000000000
0801101220005000020493390140040000000010000000000000000000000000000000000000000000000000000000000000000000000000000000000000000000000000000000013242000000001324200000000132420000000000000000000000000000000001000000000
0801101220005000020493390300040000000100000000000000000000000000000000000000000000000000000000000000000000000000000000000000000000000000000000989781000000094121200000009412120000000000000000000000000000000020000000000
0801101220005000020493390360040000000005000000000000000000000000000000000000000000000000000000000000000000000000000000000000000000000000000000000000000000000000000000000000000000000000000000000000000000000000000000000
0801101220005000020493390390040000000100000000000000000000000000060000000000000000000000000000000000000155000000000000000000000000000000000000866872000000056749200000005559920000000000000000000000000000000020000000000
0801101220005000020493390400040000000040000000000000000000000000235000000000000000000000000000000000000000000000000000000000000000000000000000624284000000016233700000001623370000000000000000000000000000000004000000000
0801101220005000020493390930040000000010000000000000000000000000000000000000000000000000000000000000000000000000000000000000000000000000000000000000000000000000000000000000000000000000000000000000000000000000000000000
0801101220005000020494490400040000000005000000000000000000000000000000000000000000000000000000000000000000000000000000000000000000000000000000000000000000000000000000000000000000000000000000000000000000000000000000000
0801101220005000020494490520040000000010000000000000000000000000130000000000000000000000000000000000000000000000000000000000000000000000000000144400000000014440000000001444000000000000000000000000000000000001000000000
0801101260005000011384490400040000000020000000000000000000000000000000000000000000000000000000000000000200000000000000000000000000000000000000000000000000000000000000000000000000000000000000000000000000000002000000000
0801102720020000000423190110040000000000000000000000000000000005200000000000100000000000000000000000000000000000000000000000000000000000000005308484000000530848400000053084840000000000000000000000000000000000000000000
0801102720020000000423390080040000000000000000000000000000000000000000000000100000000000000000000000000000000000000000000000000000000000000000000000000000000000000000000000000000000000000000000000000000000000000000000
0801103010006000011294490510040000000470000000000000000000000000000000000000000000000000000000000000004700000000000000000000000000000000000000000000000000000000000000000000000000000000000000000000000000000047000000000
0801103010006000014143390390040000000188888800000000000000000000000000000000000000000000000000000000000000000000000000000000000000000000000000000000000000000000000000000000000000000000000000000000000000000000000000000
0801103010006000014173390300040000000094444400000000000000000000000000000000000000000000000000000000000916444000000000000000000000000000000000028000000000002800000000000280000000000000000000000000000000000018888880000
0801103010006000014173390390040000000094444400000000000000000000000000000000000000000000000000000000000936444000000000000000000000000000000000008000000000000800000000000080000000000000000000000000000000000018888880000
0801103010006000014183390390040000000188888800000000000000000000000000000000000000000000000000000000000000000000000000000000000000000000000001220000000000030000000000003000000000000000000000000000000000000037777760000
0801103010006000014194490520040000000188888800000000000000000000000000000000000000000000000000000000000000000000000000000000000000000000000000000000000000000000000000000000000000000000000000000000000000000000000000000
0801103010006000014213393390040000000207777800000000000000000002500000000000000000000000000000000000000000000000000000000000000000000000000004577778000000457777800000045777780000000000000000000000000000000020777780000
0801103010006000014223390390040000000000000000000000000000000000000000000000185288800000000000000000000000000000000000000000000000000000000000000000000000000000000000000000000000000000000000000000000000000000000000000
0801103010006000020513390300040000000010000000000000000000000000000000000000000000000000000000000000000000000000000000000000000000000000000000000000000000000000000000000000000000000000000000000000000000000000000000000
