87612826000190010120183112201801012019PREFEITURA MUNICIPAL INDEPENDENCIA                                              
020104122000100001002449030000100000010000000000000000000000000000000000000000000000000000000000000000099055000000000000000000000000000000000000000000000000000000000000000000000000000000000000000000000000000009450
020104122000100001002449039000100000010000000000000000000000000000000000000000000000000000000000000000100000000000000000000000000000000000000000000000000000000000000000000000000000000000000000000000000000000000000
020104122000100001002449051000100000020000000000000000000000000000000000000000000000000000000000000000199995900000000000000000000000000000000000000000000000000000000000000000000000000000000000000000000000000000041
020104122000100001002449052000100000020000000000000000000000000000000000000000000000000000000000000000200000000000000000000000000000000000000000000000000000000000000000000000000000000000000000000000000000000000000
020104122000100002003319011000100000013000000000000000000000000016000000000000000000000000000000000000000473900000000000000000000000000000000145526100000014552610000001455261000000000000000000000000000000001455261
020104122000100002003319016000100000000500000000000000000000000000000000000000000000000000000000000000005000000000000000000000000000000000000000000000000000000000000000000000000000000000000000000000000000000000000
020104122000100002003319094000100000000500000000000000000000000000000000000000000000000000000000000000005000000000000000000000000000000000000000000000000000000000000000000000000000000000000000000000000000000000000
020104122000100002003319113000100000003900000000000000000000000000000000000000000000000000000000000000015943400000000000000000000000000000000023056600000002305660000000230566000000000000000000000000000000000230566
020104122000100002003339030000100000010000000000000000000000000006257500000000000000000000000000000000010000000000000000000000000000000000000084426900000008442690000000844269000000000000000000000000000000000962575
020104122000100002003339036000100000000500000000000000000000000000000000000000000000000000000000000000000000000000000000000000000000000000000000000000000000000000000000000000000000000000000000000000000000000050000
020104122000100002003339039000100000020000000000000000000000000259900000000000000000000000000000000000000000000000000000000000000000000000000380355600000038035560000003803556000000000000000000000000000000004599000
020104122000100002003339046000100000001000000000000000000000000006000000000000000000000000000000000000000000000000000000000000000000000000000015683700000001568370000000156837000000000000000000000000000000000160000
020104122000100002003449052000100000002000000000000000000000000000000000000000000000000000000000000000019780000000000000000000000000000000000000000000000000000000000000000000000000000000000000000000000000000002200
020104122000100002004319011000100000319000000000000000000000000428619000000000000000000000000000000000396388300000000000000000000000000000003222230700000322223070000032222307000000000000000000000000000000032222307
020104122000100002004319013000100000063000000000000000000000000000000000000000000000000000000000000000035606700000000000000000000000000000000594393300000059439330000005943933000000000000000000000000000000005943933
020104122000100002004319016000100000000500000000000000000000000000000000000000000000000000000000000000005000000000000000000000000000000000000000000000000000000000000000000000000000000000000000000000000000000000000
020104122000100002004319094000100000000500000000000000000000000000000000000000000000000000000000000000005000000000000000000000000000000000000000000000000000000000000000000000000000000000000000000000000000000000000
020104122000100002004319113000100000001200000000000000000000000000000000000000000000000000000000000000006453500000000000000000000000000000000005546500000000554650000000055465000000000000000000000000000000000055465
020104122000100002004339014000100000005000000000000000000000000008000000000000000000000000000000000000000000000000000000000000000000000000000056481300000005648130000000564813000000000000000000000000000000000580000
020104122000100002004339030000100000007000000000000000000000000013330000000000000000000000000000000000010000000000000000000000000000000000000070926100000007092610000000709261000000000000000000000000000000000733300
020104122000100002004339033000100000005000000000000000000000000000000000000000000000000000000000000000000000000000000000000000000000000000000032750000000003275000000000327500000000000000000000000000000000000500000
020104122000100002004339036000100000001000000000000000000000000000000000000000000000000000000000000000005000000000000000000000000000000000000000000000000000000000000000000000000000000000000000000000000000000050000
020104122000100002004339039000100000006000000000000000000000000040000000000000000000000000000000000000003300000000000000000000000000000000000094157200000009415720000000941572000000000000000000000000000000000967000
020104122000100002004339046000100000003000000000000000000000000000000000000000000000000000000000000000022125000000000000000000000000000000000007875000000000787500000000078750000000000000000000000000000000000078750
020104122000100002004339093000100000000500000000000000000000000017000000000000000000000000000000000000000000000000000000000000000000000000000018517500000001851750000000185175000000000000000000000000000000000220000
020104122000100002004449052000100000002000000000000000000000000000000000000000000000000000000000000000011000000000000000000000000000000000000000000000000000000000000000000000000000000000000000000000000000000090000
020304122000100002005339035000100000010000000000000000000000000000000000000000000000000000000000000000100000000000000000000000000000000000000000000000000000000000000000000000000000000000000000000000000000000000000
020304122000100002005339039000100000035000000000000000000000000200000000000000000000000000000000000000000000000000000000000000000000000000000533518800000053351880000005335188000000000000000000000000000000005500000
020304122000100002006319011000100000096000000000000000000000000221888300000000000000000000000000000000035561600000000000000000000000000000001146326700000114632670000011463267000000000000000000000000000000011463267
020304122000100002006319013000100000019000000000000000000000000056206600000000000000000000000000000000005478400000000000000000000000000000000240728200000024072820000002407282000000000000000000000000000000002407282
020304122000100002006319094000100000000500000000000000000000000000000000000000000000000000000000000000005000000000000000000000000000000000000000000000000000000000000000000000000000000000000000000000000000000000000
020304122000100002006339014000100000002400000000000000000000000000000000000000000000000000000000000000000000000000000000000000000000000000000000000000000000000000000000000000000000000000000000000000000000000240000
020304122000100002006339030000100000001000000000000000000000000000000000000000000000000000000000000000000000000000000000000000000000000000000000000000000000000000000000000000000000000000000000000000000000000100000
020304122000100002006339033000100000002400000000000000000000000000000000000000000000000000000000000000000000000000000000000000000000000000000000000000000000000000000000000000000000000000000000000000000000000240000
020304122000100002006339035000100000050000000000000000000000000067000000000000000000000000000000000000250000000000000000000000000000000000000314394700000031439470000003143947000000000000000000000000000000003170000
020304122000100002006339036000100000000500000000000000000000000000000000000000000000000000000000000000000000000000000000000000000000000000000000000000000000000000000000000000000000000000000000000000000000000050000
020304122000100002006339039000100000020000000000000000000000000000000000000000000000000000000000000000150000000000000000000000000000000000000025007400000002500740000000250074000000000000000000000000000000000500000
020304122000100002006339046000100000006000000000000000000000000030298000000000000000000000000000000000001720000000000000000000000000000000000088578000000008857800000000885780000000000000000000000000000000000885780
020304122000100002006339093000100000000500000000000000000000000000000000000000000000000000000000000000000000000000000000000000000000000000000000000000000000000000000000000000000000000000000000000000000000000050000
020304122000100002006449052000100000002000000000000000000000000000000000000000000000000000000000000000020000000000000000000000000000000000000000000000000000000000000000000000000000000000000000000000000000000000000
020304122000200002007339014000100000005000000000000000000000000000000000000000000000000000000000000000049200000000000000000000000000000000000000000000000000000000000000000000000000000000000000000000000000000008000
020304122000200002007339033000100000005000000000000000000000000000000000000000000000000000000000000000050000000000000000000000000000000000000000000000000000000000000000000000000000000000000000000000000000000000000
020304122000200002007339039000100000010000000000000000000000000000000000000000000000000000000000000000100000000000000000000000000000000000000000000000000000000000000000000000000000000000000000000000000000000000000
020304124000100002008319011000100000065000000000000000000000000006000000000000000000000000000000000000007468300000000000000000000000000000000648531700000064853170000006485317000000000000000000000000000000006485317
020304124000100002008319016000100000000500000000000000000000000000000000000000000000000000000000000000005000000000000000000000000000000000000000000000000000000000000000000000000000000000000000000000000000000000000
020304124000100002008319094000100000000500000000000000000000000000000000000000000000000000000000000000005000000000000000000000000000000000000000000000000000000000000000000000000000000000000000000000000000000000000
020304124000100002008319113000100000020000000000000000000000000001377800000000000000000000000000000000134000000000000000000000000000000000000067377800000006737780000000673778000000000000000000000000000000000673778
020304124000100002008339014000100000012000000000000000000000000000000000000000000000000000000000000000070000000000000000000000000000000000000043860500000004386050000000438605000000000000000000000000000000000500000
020304124000100002008339030000100000001000000000000000000000000000000000000000000000000000000000000000000000000000000000000000000000000000000003740000000000374000000000037400000000000000000000000000000000000100000
020304124000100002008339033000100000012000000000000000000000000000000000000000000000000000000000000000050000000000000000000000000000000000000054257000000005425700000000542570000000000000000000000000000000000700000
020304124000100002008339039000100000008000000000000000000000000000000000000000000000000000000000000000019860000000000000000000000000000000000060140000000006014000000000601400000000000000000000000000000000000601400
020304124000100002008339046000100000003500000000000000000000000000000000000000000000000000000000000000010000000000000000000000000000000000000023625000000002362500000000236250000000000000000000000000000000000250000
020304124000100002008449052000100000005000000000000000000000000050000000000000000000000000000000000000064000000000000000000000000000000000000018000000000001800000000000180000000000000000000000000000000000000360000
020408243001100000017335041105000000000000000000000000000000000000000000000009202000000000000000000000000000000000000000000000000000000000000092020000000009202000000000920200000000000000000000000000000000000920200
020408243001100000017445041105000000000000000000000000000000000000000000000001491000000000000000000000000000000000000000000000000000000000000014910000000001491000000000149100000000000000000000000000000000000149100
020408243001100002009319011000100000094000000000000000000000000182000000000000000000000000000000000000020386700000000000000000000000000000001101613300000110161330000011016133000000000000000000000000000000011016133
020408243001100002009319013000100000018800000000000000000000000031016000000000000000000000000000000000000000000000000000000000000000000000000219016000000021901600000002190160000000000000000000000000000000002190160
020408243001100002009319094000100000000500000000000000000000000020000000000000000000000000000000000000005400000000000000000000000000000000000019600000000001960000000000196000000000000000000000000000000000000196000
020408243001100002009339014000100000012000000000000000000000000000000000000000000000000000000000000000069538400000000000000000000000000000000050461600000005046160000000504616000000000000000000000000000000000504616
020408243001100002009339030000100000003000000000000000000000000000000000000000000000000000000000000000009645000000000000000000000000000000000020355000000002035500000000203550000000000000000000000000000000000203550
020408243001100002009339033000100000012000000000000000000000000000000000000000000000000000000000000000107786500000000000000000000000000000000012213500000001221350000000122135000000000000000000000000000000000122135
020408243001100002009339036000100000001000000000000000000000000000000000000000000000000000000000000000010000000000000000000000000000000000000000000000000000000000000000000000000000000000000000000000000000000000000
020408243001100002009339039000100000010000000000000000000000000000000000000000000000000000000000000000020000000000000000000000000000000000000070912700000007091270000000709127000000000000000000000000000000000800000
020408243001100002009339092000100000000000000000000000000000000002650000000000265000000000000000000000000000000000000000000000000000000000000002650000000000265000000000026500000000000000000000000000000000000053000
020408243001100002009339093000100000006000000000000000000000000000000000000000000000000000000000000000017800000000000000000000000000000000000036220000000003622000000000362200000000000000000000000000000000000422000
020408243001100002009449052000100000002400000000000000000000000000000000000000000000000000000000000000013470000000000000000000000000000000000010530000000001053000000000105300000000000000000000000000000000000105300
030104122000100002010319004000100000046800000000000000000000000047839400000000000000000000000000000000000000000000000000000000000000000000000515839400000051583940000005158394000000000000000000000000000000005158394
030104122000100002010319011000100000288000000000000000000000000646376000000000000000000000000000000000040000000000000000000000000000000000003486376000000348637600000034863760000000000000000000000000000000034863760
030104122000100002010319013000100000020000000000000000000000000006320100000000000000000000000000000000043000000000000000000000000000000000000163320100000016332010000001633201000000000000000000000000000000001633201
030104122000100002010319016000100000000500000000000000000000000005000000000000000000000000000000000000000000000000000000000000000000000000000005206100000000520610000000052061000000000000000000000000000000000100000
030104122000100002010319094000100000000500000000000000000000000030000000000000000000000000000000000000000000000000000000000000000000000000000029332300000002933230000000293323000000000000000000000000000000000350000
030104122000100002010319113000100000032000000000000000000000000065074500000000000000000000000000000000002685200000000000000000000000000000000382389300000038238930000003823893000000000000000000000000000000003823893
030104122000100002010339014000100000010000000000000000000000000012000000000000000000000000000000000000010800000000000000000000000000000000000101103400000010110340000001011034000000000000000000000000000000001012000
030104122000100002010339030000100000010000000000000000000000000040000000000000000000000000000000000000005130000000000000000000000000000000000121155900000012115590000001211559000000000000000000000000000000001348700
030104122000100002010339033000100000010000000000000000000000000010000000000000000000000000000000000000037320000000000000000000000000000000000070112400000007011240000000701124000000000000000000000000000000000726800
030104122000100002010339036000100000005000000000000000000000000053000000000000000000000000000000000000011416000000000000000000000000000000000088535000000008853500000000885350000000000000000000000000000000000915840
030104122000100002010339039000100000050000000000000000000000000485040000000000000000000000000000000000294521400000000000000000000000000000000680614600000068061460000006806146000000000000000000000000000000006905186
030104122000100002010339046000100000027200000000000000000000000019080000000000000000000000000000000000000000000000000000000000000000000000000291080000000029108000000002910800000000000000000000000000000000002910800
030104122000100002010449052000100000008000000000000000000000000250910000000000000000000000000000000000002050000000000000000000000000000000000328860000000032886000000003288600000000000000000000000000000000003288600
030104126000100002011339030000100000010000000000000000000000000005750000000000000000000000000000000000076000000000000000000000000000000000000029449000000002944900000000294490000000000000000000000000000000000297500
030104126000100002011339035000100000010000000000000000000000000000000000000000000000000000000000000000016102700000000000000000000000000000000079163300000007916330000000791633000000000000000000000000000000000838973
030104126000100002011339036000100000002000000000000000000000000000000000000000000000000000000000000000020000000000000000000000000000000000000000000000000000000000000000000000000000000000000000000000000000000000000
030104126000100002011339039000100000015000000000000000000000000016500000000000000000000000000000000000150000000000000000000000000000000000000016500000000001650000000000165000000000000000000000000000000000000165000
030104126000100002011449052000100000010000000000000000000000000115500000000000000000000000000000000000134750000000000000000000000000000000000080510000000008051000000000805100000000000000000000000000000000000807500
030104126000100002113339039000100000004000000000000000000000000000000000000000000000000000000000000000040000000000000000000000000000000000000000000000000000000000000000000000000000000000000000000000000000000000000
030104126000100002113449030000100000056350000000000000000000000000000000000000000000000000000000000000563500000000000000000000000000000000000000000000000000000000000000000000000000000000000000000000000000000000000
030104126000100002113449039000100000024150000000000000000000000000000000000000000000000000000000000000241500000000000000000000000000000000000000000000000000000000000000000000000000000000000000000000000000000000000
030104131000100002012339030000100000003000000000000000000000000000000000000000000000000000000000000000030000000000000000000000000000000000000000000000000000000000000000000000000000000000000000000000000000000000000
030104131000100002012339036000100000001000000000000000000000000000000000000000000000000000000000000000010000000000000000000000000000000000000000000000000000000000000000000000000000000000000000000000000000000000000
030104131000100002012339039000100000050000000000000000000000000410231000000000000000000000000000000000044039700000000000000000000000000000000864740000000086074000000008607400000000000000000000000000000000008661913
030104131000100002012449052000100000007500000000000000000000000000000000000000000000000000000000000000075000000000000000000000000000000000000000000000000000000000000000000000000000000000000000000000000000000000000
030105122000100002013319011000100000001000000000000000000000000102047000000000000000000000000000000000008619000000000000000000000000000000000103428000000010342800000001034280000000000000000000000000000000001034280
030105122000100002013319113000100000000500000000000000000000000000000000000000000000000000000000000000005000000000000000000000000000000000000000000000000000000000000000000000000000000000000000000000000000000000000
030105122000100002013339014000100000001000000000000000000000000000000000000000000000000000000000000000000000000000000000000000000000000000000000000000000000000000000000000000000000000000000000000000000000000100000
030105122000100002013339030000100000001000000000000000000000000000000000000000000000000000000000000000000000000000000000000000000000000000000000215700000000021570000000002157000000000000000000000000000000000100000
030105122000100002013339033000100000001000000000000000000000000000000000000000000000000000000000000000002096900000000000000000000000000000000000000000000000000000000000000000000000000000000000000000000000000079031
030105122000100002013339039000100000001000000000000000000000000000000000000000000000000000000000000000010000000000000000000000000000000000000000000000000000000000000000000000000000000000000000000000000000000000000
030105122000100002013449052000100000000500000000000000000000000000000000000000000000000000000000000000005000000000000000000000000000000000000000000000000000000000000000000000000000000000000000000000000000000000000
030111331000100002112319008000100000096000000000000000000000000000000000000000000000000000000000000000960000000000000000000000000000000000000000000000000000000000000000000000000000000000000000000000000000000000000
040104123000100002014339030000100000001000000000000000000000000000000000000000000000000000000000000000000000000000000000000000000000000000000000000000000000000000000000000000000000000000000000000000000000000100000
040104123000100002014339031000100000001000000000000000000000000000000000000000000000000000000000000000000000000000000000000000000000000000000000000000000000000000000000000000000000000000000000000000000000000100000
040104123000100002014339039000100000001000000000000000000000000000000000000000000000000000000000000000000000000000000000000000000000000000000000000000000000000000000000000000000000000000000000000000000000000100000
040104123000100002015319011000100000445000000000000000000000001105000000000000000000000000000000000000054058300000000000000000000000000000005500941700000550094170000055009417000000000000000000000000000000055009417
040104123000100002015319013000100000028000000000000000000000000000000000000000000000000000000000000000172332000000000000000000000000000000000107668000000010766800000001076680000000000000000000000000000000001076680
040104123000100002015319016000100000003000000000000000000000000000000000000000000000000000000000000000010000000000000000000000000000000000000019823800000001982380000000198238000000000000000000000000000000000200000
040104123000100002015319094000100000000500000000000000000000000021000000000000000000000000000000000000007560100000000000000000000000000000000018439900000001843990000000184399000000000000000000000000000000000184399
040104123000100002015319113000100000057000000000000000000000000134238000000000000000000000000000000000000000000000000000000000000000000000000704238000000070423800000007042380000000000000000000000000000000007042380
040104123000100002015339014000100000024000000000000000000000000000000000000000000000000000000000000000025000000000000000000000000000000000000206911700000020691170000002069117000000000000000000000000000000002150000
040104123000100002015339030000100000012000000000000000000000000000000000000000000000000000000000000000000000000000000000000000000000000000000115737000000011573700000001157370000000000000000000000000000000001200000
040104123000100002015339033000100000012000000000000000000000000000000000000000000000000000000000000000050000000000000000000000000000000000000028676000000002867600000000286760000000000000000000000000000000000700000
040104123000100002015339035000100000010000000000000000000000000000000000000000000000000000000000000000050000000000000000000000000000000000000004116700000000411670000000041167000000000000000000000000000000000500000
040104123000100002015339036000100000001000000000000000000000000005000000000000000000000000000000000000010000000000000000000000000000000000000002884000000000288400000000028840000000000000000000000000000000000050000
040104123000100002015339039000100000112000000000000000000000000300000000000000000000000000000000000000211550000000000000000000000000000000001176040100000086818010000008681801000000000000000000000000000000012084500
040104123000100002015339046000100000030000000000000000000000000064644000000000000000000000000000000000000000000000000000000000000000000000000364644000000036464400000003646440000000000000000000000000000000003646440
040104123000100002015339093000100000005000000000000000000000000000000000000000000000000000000000000000000000000000000000000000000000000000000014808400000001480840000000148084000000000000000000000000000000000500000
040104123000100002015449052000100000030000000000000000000000000015300000000000000000000000000000000000215000000000000000000000000000000000000095780000000007738000000000773800000000000000000000000000000000001003000
050104122000100001006339030000100000006000000000000000000000000000000000000000000000000000000000000000060000000000000000000000000000000000000000000000000000000000000000000000000000000000000000000000000000000000000
050104122000100001006339036000100000000600000000000000000000000000000000000000000000000000000000000000000000000000000000000000000000000000000000000000000000000000000000000000000000000000000000000000000000000060000
050104122000100001006339039000100000006000000000000000000000000000000000000000000000000000000000000000045000000000000000000000000000000000000000000000000000000000000000000000000000000000000000000000000000000150000
050112122000100002016319011000100000113400000000000000000000000459708900000000000000000000000000000000220000000000000000000000000000000000001373708900000137370890000013737089000000000000000000000000000000013737089
050112122000100002016319013000100000011700000000000000000000000117099600000000000000000000000000000000020000000000000000000000000000000000000214099600000021409960000002140996000000000000000000000000000000002140996
050112122000100002016319016000100000000500000000000000000000000000000000000000000000000000000000000000005000000000000000000000000000000000000000000000000000000000000000000000000000000000000000000000000000000000000
050112122000100002016319094000100000000500000000000000000000000000000000000000000000000000000000000000005000000000000000000000000000000000000000000000000000000000000000000000000000000000000000000000000000000000000
050112122000100002016319113000100000006750000000000000000000000025209800000000000000000000000000000000002007400000000000000000000000000000000090702400000009070240000000907024000000000000000000000000000000000907024
050112122000100002016339014000100000006000000000000000000000000084000000000000000000000000000000000000005700000000000000000000000000000000000135285900000013528590000001352859000000000000000000000000000000001383000
050112122000100002016339030000100000005000000000000000000000000050200000000000000000000000000000000000000000000000000000000000000000000000000099899200000009989920000000998992000000000000000000000000000000001002000
050112122000100002016339033000100000006000000000000000000000000000000000000000000000000000000000000000011000000000000000000000000000000000000043896200000004389620000000438962000000000000000000000000000000000490000
050112122000100002016339035000100000005000000000000000000000000000000000000000000000000000000000000000050000000000000000000000000000000000000000000000000000000000000000000000000000000000000000000000000000000000000
050112122000100002016339036000100000000500000000000000000000000020000000000000000000000000000000000000020000000000000000000000000000000000000000000000000000000000000000000000000000000000000000000000000000000050000
050112122000100002016339039000100000012000000000000000000000000106000000000000000000000000000000000000000500000000000000000000000000000000000223699300000022369930000002236993000000000000000000000000000000002255000
050112122000100002016339046000100000012360000000000000000000000004311000000000000000000000000000000000000000000000000000000000000000000000000127911000000012791100000001279110000000000000000000000000000000001279110
050112122000100002016449052000100000005000000000000000000000000085000000000000000000000000000000000000020000000000000000000000000000000000000113130000000011313000000001131300000000000000000000000000000000001150000
050212128000200002017339014002000000002100000000000000000000000025000000000000000000000000000000000000003268100000000000000000000000000000000042731900000004273190000000427319000000000000000000000000000000000427319
050212128000200002017339033002000000001000000000000000000000000002000000000000000000000000000000000000004000000000000000000000000000000000000007228000000000722800000000072280000000000000000000000000000000000080000
050212128000200002017339036002000000001000000000000000000000000000000000000000000000000000000000000000010000000000000000000000000000000000000000000000000000000000000000000000000000000000000000000000000000000000000
050212128000200002017339039002000000012000000000000000000000000030100000000000000000000000000000000000000000000000000000000000000000000000000148530000000014853000000001485300000000000000000000000000000000001501000
050212128000200002017339093002000000001900000000000000000000000000000000000000000000000000000000000000010000000000000000000000000000000000000006820000000000682000000000068200000000000000000000000000000000000090000
050212361000200001007339032002000000018000000000000000000000000000000000000000000000000000000000000000180000000000000000000000000000000000000000000000000000000000000000000000000000000000000000000000000000000000000
050212361000200001010339030002000000004000000000000000000000000000000000000000000000000000000000000000040000000000000000000000000000000000000000000000000000000000000000000000000000000000000000000000000000000000000
050212361000200001010339039002000000005000000000000000000000000000000000000000000000000000000000000000050000000000000000000000000000000000000000000000000000000000000000000000000000000000000000000000000000000000000
050212361000200001010449052002000000020000000000000000000000000000000000000000000000000000000000000000200000000000000000000000000000000000000000000000000000000000000000000000000000000000000000000000000000000000000
050212361000200001011339030002000000009000000000000000000000000000000000000000000000000000000000000000090000000000000000000000000000000000000000000000000000000000000000000000000000000000000000000000000000000000000
050212361000200001011339039002000000009000000000000000000000000000000000000000000000000000000000000000090000000000000000000000000000000000000000000000000000000000000000000000000000000000000000000000000000000000000
050212361000200001012449030002000000015000000000000000000000000003800000000000000000000000000000000000150000000000000000000000000000000000000003800000000000380000000000038000000000000000000000000000000000000038000
050212361000200001012449039002000000015000000000000000000000000005500000000000000000000000000000000000150000000000000000000000000000000000000005500000000000550000000000055000000000000000000000000000000000000055000
050212361000200001012449051002000000020000000000000000000000000330000000000000000000000000000000000000335492500000000000000000000000000000000194507500000019450750000001945075000000000000000000000000000000001945075
050212361000200001012449051101000000000000000000000000000000000443314400000000000000000000000000000000194507500000000000000000000000000000000248806900000024880690000002488069000000000000000000000000000000002488069
050212361000200001012449052002000000010000000000000000000000000007000000000000000000000000000000000000092340000000000000000000000000000000000014660000000001466000000000146600000000000000000000000000000000000146600
050212361000200001015339030002000000015000000000000000000000000000000000000000000000000000000000000000150000000000000000000000000000000000000000000000000000000000000000000000000000000000000000000000000000000000000
050212361000200001015339039002000000015000000000000000000000000000000000000000000000000000000000000000150000000000000000000000000000000000000000000000000000000000000000000000000000000000000000000000000000000000000
050212361000200001016449030002000000005000000000000000000000000000000000000000000000000000000000000000050000000000000000000000000000000000000000000000000000000000000000000000000000000000000000000000000000000000000
050212361000200001016449039002000000005000000000000000000000000000000000000000000000000000000000000000050000000000000000000000000000000000000000000000000000000000000000000000000000000000000000000000000000000000000
050212361000200001060449030002000000000400000000000000000000000000000000000000000000000000000000000000004000000000000000000000000000000000000000000000000000000000000000000000000000000000000000000000000000000000000
050212361000200001060449039002000000004000000000000000000000000000000000000000000000000000000000000000040000000000000000000000000000000000000000000000000000000000000000000000000000000000000000000000000000000000000
050212361000200001060449052002000000010000000000000000000000000000000000000000000000000000000000000000100000000000000000000000000000000000000000000000000000000000000000000000000000000000000000000000000000000000000
050212361000200002018319004002000000000000000000000000000000000000000000000005100000000000000000000000000000000000000000000000000000000000000001326100000000132610000000013261000000000000000000000000000000000510000
050212361000200002018319004003100000000000000000000000000000000000000000000001600000000000000000000000016000000000000000000000000000000000000000000000000000000000000000000000000000000000000000000000000000000000000
050212361000200002018319011002000000013000000000000000000000001351300000000000000000000000000000000000012466500000000000000000000000000000001468833500000146883350000014688335000000000000000000000000000000014688335
050212361000200002018319011107200000000000000000000000000000000093766400000000000000000000000000000000000000000000000000000000000000000000000093766400000009376640000000937664000000000000000000000000000000000937664
050212361000200002018319013002000000000000000000000000000000000061000000000000000000000000000000000000005849300000000000000000000000000000000054685400000005468540000000546854000000000000000000000000000000000551507
050212361000200002018319016002000000000600000000000000000000000000000000000000000000000000000000000000000000000000000000000000000000000000000002083400000000208340000000020834000000000000000000000000000000000060000
050212361000200002018319094002000000001000000000000000000000000000000000000000000000000000000000000000010000000000000000000000000000000000000000000000000000000000000000000000000000000000000000000000000000000000000
050212361000200002018319113002000000004300000000000000000000000140500000000000000000000000000000000000020056500000000000000000000000000000000163443500000016344350000001634435000000000000000000000000000000001634435
050212361000200002018319113003100000000000000000000000000000000013142100000000000000000000000000000000000000000000000000000000000000000000000013142100000001314210000000131421000000000000000000000000000000000131421
050212361000200002018339030002000000010000000000000000000000000000000000000000000000000000000000000000048020000000000000000000000000000000000051975000000005197500000000519750000000000000000000000000000000000519800
050212361000200002018339036002000000000500000000000000000000000000000000000000000000000000000000000000005000000000000000000000000000000000000000000000000000000000000000000000000000000000000000000000000000000000000
050212361000200002018339039002000000010000000000000000000000000236000000000000000000000000000000000000200000000000000000000000000000000000000126780100000012678010000001267801000000000000000000000000000000001360000
050212361000200002018339046002000000003600000000000000000000000224253000000000000000000000000000000000000000000000000000000000000000000000000260253000000026025300000002602530000000000000000000000000000000002602530
050212361000200002018339339002000000000000000000000000000000000255200000000000000000000000000000000000000000000000000000000000000000000000000240800000000024080000000002408000000000000000000000000000000000002552000
050212361000200002018449052002000000008000000000000000000000000000000000000000000000000000000000000000080000000000000000000000000000000000000000000000000000000000000000000000000000000000000000000000000000000000000
050212361000200002019319004002000000000000000000000000000000000034187100000000000000000000000000000000000000000000000000000000000000000000000034187100000003418710000000341871000000000000000000000000000000000341871
050212361000200002019319004003100000000000000000000000000000000000000000000045000000000000000000000000260888800000000000000000000000000000000189111200000018911120000001891112000000000000000000000000000000001891112
050212361000200002019319011003100001690000000000000000000000000565000000000000000000000000000000000000113989200000000000000000000000000000017351010800001735101080000173510108000000000000000000000000000000173510108
050212361000200002019319013002000000013000000000000000000000000001480100000000000000000000000000000000060796300000000000000000000000000000000070683800000007068380000000706838000000000000000000000000000000000706838
050212361000200002019319016002000000003000000000000000000000000004000000000000000000000000000000000000030000000000000000000000000000000000000003167900000000316790000000031679000000000000000000000000000000000040000
050212361000200002019319094002000000000500000000000000000000000067000000000000000000000000000000000000000000000000000000000000000000000000000071261400000007126140000000712614000000000000000000000000000000000720000
050212361000200002019319113002000000214200000000000000000000000628849900000000000000000000000000000002157118900000000000000000000000000000000613731000000061373100000006137310000000000000000000000000000000006137310
050212361000200002019319113003100000000000000000000000000000001795441000000000000000000000000000000000000000000000000000000000000000000000001795441000000179544100000017954410000000000000000000000000000000017954410
050212361000200002019339030003100000051738380000000000000000000000000000000000000000000000000000000000052500000000000000000000000000000000000436248100000043624810000004362481000000000000000000000000000000004648838
050212361000200002019339030101400000010000000000000000000000000000000000000000000000000000000000000000006320000000000000000000000000000000000093672500000009367250000000936725000000000000000000000000000000000936800
050212361000200002019339030103600000000000000000000000000000000005400000000000000000000000000000000000000000000000000000000000000000000000000005400000000000540000000000054000000000000000000000000000000000000054000
050212361000200002019339036002000000002000000000000000000000000000000000000000000000000000000000000000020000000000000000000000000000000000000000000000000000000000000000000000000000000000000000000000000000000000000
050212361000200002019339039002000000030000000000000000000000000340000000000000000000000000000000000000008175400000000000000000000000000000000451240400000045124040000004512404000000000000000000000000000000006318246
050212361000200002019339046002000000111000000000000000000000000000000000000000000000000000000000000000420514000000000000000000000000000000000689486000000068948600000006894860000000000000000000000000000000006894860
050212361000200002019449052002000000010000000000000000000000000077500000000000000000000000000000000000006060000000000000000000000000000000000171440000000017144000000001714400000000000000000000000000000000001714400
050212361000200002020319011002000000064800000000000000000000000112500000000000000000000000000000000000040455600000000000000000000000000000000720044400000072004440000007200444000000000000000000000000000000007200444
050212361000200002020319011107200000000000000000000000000000000051024400000000000000000000000000000000000000000000000000000000000000000000000051024400000005102440000000510244000000000000000000000000000000000510244
050212361000200002020319016002000000000500000000000000000000000000000000000000000000000000000000000000000000000000000000000000000000000000000000320900000000032090000000003209000000000000000000000000000000000050000
050212361000200002020319094002000000000500000000000000000000000000000000000000000000000000000000000000005000000000000000000000000000000000000000000000000000000000000000000000000000000000000000000000000000000000000
050212361000200002020319113002000000009000000000000000000000000060000000000000000000000000000000000000009622000000000000000000000000000000000140378000000014037800000001403780000000000000000000000000000000001403780
050212361000200002020339030002000000040000000000000000000000000470000000000000000000000000000000000000319670000000000000000000000000000000000549774600000054977460000005497746000000000000000000000000000000005503300
050212361000200002020339030100100000024408000000000000000000000073670000000000000000000000000000000000000000000000000000000000000000000000000252000000000025200000000002520000000000000000000000000000000000003177500
050212361000200002020339030105900000001664000000000000000000000025000000000000000000000000000000000000000000000000000000000000000000000000000038713500000003871350000000387135000000000000000000000000000000000416400
050212361000200002020339036002000000000500000000000000000000000020000000000000000000000000000000000000023324200000000000000000000000000000000000000000000000000000000000000000000000000000000000000000000000000016758
050212361000200002020339039002000000000500000000000000000000000000000000000000000000000000000000000000000000000000000000000000000000000000000003733300000000373330000000037333000000000000000000000000000000000050000
050212361000200002020339046002000000006200000000000000000000000000000000000000000000000000000000000000005657000000000000000000000000000000000056343000000005634300000000563430000000000000000000000000000000000563430
050212361000200002020449052002000000000500000000000000000000000005500000000000000000000000000000000000000000000000000000000000000000000000000010498000000001049800000000104980000000000000000000000000000000000105000
050212365000200001017449030002000000000400000000000000000000000020000000000000000000000000000000000000023975000000000000000000000000000000000000000000000000000000000000000000000000000000000000000000000000000000250
050212365000200001017449039002000000001000000000000000000000000021000000000000000000000000000000000000000000000000000000000000000000000000000023783000000002378300000000237830000000000000000000000000000000000310000
050212365000200001017449052002000000004000000000000000000000000028320000000000000000000000000000000000000000000000000000000000000000000000000068317000000006831700000000683170000000000000000000000000000000000683200
050212365000200001018449030002000000005000000000000000000000000095000000000000000000000000000000000000000161000000000000000000000000000000000144839000000003636470000000363647000000000000000000000000000000001448390
050212365000200001018449039002000000004000000000000000000000000014000000000000000000000000000000000000000000000000000000000000000000000000000053299100000001277680000000127768000000000000000000000000000000000540000
050212365000200001020449030002000000015000000000000000000000000000000000000000000000000000000000000000150000000000000000000000000000000000000000000000000000000000000000000000000000000000000000000000000000000000000
050212365000200001020449039002000000015000000000000000000000000000000000000000000000000000000000000000150000000000000000000000000000000000000000000000000000000000000000000000000000000000000000000000000000000000000
050212365000200001020449051002000000010000000000000000000000000500000000000000000000000000000000000000542443900000000000000000000000000000000057556100000005755610000000575561000000000000000000000000000000000575561
050212365000200001020449051003100000000000000000000000000000001340000000000000000000000000000000000000000000000000000000000000000000000000001339515200000109182970000010918297000000000000000000000000000000013400000
050212365000200001020449051101000000000000000000000000000000000404108100000000000000000000000000000000000000000000000000000000000000000000000404108100000040410810000004041081000000000000000000000000000000004041081
050212365000200001020449052002000000020000000000000000000000000000000000000000000000000000000000000000200000000000000000000000000000000000000000000000000000000000000000000000000000000000000000000000000000000000000
050212365000200001022339030002000000020000000000000000000000000000000000000000000000000000000000000000200000000000000000000000000000000000000000000000000000000000000000000000000000000000000000000000000000000000000
050212365000200001022339039002000000010000000000000000000000000000000000000000000000000000000000000000100000000000000000000000000000000000000000000000000000000000000000000000000000000000000000000000000000000000000
050212365000200001061449030002000000015000000000000000000000000000000000000000000000000000000000000000150000000000000000000000000000000000000000000000000000000000000000000000000000000000000000000000000000000000000
050212365000200001061449039002000000015000000000000000000000000000000000000000000000000000000000000000150000000000000000000000000000000000000000000000000000000000000000000000000000000000000000000000000000000000000
050212365000200001061449051002000000030000000000000000000000000300000000000000000000000000000000000000115597100000000000000000000000000000000484402900000000000000000000000000000000000000000000000000000000004844029
050212365000200001061449051003100000000000000000000000000000001160000000000000000000000000000000000000000000000000000000000000000000000000001159672900000100532810000010053281000000000000000000000000000000011600000
050212365000200002021319011002000000026100000000000000000000000186532500000000000000000000000000000000000095200000000000000000000000000000000447437300000044743730000004474373000000000000000000000000000000004474373
050212365000200002021319011107200000000000000000000000000000000019684700000000000000000000000000000000000000000000000000000000000000000000000019684700000001968470000000196847000000000000000000000000000000000196847
050212365000200002021319016002000000000500000000000000000000000000000000000000000000000000000000000000000000000000000000000000000000000000000001032500000000103250000000010325000000000000000000000000000000000050000
050212365000200002021319094002000000000500000000000000000000000000000000000000000000000000000000000000005000000000000000000000000000000000000000000000000000000000000000000000000000000000000000000000000000000000000
050212365000200002021319113002000000004230000000000000000000000030000000000000000000000000000000000000008265200000000000000000000000000000000064034800000006403480000000640348000000000000000000000000000000000640348
050212365000200002021339030002000000025000000000000000000000000460000000000000000000000000000000000000288690300000000000000000000000000000000362671100000036267110000003626711000000000000000000000000000000004213097
050212365000200002021339030103100000022684000000000000000000000002140000000000000000000000000000000000000000000000000000000000000000000000000228980000000022898000000002289800000000000000000000000000000000002289800
050212365000200002021339030103300000012932000000000000000000000050000000000000000000000000000000000000000000000000000000000000000000000000000129320000000012932000000001293200000000000000000000000000000000001793200
050212365000200002021339030107100000000000000000000000000000000036750000000000000000000000000000000000000000000000000000000000000000000000000036434600000003643460000000364346000000000000000000000000000000000367500
050212365000200002021339036002000000000500000000000000000000000000000000000000000000000000000000000000005000000000000000000000000000000000000000000000000000000000000000000000000000000000000000000000000000000000000
050212365000200002021339039002000000000500000000000000000000000050000000000000000000000000000000000000046400000000000000000000000000000000000002500000000000250000000000025000000000000000000000000000000000000086000
050212365000200002021339046002000000003000000000000000000000000047343000000000000000000000000000000000000000000000000000000000000000000000000077343000000007734300000000773430000000000000000000000000000000000773430
050212365000200002021449052002000000000500000000000000000000000000000000000000000000000000000000000000000310000000000000000000000000000000000004690000000000469000000000046900000000000000000000000000000000000046900
050212365000200002022319004002000000000000000000000000000000000004000000000102900000000000000000000001020000000000000000000000000000000000000009908700000000990870000000099087000000000000000000000000000000000130000
050212365000200002022319004003100000000000000000000000000000000160000000000000000000000000000000000000110000000000000000000000000000000000000049842200000004984220000000498422000000000000000000000000000000000500000
050212365000200002022319011002000000027000000000000000000000002084553900000000000000000000000000000000003807800000000000000000000000000000002350746100000235074610000023507461000000000000000000000000000000023507461
050212365000200002022319011107200000000000000000000000000000000185776700000000000000000000000000000000000000000000000000000000000000000000000185776700000018577670000001857767000000000000000000000000000000001857767
050212365000200002022319016002000000000500000000000000000000000000000000000000000000000000000000000000000000000000000000000000000000000000000003133400000000313340000000031334000000000000000000000000000000000050000
050212365000200002022319094002000000001000000000000000000000000000000000000000000000000000000000000000005393900000000000000000000000000000000004606100000000460610000000046061000000000000000000000000000000000046061
050212365000200002022319113002000000009000000000000000000000000262817100000000000000000000000000000000031867900000000000000000000000000000000320949200000032094920000003209492000000000000000000000000000000003209492
050212365000200002022319113003100000000000000000000000000000000032834700000000000000000000000000000000000000000000000000000000000000000000000032834700000003283470000000328347000000000000000000000000000000000328347
050212365000200002022339030002000000007000000000000000000000000025400000000000000000000000000000000000005345000000000000000000000000000000000089649300000008964930000000896493000000000000000000000000000000000900550
050212365000200002022339036002000000000500000000000000000000000011000000000000000000000000000000000000016000000000000000000000000000000000000000000000000000000000000000000000000000000000000000000000000000000000000
050212365000200002022339039002000000020000000000000000000000000000000000000000000000000000000000000000096870000000000000000000000000000000000085944000000008594400000000859440000000000000000000000000000000001031300
050212365000200002022339046002000000005000000000000000000000000333880000000000000000000000000000000000000000000000000000000000000000000000000383880000000038388000000003838800000000000000000000000000000000003838800
050212365000200002022449052002000000005000000000000000000000000000000000000000000000000000000000000000004300000000000000000000000000000000000045700000000004570000000000457000000000000000000000000000000000000457000
050212365000200002023319011003100000679000000000000000000000000055000000000000000000000000000000000000852196500000000000000000000000000000005992803500000599280350000059928035000000000000000000000000000000059928035
050212365000200002023319016002000000000500000000000000000000000000000000000000000000000000000000000000000000000000000000000000000000000000000004956300000000495630000000049563000000000000000000000000000000000050000
050212365000200002023319094002000000000500000000000000000000000050000000000000000000000000000000000000015209800000000000000000000000000000000039790200000003979020000000397902000000000000000000000000000000000397902
050212365000200002023319113002000000081000000000000000000000000160000000000000000000000000000000000000193237500000000000000000000000000000000776762500000077676250000007767625000000000000000000000000000000007767625
050212365000200002023319113003100000000000000000000000000000000059398100000000000000000000000000000000000000000000000000000000000000000000000059398100000005939810000000593981000000000000000000000000000000000593981
050212365000200002023339030002000000020000000000000000000000000034950000000000000000000000000000000000010520000000000000000000000000000000000224416800000022441680000002244168000000000000000000000000000000002244300
050212365000200002023339030101400000020000000000000000000000000000000000000000000000000000000000000000027220000000000000000000000000000000000172777200000017277720000001727772000000000000000000000000000000001727800
050212365000200002023339036002000000000500000000000000000000000000000000000000000000000000000000000000005000000000000000000000000000000000000000000000000000000000000000000000000000000000000000000000000000000000000
050212365000200002023339039002000000030000000000000000000000000001000000000000000000000000000000000000000000000000000000000000000000000000000237628300000023762830000002376283000000000000000000000000000000003010000
050212365000200002023339046002000000079000000000000000000000000000000000000000000000000000000000000000542402800000000000000000000000000000000247597200000024759720000002475972000000000000000000000000000000002475972
050212365000200002023449052002000000005000000000000000000000000000000000000000000000000000000000000000002250000000000000000000000000000000000047750000000004775000000000477500000000000000000000000000000000000477500
050212365000200002023449052101400000020000000000000000000000000000000000000000000000000000000000000000011050000000000000000000000000000000000188950000000018895000000001889500000000000000000000000000000000001889500
050212367000200002024335043002000000135000000000000000000000000000000000000000000000000000000000000000120000000000000000000000000000000000001230000000000123000000000012300000000000000000000000000000000000012300000
050212367000200002024335043131400000013500000000000000000000000000000000000000000000000000000000000000000000000000000000000000000000000000000135000000000013500000000001350000000000000000000000000000000000001350000
050212367000200002024335043131500000013500000000000000000000000000000000000000000000000000000000000000000000000000000000000000000000000000000135000000000013500000000001350000000000000000000000000000000000001350000
050212782000200002031319011107200000000000000000000000000000000125603800000000000000000000000000000000000000000000000000000000000000000000000125603800000012560380000001256038000000000000000000000000000000001256038
050212782000200002031319113003100000000000000000000000000000000026216700000000000000000000000000000000000000000000000000000000000000000000000026216700000002621670000000262167000000000000000000000000000000000262167
050313392000300001023449052000100000021600000000000000000000000000000000000000000000000000000000000000190410000000000000000000000000000000000025590000000002559000000000255900000000000000000000000000000000000255900
050313392000300001024339030000100000005800000000000000000000000000000000000000000000000000000000000000023500000000000000000000000000000000000034500000000003450000000000345000000000000000000000000000000000000345000
050313392000300001024339039000100000005800000000000000000000000000000000000000000000000000000000000000057400000000000000000000000000000000000000600000000000060000000000006000000000000000000000000000000000000006000
050313392000300001024449030000100000005800000000000000000000000000000000000000000000000000000000000000058000000000000000000000000000000000000000000000000000000000000000000000000000000000000000000000000000000000000
050313392000300001024449039000100000005800000000000000000000000000000000000000000000000000000000000000058000000000000000000000000000000000000000000000000000000000000000000000000000000000000000000000000000000000000
050313392000300001024449052000100000005800000000000000000000000000000000000000000000000000000000000000058000000000000000000000000000000000000000000000000000000000000000000000000000000000000000000000000000000000000
050313392000300002025335041000100000010000000000000000000000000070000000000000000000000000000000000000000000000000000000000000000000000000000170000000000017000000000001700000000000000000000000000000000000001700000
050313392000300002025339030000100000002500000000000000000000000000000000000000000000000000000000000000025000000000000000000000000000000000000000000000000000000000000000000000000000000000000000000000000000000000000
050313392000300002025339031000100000000500000000000000000000000000000000000000000000000000000000000000005000000000000000000000000000000000000000000000000000000000000000000000000000000000000000000000000000000000000
050313392000300002025339032000100000005000000000000000000000000000000000000000000000000000000000000000050000000000000000000000000000000000000000000000000000000000000000000000000000000000000000000000000000000000000
050313392000300002025339039000100000005000000000000000000000000000000000000000000000000000000000000000015000000000000000000000000000000000000035000000000003500000000000350000000000000000000000000000000000000350000
050313392000300002026319011000100000039600000000000000000000000070200000000000000000000000000000000000007736500000000000000000000000000000000458463500000045846350000004584635000000000000000000000000000000004584635
050313392000300002026319016000100000000500000000000000000000000000000000000000000000000000000000000000005000000000000000000000000000000000000000000000000000000000000000000000000000000000000000000000000000000000000
050313392000300002026319094000100000000500000000000000000000000000000000000000000000000000000000000000005000000000000000000000000000000000000000000000000000000000000000000000000000000000000000000000000000000000000
050313392000300002026319113000100000005310000000000000000000000013500000000000000000000000000000000000003882200000000000000000000000000000000062717800000006271780000000627178000000000000000000000000000000000627178
050313392000300002026339030000100000002000000000000000000000000000000000000000000000000000000000000000017290000000000000000000000000000000000002708900000000270890000000027089000000000000000000000000000000000027100
050313392000300002026339036000100000000500000000000000000000000000000000000000000000000000000000000000005000000000000000000000000000000000000000000000000000000000000000000000000000000000000000000000000000000000000
050313392000300002026339039000100000002000000000000000000000000000000000000000000000000000000000000000004100000000000000000000000000000000000008432000000000843200000000084320000000000000000000000000000000000159000
050313392000300002026339046000100000001400000000000000000000000010000000000000000000000000000000000000000690000000000000000000000000000000000023310000000002331000000000233100000000000000000000000000000000000233100
050313392000300002027339030000100000018000000000000000000000000065100000000000000000000000000000000000100000000000000000000000000000000000000125238400000012523840000001252384000000000000000000000000000000001451000
050313392000300002027339039000100000018000000000000000000000000155100000000000000000000000000000000000100000000000000000000000000000000000000234085000000023408500000002340850000000000000000000000000000000002351000
050313392002000002114339032000100000000000000000000000000000000000000000000012200000000000000000000000007400000000000000000000000000000000000114600000000011460000000001146000000000000000000000000000000000001146000
050327812000300002029339030000100000010000000000000000000000000000000000000000000000000000000000000000100000000000000000000000000000000000000000000000000000000000000000000000000000000000000000000000000000000000000
050327812000300002029339039000100000020000000000000000000000000040000000000000000000000000000000000000091160000000000000000000000000000000000133105300000013310530000001331053000000000000000000000000000000001488400
050327812000300002030339030000100000010000000000000000000000000030000000000000000000000000000000000000107300000000000000000000000000000000000022700000000002270000000000227000000000000000000000000000000000000227000
050327812000300002030339031000100000003000000000000000000000000089420000000000000000000000000000000000026000000000000000000000000000000000000093420000000009342000000000934200000000000000000000000000000000000934200
050327812000300002030339039000100000010000000000000000000000000120000000000000000000000000000000000000020000000000000000000000000000000000000200000000000020000000000002000000000000000000000000000000000000002000000
050412782000200001027449052003100000250000000000000000000000000000000000000000000000000000000000000002500000000000000000000000000000000000000000000000000000000000000000000000000000000000000000000000000000000000000
050412782000200001028339030002000000001000000000000000000000000000000000000000000000000000000000000000010000000000000000000000000000000000000000000000000000000000000000000000000000000000000000000000000000000000000
050412782000200001028339039002000000001000000000000000000000000014000000000000000000000000000000000000024000000000000000000000000000000000000000000000000000000000000000000000000000000000000000000000000000000000000
050412782000200001028449052002000000016000000000000000000000000000000000000000000000000000000000000000080200000000000000000000000000000000000079800000000007980000000000798000000000000000000000000000000000000798000
050412782000200002031319011002000000219600000000000000000000001179000000000000000000000000000000000000832097600000000000000000000000000000002542902400000254290240000025429024000000000000000000000000000000025429024
050412782000200002031319016002000000013000000000000000000000000000000000000000000000000000000000000000024000000000000000000000000000000000000105991900000010599190000001059919000000000000000000000000000000001060000
050412782000200002031319094002000000000500000000000000000000000000000000000000000000000000000000000000005000000000000000000000000000000000000000000000000000000000000000000000000000000000000000000000000000000000000
050412782000200002031319113002000000027450000000000000000000000073896400000000000000000000000000000000028104400000000000000000000000000000000320292000000032029200000003202920000000000000000000000000000000003202920
050412782000200002031339014002000000000500000000000000000000000000000000000000000000000000000000000000000000000000000000000000000000000000000002019200000000201920000000020192000000000000000000000000000000000050000
050412782000200002031339030002000000100000000000000000000000001036931700000000000000000000000000000000603400000000000000000000000000000000001370900200000137090020000013709002000000000000000000000000000000014335317
050412782000200002031339030101400000100000000000000000000000000073980000000000000000000000000000000000345000000000000000000000000000000000000728443900000072844390000007284439000000000000000000000000000000007289800
050412782000200002031339030101700000122559280000000000000000000282500000000000000000000000000000000000314000000000000000000000000000000000001183171000000118317100000011831710000000000000000000000000000000011940928
050412782000200002031339033002000000000500000000000000000000000000000000000000000000000000000000000000005000000000000000000000000000000000000000000000000000000000000000000000000000000000000000000000000000000000000
050412782000200002031339036002000000000500000000000000000000000300000000000000000000000000000000000000305000000000000000000000000000000000000000000000000000000000000000000000000000000000000000000000000000000000000
050412782000200002031339039002000000040000000000000000000000000559000000000000000000000000000000000000065230000000000000000000000000000000000893206300000089320630000008932063000000000000000000000000000000008937700
050412782000200002031339039003100000000000000000000000000000000827000000000000000000000000000000000000000000000000000000000000000000000000000813126100000081312610000008131261000000000000000000000000000000008270000
050412782000200002031339039101400000080470580000000000000000000420000000000000000000000000000000000000050000000000000000000000000000000000001167391000000116739100000011673910000000000000000000000000000000011747058
050412782000200002031339039101600000047754700000000000000000000132052400000000000000000000000000000000120000000000000000000000000000000000000488714700000048871470000004887147000000000000000000000000000000004895994
050412782000200002031339039101700000200000000000000000000000000310000000000000000000000000000000000000403385200000000000000000000000000000001762032500000176203250000017620325000000000000000000000000000000019066148
050412782000200002031339046002000000027000000000000000000000000000000000000000000000000000000000000000014765700000000000000000000000000000000252609000000025260900000002526090000000000000000000000000000000002552343
060126122000100002032319011000100000323100000000000000000000000471000000000000000000000000000000000000030142800000000000000000000000000000003671857200000367185720000036718572000000000000000000000000000000036718572
060126122000100002032319013000100000023400000000000000000000000020000000000000000000000000000000000000003715000000000000000000000000000000000250285000000025028500000002502850000000000000000000000000000000002502850
060126122000100002032319016000100000038700000000000000000000000030000000000000000000000000000000000000000000000000000000000000000000000000000414735300000041473530000004147353000000000000000000000000000000004170000
060126122000100002032319094000100000001000000000000000000000000000000000000000000000000000000000000000010000000000000000000000000000000000000000000000000000000000000000000000000000000000000000000000000000000000000
060126122000100002032319113000100000031500000000000000000000000079662000000000000000000000000000000000032045800000000000000000000000000000000362616200000036261620000003626162000000000000000000000000000000003626162
060126122000100002032339014000100000000500000000000000000000000001000000000000000000000000000000000000000000000000000000000000000000000000000005852700000000585270000000058527000000000000000000000000000000000060000
060126122000100002032339030000100000010000000000000000000000000051200000000000000000000000000000000000030000000000000000000000000000000000000103167600000010316760000001031676000000000000000000000000000000001212000
060126122000100002032339033000100000000500000000000000000000000000000000000000000000000000000000000000000000000000000000000000000000000000000003894000000000389400000000038940000000000000000000000000000000000050000
060126122000100002032339039000100000020000000000000000000000000170000000000000000000000000000000000000006000000000000000000000000000000000000301509500000030150950000003015095000000000000000000000000000000003640000
060126122000100002032339046000100000041000000000000000000000000017636000000000000000000000000000000000030000000000000000000000000000000000000397636000000039763600000003976360000000000000000000000000000000003976360
060126122000100002032449052000100000002000000000000000000000000000000000000000000000000000000000000000006100000000000000000000000000000000000007200000000000720000000000072000000000000000000000000000000000000139000
060214422001100001031339030000100000005000000000000000000000000000000000000000000000000000000000000000035000000000000000000000000000000000000000000000000000000000000000000000000000000000000000000000000000000150000
060214422001100001031339039000100000005000000000000000000000000000000000000000000000000000000000000000033000000000000000000000000000000000000000000000000000000000000000000000000000000000000000000000000000000170000
060217512001200001032449030000100000003000000000000000000000000000000000000000000000000000000000000000030000000000000000000000000000000000000000000000000000000000000000000000000000000000000000000000000000000000000
060217512001200001032449039000100000003000000000000000000000000000000000000000000000000000000000000000030000000000000000000000000000000000000000000000000000000000000000000000000000000000000000000000000000000000000
060217512001200001032449051000100000003000000000000000000000000000000000000000000000000000000000000000030000000000000000000000000000000000000000000000000000000000000000000000000000000000000000000000000000000000000
060217512001200001032449052000100000001000000000000000000000000000000000000000000000000000000000000000000000000000000000000000000000000000000000000000000000000000000000000000000000000000000000000000000000000100000
060217512001200002033339030000100000003000000000000000000000000000000000000000000000000000000000000000029100000000000000000000000000000000000000000000000000000000000000000000000000000000000000000000000000000009000
060217512001200002033339039000100000001000000000000000000000000000000000000000000000000000000000000000000000000000000000000000000000000000000000000000000000000000000000000000000000000000000000000000000000000100000
060217512001200002033449052000100000001000000000000000000000000000000000000000000000000000000000000000000000000000000000000000000000000000000000000000000000000000000000000000000000000000000000000000000000000100000
060217512001700001033449030000100000010000000000000000000000000000000000000000000000000000000000000000099700000000000000000000000000000000000000000000000000000000000000000000000000000000000000000000000000000003000
060217512001700001033449039000100000010000000000000000000000000012000000000000000000000000000000000000100000000000000000000000000000000000000012000000000001200000000000120000000000000000000000000000000000000120000
060217512001700001033449051000100000010000000000000000000000000007600000000000000000000000000000000000095600000000000000000000000000000000000000000000000000000000000000000000000000000000000000000000000000000120000
060326782001700001035449030000100000010000000000000000000000000000000000000000000000000000000000000000080000000000000000000000000000000000000000000000000000000000000000000000000000000000000000000000000000000200000
060326782001700001035449039000100000010000000000000000000000000155270200000000000000000000000000000000080000000000000000000000000000000000000175270200000017527020000001752702000000000000000000000000000000001752702
060326782001700001035449051000100000020000000000000000000000000150000000000000000000000000000000000000347500000000000000000000000000000000000002500000000000250000000000025000000000000000000000000000000000000025000
060326782001700001035449051120000000000000000000000000000000002157891600000000000000000000000000000000000000000000000000000000000000000000002157891600000101945750000010194575000000000000000000000000000000021578916
060326782001700001035449051120100000245850000000000000000000000000000000000000000000000000000000000002157891600000000000000000000000000000000000000000000000000000000000000000000000000000000000000000000000003006084
060326782001700001035449051120300000245850000000000000000000000000000000000000000000000000000000000000000000000000000000000000000000000000000000000000000000000000000000000000000000000000000000000000000000024585000
060326782001700001036449030000100000025000000000000000000000000000000000000000000000000000000000000000250000000000000000000000000000000000000000000000000000000000000000000000000000000000000000000000000000000000000
060326782001700001036449039000100000025000000000000000000000000000000000000000000000000000000000000000250000000000000000000000000000000000000000000000000000000000000000000000000000000000000000000000000000000000000
060326782001700001036449051000100000050000000000000000000000000000000000000000000000000000000000000000500000000000000000000000000000000000000000000000000000000000000000000000000000000000000000000000000000000000000
060326782001700001037449030000100000010000000000000000000000000000000000000000000000000000000000000000100000000000000000000000000000000000000000000000000000000000000000000000000000000000000000000000000000000000000
060326782001700001037449039000100000010000000000000000000000000000000000000000000000000000000000000000100000000000000000000000000000000000000000000000000000000000000000000000000000000000000000000000000000000000000
060326782001700001037449051000100000020000000000000000000000000000000000000000000000000000000000000000200000000000000000000000000000000000000000000000000000000000000000000000000000000000000000000000000000000000000
060326782001700001079449051000100000000000000000000000000000000300000000000055000000000000000000000000000000000000000000000000000000000000000849704000000084970400000008497040000000000000000000000000000000008500000
060326782001700001083449052000100000000000000000000000000000000000000000000097850000000000000000000000978500000000000000000000000000000000000000000000000000000000000000000000000000000000000000000000000000000000000
060326782001700001083449052120500000000000000000000000000000000000000000000243750000000000000000000000000000000000000000000000000000000000000000000000000000000000000000000000000000000000000000000000000000024375000
060326782001700002036339030000100000030000000000000000000000000000000000000000000000000000000000000000200000000000000000000000000000000000000090220000000009022000000000902200000000000000000000000000000000001000000
060326782001700002036339039000100000020000000000000000000000000000000000000000000000000000000000000000187000000000000000000000000000000000000000300000000000030000000000003000000000000000000000000000000000000130000
060326782001700002037339030000100000030000000000000000000000000000000000000000000000000000000000000000256000000000000000000000000000000000000000000000000000000000000000000000000000000000000000000000000000000440000
060326782001700002037339039000100000020000000000000000000000000000000000000000000000000000000000000000200000000000000000000000000000000000000000000000000000000000000000000000000000000000000000000000000000000000000
060326782001700002111339030000100000400000000000000000000000001602000000000000000000000000000000000000414000000000000000000000000000000000005152968700000515296870000051529687000000000000000000000000000000051880000
060326782001700002111339030101800000017948220000000000000000000005000000000000000000000000000000000000003000000000000000000000000000000000000156457900000015645790000001564579000000000000000000000000000000001814822
060326782001700002111339039000100000100000000000000000000000000657000000000000000000000000000000000000155000000000000000000000000000000000001480200000000148020000000014802000000000000000000000000000000000015020000
060326782001800001077449051000100000000000000000000000000000000058000000000024958240000000000000000000000000000000000000000000000000000000000307527500000030752750000003075275000000000000000000000000000000003075824
060426782001000002035339030000100000038000000000000000000000000000000000000000000000000000000000000000000000000000000000000000000000000000000314463500000031446350000003144635000000000000000000000000000000003800000
060426782001000002035339039000100000037000000000000000000000000000000000000000000000000000000000000000245000000000000000000000000000000000000124069300000012406930000001240693000000000000000000000000000000001250000
060426782001800001039449030000100000002000000000000000000000000000000000000000000000000000000000000000000000000000000000000000000000000000000000000000000000000000000000000000000000000000000000000000000000000200000
060426782001800001039449039000100000002000000000000000000000000000000000000000000000000000000000000000000000000000000000000000000000000000000000000000000000000000000000000000000000000000000000000000000000000200000
060426782001800001039449051000100000001000000000000000000000000000000000000000000000000000000000000000000000000000000000000000000000000000000000000000000000000000000000000000000000000000000000000000000000000100000
070115122000100002038319011000100000549000000000000000000000000937512700000000000000000000000000000001062047000000000000000000000000000000005365465700000536546570000053654657000000000000000000000000000000053654657
070115122000100002038319013000100000018900000000000000000000000047560100000000000000000000000000000000002464300000000000000000000000000000000234095800000023409580000002340958000000000000000000000000000000002340958
070115122000100002038319016000100000012600000000000000000000000040000000000000000000000000000000000000000000000000000000000000000000000000000165429500000016542950000001654295000000000000000000000000000000001660000
070115122000100002038319094000100000000500000000000000000000000000000000000000000000000000000000000000005000000000000000000000000000000000000000000000000000000000000000000000000000000000000000000000000000000000000
070115122000100002038319113000100000058500000000000000000000000112726600000000000000000000000000000000013835700000000000000000000000000000000683890900000068389090000006838909000000000000000000000000000000006838909
070115122000100002038339014000100000003000000000000000000000000000000000000000000000000000000000000000006200000000000000000000000000000000000017019700000001701970000000170197000000000000000000000000000000000238000
070115122000100002038339030000100000012000000000000000000000000035000000000000000000000000000000000000000000000000000000000000000000000000000104228100000010422810000001042281000000000000000000000000000000001550000
070115122000100002038339033000100000000500000000000000000000000009000000000000000000000000000000000000000000000000000000000000000000000000000011063000000001106300000000110630000000000000000000000000000000000140000
070115122000100002038339036000100000000500000000000000000000000000000000000000000000000000000000000000003000000000000000000000000000000000000000122800000000012280000000001228000000000000000000000000000000000020000
070115122000100002038339039000100000009000000000000000000000000004900000000000000000000000000000000000050000000000000000000000000000000000000040884200000004088420000000408842000000000000000000000000000000000449000
070115122000100002038339046000100000065000000000000000000000000023869000000000000000000000000000000000000000000000000000000000000000000000000673869000000067386900000006738690000000000000000000000000000000006738690
070115122000100002038449052000100000002000000000000000000000000026100000000000000000000000000000000000000000000000000000000000000000000000000046095000000004609500000000460950000000000000000000000000000000000461000
070214422001100002039449030000100000002000000000000000000000000000000000000000000000000000000000000000000000000000000000000000000000000000000000000000000000000000000000000000000000000000000000000000000000000200000
070214422001100002039449039000100000002000000000000000000000000000000000000000000000000000000000000000000000000000000000000000000000000000000000000000000000000000000000000000000000000000000000000000000000000200000
070214422001100002039449051000100000006000000000000000000000000000000000000000000000000000000000000000020000000000000000000000000000000000000000000000000000000000000000000000000000000000000000000000000000000400000
070215451001000001058339030000100000005000000000000000000000000080000000000000000000000000000000000000060000000000000000000000000000000000000062542500000006254250000000625425000000000000000000000000000000000700000
070215451001000001058339039000100000005000000000000000000000000000000000000000000000000000000000000000049000000000000000000000000000000000000001000000000000100000000000010000000000000000000000000000000000000010000
070215451001700001041449030000100000020000000000000000000000000000000000000000000000000000000000000000200000000000000000000000000000000000000000000000000000000000000000000000000000000000000000000000000000000000000
070215451001700001041449039000100000020000000000000000000000000000000000000000000000000000000000000000200000000000000000000000000000000000000000000000000000000000000000000000000000000000000000000000000000000000000
070215451001700001041449051000100000060000000000000000000000000000000000000000000000000000000000000000600000000000000000000000000000000000000000000000000000000000000000000000000000000000000000000000000000000000000
070215451001700001081449051000100000000000000000000000000000000050000000000013000000000000000000000000090680000000000000000000000000000000000081900000000008190000000000819000000000000000000000000000000000000893200
070215451001700001086449052000100000000000000000000000000000000009200000000008568000000000000000000000000000000000000000000000000000000000000094880000000009488000000000948800000000000000000000000000000000000948800
070215451001700001087449051000100000000000000000000000000000000000000000000012499590000000000000000000000000000000000000000000000000000000000122975400000012297540000000000000000000000000000000000000000000001249959
070215451001700001087449051102200000000000000000000000000000000000000000000119554080000000000000000000000000000000000000000000000000000000001195540800000026420990000000000000000000000000000000000000000000011955408
070215451001700002041339030000100000030000000000000000000000000040000000000000000000000000000000000000083000000000000000000000000000000000000230888800000023088880000002308888000000000000000000000000000000002570000
070215451001700002041339039000100000015000000000000000000000000000000000000000000000000000000000000000120000000000000000000000000000000000000028650000000002865000000000286500000000000000000000000000000000000300000
070215451001700002041449052000100000005000000000000000000000000000000000000000000000000000000000000000020000000000000000000000000000000000000000000000000000000000000000000000000000000000000000000000000000000300000
070215452001000001057449030000100000005000000000000000000000000030350000000000000000000000000000000000000000000000000000000000000000000000000074600000000007460000000000746000000000000000000000000000000000000803500
070215452001000001057449039000100000005000000000000000000000000000000000000000000000000000000000000000030350000000000000000000000000000000000000000000000000000000000000000000000000000000000000000000000000000196500
070215452001000001057449052000100000010000000000000000000000000000000000000000000000000000000000000000086860000000000000000000000000000000000013140000000001314000000000131400000000000000000000000000000000000131400
070215452001000002042339030000100000050000000000000000000000000000000000000000000000000000000000000000330000000000000000000000000000000000000168172000000016817200000001681720000000000000000000000000000000001700000
070215452001000002042339039000100000200000000000000000000000002450000000000000000000000000000000000001294265100000000000000000000000000000003149532100000307953210000030795321000000000000000000000000000000031557349
070215452001000002042449052000100000002000000000000000000000000000000000000000000000000000000000000000000000000000000000000000000000000000000000000000000000000000000000000000000000000000000000000000000000000200000
070215452001000002043339030000100000050000000000000000000000000062750000000000000000000000000000000000000000000000000000000000000000000000000516067500000051606750000005160675000000000000000000000000000000005627500
070215452001000002043339039000100000030000000000000000000000000318512400000000000000000000000000000000179000000000000000000000000000000000000435194800000043519480000004351948000000000000000000000000000000004395124
070215452001000002043449052000100000002000000000000000000000000000000000000000000000000000000000000000000000000000000000000000000000000000000014950000000001495000000000149500000000000000000000000000000000000200000
070215452001000002044339030000100000010000000000000000000000000000000000000000000000000000000000000000090000000000000000000000000000000000000006800000000000680000000000068000000000000000000000000000000000000100000
070215452001000002044339039000100000010000000000000000000000000000000000000000000000000000000000000000096000000000000000000000000000000000000000000000000000000000000000000000000000000000000000000000000000000040000
070215452001700002045339030000100000050000000000000000000000000000000000000000000000000000000000000000242500000000000000000000000000000000000252623500000025262350000002526235000000000000000000000000000000002575000
070215452001700002045339039000100000100000000000000000000000001547350000000000000000000000000000000000140270200000000000000000000000000000002287088700000228708870000021403620000000000000000000000000000000024070798
070217512001700002046339030000100000003000000000000000000000000399300000000000000000000000000000000000000000000000000000000000000000000000000425821300000042582130000004258213000000000000000000000000000000004293000
070217512001700002046339039000100000002000000000000000000000000014500000000000000000000000000000000000017200000000000000000000000000000000000014300000000001430000000000143000000000000000000000000000000000000173000
070226782000600001078449051000100000000000000000000000000000000445000000000250000000000000000000000000000000000000000000000000000000000000002940499800000294049980000029404998000000000000000000000000000000029450000
070226782000600001078449051101000000000000000000000000000000000000000000000063042090000000000000000000630420900000000000000000000000000000000000000000000000000000000000000000000000000000000000000000000000000000000
070315451001700002040339030000100000030000000000000000000000000010800000000000000000000000000000000000100000000000000000000000000000000000000208014900000020801490000002080149000000000000000000000000000000002108000
070315451001700002040339039000100000030000000000000000000000000000000000000000000000000000000000000000200800000000000000000000000000000000000022130000000002213000000000221300000000000000000000000000000000000992000
070326782000200002047339030000100000000500000000000000000000000000000000000000000000000000000000000000000000000000000000000000000000000000000000000000000000000000000000000000000000000000000000000000000000000050000
070326782000200002047339031000100000000300000000000000000000000000000000000000000000000000000000000000000000000000000000000000000000000000000000000000000000000000000000000000000000000000000000000000000000000030000
070326782000200002047339039000100000000200000000000000000000000005600000000000000000000000000000000000000000000000000000000000000000000000000003770000000000377000000000037700000000000000000000000000000000000076000
070326782001800002048339030000100000010000000000000000000000000000000000000000000000000000000000000000037600000000000000000000000000000000000005506000000000550600000000055060000000000000000000000000000000000624000
070326782001800002048339030111400000000000000000000000000000000001096700000000000000000000000000000000000000000000000000000000000000000000000001096700000000109670000000010967000000000000000000000000000000000010967
070326782001800002048339039000100000005000000000000000000000000000000000000000000000000000000000000000006000000000000000000000000000000000000019500800000001950080000000195008000000000000000000000000000000000440000
080110122000500002049319011004000000297900000000000000000000000192000000000000000000000000000000000000292785000000000000000000000000000000002878215000000287821500000028782150000000000000000000000000000000028782150
080110122000500002049319013004000000031500000000000000000000000056000000000000000000000000000000000000022000000000000000000000000000000000000344757200000034475720000003447572000000000000000000000000000000003490000
080110122000500002049319016004000000001000000000000000000000000000000000000000000000000000000000000000010000000000000000000000000000000000000000000000000000000000000000000000000000000000000000000000000000000000000
080110122000500002049319094004000000000500000000000000000000000000000000000000000000000000000000000000005000000000000000000000000000000000000000000000000000000000000000000000000000000000000000000000000000000000000
080110122000500002049319113004000000019800000000000000000000000000351200000000000000000000000000000000143000000000000000000000000000000000000055351200000005535120000000553512000000000000000000000000000000000553512
080110122000500002049339014004000000010000000000000000000000000005000000000000000000000000000000000000075500000000000000000000000000000000000027442900000002744290000000274429000000000000000000000000000000000295000
080110122000500002049339030004000000010000000000000000000000000040987800000000000000000000000000000000000000000000000000000000000000000000000140983900000014098390000001409839000000000000000000000000000000001409878
080110122000500002049339033004000000010000000000000000000000000000000000000000000000000000000000000000080000000000000000000000000000000000000010656500000001065650000000106565000000000000000000000000000000000200000
080110122000500002049339039004000000055000000000000000000000000000000000000000000000000000000000000000259000000000000000000000000000000000000267576700000026757670000002621767000000000000000000000000000000002910000
080110122000500002049339046004000000035000000000000000000000000045224000000000000000000000000000000000010000000000000000000000000000000000000385224000000038522400000003852240000000000000000000000000000000003852240
080110122000500002049449052004000000005000000000000000000000000005000000000000000000000000000000000000030000000000000000000000000000000000000023200000000002320000000000232000000000000000000000000000000000000250000
080110301000600001045449052493100000005000000000000000000000000000000000000000000000000000000000000000000000000000000000000000000000000000000000000000000000000000000000000000000000000000000000000000000000000500000
080110301000600001046449052493100000050000000000000000000000000000000000000000000000000000000000000000000000000000000000000000000000000000000000000000000000000000000000000000000000000000000000000000000000005000000
080110301000600001048449052493100000045000000000000000000000000000000000000000000000000000000000000000000000000000000000000000000000000000000000000000000000000000000000000000000000000000000000000000000000004500000
080110301000600001072449052493100000000000000000000000000000000000000000000110050080000000000000000000000000000000000000000000000000000000000955946000000092405450000009240545000000000000000000000000000000011005008
080110301000600001073449052493100000000000000000000000000000000000000000000059038420000000000000000000000000000000000000000000000000000000000184589000000016393050000001639305000000000000000000000000000000005903842
080110301000600001082449052004000000000000000000000000000000000066000000000000000000000000000000000000066000000000000000000000000000000000000000000000000000000000000000000000000000000000000000000000000000000000000
080110301000600001082449052493600000000000000000000000000000000000000000000080000000000000000000000000000000000000000000000000000000000000000795000000000079500000000007950000000000000000000000000000000000008000000
080110301000600002050339030004000000003000000000000000000000000015000000000000000000000000000000000000014000000000000000000000000000000000000018757100000001875710000000187571000000000000000000000000000000000310000
080110301000600002050339030452000000000000000000000000000000000041546000000000000000000000000000000000000000000000000000000000000000000000000041546000000004154600000000415460000000000000000000000000000000000415460
080110301000600002050339031004000000000800000000000000000000000000000000000000000000000000000000000000000000000000000000000000000000000000000000000000000000000000000000000000000000000000000000000000000000000080000
080110301000600002050339032004000000001000000000000000000000000000000000000000000000000000000000000000003000000000000000000000000000000000000000000000000000000000000000000000000000000000000000000000000000000070000
080110301000600002050339039004000000001000000000000000000000000000000000000000000000000000000000000000005000000000000000000000000000000000000000000000000000000000000000000000000000000000000000000000000000000050000
080110301000600002051339030004000000005000000000000000000000000010000000000000000000000000000000000000045400000000000000000000000000000000000013098000000001309800000000130980000000000000000000000000000000000146000
080110301000600002051339039004000000004000000000000000000000000034000000000000000000000000000000000000023000000000000000000000000000000000000043000000000004300000000000430000000000000000000000000000000000000510000
080110301000600002052319004004000000030000000000000000000000000000000000000000000000000000000000000000226265700000000000000000000000000000000061976600000006197660000000619766000000000000000000000000000000000737343
080110301000600002052319004452000000000000000000000000000000000130000000000000000000000000000000000000083497900000000000000000000000000000000046502100000004650210000000465021000000000000000000000000000000000465021
080110301000600002052339030004000000002000000000000000000000000000000000000000000000000000000000000000020000000000000000000000000000000000000000000000000000000000000000000000000000000000000000000000000000000000000
080110301000600002052339039004000000001000000000000000000000000000000000000000000000000000000000000000010000000000000000000000000000000000000000000000000000000000000000000000000000000000000000000000000000000000000
080110301000600002052449052004000000001000000000000000000000000000000000000000000000000000000000000000010000000000000000000000000000000000000000000000000000000000000000000000000000000000000000000000000000000000000
080110301000600002053339030004000000003000000000000000000000000010000000000000000000000000000000000000025000000000000000000000000000000000000004650800000000465080000000046508000000000000000000000000000000000150000
080110301000600002053339039004000000001500000000000000000000000000000000000000000000000000000000000000010000000000000000000000000000000000000000000000000000000000000000000000000000000000000000000000000000000050000
080110301000600002054339030004000000002000000000000000000000000000000000000000000000000000000000000000015000000000000000000000000000000000000000000000000000000000000000000000000000000000000000000000000000000050000
080110301000600002054339031004000000000400000000000000000000000000000000000000000000000000000000000000000000000000000000000000000000000000000000000000000000000000000000000000000000000000000000000000000000000040000
080110301000600002054339032004000000002000000000000000000000000000000000000000000000000000000000000000015000000000000000000000000000000000000000000000000000000000000000000000000000000000000000000000000000000050000
080110301000600002054339039004000000001000000000000000000000000000000000000000000000000000000000000000000000000000000000000000000000000000000000000000000000000000000000000000000000000000000000000000000000000100000
080110301000600002055339030452100000025000000000000000000000000000000000000000000000000000000000000000156000000000000000000000000000000000000000000000000000000000000000000000000000000000000000000000000000000940000
080110301000600002055339039452100000027800000000000000000000000000000000000000000000000000000000000000198500000000000000000000000000000000000025365700000002536570000000253657000000000000000000000000000000000795000
080110301000600002056319011004000000016170000000000000000000000030000000000000000000000000000000000000012089700000000000000000000000000000000179610300000017961030000001796103000000000000000000000000000000001796103
080110301000600002056319011416000000024000000000000000000000000010000000000000000000000000000000000000008680400000000000000000000000000000000241319600000024131960000002413196000000000000000000000000000000002413196
080110301000600002056319016004000000000500000000000000000000000000000000000000000000000000000000000000005000000000000000000000000000000000000000000000000000000000000000000000000000000000000000000000000000000000000
080110301000600002056319094004000000000500000000000000000000000000000000000000000000000000000000000000005000000000000000000000000000000000000000000000000000000000000000000000000000000000000000000000000000000000000
080110301000600002056319113004000000005300000000000000000000000010000000000000000000000000000000000000005416600000000000000000000000000000000057583400000005758340000000575834000000000000000000000000000000000575834
080110301000600002056339014004000000000500000000000000000000000005400000000000000000000000000000000000002500000000000000000000000000000000000007804400000000780440000000078044000000000000000000000000000000000079000
080110301000600002056339030004000000002000000000000000000000000017500000000000000000000000000000000000000000000000000000000000000000000000000035975100000003597510000000359751000000000000000000000000000000000375000
080110301000600002056339033004000000000500000000000000000000000005500000000000000000000000000000000000003000000000000000000000000000000000000007228000000000722800000000072280000000000000000000000000000000000075000
080110301000600002056339039004000000001000000000000000000000000000000000000000000000000000000000000000010000000000000000000000000000000000000000000000000000000000000000000000000000000000000000000000000000000000000
080110301000600002056339046004000000004200000000000000000000000011794000000000000000000000000000000000001000000000000000000000000000000000000052794000000005279400000000527940000000000000000000000000000000000527940
080110301000600002057319004004000000003000000000000000000000000252000000000000000000000000000000000000000000000000000000000000000000000000000281842000000028184200000002818420000000000000000000000000000000002820000
080110301000600002057319011004000000100000000000000000000000000086000000000000000000000000000000000000000844800000000000000000000000000000001085155200000108515520000010851552000000000000000000000000000000010851552
080110301000600002057319011451000000000000000000000000000000000510000000000000000000000000000000000000108041400000000000000000000000000000000401958600000040195860000004019586000000000000000000000000000000004019586
080110301000600002057319011452000000053520000000000000000000000000000000000000000000000000000000000000110274000000000000000000000000000000000424926000000042492600000004249260000000000000000000000000000000004249260
080110301000600002057319011452100000000000000000000000000000000035000000000000000000000000000000000000002096200000000000000000000000000000000032903800000003290380000000329038000000000000000000000000000000000329038
080110301000600002057319016004000000000500000000000000000000000000000000000000000000000000000000000000005000000000000000000000000000000000000000000000000000000000000000000000000000000000000000000000000000000000000
080110301000600002057319094004000000000500000000000000000000000000000000000000000000000000000000000000005000000000000000000000000000000000000000000000000000000000000000000000000000000000000000000000000000000000000
080110301000600002057319113004000000018000000000000000000000000060000000000000000000000000000000000000012559700000000000000000000000000000000227440300000022744030000002274403000000000000000000000000000000002274403
080110301000600002057339014004000000000500000000000000000000000000500000000000000000000000000000000000000000000000000000000000000000000000000005381600000000538160000000053816000000000000000000000000000000000055000
