87612826000190010120183112201801012019PREFEITURA MUNICIPAL INDEPENDENCIA                                              
000001000000000000000201000244428290900025063393140000RECEITAS CORRENTES                                                                                                                                                        S01000
000001100000000000000201000012786459200001548496760000RECEITA TRIBUTARIA                                                                                                                                                        S02000
000001110000000000000201000012282189200001492628500000IMPOSTOS                                                                                                                                                                  S03000
000001112000000000000201000009830579200001223699740000IMPOSTOS SOBRE O PATRIMONIO E A RENDA                                                                                                                                     S04000
000001112020000000000201000002780870000000324343700000IMPOSTO SOBRE A PROPRIEDADE PREDIAL E TERRITORIAL URBANA – IPTU                                                                                                           S05000
000001112020001000000201000001668522000000194603670001IPTU - PROPRIO                                                                                                                                                            A07000
000001112020002000000201000000695217500000081087960020IPTU - MDE                                                                                                                                                                A07000
000001112020003000000201000000417130500000048652070040IPTU - ASPS                                                                                                                                                               A07000
000001112040000000000201000003634790000000444255060000IMPOSTO SOBRE A RENDA E PROVENTOS DE QUALQUER NATUREZA                                                                                                                    S05000
000001112043100000000201000003634790000000444255060000IMPOSTO DE RENDA RETIDO NAS FONTES SOBRE OS RENDIMENTOS DO TRABALHO                                                                                                       S06000
000001112043101000000201000003223380000000341648910000IRRF SOBRE RENDIMENTOS DO TRABALHO - ATIVOS/INATIVOS DO PODER EXECUTIVO/INDIRETAS                                                                                         S07000
000001112043101010000201000001934028000000204989320001IRRF - ATIVO/INATIVO-EXECUTIVO/INDIRETA - PROPRIO                                                                                                                         A08000
000001112043101020000201000000805845000000085412250020IRRF - ATIVO/INATIVO-EXECUTIVO/INDIRETA - MDE                                                                                                                             A08000
000001112043101030000201000000483507000000051247340040IRRF - ATIVO/INATIVO-EXECUTIVO/INDIRETA - ASPS                                                                                                                            A08000
000001112043102000000201000000177230000000051663270000IRRF SOBRE RENDIMENTOS DO TRABALHO - ATIVOS/INATIVOS DO PODER LEGISLATIVO                                                                                                 S07000
000001112043102010000201000000106338000000030997940001IRRF - ATIVO/INATIVO-LEGISLATIVO - PROPRIO                                                                                                                                A08000
000001112043102020000201000000044307500000012915840020IRRF - ATIVO/INATIVO-LEGISLATIVO - MDE                                                                                                                                    A08000
000001112043102030000201000000026584500000007749490040IRRF - ATIVO/INATIVO-LEGISLATIVO - ASPS                                                                                                                                   A08000
000001112043103000000201000000234180000000050942880000IRRF SOBRE RENDIMENTOS DO TRABALHO - INATIVOS PAGOS PELO RPPS                                                                                                             S07000
000001112043103010000201000000140508000000030565720001IRRF - INATIVOS PAGOS PELO RPPS - PROPRIO                                                                                                                                 A08000
000001112043103020000201000000058545000000012735730020IRRF - INATIVOS PAGOS PELO RPPS - MDE                                                                                                                                     A08000
000001112043103030000201000000035127000000007641430040IRRF - INATIVOS PAGOS PELO RPPS - ASPS                                                                                                                                    A08000
000001112080000000000201000003414919200000455100980000IMPOSTO SOBRE TRANSMISSAO "INTER-VIVOS" DE BENS IMOVEIS E DE DIREITOS REAIS SOBRE IMOVEIS – ITBI                                                                          S05000
000001112080001000000201000002048951500000273060580001ITBI - PROPRIO                                                                                                                                                            A07000
000001112080002000000201000000853729800000113775250020ITBI - MDE                                                                                                                                                                A07000
000001112080003000000201000000512237900000068265150040ITBI - ASPS                                                                                                                                                               A07000
000001113000000000000201000002451610000000268928760000IMPOSTOS SOBRE A PRODUCAO E A CIRCULACAO                                                                                                                                  S04000
000001113050000000000201000002451610000000268928760000IMPOSTO SOBRE SERVICOS DE QUALQUER NATUREZA                                                                                                                               S05000
000001113050100000000201000002451610000000268928760000IMPOSTO SOBRE SERVICOS DE QUALQUER NATUREZA                                                                                                                               S06000
000001113050101000000201000001470966000000161356710001ISS - PROPRIO                                                                                                                                                             A07000
000001113050102000000201000000612902500000067232720020ISS - MDE                                                                                                                                                                 A07000
000001113050103000000201000000367741500000040339330040ISS - ASPS                                                                                                                                                                A07000
000001120000000000000201000000504270000000055868260000TAXAS                                                                                                                                                                     S03000
000001121000000000000201000000362090000000038287640000TAXAS PELO EXERCICIO DO PODER DE POLICIA                                                                                                                                  S04000
000001121170000000000201000000025640000000002366000001TAXA DE FISCALIZACAO DE VIGILANCIA SANITARIA                                                                                                                              A05000
000001121210000000000201000000047320000000006078001005TAXA DE CONTROLE E FISCALIZACAO AMBIENTAL                                                                                                                                 A05000
000001121250000000000201000000289130000000029843640001TAXA DE LICENCA PARA FUNCIONAMENTO DE ESTABELECIMENTOS COMERCIAIS, INDUSTRIAIS E PRESTADORAS DE SERV                                                                      A05000
000001122000000000000201000000142180000000017580620000TAXAS PELA PRESTACAO DE SERVICOS                                                                                                                                          S04000
000001122120000000000201000000091880000000017580620001EMOLUMENTOS E CUSTAS PROCESSUAIS ADMINISTRATIVAS                                                                                                                          A05000
000001122990000000000201000000050300000000000000000000OUTRAS TAXAS PELA PRESTACAO DE SERVICOS                                                                                                                                   S05000
000001122990004000000201000000050300000000000000000001TAXA DE EMISSAO DE CERTIDOES                                                                                                                                              A07000
000001200000000000000201000008257720000000801241880000RECEITAS DE CONTRIBUICOES                                                                                                                                                 S02000
000001210000000000000201000007075140000000692277670000CONTRIBUICOES SOCIAIS                                                                                                                                                     S03000
000001210290000000000201000007075140000000692277670000CONTRIBUICOES PARA O REGIME PROPRIO DE PREVIDENCIA DO SERVIDOR PUBLICO                                                                                                    S05000
000001210290700000000201000007075140000000692277670050SEGURADOS - CONTRIBUICAO DO SERVIDOR ATIVO CIVIL PARA O REGIME PROPRIO                                                                                                    A06000
000001230000000000000201000001182580000000108964210001CONTRIBUICAO PARA O CUSTEIO DO SERVICO DE ILUMINACAO PUBLICA                                                                                                              A03000
000001300000000000000201000013924286200002451384420000RECEITA PATRIMONIAL                                                                                                                                                       S02000
000001310000000000000201000001650460000000169810500000RECEITAS IMOBILIARIAS                                                                                                                                                     S03000
000001311000000000000201000001650460000000169810500000ALUGUEIS                                                                                                                                                                  S04000
000001311000004000000201000001650460000000169810500001ALUGUEL DE IMOVEIS PUBLICOS                                                                                                                                               A07000
000001320000000000000201000012273826200002281573920000RECEITAS DE VALORES MOBILIARIOS                                                                                                                                           S03000
000001325000000000000201000001404446200000215867150000REMUNERACAO DE DEPOSITOS BANCARIOS                                                                                                                                        S04000
000001325010000000000201000000407336200000057215060000REMUNERACAO DE DEPOSITOS DE RECURSOS VINCULADOS                                                                                                                           S05000
000001325010200000000201000000102540000000014545600000RECEITA DE REMUNERACAO DE DEPOSITOS  BANCARIOS DE RECURSOS VINCULADOS - FUNDEB                                                                                            S06000
000001325010201000000201000000102540000000014545600031742- FUNDEB 0031 FF RENDIMENTOS                                                                                                                                           A07000
000001325010300000000201000000204814400000025799160000RECEITA DE REMUNERACAO DE DEPOSITOS  BANCARIOS DE RECURSOS VINCULADOS - FUNDO DE SAUDE                                                                                    S06000
000001325010301000000201000000182369100000015602480000RENDIMENTOS BANCARIOS FMS FONTE FEDERAL                                                                                                                                   S07000
00000132501030101000020100000012155000000000503782451012569-PAB FIXO FF REMUNEARACAO BANCARIA                                                                                                                                   A08000
00000132501030102000020100000001640000000000154784450312576- FarmaciaCOMPONENTE BASICO ASSISTENCIA FARMACEUTICA FF REMUNERACAO BANCARIA                                                                                         A08000
000001325010301040000201000000000000000000000851974710594-PQAVS-PROGRAMA DE QUALIFICACAO DAS ACOES DE VIGILANCIA EM SAUDE-RENDIMENTOS                                                                                           A08000
000001325010301050000201000000000000000000000158364510607-PROGRAMA DE REQUALIFICACAO DE UBS - INFORMATIZACAO E TELESSAUDE - REMUN. BANCARIA                                                                                     A08000
00000132501030108000020100000000000000000000143988476012352- ACOES ESTRUT VISA FMS RENDIMENTOS                                                                                                                                  A08000
000001325010301090000201000000000000000000001128844720652- RENDIMENTOS APERFEICOAMENTO DO SUS RV4720                                                                                                                            A08000
000001325010301100000201000000018840000000000000004710655-RENDIMENTOS PPI- PISO FIXO DE VIGILANCIA EM SAUDE (PFVS) RV 4710                                                                                                      A08000
000001325010301110000201000000000000000000000168394710678- RENDIMENTOS IPVS INCENTIVOS PONTUAIS VISA                                                                                                                            A08000
0000013250103011200002010000000245791000000040158145901342-RENDIMENTOS AQUISICAO DE PRODUTOS MEDICOS DE USO UNICO MAC FF RV4590                                                                                                 A08000
0000013250103011400002010000000010000000000012527345211740 - RENDIMENTOS PMAQ FF RV4521                                                                                                                                         A08000
0000013250103011600002010000000000000000000000008445203419- RENDIMENTOS IMPLANTACAO DO NASF 4520                                                                                                                                A08000
000001325010302000000201000000022445300000010196680000RENDIMENTOS BANCARIOS FMS FONTE ESTADUAL                                                                                                                                  S07000
000001325010302010000201000000004090000000000045544190386-Dengue VIGILANCIA EPIDEMIOLOGICA E AMBIENTAL FE REMUNERACAO BANCARIA                                                                                                  A08000
000001325010302020000201000000011028200000001150564011221-INCENTIVO ESTADUAL A ATENCAO BASICA REMUNEARACAO BANCARIA                                                                                                             A08000
000001325010302030000201000000003090000000000241744050470-COMPONENTE BASICO ASSISTENCIA FARMACEUTICA FE REMUNERACAO BANCARIA                                                                                                    A08000
000001325010302050000201000000000000000000002693994111253-PROTESE DENTARIA RES. CIB/RC 034/12 REMUNERACAO BANCARIA                                                                                                              A08000
000001325010302060000201000000000000000000000255174160471-PIM FE REMUNERACAO BANCARIA                                                                                                                                           A08000
000001325010302080000201000000000000000000003803024303474- CONSTRUCAO DE UBS FE RENDIMENTOS                                                                                                                                     A08000
000001325010302100000201000000000313300000000036674011666-RENDIMENTOS DO INCENTIVO A QUALIFICACAO DO PRE-NATAL REDE CEGONHA RV4011 FE                                                                                           A08000
000001325010302110000201000000003441700000000402784011660-RENDIMENTOS INCENTIVO ADEQUACAO MODERNIZACAO UBS RV4011 FE                                                                                                            A08000
000001325010302120000201000000000000000000001014064090664-RENDIMENTOS PROGRAMA DE COMBATE AO RACISMO RV 4090 FE                                                                                                                 A08000
000001325010302130000201000000000000000000000496734050687-AQUISICAO E DISPENSACAO DE FRALDAS FE RV4050 RENDIMENTOS                                                                                                              A08000
0000013250103021400002010000000004821000000000564240111734-REND. INCENTIVO P/ CONTROLE DA TUBERCULOSE (PMCT) NA ATENCAO BASICA 4011 FE RES CIBS 507/11                                                                          A08000
000001325011000000000201000000051500900000005534880000RECEITA DE REMUNERACAO DE DEPOSITOS  BANCARIOS DE RECURSOS DO FNAS                                                                                                        S06000
0000013250110010000002010000000141100000000011846110381709 -IGDBF- CADASTRO DE PROGRAMAS SOCIAIS IGD-BF FF                                                                                                                      A07000
0000013250110020000002010000000072100000000010509010641705 -PAIF REMUNERACAO BANCARIA                                                                                                                                           A07000
0000013250110030000002010000000009609000000001139110201707 - PBV II FF REMUNERACAO BANCARIA                                                                                                                                     A07000
0000013250110040000002010000000055500000000004871810671711 - IGD SUAS REMUNERACAO BANCARIA                                                                                                                                      A07000
0000013250110050000002010000000236700000000026982810211706 - SCFV-RENDIMENTOS PBV - SCFV SERVICO DE FORNTALECIMENTO DE VINCULOS RV 1021 FF                                                                                      A07000
000001325011100000000201000000023060900000005129960000RECEITA DE REMUNERACAO DE DEPOSITOS  BANCARIOS DE RECURSOS DO FNDE                                                                                                        S06000
000001325011101000000201000000004822100000000482211001499-PNAE FUNDAMENTAL- REMUNERACAO BANCARIA                                                                                                                                A07000
000001325011102000000201000000002310000000000359841016714- PNATE REMUNERACAO BANCARIA                                                                                                                                           A07000
00000132501110300000020100000001592880000000159288101412348- QSE REMUNERACAO BANCARIA                                                                                                                                           A07000
000001325011107000000201000000000000000000000041941036487-RENDIMENTOS PDDE-TRANSFERENCIAS DIRETAS DO FNDE PARA PROGRAMA DINHEIRO DIRETO NA ESCOLA                                                                               A07000
000001325011111000000201000000000000000000002459741070496-PNAE MAIS EDUCACAO FUNDAMENTAL RV 1070 REMUN DEP BCO                                                                                                                  A07000
000001325011112000000201000000000000000000000193121071498- RENDIMENTOS PNAE ALIMENTACAO ESPECIAL RV 1071                                                                                                                        A07000
000001325011113000000201000000000000000000000000231059505-RENDIMENTOS PNAE EJA RV 1059                                                                                                                                          A07000
000001325019900000000201000000025420000000006205460000RECEITA DE REMUNERACAO DE OUTROS DEPOSITOS BANCARIOS DE RECURSOS VINCULADOS                                                                                               S06000
000001325019901000000201000000008170000000001413011005530-FUNDO DO MEIO AMBIENTE RENDIMENTOS                                                                                                                                    A07000
000001325019904000000201000000010230000000004471570000RECEITA DE REMUNERACAO DE OUTROS RECURSOS VINCULADOS A EDUCACAO                                                                                                           S07000
00000132501990401000020100000001023000000000435479101712453- TE- TRANSPORTE ESCOLAR FE REMUNERACAO BANCARIA                                                                                                                     A08000
000001325019904020000201000000000000000000000116781009650- RENDIMENTOS DO PASSE LIVRE ESTUDANTIL FE RV 1009                                                                                                                     A08000
0000013250199070000002010000000070200000000003208810501718- (5321 VELHA)- IR DOACAO REMUNERACAO BANCARIA RV 1050                                                                                                                A07000
000001325020000000000201000000997110000000158652090000REMUNERACAO DE DEPOSITOS DE RECURSOS NAO VINCULADOS                                                                                                                       S05000
000001325029900000000201000000997110000000158652090000RECEITA DE REMUNERACAO DE OUTROS DEPOSITOS DE RECURSOS NAO VINCULADOS                                                                                                     S06000
000001325029901000000201000000932060000000149709600000REMUNERACAO BANCARIA - PODER EXECUTIVO                                                                                                                                    S07000
00000132502990101000020100000093206000000008190551000111027- BANCO DO BRASIL REMUNERACAO BANCARIA - PODER EXECUTIVO                                                                                                             A08000
00000132502990102000020100000000000000000006780409000112366- BANRISUL REMUNERACAO BANCARIA - PODER EXECUTIVO                                                                                                                    A08000
000001325029902000000201000000065050000000008942490000REMUNERACAO BANCARIA - PODER LEGISLATIVO                                                                                                                                  S07000
000001325029902010000201000000065050000000000000000001272- BANCO DO BRASIL REMUNERACAO BANCARIA - PODER LEGISLATIVO                                                                                                             A08000
000001325029902020000201000000000000000000008942490001244- BANRISUL REMUNERACAO BANCARIA - PODER LEGISLATIVO                                                                                                                    A08000
000001328000000000000201000010869380000002065706770000REMUNERACAO DOS INVESTIMENTOS DO REGIME PROPRIO DE PREVIDENCIA DO SERVIDOR                                                                                                S04000
000001328100000000000201000010869380000002065706770000REMUNERACAO DOS INVESTIMENTOS DO REGIME PROPRIO DE PREVIDENCIA DO SERVIDOR EM RENDA FIXA                                                                                  S05000
000001328100100000000201000010869380000000454737760050488 - FPSM  - BB PREVID RF IMA-B TIT PUBL FI                                                                                                                              A06000
000001328100200000000201000000000000000000327778040050489 - FPSM  - BB RF IMAB 5+                                                                                                                                               A06000
000001328100300000000201000000000000000000171002340050490 - FPSM - CEF Novo Brasil RF LP                                                                                                                                        A06000
000001328100600000000201000000000000000000421070230050515 - FPSM  CEF FI BRASIL IRF-M 1 TIT PUB RF                                                                                                                              A06000
000001328100700000000201000000000000000000002070920050622 - FPSM  BB PREVIDENCIARIO RF TP VIII FI                                                                                                                               A06000
000001328100800000000201000000000000000000305534800050631 - FPSM CEF CAIXA BRASIL 2024 III TP RF                                                                                                                                A06000
0000013281009000000002010000000000000000003835126800501344 - FPSM BB PREV RF IRF-M1 TP                                                                                                                                          A06000
000001600000000000000201000000363880000000080091500000RECEITA DE SERVICOS                                                                                                                                                       S02000
000001600020000000000201000000000000000000004883000000SERVICOS FINANCEIROS                                                                                                                                                      S05000
000001600029900000000201000000000000000000004883000001OUTROS SERVICOS FINANCEIROS                                                                                                                                               A06000
000001600030000000000201000000000000000000001176000000SERVICOS DE TRANSPORTE                                                                                                                                                    S05000
000001600030100000000201000000000000000000001176000001SERVICOS DE TRANSPORTE RODOVIARIO                                                                                                                                         A06000
000001600170000000000201000000000000000000038657500001SERVICOS AGROPECUARIOS                                                                                                                                                    A05000
000001600500000000000201000000000000000000013220000001TARIFAS DE INSCRICAO EM CONCURSOS E PROCESSOS SELETIVOS                                                                                                                   A05000
000001600990000000000201000000363880000000022155000000OUTROS SERVICOS                                                                                                                                                           S05000
000001600990001000000201000000363880000000022155000001SERVICO DE MAQUINAS                                                                                                                                                       A07000
000001700000000000000201000206573955500019660819810000TRANSFERENCIAS CORRENTES                                                                                                                                                  S02000
000001720000000000000201000203295250500019323458590000TRANSFERENCIAS INTERGOVERNAMENTAIS                                                                                                                                        S03000
000001721000000000000201000098699015500009113207490000TRANSFERENCIAS DA UNIAO                                                                                                                                                   S04000
000001721010000000000201000084736060000007598032860000PARTICIPACAO NA RECEITA DA UNIAO                                                                                                                                          S05000
000001721010200000000201000078088090000006918993960000COTA-PARTE DO FUNDO DE PARTICIPACAO DOS MUNICiPIOS - COTA MENSAL                                                                                                          S06000
000001721010201000000201000046084964000004151396330001FPM- COTA-PARTE DO FUNDO DE PARTICIPACAO DOS MUNICIPIOS - COTA MENSAL - PROPRIO                                                                                           A07000
000001721010202000000201000005742654500000345949720020COTA-PARTE DO FUNDO DE PARTICIPACAO DOS MUNICIPIOS - COTA MENSAL - MDE                                                                                                    A07000
000001721010204000000201000011729853500001037849110040COTA-PARTE DO FUNDO DE PARTICIPACAO DOS MUNICIPIOS - COTA MENSAL - ASPS                                                                                                   A07000
000001721010206000000201000014530618000001383798800031COTA-PARTE DO FPM - FUNDEB                                                                                                                                                A07000
000001721010300000000201000003229030000000307589820000COTA-PARTE DO FUNDO DE PARTICIPACAO DOS MUNICIPIOS – 1% COTA ENTREGUE NO MES DE DEZEMBRO                                                                                  S06000
000001721010301000000201000003229030000000184553890001COTA-PARTE DO FUNDO DE PARTICIPACAO DOS MUNICIPIOS - 1% COTA ENTREGUE NO MES DE DEZEMBRO - PROPRIO                                                                        A07000
000001721010302000000201000000000000000000076897460020COTA-PARTE DO FUNDO DE PARTICIPACAO DOS MUNICIPIOS - 1% COTA ENTREGUE NO MES DE DEZEMBRO - MDE                                                                            A07000
000001721010303000000201000000000000000000046138470040COTA-PARTE DO FUNDO DE PARTICIPACAO DOS MUNICIPIOS - 1% COTA ENTREGUE NO MES DE DEZEMBRO - ASPS                                                                           A07000
000001721010400000000201000003229030000000317350910000COTA-PARTE DO FUNDO DE PARTICIPACAO DOS MUNICIPIOS - 1% COTA ENTREGUE NO MES DE JULHO                                                                                     S06000
000001721010401000000201000003229030000000190410540001COTA-PARTE DO FUNDO DE PARTICIPACAO DOS MUNICIPIOS - 1% COTA ENTREGUE NO MES DE JULHO - PROPRIO                                                                           A07000
000001721010402000000201000000000000000000079337730020COTA-PARTE DO FUNDO DE PARTICIPACAO DOS MUNICIPIOS - 1% COTA ENTREGUE NO MES DE JULHO - MDE                                                                               A07000
000001721010403000000201000000000000000000047602640040COTA-PARTE DO FUNDO DE PARTICIPACAO DOS MUNICIPIOS - 1% COTA ENTREGUE NO MES DE JULHO - ASPS                                                                              A07000
000001721010500000000201000000189910000000054098170000COTA-PARTE DO IMPOSTO SOBRE A PROPRIEDADE TERRITORIAL RURAL – ITR                                                                                                         S06000
000001721010501000000201000000113946000000032458900001ITR- COTA-PARTE DO ITR - PROPRIO                                                                                                                                          A07000
000001721010502000000201000000009495500000002704900020COTA-PARTE DO ITR - MDE                                                                                                                                                   A07000
000001721010503000000201000000028486500000008114730040COTA-PARTE DO ITR - ASPS                                                                                                                                                  A07000
000001721010504000000201000000037982000000010819640031COTA-PARTE DO ITR - FUNDEB                                                                                                                                                A07000
000001721220000000000201000000788410000000080370610000TRANSFERENCIA DA COMPENSACAO FINANCEIRA PELA EXPLORACAO DE RECURSOS NATURAIS                                                                                              S05000
000001721227000000000201000000788410000000080370610001FEP- COTA-PARTE DO FUNDO ESPECIAL DO PETROLEO – FEP                                                                                                                       A06000
000001721330000000000201000007672085400000867095440000TRANSFERENCIA DE RECURSOS DO SISTEMA UNICO DE SAUDE – SUS – REPASSES FUNDO A FUNDO                                                                                        S05000
000001721330100000000201000003073919600000307391964510PAB FIXO FF                                                                                                                                                               A06000
000001721330200000000201000001335600000000126430004520PSF FF                                                                                                                                                                    A06000
000001721330300000000201000001987440000000193674004520PACS                                                                                                                                                                      A06000
000001721330400000000201000000535200000000051290004520SAUDE BUCAL FF                                                                                                                                                            A06000
000001721330600000000201000000307964400000017527684710PFVS- PISO FIXO DE VIGILANCIA EM SAUDE PFVS FF                                                                                                                            A06000
000001721330700000000201000000000000000000000662374720TRANSFERENCIA PARA APERFEICOAMENTO DO SUS PARTE ANVISA RV4720                                                                                                             A06000
000001721330800000000201000000000000000000002337634720TRANSFERENCIA PARA APERFEICOAMENTO DO SUS PARTE FNS RV4720                                                                                                                A06000
000001721331100000000201000000000000000000006159304710PQAVS - PROGRAMA DE QUALIFICACAO DAS ACOES DE VIGILANCIA EM SAUDE                                                                                                         A06000
000001721331200000000201000000000000000000044924084710IPVS INCENTIVOS PONTUAIS VISA FF                                                                                                                                          A06000
000001721331300000000201000000342465600000035153564503FARMACIA FF -COMPONENTE BASICO DA ASSISTENCIA FARMACEUTICA                                                                                                                A06000
000001721331600000000201000000000000000000006676004520PSF PROGRAMA SAUDE NA ESCOLA RV4520                                                                                                                                       A06000
000001721331700000000201000000000000000000000119284520TESTES DE GRAVIDEZ RV4520 FF                                                                                                                                              A06000
000001721331900000000201000000088000000000050600004521PMAQ FF RV4521                                                                                                                                                            A06000
000001721332000000000201000000000000000000008000004520INCENTIVO PARA IMPLANTACAO DO NASF 4520                                                                                                                                   A06000
000001721332100000000201000000000000000000016000004520NASF 4520                                                                                                                                                                 A06000
000001721332200000000201000000001495800000000149584590TETO MUNICIPAL REDE CEGONHA (RCE-RCEG) RV4590 FF                                                                                                                          A06000
000001721340000000000201000001815940000000169541150000TRANSFERENCIAS DE RECURSOS DO FUNDO NACIONAL DE ASSISTENCIA SOCIAL – FNAS                                                                                                 S05000
000001721340100000000201000000176040000000018590001038IGD BF                                                                                                                                                                    A06000
000001721340200000000201000000042400000000012485881067IGD SUAS                                                                                                                                                                  A06000
000001721340400000000201000000517500000000060000001064PAIF                                                                                                                                                                      A06000
000001721340500000000201000001080000000000078465271021PBV SCFV                                                                                                                                                                  A06000
000001721350000000000201000003258820100000315301760000TRANSFERENCIAS DE RECURSOS DO FUNDO NACIONAL DO DESENVOLVIMENTO DA EDUCACAO – FNDE                                                                                        S05000
000001721350100000000201000002057083600000205708361014QSE - TRANSFERENCIAS DO SALARIO-EDUCACAO                                                                                                                                  A06000
000001721350200000000201000000011950000000001080001036TRANSFERENCIAS DIRETAS DO FNDE REFERENTES AO PROGRAMA DINHEIRO DIRETO NA ESCOLA – PDDE                                                                                    A06000
000001721350300000000201000000567720000000060380000000TRANSFERENCIAS DIRETAS DO FNDE REFERENTES AO PROGRAMA NACIONAL DE ALIMENTACAO ESCOLAR – PNAE                                                                              S06000
000001721350301000000201000000239040000000023904001001PNAE FUNDAMENTAL                                                                                                                                                          A07000
000001721350302000000201000000184000000000020544001031PNAE CRECHE                                                                                                                                                               A07000
000001721350303000000201000000135680000000013568001033PNAE PRE-ESCOLA                                                                                                                                                           A07000
000001721350304000000201000000000000000000001728001059PNAE JOVENS E ADULTOS                                                                                                                                                     A07000
000001721350306000000201000000009000000000000636001071PNAE EDUCACAO ESPECIAL                                                                                                                                                    A07000
000001721350400000000201000000622066500000047754601016PNATE TRANSFERENCIAS DIRETAS DO FNDE REFERENTES AO PROGRAMA NACIONAL APOIO AO TRANSPORTE DO ESCOLAR                                                                       A06000
000001721350600000000201000000000000000000000378801013BRASIL CARINHOSO RV1013 FF                                                                                                                                                A06000
000001721360000000000201000000427700000000042595680000TRANSFERENCIA FINANCEIRA DO ICMS – DESONERACAO – L.C. No 87/96                                                                                                            S05000
000001721360001000000201000000256620000000025557360001ICMS.EXP- TRANSFERENCIA FINANCEIRA - L.C.No 87/96 - PROPRIO                                                                                                               A07000
000001721360002000000201000000021385000000002129760020TRANSFERENCIA FINANCEIRA - L.C.No 87/96 - MDE                                                                                                                             A07000
000001721360004000000201000000064155000000006389400040TRANSFERENCIA FINANCEIRA - L.C.No 87/96 - ASPS                                                                                                                            A07000
000001721360005000000201000000085540000000008519160031TRANSFERENCIA FINANCEIRA - L.C.No 87/96 - FUNDEB                                                                                                                          A07000
000001721990000000000201000000000000000000040269990000OUTRAS TRANSFERENCIAS DA UNIAO                                                                                                                                            S05000
000001721990060000000201000000000000000000040269990001FEX FUNDO DE APOIO AS EXPORTACOES LEI 13.572/2017                                                                                                                         A07000
000001722000000000000201000079844420000007707660110000TRANSFERENCIAS DOS ESTADOS                                                                                                                                                S04000
000001722010000000000201000077028565600007456021230000PARTICIPACAO NA RECEITA DOS ESTADOS                                                                                                                                       S05000
000001722010100000000201000070749450000006878918440000COTA-PARTE DO ICMS                                                                                                                                                        S06000
000001722010101000000201000042449670000004127350990001ICMS- COTA-PARTE DO ICMS - PROPRIO                                                                                                                                        A07000
000001722010102000000201000003537472500000343945930020COTA-PARTE DO ICMS - MDE                                                                                                                                                  A07000
000001722010104000000201000010612417500001031837770040COTA-PARTE DO ICMS - ASPS                                                                                                                                                 A07000
000001722010105000000201000014149890000001375783750031COTA-PARTE DO ICMS - FUNDEB                                                                                                                                               A07000
000001722010200000000201000005140811000000453152130000COTA-PARTE DO IPVA                                                                                                                                                        S06000
000001722010201000000201000003084486500000271890970001IPVA- COTA-PARTE DO IPVA - PROPRIO                                                                                                                                        A07000
000001722010202000000201000000257040600000022657650020COTA-PARTE DO IPVA - MDE                                                                                                                                                  A07000
000001722010203000000201000000771121700000067972870040COTA-PARTE DO IPVA - ASPS                                                                                                                                                 A07000
000001722010204000000201000001028162200000090630640031COTA-PARTE DO IPVA - FUNDEB                                                                                                                                               A07000
000001722010400000000201000000940070000000103926990000COTA-PARTE DO IPI SOBRE EXPORTACAO                                                                                                                                        S06000
000001722010401000000201000000564042000000062356120001IPI- COTA-PARTE DO IPI/EXPORTACAO - PROPRIO                                                                                                                               A07000
000001722010402000000201000000047003500000005196380020COTA-PARTE DO IPI/EXPORTACAO - MDE                                                                                                                                        A07000
000001722010404000000201000000141010500000015589060040COTA-PARTE DO IPI/EXPORTACAO - ASPS                                                                                                                                       A07000
000001722010405000000201000000188014000000020785430031COTA-PARTE DO IPI/EXPORTACAO - FUNDEB                                                                                                                                     A07000
000001722011300000000201000000198234600000020023671018CIDE- COTA-PARTE DA CONTRIBUICAO DE INTERVENCAO NO DOMINIO ECONOMICO                                                                                                      A06000
000001722330000000000201000002807354400000251203570000TRANSFERENCIA DE RECURSOS DO ESTADO PARA PROGRAMAS DE SAUDE – REPASSE FUNDO A FUNDO                                                                                       S05000
000001722330100000000201000000726920000000084963234011PIES - INCENTIVO ESTADUAL A ATENCAO BASICA                                                                                                                                A06000
000001722330105020200201000000300000000000037800004050AQUISICAO E DISPENSACAO DE FRALDAS FE RV4050                                                                                                                              A08000
000001722330200000000201000001200000000000069000004090PSF FE                                                                                                                                                                    A06000
000001722330300000000201000000141960000000014196004090PACS FE                                                                                                                                                                   A06000
000001722330500000000201000000040000000000000000004190VIGILANCIA EPIDEMIOLOGICA FE                                                                                                                                              A06000
000001722330600000000201000000158474400000009244344050FARMACIA ESTADUAL- COMPONENTE BASICO DA ASSISTENCIA FARMACEUTICA FE                                                                                                       A06000
000001722331000000000201000000240000000000020000004160PIM                                                                                                                                                                       A06000
000001722331200000000201000000000000000000016000004090INCENTIVO ESF COM SEGUNDO ENFERMEIRO RES CIBRS 503/13 RV 4090                                                                                                             A06000
000001722990000000000201000000008500000000000435310000OUTRAS TRANSFERENCIAS DOS ESTADOS                                                                                                                                         S05000
000001722990003000000201000000008500000000000435311114COTA-PARTE DA MULTA DE TRANSITO                                                                                                                                           A07000
000001724000000000000201000024751815000002502590990000TRANSFERENCIAS MULTIGOVERNAMENTAIS                                                                                                                                        S04000
000001724010000000000201000024751815000002502590990031FUNDEB- TRANSFERENCIAS DE RECURSOS DO FUNDO DE MANUTENCAO E DESENVOLVIMENTO DA EDUCACAO BASICA E DE                                                                       A05000
000001750000000000000201000000000000000000009242550000TRANSFERENCIAS DE PESSOAS                                                                                                                                                 S03000
000001750000001000000201000000000000000000009242551050DOACOES EM BENEFICIO DE CRIANCAS E ADOLESCENTES - PF                                                                                                                      A07000
000001760000000000000201000003278705000000328118670000TRANSFERENCIAS DE CONVENIOS                                                                                                                                               S03000
000001762000000000000201000003278705000000328118670000TRANSFERENCIA DE CONVENIOS DOS ESTADOS E DO DISTRITO FEDERAL E DE SUAS ENTIDADES                                                                                          S04000
000001762020000000000201000003278705000000328118670000TRANSFERENCIAS DE CONVENIO DOS ESTADOS DESTINADAS A PROGRAMAS DE EDUCACAO                                                                                                 S05000
000001762020001000000201000003278705000000328118670000TRANSFERENCIAS DE CONVENIOS PARA O TRANSPORTE ESCOLAR                                                                                                                     S07000
000001762020001010000201000003278705000000327867751017T.E.-TRANSPORTE ESCOLAR - FONTE ESTADUAL - ENSINO BASICO                                                                                                                  A08000
000001762020001020000201000000000000000000000250921009TRANSFERENCIA DO PASSE LIVRE ESTUDANTIL FE RV 1009                                                                                                                        A08000
000001900000000000000201000002521990000000521358770000OUTRAS RECEITAS CORRENTES                                                                                                                                                 S02000
000001910000000000000201000000275450000000131801710000MULTAS E JUROS DE MORA                                                                                                                                                    S03000
000001911000000000000201000000044440000000006491680000MULTAS E JUROS DE MORA DOS TRIBUTOS                                                                                                                                       S04000
000001911350000000000201000000000000000000000277830001MULTAS E JUROS DE MORA DA TAXA DE FISCALIZACAO E VIGILANCIA SANITARIA                                                                                                     A05000
000001911380000000000201000000028390000000004211690000MULTAS E JUROS DE MORA DO IMPOSTO SOBRE A PROPRIEDADE PREDIAL E TERRITORIAL URBANA – IPTU                                                                                 S05000
000001911380001000000201000000017034000000002526860001MULTAS E JUROS DE MORA DO IPTU - PROPRIO                                                                                                                                  A07000
000001911380002000000201000000007097500000001053060020MULTAS E JUROS DE MORA DO IPTU - MDE                                                                                                                                      A07000
000001911380003000000201000000004258500000000631770040MULTAS E JUROS DE MORA DO IPTU - ASPS                                                                                                                                     A07000
000001911400000000000201000000016050000000001999030000MULTAS E JUROS DE MORA DO IMPOSTO SOBRE SERVICOS DE QUALQUER NATUREZA – ISS                                                                                               S05000
000001911400001000000201000000009630000000001199380001MULTAS E JUROS DE MORA DO ISS - PROPRIO                                                                                                                                   A07000
000001911400002000000201000000004012500000000499790020MULTAS E JUROS DE MORA DO ISS - MDE                                                                                                                                       A07000
000001911400003000000201000000002407500000000299860040MULTAS E JUROS DE MORA DO ISS - ASPS                                                                                                                                      A07000
000001911990000000000201000000000000000000000003130000MULTAS E JUROS DE MORA DE OUTROS TRIBUTOS                                                                                                                                 S05000
000001911990100000000201000000000000000000000003130000MULTAS E JUROS DE MORA DE OUTROS TRIBUTOS                                                                                                                                 S06000
000001911990101000000201000000000000000000000003130001MULTAS E JUROS DE MORA DAS TAXAS                                                                                                                                          A07000
000001913000000000000201000000197010000000113372960000MULTAS E JUROS DE MORA DA DIVIDA ATIVA DOS TRIBUTOS                                                                                                                       S04000
000001913110000000000201000000197010000000076978720000MULTAS E JUROS DE MORA DA DIVIDA ATIVA DO IMPOSTO SOBRE A PROPRIEDADE PREDIAL E TERRITORIAL URBANA –                                                                      S05000
000001913110001000000201000000118206000000046186050001MULTAS E JUROS DE MORA DA DIVIDA ATIVA DO IPTU - PROPRIO                                                                                                                  A07000
000001913110002000000201000000049252500000019245590020MULTAS E JUROS DE MORA DA DIVIDA ATIVA DO IPTU - MDE                                                                                                                      A07000
000001913110003000000201000000029551500000011547080040MULTAS E JUROS DE MORA DA DIVIDA ATIVA DO IPTU - ASPS                                                                                                                     A07000
000001913130000000000201000000000000000000028699700000MULTAS E JUROS DE MORA DA DIVIDA ATIVA DO IMPOSTO SOBRE SERVICOS DE QUALQUER NATUREZA – ISS                                                                               S05000
000001913130001000000201000000000000000000017219800001MULTAS E JUROS DE MORA DA DIVIDA ATIVA DO ISS - PROPRIO                                                                                                                   A07000
000001913130002000000201000000000000000000007174950020MULTAS E JUROS DE MORA DA DIVIDA ATIVA DO ISS - MDE                                                                                                                       A07000
000001913130003000000201000000000000000000004304950040MULTAS E JUROS DE MORA DA DIVIDA ATIVA DO ISS - ASPS                                                                                                                      A07000
000001913350000000000201000000000000000000007654600001MULTAS E JUROS DE MORA DA DIVIDA ATIVA DA TAXA DE FISCALIZACAO E VIGILANCIA SANITARIA                                                                                     A05000
000001913990000000000201000000000000000000000039940000MULTAS E JUROS DE MORA DA DIVIDA ATIVA DE OUTROS TRIBUTOS                                                                                                                 S05000
000001913990001000000201000000000000000000000039940001MULTAS E JUROS DE MORA DA DIVIDA ATIVA DAS TAXAS                                                                                                                          A07000
000001915000000000000201000000034000000000011188220000MULTAS E JUROS DE MORA DA DIVIDA ATIVA DE OUTRAS RECEITAS                                                                                                                 S04000
000001915990000000000201000000034000000000011188220000OUTRAS MULTAS E JUROS DE MORA DA DIVIDA ATIVA DE OUTRAS RECEITAS                                                                                                          S05000
000001915990100000000201000000034000000000011188220000OUTRAS MULTAS E JUROS DE MORA DA DIVIDA ATIVA DE OUTRAS RECEITAS – PRINCIPAL                                                                                              S06000
000001915990101000000201000000034000000000001311230001MULTAS E JUROS DE MORA DA DIVIDA ATIVA DO PROGRAMA TROCA-TROCA                                                                                                            A07000
000001915990102000000201000000000000000000009566440001MULTAS E JUROS DE MORA DA DIVIDA ATIVA DA PRESTACAO DE SERVICOS                                                                                                           A07000
000001915990109000000201000000000000000000000212660001MULTA E JUROS DE MORA DA DIVIDA ATIVA DO PROGRAMA PISCICULTURA                                                                                                            A07000
000001915990110000000201000000000000000000000097890001MULTA E JUROS DE MORA DA DIVIDA ATIVA DA ALIENACAO DE SUCATAS                                                                                                             A07000
000001918000000000000201000000000000000000000509980000MULTAS E JUROS DE MORA DE OUTRAS RECEITAS                                                                                                                                 S04000
000001918010000000000201000000000000000000000495760001MULTAS E JUROS DE MORA DE ALUGUEL                                                                                                                                         A05000
000001918990000000000201000000000000000000000014220001OUTRAS MULTAS E JUROS DE MORA                                                                                                                                             A05000
000001919000000000000201000000000000000000000238870000MULTAS DE OUTRAS ORIGENS                                                                                                                                                  S04000
000001919270000000000201000000000000000000000117870001MULTAS E JUROS PREVISTOS EM CONTRATOS                                                                                                                                     A05000
000001919500000000000201000000000000000000000121000001MULTAS POR AUTO DE INFRACAO                                                                                                                                               A05000
000001920000000000000201000000904930000000063518160000INDENIZACOES E RESTITUICOES                                                                                                                                               S03000
000001921000000000000201000000000000000000001443390000INDENIZACOES                                                                                                                                                              S04000
000001921990000000000201000000000000000000001443390000OUTRAS INDENIZACOES                                                                                                                                                       S05000
000001921990100000000201000000000000000000001443390001INDENIZACOES MULTA DE TRANSITO                                                                                                                                            A06000
000001922000000000000201000000904930000000062074770000RESTITUICOES                                                                                                                                                              S04000
000001922010000000000201000000000000000000000188730000RESTITUICOES DE CONVENIOS                                                                                                                                                 S05000
000001922010100000000201000000000000000000000188730001RESTIT. SALDO REND. CONTRAP. TRATOR CONV 809884/2014 RV1023                                                                                                               A06000
000001922070000000000201000000000000000000001997170000RECUPERACAO DE DESPESAS DE EXERCICIOS ANTERIORES                                                                                                                          S05000
000001922070100000000201000000000000000000001997170001RESTITUICAO DE RECEITAS DA SAUDE                                                                                                                                          A06000
000001922990000000000201000000904930000000059888870000OUTRAS RESTITUICOES                                                                                                                                                       S05000
000001922990002000000201000000000000000000020685000001PROGRAMA TROCA-TROCA                                                                                                                                                      A07000
000001922990004000000201000000000000000000011537020001RESTITUICAO PELO PAGAMENTO INDEVIDO                                                                                                                                       A07000
000001922990007000000201000000904930000000027666850000RESTITUICAO DE BENEFICIO ALIMENTACAO                                                                                                                                      S07000
000001922990007040000201000000904930000000027666850001RESTITUICAO VALE-ALIMENTACAO                                                                                                                                              A08000
000001930000000000000201000000748020000000165993090000RECEITA DA DIVIDA ATIVA                                                                                                                                                   S03000
000001931000000000000201000000706010000000162038230000RECEITA DA DIVIDA ATIVA TRIBUTARIA                                                                                                                                        S04000
000001931110000000000201000000706010000000123597120000RECEITA DA DIVIDA ATIVA DO IMPOSTO SOBRE A PROPRIEDADE PREDIAL E TERRITORIAL URBANA – IPTU                                                                                S05000
000001931110001000000201000000423606000000074156690001RECEITA DA DIVIDA ATIVA DO IPTU - PROPRIO                                                                                                                                 A07000
000001931110002000000201000000176502500000030900460020RECEITA DA DIVIDA ATIVA DO IPTU - MDE                                                                                                                                     A07000
000001931110003000000201000000105901500000018539970040RECEITA DA DIVIDA ATIVA DO IPTU - ASPS                                                                                                                                    A07000
000001931130000000000201000000000000000000026664780000RECEITA DA DIVIDA ATIVA DO IMPOSTO SOBRE SERVICOS DE QUALQUER NATUREZA – ISS                                                                                              S05000
000001931130001000000201000000000000000000015998770001RECEITA DA DIVIDA ATIVA DO ISS - PROPRIO                                                                                                                                  A07000
000001931130002000000201000000000000000000006666260020RECEITA DA DIVIDA ATIVA DO ISS - MDE                                                                                                                                      A07000
000001931130003000000201000000000000000000003999750040RECEITA DA DIVIDA ATIVA DO ISS - ASPS                                                                                                                                     A07000
000001931350000000000201000000000000000000011647130001RECEITA DA DIVIDA ATIVA DA TAXA DE FISCALIZACAO E VIGILANCIA SANITARIA                                                                                                    A05000
000001931990000000000201000000000000000000000129200000RECEITA DA DIVIDA ATIVA DE OUTROS TRIBUTOS                                                                                                                                S05000
000001931990100000000201000000000000000000000129200000RECEITA DA DIVIDA ATIVA DE OUTROS TRIBUTOS – PRINCIPAL                                                                                                                    S06000
000001931990101000000201000000000000000000000129200000RECEITA DA DIVIDA ATIVA DAS TAXAS                                                                                                                                         S07000
000001931990101010000201000000000000000000000129200001RECEITA DA DIVIDA ATIVA DAS TAXAS PELO PODER DE POLICIA                                                                                                                   A08000
000001932000000000000201000000042010000000003954860000RECEITA DA DIVIDA ATIVA NAO TRIBUTARIA                                                                                                                                    S04000
000001932990000000000201000000042010000000003954860000RECEITA DA DIVIDA ATIVA NAO TRIBUTARIA DE OUTRAS RECEITAS                                                                                                                 S05000
000001932990100000000201000000042010000000003954860000RECEITA DA DIVIDA ATIVA NAO-TRIBUTARIA DE OUTRAS RECEITAS – PRINCIPAL                                                                                                     S06000
000001932990101000000201000000042010000000000922300001RECEITA DA DIVIDA ATIVA DO PROGRAMA TROCA-TROCA                                                                                                                           A07000
000001932990104000000201000000000000000000000078700001RECEITA DA DIVIDA ATIVA NAO TRIBUTARIA PROVENIENTE DA  CONCESSAO DE EMPRESTIMOS A AGRICULTORES                                                                            A07000
000001932990105000000201000000000000000000002109770001RECEITA DA DIVIDA ATIVA NAO TRIBUTARIA PROVENIENTE DOS SERVICOS DE COMUNICACOES                                                                                           A07000
000001932990106000000201000000000000000000000219820001RECEITA DA DIVIDA ATIVA NAO TRIBUTARIA PROVENIENTE DA  PRESTACAO DE SERVICOS DIVERSOS                                                                                     A07000
000001932990107000000201000000000000000000000116000001RECEITA DA DIVIDA ATIVA NAO TRIBUTARIA PROVENIENTE DA  IMPUTACAO DE  MULTAS DIVERSAS                                                                                      A07000
000001932990109000000201000000000000000000000040000001PROGRAMA PISCICULTURA                                                                                                                                                     A07000
000001932990110000000201000000000000000000000468270001DIVIDA ATIVA DA ALIENACAO DE SUCATAS                                                                                                                                      A07000
000001990000000000000201000000593590000000160045810000RECEITAS DIVERSAS                                                                                                                                                         S03000
000001990980000000000201000000165430000000045387860000OUTRAS RECEITAS EVENTUAIS                                                                                                                                                 S05000
000001990980100000000201000000165430000000045387860001DESCONTOS AUFERIDOS                                                                                                                                                       A06000
000001990990000000000201000000428160000000114657950000OUTRAS RECEITAS                                                                                                                                                           S05000
000001990990050000000201000000000000000000065311380000RECEITAS DECORRENTES DO RECEBIMENTO DE CERTIDAO - TITULO EXECUTIVO DO TCE/RS                                                                                              S07000
000001990990050010000201000000000000000000065311380001TITULO EXECUTIVO TCE/RS 0213/2015 JOAO EDECIO GRAEF                                                                                                                       A08000
000001990990099010000201000000428160000000046246000001ALIENACAO DE SUCATAS - RECURSO LIVRE                                                                                                                                      A08000
000001990990099020000201000000000000000000003100570001HONORARIOS DE SUCUMBENCIA A FAVOR DO MUNICIPIO                                                                                                                            A08000
000002000000000000000201000008765005100000768065250000RECEITAS DE CAPITAL                                                                                                                                                       S01000
000002200000000000000201000001791500000000242180000000ALIENACAO DE BENS                                                                                                                                                         S02000
000002210000000000000201000001791500000000242180000000ALIENACAO DE BENS MOVEIS                                                                                                                                                  S03000
000002219000000000000201000001791500000000242180000000ALIENACAO DE OUTROS BENS MOVEIS                                                                                                                                           S04000
000002219000001000000201000000434000000000043400000000ALIENACAO DE BENS MOVEIS ADQUIRIDOS COM RECURSOS VINCULADOS                                                                                                               S07000
000002219000001020000201000000156000000000015600001011RECURSOS DA EDUCACAO                                                                                                                                                      A08000
000002219000001030000201000000278000000000027800004002RECURSOS DA SAUDE                                                                                                                                                         A08000
000002219000002000000201000001357500000000198780001010ALIENACAO DE BENS MOVEIS ADQUIRIDOS COM RECURSOS NAO VINCULADOS                                                                                                           A07000
000002400000000000000201000006933500000000447500000000TRANSFERENCIAS DE CAPITAL                                                                                                                                                 S02000
000002420000000000000201000003500000000000350000000000TRANSFERENCIAS INTERGOVERNAMENTAIS                                                                                                                                        S03000
000002421000000000000201000003500000000000350000000000TRANSFERENCIAS DA UNIAO                                                                                                                                                   S04000
000002421010000000000201000003500000000000350000000000TRANSFERENCIAS DE RECURSOS DO SISTEMA UNICO DE SAUDE – SUS                                                                                                                S05000
000002421010100000000201000003500000000000350000004931MAT PERM FNS PROP 11975.898000/1160-01 RV4931                                                                                                                             A06000
000002470000000000000201000003433500000000097500000000TRANSFERENCIAS DE CONVENIOS                                                                                                                                               S03000
000002471000000000000201000003433500000000097500000000TRANSFERENCIAS DE CONVENIOS DA UNIAO E DE SUAS ENTIDADES                                                                                                                  S04000
000002471050000000000201000002458500000000000000000000TRANSFERENCIAS DE CONVENIOS DA UNIAO DESTINADAS A PROGRAMAS DE INFRA-ESTRUTURA EM TRANSPORTE                                                                              S05000
000002471050300000000201000002458500000000000000001201PAVIMENTACAO SICONV 034101/2016 RV1201                                                                                                                                    A06000
000002471990000000000201000000975000000000097500000000OUTRAS TRANSFERENCIAS DE CONVENIOS DA UNIAO                                                                                                                               S05000
000002471990600000000201000000975000000000097500001202838291- TRATOR AGRICOLA SICONV 034964/2016 RV1202                                                                                                                         A06000
000002500000000000000201000000040005100000078385250000OUTRAS RECEITAS DE CAPITAL                                                                                                                                                S02000
000002590000000000000201000000040005100000078385250000OUTRAS RECEITAS                                                                                                                                                           S03000
000002590000002000000201000000040005100000078385250000REMUNERACAO DE DEPOSITOS BANCARIOS                                                                                                                                        S07000
000002590000002010000201000000004911000000000695311065692-RENDIMENTOS ALIENACAO L2345/12 FHIS RV 1065                                                                                                                           A08000
0000025900000020200002010000000000000000000097326510391351 -RENDIMENTOS POUP PAVIMENTACAO ESQUINA BUDEL CONV 799035/2013                                                                                                        A08000
000002590000002040000201000000000000000000001408044935509- PROGRAMA DE REQUALIFICACAO DE UBS - CONSTRUCAO RV 4935 RENDIMENTOS                                                                                                   A08000
0000025900000020600002010000000000000000000073479610221676- RENDIMENTOS POUPANCA QUADRA JOAO SAFFI 1022 FF                                                                                                                      A08000
0000025900000020800002010000000000000000000243682449311355 E 1742- REND. ESTRUTURACAO DA REDE DE SERV. ATENCAO BASICA EQUIP E MAT PERM RV4931                                                                                   A08000
0000025900000020900002010000000000000000000032332610241358- RENDIMENTOS POUP. REVITALIZACAO DA PRACA JOAO SAFFI CONV 789192/2013 RV1024                                                                                         A08000
0000025900000021200002010000000000000000000272360849313344- REND MAT PERM FNS PROP 11975.898000/1160-01 RV4931                                                                                                                  A08000
0000025900000021300002010000000000000000000000000010231746- REND. POUP. TRATOR AGRICOLA CONV 809884/2014 FF RV1023                                                                                                              A08000
0000025900000021400002010000000000000000000010393112023394-838291- REND POUPANCA TRATOR AGRICOLA SICONV 034964/2016 RV1202                                                                                                      A08000
0000025900000021500002010000000000000000000005029012023395- CONV. 838291- REND APLIC TRATOR AGRICOLA SICONV 034964/2016 RV1202                                                                                                  A08000
0000025900000021800002010000000278972000000021018110103388- RENDIMENTOS DE ALIENACAO DE BENS - OUTROS                                                                                                                           A08000
0000025900000021900002010000000040515000000004051540023389- RENDIMENTOS DE ALIENACAO DE BENS - SAUDE                                                                                                                            A08000
0000025900000022000002010000000031454000000003145410113390- RENDIMENTOS DE ALIENACAO DE BENS - EDUCACAO                                                                                                                         A08000
000007000000000000000201000020645030000001935962640000RECEITAS CORRENTES INTRA-ORCAMENTARIAS                                                                                                                                    S01000
000007200000000000000201000020645030000001935962640000RECEITA DE CONTRIBUICOES INTRA-ORCAMENTARIAS                                                                                                                              S02000
000007210000000000000201000020645030000001935962640000CONTRIBUICOES SOCIAIS - INTRA-ORCAMENTARIAS                                                                                                                               S03000
000007210290000000000201000020645030000001935962640000CONTRIBUICOES PREVIDENCIARIAS DO REGIME PROPRIO - INTRA-ORCAMENTARIAS                                                                                                     S05000
000007210290100000000201000009534230000000848557420050normal- CONTRIBUICAO PATRONAL DE SERVIDOR ATIVO CIVIL - INTRA-ORCAMENTARIA                                                                                                A06000
000007210291300000000201000009810800000000963931460050suplementar- CONTRIBUICAO PREVIDENCIARIA PARA AMORTIZACAO DO DEFICIT ATUARIAL                                                                                             A06000
000007210291500000000201000001300000000000123473760050divida-CONTRIBUICAO PREVIDENCIARIA EM REGIME DE PARCELAMENTO DE DEBITOS                                                                                                   A06000
000008000000000000000201000000420000000000042000000000RECEITAS DE CAPITAL - INTRA-ORCAMENTARIAS                                                                                                                                 S01000
000008200000000000000201000000420000000000042000000000ALIENACAO DE BENS                                                                                                                                                         S02000
000008210000000000000201000000420000000000042000000000ALIENACAO DE BENS MOVEIS                                                                                                                                                  S03000
000008219000000000000201000000420000000000042000000000ALIENACAO DE OUTROS BENS MOVEIS                                                                                                                                           S04000
000008219000001000000201000000420000000000042000000000ALIENACAO DE BENS MOVEIS ADQUIRIDOS COM RECURSOS VINCULADOS                                                                                                               S07000
000008219000001020000201000000300000000000030000001011BENS DA EDUCACAO INTRA-ORCAMENTARIA                                                                                                                                       A08000
000008219000001030000201000000120000000000012000004002BENS DA SAUDE INTRA-ORCAMENTARIA                                                                                                                                          A08000
000009000000000000000201-000304405162-0003325301970000(R) DEDUCOES DA RECEITA                                                                                                                                                   S01000
000009100000000000000201-000304405162-0003325301970000(R) DEDUCAO DAS RECEITAS CORRENTES                                                                                                                                        S02000
000009110000000000000201-000004203100-0000058651950000(R) DEDUCOES DA RECEITA TRIBUTARIA                                                                                                                                        S03000
000009111000000000000201-000004203100-0000058651950000(R) DEDUCOES DA RECEITA DE IMPOSTOS                                                                                                                                       S04000
000009111200000000000201-000004203100-0000058651950000(R) DEDUCOES DA RECEITA DE IMPOSTOS SOBRE O PATRIMONIO E A RENDA                                                                                                          S05000
000009111202000000000201-000004203100-0000057201950000(R)IMPOSTO SOBRE A PROPRIEDADE PREDIAL E TERRITORIAL URBANA - IPTU                                                                                                        S06000
000009111202000100000201-000002521860-0000034319850001(R)IPTU - PROPRIO                                                                                                                                                         A08103
000009111202000200000201-000001050775-0000014301720020(R)IPTU - MDE                                                                                                                                                             A08103
000009111202000300000201-000000630465-0000008580380040(R)IPTU - ASPS                                                                                                                                                            A08103
000009111208000000000201-000000000000-0000001450000000(R)IMPOSTO SOBRE TRANSMISSAO "INTER-VIVOS" DE BENS IMOVEIS E DE DIREITOS REAIS SOBRE IMOVEIS - ITBI                                                                       S06000
000009111208000100000201-000000000000-0000000870000001(R)ITBI - PROPRIO                                                                                                                                                         A08109
000009111208000200000201-000000000000-0000000362500020(R)ITBI - MDE                                                                                                                                                             A08109
000009111208000300000201-000000000000-0000000217500040(R)ITBI - ASPS                                                                                                                                                            A08109
000009130000000000000201-000000000000-0000275872650000(R)RECEITA PATRIMONIAL                                                                                                                                                    S03000
000009132000000000000201-000000000000-0000275872650000(R)RECEITAS DE VALORES MOBILIARIOS                                                                                                                                        S04000
000009132500000000000201-000000000000-0000002459740000(R)REMUNERACAO DE DEPOSITOS BANCARIOS                                                                                                                                     S05000
000009132501000000000201-000000000000-0000002459740000(R)REMUNERACAO DE DEPOSITOS DE RECURSOS VINCULADOS                                                                                                                        S06000
000009132501110000000201-000000000000-0000002459740000(R)RECEITA DE REMUNERACAO DE DEPOSITOS  BANCARIOS DE RECURSOS DO FNDE                                                                                                     S07000
000009132501111100000201-000000000000-0000002459741070(R)496-PNAE MAIS EDUCACAO FUNDAMENTAL RV 1070 REMUN DEP BCO                                                                                                               A08109
000009132800000000000201-000000000000-0000273412910000(R)REMUNERACAO DOS INVESTIMENTOS DO REGIME PROPRIO DE PREVIDENCIA SOCIAL                                                                                                  S05000
000009132810000000000201-000000000000-0000273412910000(R)REMUNERACAO DOS INVESTIMENTOS EM RENDA FIXA                                                                                                                            S05000
000009132810010000000201-000000000000-0000087173350050(R)FPSM (488) - BB PREVID RF IMA-B TIT PUBL FI                                                                                                                            A07109
000009132810020000000201-000000000000-0000106099690050(R)FPSM (489) - BB RF IMAB 5+                                                                                                                                             A07109
000009132810030000000201-000000000000-0000032117370050(R)FPSM (490) - CEF Novo Brasil RF LP                                                                                                                                     A07109
000009132810080000000201-000000000000-0000048022500050(R)631-FPSM CEF CAIXA BRASIL 2024 III TP RF                                                                                                                               A07109
000009160000000000000201-000000000000-0000000220000000(R)RECEITA DE SERVICOS                                                                                                                                                    S03000
000009160002000000000201-000000000000-0000000120000000(R)SERVICOS FINANCEIROS                                                                                                                                                   S06000
000009160002990000000201-000000000000-0000000120000001(R)OUTROS SERVICOS FINANCEIROS                                                                                                                                            A07109
000009160099000000000201-000000000000-0000000100000000(R)OUTROS SERVICOS                                                                                                                                                        S06000
000009160099000100000201-000000000000-0000000100000001(R)SERVICO DE MAQUINAS                                                                                                                                                    A08109
000009170000000000000201-000300202062-0002890704560000(R) DEDUCOES DAS RECEITAS DE TRANSFERENCIAS CORRENTES                                                                                                                     S03000
000009172000000000000201-000300202062-0002890336860000(R) DEDUCOES DAS RECEITAS DE TRANSFERENCIAS INTERGOVERNAMENTAIS                                                                                                           S04000
000009172100000000000201-000146541400-0001403137040000(R) DEDUCOES DAS RECEITAS DE TRANSFERENCIAS DA UNIAO                                                                                                                      S05000
000009172101000000000201-000145686000-0001394618000000(R) DEDUCOES DAS RECEITAS DE PARTICIPACAO NA RECEITA DA UNIAO                                                                                                             S06000
000009172101020000000201-000145306180-0001383798460000(R) DEDUCOES DA RECEITA DO FUNDO DE PARTICIPACAO DOS MUNICIPIOS - FPM                                                                                                     S07000
000009172101020600000201-00014530618000000000000000031(R) DEDUCAO DA RECEITA PARA FORMACAO DO FUNDEB - FPM                                                                                                                      A08103
000009172101020600000201-000000000000-0001383798460031(R) DEDUCAO DA RECEITA PARA FORMACAO DO FUNDEB - FPM                                                                                                                      A08105
000009172101050000000201-000000379820-0000010819540000(R) DEDUCAO DA RECEITA DO IMPOSTO SOBRE A PROPRIEDADE TERRITORIAL RURAL - ITR                                                                                             S07000
000009172101050400000201-000000379820-0000010819540031(R) DEDUCAO DA RECEITA PARA FORMACAO DO FUNDEB – ITR                                                                                                                      A08105
000009172136000000000201-000000855400-0000008519040000(R) DEDUCAO DA RECEITA DO ICMS DESONERACAO – LEI COMPLEMENTAR 87/96                                                                                                       S06000
000009172136000500000201-000000855400-0000008519040031(R) DEDUCAO DA RECEITA PARA FORMACAO DO FUNDEB - ICMS DESONERACAO - LEI COMPLEMENTAR 87/96                                                                                A08105
000009172200000000000201-000153660662-0001487199820000(R) DEDUCAO DA RECEITA DE TRANSFERENCIA DO ESTADO                                                                                                                         S05000
000009172201000000000201-000153660662-0001487199820000(R) DEDUCAO DA RECEITA DE PARTICIPACAO NA RECEITA DO ESTADO                                                                                                               S06000
000009172201010000000201-000141498900-0001375783750000(R) DEDUCAO DA RECEITA DO ICMS                                                                                                                                            S07000
000009172201010500000201-000141498900-0001375783750031(R) DEDUCAO DA RECEITA PARA FORMACAO DO FUNDEB - ICMS                                                                                                                     A08105
000009172201020000000201-000010281622-0000090630640000(R) DEDUCAO DA RECEITA DA COTA-PARTE DO IPVA                                                                                                                              S07000
000009172201020400000201-000010281622-0000090630640031(R) DEDUCAO DA RECEITA PARA FORMACAO DO FUNDEB - IPVA                                                                                                                     A08105
000009172201040000000201-000001880140-0000020785430000(R) DEDUCAO DA RECEITA DO IPI/EXPORTACAO                                                                                                                                  S07000
000009172201040500000201-000001880140-0000020785430031(R) DEDUCAO DA RECEITA PARA FORMACAO DO FUNDEB - IPI/EXPORTACAO                                                                                                           A08105
000009176000000000000201-000000000000-0000000367700000(R)TRANSFERENCIAS DE CONVENIOS                                                                                                                                            S04000
000009176200000000000201-000000000000-0000000367700000(R)TRANSFERENCIAS DE CONVENIOS DOS ESTADOS E DO DISTRITO FEDERAL E DE SUAS ENTIDADES                                                                                      S05000
000009176202000000000201-000000000000-0000000367700000(R)TRANSFERENCIAS DE CONVENIOS DOS ESTADOS DESTINADAS A PROGRAMAS DE EDUCACAO                                                                                             S06000
000009176202000100000201-000000000000-0000000367700000(R)TRANSFERENCIAS DE CONVENIOS PARA O TRANSPORTE ESCOLAR                                                                                                                  S08000
000009176202000102000201-000000000000-0000000367701009(R)TRANSFERENCIA DO PASSE LIVRE ESTUDANTIL FE RV 1009                                                                                                                     A08109
000009190000000000000201-000000000000-0000099852810000(R)DEDUCOES DE OUTRAS RECEITAS CORRENTES                                                                                                                                  S03000
000009191000000000000201-000000000000-0000084019750000(R)MULTAS E JUROS DE MORA                                                                                                                                                 S04000
000009191300000000000201-000000000000-0000076417210000(R)MULTAS E JUROS DE MORA DA DIVIDA ATIVA DOS TRIBUTOS                                                                                                                    S05000
000009191311000000000201-000000000000-0000050401820000(R)MULTAS E JUROS DE MORA DA DIVIDA ATIVA DO IMPOSTO SOBRE A PROPRIEDADE PREDIAL E TERRITORIAL URBA                                                                       S06000
000009191311000100000201-000000000000-0000030240730001(R)MULTAS E JUROS DE MORA DA DIVIDA ATIVA DO IPTU - PROPRIO                                                                                                               A08103
000009191311000200000201-000000000000-0000012600740020(R)MULTAS E JUROS DE MORA DA DIVIDA ATIVA DO IPTU - MDE                                                                                                                   A08103
000009191311000300000201-000000000000-0000007560350040(R)MULTAS E JUROS DE MORA DA DIVIDA ATIVA DO IPTU - ASPS                                                                                                                  A08103
000009191313000000000201-000000000000-0000020736200000(R)MULTAS E JUROS DE MORA DA DIVIDA ATIVA DO IMPOSTO SOBRE SERVICOS DE QUALQUER NATUREZA - ISS                                                                            S06000
000009191313000100000201-000000000000-0000012441710001(R)MULTAS E JUROS DE MORA DA DIVIDA ATIVA DO ISS - PROPRIO                                                                                                                A08103
000009191313000200000201-000000000000-0000005184060020(R)MULTAS E JUROS DE MORA DA DIVIDA ATIVA DO ISS - MDE                                                                                                                    A08103
000009191313000300000201-000000000000-0000003110430040(R)MULTAS E JUROS DE MORA DA DIVIDA ATIVA DO ISS - ASPS                                                                                                                   A08103
