87612826000190010120203004202008052020PREFEITURA MUNICIPAL INDEPENDENCIA                                              
000001000000000000000201000310436808000031712105310000Receitas Correntes                                                                                                                                                        S010000000
000001100000000000000201000028216087700002729464600000Impostos, Taxas e Contribuicoes de Melhoria                                                                                                                               S020000000
000001110000000000000201000027805806400002645325740000Impostos                                                                                                                                                                  S030000000
000001113000000000000201000006577139400000629726360000Impostos sobre a Renda e Proventos de Qualquer Natureza                                                                                                                   S040000000
000001113030000000000201000006577139400000629726360000Imposto sobre a Renda - Retido na Fonte                                                                                                                                   S050000000
000001113031000000000201000006577139400000600228610000Imposto sobre a Renda - Retido na Fonte - Trabalho                                                                                                                        S060000000
000001113031100000000201000006577139400000600228610000Imposto sobre a Renda - Retido na Fonte - Trabalho - Principal                                                                                                            S060000000
000001113031101000000201000005599900500000474775180000IRRF sobre Rendimentos do  Trabalho - Principal  - Ativos/Inativos do Poder Executivo/Indiretas                                                                           S070000000
000001113031101010000201000003359940300000284865090001IRRF sobre Rendimentos do  Trabalho - Principal  - Ativos/Inativos do Poder Executivo/Indiretas - PROPRIO                                                                 A080000000
000001113031101020000201000001399975100000118693820020IRRF sobre Rendimentos do  Trabalho - Principal  - Ativos/Inativos do Poder Executivo/Indiretas - MDE                                                                     A080000000
000001113031101030000201000000839985100000071216270040IRRF sobre Rendimentos do  Trabalho - Principal  - Ativos/Inativos do Poder Executivo/Indiretas- ASPS                                                                     A080000000
000001113031102000000201000000410908800000040384850000IRRF sobre Rendimentos do  Trabalho - Principal  - Ativos/Inativos do Poder Legislativo                                                                                   S070000000
000001113031102010000201000000246545300000024230880001IRRF sobre Rendimentos do  Trabalho - Principal  - Ativos/Inativos do Poder Legislativo - PROPRIO                                                                         A080000000
000001113031102020000201000000102727200000010096220020IRRF sobre Rendimentos do  Trabalho - Principal  - Ativos/Inativos do Poder Legislativo - MDE                                                                             A080000000
000001113031102030000201000000061636300000006057750040IRRF sobre Rendimentos do  Trabalho - Principal  - Ativos/Inativos do Poder Legislativo - ASPS                                                                            A080000000
000001113031103000000201000000566330100000085068580000IRRF sobre Rendimentos do  Trabalho - Principal  - Inativos pagos pelo RPPS                                                                                               S070000000
000001113031103010000201000000339798100000051041160001IRRF sobre Rendimentos do  Trabalho - Principal  - Inativos pagos pelo RPPS - PROPRIO                                                                                     A080000000
000001113031103020000201000000141582500000021267140020IRRF sobre Rendimentos do  Trabalho - Principal  - Inativos pagos pelo RPPS - MDE                                                                                         A080000000
000001113031103030000201000000084949500000012760280040IRRF sobre Rendimentos do  Trabalho - Principal  - Inativos pagos pelo RPPS - ASPS                                                                                        A080000000
000001113034000000000201000000000000000000029497750000Imposto sobre a Renda - Retido na Fonte - Outros Rendimentos                                                                                                              S060000000
000001113034100000000201000000000000000000029497750000Imposto sobre a Renda - Retido na Fonte - Outros Rendimentos - Principal                                                                                                  S060000000
000001113034101000000201000000000000000000029497750000IRRF - Outros Rendimentos - Principal  - Poder Executivo                                                                                                                  S070000000
000001113034101010000201000000000000000000017698630001IRRF - Outros Rendimentos - Principal  - Poder Executivo - PROPRIO                                                                                                        A080000000
000001113034101020000201000000000000000000007374450020IRRF - Outros Rendimentos - Principal  - Poder Executivo - MDE                                                                                                            A080000000
000001113034101030000201000000000000000000004424670040IRRF - Outros Rendimentos - Principal  - Poder Executivo - ASPS                                                                                                           A080000000
000001118000000000000201000021228667000002015599380000Impostos Especificos de Estados, DF e Municipios                                                                                                                          S040000000
000001118010000000000201000018001941800001650776470000Impostos sobre o Patrimonio para Estados/DF/Municipios                                                                                                                    S050000000
000001118011000000000201000005331941800000512568150000Imposto sobre a Propriedade Predial e Territorial Urbana                                                                                                                  S060000000
000001118011100000000201000004430226100000410065700000Imposto sobre a Propriedade Predial e Territorial Urbana - Principal                                                                                                      S060000000
000001118011101000000201000002658135700000246036890001IPTU - Principal  - PROPRIO                                                                                                                                               A070000000
000001118011102000000201000001107556500000102518420020IPTU - Principal  - MDE                                                                                                                                                   A070000000
000001118011103000000201000000664533900000061510390040IPTU - Principal  - ASPS                                                                                                                                                  A070000000
000001118011200000000201000000036569800000003103920000Imposto sobre a Propriedade Predial e Territorial Urbana - Multas e Juros de Mora                                                                                         S060000000
000001118011201000000201000000021941800000001862180001IPTU - Multas e Juros de Mora  - PROPRIO                                                                                                                                  A070000000
000001118011202000000201000000009142500000000776120020IPTU - Multas e Juros de Mora  - MDE                                                                                                                                      A070000000
000001118011203000000201000000005485500000000465620040IPTU - Multas e Juros de Mora  - ASPS                                                                                                                                     A070000000
000001118011300000000201000000636481300000075215160000Imposto sobre a Propriedade Predial e Territorial Urbana - Divida Ativa                                                                                                   S060000000
000001118011301000000201000000381888800000045127740001IPTU - Divida Ativa  - PROPRIO                                                                                                                                            A070000000
000001118011302000000201000000159120300000018804800020IPTU - Divida Ativa  - MDE                                                                                                                                                A070000000
000001118011303000000201000000095472200000011282620040IPTU - Divida Ativa  - ASPS                                                                                                                                               A070000000
000001118011400000000201000000228664600000024183370000Imposto sobre a Propriedade Predial e Territorial Urbana - Multas e Juros de Mora da Divida Ativa                                                                         S060000000
000001118011401000000201000000137198700000014509440001IPTU - Multas e Juros de Mora da Divida Ativa  - PROPRIO                                                                                                                  A070000000
000001118011402000000201000000057166200000006046370020IPTU - Multas e Juros de Mora da Divida Ativa  - MDE                                                                                                                      A070000000
000001118011403000000201000000034299700000003627560040IPTU - Multas e Juros de Mora da Divida Ativa  - ASPS                                                                                                                     A070000000
000001118014000000000201000012670000000001138208320000Imposto sobre Transmissao “Inter Vivos” de Bens Imoveis e de Direitos Reais sobre Imoveis                                                                                 S060000000
000001118014100000000201000012670000000001138208320000Imposto sobre Transmissao “Inter Vivos” de Bens Imoveis e de Direitos Reais sobre Imoveis - Principal                                                                     S060000000
000001118014101000000201000008670000000000682924990001ITBI - Principal  - PROPRIO                                                                                                                                               A070000000
000001118014102000000201000002500000000000284552080020ITBI - Principal  - MDE                                                                                                                                                   A070000000
000001118014103000000201000001500000000000170731250040ITBI - Principal  - ASPS                                                                                                                                                  A070000000
000001118020000000000201000003226725200000364822910000Impostos sobre a Producao, circulacao de Mercadorias e Servicos                                                                                                           S050000000
000001118023000000000201000003226725200000364822910000Imposto sobre Servicos de Qualquer Natureza                                                                                                                               S060000000
000001118023100000000201000003189982800000361027320000Imposto sobre Servicos de Qualquer Natureza - Principal                                                                                                                   S060000000
000001118023101000000201000001913989700000216615420001ISS - Principal  - PROPRIO                                                                                                                                                A070000000
000001118023102000000201000000797495700000090257570020ISS - Principal  - MDE                                                                                                                                                    A070000000
000001118023103000000201000000478497400000054154330040ISS - Principal  - ASPS                                                                                                                                                   A070000000
000001118023200000000201000000033180800000002418420000Imposto sobre Servicos de Qualquer Natureza - Multas e Juros de Mora                                                                                                      S060000000
000001118023201000000201000000019908500000001450990001ISS - Multas e Juros de Mora  - PROPRIO                                                                                                                                   A070000000
000001118023202000000201000000008295200000000604650020ISS - Multas e Juros de Mora  - MDE                                                                                                                                       A070000000
000001118023203000000201000000004977100000000362780040ISS - Multas e Juros de Mora  - ASPS                                                                                                                                      A070000000
000001118023300000000201000000002753200000000958240000Imposto sobre Servicos de Qualquer Natureza - Divida Ativa                                                                                                                S060000000
000001118023301000000201000000001651900000000574920001ISS - Divida Ativa  - PROPRIO                                                                                                                                             A070000000
000001118023302000000201000000000688300000000239570020ISS - Divida Ativa  - MDE                                                                                                                                                 A070000000
000001118023303000000201000000000413000000000143750040ISS - Divida Ativa  - ASPS                                                                                                                                                A070000000
000001118023400000000201000000000808400000000418930000Imposto sobre Servicos de Qualquer Natureza - Multas e Juros de Mora da Divida Ativa                                                                                      S060000000
000001118023401000000201000000000485000000000251350001ISS - Multas e Juros de Mora da Divida Ativa  - PROPRIO                                                                                                                   A070000000
000001118023402000000201000000000202100000000104740020ISS - Multas e Juros de Mora da Divida Ativa  - MDE                                                                                                                       A070000000
000001118023403000000201000000000121300000000062840040ISS - Multas e Juros de Mora da Divida Ativa  - ASPS                                                                                                                      A070000000
000001120000000000000201000000410281300000084138860000Taxas                                                                                                                                                                     S030000000
000001122000000000000201000000000000000000018768980000Taxas pela Prestacao de Servicos                                                                                                                                          S040000000
000001122010000000000201000000000000000000018768980000Taxas pela Prestacao de Servicos                                                                                                                                          S050000000
000001122011000000000201000000000000000000018768980000Taxas pela Prestacao de Servicos                                                                                                                                          S060000000
000001122011100000000201000000000000000000018751830000Taxas pela Prestacao de Servicos - Principal                                                                                                                              S060000000
000001122011101000000201000000000000000000018751830001Taxa de Expediente - Principal                                                                                                                                            A070000000
000001122011200000000201000000000000000000000009160000Taxas pela Prestacao de Servicos - Multas e Juros de Mora                                                                                                                 S060000000
000001122011201000000201000000000000000000000009160001Taxa de Expediente - Multa e Juros de Mora                                                                                                                                A070000000
000001122011300000000201000000000000000000000007000000Taxas pela Prestacao de Servicos - Divida Ativa                                                                                                                           S060000000
000001122011301000000201000000000000000000000007000001Taxa de Expediente - Divida Ativa                                                                                                                                         A070000000
000001122011400000000201000000000000000000000000990000Taxas pela Prestacao de Servicos - Multas e Juros de Mora da Divida Ativa                                                                                                 S060000000
000001122011401000000201000000000000000000000000990001Taxa de Expediente - Multa e Juros de Mora da Divida Ativa                                                                                                                A070000000
000001128000000000000201000000410281300000065369880000Taxas - Especificas de Estados, DF e Municipios                                                                                                                           S040000000
000001128010000000000201000000410281300000065369880000Taxas de Inspecao, Controle e Fiscalizacao                                                                                                                                S050000000
000001128011000000000201000000052283200000003528960000Taxa de Fiscalizacao de Vigilancia Sanitaria                                                                                                                              S060000000
000001128011100000000201000000052283200000003388000001Taxa de Fiscalizacao de Vigilancia Sanitaria - Principal                                                                                                                  A060000000
000001128011200000000201000000000000000000000013310001Taxa de Fiscalizacao de Vigilancia Sanitaria - Multas e Juros de Mora                                                                                                     A060000000
000001128011300000000201000000000000000000000112000001Taxa de Fiscalizacao de Vigilancia Sanitaria - Divida Ativa                                                                                                               A060000000
000001128011400000000201000000000000000000000015650001Taxa de Fiscalizacao de Vigilancia Sanitaria - Multas e Juros de Mora da Divida Ativa                                                                                     A060000000
000001128019000000000201000000357998100000061840920000Taxas de Inspecao, Controle e Fiscalizacao - Outras                                                                                                                       S060000000
000001128019100000000201000000357998100000055004000000Taxas de Inspecao, Controle e Fiscalizacao - Outras - Principal                                                                                                           S060000000
000001128019101000000201000000000000000000031296000001Taxa de Vistoria - Principal                                                                                                                                              A070000000
000001128019103000000201000000000000000000010383000001Alvara de Licenca e Localizacao - Principal                                                                                                                               A070000000
000001128019104000000201000000357998100000000000000001Taxa de Expediente - Principal                                                                                                                                            A070000000
000001128019105000000201000000000000000000008331001005Taxa de Licenca Ambiental - Principal                                                                                                                                     A070000000
000001128019106000000201000000000000000000004526000001Taxa de Aprovacao de Projetos de Construcao Civil - Principal                                                                                                             A070000000
000001128019107000000201000000000000000000000468000001Taxa de Aprovacao de Loteamento/Fracionamento - Principal                                                                                                                 A070000000
000001128019200000000201000000000000000000000256060000Taxas de Inspecao, Controle e Fiscalizacao - Outras - Multas e Juros de Mora                                                                                              S060000000
000001128019201000000201000000000000000000000163470001Taxa de Vistoria - Multa e Juros de Mora                                                                                                                                  A070000000
000001128019203000000201000000000000000000000089700001Alvara de Licenca e Localizacao - Multa e Juros de Mora                                                                                                                   A070000000
000001128019206000000201000000000000000000000001070001Taxa de Aprovacao de Projetos de Construcao Civil - Multa de Juros de Mora                                                                                                A070000000
000001128019207000000201000000000000000000000001820001Taxa de Aprovacao de Loteamento/Fracionamento - Multa e Juros de Mora                                                                                                     A070000000
000001128019300000000201000000000000000000005150560000Taxas de Inspecao, Controle e Fiscalizacao - Outras - Divida Ativa                                                                                                        S060000000
000001128019301000000201000000000000000000005150560001Taxa de Vistoria - Divida Ativa                                                                                                                                           A070000000
000001128019400000000201000000000000000000001430300000Taxas de Inspecao, Controle e Fiscalizacao - Outras - Multas e Juros de Mora da Divida Ativa                                                                              S060000000
000001128019401000000201000000000000000000001430300001Taxa de Vistoria - Multa e Juros de Mora da Divida Ativa                                                                                                                  A070000000
000001200000000000000201000009255304000001044796370000Contribuicoes                                                                                                                                                             S020000000
000001210000000000000201000007681118400000857863010000Contribuicoes Sociais                                                                                                                                                     S030000000
000001218000000000000201000007681118400000857863010000Contribuicoes Sociais Especificas de Estados, DF e Municipios                                                                                                             S040000000
000001218010000000000201000007681118400000857863010000Contribuicao do Servidor Civil para o Plano de Seguridade Social - CPSSS - Especifico de EST/DF/MUN                                                                       S050000000
000001218011000000000201000007681118400000855328360000CPSSS do Servidor Civil Ativo                                                                                                                                             S060000000
000001218011100000000201000007681118400000855328360050CPSSS do Servidor Civil Ativo - Principal                                                                                                                                 A060000000
000001218013000000000201000000000000000000002534650000CPSSS do Servidor Civil - Pensionistas                                                                                                                                    S060000000
000001218013100000000201000000000000000000002534650050CPSSS do Servidor Civil - Pensionistas - Principal                                                                                                                        A060000000
000001240000000000000201000001574185600000186933360000Contribuicao para o Custeio do Servico de Iluminacao Publica                                                                                                              S030000000
000001240001000000000201000001574185600000186933360000Contribuicao para o Custeio do Servico de Iluminacao Publica                                                                                                              S060000000
000001240001100000000201000001574185600000186933360001Contribuicao para o Custeio do Servico de Iluminacao Publica - Principal                                                                                                  A060000000
000001300000000000000201000024523910200003562111290000Receita Patrimonial                                                                                                                                                       S020000000
000001310000000000000201000001881901400000186792500000Exploracao do Patrimonio Imobiliario do Estado                                                                                                                            S030000000
000001310010000000000201000001881901400000186792500000Alugueis, Arrendamentos, Foros, Laudemios, Tarifas de Ocupacao                                                                                                            S050000000
000001310011000000000201000001881901400000186792500000Alugueis e Arrendamentos                                                                                                                                                  S060000000
000001310011100000000201000001881901400000183468000001Alugueis e Arrendamentos - Principal                                                                                                                                      A060000000
000001310011200000000201000000000000000000000615030001Alugueis e Arrendamentos - Multas e Juros de Mora                                                                                                                         A060000000
000001310011300000000201000000000000000000002318740001Alugueis e Arrendamentos - Divida Ativa                                                                                                                                   A060000000
000001310011400000000201000000000000000000000390730001Alugueis e Arrendamentos - Multas e Juros de Mora da Divida Ativa                                                                                                         A060000000
000001320000000000000201000022350480300003375318790000Valores Mobiliarios                                                                                                                                                       S030000000
000001321000000000000201000022350480300003375318790000Juros e Correcoes Monetarias                                                                                                                                              S040000000
000001321001000000000201000001554168600000161519740000Remuneracao de Depositos Bancarios                                                                                                                                        S060000000
000001321001100000000201000001554168600000161519740000Remuneracao de Depositos Bancarios - Principal                                                                                                                            S060000000
000001321001101000000201000000174179400000039616800000Remuneracao de Depositos de Recursos Vinculados - Principal                                                                                                               S070000000
000001321001101020000201000000081644500000015034970031Remuneracao de Depositos  Bancarios de Recursos Vinculados - FUNDEB - Principal                                                                                           A080000000
000001321001101030000201000000071190900000013853520000Remuneracao de Depositos  Bancarios de Recursos Vinculados - Fundo de Saude - Principal                                                                                   S080000000
000001321001101030100201000000000316600000000031664111Rendimentos Protese Dentaria FE RV4111                                                                                                                                    A080000000
000001321001101030200201000000000303600000000543704050Rendimentos Fraldas FE RV4050                                                                                                                                             A080000000
000001321001101030300201000000000000000000002037664931Rendimentos C/C 11.229-1 Equip Mat Perm FMS RV4931                                                                                                                        A080000000
000001321001101030400201000000000048200000000739934931Rendimentos C/C 10.925-8 Equip Mat Perm FMS 4931                                                                                                                          A080000000
000001321001101030500201000000012647300000001365354500Rendimentos Atencao Basica Federal RV4500                                                                                                                                 A080000000
000001321001101030700201000000000000000000000325584503Rendimentos Assistencia Farmaceutica FF RV4503                                                                                                                            A080000000
000001321001101030800201000000000000000000000039514160Rendimentos PIM FE RV4160                                                                                                                                                 A080000000
000001321001101030900201000000021549900000002154994011Rendimentos PIES FE RV4011                                                                                                                                                A080000000
000001321001101031000201000000000078200000000082604050Rendimentos Farmacia Basica FE RV4050                                                                                                                                     A080000000
000001321001101031100201000000000000000000000171284090Rendimentos PSF FE RV4090                                                                                                                                                 A080000000
000001321001101031600201000000000000000000000382104503Rendimentos Organizacao Farmacia Custeio RV4503                                                                                                                           A080000000
000001321001101031700201000000024785900000002484164303Rendimentos Construcao UBS FE RV4303                                                                                                                                      A080000000
000001321001101031800201000000000769700000000076974710Rendimentos PQAVS RV4710                                                                                                                                                  A080000000
000001321001101031900201000000002581400000000258144710Rendimentos VISA IPVS RV4710                                                                                                                                              A080000000
000001321001101032000201000000000000000000000595634505Rendimentos Organizacao Farmacia Investimento RV4505                                                                                                                      A080000000
000001321001101032100201000000000238300000000023834936Rendimentos Ambulancia Portaria 3673 RV4936                                                                                                                               A080000000
000001321001101032200201000000000000000000001598964520Rendimentos Incremento Piso AB Emenda Parlamentar Portaria 1000/18 RV4520                                                                                                 A080000000
000001321001101032300201000000002382700000000238274760Rendimentos Acoes Estruturantes VISA RV4760                                                                                                                               A080000000
000001321001101032400201000000000899500000000089954190REND. DENGUE VERAO 2018-2019 VIG EPID RES CIBRS 517/2018 RV4190                                                                                                           A080000000
000001321001101032500201000000004589600000000590464500Rend. Incremento Temporario Custeio AB Port. MS 1331/2019Dep. Jose Stedile Prop. 36000.253327/2019-00                                                                     A080000000
000001321001101032700201000000000000000000000022794300Rendimentos NOTA FISCAL GAUCHA PROGRAMA SOLIDARIEDADE RV4300                                                                                                              A080000000
000001321001101070000201000000002779700000001110160000Remuneracao de Depositos  Bancarios de Recursos Vinculados - Fundo Nacional de Assistencia Social - FNAS - Principal                                                      S080000000
000001321001101070100201000000000000000000000098471064Rendimentos PSB PBFI FMAS RV1064                                                                                                                                          A080000000
000001321001101070200201000000000000000000000529051021Rendimentos PSB SCFV FMAS RV1021                                                                                                                                          A080000000
000001321001101070300201000000002134500000000347891038Rendimentos GBF IGD-BF RV1038                                                                                                                                             A080000000
000001321001101070400201000000000000000000000070231067Rendimentos GSUAS IGD-SUAS FMAS RV1067                                                                                                                                    A080000000
000001321001101070500201000000000645200000000064521103Rendimentos OASF/FEAS RV1103                                                                                                                                              A080000000
000001321001101080000201000000001108600000000594240000Remuneracao de Depositos  Bancarios de Recursos Vinculados - Fundo Nacional de Desenvolvimento da Educacao - FNDE - Principal                                             S080000000
000001321001101080300201000000000000000000000311971014Rendimentos QSE RV1014                                                                                                                                                    A080000000
000001321001101080400201000000000785600000000078561016Rendimentos PNATE RV1016                                                                                                                                                  A080000000
000001321001101080500201000000000323000000000032301001Rendimentos PNAE Fundamental RV1001                                                                                                                                       A080000000
000001321001101080600201000000000000000000000015861031Rendimentos PNAE Creche RV1031                                                                                                                                            A080000000
000001321001101080700201000000000000000000000155551070Rendimentos PNAE MAIS EDUCACAO FUNDAMENTAL RV1070                                                                                                                         A080000000
000001321001101990000201000000017455700000009023910000Remuneracao de Outros Depositos  Bancarios de Recursos Vinculados - Principal                                                                                             S080000000
000001321001101990100201000000013382900000001099961005Rendimentos FMDMA RV1005                                                                                                                                                  A080000000
000001321001101990200201000000000000000000000924641017Rendimentos PEATE RS RV1017                                                                                                                                               A080000000
000001321001101990600201000000004072800000000514431050Rendimentos IR Doacao FUNDICA RV1050                                                                                                                                      A080000000
000001321001101990700201000000000000000000002688181022Rend. Poup. Quadra Joao Saffi RV1022                                                                                                                                      A080000000
000001321001101990800201000000000000000000001334991200Rendimentos Poup. Pavimentacao Convenio 829118/2016/SICONV Proposta 6878/2016 RV1200                                                                                      A080000000
000001321001101990900201000000000000000000000015531022Rend. Aplic. Quadra Joao Saffi RV1022                                                                                                                                     A080000000
000001321001101991000201000000000000000000000030131200Rendimentos Aplic. Pavimentacao Convenio 829118/2016/SICONV Proposta 6878/2016 RV1200                                                                                     A080000000
000001321001101991100201000000000000000000000172961207Rend. Aplica. CONVENIO 877247/2018/SICONV PROP054169/2018SICONV RV1207                                                                                                    A080000000
000001321001101991200201000000000000000000001084141207Rend. Poup. CONVENIO 877247/2018/SICONV PROP054169/2018SICONV RV1207                                                                                                      A080000000
000001321001101991300201000000000000000000000788221206Rend. Poup. CONVENIO 876152/2018/SICONV PROP045635/2018SICONV RV1206                                                                                                      A080000000
000001321001101991400201000000000000000000000034141206Rend. Aplic. CONVENIO 876152/2018/SICONV PROP045635/2018SICONV RV1206                                                                                                     A080000000
000001321001101991500201000000000000000000000326931203Rend. Poup. PAV. URB. SICONV CONVENIO 847175/17 RV1203                                                                                                                    A080000000
000001321001101991600201000000000000000000000009661203Rend. Aplic. PAV. URB. SICONV CONVENIO 847175/17 RV1203                                                                                                                   A080000000
000001321001102000000201000001379989200000121902940000Remuneracao de Depositos de Recursos Nao Vinculados - Principal                                                                                                           S070000000
000001321001102990000201000001379989200000000000000001Remuneracao de Outros Depositos  Bancarios de Recursos Nao Vinculados - Principal                                                                                         A080000000
000001321001102990100201000000000000000000041641000001Rendimentos Poder Executivo - Banco do Brasil                                                                                                                             A080000000
000001321001102990200201000000000000000000040319380001Rendimentos Poder Executivo - Banrisul                                                                                                                                    A080000000
000001321001102990500201000000000000000000009586390001Rendimentos Poder Legislativo - Banrisul                                                                                                                                  A080000000
000001321001102990800201000000000000000000030356170001Rendimentos Poder Executivo - Sicredi                                                                                                                                     A080000000
000001321004000000000201000020796311700003213799050000Remuneracao dos Recursos do Regime Proprio de Previdencia Social - RPPS                                                                                                   S060000000
000001321004100000000201000020796311700000000000000050Remuneracao dos Recursos do Regime Proprio de Previdencia Social - RPPS - Principal                                                                                       A060000000
000001321004101000000201000000000000000000910754100050FPSM BB PREVID RF IMA-B TIT PUBL FI                                                                                                                                       A070000000
000001321004102000000201000000000000000000779174960050FPSM BB RF IMAB 5+                                                                                                                                                        A070000000
000001321004103000000201000000000000000000318238360050FPSM CEF NOVO BRASIL RF LP                                                                                                                                                A070000000
000001321004104000000201000000000000000000269430690050FPSM CEF FI BRASIL IRF-M 1 TIT PUB RF                                                                                                                                     A070000000
000001321004106000000201000000000000000000408291520050FPSM CEF CAIXA BRASIL 2024 III TP RF                                                                                                                                      A070000000
000001321004107000000201000000000000000000349561000050FPSM BB PREV RF IRF-M 1 TP                                                                                                                                                A070000000
000001321004108000000201000000000000000000000009210050FPSM CEF BRASIL IRF-M 1+                                                                                                                                                  A070000000
000001321004109000000201000000000000000000052305500050FPSM CAIXA FI BRASIL IDKA IPCA 2A TP RF LP                                                                                                                                A070000000
000001321004110000000201000000000000000000032365950050FPSM SICREDI  FI INSTITUCIONAL RF IRF-M LP                                                                                                                                A070000000
000001321004111000000201000000000000000000029374710050FPSM SICREDI FIC INSTITUCIONAL RF IMA-B                                                                                                                                   A070000000
000001321004112000000201000000000000000000064293050050FPSM BB PREV RF ALOCACAO ATIVA                                                                                                                                            A070000000
000001360000000000000201000000291528500000000000000000Cessao de Direitos                                                                                                                                                        S030000000
000001360010000000000201000000291528500000000000000000Cessao do Direito de Operacionalizacao de Pagamentos                                                                                                                      S050000000
000001360011000000000201000000291528500000000000000000Cessao do Direito de Operacionalizacao de Pagamentos                                                                                                                      S060000000
000001360011100000000201000000291528500000000000000001Cessao do Direito de Operacionalizacao de Pagamentos - Principal                                                                                                          A060000000
000001600000000000000201000000206423100000032245000000Receita de Servicos                                                                                                                                                       S020000000
000001610000000000000201000000206423100000032045000000Servicos Administrativos e Comerciais Gerais                                                                                                                              S030000000
000001610010000000000201000000206423100000032045000000Servicos Administrativos e Comerciais Gerais                                                                                                                              S050000000
000001610011000000000201000000206423100000032045000000Servicos Administrativos e Comerciais Gerais                                                                                                                              S060000000
000001610011100000000201000000206423100000032045000000Servicos Administrativos e Comerciais Gerais - Principal                                                                                                                  S060000000
000001610011101000000201000000206423100000032045000001Servicos de Maquinas - Principal                                                                                                                                          A070000000
000001620000000000000201000000000000000000000200000000Servicos e Atividades Referentes a Navegacao e ao Transporte                                                                                                              S030000000
000001620020000000000201000000000000000000000200000000Servicos de Transporte                                                                                                                                                    S050000000
000001620021000000000201000000000000000000000200000000Servicos de Transporte                                                                                                                                                    S060000000
000001620021100000000201000000000000000000000200000000Servicos de Transporte - Principal                                                                                                                                        S060000000
000001620021101000000201000000000000000000000200000001Transporte Coletivo - Principal                                                                                                                                           A070000000
000001700000000000000201000242317180700024162398820000Transferencias Correntes                                                                                                                                                  S020000000
000001710000000000000201000110961536000010889474100000Transferencias da Uniao e de suas Entidades                                                                                                                               S030000000
000001718000000000000201000110961536000010889474100000Transferencias da Uniao - Especificas de Estados, DF e Municipios                                                                                                         S040000000
000001718010000000000201000096081674700008826635820000Participacao na Receita da Uniao                                                                                                                                          S050000000
000001718012000000000201000088456640000008037132550000Cota-Parte do Fundo de Participacao dos Municipios - Cota Mensal                                                                                                          S060000000
000001718012100000000201000088456640000008037132550000Cota-Parte do Fundo de Participacao dos Municipios - Cota Mensal - Principal                                                                                              S060000000
000001718012101000000201000053073984000004822279490001Cota-Parte do FPM - Cota Mensal - Principal  - PROPRIO                                                                                                                    A070000000
000001718012102000000201000004422832000000401856650020Cota-Parte do FPM - Cota Mensal - Principal  - MDE                                                                                                                        A070000000
000001718012103000000201000013268496000001205569890040Cota-Parte do FPM - Cota Mensal - Principal  - ASPS                                                                                                                       A070000000
000001718012104000000201000017691328000001607426520031Cota-Parte do FPM - Cota Mensal - Principal  - FUNDEB                                                                                                                     A070000000
000001718013000000000201000003510950000000354693520000Cota-Parte do Fundo de Participacao do Municipios – 1% Cota entregue no mes de dezembro                                                                                   S060000000
000001718013100000000201000003510950000000354693520000Cota-Parte do Fundo de Participacao do Municipios – 1% Cota entregue no mes de dezembro - Principal                                                                       S060000000
000001718013101000000201000002106570000000212816110001Cota-Parte do FPM – 1% Cota entregue no mes de dezembro - Principal  - PROPRIO                                                                                            A070000000
000001718013102000000201000000877737500000088673380020Cota-Parte do FPM – 1% Cota entregue no mes de dezembro - Principal  -  MDE                                                                                               A070000000
000001718013103000000201000000526642500000053204030040Cota-Parte do FPM – 1% Cota entregue no mes de dezembro - Principal  - ASPS                                                                                               A070000000
000001718014000000000201000003474970000000341589250000Cota-Parte do Fundo de Participacao dos Municipios - 1% Cota entregue no mes de julho                                                                                     S060000000
000001718014100000000201000003474970000000341589250000Cota-Parte do Fundo de Participacao dos Municipios - 1% Cota entregue no mes de julho - Principal                                                                         S060000000
000001718014101000000201000002084982000000204953550001Cota-Parte do FPM - 1% Cota entregue no mes de julho - Principal  - PROPRIO                                                                                               A070000000
000001718014102000000201000000868742500000085397310020Cota-Parte do FPM - 1% Cota entregue no mes de julho - Principal  -  MDE                                                                                                  A070000000
000001718014103000000201000000521245500000051238390040Cota-Parte do FPM - 1% Cota entregue no mes de julho - Principal  - ASPS                                                                                                  A070000000
000001718015000000000201000000639114700000093220500000Cota-Parte do Imposto Sobre a Propriedade Territorial Rural                                                                                                               S060000000
000001718015100000000201000000639114700000093220500000Cota-Parte do Imposto Sobre a Propriedade Territorial Rural - Principal                                                                                                   S060000000
000001718015101000000201000000383468900000055932300001Cota-Parte do ITR - Principal  - PROPRIO                                                                                                                                  A070000000
000001718015102000000201000000031955700000004661010020Cota-Parte do ITR - Principal  - MDE                                                                                                                                      A070000000
000001718015103000000201000000095867200000013983080040Cota-Parte do ITR - Principal  - ASPS                                                                                                                                     A070000000
000001718015104000000201000000127822900000018644110031Cota-Parte do ITR - Principal  - FUNDEB                                                                                                                                   A070000000
000001718020000000000201000001472698000000123966090000Transferencia da Compensacao Financeira pela Exploracao de Recursos Naturais                                                                                              S050000000
000001718022000000000201000000000000000000000130750000Cota-parte da Compensacao Financeira de Recursos Minerais - CFEM                                                                                                          S060000000
000001718022100000000201000000000000000000000130750001Cota-parte da Compensacao Financeira de Recursos Minerais - CFEM - Principal                                                                                              A060000000
000001718026000000000201000001472698000000123835340000Cota-Parte do Fundo Especial do Petroleo – FEP                                                                                                                            S060000000
000001718026100000000201000001472698000000123835340001Cota-Parte do Fundo Especial do Petroleo – FEP - Principal                                                                                                                A060000000
000001718030000000000201000007949239800000910745790000Transferencia de Recursos do Sistema Unico de Saude – SUS – Repasses Fundo a Fundo Bloco Custeio das Acoes e Servicos Publicos de Saude                                   S050000000
000001718031000000000201000006875694500000782247730000Transferencia de Recursos do SUS – Atencao Basica                                                                                                                         S060000000
000001718031100000000201000006875694500000782247734500Transferencia de Recursos do SUS – Atencao Basica - Principal                                                                                                             A060000000
000001718032000000000201000000090539600000009053960000Transferencia de Recursos do SUS – Atencao de Media e Alta Complexidade Ambulatorial e Hospitalar                                                                         S060000000
000001718032100000000201000000090539600000009053964501Transferencia de Recursos do SUS – Atencao de Media e Alta Complexidade Ambulatorial e Hospitalar - Principal                                                             A060000000
000001718033000000000201000000637860100000081767410000Transferencia de Recursos do SUS – Vigilancia em Saude                                                                                                                    S060000000
000001718033100000000201000000637860100000081767414502Transferencia de Recursos do SUS – Vigilancia em Saude - Principal                                                                                                        A060000000
000001718034000000000201000000345145600000037676690000Transferencia de Recursos do SUS – Assistencia Farmaceutica                                                                                                               S060000000
000001718034100000000201000000345145600000037676694503Transferencia de Recursos do SUS – Assistencia Farmaceutica - Principal                                                                                                   A060000000
000001718050000000000201000003384876100000342013360000Transferencias de Recursos do Fundo Nacional do Desenvolvimento da Educacao – FNDE                                                                                        S050000000
000001718051000000000201000002307669000000226944650000Transferencias do Salario-Educacao                                                                                                                                        S060000000
000001718051100000000201000002307669000000226944651014Transferencias do Salario-Educacao - Principal                                                                                                                            A060000000
000001718052000000000201000000004200000000000420000000Transferencias Diretas do FNDE referentes ao Programa Dinheiro Direto na Escola – PDDE                                                                                    S060000000
000001718052100000000201000000004200000000000420001036Transferencias Diretas do FNDE referentes ao Programa Dinheiro Direto na Escola – PDDE - Principal                                                                        A060000000
000001718053000000000201000000640900000000071438000000Transferencias Diretas do FNDE referentes ao Programa Nacional de Alimentacao Escolar – PNAE                                                                              S060000000
000001718053100000000201000000640900000000071438000000Transferencias Diretas do FNDE referentes ao Programa Nacional de Alimentacao Escolar – PNAE - Principal                                                                  S060000000
000001718053101000000201000000253440000000025344001001PNAE Fundamental                                                                                                                                                          A070000000
000001718053102000000201000000225600000000020116001031PNAE Creche                                                                                                                                                               A070000000
000001718053103000000201000000134400000000011872001033PNAE Pre-Escola                                                                                                                                                           A070000000
000001718053104000000201000000017920000000001792001059PNAE EJA                                                                                                                                                                  A070000000
000001718053105000000201000000009540000000000954001071PNAE AEE                                                                                                                                                                  A070000000
000001718053106000000201000000000000000000011360001070PNAE MAIS EDUCACAO FUNDAMENTAL RV1070                                                                                                                                     A070000000
000001718054000000000201000000426764000000042676400000Transferencias Diretas do FNDE referentes ao Programa Nacional de Apoio ao Transporte do Escolar – PNATE                                                                  S060000000
000001718054100000000201000000426764000000042676401016Transferencias Diretas do FNDE referentes ao Programa Nacional de Apoio ao Transporte do Escolar – PNATE - Principal                                                      A060000000
000001718059000000000201000000005343100000000534310000Outras Transferencias Diretas do Fundo Nacional do Desenvolvimento da Educacao – FNDE                                                                                     S060000000
000001718059100000000201000000005343100000000534310000Outras Transferencias Diretas do Fundo Nacional do Desenvolvimento da Educacao – FNDE - Principal                                                                         S060000000
000001718059101000000201000000005343100000000534311013BRASIL CARINHOSO FF RV1013                                                                                                                                                A070000000
000001718060000000000201000000499456200000000000000000Transferencia Financeira do ICMS – Desoneracao – L.C. No 87/96                                                                                                            S050000000
000001718061000000000201000000499456200000000000000000Transferencia Financeira do ICMS – Desoneracao – L.C. No 87/96                                                                                                            S060000000
000001718061100000000201000000499456200000000000000000Transferencia Financeira do ICMS – Desoneracao – L.C. No 87/96 - Principal                                                                                                S060000000
000001718061101000000201000000299673800000000000000001Transferencia Financeira do ICMS – Desoneracao – L.C. No 87/96 - Principal  - PROPRIO                                                                                     A070000000
000001718061102000000201000000024972800000000000000020Transferencia Financeira do ICMS – Desoneracao – L.C. No 87/96 - Principal  - MDE                                                                                         A070000000
000001718061103000000201000000074918400000000000000040Transferencia Financeira do ICMS – Desoneracao – L.C. No 87/96 - Principal  - ASPS                                                                                        A070000000
000001718061104000000201000000099891200000000000000031Transferencia Financeira do ICMS – Desoneracao – L.C. No 87/96 - Principal  - FUNDEB                                                                                      A070000000
000001718080000000000201000000500000000000050000000000Transferencias Advindas de Emendas Parlamentares Individuais                                                                                                              S050000000
000001718081000000000201000000500000000000050000000000Transferencias Advindas de Emendas Parlamentares Individuais                                                                                                              S060000000
000001718081100000000201000000500000000000050000000000Transferencias Advindas de Emendas Parlamentares Individuais - Principal                                                                                                  S060000000
000001718081101000000201000000500000000000050000004500Incremento Temporario Custeio AB Port. MS 1331/2019Dep. Jose Stedile Prop. 36000.253327/2019-00                                                                           A070000000
000001718120000000000201000001073591200000215862210000Transferencias de Recursos do Fundo Nacional de Assistencia Social – FNAS                                                                                                 S050000000
000001718121000000000201000001073591200000215862210000Transferencias de Recursos do Fundo Nacional de Assistencia Social – FNAS                                                                                                 S060000000
000001718121100000000201000001073591200000215862210000Transferencias de Recursos do Fundo Nacional de Assistencia Social – FNAS - Principal                                                                                     S060000000
000001718121101000000201000000166065100000017902071038IGD BF                                                                                                                                                                    A070000000
000001718121102000000201000000015295600000005930141067IGD SUAS                                                                                                                                                                  A070000000
000001718121103000000201000000369105500000102030001021SCFV FF                                                                                                                                                                   A070000000
000001718121104000000201000000523125000000090000001064PAIF FF                                                                                                                                                                   A070000000
000001718990000000000201000000000000000000420250830000Outras Transferencias da Uniao                                                                                                                                            S050000000
000001718991000000000201000000000000000000420250830000Outras Transferencias da Uniao                                                                                                                                            S060000000
000001718991100000000201000000000000000000420250830000Outras Transferencias da Uniao - Principal                                                                                                                                S060000000
000001718991101000000201000000000000000000420250831008CESSAO ONEROSA - PRE-SAL - LEI N. 13885/2019                                                                                                                              A070000000
000001720000000000000201000103579588400010414290250000Transferencias dos Estados e do Distrito Federal e de suas Entidades                                                                                                      S030000000
000001728000000000000201000103579588400010414290250000Transferencias dos Estados - Especificas de Estados, DF e Municipios                                                                                                      S040000000
000001728010000000000201000095713821100009721483410000Participacao na Receita dos Estados                                                                                                                                       S050000000
000001728011000000000201000088313731700008949037970000Cota-Parte do ICMS                                                                                                                                                        S060000000
000001728011100000000201000088313731700008949037970000Cota-Parte do ICMS - Principal                                                                                                                                            S060000000
000001728011101000000201000055364239000005369422770001Cota-Parte do ICMS - Principal  - PROPRIO                                                                                                                                 A070000000
000001728011102000000201000004118686600000447451890020Cota-Parte do ICMS - Principal  - MDE                                                                                                                                     A070000000
000001728011103000000201000012356059800001342355670040Cota-Parte do ICMS - Principal - ASPS                                                                                                                                     A070000000
000001728011104000000201000016474746300001789807640031Cota-Parte do ICMS - Principal  - FUNDEB                                                                                                                                  A070000000
000001728012000000000201000006041193900000630569580000Cota-Parte do IPVA                                                                                                                                                        S060000000
000001728012100000000201000006041193900000630569580000Cota-Parte do IPVA - Principal                                                                                                                                            S060000000
000001728012101000000201000003624716300000378341450001Cota-Parte do IPVA - Principal  - PROPRIO                                                                                                                                 A070000000
000001728012102000000201000000302059700000031528520020Cota-Parte do IPVA - Principal  - MDE                                                                                                                                     A070000000
000001728012103000000201000000906179100000094585480040Cota-Parte do IPVA - Principal  - ASPS                                                                                                                                    A070000000
000001728012104000000201000001208238800000126114130031Cota-Parte do IPVA - Principal  - FUNDEB                                                                                                                                  A070000000
000001728013000000000201000001265749900000132574810000Cota-Parte do IPI - Municipios                                                                                                                                            S060000000
000001728013100000000201000001265749900000132574810000Cota-Parte do IPI - Municipios - Principal                                                                                                                                S060000000
000001728013101000000201000000759449900000079544790001Cota-Parte do IPI - Municipios - Principal  - PROPRIO                                                                                                                     A070000000
000001728013102000000201000000063287500000006628770020Cota-Parte do IPI - Municipios - Principal  - MDE                                                                                                                         A070000000
000001728013103000000201000000189862500000019886250040Cota-Parte do IPI - Municipios - Principal  - ASPS                                                                                                                        A070000000
000001728013104000000201000000253150000000026515000031Cota-Parte do IPI - Municipios - Principal  - FUNDEB                                                                                                                      A070000000
000001728014000000000201000000093145600000009301050000Cota-Parte da Contribuicao de Intervencao no Dominio Economico                                                                                                            S060000000
000001728014100000000201000000093145600000009301051018Cota-Parte da Contribuicao de Intervencao no Dominio Economico - Principal                                                                                                A060000000
000001728030000000000201000004294071400000333939010000Transferencia de Recursos do Estado para Programas de Saude – Repasse Fundo a Fundo                                                                                       S050000000
000001728031000000000201000004294071400000333939010000Transferencia de Recursos do Estado para Programas de Saude – Repasse Fundo a Fundo                                                                                       S060000000
000001728031100000000201000004294071400000333939010000Transferencia de Recursos do Estado para Programas de Saude – Repasse Fundo a Fundo - Principal                                                                           S060000000
000001728031101000000201000001485849300000130714974011PIES FE                                                                                                                                                                   A070000000
000001728031102000000201000001800000000000111000004090PSF Estadual                                                                                                                                                              A070000000
000001728031103000000201000000149311500000000000004090PACS Estadual                                                                                                                                                             A070000000
000001728031104000000201000000132062000000015187134050Farmacia Basica Estadual                                                                                                                                                  A070000000
000001728031105000000201000000280000000000020000004160PIM                                                                                                                                                                       A070000000
000001728031106000000201000000040000000000004000004190DENGUE VERAO 2018-2019 VIG EPID RES CIBRS 517/2018 RV4190                                                                                                                 A070000000
000001728031107000000201000000406848600000050190004050FARMACIA BASICA - DISTRIBUICAO DE FRALDAS RV4050                                                                                                                          A070000000
000001728031108000000201000000000000000000002846914300NOTA FISCAL GAUCHA PROGRAMA SOLIDARIEDADE RV4300                                                                                                                          A070000000
000001728100000000000201000003569862000000358684440000Transferencia de Convenios dos Estados e do Distrito Federal e de Suas Entidades                                                                                          S050000000
000001728102000000000201000003490191400000350717380000Transferencias de Convenio dos Estados Destinadas a Programas de Educacao                                                                                                 S060000000
000001728102100000000201000003490191400000350717380000Transferencias de Convenio dos Estados Destinadas a Programas de Educacao - Principal                                                                                     S060000000
000001728102101000000201000003490191400000350717380000Transferencias de Convenios para o Transporte Escolar - Principal                                                                                                         S070000000
000001728102101010000201000003490191400000350717381017PEATE RS                                                                                                                                                                  A080000000
000001728109000000000201000000079670600000007967060000Outras Transferencias de Convenio dos Estados                                                                                                                             S060000000
000001728109100000000201000000079670600000007967060000Outras Transferencias de Convenio dos Estados - Principal                                                                                                                 S060000000
000001728109107000000201000000079670600000007967061103Programa OASF - Orientacao e Apoio Socio-familiar - Principal                                                                                                             A070000000
000001728990000000000201000000001833900000000183390000Outras Transferencias dos Estados                                                                                                                                         S050000000
000001728991000000000201000000001833900000000183390000Outras Transferencias dos Estados                                                                                                                                         S060000000
000001728991100000000201000000001833900000000183390000Outras Transferencias dos Estados - Principal                                                                                                                             S060000000
000001728991101000000201000000001833900000000183391114Cota-parte das Multas de Transito - Principal                                                                                                                             A070000000
000001740000000000000201000000048333100000023914790000Transferencias de Instituicoes Privadas                                                                                                                                   S030000000
000001740001000000000201000000048333100000015914790000Transferencias de Instituicoes Privadas                                                                                                                                   S060000000
000001740001100000000201000000048333100000015914790000Transferencias de Instituicoes Privadas - Principal                                                                                                                       S060000000
000001740001101000000201000000048333100000015914791050Doacoes em Beneficio de Criancas e Adolescentes - PJ - Principal                                                                                                          A070000000
000001748000000000000201000000000000000000008000000000Transferencias de Instituicoes Privadas - Especificas de Estados, DF e Municipios                                                                                         S040000000
000001748100000000000201000000000000000000008000000000Outras Transferencia de Instituicoes Privadas para EST/DF/MUN - Nao Especificadas Anteriormente                                                                           S050000000
000001748101000000000201000000000000000000008000000000Outras Transferencia de Instituicoes Privadas para EST/DF/MUN - Nao Especificadas Anteriormente                                                                           S060000000
000001748101100000000201000000000000000000008000000000Outras Transferencia de Instituicoes Privadas para EST/DF/MUN - Nao Especificadas Anteriormente - Principal                                                               S060000000
000001748101101000000201000000000000000000008000000001DOACAO CPM ESCOLA LAR DA CRIANCA 07.885.880/0001-70                                                                                                                       A070000000
000001750000000000000201000027727723200002834719680000Transferencias de Outras Instituicoes Publicas                                                                                                                            S030000000
000001758000000000000201000027727723200002834719680000Transferencias de Outras Instituicoes Publicas - Especificas de Estados, DF e Municipios                                                                                  S040000000
000001758010000000000201000027727723200002834496290000Transferencias de Recursos do Fundo de Manutencao e Desenvolvimento da Educacao Basica e de Valorizacao dos Profissionais da Educacao – FUND                              S050000000
000001758011000000000201000027727723200002834496290000Transferencias de Recursos do Fundo de Manutencao e Desenvolvimento da Educacao Basica e de Valorizacao dos Profissionais da Educacao – FUND                              S060000000
000001758011100000000201000027727723200002834496290031Transferencias de Recursos do Fundo de Manutencao e Desenvolvimento da Educacao Basica e de Valorizacao dos Profissionais da Educacao – FUND                              A060000000
000001758990000000000201000000000000000000000223390000Outras Transferencias Multigovernamentais                                                                                                                                 S050000000
000001758991000000000201000000000000000000000223390000Outras Transferencias Multigovernamentais                                                                                                                                 S060000000
000001758991100000000201000000000000000000000223390000Outras Transferencias Multigovernamentais - Principal                                                                                                                     S060000000
000001758991101000000201000000000000000000000223390001IRRF PELO COFRON RATEADO AOS MUNICIPIOS PARTICIPES                                                                                                                        A070000000
000001900000000000000201000005917902300000181089230000Outras Receitas Correntes                                                                                                                                                 S020000000
000001920000000000000201000000552072000000122043220000Indenizacoes, Restituicoes e Ressarcimentos                                                                                                                               S030000000
000001928000000000000201000000552072000000122043220000Indenizacoes, Restituicoes e Ressarcimentos - Especificas para Estados/DF/Municipios                                                                                      S040000000
000001928010000000000201000000332030000000045444880000Indenizacoes- Especificas para Estados/DF/Municipios                                                                                                                      S050000000
000001928011000000000201000000332030000000045444880000Indenizacoes - Especificas para Estados/DF/Municipios                                                                                                                     S060000000
000001928011100000000201000000332030000000045444880000Indenizacoes - Especificas para Estados/DF/Municipios - Principal                                                                                                         S060000000
000001928011101000000201000000332030000000045444880001Participacao dos Servidores no Auxilio-Alimentacao - Principal                                                                                                            A070000000
000001928020000000000201000000220042000000076598340000Restituicoes - Especificas para Estados/DF/Municipios                                                                                                                     S050000000
000001928029000000000201000000220042000000076598340000Outras Restituicoes - Especificas para Estados/DF/Municipios - Nao Especificadas Anteriormente                                                                            S060000000
000001928029100000000201000000220042000000072661250000Outras Restituicoes - Especificas para Estados/DF/Municipios - Nao Especificadas Anteriormente - Principal                                                                S060000000
000001928029102000000201000000220042000000070950000001Programa Troca-troca - Principal                                                                                                                                          A070000000
000001928029108000000201000000000000000000001244140001Indenizacao  por Dano ao Patrimonio Publico - Principal                                                                                                                   A070000000
000001928029109000000201000000000000000000000467110001Restituicao de Valores de Anos Anteriores - Principal                                                                                                                     A070000000
000001928029200000000201000000000000000000000098040000Outras Restituicoes - Especificas para Estados/DF/Municipios - Nao Especificadas Anteriormente - MJM                                                                      S060000000
000001928029202000000201000000000000000000000098040001Programa Troca-troca - Multas e Juros de Mora                                                                                                                             A070000000
000001928029300000000201000000000000000000002388530000Outras Restituicoes - Especificas para Estados/DF/Municipios - Nao Especificadas Anteriormente - Divida Ativa                                                             S060000000
000001928029302000000201000000000000000000001942720001Programa Troca-troca - Divida Ativa                                                                                                                                       A070000000
000001928029308000000201000000000000000000000445810001Indenizacao  por Dano ao Patrimonio Publico - Divida Ativa                                                                                                                A070000000
000001928029400000000201000000000000000000001450520000Outras Restituicoes - Especificas para Estados/DF/Municipios - Nao Especificadas Anteriormente MJM da Divida Ativa                                                        S060000000
000001928029402000000201000000000000000000001341320001Programa Troca-troca - Multas e Juros de Mora da Divida Ativa                                                                                                             A070000000
000001928029408000000201000000000000000000000109200001Indenizacao  por Dano ao Patrimonio Publico - Multa e Juros da Divida Ativa                                                                                               A070000000
000001990000000000000201000005365830300000059046010000Demais Receitas Correntes                                                                                                                                                 S030000000
000001990990000000000201000005365830300000059046010000Outras Receitas                                                                                                                                                           S050000000
000001990992000000000201000000402488400000059046010000Outras Receitas - Financeiras                                                                                                                                             S060000000
000001990992100000000201000000402488400000059046010000Outras Receitas - Financeiras - Principal                                                                                                                                 S060000000
000001990992102000000201000000402488400000059046010001Descontos Financeiros Obtidos - Principal                                                                                                                                 A070000000
000001990999900000000201000004963341900000000000000001Receita Extraordinaria para Cobertura do Deficit                                                                                                                          A060000000
000002000000000000000201000005484918800000523906880000Receitas de Capital                                                                                                                                                       S010000000
000002400000000000000201000005484918800000523906880000Transferencias de Capital                                                                                                                                                 S020000000
000002410000000000000201000005484918800000523906880000Transferencias da Uniao e de suas Entidades                                                                                                                               S030000000
000002418000000000000201000005484918800000523906880000Transferencias da Uniao - Especificas de Estados, DF e Municipios                                                                                                         S040000000
000002418100000000000201000005484918800000523906880000Transferencia de Convenios da Uniao e de suas Entidades                                                                                                                   S050000000
000002418107000000000201000002458500000000172095000000Transferencias de Convenios da Uniao destinadas a Programas de Infraestrutura em Transporte                                                                               S060000000
000002418107100000000201000002458500000000172095000000Transferencias de Convenios da Uniao destinadas a Programas de Infraestrutura em Transporte - Principal                                                                   S060000000
000002418107101000000201000000000000000000122925001200PAVIMENTACAO CONVENIO 829118/2016/SICONV PROP6878/2016/SICONV RV1200                                                                                                      A070000000
000002418107102000000201000002458500000000000000001203PAV. URB. SICONV CONVENIO 847175/17 RV1203 CONTRATO 1042465-17/2017                                                                                                       A070000000
000002418107103000000201000000000000000000049170001203PAV. URB. SICONV CONVENIO 847175/17 RV1203                                                                                                                                A070000000
000002418109000000000201000003026418800000351811880000Outras Transferencias de Convenios da Uniao                                                                                                                               S060000000
000002418109100000000201000003026418800000351811880000Outras Transferencias de Convenios da Uniao - Principal                                                                                                                   S060000000
000002418109101000000201000001852250500000185225051206CONVENIO 876152/2018/SICONV PROP045635/2018SICONV RV1206                                                                                                                  A070000000
000002418109102000000201000001174168300000117416831207CONVENIO 877247/2018/SICONV PROP054169/2018SICONV RV1207                                                                                                                  A070000000
000002418109103000000201000000000000000000049170001022CONVENIO 809272/2014 RV1022 REFORMA AMPLIACAO QUADRA PRACA                                                                                                                A070000000
000007000000000000000201000025836533500002578680580000Receitas Correntes Intraorcamentarias                                                                                                                                     S010000000
000007200000000000000201000025836533500002578680580000Contribuicoes                                                                                                                                                             S020000000
000007210000000000000201000025836533500002578680580000Contribuicoes Sociais                                                                                                                                                     S030000000
000007218000000000000201000025836533500002578680580000Contribuicoes Sociais Especificas de Estados, DF e Municipios                                                                                                             S040000000
000007218030000000000201000024475240000002444418700000CPSSS Patronal - Servidor Civil - Especifico de EST/DF/MUN                                                                                                                S050000000
000007218031000000000201000024475240000002440881170000CPSSS Patronal - Servidor Civil Ativo                                                                                                                                     S060000000
000007218031100000000201000024475240000002440881170000CPSSS Patronal - Servidor Civil Ativo - Principal                                                                                                                         S060000000
000007218031101000000201000010676700000001062778210050CPSSS PATRONAL - SERVIDOR CIVIL ATIVO - NORMAL - PRINCIPAL                                                                                                                A070000000
000007218031102000000201000013798540000001378102960050CPSSS PATRONAL - AMORTIZACAO DO PASSIVO ATUARIAL - PRINCIPAL                                                                                                              A070000000
000007218033000000000201000000000000000000003537530000CPSSS Patronal - Servidor Civil - Pensionistas Intraorcamentaria                                                                                                          S060000000
000007218033100000000201000000000000000000003537530050CPSSS do Servidor Civil - Pensionistas Intraorcamentaria - Principal                                                                                                      A060000000
000007218040000000000201000001361293500000134261880000CPSSS Patronal - Parcelamentos - Especifico de EST/DF/MUN                                                                                                                 S050000000
000007218041000000000201000001361293500000134261880000CPSSS Patronal - Parcelamentos - Servidor Civil Ativo                                                                                                                     S060000000
000007218041100000000201000001361293500000134261880050CPSSS Patronal - Parcelamentos - Servidor Civil Ativo - Principal                                                                                                         A060000000
000009000000000000000201-000365051772-0003944894580000(R) Deducoes da Receita                                                                                                                                                   S010000000
000009100000000000000201-000365051772-0003944894580000(R) Deducao das Receitas Correntes                                                                                                                                        S020000000
000009110000000000000201-000006500000-0000099671440000(R) Deducoes da Receita de Impostos, Taxas e Contribuicoes de Melhoria                                                                                                    S030000000
000009111000000000000201-000006500000-0000099671440000(R) Deducoes da Receita de Impostos                                                                                                                                       S040000000
000009111800000000000201-000006500000-0000099671440000(R) Deducoes da Receita de Impostos Especificos de Estados/DF Municipios                                                                                                  S050000000
000009111801000000000201-000006500000-0000099671440000(R) Deducao das Receitas de Impostos sobre o Patrimonio para Estados/DF Municipios                                                                                        S060000000
000009111801100000000201-000006500000-0000075473440000(R) Deducao da REceita de Imposto sobre a Propriedade Predial e Territorial Urbana                                                                                        S060000000
000009111801110000000201-000006500000-0000075473440000(R) Imposto sobre a Propriedade Predial e Territorial Urbana                                                                                                              S070000000
000009111801110100000201-000003900000-0000045282510001(R) IPTU - PROPRIO                                                                                                                                                        A081030000
000009111801110200000201-000001625000-0000018869540020(R) IPTU - MDE                                                                                                                                                            A081030000
000009111801110300000201-000000975000-0000011321390040(R) IPTU - ASPS                                                                                                                                                           A081030000
000009111801400000000201-000000000000-0000024198000000(R)Imposto sobre Transmissao “Inter Vivos” de Bens Imoveis e de Direitos Reais sobre Imoveis                                                                              S060000000
000009111801410000000201-000000000000-0000024198000000(R)Imposto sobre Transmissao “Inter Vivos” de Bens Imoveis e de Direitos Reais sobre Imoveis - Prin                                                                       S070000000
000009111801410100000201-000000000000-0000003862800001(R)ITBI - Principal - PROPRIO                                                                                                                                             A081080000
000009111801410100000201-000000000000-0000010656000001(R)ITBI - Principal - PROPRIO                                                                                                                                             A081090000
