87612826000190010120203004202008052020PREFEITURA MUNICIPAL INDEPENDENCIA                                              
12010927200200000001231900303000000000500000000000000000000000000000000000000000000000000000000000022631290000000000000000000000000000000000000000000000000000000000022631290000000000000000000000000000000000000000000000000000000000022631290000
12010927200200000001331900500010300000500000194011300001230881000010469250000093848700000197871000000000000000194011300001230881000010469250000093848700000197871000000000000000194011300001230881000010469250000093848700000197871000000000000000
12010927200200000001331900500010500000500000007762700000070848000000951200000009840000000072160000000185860000007762700000070848000000951200000009840000000072160000000185860000007762700000070848000000951200000009840000000072160000000185860000
12010927200200000001331900500010100000500000529760300004308130000062102560000621969100005713667000017742920000529760300004308130000062102560000621969100005713667000017742920000529760300004308130000062102560000621969100005713667000017742920000
10050618200140000001533504199000000000010000000000000000000000000003000000000000000000000000000000000000000000000000000000000000000003000000000000000000000000000000000000000000000000000000000000000003000000000000000000000000000000000000000000
02020824300110000001733504199000000010500000000000000000000000000000000000000000000000001016600000000000000000000000000000000000000000000000000000000000001016600000000000000000000000000000000000000000000000000000000000001016600000000000000000
02020824300110000001744504199000000010500000000000000000000000000000000000000000000000000175000000000000000000000000000000000000000000000000000000000000000175000000000000000000000000000000000000000000000000000000000000000175000000000000000000
10032266100040000001833604500000000000010000075000000000000000000010500000000000000000000000000000000000000000015000000000300000000003000000000030000000000300000000004500000000015000000000300000000003000000000030000000000300000000004500000000
02010433100010000002033904601000000000010000020664000000247212000002368800000023990400000276000000002960000000020664000000247212000002368800000023990400000276000000002960000000012146400000206388000002489760000022780800000278000000004200000000
03010433100010000002133904601000000000010000058287600000602280000006473880000069728400000901712000009940000000058287600000602280000006473880000069728400000901712000009940000000031777200000518112000006776280000068796000000752068000014720000000
04010433100010000002233904601000000000010000079279200000784980000008757000000083512800001018496000010820000000079279200000784980000008757000000083512800001018496000010820000000040924800000715680000008996400000084268800000887840000016340000000
05010433100010000002333904601000000000010000057279600000918104000013597920000111762000001507000000015540000000057279600000918104000013597920000111762000001507000000015540000000037245600000764820000011481800000114181200001302044000023000000000
05021233100010000002433904601000000000200000257602800003577828000040504460000416359200004888636000051040000000257602800003577828000040504460000416359200004888636000051040000000197274000002056572000040496220000422709600004606500000074480000000
06012633100010000002533904601000000000010000059497200000864864000009777600000099414000001213500000011840000000059497200000864864000009777600000099414000001213500000011840000000033591600000662004000009417240000097624800001119344000017940000000
07011533100010000002633904601000000000010000094298400001294472000014477400000142128000001906500000020300000000094298400001294472000014477400000142128000001906500000020300000000058867200000975692000013923000000141976800001624544000030420000000
08011033100010000002733904601000000000400000310871200003383100000037618560000371649600004581056000048332000000310871200003383100000037618560000371649600004581056000048332000000174866800002964528000036686160000366760800004139200000071958000000
09020833100010000002833904601000000000010000055893600000575064000006730920000068065200000845368000008160000000055893600000575064000006730920000068065200000845368000008160000000033440400000471240000006582240000070912800000718116000012580000000
10012033100010000002933904601000000000010000054633600000454104000005687640000067460400000819000000007850000000054633600000454104000005687640000067460400000819000000007850000000028476000000476280000005188680000060253200000774368000011910000000
05031339200030000003033504199000000000010000120000000000000000000000000000000000000000000000000-00001000000000010000000000100000000002000000000020000000000200000000003000000000000000000000200000000002000000000020000000000200000000003000000000
10032266100040000003133604500000000000010000000000000000000000000000000000000000000000000600000000000000000000000000000000000000000000000000000000000000000150000000004500000000000000000000000000000000000000000000000000000150000000004500000000
03010427200200000003631901152000000000010000000000000000000000000000000000000000000000000000000000000818300000000000000000000000000000000000000000000000000000000000000818300000000000000000000000000000000000000000000000000000000000000818300000
04010427200200000003731901152000000000010000000000000000000000000000000000000000000000000000000000000675590000000000000000000000000000000000000000000000000000000000000675590000000000000000000000000000000000000000000000000000000000000675590000
05010427200200000003831901152000000000010000000000000000000000000000000000000000000000000000000000001684690000000000000000000000000000000000000000000000000000000000001684690000000000000000000000000000000000000000000000000000000000001684690000
05010427200200000003831901150000000000010000000000000000000000000000000000000000000000000000000000001017680000000000000000000000000000000000000000000000000000000000001017680000000000000000000000000000000000000000000000000000000000001017680000
05021227200200000003931901152000000000010000000000000000000000000000000000000000000000000000000000000507650000000000000000000000000000000000000000000000000000000000000507650000000000000000000000000000000000000000000000000000000000000507650000
05021227200200000003931901152000000000200000000000000000000000000000000000000000000000000000000000010263280000000000000000000000000000000000000000000000000000000000010263280000000000000000000000000000000000000000000000000000000000010263280000
05021227200200000003931901152000000000310000000000000000000000000000000000000000000000000000000000021520530000000000000000000000000000000000000000000000000000000000021520530000000000000000000000000000000000000000000000000000000000021520530000
05021227200200000003931901150000000000310000000000000000000000000000000000000000000000000000000000001338890000000000000000000000000000000000000000000000000000000000001338890000000000000000000000000000000000000000000000000000000000001338890000
05021227200200000003933900856000000000010000000000000000000000000000000000000000000000000000000000000141050000000000000000000000000000000000000000000000000000000000000141050000000000000000000000000000000000000000000000000000000000000141050000
05021227200200000003933900856000000000200000000000000000000000000000000000000000000000000000000000000094030000000000000000000000000000000000000000000000000000000000000094030000000000000000000000000000000000000000000000000000000000000094030000
06012627200200000004031901152000000000010000000000000000000000000000000000000000000000000000000000000631530000000000000000000000000000000000000000000000000000000000000631530000000000000000000000000000000000000000000000000000000000000631530000
07011527200200000004131901152000000000010000000000000000000000000000000000000000000000000000000000019142200000000000000000000000000000000000000000000000000000000000019142200000000000000000000000000000000000000000000000000000000000019142200000
07011527200200000004133900856000000000010000000000000000000000000000000000000000000000000000000000000206650000000000000000000000000000000000000000000000000000000000000206650000000000000000000000000000000000000000000000000000000000000206650000
08011027200200000004231901152000000000400000000000000000000000000000000000000000000000000000000000017498090000000000000000000000000000000000000000000000000000000000017498090000000000000000000000000000000000000000000000000000000000017498090000
08011027200200000004231901150000000000400000000000000000000000000000000000000000000000000000000000001488040000000000000000000000000000000000000000000000000000000000001488040000000000000000000000000000000000000000000000000000000000001488040000
09010827200200000004331901150000000000010000000000000000000000000000000000000000000000000000000000000400320000000000000000000000000000000000000000000000000000000000000400320000000000000000000000000000000000000000000000000000000000000400320000
09010827200200000004333900856000000000010000000000000000000000000000000000000000000000000000000000000094030000000000000000000000000000000000000000000000000000000000000094030000000000000000000000000000000000000000000000000000000000000094030000
03010412200010000100333903905000000000010000000000000001220000000000000000000000000000000000000000000000000000000000000000000000000000000000000000000000000000000000009800000000000000000000000000000000000000000000000000000000000000009800000000
04010412300010000100444905248000000000010000000000000000000000000000000000000547000000000000000000000000000000000000000000000000000000000000000547000000000000000000000000000000000000000000000000000000000000000547000000000000000000000000000000
05021236100020000101044905235000000000200000000000000000000000000000000000000000000000000207800000000000000000000000000000000000000000000000000000000000000000000000002078000000000000000000000000000000000000000000000000000000000000002078000000
05021236100020000101044905241000000000200000000000000000000000000000000000000062300000000000000000000000000000000000000000000000000000000000000000000000000623000000000000000000000000000000000000000000000000000000000000000623000000000000000000
05021236100020000101533903024000000000200000000000000000000000000000729600000000000000000000000000000000000000000000000000000000000000000000000007296000000000000000000000000000000000000000000000000000000000000007296000000000000000000000000000
05021236100020000101533903916000000000200000000000000000000000000001700000000000000000000000000000000000000000000000000000000000000000000000000017000000000000000000000000000000000000000000000000000000000000000017000000000000000000000000000000
05041278200020000102744905248000000000310000000000000000000000000000000000000000000000027580000000000000000000000000000000000000000000000000000000000000027580000000000000000000000000000000000000000000000000000000000000027580000000000000000000
06022678200170000103544905191000000000010000000000000000000000000000000000000083746200000000000-00003354620000000000000000000000000000000000000000000000000000000000000000000000000000000000000000000000000000000000000000000000000000000000000000
06022678200170000103544905191000000012030000000000000000000000000000000000002009909700000000000000003354620000000000000000000000000000000000000000000000000000000000000000000000000000000000000000000000000000000000000000000000000000000000000000
10032266100040000105444903099000000000010000000000000000920000000000000000000000000000000000000000000000000000000000000000765000000001550000000000000000000000000000000000000000000000000000765000000001550000000000000000000000000000000000000000
10032266100040000105444903024000000000010000000000000000887400000002077000000021060000000000000-00001188000000000000000000000000000004722090000071469100000000000000000000000000000000000000000000000004722090000071469100000000000000000000000000
10032266100040000105444903999000000000010000000000000000418000000000000000000000000000000000000000000000000000000000000000000000000000000000000000000000000418000000000000000000000000000000000000000000000000000000000000000418000000000000000000
10041751100120000105533903024000000000010000000000000000000000000000000000000000000000000557000000000000000000000000000000000000000000000000000000000000000557000000000000000000000000000000000000000000000000000000000000000557000000000000000000
10041751100120000105644903099000000000010000000000000000000000000000000000000143805000000129479000000000000000000000000000000000000000000000000005780000001023235000004864940000000000000000000000000000000000000005780000001023235000004864940000
10041751100120000105644903024000000000010000000000000000000000000018150760000000000000000000000-00000091500000000000000000000000000012583300000054759600000000000000000000000000000000000000000000000000000000000180592600000000000000000000000000
10041751100120000105644903999000000000010000000000000000000000000021784000000000000000000000000000000000000000000000000000000000000000000000000217840000000000000000000000000000000000000000000000000000000000000217840000000000000000000000000000
10041751100120000105644905192000000000010000000000000000000000000057896600000000000000000000000000000000000000000000000000000000000000003250000578933500000000000000000000000000000000000000000000000000000000000578966000000000000000000000000000
10041751100120000105644905193000000000010000000000000000000000000002170000000000000000000000000000000000000000000000000000000000000000000000000021700000000000000000000000000000000000000000000000000000000000000021700000000000000000000000000000
05021236500020000106144905192000000000310000000000000004091478000000000000000000000000000000000000000000000000000000000002277731000018137470000000000000000000000000000000000000000000000002277731000018137470000000000000000000000000000000000000
08011030100060000107244905248000000049310000000000000000000000000000000000000326340000000000000000000000000000000000000000000000000000000000000326340000000000000000000000000000000000000000000000000000000000000326340000000000000000000000000000
08011030100060000107344905248000000049310000000000000000000000000000000000000555660000000000000000000000000000000000000000000000000000000000000555660000000000000000000000000000000000000000000000000000000000000555660000000000000000000000000000
08011030100060000107344905235000000049310000000000000000000000000000000000000000000000000000000000000318860000000000000000000000000000000000000000000000000000000000000318860000000000000000000000000000000000000000000000000000000000000318860000
08011030100060000107344905208000000049310000000000000000000000000001704420000000000000000877500000000699950000000000000000000000000000000000000017044200000000000000009474950000000000000000000000000000000000000017044200000000000000009474950000
08011030100060000107344905212000000049310000000000000000000000000000000000000000000000000000000000000537500000000000000000000000000000000000000000000000000000000000000537500000000000000000000000000000000000000000000000000000000000000537500000
08011030100060000107344905239000000049310000000000000000000000000000000000000000000000000053750-00000537500000000000000000000000000000000000000000000000000000000000000000000000000000000000000000000000000000000000000000000000000000000000000000
08011030100060000107344905242000000049310000000000000000000000000000000000000000000000000468000000000000000000000000000000000000000000000000000000000000000000000000004680000000000000000000000000000000000000000000000000000000000000004680000000
0801103040007000010804490519200000004710000000000000000000000000000300000-000013786900000000000000000000000000000000000000000000000000000000000000000000000000000000001621310000000000000000000000000000000000000000000000000000000000001621310000
08011030400070000108044905192000000047200000000000000000000000000007385000000005793600000000000000000000000000000000000000000000000000000000000000000000000000000000007964360000000000000000000000000000000000000000000000000000000000007964360000
08011030400070000108044905192000000047600000000000000000000000000008500000000007993300000000000000000000000000000000000000000000000000000000000000000000000000000000009299330000000000000000000000000000000000000000000000000000000000009299330000
10032369100040000108133504199000000000010000000000000000000000000000000000000000000000005000000000000000000000000000000000000000000000000000000000000000005000000000000000000000000000000000000000000000000000000000000000005000000000000000000000
10041751100120000108244903024000000000010000000000000000000000000000000000000000000000000000000000001213380000000000000000000000000000000000000000000000000000000000001213380000000000000000000000000000000000000000000000000000000000001213380000
10041751100120000108244903099000000000010000000000000000000000000000000000000000000000000000000000016004620000000000000000000000000000000000000000000000000000000000012561120000000000000000000000000000000000000000000000000000000000012561120000
10041751100120000108244903999000000000010000000000000000000000000000000000000000000000000000000000009645000000000000000000000000000000000000000000000000000000000000000430000000000000000000000000000000000000000000000000000000000000000430000000
10041751100120000108244905192000000000010000000000000000000000000000000000000000000000000000000000036893950000000000000000000000000000000000000000000000000000000000027344300000000000000000000000000000000000000000000000000000000000027344300000
10041751100120000108244905191000000000010000000000000000000000000000000000000000000000000000000000000950780000000000000000000000000000000000000000000000000000000000000950780000000000000000000000000000000000000000000000000000000000000950780000
09020824400110000108344905252000000000010000000000000000000000000000000000000000000000000000000000024524790000000000000000000000000000000000000000000000000000000000024524790000000000000000000000000000000000000000000000000000000000024524790000
09020824400110000108344905252000000010380000000000000000000000000000000000000000000000000000000000021543630000000000000000000000000000000000000000000000000000000000021543630000000000000000000000000000000000000000000000000000000000021543630000
09020824400110000108344905252000000011030000000000000000000000000000000000000000000000000000000000008031580000000000000000000000000000000000000000000000000000000000008031580000000000000000000000000000000000000000000000000000000000008031580000
03012472200010000111333903947000000000010000000000000000924000000000000000000000000000000000000-00003626450000000000000000000000000000223550000015400000000154000000002310000000000000000000000000000000223550000015400000000154000000002310000000
05021236100020000111833903024000000000200000000000000000000000000010782000000000000000000000000000000000000000000000000000000000000000000000000107820000000000000000000000000000000000000000000000000000000000000107820000000000000000000000000000
05021236100020000111833903916000000000200000000000000000000000000000000000000373603000000000000000000000000000000000000000000000000000000000000367350000000062530000000000000000000000000000000000000000000000000367350000000062530000000000000000
05021236100020000111933903024000000000200000000000000003809630000000000000000016126000000000000000000000000000000000000001629267000019451100000039651300000000000000000000000000000000000001629267000019451100000039651300000000000000000000000000
05021236100020000111933903916000000000200000000000000005299500000000000000000022434500000000000000000000000000000000000002119800000029147250000048932000000000000000000000000000000000000002119800000029147250000048932000000000000000000000000000
07022781300030000112033903024000000000010000000000000000000000000000000000000000000000000000000000009857300000000000000000000000000000000000000000000000000000000000009857300000000000000000000000000000000000000000000000000000000000009857300000
07022781300030000112033903905000000000010000000000000000000000000000000000000019000000000000000000000000000000000000000000000000000000000000000000000000000000000000001900000000000000000000000000000000000000000000000000000000000000001900000000
07022781300030000112033903916000000000010000000000000000000000000000000000000000000000000000000000007035000000000000000000000000000000000000000000000000000000000000007035000000000000000000000000000000000000000000000000000000000000007035000000
06042678200100000112344905248000000000010000000000000000000000000000000000000800000000000000000000000000000000000000000000000000000000000000000800000000000000000000000000000000000000000000000000000000000000000400000000004000000000000000000000
07021545100170000112444905192000000000010000000000000000000000000000000000000625042800000569200-00000002990000000000000000000000000000000000000000000000000710134000061091950000000000000000000000000000000000000000000000000710134000061091950000
100220608000400001126449052400000000000100000000000000000000000000000000000000548150-0000481000-00000481500000000000000000000000000000000000000000000000000019000000000000000000000000000000000000000000000000000000000000000019000000000000000000
10022060800040000112644905240000000012060000000000000016580000-000110000000000292500-00003115000000107000000000000000000000000000000000000000005480000-0000019000000100000000000000000000000000000000000000000000000000000005461000000000000000000
10022060800040000112744905240000000000010000000000000000000000000000000000000180280000000000000-00016838000000000000000000000000000000000000000011900000000000000000000000000000000000000000000000000000000000000011900000000000000000000000000000
10022060800040000112744905240000000012070000000000000010390000-000283000000002131550-0002377500000038519500000000000000000000000000023900000000125100000001800000000020000000000000000000000000000000000000000000364100000001800000000000000000000
08011030100060000112944905191000000000400000000000000000000000000000000000000000000000001336071-00004164280000000000000000000000000000000000000000000000000000000000009196430000000000000000000000000000000000000000000000000000000000009196430000
08011030100060000112944905191000000043030000000000000000000000000000000000000000000000004472935000004251550000000000000000000000000000000000000000000000000000000000022084330000000000000000000000000000000000000000000000000000000000022084330000
08011030100060000112944905191000000049350000000000000000000000000000000000000000000000000000000000000403460000000000000000000000000000000000000000000000000000000000000403460000000000000000000000000000000000000000000000000000000000000403460000
08011030300090000113033903905000000045050000000000000000000000000000000000000034500000000000000000000000000000000000000000000000000000000000000000000000000000000000003450000000000000000000000000000000000000000000000000000000000000003450000000
08011030300090000113133901414000000045030000000000000000111464000001114640000011875400000167196000001114640000000000000000111464000001114640000011875400000167196000001114640000000000000000111464000001114640000011875400000167196000001114640000
08011030300090000113133903022000000045030000000000000000000000000000796000000000000000000000000000000000000000000000000000000000000000796000000000000000000000000000000000000000000000000000000000000000000000000007960000000000000000000000000000
08011030300090000113133903948000000045030000000000000000000000000001080000000043520000000000000000000988880000000000000000000000000001080000000010520000000240000000001888880000000000000000000000000001080000000010520000000240000000001888880000
08011030300090000113133903973000000045030000000000000000074960000000749600000000000000000000000000000329600000000000000000074960000000749600000000000000000000000000000329600000000000000000000000000001499200000000000000000000000000000329600000
06032678200170000114144905191000000000010000000000000000000000000000000000000000000000000000000000015500000000000000000000000000000000000000000000000000000000000000000000000000000000000000000000000000000000000000000000000000000000000000000000
08011030200080000130144905191000000000400000000000000000000000000000000000000000000000002922564-00000000400000000000000000000000000000000000000000000000000000000000029225240000000000000000000000000000000000000000000000000000000000029225240000
08011030200080000130244905191000000000400000000000000000000000000000000000000000000000000987909000000000000000000000000000000000000000000000000000000000000000000000009879090000000000000000000000000000000000000000000000000000000000009879090000
08011030200080000130344905191000000000400000000000000000000000000000000000000000000000000205814000000000000000000000000000000000000000000000000000000000000000000000002058140000000000000000000000000000000000000000000000000000000000002058140000
08011078500080000130433903024000000000400000000000000000000000000009364360000000000000000000000000000635640000000000000000000000000000000000000000000000000000000000010000000000000000000000000000000000000000000000000000000000000000010000000000
08011078500080000130433903916000000000400000000000000000000000000005351060000000000000000000000000000148940000000000000000000000000000000000000000000000000000000000005500000000000000000000000000000000000000000000000000000000000000005500000000
08011078500080000130533903024000000000400000000000000000000000000009364360000000000000000000000000000635640000000000000000000000000000000000000000000000000000000000010000000000000000000000000000000000000000000000000000000000000000010000000000
08011078500080000130533903916000000000400000000000000000000000000005351060000000000000000000000000000148940000000000000000000000000000000000000000000000000000000000003972140000000000000000000000000000000000000000000000000000000000003972140000
08011078500080000130644905191000000000400000000000000000000000000000000000000000000000000000000000005006880000000000000000000000000000000000000000000000000000000000000000000000000000000000000000000000000000000000000000000000000000000000000000
08011078500080000130744905191000000000400000000000000000000000000000000000000000000000000000000000009719250000000000000000000000000000000000000000000000000000000000000000000000000000000000000000000000000000000000000000000000000000000000000000
0801107850008000013094490519902000000040000000000000000000000000000094864-000000033000000000000-00000008500000000000000000000000000000244040000006928000000000000000000000000000000000000000000000000000000000000009368400000000000000000000000000
08011030200080000131044905199020000000400000000000000000052500000001030000000000960000000000000000000000000000000000000000018000000000345000000009250000000020100000000000000000000000000000018000000000345000000009250000000020100000000000000000
08011030200080000131044905191000000000400000000000000000000000000000000000000001560000000000000000000000000000000000000000000000000000000000000000000000000015600000000000000000000000000000000000000000000000000000000000000015600000000000000000
08011078500080000131144905199020000000400000000000000000333725000000000000000000000000000000000000000000000000000000000000333725000000000000000000000000000000000000000000000000000000000000333725000000000000000000000000000000000000000000000000
08011030100060000131233903024000000000400000000000000000000000000006837760000000000000000000000000000000000000000000000000000000000000000000000000000000000683776000000000000000000000000000000000000000000000000000000000000683776000000000000000
08011030100060000131233903916000000000400000000000000000000000000007710660000000000000000078934000000000000000000000000000000000000000000000000000000000000771066000000789340000000000000000000000000000000000000000000000000771066000000789340000
06032678200170000131344905191000000000010000000000000000000000000000000000000000000000001545707000000000000000000000000000000000000000000000000000000000000000000000000000000000000000000000000000000000000000000000000000000000000000000000000000
07021545100170000131444905191000000000010000000000000000000000000000000000000000000000001545707000000000000000000000000000000000000000000000000000000000000000000000000000000000000000000000000000000000000000000000000000000000000000000000000000
06032678200170000131544905191000000000010000000000000000000000000000000000000000000000001545707000000000000000000000000000000000000000000000000000000000000000000000000000000000000000000000000000000000000000000000000000000000000000000000000000
07021545100170000131744905191000000000010000000000000000000000000000000000000000000000001545707000000000000000000000000000000000000000000000000000000000000000000000000000000000000000000000000000000000000000000000000000000000000000000000000000
07021545100170000131844905191000000000010000000000000000000000000000000000000000000000001545707000000000000000000000000000000000000000000000000000000000000000000000000000000000000000000000000000000000000000000000000000000000000000000000000000
07021545100170000131944905191000000000010000000000000000000000000000000000000000000000000626638000000000000000000000000000000000000000000000000000000000000000000000000000000000000000000000000000000000000000000000000000000000000000000000000000
06032678200170000132044905191000000000010000000000000000000000000000000000000000000000000000000000009355000000000000000000000000000000000000000000000000000000000000009355000000000000000000000000000000000000000000000000000000000000009355000000
08011030100060000132133903024000000000400000000000000000074148000000000000000000000000000000000000000000000000000000000000040648000000335000000000000000000000000000000000000000000000000000040648000000335000000000000000000000000000000000000000
08011030100060000132133903916000000000400000000000000000085000000000000000000000000000000000000000000000000000000000000000085000000000000000000000000000000000000000000000000000000000000000000000000000850000000000000000000000000000000000000000
03010412200010000200331901101019900000010000046681800000466818000004221440000046537400000477974000004891300000046681800000466818000004221440000046537400000477974000004891300000046681800000466818000004221440000046537400000477974000004891300000
03010412200010000200331901137000000000010000002193000000023149000000243680000002436800000024948000000278660000002193000000023149000000243680000002436800000024948000000278660000002193000000023149000000243680000002436800000024948000000278660000
03010412200010000200331901143000000000010000000000000000000000000000000000000000000000000000000000002584980000000000000000000000000000000000000000000000000000000000002584980000000000000000000000000000000000000000000000000000000000002584980000
03010412200010000200331901145000000000010000004426700000000000000000000000000000000000000000000000000157460000004426700000000000000000000000000000000000000000000000000157460000004426700000000000000000000000000000000000000000000000000157460000
03010412200010000200331911303010000000010000007291600000067027000000671940000006699700000068800000001082430000007291600000067027000000671940000006699700000068800000001082430000003948600000066860000000671940000006699700000067194000001434460000
03010412200010000200333903028000000000010000000000000000022000000000000000000000000000000000000000000000000000000000000000022000000000000000000000000000000000000000000000000000000000000000022000000000000000000000000000000000000000000000000000
03010412200010000200333903021000000000010000000704000000013300000000000000000004506000000000000000000305000000000704000000013300000000000000000003517600000008000000000323840000000704000000013300000000000000000003517600000008000000000323840000
03010412200010000200333903022000000000010000015672600000184390000000000000000029695600000011325000002016420000012512600000163690000000523000000020753800000075910000002264750000010367600000185140000000000000000025983800000075910000002264750000
03010412200010000200333903007990000000010000001350000000032400000000000000000000000000000000000000000000000000001350000000032400000000000000000000000000000000000000000000000000001350000000032400000000000000000000000000000000000000000000000000
03010412200010000200333903019000000000010000000300000000000000000000000000000003295000000000000000000000000000000300000000000000000000000000000000000000000000000000000329500000000300000000000000000000000000000000000000000000000000000329500000
03010412200010000200333903024000000000010000001200000000021600000000158360000000000000000054654000000306310000001200000000000000000000374360000000000000000000000000000852850000001200000000000000000000216000000001583600000000000000000852850000
03010412200010000200333903004000000000010000009800000000000000000000000000000000000000000000000000000140000000000000000000014000000000280000000001400000000014000000000420000000000000000000014000000000140000000002800000000014000000000420000000
03010412200010000200333903026000000000010000000000000000000000000000000000000001411500000000000000000000000000000000000000000000000000000000000001411500000000000000000000000000000000000000000000000000000000000001411500000000000000000000000000
03010412200010000200333903020000000000010000000118000000000000000000000000000000000000000000000000000000000000000118000000000000000000000000000000000000000000000000000000000000000118000000000000000000000000000000000000000000000000000000000000
03010412200010000200333903025000000000010000000000000000000000000000000000000001000000000000000000000000000000000000000000000000000000000000000000000000000000000000000100000000000000000000000000000000000000000000000000000000000000000100000000
03010412200010000200333903958010000000010000191710900000000000000000000000000000000000000000000-00000422590000030564200000316935000003076610000033110800000308691000003048130000030564200000316935000003076610000033110800000308691000003048130000
03010412200010000200333903944000000000010000019800000000000000000000000000000000000000000000000-00000311700000001387000000037655000000138700000004727900000037266000000168900000001387000000024487000000270380000002955600000034613000000372660000
03010412200010000200333903943000000000010000379431200000000000000000000000000000000000000150000-00000522620000084197500000723516000003514190000088217500000700961000003920040000039431200000819097000007035010000055966700000631466000007840070000
03010412200010000200333903916000000000010000000700000000025000000000170000000007600000000020000000000250000000000700000000025000000000170000000000000000000096000000000250000000000700000000025000000000000000000001700000000096000000000250000000
03010412200010000200333903978000000000010000000000000000031200000000000000000000000000000000000000000000000000000000000000000000000000312000000000000000000000000000000000000000000000000000000000000000312000000000000000000000000000000000000000
03010412200010000200333903977000000000010000002000000000110000000000000000000000000000000000000-00000100000000001000000000020000000000200000000002000000000020000000000300000000001000000000020000000000200000000002000000000020000000000300000000
03010412200010000200333903920000000000010000001200000000000000000000000000000000500000000000000000000000000000000000000000012000000000000000000000000000000000000000000050000000000000000000012000000000000000000000000000000000000000000050000000
03010412200010000200344905234000000000010000000000000000000000000000000000000000000000000272900000000000000000000000000000000000000000000000000000000000000000000000002729000000000000000000000000000000000000000000000000000000000000002729000000
02010412200010000200431901133000000000010000075869300000773569000006902610000062480600000874729000010413440000075869300000773569000006902610000062480600000874729000010413440000075869300000773569000006902610000062480600000874729000010413440000
02010412200010000200431901143000000000010000000000000000000000000000000000000000000000000000000000023056790000000000000000000000000000000000000000000000000000000000023056790000000000000000000000000000000000000000000000000000000000023056790000
02010412200010000200431901101019900000010000004712800000257062000002570620000025706200000263756000002704500000004712800000257062000002570620000025706200000263756000002704500000004712800000257062000002570620000025706200000263756000002704500000
02010412200010000200431901174000000000010000430980000004309800000043098000000430980000004309800000047669000000430980000004309800000043098000000430980000004309800000047669000000430980000004309800000043098000000430980000004309800000047669000000
02010412200010000200431901145000000000010000018864400000000000000000000000000000000000000000000000005296550000018864400000000000000000000000000000000000000000000000005296550000018864400000000000000000000000000000000000000000000000005296550000
02010412200010000200431901302030000000010000094467300000905058000009061110000090505800000905058000015728050000094467300000905058000009061110000090505800000905058000015728050000045252900000944673000009061110000090505800000905058000020253340000
02010412200010000200431911303010000000010000000644700000035166000000351660000003516600000036082000000524140000000644700000035166000000351660000003516600000036082000000524140000000000000000024030000000351660000003516600000035166000000709130000
02010412200010000200433901414000000000010000027866000000671552000000000000000012390800000163337000000870180000027866000000671552000000000000000012390800000163337000000870180000027866000000671552000000000000000012390800000163337000000870180000
02010412200010000200433903001000000000010000000000000000037700000000016000000006350000000021250000000886200000000000000000000000000000176850000002226500000063000000001097200000000000000000000000000000000000000003995000000063000000001097200000
02010412200010000200433903016000000000010000000000000000000000000000020000000000950000000000000000000035000000000000000000000000000000000000000000000000000011500000000035000000000000000000000000000000000000000000000000000011500000000035000000
02010412200010000200433903017000000000010000000000000000000000000000000000000000000000000000000000000374000000000000000000000000000000000000000000000000000000000000000374000000000000000000000000000000000000000000000000000000000000000374000000
02010412200010000200433903039000000000010000000000000000000000000000624500000000000000000000000000000000000000000000000000000000000000000000000005400000000000000000000084500000000000000000000000000000000000000005400000000000000000000084500000
02010412200010000200433903007990000000010000000000000000000000000000000000000000000000000024650000000000000000000000000000000000000000000000000000000000000024650000000000000000000000000000000000000000000000000000000000000024650000000000000000
02010412200010000200433903699010000000010000002010000000000630000000000000000000000000000000000000000000000000002010000000000630000000000000000000000000000000000000000000000000002010000000000630000000000000000000000000000000000000000000000000
0201041220001000020043390395802000000001000006885600000000000000000000000-000022952000000000000000000000000000011476000000114760000001147600000011476000000000000000000000000000011476000000114760000001147600000011476000000000000000000000000000
02010412200010000200433903973000000000010000037160000000101680000000000000000000000000000000000000000000000000000000000000473280000000000000000000000000000000000000000000000000000000000000473280000000000000000000000000000000000000000000000000
02010412200010000200433903969000000000010000000000000000001615000000000000000015500000000000000000000000000000000000000000001615000000000000000000000000000155000000000000000000000000000000001615000000000000000000000000000155000000000000000000
02010412200010000200433903919000000000010000000000000000027300000000100000000001092000000167000-00000163800000000000000000000000000000000000000001000000000173190000000156500000000000000000000000000000000000000001000000000173190000000156500000
02010412200010000200433903948000000000010000018936000000105200000000000000000009600000000107730000000000000000018936000000105200000000000000000009600000000107730000000000000000000000000000189360000001052000000009600000000107730000000000000000
02010412200010000200433903901000000000010000000000000000030000000000000000000000000000000000000000000000000000000000000000020000000000100000000000000000000000000000000000000000000000000000020000000000100000000000000000000000000000000000000000
02010412200010000200433903966000000000010000000000000000013013000000002770000000000000000000000000000000000000000000000000013013000000002770000000000000000000000000000000000000000000000000000000000000132900000000000000000000000000000000000000
02010412200010000200433903920000000000010000000000000000000000000000000000000000000000000000000000000059500000000000000000000000000000000000000000000000000000000000000000000000000000000000000000000000000000000000000000000000000000000000000000
02010412200010000200433903922000000000010000000000000000035000000000000000000000000000000000000000000000000000000000000000035000000000000000000000000000000000000000000000000000000000000000035000000000000000000000000000000000000000000000000000
02010412200010000200433904012000000000010000000000000000000000000000000000000000000000000000000000000090000000000000000000000000000000000000000000000000000000000000000090000000000000000000000000000000000000000000000000000000000000000090000000
02010412200010000200433904004000000000010000025000000000000000-00002500000000000000000000000000000000000000000000000000000000000000000000000000000000000000000000000000000000000000000000000000000000000000000000000000000000000000000000000000000
02010412200010000200433909305000000000010000001450000000036000000000160000000000500000000000000000000000000000001450000000036000000000160000000000500000000000000000000000000000001450000000036000000000000000000002100000000000000000000000000000
02010412200010000200444905244000000000010000000000000000300000000000000000000000000000000000000000000000000000000000000000300000000000000000000000000000000000000000000000000000000000000000300000000000000000000000000000000000000000000000000000
02010412200010000200444905245000000000010000000000000000000000000000000000000018450000000000000000000000000000000000000000000000000000000000000000000000000184500000000000000000000000000000000000000000000000000000000000000184500000000000000000
02010412200010000200444905230000000000010000000000000000000000000000000000000005850000000000000000000000000000000000000000000000000000000000000000000000000058500000000000000000000000000000000000000000000000000000000000000058500000000000000000
02010412200010000200444905241000000000010000000000000000000000000000000000000124600000000000000000000000000000000000000000000000000000000000000000000000001246000000000000000000000000000000000000000000000000000000000000001246000000000000000000
02030412200010000200533903999020000000010000406093200000000000000000000000000000000000000000000-00000926240000053350700000658037000006443780000064437800000644378000008436300000053350700000658037000006443780000064437800000644378000008436300000
02030412200010000200631901143000000000010000000000000000000000000000000000000000000000000000000000005279610000000000000000000000000000000000000000000000000000000000005279610000000000000000000000000000000000000000000000000000000000005279610000
02030412200010000200631901101019900000010000178069600001418309000010559220000105592200001023388000010559220000178069600001418309000010559220000105592200001023388000010559220000178069600001418309000010559220000105592200001023388000010559220000
02030412200010000200631901145000000000010000014161500000000000000000132550000002330600000037290000000000000000014161500000000000000000132550000002330600000037290000000000000000014161500000000000000000132550000002330600000037290000000000000000
02030412200010000200631901302010000000010000040368600000297845000002245270000022663800000222742000003326160000040368600000297845000002245270000022663800000222742000003326160000019922100000391438000002217440000022452700000216769000004543550000
02030412200010000200633901414000000000010000000000000000000000000000000000000009088800000031511000000593770000000000000000000000000000000000000009088800000031511000000593770000000000000000000000000000000000000003151100000090888000000593770000
02030412200010000200633903501000000000010000395139600000000000000000000000000000000000000000000000002207800000034693600000693872000006938720000069387200000693872000010497520000034693600000693872000006938720000069387200000693872000010497520000
02030412200010000200633903901000000000010000000000000000020000000000000000000000000000000000000000000000000000000000000000020000000000000000000000000000000000000000000000000000000000000000020000000000000000000000000000000000000000000000000000
02030412200010000200633903966000000000010000000000000000000000000000440430000000000000000013360000000015800000000000000000000000000000440430000000000000000013360000000015800000000000000000000000000000000000000004404300000013360000000015800000
020304122000100002006339093050000000000100000000000000000000000000000000000000025000-0000003000000000189950000000000000000000000000000000000000000500000000017000000000189950000000000000000000000000000000000000000500000000017000000000189950000
02030412200010000200644905235000000000010000000000000000000000000000000000000000000000000036000000000000000000000000000000000000000000000000000000000000000000000000000360000000000000000000000000000000000000000000000000000000000000000360000000
02030412200010000200644905245000000000010000000000000000000000000000000000000000000000000000000000003600000000000000000000000000000000000000000000000000000000000000000000000000000000000000000000000000000000000000000000000000000000000000000000
02030412200020000200733901414000000000010000000000000000000000000002507940000000000000000000000000000000000000000000000000000000000002507940000000000000000000000000000000000000000000000000000000000002507940000000000000000000000000000000000000
02030412400010000200831901131000000000010000017851600000178516000001785160000017851600000178516000001785160000017851600000178516000001785160000017851600000178516000001785160000017851600000178516000001785160000017851600000178516000001785160000
02030412400010000200831901101019900000010000100504400001005044000010050440000100504400001005044000010050440000100504400001005044000010050440000100504400001005044000010050440000100504400001005044000010050440000100504400001005044000010050440000
02030412400010000200831901137000000000010000000000000000010050000000100500000001005000000010050000000100500000000000000000010050000000100500000001005000000010050000000100500000000000000000010050000000100500000001005000000010050000000100500000
02030412400010000200831901143000000000010000000000000000000000000000000000000000000000000000000000005075470000000000000000000000000000000000000000000000000000000000005075470000000000000000000000000000000000000000000000000000000000005075470000
02030412400010000200831901145000000000010000000000000000000000000000507550000000000000000028197000000000000000000000000000000000000000507550000000000000000028197000000000000000000000000000000000000000507550000000000000000028197000000000000000
02030412400010000200831911303010000000010000013749000000138864000001458080000013886400000142722000002082960000013749000000138864000001458080000013886400000142722000002082960000006874500000138177000001458080000013886400000138864000002815860000
02030412400010000200833901414000000000010000005573200000000000000002271100000020899500000055732000000000000000005573200000000000000002271100000020899500000055732000000000000000005573200000000000000001156460000032045900000055732000000000000000
02030412400010000200833903017000000000010000000000000000000000000000000000000003840000000000000000000000000000000000000000000000000000000000000000000000000038400000000000000000000000000000000000000000000000000000000000000038400000000000000000
02030412400010000200833903016000000000010000000000000000000000000000000000000000700000000000000000000080600000000000000000000000000000000000000000700000000000000000000080600000000000000000000000000000000000000000700000000000000000000080600000
02030412400010000200833903973000000000010000037160000000000000000000000000000000000000000000000000000000000000000000000000371600000000000000000000000000000000000000000000000000000000000000371600000000000000000000000000000000000000000000000000
02030412400010000200833903948000000000010000005260000000000000000002232000000022390000000061000000000000000000005260000000000000000001052000000030200000000100900000000000000000000000000000052600000001052000000030200000000100900000000000000000
02030412400010000200833903970000000000010000000000000000000000000000000000000000000000000018000000000000000000000000000000000000000000000000000000000000000000000000000180000000000000000000000000000000000000000000000000000000000000000180000000
02030412400010000200833903963000000000010000000000000000000000000000000000000000000000000004500000000000000000000000000000000000000000000000000000000000000004500000000000000000000000000000000000000000000000000000000000000004500000000000000000
02030412400010000200833909305000000000010000000000000000000000000000220700000000000000000000000000000000000000000000000000000000000000220700000000000000000000000000000000000000000000000000000000000000220700000000000000000000000000000000000000
02030412400010000200844905235000000000010000000000000000000000000000000000000002750000000000000000000000000000000000000000000000000000000000000000000000000027500000000000000000000000000000000000000000000000000000000000000027500000000000000000
02030412400010000200844905241000000000010000000000000000000000000000000000000062300000000000000000000000000000000000000000000000000000000000000000000000000623000000000000000000000000000000000000000000000000000000000000000623000000000000000000
02040824300110000200931901143000000000010000000000000000000000000000000000000000000000000000000000006959240000000000000000000000000000000000000000000000000000000000006959240000000000000000000000000000000000000000000000000000000000006959240000
02040824300110000200931901173010000000010000169921400001739810000017398100000173981000001739810000016528200000169921400001739810000017398100000173981000001739810000016528200000169921400001739810000017398100000173981000001739810000016528200000
02040824300110000200931901145000000000010000011598800000057994000000000000000000000000000000000000002126440000011598800000057994000000000000000000000000000000000000002126440000011598800000057994000000000000000000000000000000000000002126440000
02040824300110000200931901302030000000010000036304100000359561000003479620000034796200000347962000005045450000036304100000359561000003479620000034796200000347962000005045450000015078400000397837000003479620000034796200000347962000006785260000
02040824300110000200931909401030000000010000000000000000000000000000000000000000000000000231975000001739810000000000000000000000000000000000000000000000000231975000001739810000000000000000000000000000000000000000000000000231975000001739810000
02040824300110000200933901414000000000010000003623000000128192000000083640000000000000000045981000000041820000003623000000128192000000083640000000000000000045981000000041820000003623000000128192000000083640000000000000000045981000000041820000
02040824300110000200933903001000000000010000000000000000075400000000032000000006428000000000345000000422000000000000000000000000000000334050000002358000000037710000000907300000000000000000000000000000117900000004519500000037710000000907300000
02040824300110000200933903017000000000010000000000000000000000000000000000000003320000000000000000000000000000000000000000000000000000000000000000000000000000000000000332000000000000000000000000000000000000000000000000000000000000000332000000
02040824300110000200933903019000000000010000000000000000000000000000000000000000280000000000000000000000000000000000000000000000000000000000000000000000000002800000000000000000000000000000000000000000000000000000000000000002800000000000000000
02040824300110000200933903016000000000010000002996700000000000000000000000000002382600000034000000000000000000000000000000029967000000000000000002382600000000000000000340000000000000000000029967000000000000000002382600000000000000000340000000
02040824300110000200933903030000000000010000000000000000000000000000048000000000000000000000000000000000000000000000000000000000000000048000000000000000000000000000000000000000000000000000000000000000048000000000000000000000000000000000000000
02040824300110000200933903007990000000010000000000000000000000000000000000000000000000000000000000000424950000000000000000000000000000000000000000000000000000000000000424950000000000000000000000000000000000000000000000000000000000000424950000
02040824300110000200933903021000000000010000000000000000000000000000000000000000000000000000000000000038470000000000000000000000000000000000000000000000000000000000000038470000000000000000000000000000000000000000000000000000000000000038470000
02040824300110000200933903958010000000010000032109400000000000000000000000000000000000000000000000000153330000004925900000054817000000930250000006092900000039833000000385640000003147600000049411000000658260000010217700000048973000000385640000
02040824300110000200933903944000000000010000007200000000000000000000000000000000000000000000000-00000109180000000440100000014683000000046970000001547400000010754000000110730000000440100000009986000000093940000000945900000011073000000167690000
02040824300110000200933903943000000000010000020400000000000000000000000000000000000000000000000-00000294510000005657900000034419000000108830000002238900000017383000000328960000002379400000055938000000221490000001538200000013786000000435000000
02040824300110000200933903948000000000010000000000000000020000000000000000000000000000000000000000001550000000000000000000020000000000000000000000000000000000000000001550000000000000000000020000000000000000000000000000000000000000001550000000
02040824300110000200933903919000000000010000000000000000000000000000000000000001092000000000000-00000081900000000000000000000000000000000000000000000000000002730000000000000000000000000000000000000000000000000000000000000002730000000000000000
02040824300110000200933903969000000000010000000000000000000000000000000000000020176000000000000000000000000000000000000000000000000000000000000000000000000201760000000000000000000000000000000000000000000000000000000000000201760000000000000000
02040824300110000200933904012000000000010000002350000000000000000000000000000000000000000000000000000000000000002350000000000000000000000000000000000000000000000000000000000000000000000000023500000000000000000000000000000000000000000000000000
02040824300110000200933909305000000000010000030500000000019340000000000000000000000000000005000-00002010000000004250000000050840000000020000000000400000000011000000000180000000002000000000073340000000020000000000400000000011000000000180000000
03010412200010000201031900415010000000010000000000000000000000000000504530000012746000000159326000001925190000000000000000000000000000504530000012746000000159326000001925190000000000000000000000000000000000000011418300000143393000002721820000
03010412200010000201031900499990000000010000000000000000000000000002402530000064910500000758694000009167550000000000000000000000000002402530000064910500000758694000009167550000000000000000000000000002402530000064910500000758694000009167550000
03010412200010000201031901143000000000010000000000000000097950000000000000000000000000000000000000026932010000000000000000097950000000000000000000000000000000000000026932010000000000000000097950000000000000000000000000000000000000026932010000
03010412200010000201031901133000000000010000107109600001071096000010710960000116035400001249612000012496120000107109600001071096000010710960000116035400001249612000012496120000107109600001071096000010710960000116035400001249612000012496120000
03010412200010000201031901174000000000010000078360000000783600000007836000000078360000000783600000007836000000078360000000783600000007836000000078360000000783600000007836000000078360000000783600000007836000000078360000000783600000007836000000
03010412200010000201031901101019900000010000311508200003155239000028461080000270229000003499352000035372860000311508200003155239000028461080000270229000003499352000035372860000311508200003155239000028461080000270229000003499352000035372860000
03010412200010000201031901145000000000010000014597300000000000000000000000000011728700000046828000001952500000014597300000000000000000000000000011728700000046828000001952500000014597300000000000000000000000000011728700000046828000001952500000
03010412200010000201031901137000000000010000017255400000177249000001878480000018967500000205057000002112200000017255400000177249000001878480000018967500000205057000002112200000017255400000177249000001878480000018967500000205057000002112200000
03010412200010000201031901302010000000010000020706700000233210000002101040000021390000000210104000003174080000020706700000233210000002101040000021390000000210104000003174080000009442400000217695000002332100000021390000000210104000004224600000
03010412200010000201031901644990100000010000000000000000012263000000000000000000000000000000000000000388860000000000000000012263000000000000000000000000000000000000000388860000000000000000012263000000000000000000000000000000000000000388860000
03010412200010000201031911303010000000010000058854900000578042000006403660000065529400000654444000010002550000058854900000578042000006403660000065529400000654444000010002550000029221700000580123000006207570000064153700000655026000013272900000
03010412200010000201031911303030000000010000000000000000000000000000385330000007706600000077066000001155990000000000000000000000000000385330000007706600000077066000001155990000000000000000000000000000000000000007706600000077066000001541320000
03010412200010000201033901414000000000010000006409600000115646000001229360000014662000000004182000000987150000006409600000115646000001229360000014662000000004182000000987150000006409600000115646000001229360000011510900000035693000000987150000
03010412200010000201033903001000000000010000003770000000075400000000810000000000247000000042200000000000000000000000000000056550000000668100000007321000000042200000000000000000000000000000056550000000353700000010465000000042200000000000000000
03010412200010000201033903017000000000010000000255000000000000000000000000000003540000000000000000000000000000000255000000000000000000000000000000000000000035400000000000000000000255000000000000000000000000000000000000000035400000000000000000
03010412200010000201033903016000000000010000006730500000002000000002121000000071557500000039220000000069800000000000000000067305000002079000000049620000000240575000000312000000000000000000067305000001179000000058620000000240575000000312000000
03010412200010000201033903039000000000010000000000000000034000000000064000000000000000000000000000000000000000000000000000034000000000000000000000000000000000000000000064000000000000000000034000000000000000000000000000000000000000000064000000
03010412200010000201033903030000000000010000000000000000000000000000000000000002350000000000000000000000000000000000000000000000000000000000000002350000000000000000000000000000000000000000000000000000000000000002350000000000000000000000000000
03010412200010000201033903023000000000010000000000000000000000000000000000000019279300000000000000000000000000000000000000000000000000000000000000000000000192793000000000000000000000000000000000000000000000000000000000000192793000000000000000
03010412200010000201033903024000000000010000000000000000000000000000000000000011677400000000000000000120000000000000000000000000000000000000000000000000000106774000000220000000000000000000000000000000000000000000000000000106774000000220000000
03010412200010000201033903096000000000010000000000000000100000000000030090000000000000000000000000000000000000000000000000100000000000030090000000000000000000000000000000000000000000000000100000000000030090000000000000000000000000000000000000
03010412200010000201033903042000000000010000000000000000000000000000000000000000000000000002994000000000000000000000000000000000000000000000000000000000000002994000000000000000000000000000000000000000000000000000000000000002994000000000000000
03010412200010000201033903022000000000010000000000000000000000000000000000000024835000000000000000000000000000000000000000000000000000000000000024835000000000000000000000000000000000000000000000000000000000000024835000000000000000000000000000
03010412200010000201033903007990000000010000000000000000000000000000000000000002600000000000000000000000000000000000000000000000000000000000000002600000000000000000000000000000000000000000000000000000000000000002600000000000000000000000000000
03010412200010000201033903011000000000010000005400000000000000000000000000000000000000000000000000000000000000000000000000000000000000540000000000000000000000000000000000000000000000000000000000000000540000000000000000000000000000000000000000
03010412200010000201033903699010000000010000000000000000450000000000000000000000000000000000000-00000653500000000000000000205410000000210100000001745000000011020000001297600000000000000000205410000000210100000001745000000011020000001297600000
0301041220001000020103390395802000000001000008852280000000000000000000000-000027329900000000000000000000000000014753800000147538000001475380000016931500000000000000000000000000014753800000147538000001475380000016931500000000000000000000000000
03010412200010000201033903943000000000010000003600000000000000000000000000000000000000000000000-00000013460000000618400000005543000000028030000000780500000005879000000064400000000300400000006257000000052690000000507300000005517000000095340000
03010412200010000201033903901000000000010000000000000000010000000000000000000000000000000000000000000000000000000000000000010000000000000000000000000000000000000000000000000000000000000000010000000000000000000000000000000000000000000000000000
03010412200010000201033903920000000000010000000000000000000000000000000000000001200000000060500000000359500000000000000000000000000000000000000000000000000060500000000420000000000000000000000000000000000000000000000000000060500000000420000000
03010412200010000201033903948000000000010000005260000000079800000001058000000035860000000000000000000798000000005260000000079800000000660000000034580000000052600000000798000000000000000000052600000001458000000034580000000052600000000798000000
03010412200010000201033903973000000000010000037160000000000000000000000000000000000000000346140-00000219750000000000000000371600000000000000000000000000000346140-00000219750000000000000000371600000000000000000000000000000346140-00000219750000
03010412200010000201033903919000000000010000000000000000046500000000000000000000000000000000000000000000000000000000000000046500000000000000000000000000000000000000000000000000000000000000046500000000000000000000000000000000000000000000000000
03010412200010000201033903947000000000010000050000000000000000000000000000000000000000000100000000000153320000007150900000121527000000931130000012658200000074394000001282070000007150900000121527000000931130000012658200000074394000001282070000
03010412200010000201033903905000000000010000053200000000000000000012110000000000000000000000000-00000228000000012000000000240000000004002000000036000000000240000000003600000000012000000000240000000004002000000036000000000240000000003600000000
03010412200010000201033903999100000000010000000000000000000000000000000000000000000000000000000000007135510000000000000000000000000000000000000000000000000000000000007135510000000000000000000000000000000000000000000000000000000000007135510000
03010412200010000201033903970000000000010000000000000000000000000000000000000000000000000135000000000000000000000000000000000000000000000000000000000000000000000000001350000000000000000000000000000000000000000000000000000000000000001350000000
03010412200010000201033903983000000000010000000000000000000000000000000000000000000000000000000000000023110000000000000000000000000000000000000000000000000000000000000023110000000000000000000000000000000000000000000000000000000000000023110000
03010412200010000201033904004000000000010000023625500000000000000001300000000000000000000300000-00002743620000005462500000071995000000662230000006311400000089871000000460650000005462500000071995000000662230000006311400000089871000000460650000
03010412200010000201033904006000000000010000017800000000890000000000000000000114814700000000000000000000000000017800000000356000000003560000000034155400000379174000006054190000017800000000356000000003560000000034155400000379174000006054190000
03010412200010000201033909305000000000010000000000000000000000000000300000000001885000000000000000000000000000000000000000000000000000300000000001885000000000000000000000000000000000000000000000000000300000000001885000000000000000000000000000
03010412200010000201044905235000000000010000000000000000000000000000000000000014550000000072000000000400000000000000000000000000000000000000000000000000000145500000000720000000000000000000000000000000000000000000000000000145500000000720000000
03010412200010000201044905230000000000010000000000000000000000000000000000000011700000000327400-00003274000000000000000000000000000000000000000000000000000117000000000000000000000000000000000000000000000000000000000000000117000000000000000000
03010412200010000201044905241000000000010000000000000000000000000000000000000062300000000000000000000000000000000000000000000000000000000000000000000000000623000000000000000000000000000000000000000000000000000000000000000623000000000000000000
03010412200010000201044905212000000000010000000000000000000000000000000000000000000000000000000000003274000000000000000000000000000000000000000000000000000000000000003274000000000000000000000000000000000000000000000000000000000000003274000000
03010412200010000201044905239000000000010000000000000000000000000000000000000000000000000146000000000000000000000000000000000000000000000000000000000000000000000000001460000000000000000000000000000000000000000000000000000000000000001460000000
03010412200010000201044905236000000000010000000000000000000000000000000000000000000000000124200-00001242000000000000000000000000000000000000000000000000000000000000000000000000000000000000000000000000000000000000000000000000000000000000000000
03010412200010000201044905242000000000010000000000000000000000000000000000000000000000000789500000000000000000000000000000000000000000000000000000000000000000000000007895000000000000000000000000000000000000000000000000000000000000007895000000
03010412600010000201133901414000000000010000000836400000008364000000000000000000000000000083598000000000000000000836400000008364000000000000000000000000000083598000000000000000000836400000008364000000000000000000000000000083598000000000000000
03010412600010000201133903025000000000010000000000000000000000000000000000000000000000000001500-00000015000000000000000000000000000000000000000000000000000000000000000000000000000000000000000000000000000000000000000000000000000000000000000000
03010412600010000201133903017000000000010000000000000000035200000000000000000047296700000147500000000285000000000000000000035200000000000000000000000000000591967000000570000000000000000000035200000000000000000000000000000575967000000730000000
03010412600010000201133903016000000000010000000000000000000000000000000000000001000000000000000000000000000000000000000000000000000000000000000001000000000000000000000000000000000000000000000000000000000000000001000000000000000000000000000000
03010412600010000201133903504000000000010000079200000000135000000000000000000000000000000000000000000590490000007098300000227866000000859000000017180000000171800000002577000000007098300000141966000000859000000025770000000171800000002577000000
0301041260001000020113390395802000000001000001966680000000000000000000000-000006555600000000000000000000000000003277800000032778000000327780000003277800000000000000000000000000003277800000032778000000327780000003277800000000000000000000000000
03010412600010000201133903948000000000010000000000000000009200000000000000000000000000000000000000000000000000000000000000009200000000000000000000000000000000000000000000000000000000000000009200000000000000000000000000000000000000000000000000
03010412600010000201133903973000000000010000000000000000000000000000000000000000000000000072740000000000000000000000000000000000000000000000000000000000000072740000000000000000000000000000000000000000000000000000000000000072740000000000000000
03010412600010000201133904012000000000010000000000000000021500000000000000000000000000000017500000000175000000000000000000021500000000000000000000000000000000000000000350000000000000000000021500000000000000000000000000000000000000000350000000
03010412600010000201133904099010000000010000000000000000000000000005860000000000000000000000000000000000000000000000000000000000000004313000000015470000000000000000000000000000000000000000000000000000000000000058600000000000000000000000000000
03010412600010000201144905224000000000010000000000000000000000000000000000000000000000000005000000000000000000000000000000000000000000000000000000000000000005000000000000000000000000000000000000000000000000000000000000000005000000000000000000
03010412600010000201144905235000000000010000000000000000000000000000000000000207371500000018000000000000000000000000000000000000000000000000000000000000002091715000000000000000000000000000000000000000000000000000000000002091715000000000000000
03010412600010000201144905242000000000010000000000000000000000000000000000000004000000000000000000000000000000000000000000000000000000000000000000000000000000000000000400000000000000000000000000000000000000000000000000000000000000000400000000
03010412600010000201144905234000000000010000000000000000000000000000000000000008313100000000000000000000000000000000000000000000000000000000000000000000000083131000000000000000000000000000000000000000000000000000000000000083131000000000000000
03010412600010000201144905245000000000010000000000000000000000000000000000000018450000000000000000000000000000000000000000000000000000000000000000000000000184500000000000000000000000000000000000000000000000000000000000000184500000000000000000
03010412600010000201144905237000000000010000000000000000000000000000000000000015250000000000000000000000000000000000000000000000000000000000000000000000000152500000000000000000000000000000000000000000000000000000000000000152500000000000000000
03010412600010000201144905230000000000010000000000000000000000000000000000000011700000000000000000000000000000000000000000000000000000000000000000000000000117000000000000000000000000000000000000000000000000000000000000000117000000000000000000
03010412600010000201144905241000000000010000000000000000000000000000000000000015400000000000000000000000000000000000000000000000000000000000000000000000000154000000000000000000000000000000000000000000000000000000000000000154000000000000000000
030104131000100002012339039900000000000100001200576000001518960000050600000000013200-0000193000-00001054180000005430100000246127000007328740000008115000000130560000003282420000005430100000246127000006496740000016435000000130560000003282420000
03010413100010000201233903992000000000010000012800000000710000000000000000000002000000000354500000000900000000006000000000120000000001200000000012000000000140000000007425000000006000000000120000000001200000000012000000000140000000007425000000
03010413100010000201233903958010000000010000000000000000007000000000000000000000000000000000000-00000070000000000000000000000000000000000000000000000000000000000000000000000000000000000000000000000000000000000000000000000000000000000000000000
03010413100010000201233904006000000000010000006000000000660000000000000000000001299000000000000000000000000000006000000000120000000001200000000012273400000127814000001824420000006000000000120000000001200000000012273400000127814000001824420000
03010413100010000201233904005000000000010000038922000000000000000000000000000032485000000000000000000350200000006487000000129740000001297400000006487000000241870000001180000000000000000000194610000001297400000006487000000182870000001770000000
03010413100010000201244905235000000000010000000000000000000000000000000000000000000000000036000000000000000000000000000000000000000000000000000000000000000000000000000360000000000000000000000000000000000000000000000000000000000000000360000000
03010512200010000201331901133000000000010000017851600000178516000001785160000017851600000178516000001785160000017851600000178516000001785160000017851600000178516000001785160000017851600000178516000001785160000017851600000178516000001785160000
03010512200010000201333903007990000000010000000000000000000000000000000000000000220000000000000000000000000000000000000000000000000000000000000000220000000000000000000000000000000000000000000000000000000000000000000000000002200000000000000000
04010412300010000201433903007990000000010000000000000000000000000000623110000002897000000000000000000000000000000000000000000000000000000000000008354100000000000000000077400000000000000000000000000000000000000008354100000000000000000077400000
04010412300010000201433903014000000000010000001300000000000000000000000000000000000000000000000000000000000000000000000000000000000000000000000000000000000013000000000000000000000000000000000000000000000000000000000000000013000000000000000000
0401041230001000020143390301600000000001000000000000000000000000000063180-000000002000000000000-00000160000000000000000000000000000000000000000004716000000000000000000000000000000000000000000000000000000000000004716000000000000000000000000000
04010412300010000201433903015000000000010000000000000000000000000000000000000001020000000000000000000000000000000000000000000000000000000000000000000000000010200000000000000000000000000000000000000000000000000000000000000010200000000000000000
04010412300010000201433903021000000000010000000000000000000000000000010600000000000000000000000000000000000000000000000000000000000000000000000000090000000000000000000001600000000000000000000000000000000000000000090000000000000000000001600000
04010412300010000201433903101000000000010000000000000000000000000000000000000002950000000000000000000000000000000000000000000000000000000000000002950000000000000000000000000000000000000000000000000000000000000002950000000000000000000000000000
04010412300010000201433903922000000000010000000000000000000000000001025000000000000000000000000000000000000000000000000000000000000000000000000010250000000000000000000000000000000000000000000000000000000000000010250000000000000000000000000000
04010412300010000201433903910000000000010000000000000000000000000000000000000003000000000000000000000000000000000000000000000000000000000000000000000000000030000000000000000000000000000000000000000000000000000000000000000030000000000000000000
04010412300010000201531901145000000000010000053620300000100252000001429330000030873000000126728000001411500000053620300000100252000001429330000030873000000126728000001411500000053620300000100252000001429330000030873000000126728000001411500000
04010412300010000201531901101019900000010000634869700006593194000065507920000617343900006733160000064546690000634869700006593194000065507920000617343900006733160000064546690000634869700006593194000065507920000617343900006733160000064546690000
04010412300010000201531901133000000000010000137423100001395103000013578150000139807800001365350000013814690000137423100001395103000013578150000139807800001365350000013814690000137423100001395103000013578150000139807800001365350000013814690000
04010412300010000201531901174000000000010000078360000000783600000007836000000078360000000783600000007836000000078360000000783600000007836000000078360000000783600000007836000000078360000000783600000007836000000078360000000783600000007836000000
04010412300010000201531901137000000000010000068057400000687286000006971370000067153200000737603000007492470000068057400000687286000006971370000067153200000737603000007492470000068057400000687286000006971370000067153200000737603000007492470000
04010412300010000201531901143000000000010000000000000000000000000000000000000000000000000000000000048849390000000000000000000000000000000000000000000000000000000000048849390000000000000000000000000000000000000000000000000000000000048849390000
04010412300010000201531901140000000000010000000000000000000000000000000000000000000000000000000000002250000000000000000000000000000000000000000000000000000000000000002250000000000000000000000000000000000000000000000000000000000000002250000000
04010412300010000201531901147000000000010000000000000000000000000000000000000000000000000629268000000000000000000000000000000000000000000000000000000000000629268000000000000000000000000000000000000000000000000000000000000629268000000000000000
04010412300010000201531901302010000000010000017867900000164556000001645560000016455600000177355000002468340000017867900000164556000001645560000016455600000177355000002468340000009640100000164556000001645560000016455600000177355000003291120000
04010412300010000201531901644990100000010000032747100000200902000001927010000018900400000113409000001729300000032747100000200902000001927010000018900400000113409000001729300000032747100000200902000001927010000018900400000113409000001729300000
04010412300010000201531909401030000000010000000000000000000000000000000000000000000000000000000000002822780000000000000000000000000000000000000000000000000000000000002822780000000000000000000000000000000000000000000000000000000000002822780000
04010412300010000201531911303010000000010000127200200001259999000012552800000126962200001266255000019071990000127200200001259999000012552800000126962200001266255000019071990000061343400001290842000012453140000128743500001243191000025501410000
04010412300010000201533901414000000000010000039012400000599766000014598950000123769200000488849000002096420000039012400000599766000014598950000123769200000488849000002096420000039012400000599766000012327850000146480200000488849000002096420000
04010412300010000201533903023000000000010000000000000000000000000000000000000035578000000012400000000000000000000000000000000000000000000000000000000000000355780000000124000000000000000000000000000000000000000000000000000355780000000124000000
04010412300010000201533903044000000000010000000000000000000000000000000000000000270000000013100000000000000000000000000000000000000000000000000000000000000015800000000000000000000000000000000000000000000000000000000000000015800000000000000000
04010412300010000201533903001000000000010000007540000000000000000000026880000012772800000000795000000000000000000000000000012064000000353700000000000000000104317000000548600000000000000000012064000000353700000000000000000104317000000548600000
04010412300010000201533903096000000000010000000000000000000000000001000000000000000000000000000-00000095000000000000000000000000000001000000000000000000000000000-00000095000000000000000000000000000001000000000000000000000000000-00000095000000
04010412300010000201533903016000000000010000047589000000103830000000372000000017847900000036940-00000252500000000000000000474640000000102000000009584000000189469000000369400000000000000000474640000000000000000010604000000189469000000369400000
04010412300010000201533903039000000000010000000000000000000000000000000000000002000000000000000000000000000000000000000000000000000000000000000002000000000000000000000000000000000000000000000000000000000000000002000000000000000000000000000000
04010412300010000201533903024000000000010000000000000000000000000000237420000004150000000000000000000000000000000000000000000000000000057420000005950000000000000000000000000000000000000000000000000000057420000005950000000000000000000000000000
04010412300010000201533903026000000000010000000000000000000000000000000000000000000000000000000000000150000000000000000000000000000000000000000000000000000000000000000150000000000000000000000000000000000000000000000000000000000000000150000000
04010412300010000201533903017000000000010000003740000000000000000000000000000000000000000000000000000000000000003740000000000000000000000000000000000000000000000000000000000000003740000000000000000000000000000000000000000000000000000000000000
04010412300010000201533903501000000000010000082116700000000000000000000000000000000000000000000-00000424670000013000000000128700000000650000000013000000000130000000001950000000013000000000063700000001300000000013000000000130000000001950000000
04010412300010000201533903699010000000010000000000000000006080000000000000000000000000000000000000000000000000000000000000006080000000000000000000000000000000000000000000000000000000000000006080000000000000000000000000000000000000000000000000
04010412300010000201533903981000000000010000002030000000000000000000000000000000000000000000000-00000057510000000101800000001018000000000000000000206300000002090000000083600000000101800000001018000000000000000000206300000002090000000083600000
0401041230001000020153390395802000000001000015184560000000000000000000000-000042619200000040200-00000134000000021309600000273066000002530760000025307600000039980000000867700000021309600000273066000002530760000025307600000039980000000867700000
04010412300010000201533903901000000000010000000000000000040000000000000000000000000000000000000000000000000000000000000000020000000000200000000000000000000000000000000000000000000000000000020000000000200000000000000000000000000000000000000000
04010412300010000201533903969000000000010000000000000000000000000000000000000000000000000001015000001823920000000000000000000000000000000000000000000000000001015000001823920000000000000000000000000000000000000000000000000001015000001823920000
04010412300010000201533903973000000000010000037160000000000000000000000000000000000000000423060000000000000000000000000000371600000000000000000000000000000423060000000000000000000000000000371600000000000000000000000000000423060000000000000000
04010412300010000201533903948000000000010000040960000000795690000012452600000093215000000514600000000803980000040960000000501130000007860400000118588000000749350000003456980000025180000000606330000008386400000118588000000749350000003456980000
04010412300010000201533903916000000000010000000000000000000000000000000000000004500000000013000000000000000000000000000000000000000000000000000004500000000000000000000130000000000000000000000000000000000000000004500000000000000000000130000000
04010412300010000201533903919000000000010000001365000000000000000000000000000000000000000000000-00000136500000000000000000000000000000000000000000000000000000000000000000000000000000000000000000000000000000000000000000000000000000000000000000
04010412300010000201533903963000000000010000000000000000000600000000000000000000000000000000000000000000000000000000000000000600000000000000000000000000000000000000000000000000000000000000000600000000000000000000000000000000000000000000000000
04010412300010000201533903920000000000010000000000000000000000000000140000000000000000000000000000000397500000000000000000000000000000140000000000000000000000000000000397500000000000000000000000000000140000000000000000000000000000000397500000
04010412300010000201533903970000000000010000000000000000000000000000000000000000000000000072000000000000000000000000000000000000000000000000000000000000000000000000000720000000000000000000000000000000000000000000000000000000000000000720000000
04010412300010000201533903996000000000010000000000000000000000000000000000000000000000000000000000000259000000000000000000000000000000000000000000000000000000000000000259000000000000000000000000000000000000000000000000000000000000000259000000
0401041230001000020153390391400000000001000000000000000000000000000083598-00000835980000000000000000000000000000000000000000000000000083598-00000835980000000000000000000000000000000000000000000000000083598-000008359800000000000000000000000000
04010412300010000201533904006000000000010000045800000005038000000000000000000016995100000000000000000000000000045800000000916000000009160000000092793200000975632000014723870000045800000000916000000009160000000092793200000975632000014723870000
04010412300010000201533904099010000000010000000000000000000000000004560000000000000000000000000000000000000000000000000000000000000000000000000045600000000000000000000000000000000000000000000000000000000000000045600000000000000000000000000000
04010412300010000201533904004000000000010000024926500000000000000002500000000000000000000250000-00000809960000009228200000105581000001020280000009619500000122876000001493070000009228200000105581000001020280000009619500000122876000001493070000
04010412300010000201533909305000000000010000000000000000000000000001164000000005500000000050405000000000000000000000000000000000000001164000000005500000000050405000000000000000000000000000000000000001000000000007140000000050405000000000000000
04010412300010000201544905235000000000010000000000000000000000000000000000000000000000000285100000000150000000000000000000000000000000000000000000000000000126000000001741000000000000000000000000000000000000000000000000000126000000001741000000
04010412300010000201544905236000000000010000000000000000000000000000000000000000000000000093850000000000000000000000000000000000000000000000000000000000000000000000000938500000000000000000000000000000000000000000000000000000000000000938500000
04010412300010000201544905242000000000010000000000000000000000000000000000000000000000000124500000000000000000000000000000000000000000000000000000000000000000000000001245000000000000000000000000000000000000000000000000000000000000001245000000
04010412300010000201544905206000000000010000000000000000018532000000000000000000000000000000000000000000000000000000000000000000000000185320000000000000000000000000000000000000000000000000000000000000185320000000000000000000000000000000000000
11012884600000000000733904799000000000010000000000000000151290000000000000000000000000000000000000001889100000000000000000151290000000000000000000000000000000000000001889100000000000000000151290000000000000000000000000000000000000001889100000
11012884600000000000733904703000000000010000004400000000048000000000000000000000000000000000000000000000000000004400000000048000000000000000000000000000000000000000000000000000004400000000048000000000000000000000000000000000000000000000000000
11012884600000000000733904716000000000010000000000000000000000000000007940000000000000000000000000000000000000000000000000000000000000007940000000000000000000000000000000000000000000000000000000000000007940000000000000000000000000000000000000
110128846000000000007339047120000000101800000030000000000000000000000000000000000000-0000020700000000000000000000251100000002382000000000000000000222900000002178000000000000000000251100000002382000000000000000000222900000002178000000000000000
11012884600000000000831909136000000000010000000000000000000000000224042360000000000000000000000000000000000000000000000000000000000224042360000000000000000000000000000000000000000000000000000000000224042360000000000000000000000000000000000000
11012884600000000000831909106000000000010000029977700000000000000000000000000000000000000000000000000000000000029977700000000000000000000000000000000000000000000000000000000000000000000000299777000000000000000000000000000000000000000000000000
11012884600000000000831909199000000000010000000000000000000000000000000000001704510600000000000000000000000000000000000000000000000000000000001704510600000000000000000000000000000000000000000000000000000000001704510600000000000000000000000000
11012884600000000000831909101000000000010000000000000000000000000000000000000377604700000000000000000000000000000000000000000000000000000000000377604700000000000000000000000000000000000000000000000000000000000377604700000000000000000000000000
11012884600000000000833909101000000000010000007997800000000000000000000000000000000000000000000000003416540000007997800000000000000000000000000000000000000000000000003416540000000000000000079978000000000000000000000000000000000000003416540000
11012884600000000000833909102000000000010000000000000000000000000000000000000096641700000000000000000000000000000000000000000000000000000000000096641700000000000000000000000000000000000000000000000000000000000096641700000000000000000000000000
11010412200000000000233717001000000000010000148134000000000000000000000000000000000000000000000000000000000000012344500000246890000002468900000024689000000246890000003703350000012344500000246890000002468900000024689000000246890000003703350000
11010412200000000000333903999020000000010000180672000000000000000000000000000000000000000000000000000000000000030112000000301120000001505600000030112000000301120000004516800000015056000000301120000003011200000030112000000301120000004516800000
10022060800040000000433304139020000000010000000000000004800672000000000000000228800000000000000000000000000000000000000003139776000016608960000228800000000000000000000000000000000000000003139776000016608960000228800000000000000000000000000000
11012884300000000000546917199010000000010001342618800000000000000000000000000000000000000000000000000000000001342618800000000000000000000000000000000000000000000000000000000001342618800000000000000000000000000000000000000000000000000000000000
11012884600000000000733904712000000000010003296660500000000000000000000000000000000000000000000-00058334170000427584200004153835000052111780000407285300004369498000050499820000324364900003515127000047316600000514737000003756907000049332990000
11012884600000000000733904718000000000010000000000000000235850000000000000000057580400000383297000000000000000000000000000235850000000000000000057580400000383297000000000000000000000000000235850000000000000000057580400000000000000003832970000
11012884600000000000733904710000000000010000000000000000002646000000000000000000000000000066779000000000000000000000000000002646000000000000000000000000000066779000000000000000000000000000002646000000000000000000000000000066779000000000000000
11012884600000000000733904720000000000010000008304000000213579000005821290000070568400000354656000015348880000005984000000236779000005821290000070568400000354656000015348880000000140000000081640000003690150000042669300001060340000015348880000
11012884600000000000833909199000000000010000000000000000000000000000000000000000000000000000000000001000000000000000000000000000000000000000000000000000000000000000001000000000000000000000000000000000000000000000000000000000000000001000000000
11012884600000000000931911399010000000010002196918000020820843000209173140002099072500021267313000318449210002196918000020820843000209173140002099072500021267313000318449210001184620000020359368000210536560002101836100021001897000425308140000
12010927200200000001131900101000000000500002366967700028143080000259205770002737806000027754692000287792000002366967700028143080000259205770002737806000027754692000287792000002366967700028143080000259205770002737806000027754692000287792000000
12010927200200000001131900106000000000500000000000000000144270000000000000000000000000000000000000141170620000000000000000144270000000000000000000000000000000000000141170620000000000000000000000000001442700000000000000000000000000141170620000
12010927200200000001231900301000000000500000768787200004654147000043983740000452626000004526260000045262600000768787200004654147000043983740000452626000004526260000045262600000768787200004654147000043983740000452626000004526260000045262600000
05010412200010000201631901174000000000010000078360000000783600000007836000000078360000000783600000007836000000078360000000783600000007836000000078360000000783600000007836000000078360000000783600000007836000000078360000000783600000007836000000
05010412200010000201631901101019900000010000367823800004927116000052521940000525219400005459834000055189260000367823800004927116000052521940000525219400005459834000055189260000367823800004927116000052521940000525219400005459834000055189260000
05010412200010000201631901133000000000010000065682200000977248000010573540000105735400001057354000010573540000065682200000977248000010573540000105735400001057354000010573540000065682200000977248000010573540000105735400001057354000010573540000
05010412200010000201631901143000000000010000000000000000000000000000000000000000000000000000000000038042070000000000000000000000000000000000000000000000000000000000038042070000000000000000000000000000000000000000000000000000000000038042070000
05010412200010000201631901145000000000010000058809000000387783000000000000000000000000000000000000000557020000058809000000387783000000000000000000000000000000000000000557020000058809000000387783000000000000000000000000000000000000000557020000
05010412200010000201631901137000000000010000032701500000380063000004023860000040493400000417116000004202030000032701500000380063000004023860000040493400000417116000004202030000032701500000380063000004023860000040493400000417116000004202030000
05010412200010000201631901147000000000010000000000000000000000000004065700000000000000000000000000000000000000000000000000000000000004065700000000000000000000000000000000000000000000000000000000000004065700000000000000000000000000000000000000
05010412200010000201631901302010000000010000028113400000275990000003481980000031019800000341338000005436240000028113400000275990000003481980000031019800000341338000005436240000016024300000241782000003101980000034819800000310198000007298630000
05010412200010000201631901644990100000010000000000000000000000000000000000000001160400000035691000000542560000000000000000000000000000000000000001160400000035691000000542560000000000000000000000000000000000000001160400000035691000000542560000
05010412200010000201631911303010000000010000083986800000906140000008603550000087250800000879445000013297030000083986800000906140000008603550000087250800000879445000013297030000043024800000884307000008589850000086890300000876583000017689930000
05010412200010000201633901414000000000010000000000000000004182000004378500000027051400000000000000000041820000000000000000004182000004378500000027051400000000000000000041820000000000000000004182000004179120000029045200000000000000000041820000
05010412200010000201633903023000000000010000000000000000000000000000000000000000000000000000000000001043000000000000000000000000000000000000000000000000000000000000001043000000000000000000000000000000000000000000000000000000000000001043000000
05010412200010000201633903016000000000010000000000000000000000000000086800000000000000000010000000000000000000000000000000000000000000041800000000450000000000000000000100000000000000000000000000000000041800000000450000000000000000000100000000
05010412200010000201633903017000000000010000000000000000000000000000000000000001450000000000000000000000000000000000000000000000000000000000000000000000000014500000000000000000000000000000000000000000000000000000000000000014500000000000000000
05010412200010000201633903007990000000010000001275000000000000000000000000000007280000000090349000000000000000001275000000000000000000000000000000000000000139502000000236470000001275000000000000000000000000000000000000000139502000000236470000
05010412200010000201633903021000000000010000000000000000000000000000000000000000000000000001285000000000000000000000000000000000000000000000000000000000000000000000000012850000000000000000000000000000000000000000000000000000000000000012850000
05010412200010000201633903024000000000010000000000000000015900000000000000000000000000000000000000000000000000000000000000015900000000000000000000000000000000000000000000000000000000000000015900000000000000000000000000000000000000000000000000
05010412200010000201633903501000000000010000000000000000000000000000000000000036000000000000000000000000000000000000000000000000000000000000000000000000000360000000000000000000000000000000000000000000000000000000000000000360000000000000000000
0501041220001000020163390395802000000001000007871040000000000000000000000-000026236800000000000000000000000000013118400000131184000001311840000013118400000000000000000000000000013118400000131184000001311840000013118400000000000000000000000000
05010412200010000201633903901000000000010000000000000000010000000000000000000000000000000000000000000000000000000000000000010000000000000000000000000000000000000000000000000000000000000000010000000000000000000000000000000000000000000000000000
05010412200010000201633903973000000000010000000000000000096320000000000000000000000000000000000000000000000000000000000000096320000000000000000000000000000000000000000000000000000000000000096320000000000000000000000000000000000000000000000000
05010412200010000201633903969000000000010000000000000000001615000000000000000016000000000000000000000000000000000000000000001615000000000000000016000000000000000000000000000000000000000000001615000000000000000016000000000000000000000000000000
05010412200010000201633903963000000000010000002550000000000000000000000000000000000000000000000000000106700000000000000000000000000000000000000002550000000000000000000106700000000000000000000000000000000000000002550000000000000000000106700000
05010412200010000201633903959000000000010000000000000000040000000000000000000000000000000000000000000000000000000000000000040000000000000000000000000000000000000000000000000000000000000000040000000000000000000000000000000000000000000000000000
05010412200010000201633903919000000000010000000000000000000000000000000000000001500000000000000000000000000000000000000000000000000000000000000001500000000000000000000000000000000000000000000000000000000000000001500000000000000000000000000000
05010412200010000201633903922000000000010000000000000000089800000000000000000000000000000000000000000400000000000000000000089800000000000000000000000000000000000000000400000000000000000000089800000000000000000000000000000000000000000400000000
05010412200010000201633903948000000000010000013200000000000000000000000000000000000000000000000000000000000000013200000000000000000000000000000000000000000000000000000000000000013200000000000000000000000000000000000000000000000000000000000000
05010412200010000201633903970000000000010000000000000000000000000000000000000000000000000063000000000000000000000000000000000000000000000000000000000000000000000000000630000000000000000000000000000000000000000000000000000000000000000630000000
05010412200010000201633903920000000000010000000000000000000000000000000000000000000000000000000000000119000000000000000000000000000000000000000000000000000000000000000119000000000000000000000000000000000000000000000000000000000000000119000000
05010412200010000201633903923000000000010000000000000000000000000000000000000000000000000080250000000000000000000000000000000000000000000000000000000000000000000000000802500000000000000000000000000000000000000000000000000000000000000802500000
05010412200010000201633903983000000000010000000000000000000000000000000000000000000000000000000000000435000000000000000000000000000000000000000000000000000000000000000435000000000000000000000000000000000000000000000000000000000000000435000000
05010412200010000201633904004000000000010000022923500000000000000001000000000000000000000000000-00000944760000003397700000049284000000815600000005076800000019170000000000000000003397700000049284000000815600000005076800000019170000000000000000
05010412200010000201633904006000000000010000006000000000560000000000000000000012226400000000000000000000000000006000000000120000000001200000000012273000000127812000001917220000006000000000120000000001200000000012273000000127812000001917220000
05010412200010000201633909305000000000010000000000000000031500000000250000000003000000000000000000000050000000000000000000031500000000250000000003000000000000000000000050000000000000000000031500000000250000000003000000000000000000000050000000
