87612826000190010120183112201801012019PREFEITURA MUNICIPAL INDEPENDENCIA                                              
0502123610018000020143190040102000000020000000529500000038889300001018076000016733620000172960200002818034000000529500000038889300001018076000016733620000172960200002818034000000529500000038889300001018076000016733620000172960200002818034
0502123610018000020143190041501000000020000000121450000019952200000279412000003740150000043243800000512851000000121450000019952200000279412000003740150000043243800000512851000000000000000007103700000273637000003150910000041198300000738635
0502123610018000020143190110101000000020000000000000000000000000000000000000001992600000039852000000398520000000000000000000000000000000000000001992600000039852000000398520000000000000000000000000000000000000001992600000039852000000398520
0502123610018000020143190114300000000020000000000000000000000000000000000000000000000000000000000000141143000000000000000000000000000000000000000000000000000000000000141143000000000000000000000000000000000000000000000000000000000000141143
0502123610018000020143190114000000000031000001893500000022490800000235180000002389220000023892200000238922000001893500000022490800000235180000002389220000023892200000238922000001893500000022490800000235180000002389220000023892200000238922
0502123610018000020143190113700000000031000027322510000262178300002541448000026663750000270612800002719152000027322510000262178300002541448000026663750000270612800002719152000027322510000262178300002541448000026663750000270612800002719152
0502123610018000020143190114500000000031000051261450000012556800000527290000002753640000000000000000064837000051261450000012556800000527290000002753640000000000000000064837000051261450000012556800000527290000002753640000000000000000064837
0502123610018000020143190110101000000031000208569110001938658700019656660000204760110002034895000021034551000208569110001938658700019656660000204760110002034895000021034551000208569110001938658700019656660000203753180002044964300021034551
0502123610018000020143190113300000000031000015613760000157000800001716039000017490880000182210500001893332000015613760000157000800001716039000017490880000182210500001893332000015613760000157000800001716039000017490880000182210500001893332
0502123610018000020143190114300000000031000000000000000000000000000039224000000000000000000000000012537326000000000000000000000000000039224000000000000000000000000012537326000000000000000000000000000039224000000000000000000000000012537326
0502123610018000020143190114700000000031000000000000000000000000000000000000002320100000042978000000197770000000000000000000000000000000000000002320100000042978000000197770000000000000000000000000000000000000000000000000066179000000197770
0502123610018000020143190111000000000031000000000000000000000000000000000000000000000000000000000000041000000000000000000000000000000000000000000000000000000000000000041000000000000000000000000000000000000000000000000000000000000000041000
0502123610018000020143190130101000000020000000336530000002751200000027512000000275120000002751200000027512000000336530000002751200000027512000000275120000002751200000027512000000199980000002741100000027512000000275120000002751200000041268
0502123610018000020143190130201000000020000000964840000007887800000078878000001245810000017028400000242096000000964840000007887800000078878000001245810000017028400000242096000000573350000007858800000078878000000788780000017028400000327238
0502123610018000020143190164401000000020000000000000000000000000000072262000000146710000001052700000000000000000000000000000000000000072262000000146710000001052700000000000000000000000000000000000000072262000000146710000001052700000000000
0502123610018000020143190940103000000031000000000000000000000000000141207000000000000000000000000000000000000000000000000000000000000141207000000000000000000000000000000000000000000000000000000000000141207000000000000000000000000000000000
0502123610018000020143191130301000000020000042137180000351407300003600269000035339580000354139600005378826000042137180000351407300003600269000035339580000354139600005378826000025014300000343422100003626533000035520530000352725400007140749
0502123610018000020143390300100000000020000001197000000000000000000000000000000000000000000000000000000000000000490770000007062300000000000000000000000000000000000000000000000000490770000007062300000000000000000000000000000000000000000000
0502123610018000020143390302400000000020000015320700000010910800000608818000000458570000000000000000250898000003984120000122416600000530918000001317570000001060000000250898000000000000000162257800000530918000001317570000001060000000250898
0502123610018000020143390301700000000020000000069000000000000000000012650000000300000000000000000000000000000000069000000000000000000012650000000000000000000000000000030000000000069000000000000000000012650000000000000000000000000000030000
0502123610018000020143390302800000000020000000000000000004900000000000000000000000000000004196800000000000000000000000000000000000000049000000000000000000004196800000000000000000000000000000000000000049000000000000000000004196800000000000
05021236100180000201433903016000000000200000067354400000025520000000226400000006491400000000000-0000009215000000220000000064386400000031720000000092700000003524900000035300000000000000000066586400000031720000000092700000003524900000035300
0502123610018000020143390301400000000020000000000000000007020000000000000000000000000000000000000000000000000000000000000007020000000000000000000000000000000000000000000000000000000000000007020000000000000000000000000000000000000000000000
0502123610018000020143390302200000000020000004143350000087979600000000000000000465450000005913000000000000000004143350000050354500000222205000001357200000010803100000015970000004143350000050354500000222205000001357200000010803100000015970
0502123610018000020143390302100000000020000000000000000001500000000000000000000000000000000000000000000000000000000000000001500000000000000000000000000000000000000000000000000000000000000001500000000000000000000000000000000000000000000000
0502123610018000020143390301100000000020000000000000000000000000000000000000000175000000000000000000000000000000000000000000000000000000000000000175000000000000000000000000000000000000000000000000000000000000000175000000000000000000000000
0502123610018000020143390300400000000020000001076000000000000000000000000000000000000000000000000000000000000001076000000000000000000000000000000000000000000000000000000000000001076000000000000000000000000000000000000000000000000000000000
0502123610018000020143390304600000000020000000000000000073610000000009640000000000000000000000000000096500000000000000000073610000000000000000000096400000000000000000096500000000000000000073610000000000000000000096400000000000000000096500
0502123610018000020143390300799000000020000000392450000000849000000000000000000000000000000000000000000000000000000000000003924500000000000000000000000000000000000000008490000000000000000003924500000000000000000000000000000000000000008490
0502123610018000020143390302000000000020000000000000000003370000000000000000000000000000000000000000000000000000000000000001680000000000000000000169000000000000000000000000000000000000000001680000000000000000000169000000000000000000000000
0502123610018000020143390302200000001014000000000000000000000000000000000000000000000000023338000000000000000000000000000000000000000000000000000000000000018000000000053380000000000000000000000000000000000000000000000000018000000000053380
0502123610018000020143390302100000001014000000000000000000000000000000000000000000000000000929500000000000000000000000000000000000000000000000000000000000000000000000009295000000000000000000000000000000000000000000000000000000000000009295
0502123610018000020143390301600000001014000000000000000000000000000000000000000000000000011534000000030800000000000000000000000000000000000000000000000000003944000000106700000000000000000000000000000000000000000000000000003944000000106700
0502123610018000020143390302400000001014000000000000000000000000000000000000000000000000023535000000000000000000000000000000000000000000000000000000000000023535000000000000000000000000000000000000000000000000000000000000023535000000000000
0502123610018000020143390302400000001036000000000000000000000000000000000000000000000000000000000000114634000000000000000000000000000000000000000000000000000000000000114634000000000000000000000000000000000000000000000000000000000000114634
0502123610018000020143390301600000001036000000000000000000000000000000000000000000000000000000000000060625000000000000000000000000000000000000000000000000000000000000060625000000000000000000000000000000000000000000000000000000000000060625
05021236100180000201433903978000000000200000009170300000000000-0000091703000001394000000000000000000000000000000000000000000000000000000000000001394000000000000000000000000000000000000000000000000000000000000001394000000000000000000000000
05021236100180000201433903944000000000200000070000000000000000000000000000000000000000000000000-0000049325000000649780000009864600000081026000001217770000014358400000140664000000649780000009864600000081026000001217770000014358400000140664
05021236100180000201433903943000000000200000245000000000000000000000000000000000000000000114437-0000138048000001425520000028455400000570239000002050290000057200500000652010000001425520000028455400000424032000003512360000037646400000847551
05021236100180000201433903958010000000200000042000000000000000000000000000000000000000000000000-0000077341000000686020000004937800000048196000000537800000006271500000059988000000686020000004937800000048196000000537800000006271500000059988
0502123610018000020143390396500000000020000000000000000184530000000000000-00012302000000000000000000000000000000000000000030755000000000000000003075500000000000000000000000000000000000000015377500000153775000003075500000000000000000000000
0502123610018000020143390391600000000020000010610000000023270000000514000000000000000000000000000000000000000001300000000114370000000534000000000000000000000000000000000000000000000000000127370000000534000000000000000000000000000000000000
0502123610018000020143390390500000000020000000275280000000000000000056000000000300000000000000000000000000000000275280000000000000000000000000000000000000005600000000030000000000000000000002752800000000000000000000000000005600000000030000
05021236100180000201433903912000000000200000000000000000018000000005100000000000000000000000000-0000111114000000000000000000000000000150000000001065720000001971600000140598000000000000000000000000000150000000001065720000001971600000140598
0502123610018000020143390391100000000020000003425640000000000000000000000000000000000000000000000000000000000000285470000005709400000057094000000570940000005709400000085641000000000000000008564100000057094000000570940000005709400000085641
0502123610018000020143390392000000000020000003885000000000000000000023000000000000000000000000000000224000000003010000000008750000000000000000000230000000000000000000224000000000000000000038850000000000000000000230000000000000000000224000
0502123610018000020143390391700000000020000000000000000007100000000000000000000000000000000000000000000000000000000000000007100000000000000000000000000000000000000000000000000000000000000007100000000000000000000000000000000000000000000000
0502123610018000020143390394700000000020000000000000000000000000000000000000000098040000000000000000000000000000000000000000000000000000000000000098040000000000000000000000000000000000000000000000000000000000000098040000000000000000000000
0502123610018000020143390396300000000020000000000000000000000000000011000000000000000000000000000000006000000000000000000000000000000011000000000000000000000000000000006000000000000000000000000000000011000000000000000000000000000000006000
0502123610018000020143390399907000000020000000000000000000000000000000000000000000000000000000000000282500000000000000000000000000000000000000000000000000000000000000282500000000000000000000000000000000000000000000000000000000000000282500
0502123610018000020143390394800000000020000000000000000000000000000019600000000000000000000000000000000000000000000000000000000000000000000000000000000000000000000000019600000000000000000000000000000000000000000000000000000000000000019600
0502123610018000020143390396900000000020000002038660000000000000000000000000000000000000000000000000000000000002038660000000000000000000000000000000000000000000000000000000000002038660000000000000000000000000000000000000000000000000000000
0502123610018000020143390397400000000020000000000000000000000000000000000000000000000000000000000000003680000000000000000000000000000000000000000000000000000000000000003680000000000000000000000000000000000000000000000000000000000000003680
0502123610018000020143390460100000000020000008711940000147724200001428987000015701260000181520000001970000000008711940000147724200001428987000015701260000181520000001970000000007196820000090907200001401486000015388750000167883400002884800
0502123610018000020143393390000000000020000000000000000000000000001100000000000000000000000000000000132000000000000000000000000000000000000000002200000000044000000000572000000000000000000000000000000000000000002200000000044000000000572000
0502123610018000020144490521200000000020000000000000000000000000000000000000000395000000000000000000000000000000000000000000000000000000000000000395000000000000000000000000000000000000000000000000000000000000000395000000000000000000000000
0502123610018000020144490523400000000020000000000000000000000000000079700000000000000000000000000000000000000000000000000000000000000000000000000797000000000000000000000000000000000000000000000000000000000000000797000000000000000000000000
0502123610018000020144490524200000000020000000000000000000000000000000000000003600000000000000000000000000000000000000000000000000000000000000000000000000036000000000000000000000000000000000000000000000000000000000000000036000000000000000
0502123610018000020144490524000000000020000002000000000000000000000000000000000000000000000000000000000000000002000000000000000000000000000000000000000000000000000000000000000000000000000020000000000000000000000000000000000000000000000000
050212361001800002014449052330000000002000000000000000000000000000037400000000000000-000037400000000000000000000000000000000000000000000000000000000000000000000000000000000000000000000000000000000000000000000000000000000000000000000000000
0502123610018000020144490522400000000020000000000000000000000000000000000000000000000000037400000000000000000000000000000000000000000000000000000000000000037400000000000000000000000000000000000000000000000000000000000000037400000000000000
0502123610018000020144490523500000000020000000000000000000000000000000000000012540000000000000000000000000000000000000000000000000000000000000000000000000125400000000000000000000000000000000000000000000000000000000000000125400000000000000
0502123650017000020163190113700000000020000000937090000009589000000050790000000522710000005375200000055992000000937090000009589000000050790000000522710000005375200000055992000000937090000009589000000050790000000522710000005375200000055992
0502123650017000020163190110101000000020000006633690000066283600000437336000004500780000042252500000462820000006633690000066283600000437336000004500780000042252500000462820000006633690000066283600000437336000004500780000042252500000462820
1101288450000000000033171700100000000001000009305500000000000000000000000000000000000000000000000000000000000000775460000015509200000155092000001550920000015509200000232636000000775460000015509200000155092000001550920000015509200000232636
1101288450000000000033371700100000000001000002858560000000000000000000000000000000000000000000000000000000000000238210000004764200000047642000000476420000004764200000071467000000238210000004764200000047642000000476420000004764200000071467
1101288450000000000034471700100000000001000000329980000000000000000000000000000000000000000000000000000000000000027500000000550000000005500000000055000000000550000000008248000000027500000000550000000005500000000055000000000550000000008248
1101288450000000000043371700200000000001000000000000000000000000001204480000000000000000000000000000000000000000000000000000000000000000000000004516800000000000000000752800000000000000000000000000000000000000004516800000000000000000752800
1101288430000000000064691719901000000001000123473760000000000000000000000000000000000000000000000000000000000123473760000000000000000000000000000000000000000000000000000000000123473760000000000000000000000000000000000000000000000000000000
1101288450000000000073390939904000000001000000000000000000000000000018873000000000000000000000000000000000000000000000000000000000000018873000000000000000000000000000000000000000000000000000000000000018873000000000000000000000000000000000
1101288450000000000073390939904000001009000000000000000000929600000000000000000000000000000000000000000000000000000000000000929600000000000000000000000000000000000000000000000000000000000000929600000000000000000000000000000000000000000000
1101288450000000000073390939904000001023000000000000000000000000000027968000000000000000000000000000000000000000000000000000000000000027968000000000000000000000000000000000000000000000000000000000000027968000000000000000000000000000000000
1101288450000000000073390939904000001070000000000000000000000000000000000000000000000000394211900000000000000000000000000000000000000000000000000000000000394211900000000000000000000000000000000000000000000000000000000000394211900000000000
1101288450000000000083390471000000000001000000000000000000000000000016306000000489180000000815300000032612000000000000000000000000000016306000000489180000000815300000032612000000000000000000000000000016306000000489180000000815300000032612
1101288450000000000083390470300000000001000000360000000005400000000036000000000420000000004800000000048000000000000000000009000000000036000000000420000000004800000000048000000000000000000009000000000036000000000420000000004800000000048000
1101288450000000000083390471200000000001000209000000000000000000000000000000000000000000000000000001191251000029054240000336748600003489664000037675820000347273400005088361000029054240000336748600003489664000037675820000347273400003388361
110128845000000000008339047120000000101800000030000000000000000000000000000000000000-000000997900000000000000000050310000000469600000000000000000050310000000526300000000000000000050310000000469600000000000000000050310000000526300000000000
1101288460000000000103190919900000000001000000000000000077509900000000000000000000000000047892400000000000000000000000000077509900000000000000000000000000047892400000000000000000000000000077509900000000000000000000000000047892400000000000
1101288460000000000103190910600000000001000000000000000040635000000000000000000000000000000000000000000000000000000000000040635000000000000000000000000000000000000000000000000000000000000040635000000000000000000000000000000000000000000000
1101288460000000000103390919900000000001000000000000000000000000000000000000000000000000000000000000245912000000000000000000000000000000000000000000000000000000000000245912000000000000000000000000000000000000000000000000000000000000245912
1201092720002000000113190010100000000050000023027960000211570200002115396000021153960000211539600002115396000023027960000211570200002115396000021153960000211539600002115396000023027960000211570200002115396000021153960000211539600002115396
1201092720002000000113190010600000000050000000000000000000000000000000000000000000000000000000000001057698000000000000000000000000000000000000000000000000000000000001057698000000000000000000000000000000000000000000000000000000000001057698
1201092720002000000113190030100000000050000031148180000264314800002626884000026268840000266244100002643238000031148180000264314800002626884000026268840000266244100002643238000031148180000264314800002626884000026268840000266244100002643238
1201092720002000000113190030300000000050000000000000000000000000000000000000000000000000000000000001321619000000000000000000000000000000000000000000000000000000000001321619000000000000000000000000000000000000000000000000000000000001321619
0504288450000000000193390921800000001009000000000000000057182400000000000000000000000000000000000000000000000000000000000057182400000000000000000000000000000000000000000000000000000000000057182400000000000000000000000000000000000000000000
1101092720002000000213191139901000000001000160405190001484295700014589514000145488670001445158100021919708000160405190001484295700014589514000145488670001445158100021919708000087004060001467712100014846783000145877300001442290700029158199
1101103020025000000893371700100000000001000041807280000000000000000000000000004602800000000000000000092056000003483940000069678800000696788000007681460000090159800001321350000003483940000069678800000696788000007681460000090159800001321350
0502123670018000000963350430100000000020000144000000000000000000000000000000000000000000000000000000000000000013000000000260000000001300000000026000000000260000000004000000000013000000000130000000002600000000026000000000260000000004000000
0503133920020000000973350419900000000001000000000000000000000000001700000000000000000000000000000000000000000000000000000000000000001700000000000000000000000000000000000000000000000000000000000000000510000000000000000000068000000000510000
1101288450000000000983350439900000000001000000000000000000000000000000000000003000000000000000000000000000000000000000000000000000000000000000003000000000000000000000000000000000000000000000000000000000000000003000000000000000000000000000
1101288460000000000993390923900000000001000000000000000000000000000000000000000000000000000000000000126600000000000000000000000000000000000000000000000000000000000000126600000000000000000000000000000000000000000000000000000000000000126600
1101288460000000000993390929300000000001000000000000000000000000000000000000000000000000000000000000140000000000000000000000000000000000000000000000000000000000000000140000000000000000000000000000000000000000000000000000000000000000140000
0301041260001000010053390301700000000001000000000000000011740000000028000000000000000000000000000000145800000000000000000011175000000005650000000280000000000000000000145800000000000000000011175000000005650000000280000000000000000000145800
0301041260001000010053390394800000000001000000000000000003500000000000000000000000000000000000000000000000000000000000000000000000000000000000000000000000000000000000035000000000000000000000000000000000000000000000000000000000000000035000
0301041260001000010053390391100000000001000000000000000000000000000000000000000000000000004785400000000000000000000000000000000000000000000000000000000000004785400000000000000000000000000000000000000000000000000000000000004785400000000000
0301041260001000010053390399500000000001000000000000000000000000000000000000000000000000000000000000055500000000000000000000000000000000000000000000000000000000000000055500000000000000000000000000000000000000000000000000000000000000055500
030104126000100001005339039270000000000100000047000-000004700000000000000000000000000000000000000000000000000000000000000000000000000000000000000000000000000000000000000000000000000000000000000000000000000000000000000000000000000000000000
0301041260001000010054490524200000000001000000000000000015030000000000000000000000000000000000000000000000000000000000000000000000000150300000000000000000000000000000000000000000000000000000000000000150300000000000000000000000000000000000
0301041260001000010054490520600000000001000000000000000001780000000000000000000000000000000000000000000000000000000000000001780000000000000000000000000000000000000000000000000000000000000001780000000000000000000000000000000000000000000000
0301041260001000010054490523500000000001000000000000000000000000000992380000000000000000000000000000000000000000000000000000000000000885830000001065500000000000000000000000000000000000000000000000000885830000001065500000000000000000000000
0702267820006000010284490519901000000001000000000000000237055300000000000000000000000000000000000000000000000000000000000237055300000000000000000000000000000000000000000000000000000000000237055300000000000000000000000000000000000000000000
090316482001100001041339048010300000000100003476000-00000595720000000000000000000000-0000055392-0000385770000005801440000057471600000574716000004273890000026906500000549236000005801440000057471600000574716000004273890000026906500000549236
0801103010024000010483390480104000000040000007629900000000000000002468660000000000000000000000000000000000000002543300000050866000000788660000002800000000056000000000840000000002543300000050866000000788660000002800000000056000000000840000
06032678200050000106344425100000000000010000000000000000000000000000000000000000000000011233300-0000004386000000000000000000000000000000000000000000000000000000000011228914000000000000000000000000000000000000000000000000000000000011228914
100220608001200001070449052400000000000100000000000000000000000000000000000000250560-000000056000000000000000000000000000000000000000000000000000000000000025000000000000000000000000000000000000000000000000000000000000000025000000000000000
1002206080012000010704490524000000001202000000000000000000000000000000000000093494400000000056000000000000000000000000000000000000000000000000000000000000935000000000000000000000000000000000000000000000000000000000000000935000000000000000
0702267820006000010714490519901000000001000000000000000000000000027014680000000000000000000000000000000000000000000000000000000000000000000000270146800000000000000000000000000000000000000000000000000000000000270146800000000000000000000000
0801103010024000010724490521200000004931000000000000000000000000000000000000005988000000021300000000000000000000000000000000000000000000000000000000000000059880000000213000000000000000000000000000000000000000000000000000059880000000213000
0801103010024000010724490523000000004931000000000000000000000000000000000000001400000000000000000001092000000000000000000000000000000000000000000000000000014000000001092000000000000000000000000000000000000000000000000000014000000001092000
08011030100240000107244905242000000049310000000000000000000000000000000000000136800000000836000-0000034000000000000000000000000000000000000000000000000000044900000001721000000000000000000000000000000000000000000000000000044900000001721000
08011030100240000107244905208000000049310000000000000000000000000014357000000000000000008191100-0000648000000000000000000000000000000324000000003737000000009000000006296100000000000000000000000000000324000000003737000000009000000006296100
0801103010024000010724490523500000004931000000000000000000000000000000000000021870000000000000000005128000000000000000000000000000000000000000000000000000218700000005128000000000000000000000000000000000000000000000000000218700000005128000
0801103010024000010724490525200000004931000000000000000000000000005650000000000000000000000000000000000000000000000000000000000000005650000000000000000000000000000000000000000000000000000000000000005650000000000000000000000000000000000000
0801103010024000010724490523900000004931000000000000000000000000002428200000000000000000000000000000000000000000000000000000000000000000000000006745000000175370000000000000000000000000000000000000000000000000006745000000175370000000000000
0801103010024000010724490523300000004931000000000000000000000000000000000000000278000000000000000000000000000000000000000000000000000000000000000000000000002780000000000000000000000000000000000000000000000000000000000000002780000000000000
0801103010024000010734490523500000004931000000000000000000000000000000000000021870000000000000000000000000000000000000000000000000000000000000000000000000218700000000000000000000000000000000000000000000000000000000000000218700000000000000
0801103010024000010734490523400000004931000000000000000000000000000000000000001307400000000000000000000000000000000000000000000000000000000000000000000000013074000000000000000000000000000000000000000000000000000000000000013074000000000000
0801103010024000010734490523000000004931000000000000000000000000000000000000001400000000000000000001092000000000000000000000000000000000000000000000000000014000000001092000000000000000000000000000000000000000000000000000014000000001092000
0801103010024000010734490524200000004931000000000000000000000000000000000000015396000000179950000000000000000000000000000000000000000000000000000000000000153960000001799500000000000000000000000000000000000000000000000000153960000001799500
08011030100240000107344905208000000049310000000000000000000000000017603800000000000000005543900-0000007980000000000000000000000000000000000000017524000000000000000005543900000000000000000000000000000000000000017524000000000000000005543900
0801103010024000010734490521200000004931000000000000000000000000000000000000000000000000076620000000000000000000000000000000000000000000000000000000000000000000000000766200000000000000000000000000000000000000000000000000000000000000766200
0801103010024000010734490525200000004931000000000000000000000000005650000000000000000000000000000000000000000000000000000000000000005650000000000000000000000000000000000000000000000000000000000000005650000000000000000000000000000000000000
0801103010024000010734490523900000004931000000000000000000000000001888600000000000000000000000000000000000000000000000000000000000000000000000000000000000000000000000000000000000000000000000000000000000000000000000000000000000000000000000
0801103010024000010734490523300000004931000000000000000000000000000000000000007936000000000000000000000000000000000000000000000000000000000000000000000000079360000000000000000000000000000000000000000000000000000000000000079360000000000000
0801103010024000010743390301600000004090000000000000000000000000000000000000000000000000013100800000099233000000000000000000000000000000000000000000000000000000000000230241000000000000000000000000000000000000000000000000000000000000230241
0801103010024000010743390302300000004090000000000000000000000000000000000000000000000000028800000000000000000000000000000000000000000000000000000000000000000000000000288000000000000000000000000000000000000000000000000000000000000000288000
0801103010024000010743390300799000004090000000000000000000000000000000000000000000000000010878800000000000000000000000000000000000000000000000000000000000000000000000108788000000000000000000000000000000000000000000000000000000000000108788
0801103010024000010743390302200000004090000000000000000000000000000000000000000000000000000109800000000000000000000000000000000000000000000000000000000000000000000000001098000000000000000000000000000000000000000000000000000000000000001098
0801103010024000010743390302100000004090000000000000000000000000000000000000000000000000000358300000000000000000000000000000000000000000000000000000000000000000000000003583000000000000000000000000000000000000000000000000000000000000003583
0801103010024000010743390304600000004090000000000000000000000000000000000000000000000000009990000000000000000000000000000000000000000000000000000000000000000000000000099900000000000000000000000000000000000000000000000000000000000000099900
0801103010024000010743390392300000004090000000000000000000000000000000000000000000000000007300000000000000000000000000000000000000000000000000000000000000000000000000073000000000000000000000000000000000000000000000000000000000000000073000
0801103010024000010743390390500000004090000000000000000000000000000000000000000000000000008860000000000000000000000000000000000000000000000000000000000000000000000000088600000000000000000000000000000000000000000000000000000000000000088600
0801103010024000010743390394800000004090000000000000000020000000000000000000000000000000022000000000000000000000000000000020000000000000000000000000000000000000000000220000000000000000000020000000000000000000000000000000000000000000220000
0801103010024000010743390399907000004090000000000000000000000000000000000000000000000000005200000000000000000000000000000000000000000000000000000000000000000000000000052000000000000000000000000000000000000000000000000000000000000000052000
0702226610013000010754490519200000000001000000000000000000000000000000000000000000000000912000000000000000000000000000000000000000000000000000000000000000000000000009120000000000000000000000000000000000000000000000000000000000000009120000
0503133920020000010763190041501000000001000000000000000000000000000000000000000000000000000000000000055013000000000000000000000000000000000000000000000000000000000000055013000000000000000000000000000000000000000000000000000000000000055013
0503133920020000010763190049999000000001000000000000000000000000000000000000000000000000000000000000239850000000000000000000000000000000000000000000000000000000000000239850000000000000000000000000000000000000000000000000000000000000239850
0503133920020000010763190040102000000001000000000000000000000000000000000000000000000000009594000000000000000000000000000000000000000000000000000000000000009594000000000000000000000000000000000000000000000000000000000000009594000000000000
0201041220001000020033190113300000000001000006186140000049200000000656000000005740000000049200000000574000000006186140000049200000000656000000005740000000049200000000574000000006186140000049200000000656000000005740000000049200000000574000
0201041220001000020033190117400000000001000040824000000408240000004082400000040824000000408240000004082400000040824000000408240000004082400000040824000000408240000004082400000040824000000408240000004082400000040824000000408240000004082400
0201041220001000020033190110101000000001000000996300000019926000000199260000001992600000019926000000199260000000996300000019926000000199260000001992600000019926000000199260000000996300000019926000000199260000001992600000019926000000199260
0201041220001000020033190114300000000001000000000000000000000000000000000000000000000000000000000002132528000000000000000000000000000000000000000000000000000000000002132528000000000000000000000000000000000000000000000000000000000002132528
0201041220001000020033190130203000000001000009363560000093635600000936356000009363560000093635600001404534000009363560000093635600000936356000009363560000093635600001404534000004681780000093635600000936356000009363560000093635600001872712
0201041220001000020033190130201000000001000000228520000004570400000045704000000457040000004570400000066651000000228520000004570400000045704000000457040000004570400000066651000000000000000004570400000045704000000457040000004570400000089503
0201041220001000020033190139901000000001000000039000000001150000000003600000000226400000000740000000003200000000039000000001150000000003600000000226400000000740000000003200000000000000000001420000000003000000000238400000000060000000010600
0201041220001000020033390141400000000001000001389700000013433900000421177000001762020000001371700000060018000001389700000013433900000421177000001762020000001371700000060018000000877160000018559300000421177000001762020000001371700000060018
0201041220001000020033390301700000000001000000878000000000000000000000000000000634000000000000000000034300000000878000000000000000000000000000000634000000000000000000034300000000878000000000000000000000000000000634000000000000000000034300
0201041220001000020033390303900000000001000001753280000013080000000006000000000514000000000000000000060550000001753280000009960000000007800000000647000000000000000000076650000001493280000002600000000107400000000647000000000000000000076650
0201041220001000020033390301600000000001000000000000000000000000000000000000001222000000000000000000000000000000000000000000000000000000000000000000000000012220000000000000000000000000000000000000000000000000000000000000012220000000000000
020104122000100002003339030010000000000100000146120-000010542200000000000000000000000000000000000000000000000000000000000004069800000000000000000000000000000000000000000000000000000000000004069800000000000000000000000000000000000000000000
0201041220001000020033390305000000000001000000000000000000000000000000000000001050000000000000000000000000000000000000000000000000000000000000001050000000000000000000000000000000000000000000000000000000000000000000000000010500000000000000
0201041220001000020033390302400000000001000000000000000000000000000016500000000000000000000000000000000000000000000000000000000000000016500000000000000000000000000000000000000000000000000000000000000016500000000000000000000000000000000000
0201041220001000020033390330100000000001000000000000000023330900000300150000000000000000000000000000000000000000000000000011506900000118240000003001500000000000000000000000000000000000000011506900000118240000003001500000000000000000000000
0201041220001000020033390395802000000001000005322840000000000000000000000000000000000000000000000000000000000000887140000008871400000088714000000887140000008871400000088714000000887140000008871400000088714000000887140000008871400000088714
0201041220001000020033390391900000000001000000673000000000450000000000000000000165000000000000000000016000000000373000000000600000000018000000000225000000000000000000020500000000373000000000600000000018000000000225000000000000000000020500
0201041220001000020033390390100000000001000000095000000000000000000000000000000000000000000000000000000000000000095000000000000000000000000000000000000000000000000000000000000000095000000000000000000000000000000000000000000000000000000000
0201041220001000020033390394800000000001000000486000000003980000000194420000000000000000000000000000000000000000000000000008840000000048600000001458200000000000000000000000000000000000000008840000000048600000001458200000000000000000000000
02010412200010000200333903969000000000010000000678400000147399-0000000001000000000000000000000000000000000000000067840000000000000000147398000000000000000000000000000000000000000067840000000000000000147398000000000000000000000000000000000
0201041220001000020033390392000000000001000000195000000000000000000000000000000000000000000000000000000000000000195000000000000000000000000000000000000000000000000000000000000000195000000000000000000000000000000000000000000000000000000000
0201041220001000020033390399500000000001000000055000000000000000000000000000000000000000000000000000000000000000055000000000000000000000000000000000000000000000000000000000000000055000000000000000000000000000000000000000000000000000000000
0201041220001000020033390460100000000001000000000000000003787800000018939000000776540000005000000000050000000000000000000003787800000018939000000776540000005000000000050000000000000000000001893900000037878000000577670000004488700000075000
0201041220001000020033390930500000000001000000000000000000000000000033996000000140000000003300000000039200000000000000000000000000000033996000000140000000003300000000039200000000000000000000000000000033996000000140000000003300000000039200
0201041220001000020033390930103000000001000000000000000000000000000000000000000050000000000000000000000000000000000000000000000000000000000000000050000000000000000000000000000000000000000000000000000000000000000050000000000000000000000000
0201041220001000020034490520600000000001000000000000000000890000000000000000000000000000000000000000000000000000000000000000890000000000000000000000000000000000000000000000000000000000000000890000000000000000000000000000000000000000000000
0201041220001000020043390302400000000001000000023000000063255400000198900000000219000000001740000000007700000000023000000061305400000053400000001869000000000000000000025100000000023000000034045400000326000000001869000000000000000000025100
0201041220001000020043390302200000000001000000000000000098651300000000000000000000000000009269000000000000000000000000000098651300000000000000000000000000009269000000000000000000000000000098651300000000000000000000000000009269000000000000
0201041220001000020043390302100000000001000000000000000028612000000000000000000000000000000000000000000000000000000000000028612000000000000000000000000000000000000000000000000000000000000028612000000000000000000000000000000000000000000000
0201041220001000020043390300799000000001000000000000000000000000000000000000000000000000001080000000000000000000000000000000000000000000000000000000000000001080000000000000000000000000000000000000000000000000000000000000001080000000000000
02010412200010000200433903004000000000010000009260000000000000000000000000000000000000000000000-0000046400000000056000000000000000000005800000000058000000001160000000017400000000000000000000560000000005800000000058000000001160000000017400
02010412200010000200433903978000000000010000002660000000000000-00000266000000008430000000000000-0000033000000000000000000000000000000000000000000513000000000000000000000000000000000000000000000000000000000000000513000000000000000000000000
02010412200010000200433903944000000000010000030000000000000000000000000000000000000000000000000-0000132676000000123860000003071500000041894000000304410000003539600000016492000000123860000003071500000041894000000304410000003539600000016492
02010412200010000200433903943000000000010000300000000000000000000000000000000000000000000000000-0000249904000003040790000063757700000677276000001980730000061678400000316307000003040790000063757700000485787000003895620000040893100000524160
0201041220001000020043390390500000000001000000000000000000000000000000000000000120000000000000000000000000000000000000000000000000000000000000000000000000001200000000000000000000000000000000000000000000000000000000000000001200000000000000
0201041220001000020043390391600000000001000000000000000015000000000000000000000000000000002500000000000000000000000000000015000000000000000000000000000000002500000000000000000000000000000000000000000150000000000000000000002500000000000000
0201041220001000020044490523800000000001000000395000000000000000000000000000000000000000000000000000000000000000395000000000000000000000000000000000000000000000000000000000000000000000000003950000000000000000000000000000000000000000000000
0204082430004000020053190117301000000001000011066900000107635000001076350000008610800000135883600001600000000011066900000107635000001076350000008610800000135883600001600000000011066900000107635000001076350000008610800000135883600001600000
0204082430004000020053190114500000000001000000000000000003587800000071756000000358780000000000000000000000000000000000000003587800000071756000000358780000000000000000000000000000000000000003587800000071756000000358780000000000000000000000
0204082430004000020053190114300000000001000000000000000000000000000000000000000000000000000000000000746667000000000000000000000000000000000000000000000000000000000000746667000000000000000000000000000000000000000000000000000000000000746667
0204082430004000020053190130203000000001000002213380000022244600000229622000001793920000027176700000469333000002213380000022244600000229622000001793920000027176700000469333000001072000000022177300000229622000002080950000022667500000600533
0204082430004000020053390141400000000001000000000000000001538400000041292000000000000000000384600000207587000000000000000001538400000041292000000000000000000384600000207587000000000000000001538400000041292000000000000000000384600000207587
0204082430004000020053390301600000000001000000000000000000000000000032250000000000000000000000000000000000000000000000000000000000000032250000000000000000000000000000000000000000000000000000000000000032250000000000000000000000000000000000
0204082430004000020053390302400000000001000000000000000000000000000153100000000000000000000000000000000000000000000000000000000000000020300000001328000000000000000000000000000000000000000000000000000020300000001328000000000000000000000000
0204082430004000020053390339600000000001000000000000000000000000000000000000000043540000000000000000000000000000000000000000000000000000000000000043540000000000000000000000000000000000000000000000000000000000000043540000000000000000000000
02040824300040000200533903944000000000010000006000000000000000000000000000000000000000000000000-0000007075000000044150000000938700000008552000000084460000000890800000013217000000044150000000938700000008552000000084460000000890800000013217
02040824300040000200533903943000000000010000020000000000000000000000000000000000000000000000000-0000054985000000115420000001220000000040819000000090070000004145500000029992000000115420000001220000000030163000000196630000002762800000043819
02040824300040000200533903958010000000010000038000000000000000000000000000000000000000000000000-0000055331000000288020000007650400000047082000000508530000004302300000078405000000288020000006112500000042578000000548630000004877400000088527
0204082430004000020053390397300000000001000000000000000000000000000000000000000000000000000000000000033000000000000000000000000000000000000000000000000000000000000000033000000000000000000000000000000000000000000000000000000000000000033000
0204082430004000020053390392000000000001000000515000000000000000000000000000000065000000000000000000000000000000000000000005150000000000000000000065000000000000000000000000000000000000000005150000000000000000000065000000000000000000000000
0204082430004000020053390391600000000001000000000000000000000000000107200000000000000000000000000000000000000000000000000000000000000000000000001072000000000000000000000000000000000000000000000000000000000000001072000000000000000000000000
0204082430004000020053390394800000000001000000000000000001000000000000000000000000000000000000000000000000000000000000000001000000000000000000000000000000000000000000000000000000000000000001000000000000000000000000000000000000000000000000
0204082430004000020053390460100000000001000001515120000018939000000158144000001231100000000000000000000000000001515120000018939000000158144000001231100000000000000000000000000000757560000017045100000189390000001240570000006250200000000000
0204082430004000020053390930500000000001000000250000000002400000000209950000001500000000000000000000061100000000132500000002800000000091200000001267000000010260000000108300000000132500000002800000000091200000001267000000010260000000108300
0204082430004000020053390939903000000001000000000000000000000000000000000000000000000000000000000000024000000000000000000000000000000000000000000000000000000000000000024000000000000000000000000000000000000000000000000000000000000000024000
0204082430004000020054490523500000000001000000000000000000000000000000000000002187000000000000000000000000000000000000000000000000000000000000000000000000021870000000000000000000000000000000000000000000000000000000000000021870000000000000
0204082430004000020054490523000000000001000000000000000000000000000000000000000140000000000000000000000000000000000000000000000000000000000000000000000000001400000000000000000000000000000000000000000000000000000000000000001400000000000000
0203041220001000020063190113300000000001000011494000000120266700001066000000010113330000099766700000984000000011494000000120266700001066000000010113330000099766700000984000000011494000000120266700001066000000010113330000099766700000984000
0203041220001000020063191130301000000001000001572930000016452500000145829000001346120000013461200000201918000001572930000016452500000145829000001346120000013461200000201918000000787150000016458000000157046000001346120000013461200000269224
0203041220001000020063390141400000000001000000000000000000000000000007692000000000000000017938900000051254000000000000000000000000000007692000000000000000017938900000051254000000000000000000000000000007692000000000000000017938900000051254
0203041220001000020063390930500000000001000000000000000000000000000000000000000000000000000000000000032750000000000000000000000000000000000000000000000000000000000000032750000000000000000000000000000000000000000000000000000000000000032750
0203041220001000020073190110101000000001000014143900000143664000001436640000014366400000143664000001436640000014143900000143664000001436640000014366400000143664000001436640000014143900000143664000001436640000014366400000143664000001436640
0203041220001000020073190114300000000001000000000000000000000000000000000000000000000000000000000000718320000000000000000000000000000000000000000000000000000000000000718320000000000000000000000000000000000000000000000000000000000000718320
0203041220001000020073190130201000000001000003244100000032951400000329514000003295140000032951400000494271000003244100000032951400000329514000003295140000032951400000494271000001596530000032951400000329514000003295140000032951400000659028
0203041220001000020073390141400000000001000000000000000005795800000057958000000000000000013651600000000000000000000000000005795800000057958000000000000000013651600000000000000000000000000005795800000057958000000000000000013651600000000000
0203041220001000020073390330100000000001000000000000000005912000000000000000000000000000000000000000000000000000000000000005912000000000000000000000000000000000000000000000000000000000000005912000000000000000000000000000000000000000000000
02030412200010000200733903501000000000010000241873600000000000000000000000000000000000000000000-0000313293000001804030000036080600000360806000003608060000036080600000481816000001804030000036080600000360806000003608060000036080600000481816
0203041220001000020073390350400000000001000007800000000000000000000000000000000000000000000000000000000000000000650000000013000000000130000000001300000000013000000000195000000000650000000013000000000130000000001300000000013000000000195000
0203041220001000020073390396600000000001000000552770000021499700000093122000000344080000002091800000104259000000552770000021499700000093122000000344080000002091800000104259000000552770000021499700000025936000000767560000004575600000104259
02030412200010000200733903947000000000010000072000000000000000000000000000000048000000000000000-0000120000000000000000000006000000000120000000002000000000028000000000420000000000000000000006000000000120000000002000000000028000000000420000
0203041220001000020073390390100000000001000000095000000000000000000000000000000000000000000000000000000000000000095000000000000000000000000000000000000000000000000000000000000000095000000000000000000000000000000000000000000000000000000000
0203041220001000020073390396300000000001000000000000000000000000000000000000000030000000000000000000000000000000000000000000000000000000000000000000000000000000000000003000000000000000000000000000000000000000000000000000000000000000003000
0203041220001000020073390398100000000001000000000000000000000000000033000000000000000000000000000000030000000000000000000000000000000033000000000000000000000000000000030000000000000000000000000000000033000000000000000000000000000000030000
0203041220001000020073390392900000000001000000000000000000000000000000000000000000000000000000000000054112000000000000000000000000000000000000000000000000000000000000054112000000000000000000000000000000000000000000000000000000000000054112
0203041220001000020073390397900000000001000000600000000000000000000000000000000000000000000000000000000000000000000000000006000000000000000000000000000000000000000000000000000000000000000006000000000000000000000000000000000000000000000000
0203041220001000020073390394800000000001000000366000000000000000000048600-00000486000000000000000000000000000000366000000000000000000000000000000000000000000000000000000000000000366000000000000000000000000000000000000000000000000000000000
0203041220001000020073390460100000000001000000189390000009469500000037878000000975410000010000000000100000000000189390000009469500000037878000000975410000010000000000100000000000000000000007575600000075756000000596610000008788000000150000
0203041220001000020074490523500000000001000000000000000018950000000000000000000000000000000000000000000000000000000000000000000000000189500000000000000000000000000000000000000000000000000000000000000189500000000000000000000000000000000000
0203041240001000020083190113100000000001000005200000000049200000000492000000004920000000049200000000492000000005200000000049200000000492000000004920000000049200000000492000000005200000000049200000000492000000004920000000049200000000492000
0203041240001000020083390141400000000001000000000000000000384600000307524000002050160000020501600000033319000000000000000000384600000307524000002050160000020501600000033319000000000000000000384600000307524000000512540000035877800000033319
0203041240001000020083390330100000000001000000000000000000000000000300150000000000000000000000000000000000000000000000000000000000000000000000003001500000000000000000000000000000000000000000000000000000000000003001500000000000000000000000
0203041240001000020083390396300000000001000000000000000000000000000000000000000016000000000000000000001600000000000000000000000000000000000000000016000000000000000000001600000000000000000000000000000000000000000000000000000160000000001600
0203041240001000020083390391100000000001000000000000000000000000000000000000000000000000001196400000000000000000000000000000000000000000000000000000000000001196400000000000000000000000000000000000000000000000000000000000001196400000000000
0203041240001000020083390394800000000001000000000000000000000000000262440000000199000000033230000000039800000000000000000000000000000131220000001312200000021040000000181600000000000000000000000000000131220000001312200000021040000000181600
0301041220001000020093190110101000000001000021209110000279461500002845810000028602220000290444000002921660000021209110000279461500002845810000028602220000290444000002921660000021209110000279461500002845810000028602220000290444000002921660
0301041220001000020093190113300000000001000004926000000049200000000492000000005432500000059450000000594500000004926000000049200000000492000000005432500000059450000000594500000004926000000049200000000492000000005432500000059450000000594500
0301041220001000020093190114500000000001000002903630000034866400000046638000000932760000000000000000000000000002903630000034866400000046638000000932760000000000000000000000000002903630000034866400000046638000000932760000000000000000000000
0301041220001000020093190113700000000001000001911220000021708500000222193000002173360000022953400000233566000001911220000021708500000222193000002173360000022953400000233566000001911220000021708500000222193000002173360000022953400000233566
0301041220001000020093190114700000000001000000000000000000000000000000000000002747000000000000000000000000000000000000000000000000000000000000002747000000000000000000000000000000000000000000000000000000000000001332500000014145000000000000
0301041220001000020093190117400000000001000007298300000074220000000123700000000000000000065561000000742200000007298300000074220000000123700000000000000000065561000000742200000007298300000074220000000123700000000000000000065561000000742200
0301041220001000020093190114200000000001000000000000000093750600000000000000000000000000000000000000000000000000000000000093750600000000000000000000000000000000000000000000000000000000000093750600000000000000000000000000000000000000000000
0301041220001000020093190114300000000001000000000000000000000000000000000000000699570000000000000002309292000000000000000000000000000000000000000699570000000000000002309292000000000000000000000000000000000000000699570000000000000002309292
0301041220001000020093190130201000000001000001673980000023739000000247722000002919020000029342600000422256000001673980000023739000000247722000002919020000029342600000422256000000822810000019864600000247722000002690500000029342600000568969
0301041220001000020093190139901000000001000000000000000000000000000000000000000000000000001280000000005600000000000000000000000000000000000000000000000000001280000000005600000000000000000000000000000000000000000000000000000520000000013200
0301041220001000020093191130301000000001000005769590000055299000000492047000005030600000048145500000720529000005769590000055299000000492047000005030600000048145500000720529000002774060000060605200000488783000005123630000048108300000961353
0301041220001000020093390141400000000001000000000000000051638600000333151000001319810000007112400000215072000000000000000051638600000333151000001319810000007112400000215072000000000000000041387800000435659000001319810000007112400000215072
03010412200010000200933903016000000000010000007970000000526832000000000000000000000000000090000-0000009300000000434000000024225000000294082000000000000000009000000000017500000000434000000024225000000294082000000000000000009000000000017500
0301041220001000020093390300100000000001000001995000000030583600000000000-00000014270000000000000000000000000000618450000004349100000120800000001442400000009423500000039298000000618450000004349100000120800000001442400000009423500000039298
0301041220001000020093390302600000000001000000000000000000000000000027100000000000000000000000000000000000000000000000000000000000000027100000000000000000000000000000000000000000000000000000000000000027100000000000000000000000000000000000
030104122000100002009339030040000000000100000054000-000000240000000000000000000000000000000000000000000000000000000000000005160000000000000000000000000000000000000000000000000000000000000005160000000000000000000000000000000000000000000000
0301041220001000020093390304600000000001000000000000000000000000000009000000000000000000000000000000000000000000000000000000000000000009000000000000000000000000000000000000000000000000000000000000000009000000000000000000000000000000000000
0301041220001000020093390301700000000001000000395000000000000000000000000000000000000000000000000000016980000000395000000000000000000000000000000000000000000000000000016980000000395000000000000000000000000000000000000000000000000000016980
0301041220001000020093390302400000000001000000000000000000070000000000000000000000000000000000000000000000000000000000000000070000000000000000000000000000000000000000000000000000000000000000070000000000000000000000000000000000000000000000
0301041220001000020093390330100000000001000000000000000017736000000296330000000000000000000000000000000000000000000000000000000000000173540000003001500000000000000000000000000000000000000000000000000173540000003001500000000000000000000000
03010412200010000200933903699010000000010000011000000000077771000000200000000018773000000045450-0000027080000000381200000009217100000038790000000882000000000315000000153440000000381200000009217100000038790000000877500000000360000000153440
03010412200010000200933903905000000000010000314100000000000000000004860000000003800000000000000-0001746000000000810000000048600000000387000000002610000000022700000000477000000000810000000048600000000387000000002610000000022700000000477000
0301041220001000020093390391100000000001000016759080000007162400000000000000000000000000004785400000000000000001396590000030727100000294344000002943440000034219800000417570000001396590000030727100000294344000002943440000034219800000417570
0301041220001000020093390395802000000001000007604040000000000000000000000000000000000000000000000000000000000001267340000012673400000126734000001267340000012673400000126734000001267340000012673400000126734000001267340000012673400000126734
0301041220001000020093390394800000000001000000000000000049622000000267800000000913000000203260000000479130000000000000000013390000000447620000002172000000005660000000481730000000000000000013390000000447620000002172000000005660000000481730
0301041220001000020093390399000000000001000000000000000001440000000000000000000000000000000000000000000000000000000000000001440000000000000000000000000000000000000000000000000000000000000001440000000000000000000000000000000000000000000000
0301041220001000020093390398300000000001000000000000000000100000000000000000000155000000000000000000000000000000000000000000100000000000000000000155000000000000000000000000000000000000000000100000000000000000000155000000000000000000000000
0301041220001000020093390391200000000001000004308420000000000000000000000000000000000000000000000000000000000000408420000008592600000073548000000984540000004555800000086514000000408420000008592600000073548000000776700000006634200000086514
0301041220001000020093390396300000000001000000218000000000560000000000000000000000000000000160000000005600000000000000000002180000000005600000000000000000000000000000007200000000000000000002180000000005600000000000000000000000000000007200
0301041220001000020093390390100000000001000000095000000000000000000000000000000000000000000000000000000000000000095000000000000000000000000000000000000000000000000000000000000000095000000000000000000000000000000000000000000000000000000000
0301041220001000020093390399500000000001000000385000000000000000000000000000000000000000000000000000000000000000385000000000000000000000000000000000000000000000000000000000000000385000000000000000000000000000000000000000000000000000000000
0301041220001000020093390397900000000001000000000000000004700000000045000000000000000000000000000000000000000000000000000004700000000045000000000000000000000000000000000000000000000000000004700000000045000000000000000000000000000000000000
0301041220001000020093390391600000000001000000000000000000000000000000000000000000000000000000000000028000000000000000000000000000000000000000000000000000000000000000028000000000000000000000000000000000000000000000000000000000000000028000
0301041220001000020093390392000000000001000000000000000000000000000000000000000260000000000000000000000000000000000000000000000000000000000000000260000000000000000000000000000000000000000000000000000000000000000000000000002600000000000000
0301041220001000020093390460100000000001000002462070000035984100000367425000003333440000049140000000544000000002462070000035984100000367425000003333440000049140000000544000000001136340000028408500000416658000003257680000038667200000815400
0301041220001000020094490523500000000001000000000000000206850000000000000000000000000000000000000000000000000000000000000000000000001814500000000000000000000000000000254000000000000000000000000000001814500000000000000000000000000000254000
0301041220001000020094490524200000000001000000000000000000000000000598000000000000000000000000000000000000000000000000000000000000000598000000000000000000000000000000000000000000000000000000000000000598000000000000000000000000000000000000
0301041220001000020094490523400000000001000000000000000000000000000013900000000000000000000000000000000000000000000000000000000000000000000000000139000000000000000000000000000000000000000000000000000000000000000139000000000000000000000000
03010412200010000200944905224000000000010000000000000000000000000000000000000000000000000263772-0000001143000000000000000000000000000000000000000000000000000000000000262629000000000000000000000000000000000000000000000000000000000000262629
0301041220001000020094490523000000000001000000000000000016450000000000000000000000000000000000000000000000000000000000000000000000000141000000000000000000000000000000023500000000000000000000000000000141000000000000000000000000000000023500
0401041230001000020103190113700000000001000005328160000056921600000545417000005154700000053767800000541250000005328160000056921600000545417000005154700000053767800000541250000005328160000056921600000545417000005154700000053767800000541250
0401041230001000020103190113300000000001000006688650000066775400000584660000005846600000062566000000584660000006688650000066775400000584660000005846600000062566000000584660000006688650000066775400000584660000005846600000062566000000584660
0401041230001000020103190110101000000001000048198220000512572200004717034000045075390000456001800004573138000048198220000512572200004717034000045075390000456001800004573138000048198220000512572200004717034000045075390000456001800004573138
0401041230001000020103190114500000000001000007884890000009595400000209100000002112200000011169200000054310000007884890000009595400000209100000002112200000011169200000054310000007884890000009595400000209100000002112200000011169200000054310
0401041230001000020103190117400000000001000007298300000074220000000742200000007422000000074220000000742200000007298300000074220000000742200000007422000000074220000000742200000007298300000074220000000742200000007422000000074220000000742200
0401041230001000020103190114300000000001000000000000000000000000000209708000000000000000000000000003694246000000000000000000000000000209708000000000000000000000000003694246000000000000000000000000000209708000000000000000000000000003694246
0401041230001000020103190130201000000001000001673970000046366000000463660000004408080000041795600000626934000001673970000046366000000463660000004408080000041795600000626934000000822800000031694700000463660000004636600000041795600000835912
0401041230001000020103190139901000000001000000014000000000000000000000000000000000000000000000000000050800000000014000000000000000000000000000000000000000000000000000050800000000000000000000140000000000000000000000000000000000000000050800
0401041230001000020103190164401000000001000000222350000000000000000038021000000184550000000000000000000000000000222350000000000000000038021000000184550000000000000000000000000000222350000000000000000038021000000184550000000000000000000000
0401041230001000020103190940103000000001000000000000000000000000000000000000004467690000000000000000000000000000000000000000000000000000000000004467690000000000000000000000000000000000000000000000000000000000004467690000000000000000000000
0401041230001000020103191130301000000001000010753220000094629600000944378000008574230000083229800001233869000010753220000094629600000944378000008574230000083229800001233869000005358950000102316500000923381000009250970000083574900001646299
0401041230001000020103390141400000000001000000579580000059948500000540958000002566160000031962100000091288000000579580000059948500000540958000002566160000031962100000091288000000579580000054152700000568148000002873840000031962100000091288
04010412300010000201033903017000000000010000005350000000000000000001201000000000000000000000000-0000039500000000535000000000000000000072700000000000000000000000000000007900000000535000000000000000000072700000000000000000000000000000007900
0401041230001000020103390301600000000001000000000000000074553400000000000000000063000000000450000000000000000000000000000038470000000360834000000063000000000450000000000000000000000000000038470000000360834000000063000000000450000000000000
0401041230001000020103390300100000000001000001995000000001247000000000000-000000139000000000000-0000011629000000000000000001197000000000000000000342000000002526300000127518000000000000000001197000000000000000000342000000002526300000127518
0401041230001000020103390304100000000001000000310000000000000000000000000000000000000000000000000000000000000000310000000000000000000000000000000000000000000000000000000000000000310000000000000000000000000000000000000000000000000000000000
04010412300010000201033903025000000000010000000000000000000000000000401000000000000000000000000-0000040100000000000000000000000000000000000000000000000000000000000000000000000000000000000000000000000000000000000000000000000000000000000000
0401041230001000020103390339600000000001000000000000000000000000000014841000000000000000000000000000000000000000000000000000000000000014841000000000000000000000000000000000000000000000000000000000000014841000000000000000000000000000000000
0401041230001000020103390330100000000001000000000000000000000000000300150000000000000000000000000000000000000000000000000000000000000000000000003001500000000000000000000000000000000000000000000000000000000000003001500000000000000000000000
0401041230001000020103390391100000000001000036031150000023032800000000000000000000000000008374400000000002000002566400000058568400000527372000006263720000080911600001112005000002566400000058568400000527372000006263720000080911600001112005
04010412300010000201033903958020000000010000083643600000000000000000000000000013993000000000000-0000011994000001394060000013940600000139406000001673920000017938600000199376000001394060000013940600000139406000001673920000017938600000199376
0401041230001000020103390391700000000001000000000000000000000000000026500000000000000000000000000000000000000000000000000000000000000026500000000000000000000000000000000000000000000000000000000000000026500000000000000000000000000000000000
0401041230001000020103390394800000000001000000000000000048412000000409100000002680000000014640000000153000000000000000000030162000000230700000006289000000014640000000153000000000000000000030162000000230700000006289000000014640000000153000
04010412300010000201033903977000000000010000000000000000000000000000000000000008500000000000000-0000010000000000000000000000000000000000000000000150000000000000000000060000000000000000000000000000000000000000000150000000000000000000060000
0401041230001000020103390392000000000001000000000000000000000000000009000000000000000000000000000000075000000000000000000000000000000000000000000000000000000000000000084000000000000000000000000000000000000000000000000000000000000000084000
04010412300010000201033903905000000000010000078000000000000000000000000000000000000000000000000-0000041167000000238330000019500000000065000000001300000000013000000000195000000000238330000013000000000130000000001300000000013000000000195000
0401041230001000020103390391600000000001000000000000000000000000000000000000000000000000017000000000000000000000000000000000000000000000000000000000000000000000000000170000000000000000000000000000000000000000000000000000000000000000170000
0401041230001000020103390390100000000001000000095000000000000000000000000000000000000000000000000000000000000000095000000000000000000000000000000000000000000000000000000000000000095000000000000000000000000000000000000000000000000000000000
0401041230001000020103390398100000000001000000000000000000000000000000000000000200000000000000000000104140000000000000000000000000000000000000000079200000000000000000116220000000000000000000000000000000000000000079200000000000000000116220
0401041230001000020103390399500000000001000000135000000000000000000000000000000000000000000000000000005500000000135000000000000000000000000000000000000000000000000000005500000000135000000000000000000000000000000000000000000000000000005500
0401041230001000020103390392600000000001000020000000000000000000000000000000000000000000000000000000000000000000000000000000000000002000000000000000000000000000000000000000000000000000000000000000002000000000000000000000000000000000000000
0401041230001000020103390396300000000001000000080000000000000000000000000000000000000000000000000000000000000000080000000000000000000000000000000000000000000000000000000000000000000000000000800000000000000000000000000000000000000000000000
0401041230001000020103390397900000000001000000000000000000000000000000000000000000000000115447500000000000000000000000000000000000000000000000000000000000000000000000000000000000000000000000000000000000000000000000000000000000000000000000
0401041230001000020103390391200000000001000003459120000000000000000000000000000000000000000000000000000000000000459120000005398800000049146000000684120000002610000000102354000000459120000005398800000049146000000476940000004681800000102354
0401041230001000020103390460100000000001000003598410000037878000000406252000003948990000050800000000547600000003598410000037878000000406252000003948990000050800000000547600000001893900000034090200000416658000004157330000042688900000805800
0401041230001000020103390930500000000001000000300000000012952400000055000-00000013560000000000000000008000000000300000000012952400000055000-00000013560000000000000000008000000000300000000012952400000055000-00000013560000000000000000008000
0401041230001000020104490522400000000001000000000000000000000000000000000000001190000000000000000000000000000000000000000000000000000000000000001190000000000000000000000000000000000000000000000000000000000000001190000000000000000000000000
0401041230001000020104490523500000000001000000000000000000000000000000000000000000000000021870000000000000000000000000000000000000000000000000000000000000000000000000218700000000000000000000000000000000000000000000000000000000000000218700
0501121220001000020113190110101000000001000010898580000123902000001239020000011463600000106026000001066820000010898580000123902000001239020000011463600000106026000001066820000010898580000123902000001239020000011463600000106026000001066820
0501121220001000020113190113700000000001000000327900000003275000000032750000000355100000004120600000041666000000327900000003275000000032750000000355100000004120600000041666000000327900000003275000000032750000000355100000004120600000041666
0501121220001000020113190113300000000001000000000000000000000000000000000000000266500000005330000000053300000000000000000000000000000000000000000266500000005330000000053300000000000000000000000000000000000000000266500000005330000000053300
0501121220001000020113190114500000000001000000813560000000000000000000000000000000000000000000000000047243000000813560000000000000000000000000000000000000000000000000047243000000813560000000000000000000000000000000000000000000000000047243
0501121220001000020113190114700000000001000000000000000000000000000000000000002341100000000000000000000000000000000000000000000000000000000000002341100000000000000000000000000000000000000000000000000000000000000000000000023411000000000000
0501121220001000020113190117400000000001000007298300000074220000000742200000007422000000074220000000742200000007298300000074220000000742200000007422000000074220000000742200000007298300000074220000000742200000007422000000074220000000742200
0501121220001000020113190114300000000001000000000000000000000000000000000000000000000000000000000000950114000000000000000000000000000000000000000000000000000000000000950114000000000000000000000000000000000000000000000000000000000000950114
0501121220001000020113190139901000000001000000840000000009800000000275700000001119800000009620000000248600000000840000000009800000000275700000001119800000009620000000248600000000000000000014220000000123100000002022000000011958000000327400
0501121220001000020113190130201000000001000002561800000000000000000000000000000000000000000000000000000000000002561800000000000000000000000000000000000000000000000000000000000001094670000014671300000000000000000000000000000000000000000000
0501121220001000020113191130301000000001000001117550000010050200000111720000001166970000011175600000186497000001117550000010050200000111720000001166970000011175600000186497000000615040000010050200000100502000001117200000012184400000242855
0501121220001000020113390141400000000001000000000000000021955800000104589000001089390000004613700000019870000000000000000021955800000104589000001089390000004613700000019870000000000000000021955800000104589000001089390000004613700000019870
0501121220001000020113390301700000000001000000000000000000000000000019680000000000000000000000000000003500000000000000000000000000000019680000000000000000000000000000003500000000000000000000000000000019680000000000000000000000000000003500
0501121220001000020113390304400000000001000000000000000000000000000000000000000000000000000600000000000000000000000000000000000000000000000000000000000000000000000000006000000000000000000000000000000000000000000000000000000000000000006000
0501121220001000020113390300799000000001000000000000000000000000000025350000000123500000001200000000011700000000000000000000000000000014900000000228000000000000000000023700000000000000000000000000000014900000000228000000000000000000023700
0501121220001000020113390301600000000001000001760240000001450000000000000000000082500000000000000000089800000000000000000017602400000014500000000066500000000160000000089800000000000000000017602400000014500000000066500000000160000000089800
0501121220001000020113390302400000000001000000000000000000560000000009055000000000000000000000000000000000000000000000000000560000000000000000000053550000000000000000003700000000000000000000560000000000000000000053550000000000000000003700
0501121220001000020113390303900000000001000001422100000000000000000000000000000000000000000000000000032000000001422100000000000000000000000000000000000000000000000000032000000001422100000000000000000000000000000000000000000000000000032000
0501121220001000020113390303000000000001000000000000000000000000000014950000000000000000000000000000000000000000000000000000000000000014950000000000000000000000000000000000000000000000000000000000000014950000000000000000000000000000000000
0501121220001000020113390330100000000001000000000000000011904000000088880000000000000000002956000000000000000000000000000011904000000088880000000000000000002956000000000000000000000000000011904000000088880000000000000000002956000000000000
0501121220001000020113390339900000000001000000000000000000280000000000000000000000000000000000000000000000000000000000000000280000000000000000000000000000000000000000000000000000000000000000280000000000000000000000000000000000000000000000
05011212200010000201133903911000000000010000055863600000000000000000000000000000000000000000000-0000558636000000000000000000000000000000000000000000000000000000000000000000000000000000000000000000000000000000000000000000000000000000000000
05011212200010000201133903958020000000010000060831600000000000000000000000000000000000000000000-0000000007000001013860000010138600000101385000001013840000010138400000101384000001013860000010138600000101385000001013840000010138400000101384
0501121220001000020113390390800000000001000000000000000000000000000000000000000000000000000000000000410800000000000000000000000000000000000000000000000000000000000000410800000000000000000000000000000000000000000000000000000000000000410800
0501121220001000020113390391200000000001000000900000000000000000000105000000000000000000000000000000000000000000000000000000000000000052860000000470160000001187400000083250000000000000000000000000000052860000000470160000001187400000083250
0501121220001000020113390391400000000001000000000000000000000000000000000000000000000000000000000000023600000000000000000000000000000000000000000000000000000000000000023600000000000000000000000000000000000000000000000000000000000000023600
0501121220001000020113390392000000000001000000000000000000000000000012000000000320000000000000000000000000000000000000000000000000000000000000000000000000003200000000012000000000000000000000000000000000000000000000000000003200000000012000
0501121220001000020113390396900000000001000000067840000000000000000000000000000000000000013721100000000000000000067840000000000000000000000000000000000000000253800000134673000000067840000000000000000000000000000000000000000253800000134673
0501121220001000020113390394800000000001000000000000000010150000000048600000000000000000000000000000015000000000000000000006480000000036700000000486000000000000000000015000000000000000000006480000000036700000000486000000000000000000015000
0501121220001000020113390390100000000001000000620000000000000000000000000000000000000000000000000000000000000000620000000000000000000000000000000000000000000000000000000000000000620000000000000000000000000000000000000000000000000000000000
0501121220001000020113390392200000000001000000000000000000000000000000000000000000000000000000000000150000000000000000000000000000000000000000000000000000000000000000150000000000000000000000000000000000000000000000000000000000000000150000
0501121220001000020113390391600000000001000000000000000001450000000017000000000000000000000000000000000000000000000000000000300000000028500000000000000000000000000000000000000000000000000000300000000028500000000000000000000000000000000000
05011212200010000201133903919000000000010000008100000000000000000000000000000000000000000000000-0000006000000000480000000000600000000006000000000000000000000000000000015000000000480000000000600000000006000000000000000000000000000000015000
0501121220001000020113390396300000000001000000000000000000000000000000000000000000000000000000000000079300000000000000000000000000000000000000000000000000000000000000079300000000000000000000000000000000000000000000000000000000000000079300
0501121220001000020113390397300000000001000000000000000004000000000000000000000000000000000000000000000000000000000000000004000000000000000000000000000000000000000000000000000000000000000000000000000040000000000000000000000000000000000000
0501121220001000020113390390500000000001000000000000000000000000000000000000000120000000000000000000000000000000000000000000000000000000000000000000000000001200000000000000000000000000000000000000000000000000000000000000001200000000000000
0501121220001000020113390460100000000001000000757560000018939000000160038000001780360000020000000000197600000000757560000018939000000160038000001780360000020000000000197600000000189390000015151200000189390000001685660000017481300000297600
050112122000100002011449052520000000002000000000000000000000000000000000000000520000-000003145400000000000000000000000000000000000000000000000000000000000048854600000000000000000000000000000000000000000000000000000000000048854600000000000
0501121220001000020114490525200000001011000000000000000000000000000000000000045600000000003145400000000000000000000000000000000000000000000000000000000000459145400000000000000000000000000000000000000000000000000000000000459145400000000000
0502121280016000020123390141400000000020000000000000000006153600000015384000000076920000000384600000102508000000000000000006153600000015384000000076920000000384600000102508000000000000000006153600000015384000000076920000000384600000102508
0502121280016000020123390330100000000020000000000000000000000000000000000000000000000000000000000000055000000000000000000000000000000000000000000000000000000000000000055000000000000000000000000000000000000000000000000000000000000000055000
0502121280016000020123390396500000000020000000000000000000000000000300000000000000000000000000000000000000000000000000000000000000000000000000000000000000015000000000150000000000000000000000000000000000000000000000000000015000000000150000
0502121280016000020123390394800000000020000002937000000029780000000000000000000560000000000000000000010000000001287000000046280000000000000000000000000000005600000000010000000000000000000059150000000000000000000000000000005600000000010000
0502121280016000020123390392300000000020000000850000000000000000000000000000000000000000000000000000000000000000000000000008500000000000000000000000000000000000000000000000000000000000000008500000000000000000000000000000000000000000000000
0502121280016000020123390930500000000020000000000000000000000000000000000000000068000000000000000000000000000000000000000000000000000000000000000068000000000000000000000000000000000000000000000000000000000000000068000000000000000000000000
0502123610017000020133190110101000000020000010257840000091004800000919220000009540700000096680600000960220000010257840000091004800000919220000009540700000096680600000960220000010257840000091004800000919220000009540700000096680600000960220
0502123610017000020133190113700000000020000000969380000010394500000105435000001095350000010990400000109904000000969380000010394500000105435000001095350000010990400000109904000000969380000010394500000105435000001095350000010990400000109904
0502123610017000020133190114500000000020000000352430000000000000000157212000000000000000000000000000000000000000352430000000000000000157212000000000000000000000000000000000000000352430000000000000000157212000000000000000000000000000000000
0502123610017000020133190114300000000020000000000000000000000000000000000000000000000000000000000000626197000000000000000000000000000000000000000000000000000000000000626197000000000000000000000000000000000000000000000000000000000000626197
0502123610017000020133190164401000000020000000000000000000000000000000000000000000000000000218000000000000000000000000000000000000000000000000000000000000000218000000000000000000000000000000000000000000000000000000000000000218000000000000
0502123610017000020133190940103000000020000000000000000017770300000000000000000000000000000000000000000000000000000000000017770300000000000000000000000000000000000000000000000000000000000017770300000000000000000000000000000000000000000000
0502123610017000020133191130301000000020000001495270000018339000000145774000001466660000014958200000224373000001495270000018339000000145774000001466660000014958200000224373000000767770000016437600000164651000001457740000014857000000299164
05021236100170000201333903004000000000200000023160000000000000000000000000000000000000000000000-0000127600000000000000000001700000000011600000000232000000002320000000029000000000000000000001700000000011600000000232000000002320000000029000
0502123610017000020133390300701010000020000026679750000000000000000000000-000066082000000249700-0000503680000000000000000018652500000495155000002760900000035285000000442555000000000000000018652500000495155000002760900000035285000000442555
0502123610017000020133390300701020000020000055712790000000000000000000000-0000426649-0000250000-0001454182000000000000000072919700001053073000005392270000069866300000420288000000000000000072919700001053073000005392270000069866300000420288
0502123610017000020133390300701020001001000000882500000000000000000000000000002496840000000000000001003455000000000000000002134600000002559000002701470000001373400001033603000000000000000002134600000002559000002701470000001373400001033603
050212361001700002013339030070101000100100000581880000005110000000000000000000572220-000016110000000179640000000000000000023698000000168340000003088500000031085000000658620000000000000000023698000000168340000003088500000031085000000658620
0502123610017000020133390300701020001059000000000000000000000000000000000000000000000000017696500000000000000000000000000000000000000000000000000000000000016412300000012842000000000000000000000000000000000000000000000000016412300000012842
05021236100170000201333903007010100010710000000150000000000000000000000000000000000000000000000-0000001500000000000000000000000000000000000000000000000000000000000000000000000000000000000000000000000000000000000000000000000000000000000000
0502123610017000020133390300701020001071000000826500000000000000000000000000000000000000000000000000000000000000000000000000000000000032400000000000000000000000000000050250000000000000000000000000000032400000000000000000000000000000050250
0502123610017000020133390394800000000020000000000000000000000000000000000000000160000000000000000000000000000000000000000000000000000000000000000160000000000000000000000000000000000000000000000000000000000000000160000000000000000000000000
0502123610017000020133390460100000000020000000568170000007575600000076705000000606080000010000000000100000000000568170000007575600000076705000000606080000010000000000100000000000378780000005681700000075756000000606080000008882700000150000
0502123610017000020134490523900000000020000000000000000000000000000000000000000000000000001700000000000000000000000000000000000000000000000000000000000000001700000000000000000000000000000000000000000000000000000000000000001700000000000000
0502123610018000020143190049999000000020000000000000000048099900000677320000008775960000098013500001685238000000000000000048099900000677320000008775960000098013500001685238000000000000000048099900000677320000008775960000098013500001685238
0502123650017000020163190114300000000020000000000000000000000000000000000000000000000000000000000000265056000000000000000000000000000000000000000000000000000000000000265056000000000000000000000000000000000000000000000000000000000000265056
0502123650017000020163190111000000000020000000248360000000000000000000000000000000000000000000000000000000000000248360000000000000000000000000000000000000000000000000000000000000248360000000000000000000000000000000000000000000000000000000
0502123650017000020163190114500000000020000001371400000000000000000000000000000000000000000000000000000000000001371400000000000000000000000000000000000000000000000000000000000001371400000000000000000000000000000000000000000000000000000000
0502123650017000020163190114700000000020000001128880000000000000000000000000000000000000000000000000000000000001128880000000000000000000000000000000000000000000000000000000000001128880000000000000000000000000000000000000000000000000000000
0502123650017000020163190164401000000020000000000000000000000000000001442000000041360000000298700000000000000000000000000000000000000001442000000041360000000298700000000000000000000000000000000000000001442000000041360000000298700000000000
0502123650017000020163190940103000000020000000000000000025556700000000000000000000000000000000000000000000000000000000000025556700000000000000000000000000000000000000000000000000000000000025556700000000000000000000000000000000000000000000
0502123650017000020163191130301000000020000001238340000011407700000073514000000687220000007066800000106689000001238340000011407700000073514000000687220000007066800000106689000000667320000010899900000102306000000667760000007066800000142023
050212365001700002016339030040000000002000000254400-0000005600000000000000000000000000000000000-0000063800000000000000000002840000000029000000000348000000002320000000069600000000000000000002840000000029000000000348000000002320000000069600
0502123650017000020163390300701020000020000040707350000000000000000000000-0000357860-0000188500-0000795720000000000000000035679400000679533000005723110000043455300000685464000000000000000035679400000679533000005723110000043455300000685464
0502123650017000020163390300701010000020000000000000000000000000000000000000000000000000018855000000000000000000000000000000000000000000000000000000000000006285000000125700000000000000000000000000000000000000000000000000006285000000125700
0502123650017000020163390300701020001031000007106630000000000000000000000000000000000000022016000000328587000000000000000006835700000135966000001237060000034988700000581494000000000000000006835700000135966000001237060000034988700000581494
050212365001700002016339030070101000103100001128600000000000000000000000000000000000-0000047200-0000033000000000000000000011738000000197605000003184250000028962000000125370000000000000000011738000000197605000003184250000028962000000125370
0502123650017000020163390300701020001033000002656330000000000000000000000000000000000000013770000000507883000000000000000002241700000230112000000023500000014240800000513929000000000000000002241700000230112000000023500000014240800000513929
050212365001700002016339030070101000103300000729220000000000000000000000000000000000-0000141350-0000004700000000000000000006763500000204685000000600200000009395000000156880000000000000000006763500000204685000000600200000009395000000156880
0502123650017000020163390394800000000020000000000000000000000000000000000000000160000000000000000000000000000000000000000000000000000000000000000160000000000000000000000000000000000000000000000000000000000000000160000000000000000000000000
0502123650017000020163390460100000000020000000757560000009469500000079546000000672370000005580000000098800000000757560000009469500000079546000000672370000005580000000098800000000568170000005681700000094695000000795480000005435700000129600
0502123650021000020173190041501000000020000000716190000049761300000647800000007528770000081367600001067237000000716190000049761300000647800000007528770000081367600001067237000000000000000031810000000514355000007691540000075663700001492576
0502123650021000020173190049999000000020000003122490000216953200002364182000012165600000000000000000841454000003122490000216953200002364182000012165600000000000000000841454000003122490000216953200002364182000012165600000000000000000841454
0502123650021000020173190040102000000020000000000000000000000000000000000000011820910000262722300003915993000000000000000000000000000000000000011820910000262722300003915993000000000000000000000000000000000000011820910000262722300003915993
0502123650021000020173190114000000000031000000965460000004386500000050144000000501440000005014400000050144000000965460000004386500000050144000000501440000005014400000050144000000965460000004386500000050144000000501440000005014400000050144
0502123650021000020173190114500000000031000018104950000000000000000066672000002419930000000000000000073836000018104950000000000000000066672000002419930000000000000000073836000018104950000000000000000066672000002419930000000000000000073836
0502123650021000020173190113700000000031000009060360000094364400000812160000008204780000084281400000854257000009060360000094364400000812160000008204780000084281400000854257000009060360000094364400000812160000008204780000084281400000854257
0502123650021000020173190113300000000031000005084990000057256600000495086000004950860000049508600000495086000005084990000057256600000495086000004950860000049508600000495086000005084990000057256600000495086000004950860000049508600000495086
0502123650021000020173190110101000000031000093547480001018199900008950207000089086490000883252500008891481000093547480001018199900008950207000089086490000883252500008891481000093547480001018199900008950207000089086490000883252500008891481
0502123650021000020173190114700000000031000000000000000024039700000000000000000000000000000000000000507470000000000000000024039700000000000000000000000000000000000000507470000000000000000024039700000000000000000000000000000000000000507470
0502123650021000020173190111000000000031000000000000000002257800000007526000000000000000000000000000000000000000000000000002257800000007526000000000000000000000000000000000000000000000000002257800000007526000000000000000000000000000000000
0502123650021000020173190114300000000031000000225820000000000000000000000000000000000000000000000005243166000000225820000000000000000000000000000000000000000000000005243166000000225820000000000000000000000000000000000000000000000005243166
0502123650021000020173190164401000000020000000000000000000000000000000000000000039070000000832900000000000000000000000000000000000000000000000000039070000000832900000000000000000000000000000000000000000000000000039070000000832900000000000
0502123650021000020173190940103000000020000000000000000099153000000000000000000000000000000000000000000000000000000000000099153000000000000000000000000000000000000000000000000000000000000099153000000000000000000000000000000000000000000000
0502123650021000020173191130301000000020000017668100000171568500001496202000015438820000149116100002282429000017668100000171568500001496202000015438820000149116100002282429000010161380000150845300001700741000015379910000149402700003038819
0504127820019000020193390390500000000020000000000000000000900900000000000000000000000000000000000000000000000000000000000000900900000000000000000000000000000000000000000000000000000000000000900900000000000000000000000000000000000000000000
0504127820019000020193390394800000000020000000300000000000000000000058800000000300000000000000000000000000000000300000000000000000000015000000000738000000000000000000000000000000300000000000000000000015000000000738000000000000000000000000
0504127820019000020193390396900000000020000000000000000004033000000000000000000000000000000000000000000000000000000000000004033000000000000000000000000000000000000000000000000000000000000004033000000000000000000000000000000000000000000000
0504127820019000020193390399904000000020000000000000000000000000000000000000000390460000000000000000000000000000000000000000000000000000000000000390460000000000000000000000000000000000000000000000000000000000000390460000000000000000000000
0504127820019000020193390399903000000020000000000000000000000000000000000000000000000000000000000002978843000000000000000000000000000000000000000000000000000000000002978843000000000000000000000000000000000000000000000000000000000002978843
0504127820019000020193390391600000000020000000000000000000000000000000000000000000000000001500000000000000000000000000000000000000000000000000000000000000000000000000015000000000000000000000000000000000000000000000000000000000000000015000
0504127820019000020193390398100000001014000000000000000002000000000000000000000000000000000000000000007840000000000000000000176000000001760000000036400000000564000000015040000000000000000000176000000001760000000036400000000564000000015040
0504127820019000020193390399903000001014000178523120000022842000000000000-00068315310000000000000000990195000000000000000357090500004035998000030950280000000000000001537465000000000000000357090500004035998000030950280000000000000001537465
0504127820019000020193390391900000001014000000050000000000000000000000000000000000000000000000000000252187000000050000000000000000000000000000000000000000000000000000252187000000000000000000500000000000000000000000000000000000000000071000
0504127820019000020193390391900000001016000000000000000000000000000000000000000000000000000000000000009009000000000000000000000000000000000000000000000000000000000000009009000000000000000000000000000000000000000000000000000000000000009009
05041278200190000201933903999030000010160000447700000001684032000000000000000000000000000000000-0001358597000000000000000000000000000685127000011418790000140287900001572550000000000000000000000000000685127000011418790000140287900001572550
05041278200190000201933903919000000010170000000000000000000000000000380000000020650000002167309-0000001000000000000000000000000000000038000000000275000000107330900001272000000000000000000000000000000038000000000000000000110080900001272000
050412782001900002019339039990300000101700009136800-000022842000000000000000068315310000000000000000145562000000000000000105073200001827360000015989400000576687600005641565000000000000000105073200001827360000015989400000576687600005641565
0504127820019000020193390460100000000020000002272680000030302400000334282000003390260000044640000000434400000002272680000030302400000334282000003390260000044640000000434400000001325730000022726800000340902000003342910000038996600000659400
0503133920020000020203390301500000000001000000712500000000900000000000000000001233000000001662000001008046000000712500000000900000000000000000001233000000001662000001008046000000000000000008025000000000000000000000000000013992000001008046
0503133920020000020203390302300000000001000000000000000000000000000000000000001812600000000000000000176280000000000000000000000000000000000000000000000000018126000000176280000000000000000000000000000000000000000000000000018126000000176280
0503133920020000020203390300799000000001000000000000000000000000000000000000000444000000000000000000000000000000000000000000000000000000000000000000000000004440000000000000000000000000000000000000000000000000000000000000004440000000000000
0503133920020000020203390304400000000001000000000000000000000000000000000000000000000000000000000000024000000000000000000000000000000000000000000000000000000000000000024000000000000000000000000000000000000000000000000000000000000000024000
0503133920020000020203390303100000000001000000000000000000000000000000000000000130000000000000000000000000000000000000000000000000000000000000000000000000001300000000000000000000000000000000000000000000000000000000000000001300000000000000
0503133920020000020203390392300000000001000000000000000006000000000000000000008100000000040400000000555000000000000000000000000000000060000000001000000000073400000000935000000000000000000000000000000060000000001000000000073400000000935000
050313392002000002020339039920000000000100000000000000000000000000000000000000024000-000002400000000000000000000000000000000000000000000000000000000000000000000000000000000000000000000000000000000000000000000000000000000000000000000000000
0503133920020000020203390392000000000001000000000000000000000000000000000000000080000000000000000000000000000000000000000000000000000000000000000000000000000800000000000000000000000000000000000000000000000000000000000000000800000000000000
0503133920020000020203390399300000000001000000000000000000000000000000000000000000000000002400000000000000000000000000000000000000000000000000000000000000000000000000024000000000000000000000000000000000000000000000000000000000000000024000
