87612826000190010120203004202008052020PREFEITURA MUNICIPAL INDEPENDENCIA                                              
000001000000000000000201000274320508200025552260480002441268775000227394921900028325875560002838126736000283859237000028505593200008743053236000866903194700032386366320003267032044
000001100000000000000201000230742067900021485138450002411695219000219301783800028113497130002747356498000279555563900028320397280008657229128000861625086000031201563180003191151971
000001110000000000000201000193858084100018530868920001947042161000191794302100024386546690002397368067000250476893100025659550440006254664947000631051785700026244168410002694900640
000001111000000000000201000193858084100018530868920001947042161000191794302100024386546690002397368067000250476893100025659550440006254664947000631051785700026244168410002694900640
000001111100000000000201000193858084100018530868920001947042161000191794302100024386546690002397368067000250476893100025659550440006254664947000631051785700026244168410002694900640
000001111101000000000201000014492122400001445350030000150873501000015094846500001676645600000167526196000013899341600001393185360000085308109000008531060900000959019950000096023996
000001111106000000000201000009867544900000986754490000087780139000008778013900000886376570000088637657000010154230000001015423000004423768441000442376844100001699262550000169926255
000001111106010000000201000009867544900000986754490000087780139000008778013900000886376570000088637657000010154230000001015423000004423768441000442376844100001699262550000169926255
000001111106010100001201000008064856900000806485690000087766639000008776663900000886376570000088637657000008981450200000898145020001460259876000146025987600000000000000000000000000
000001111106010200001201000000600865300000060086530000000000000000000000000000000000000000000000000000000000586389900000058638990000386358697000038635869700000000000000000000000000
000001111106010300001201000001201822700000120182270000000000000000000000000000000000000000000000000000000000586389900000058638990000686358697000068635869700000000000000000000000000
000001111106010400001201000000000000000000000000000000000013500000000001350000000000000000000000000000000000000000000000000000000000000000000000000000000000000000000000000000000000
000001111106010500001201000000000000000000000000000000000000000000000000000000000000000000000000000000000000000000000000000000000001410791171000141079117100001699262550000169926255
000001111106010600001201000000000000000000000000000000000000000000000000000000000000000000000000000000000000000000000000000000000000480000000000048000000000000000000000000000000000
000001111119000000000201000125581674900012620749260001302339213000130191352000016254290220001625510261000173852835500017214791830001380170253000139401885200019804105350001924909014
000001111119020000000201000056822495400005744831310000554919654000055450541100007136720430000714174421000060979141000005924552930000527075737000054091534100007370826040000681444434
000001111119020100000201000028188854300002818885430000252015306000025201530600004234203120000423420312000029677650700002808243840000214829916000023078203900002751491960000275149196
000001111119020200000201000016214261800001621426180000125548360000012554836000001422384780000142238478000014826470200001482647020000113718357000011371835700001881934510000188193451
000001111119020400000201000000193977300000019397730000001784926000000178492600000022055890000002205589000000216815100000021681510000002098276000000209827600000021868190000002186819
000001111119020500000201000000038660900000003866090000000011180000000001118000000001996190000000199619000000015717300000001571730000007762291000000776229100000008051780000000805178
000001111119020600000201000000000000000000000000000000000013075000000001307500000000000000000000000000000000000000000000000000000000000000000000000000000000000000000000000000000000
000001111119020700000801000000289809500000030998160000005744519000000574451900000124834840000012483484000001464480800000146448080000009599435000000959943500000340743130000014208031
000001111119020800000502000000000000000000000000000000000000000000000000000000000004260000000000426000000000028400000000002840000000000284000000000028400000000001420000000000142000
000001111119020900000201000000000000000000000000000000000000000000000000000000000000000000000000000000000000325314800000032531480000009329013000000932901300000016303820000001630382
000001111119021000000801000000000000000000000000000000000000000000000000000000000000000000000000000000000000092993300000000000000000000000000000000000000000000000000000000000929933
000001111119021100000201000000080567100000071396660000012899358000001289935800000076384880000007638488000000357623600000035762360000009928245000000992824500000071898690000007189869
000001111119021200000201000000042676400000001236560000000426764000000072987200000023539160000002353916000000191150500000019115050000001456173000000145617300000013862500000001386250
000001111119021300000201000000582918100000058291810000009383764000000938376400000084903310000008490331000000388928400000038892840000006641022000000664102200000066422500000006642250
000001111119021400000201000000025112700000002511270000000238264000000000238200000000000000000000235882000000022290300000002229030000000217811000000000217800000000000000000000215633
000001111119021500000801000008444071000000844407100000095598829000009559882900000775314110000077531411000008407846500000840784650000115517830000011383029000001162825250000117970065
000001111119021600000801000000000000000000000000000000000000000000000000000000000000000000000000000000000000000000000000000000000000000000000000000000000000000003450000000000345000
000001111119021700000801000000000000000000000000000000000000000000000000000000000000000000000000000000000000326340000000032634000000000000000000000000000000000001018810000000101881
000001111119021800000501000000000000000000000000000000000000000000000000000000000000000000000000000000000000002100000000000000000000000021000000000000000000000000000000000000042000
000001111119021900000201000000000000000000000000000000000000000000000000000000000000000000000000000000000000000000000000000000000000000000000000000000000000000420250830000000000000
000001111119022000000801000000000000000000000000000000000111464000000011146400000003693840000000369384000000030355400000003035540000000407196000000040719600000003333120000000333312
000001111119022100000201000000025344000000002534400000000803272000000080327200000009258390000000925839000000077685400000006692830000000506880000000058743000000002534400000000280461
000001111119022200000201000000020116000000002011600000000805450000000080545000000008054160000000805416000000040232000000004020900000000402320000000040255000000002011600000000201160
000001111119022300000201000000011872000000000000000000000237440000000020139700000002374400000000389372000000023744000000002402710000000237440000000023744000000001187200000000118720
000001111119022400000201000000001792000000000000000000000035840000000000000000000000358400000000000000000000003584000000001254400000000035840000000000000000000000179200000000053760
000001111119024200000201000000183129600000018312960000001354915000000135491500000013740250000001374025000000102638800000010263880000001888843000000188567400000018941910000001897360
000001111119024300000201000000000954000000000000000000000019080000000000000000000000190800000000000000000000001908000000000667800000000019080000000000000000000000095400000000028620
000001111119024500000801000000000000000000000000000000000000000000000000000000000000000000000000000000000000000000000000000000000000000000000000000000000000000000000000000000040346
000001111119024900000801000000173980000000017398000000000000000000000000000000000000052500000000005250000000036088300000001318000000000000000000000002201000000000000000000000207073
000001111119025100000201000000000000000000000000000000000000000000000000000000000000000000000000000000000000000000000000000000000000000000000000000000000000000000000000000000796436
000001111119025300000801000000000000000000000000000000000000000000000000000000000005608820000000560882000000157356800000010801940000000000000000000000894000000000000000000000484434
000001111119025400000502000000000000000000000000000000000000000000000000000000000000000000000000000000000000000000000000000000000000000000000000000000000000000000534310000000053431
000001111119025600000701000000000000000000000000000000000116108000000011610800000000078510000000007851000000002276100000000227610000000360122000000036012200000000352160000000035216
000001111119025700000902000000060000000000006000000000000062040000000006204000000007862300000000786230000000065693300000006569330000000857346000000085734600000084224130000008422413
000001111119025800000902000000000000000000000000000000002371905000000237190500000014515520000001451552000000298896800000027081210000001250160000000153100700000096440810000009644081
000001111119025900000902000000039904700000003990470000000271030000000027103000000005705920000000570592000000056069500000005606950000000376900000000037690000000024715950000002471595
000001111119026300000902000000000000000000000000000000000000000000000000000000000003563400000000356340000000000000000000000000000000000204500000000020450000000007153730000000715373
000001111119026400000202000000000000000000000000000000000839177000000083917700000000000000000000000000000000050230200000005023020000001191600000000119160000000002500000000000250000
000001111119026600000801000000120658500000012065850000007308504000000730850400000000000000000000000000000000622704200000062270420000000000000000000000000000000027043800000002704380
000001111119026700000801000000000000000000003189150000000000000000000000000000000000000000000000000000000000000000000000000000000000000000000000000000000000000000000000000000000000
000001111119027000000801000000000000000000000000000000000000000000000000000000000000000000000000280050000000000000000000000146100000000000000000000000000000000000000000000000016921
000001111119027100000801000000000000000000000000000000003324454000000332445400000000000000000000000000000000000000000000000000000000000000000000000000000000000000000000000000000000
000001111119027200000201000002083835500000206911890000033351290000003320412400000291786940000029068128000003065556700000309355300000027934141000002741130700000338036350000035551404
000001111119027201000801000001599941800000159994180000026335700000002633570000000254828040000025482804000001907417200000190741720000022188402000002204380800000238850400000024029634
000001111119027203000801000000062449400000006244940000000905744000000090574400000011493360000001149336000000085681500000008568150000001501134000000150113400000017672090000001767209
000001111119027204000801000000050331900000005033190000001406638000000140663800000012066380000001206638000000100663800000010066380000002420544000000198706000000016329640000002066448
000001111119027206000801000000014716600000000000000000000147166000000000000000000001695660000000000000000000014716600000000000000000000147166000000000000000000001471660000000905396
000001111119027207000801000000356395800000035639580000004556042000000455604200000011703500000001170350000000457077600000045707760000001325265000000091767500000000000000000000407590
000001111119027208000801000000000000000000000000000000000000000000000000000000000000000000000000059000000000000000000000004271290000000000000000000061000000000000000000000000003871
000001111119027209000801000000000000000000000000000000000000000000000000000000000000000000000000000000000000500000000000050000000000000351630000000035163000000063712560000006371256
000001111119027300000201000000000000000000000000000000000243340000000000000000000000000000000000000000000000000000000000002433400000000000000000000000000000000000000000000000000000
000001111119027301000801000000000000000000000000000000000243340000000000000000000000000000000000000000000000000000000000002433400000000000000000000000000000000000000000000000000000
000001111119030000000201000000842928600000084292860000021205339000002120533900000120848310000012084831000004409157200000440915720000056940436000005694043600000039267170000003926717
000001111119031800000701000000264209900000026420990000003187895000000318789500000120848310000012084831000000000000000000000000000000000855156000000085515600000000000000000000000000
000001111119031900000701000000368926200000036892620000000000000000000000000000000000000000000000000000000000000000000000000000000000000000000000000000000000000000000000000000000000
000001111119032600000602000000209792500000020979250000018017444000001801744400000000000000000000000000000001347157200000134715720000000000000000000000000000000023574000000002357400
000001111119032800001002000000000000000000000000000000000000000000000000000000000000000000000000000000000002712436600000271243660000001800000000000180000000000000000000000000000000
000001111119032900001002000000000000000000000000000000000000000000000000000000000000000000000000000000000000349563400000034956340000000000000000000000000000000015693170000001569317
000001111119033000001001000000000000000000000000000000000000000000000000000000000000000000000000000000000000000000000000000000000000042506010000004250601000000000000000000000000000
000001111119033100001001000000000000000000000000000000000000000000000000000000000000000000000000000000000000000000000000000000000000000941270000000094127000000000000000000000000000
000001111119033200000602000000000000000000000000000000000000000000000000000000000000000000000000000000000000000000000000000000000000009834000000000983400000000000000000000000000000
000001111119033300000602000000000000000000000000000000000000000000000000000000000000000000000000000000000000000000000000000000000000001004000000000100400000000000000000000000000000
000001111119120000000201000067916250900006791625090000726214220000072620277000008788934730000878472334000097070145200009709883970000674381962000067439095700011286492520001128785901
000001111119120100000801000004650401000000465040100000058514492000005851449200000574221600000057422160000006087045100000608704510000054378110000005437811000001048453230000104845323
000001111119120200000201000055468071900005546807190000580418474000058041847400007289053940000728905394000076681452900007668145290000501397910000050139791000008249015470000824901547
000001111119120300000201000000000000000000000000000000000005250000000000000000000000000000000000000000000000000000000000000052500000000000000000000000000000000000130890000000013089
000001111119120400000801000000040000000000004000000000000000000000000000000000000004086290000000000000000000040899500000008086290000000000000000000000899500000000000000000000000000
000001111119120600000801000000000000000000000000000000000000000000000000000000000000000000000000000000000000000000000000000000000000000284691000000028469100000000000000000000000000
000001111119120700000201000000322178800000032217880000009171518000000917151800000134086290000013408629000001354345500000135434550000012450665000001245066500000119405200000011940520
000001111119120800000201000002687075100000268707510000029089494000002908949400000323915360000032391536000003848862700000384886270000028848639000002884863900000537151140000053715114
000001111119121000000801000000000000000000000000000000002000000000000200000000000016000000000001600000000000400690500000040069050000004006438000000400643800000060037850000006003785
000001111119121100000801000000000000000000000000000000000400000000000040000000000004000000000000381290000000082015700000008388670000001001287000000100128700000006446840000000644684
000001111119121200000801000000000000000000000000000000000528991000000052899100000003626120000000362612000000055333800000005533380000000606279000000060627900000012671240000001267124
000001111119121500000801000000001800000000000180000000002492138000000249213800000012460690000001246069000000371656600000037165660000004859286000000485928600000140364340000014036434
000001111119121600000801000000000000000000000000000000000000000000000000000000000000000000000000000000000000013664900000000000000000000000000000000000000000000000000000000000136649
000001111119121900000201000004737344100000473734410000042330963000004233096300000405107270000040510727000007891158000000789115800000064775951000006477595100001025376840000102537684
000001111119122100000801000000000000000000000000000000000000000000000000000000000000000000000000000000000000000000000000000000000000000000000000000000000000000048980900000004898090
000001111119122800001004000000009380000000000938000000000074900000000006870000000004022000000000408400000000009470000000000947000000000076000000000007600000000003265000000000326500
000001111119123200000902000000000000000000000000000000000000000000000000000000000000000000000000000000000000000000000000000000000000000796706000000079670600000008031580000000803158
000001111119124200000801000000000000000000000000000000001188000000000118800000000018355170000001835517000000233550000000023355000000000900000000000090000000000027162000000002716200
000001111119990000000201000000000000000000000000000000000000000000000000000000000207786750000020778675000011394392100001139439210000121772118000012177211800001107519620000110751962
000001111119990100000201000000000000000000000000000000000000000000000000000000000207786750000020778675000011394392100001139439210000121772118000012177211800001107519620000110751962
000001111119990101000201000000000000000000000000000000000000000000000000000000000182781060000018278106000011122842700001112284270000116974096000011697409600001056183260000105618326
000001111119990102000201000000000000000000000000000000000000000000000000000000000025005690000002500569000000271549400000027154940000004798022000000479802200000051336360000005133636
000001111150000000000201000043916741900003478015140000406049308000037730089700005569234300000515693953000052570486000006036150250000365418144000040741995500003781780560000504041375
000001111150020000000201000000149985300000100008600000007830314000000685560700000056139730000002652685000001870777600000073791250000024369880000000811274200000003689900000003926717
000001111150020900000502000000000000000000040313930000000000000000000000000000000000000000000000000000000000000000000000000000000000000000000000000000000000000000000000000000000000
000001111150021300000502000000020116000000000000000000000403037000000040313000000002020290000000403096000000000000000000000000000000000000000000000000000000000000000000000000000000
000001111150021400000702000000006000200000026417880000000050597000000318789500000049541530000002249589000000004737600000000000000000000039925000000085515600000000337650000000000000
000001111150021700000701000000122975400000012297540000000000000000000000000000000000000000000000000000000000000000000000000000000000000000000000000000000000000000000000000000000000
000001111150022700000602000000000893700000020979250000007376680000000326458200000000317910000000000000000000494270100000036364210000000038588000000000000000000000273020000002357400
000001111150022800000502000000000000000000000000000000000000000000000000000000000004260000000000000000000000028769900000000000000000000289397000000000000000000001484590000000000000
000001111150022900001002000000000000000000000000000000000000000000000000000000000000000000000000000000000001174168300000036237040000000060465000000180000000000000479490000000000000
000001111150023000001002000000000000000000000000000000000000000000000000000000000000000000000000000000000000168831700000001190000000000000000000000000000000000000000000000001569317
000001111150023100001001000000000000000000000000000000000000000000000000000000000000000000000000000000000000000000000000000000000000018522505000000545758600000000788220000000000000
000001111150023300000602000000000000000000000000000000000000000000000000000000000000000000000000000000000000000000000000000000000000004917000000000000000000000000326930000000000000
000001111150023400000602000000000000000000000000000000000000000000000000000000000000000000000000000000000000000000000000000000000000000502000000000000000000000000000000000000000000
000001111150030000000201000043766756600003378006540000398218994000037044529000005513094570000513041268000050699708400005962359000000341048264000039930721300003778090660000500114658
000001111150030100000201000016307394400001229049360000124646408000012424078000001758726540000222006485000014297424700001395872400000081465976000010164901400000567884300000071492749
000001111150030200000201000000001048600000000000000000000010206000000000000000000000104000000000000000000000001037500000000000000000000010345000000000000000000000077510000000345000
000001111150030300000201000000506850200000007685350000003464036000000565877200000024408220000004524498000000228578000000005601330000003294383000000335078500000016278440000003318644
000001111150030400000201000000000674500000000000000000000006795000000000000000000000068450000000000000000000000344200000009299330000000000000000000000000000000000000000000000000000
000001111150030500000801000000000000000000000000000000000000000000000000000000000000000000000000000000000000200690500000020069050000002006438000000200643800000025037850000002503785
000001111150030600000201000020394473100001586470060000162254034000015091799200002965343500000221930087000016370253900003574109560000105672052000012389953900002222684100000220617854
000001111150030700000502000004783639800000356382320000060310141000004692728000000437365640000032018855000004579232600000394146970000047411455000007239803600000568489840000063603041
000001111150030800000201000000000000000000000000000000006402672000000280152800000068393730000007038639000000543093300000071734650000006796781000000608067500000031950780000005570530
000001111150030900000201000000012366700000000000000000000732117000000000000000000008569190000001500388000000085443400000010579770000000823145000000060264500000003034500000000532722
000001111150031000000801000000040225100000000000000000000003632000000000000000000000027460000000408629000000040899500000004089950000000000000000000000000000000000000000000000000000
000001111150031100000502000000025344000000000000000000000508327000000029639200000002234630000000418959000000000009500000002699740000000000000000000000000000000000000000000000000000
000001111150031300000602000000000000000000000000000000007377362000000737736200000000000000000000000000000000491815100000049181510000000000000000000000000000000000000000000000000000
000001111150031400000901000000000864500000000000000000000008396000000011146400000000071100000000369384000000000617800000003035540000000005301000000040719600000000025800000000333312
000001111150031700000201000000000000000000000000000000000000000000000000000000000000000000000000000000000010231945800000000000000000052464405000005000000000000058369530000090197609
000001111150031800001002000000000000000000000000000000000000000000000000000000000000000000000000000000000001175897900000117589790000000000000000000000000000000000000000000000000000
000001111150031900000801000000001800000000000000000000002500448000000000000000000012744220000000000000000000377244600000000000000000003199808000000173600000000025318720000011560996
000001111150032000000801000000000098700000000000000000000000952000000000000000000000009840000000000000000000000024300000001366490000000000000000000000000000000000000000000000000000
000001111150032100001002000000000000000000000000000000000000000000000000000000000000000000000000000000000000168831700000016883170000000000000000000000000000000000000000000000000000
000001111150032300001001000000000000000000000000000000000000000000000000000000000000000000000000000000000000000000000000000000000000018525919000001852591900000000000000000000000000
000001111150032400001001000000000000000000000000000000000000000000000000000000000000000000000000000000000000000000000000000000000000000470635000000047063500000000000000000000000000
000001111150033200000602000000000000000000000000000000000000000000000000000000000000000000000000000000000000000000000000000000000000004917963000000491700000000000000030000000000000
000001111150033300000602000000000000000000000000000000000000000000000000000000000000000000000000000000000000000000000000000000000000000502000000000050200000000000000000000000000000
000001111150033400000801000000000000000000000000000000000494595000000026486700000000008220000000230550000000043017700000002892140000000606512000000001200000000011451180000001003000
000001111150033500000801000000000000000000000000000000000000000000000000000000000000000000000000000000000000042015700000004201570000000601361000000040128700000002446100000000444684
000001111150033600000801000000004405900000000000000000000042388000000000000000000000438380000000000000000000004671700000000000000000000041260000000000000000000027198110000004898090
000001111150035000001004000000011007800000000100000000000085087000000000000000000003968640000000050000000000011706600000000000000000000096347000000000000000000001676540000000175000
000001111150035200000201000000000486300000017398000000000001268000000000000000000000012840000000005250000000000028200000003608830000000000000000000000000000000000000000000000000000
000001111150035700000902000000000000000000000000000000000000000000000000000000000000000000000000000000000000000000000000000000000000000800571000000000000000000000025870000000803158
000001111150036600000201000000000850700000000000000000000008114000000000000000000003078500000000560882000000060134300000015735680000000000000000000000000000000000000000000000000000
000001111150036800000801000000000033800000000000000000001190698000000000000000000012223260000001241517000000096018300000013905000000000912208000000000000000000014069820000001324200
000001111150037500000201000000002574000000000000000000003341816000000332445400000000227740000000000000000000000721500000032634000000000000599000000000000000000000003030000000101881
000001111150037700000702000000000031100000000003110000000000000000000000000000000049182420000004918242000000000000000000000000000000000000000000000000000000000000000000000000000000
000001111150037800000902000000060066600000000000000000000002079000000006204000000006018280000000186230000000000223600000006569330000000576641000000025734600000006015120000001222413
000001111150037900000902000000231330000000000000000000001514716000000237190500000013437070000000718469000000090761900000029889680000000568057000000039556000000073878120000000893664
000001111150038000000201000000000000000000022971320000000000000000000000000000000000000000000000000000000000000000000000000000000000000000000000000000000000000000000000000000000000
000001111150038002000902000000000000000000022971320000000000000000000000000000000000000000000000000000000000000000000000000000000000000000000000000000000000000000000000000000000000
000001111150038100000201000000000000000000014856340000000000000000000000000000000000000000000000000000000000000000000000000000000000000000000000000000000000000000000000000000000000
000001111150038101000902000000000000000000014856340000000000000000000000000000000000000000000000000000000000000000000000000000000000000000000000000000000000000000000000000000000000
000001111150038200000201000000000000000000006018830000000000000000000000000000000000000000000000000000000000000000000000000000000000000000000000000000000000000000000000000000000000
000001111150038201000902000000000000000000006018830000000000000000000000000000000000000000000000000000000000000000000000000000000000000000000000000000000000000000000000000000000000
000001111150038300000902000000179365500000000965020000000163253000000011365000000001623680000000107021000000029876800000002683150000000294740000000008856900000001468680000002185595
000001111150038400000202000000000527200000000000000000000844488000000000000000000000115990000000000000000000051585200000000000000000000010256000000119160000000002554550000000000000
000001111150038500000902000000060405000000000000000000000002109000000000000000000000009470000000356340000000000088400000000000000000000000699000000020450000000005932420000000122359
000001111150038800000801000000106431300000012065850000007349474000000730850400000000560370000000000000000000052604700000062270420000000011517000000000000000000013100120000002704380
000001111150038900000801000000000000000000000000000000000000000000000000000000000000000000000000000000000000000000000000000000000000000285064000000000000000000000019060000000000000
000001111150039000000701000000122975400000012297540000000000000000000000000000000000000000000000000000000000000000000000000000000000000000000000000000000000000000000000000000000000
000001111150039800000201000000911298000000111743440000014952884000001842496000000144123190000014450843000001422869500000111709950000008675826000001021046900000099100540000014159992
000001111150039801000801000000841135500000076103860000012786699000001358766800000127556510000012755651000000636789800000063678980000008055961000000765693400000063631990000006762226
000001111150039803000801000000062449400000000000000000000629258000000028125000000006310330000000524842000000024737100000002323210000000587592000000087664000000003173150000001122010
000001111150039806000801000000007713100000035639580000001536927000000455604200000010256350000001170350000000259707800000045707760000000002725000000132526500000002163900000000000000
000001111150039807000801000000000000000000000000000000000000000000000000000000000000000000000000000000000000501634800000000000000000000029548000000035163000000030131500000006275756
000001111150039900000201000000000188400000000000000000000000499000000024334000000000000000000000000000000000000000000000000000000000000000000000000000000000000000000000000000000000
000001111150039901000801000000000188400000000000000000000000499000000024334000000000000000000000000000000000000000000000000000000000000000000000000000000000000000000000000000000000
000001120000000000000201000016223679100001771826310000269870982000013616258200001675234280000234356455000014826470200001573713520000112691355000011965127800002564111550000277766631
000001121000000000000201000000000000000000134261880000097040999000000800616800000000000000000030432545000000000000000000018134570000000000000000000055962600000176111480000046370853
000001121100000000000201000000000000000000000000000000097040999000000800616800000000000000000030432545000000000000000000018134570000000000000000000055962600000035134760000046370853
000001121101000000000201000000000000000000000000000000097040999000000800616800000000000000000030432545000000000000000000018134570000000000000000000055962600000025955390000046370853
000001121101050000000201000000000000000000000000000000097040999000000800616800000000000000000030432545000000000000000000018134570000000000000000000055962600000021904820000046370853
000001121101070000000201000000000000000000000000000000000000000000000000000000000000000000000000000000000000000000000000000000000000000000000000000000000000000004050570000000000000
000001121102000000000201000000000000000000000000000000000000000000000000000000000000000000000000000000000000000000000000000000000000000000000000000000000000000009179370000000000000
000001121102010000000201000000000000000000000000000000000000000000000000000000000000000000000000000000000000000000000000000000000000000000000000000000000000000009024520000000000000
000001121102020000000201000000000000000000000000000000000000000000000000000000000000000000000000000000000000000000000000000000000000000000000000000000000000000000154850000000000000
000001121200000000000201000000000000000000134261880000000000000000000000000000000000000000000000000000000000000000000000000000000000000000000000000000000000000140976720000000000000
000001121271000000000201000000000000000000134261880000000000000000000000000000000000000000000000000000000000000000000000000000000000000000000000000000000000000140976720000000000000
000001121271010000000201000000000000000000134261880000000000000000000000000000000000000000000000000000000000000000000000000000000000000000000000000000000000000140976720000000000000
000001123000000000000201000016214072500001621426180000172799216000012554836000001668234280000201782067000014826470200001531817020000112591355000011750835500002302196510000230219651
000001123300000000000201000016214072500001621426180000172799216000012554836000001668234280000201782067000014826470200001531817020000112591355000011750835500002302196510000230219651
000001123301000000000201000016214072500001621426180000172799216000012554836000001422384280000189489567000014826470200001482647020000112591355000011259135500001881945680000188194568
000001123301020000000201000016214072500001621426180000172799216000012554836000001422384280000189489567000014826470200001482647020000112591355000011259135500001881945680000188194568
000001123308000000000201000000000000000000000000000000000000000000000000000000000245850000000012292500000000000000000000049170000000000000000000000491700000000000000000000000000000
000001123308010000000201000000000000000000000000000000000000000000000000000000000000000000000004917000000000000000000000000000000000000000000000000000000000000000000000000000000000
000001123308020000000201000000000000000000000000000000000000000000000000000000000000000000000007375500000000000000000000049170000000000000000000000000000000000000000000000000000000
000001123308030000000201000000000000000000000000000000000000000000000000000000000245850000000000000000000000000000000000000000000000000000000000000491700000000000000000000000000000
000001123309000000000201000000000000000000000000000000000000000000000000000000000000000000000000000000000000000000000000000000000000000000000000000000000000000420250830000042025083
000001123309010000000201000000000000000000000000000000000000000000000000000000000000000000000000000000000000000000000000000000000000000000000000000000000000000420250830000042025083
000001125000000000000201000000009606600000014738290000000000799000000255798200000000000000000001942998000000000000000000022784130000000100000000000150702500000085803560000001084240
000001125100000000000201000000009606600000014738290000000000799000000255798200000000000000000001942998000000000000000000022784130000000100000000000150702500000085803560000001084240
000001125101000000000201000000000000000000012266880000000000799000000237241000000000000000000001834793000000000000000000022256460000000100000000000140212700000085327980000001015906
000001125101050000000201000000000000000000012266880000000000000000000237241000000000000000000001808284000000000000000000022256460000000000000000000133352900000078514700000000973296
000001125101050100000201000000000000000000012266880000000000000000000237241000000000000000000001808284000000000000000000022256460000000000000000000133352900000078514700000000973296
000001125101070000000201000000000000000000000000000000000000799000000000000000000000000000000000026509000000000000000000000000000000000100000000000006859800000006813280000000042610
000001125101070100000201000000000000000000000000000000000000799000000000000000000000000000000000026509000000000000000000000000000000000100000000000006859800000006813280000000042610
000001125102000000000201000000009606600000002471410000000000000000000018557200000000000000000000108205000000000000000000000527670000000000000000000010489800000000475580000000068334
000001125102010000000201000000000000000000001510750000000000000000000018557200000000000000000000108205000000000000000000000527670000000000000000000010489800000000475580000000068334
000001125102010100000201000000000000000000001510750000000000000000000018557200000000000000000000108205000000000000000000000527670000000000000000000010489800000000475580000000068334
000001125102020000000201000000009606600000000960660000000000000000000000000000000000000000000000000000000000000000000000000000000000000000000000000000000000000000000000000000000000
000001125102020100000201000000009606600000000960660000000000000000000000000000000000000000000000000000000000000000000000000000000000000000000000000000000000000000000000000000000000
000001126000000000000201000000000000000000001399960000000029968000000005007200000007000000000000198845000000000000000000000977800000000000000000000007627200000000000000000000091887
000001126100000000000201000000000000000000001399960000000029968000000005007200000007000000000000198845000000000000000000000977800000000000000000000007627200000000000000000000091887
000001126101000000000201000000000000000000001399960000000029968000000005007200000007000000000000198845000000000000000000000977800000000000000000000007627200000000000000000000091887
000001126101020000000201000000000000000000001399960000000029968000000005007200000007000000000000198845000000000000000000000977800000000000000000000007627200000000000000000000091887
000001130000000000000201000009145451500000665779530000110613201000009410787300000554976350000070452782000005409496700000541749970000055875042000005517701500000953023290000122406762
000001131000000000000201000001784866100000172986610000005962507000000483250700000034615110000003098720000000381549400000037582850000004808022000000480802200000051336360000007053636
000001131100000000000201000001784866100000172986610000005962507000000483250700000034615110000003098720000000381549400000037582850000004808022000000480802200000051336360000007053636
000001131101000000000201000001706866100000170686610000004162507000000416250700000026435020000002620711000000271549400000027382850000004808022000000480802200000051336360000005133636
000001131101010000000201000000131572400000013157240000000873766000000087376600000010654100000001065410000000119733400000011973340000004022983000000402298300000018243760000001824376
000001131101040000000201000001561293700000156129370000003158741000000315874100000014580920000001435301000000138816000000014109510000000645039000000064503900000031692600000003169260
000001131101990000000201000000014000000000001400000000000130000000000013000000000001200000000000120000000000013000000000001300000000000140000000000014000000000001400000000000140000
000001131102000000000201000000078000000000002300000000001800000000000067000000000008180090000000478009000000110000000000010200000000000000000000000000000000000000000000000001920000
000001132000000000000201000000001312000000000065600000000016400000000001312000000000243340000000019680000000001968000000000243340000000033642000000002898800000003900430000000404537
000001132300000000000201000000001312000000000065600000000016400000000001312000000000243340000000019680000000001968000000000243340000000033642000000002898800000003900430000000404537
000001132303000000000201000000000000000000000000000000000000000000000000000000000000000000000000000000000000000000000000000000000000000000000000000000000000000000000000000000000000
000001132306000000000201000000001312000000000065600000000016400000000001312000000000243340000000019680000000001968000000000243340000000033642000000002898800000003900430000000404537
000001132306010000000201000000000000000000000000000000000000000000000000000000000000000000000000000000000000000000000000000000000000000000000000000000000000000003687700000000368770
000001132306030000000201000000001312000000000065600000000016400000000001312000000000243340000000019680000000001968000000000243340000000033642000000002898800000000212730000000035767
000001134000000000000201000000004474000000000398350000000002754000000001867500000000241610000000008054000000000000000000000161070000000078438000000002099200000001225690000000057831
000001134100000000000201000000004474000000000398350000000002754000000001867500000000241610000000008054000000000000000000000161070000000078438000000002099200000001225690000000057831
000001134101000000000201000000004474000000000398350000000002754000000001867500000000241610000000008054000000000000000000000161070000000078438000000002099200000001225690000000057831
000001134101050000000201000000000000000000000000000000000000000000000000000000000000000000000000000000000000000000000000000000000000000000000000000000000000000000746440000000000000
000001134101120000000201000000000275400000000137700000000002754000000000275400000000000000000000000000000000000000000000000000000000000000000000000000000000000000000000000000000000
000001134101120300000201000000000275400000000137700000000002754000000000275400000000000000000000000000000000000000000000000000000000000000000000000000000000000000000000000000000000
000001134101970000000201000000000000000000000233110000000000000000000000000000000000000000000000000000000000000000000000000000000000000000000000000000000000000000000000000000000000
000001134101990000000201000000004198600000000027540000000000000000000001592100000000241610000000008054000000000000000000000161070000000078438000000002099200000000479250000000057831
000001134101990100000201000000000826200000000027540000000000000000000000550800000000000000000000000000000000000000000000000000000000000000000000000000000000000000000000000000000000
000001134101990200000201000000002331100000000000000000000000000000000000000000000000000000000000000000000000000000000000000000000000000000000000000000000000000000000000000000000000
000001134101990300000201000000001041300000000000000000000000000000000001041300000000000000000000000000000000000000000000000000000000000000000000000000000000000000000000000000000000
000001134101990400000201000000000000000000000000000000000000000000000000000000000000241610000000008054000000000000000000000161070000000000000000000000000000000000000000000000000000
000001134101990500000201000000000000000000000000000000000000000000000000000000000000000000000000000000000000000000000000000000000000000032681000000000000000000000002190000000032900
000001134101990600000201000000000000000000000000000000000000000000000000000000000000000000000000000000000000000000000000000000000000000024765000000000000000000000001660000000024931
000001134101990700000201000000000000000000000000000000000000000000000000000000000000000000000000000000000000000000000000000000000000000010496000000001049600000000000000000000000000
000001134101990800000201000000000000000000000000000000000000000000000000000000000000000000000000000000000000000000000000000000000000000010496000000001049600000000000000000000000000
000001134101990900000201000000000000000000000000000000000000000000000000000000000000000000000000000000000000000000000000000000000000000000000000000000000000000000475400000000000000
000001135000000000000201000000000000000000000000000000000000000000000000000000000000000000000000182227000000000000000000000000000000000000000000000000000000000000000000000000000000
000001135100000000000201000000000000000000000000000000000000000000000000000000000000000000000000182227000000000000000000000000000000000000000000000000000000000000000000000000000000
000001135102000000000201000000000000000000000000000000000000000000000000000000000000000000000000182227000000000000000000000000000000000000000000000000000000000000000000000000000000
000001135102020000000201000000000000000000000000000000000000000000000000000000000000000000000000040000000000000000000000000000000000000000000000000000000000000000000000000000000000
000001135102030000000201000000000000000000000000000000000000000000000000000000000000000000000000032227000000000000000000000000000000000000000000000000000000000000000000000000000000
000001135102040000000201000000000000000000000000000000000000000000000000000000000000000000000000070000000000000000000000000000000000000000000000000000000000000000000000000000000000
000001135102080000000201000000000000000000000000000000000000000000000000000000000000000000000000040000000000000000000000000000000000000000000000000000000000000000000000000000000000
000001136000000000000201000007348681000000492328970000104631540000008924357100000519876290000066546331000005025979300000503762710000050954940000005031901300000892881290000114890758
000001136100000000000201000000739722000000073972200000006298221000000629822100000000125490000000012549000000000000000000000000000000000000000000000000000000000000000000000000000000
000001136101000000000201000000739722000000073972200000006298221000000629822100000000125490000000012549000000000000000000000000000000000000000000000000000000000000000000000000000000
000001136101010000000201000000739722000000073972200000006298221000000629822100000000125490000000012549000000000000000000000000000000000000000000000000000000000000000000000000000000
000001136200000000000201000006608959000000418356770000098333319000008294535000000519750800000066533782000005025979300000503762710000050954940000005031901300000892881290000114890758
000001136201000000000201000003896796100000165632890000061666338000004442912800000519750800000066533782000005025979300000503762710000050954940000005031901300000892881290000114890758
000001136201010000000201000000000000000000000000000000036924137000001023638800000371300780000045257564000003720456700000372814490000037723018000003725223300000694751030000088429269
000001136201010100000201000000000000000000000000000000016103294000000000000000000162127640000024203908000001621384200000162630880000016455705000001625033600000376301820000045898455
000001136201010200000201000000000000000000000000000000020820843000001023638800000209173140000021053656000002099072500000210183610000021267313000002100189700000318449210000042530814
000001136201020000000201000003896796100000165632890000024742201000003419274000000148450020000021276218000001305522600000130948220000013231922000001306678000000198130260000026461489
000001136202000000000201000001342618800000134261880000000000000000000000000000000000000000000000000000000000000000000000000000000000000000000000000000000000000000000000000000000000
000001136202010000000201000001342618800000134261880000000000000000000000000000000000000000000000000000000000000000000000000000000000000000000000000000000000000000000000000000000000
000001136299000000000201000001369544100000118462000000036666981000003851622200000000000000000000000000000000000000000000000000000000000000000000000000000000000000000000000000000000
000001136299010000000201000001369544100000118462000000036666981000003851622200000000000000000000000000000000000000000000000000000000000000000000000000000000000000000000000000000000
000001138000000000000201000000006118400000000000000000000000000000000000000000000000000000000000597770000000000000000000000000000000000000000000000000000000000003679520000000000000
000001138100000000000201000000006118400000000000000000000000000000000000000000000000000000000000597770000000000000000000000000000000000000000000000000000000000003679520000000000000
000001138101000000000201000000000000000000000000000000000000000000000000000000000000000000000000000000000000000000000000000000000000000000000000000000000000000002988320000000000000
000001138107000000000201000000006118400000000000000000000000000000000000000000000000000000000000597770000000000000000000000000000000000000000000000000000000000000134600000000000000
000001138107010000000201000000000000000000000000000000000000000000000000000000000000000000000000597770000000000000000000000000000000000000000000000000000000000000000000000000000000
000001138107020000000201000000001518400000000000000000000000000000000000000000000000000000000000000000000000000000000000000000000000000000000000000000000000000000033400000000000000
000001138107030000000201000000004600000000000000000000000000000000000000000000000000000000000000000000000000000000000000000000000000000000000000000000000000000000101200000000000000
000001138199000000000201000000000000000000000000000000000000000000000000000000000000000000000000000000000000000000000000000000000000000000000000000000000000000000556600000000000000
000001140000000000000201000011223599300000508311190000079980613000003898708600001439730600000038194620000008368821000000500905210002220550967000212504719000001371060460000082802709
000001141000000000000201000011223599300000508311190000079980613000003898708600001439730600000038194620000008368821000000500905210002220550967000212504719000001371060460000082802709
000001141100000000000201000011223599300000508311190000079980613000003898708600001439730600000038194620000008368821000000500905210002220550967000212504719000001371060460000082802709
000001141109000000000201000011223599300000508311190000079980613000003898708600001439730600000038194620000008368821000000500905210002220550967000212504719000001371060460000082802709
000001141109060000000201000011223599300000508311190000079980613000003898708600001439730600000038194620000008368821000000500905210002220550967000212504719000001371060460000082802709
000001141109060100001201000001815577900000000000000000008058259000000000000000000298054480000000000000000000545805200000018024690000022370439000045454086100000000000000000000000000
000001141109060200001201000001664546100000000000000000005469027000000000000000000268253020000000000000000000424017200000022770410000028722162000031495281500000000000000000000000000
000001141109060300001201000000697402600000000000000000003067627000000000000000000112809820000000000000000000206435600000007088810000008436845000017371575600000000000000000000000000
000001141109060600001201000001083878300000000000000000004592597000000000000000000060245900000000000000000001195911000000000000000000005401462000051264294100000000000000000000000000
000001141109060800001201000000627235300000060086530000004759500000000000000000000125683500000000000000000000242184900000058638990000011109900000000000000000000036972000000002482200
000001141109060900001201000004734001700000388128920000054033603000003898708600000574683880000038194620000005754467100000394382310000056733438000064950233800000000000000000000000000
000001141109061000001201000000600957400000060095740000000000000000000000000000000000000000000000000000000000000000000000000000000000000000000000000000000000000000000000000000000000
000001141109061100001201000000000000000000000000000000000000000000000000000000000000000000000000000000000000000000000000000000000000121889633000000000000000000031808900000005000509
000001141109061200001201000000000000000000000000000000000000000000000000000000000000000000000000000000000000000000000000000000000000242556841000000000000000000046705920000006019130
000001141109061300001201000000000000000000000000000000000000000000000000000000000000000000000000000000000000000000000000000000000000425765277000001969247900001130320520000059919488
000001141109061400001201000000000000000000000000000000000000000000000000000000000000000000000000000000000000000000000000000000000000387289957000000000000000000042992900000000000000
000001141109061500001201000000000000000000000000000000000000000000000000000000000000000000000000000000000000000000000000000000000000380850146000000000000000000023864490000002752380
000001141109061600001201000000000000000000000000000000000000000000000000000000000000000000000000000000000000000000000000000000000000101165538000000000000000000017719330000002611856
000001141109061700001201000000000000000000000000000000000000000000000000000000000000000000000000000000000000000000000000000000000000428259329000000000000000000040676400000004017146
000001150000000000000201000000000000000000000000000000000000000000000000000000000000000000000000000000000000000000000000000000000000000000000000000000000000000000000000000000000000
000001156000000000000201000000000000000000000000000000000000000000000000000000000000000000000000000000000000000000000000000000000000000000000000000000000000000000000000000000000000
000001156100000000000201000000000000000000000000000000000000000000000000000000000000000000000000000000000000000000000000000000000000000000000000000000000000000000000000000000000000
000001156101000000000201000000000000000000000000000000000000000000000000000000000000000000000000000000000000000000000000000000000000000000000000000000000000000000000000000000000000
000001156102000000000201000000000000000000000000000000000000000000000000000000000000000000000000000000000000000000000000000000000000000000000000000000000000000000000000000000000000
000001156103000000000201000000000000000000000000000000000000000000000000000000000000000000000000000000000000000000000000000000000000000000000000000000000000000000000000000000000000
000001156105000000000201000000000000000000000000000000000000000000000000000000000000000000000000000000000000000000000000000000000000000000000000000000000000000000000000000000000000
000001156107000000000201000000000000000000000000000000000000000000000000000000000000000000000000000000000000000000000000000000000000000000000000000000000000000000000000000000000000
000001156109000000000201000000000000000000000000000000000000000000000000000000000000000000000000000000000000000000000000000000000000000000000000000000000000000000000000000000000000
000001158000000000000201000000000000000000000000000000000000000000000000000000000000000000000000000000000000000000000000000000000000000000000000000000000000000000000000000000000000
000001158100000000000201000000000000000000000000000000000000000000000000000000000000000000000000000000000000000000000000000000000000000000000000000000000000000000000000000000000000
000001158101000000000201000000000000000000000000000000000000000000000000000000000000000000000000000000000000000000000000000000000000000000000000000000000000000000000000000000000000
000001190000000000000201000000291253900000008352500000004188262000000581727600000057009210000006984574000000473882900000044478140000013446817000000585752000000069199470000013275229
000001191000000000000201000000000978400000003811980000000873835000000052469100000000000000000000308879000000107721200000006730940000000527586000000048582000000007873920000000451065
000001191100000000000201000000000978400000003811980000000873835000000052469100000000000000000000308879000000107721200000006730940000000527586000000048582000000007873920000000451065
000001192000000000000201000000008675500000000867550000000126827000000012682700000001380560000000138056000000020307400000002030740000000227612000000022761200000001763150000000176315
000001192100000000000201000000008675500000000867550000000126827000000012682700000001380560000000138056000000020307400000002030740000000227612000000022761200000001763150000000176315
000001192101000000000201000000008675500000000867550000000126827000000012682700000001380560000000138056000000020307400000002030740000000227612000000022761200000001763150000000176315
000001193000000000000201000000006600000000000272970000000100000000000001345800000000300000000000032624000000000000000000000351240000000000000000000003512400000000000000000000035124
000001193100000000000201000000006600000000000272970000000100000000000001345800000000300000000000032624000000000000000000000351240000000000000000000003512400000000000000000000035124
000001198000000000000201000000275000000000003400000000003087600000000515230000000055328650000006505015000000345854300000035365220000012691619000000510896400000059562400000012612725
000001198100000000000201000000275000000000003400000000003087600000000515230000000055328650000006505015000000345854300000035365220000012691619000000510896400000059562400000012612725
000001198101000000000201000000260000000000000000000000002600000000000390000000000029000000000002600000000000181000000000013000000000010091600000000390000000000041300000000008960000
000001198101010000000201000000260000000000000000000000002600000000000390000000000026000000000002600000000000130000000000013000000000005091600000000390000000000026000000000002600000
000001198101010100000201000000260000000000000000000000002600000000000390000000000026000000000002600000000000130000000000013000000000003900000000000390000000000026000000000002600000
000001198101010200000201000000000000000000000000000000000000000000000000000000000000000000000000000000000000000000000000000000000000001191600000000000000000000000000000000000000000
000001198101020000000201000000000000000000000000000000000000000000000000000000000003000000000000000000000000000000000000000000000000000000000000000000000000000000000000000000000000
000001198101020100000201000000000000000000000000000000000000000000000000000000000003000000000000000000000000000000000000000000000000000000000000000000000000000000000000000000000000
000001198101030000000201000000000000000000000000000000000000000000000000000000000000000000000000000000000000051000000000000000000000000000000000000000000000000015300000000001360000
000001198101030100000201000000000000000000000000000000000000000000000000000000000000000000000000000000000000051000000000000000000000000000000000000000000000000015300000000001360000
000001198101040000000201000000000000000000000000000000000000000000000000000000000000000000000000000000000000000000000000000000000000005000000000000000000000000000000000000005000000
000001198101040100000201000000000000000000000000000000000000000000000000000000000000000000000000000000000000000000000000000000000000005000000000000000000000000000000000000005000000
000001198103000000000201000000000000000000000000000000000000000000000000000000000000000000000000000000000000000000000000000000000000000000000000000000000000000000000000000000000000
000001198104000000000201000000000000000000000000000000000000000000000000000000000015174650000000093961000000078785100000013952220000002153175000000091212000000001781500000001944635
000001198104010000000201000000000000000000000000000000000000000000000000000000000009724540000000037160000000002141500000007664360000001638395000000051478000000000000000000001023185
000001198104020000000201000000000000000000000000000000000000000000000000000000000005450110000000056801000000076643600000006287860000000514780000000039734000000001781500000000921450
000001198105000000000201000000000000000000000000000000000000000000000000000000000000000000000000000000000000001939200000000000000000000000000000000000000000000000000000000000000000
000001198106000000000201000000000000000000000000000000000000000000000000000000000000000000000001851054000000000000000000000000000000000000000000000000000000000000000000000000000000
000001198107000000000201000000000000000000003400000000000000000000000000000000000000000000000000000000000000000000000000000000000000000000000000000000000000000000000000000000000000
000001198108000000000201000000000000000000000000000000000000000000000000000000000005100000000000000000000000051000000000005100000000000000000000000000000000000010200000000001530000
000001198110000000000201000000015000000000000000000000000300000000000000000000000003000000000001650000000000000000000000000000000000000000000000000000000000000000000000000000000000
000001198111000000000201000000000000000000000000000000000000000000000106930000000000000000000000000000000000000000000000000000000000000000000000000000000000000000000000000000000000
000001198112000000000201000000000000000000000000000000000187600000000018300000000003054000000000310000000000033130000000003313000000000296844000000029684400000001780900000000178090
000001198113000000000201000000000000000000000000000000000000000000000000000000000000000000000000000000000000000000000000000000000000000150000000000000000000000004500000000000000000
000001200000000000000201000043578440300004067122030000029573556000008093138100000212378430000090770238000004303673100000185195920000085824108000005278108700001184803140000075880073
000001210000000000000201000001534294300000089563480000007501761000000645571200000009503590000000702518000000098792400000000000000000000868583000000010000000000418712750000022767915
000001211000000000000201000001534294300000089563480000007461237000000011352800000009503590000000702518000000098792400000000000000000000868583000000010000000000418712750000022767915
000001211100000000000201000000775840700000089563480000007461237000000011352800000009503590000000702518000000098792400000000000000000000868583000000010000000000315109180000008670243
000001211104000000000201000000377260900000000233450000000555140000000000079900000005179690000000002518000000054272900000000000000000000440587000000010000000000004520320000008580356
000001211104010000000201000000377260900000000233450000000555140000000000079900000005179690000000002518000000054272900000000000000000000440587000000010000000000004520320000008580356
000001211104010500000201000000323331800000000000000000000469749000000000000000000004379500000000000000000000042858200000000000000000000365640000000000000000000003700260000007851470
000001211104010501000201000000323331800000000000000000000469749000000000000000000004379500000000000000000000042858200000000000000000000365640000000000000000000003700260000007851470
000001211104010700000201000000006197700000000007990000000010559000000000000000000000100450000000000000000000001462900000000000000000000008590000000010000000000000104050000000681328
000001211104010701000201000000006197700000000007990000000010559000000000000000000000100450000000000000000000001462900000000000000000000008590000000010000000000000104050000000681328
000001211104011000000201000000047694200000000225460000000074779000000000000000000000699390000000000000000000009950300000000000000000000066342000000000000000000000715850000000047558
000001211104011001000201000000047694200000000225460000000074779000000000000000000000699390000000000000000000009950300000000000000000000066342000000000000000000000715850000000047558
000001211104011100000201000000000037200000000000000000000000053000000000079900000000000350000000002518000000000001500000000000000000000000015000000000000000000000000160000000000000
000001211104011101000201000000000037200000000000000000000000053000000000079900000000000350000000002518000000000001500000000000000000000000015000000000000000000000000160000000000000
000001211105000000000201000000398579800000089330030000006906097000000011272900000004323900000000700000000000044519500000000000000000000427996000000000000000000004304260000000000000
000001211105300000000201000000163390800000000000000000006719473000000000000000000002504460000000000000000000025044600000000000000000000250445000000000000000000002504460000000000000
000001211105300100000201000000163390800000000000000000000123602000000000000000000001236020000000000000000000012360200000000000000000000123602000000000000000000001236020000000000000
000001211105300200000201000000000000000000000000000000006595871000000000000000000001268440000000000000000000012684400000000000000000000126843000000000000000000001268440000000000000
000001211105990000000201000000235189000000089330030000000186624000000011272900000001819440000000700000000000019474900000000000000000000177551000000000000000000001799800000000000000
000001211199000000000201000000000000000000000000000000000000000000000000000000000000000000000000000000000000000000000000000000000000000000000000000000000000000306284600000000089887
000001211199040000000201000000000000000000000000000000000000000000000000000000000000000000000000000000000000000000000000000000000000000000000000000000000000000042184940000000089887
000001211199040500000201000000000000000000000000000000000000000000000000000000000000000000000000000000000000000000000000000000000000000000000000000000000000000042184940000000000000
000001211199040900000201000000000000000000000000000000000000000000000000000000000000000000000000000000000000000000000000000000000000000000000000000000000000000000000000000000089887
000001211199050000000201000000000000000000000000000000000000000000000000000000000000000000000000000000000000000000000000000000000000000000000000000000000000000264099660000000000000
000001211200000000000201000000758453600000000000000000000000000000000000000000000000000000000000000000000000000000000000000000000000000000000000000000000000000103603570000014097672
000001211206000000000201000000758453600000000000000000000000000000000000000000000000000000000000000000000000000000000000000000000000000000000000000000000000000103603570000014097672
000001211206040000000201000000758453600000000000000000000000000000000000000000000000000000000000000000000000000000000000000000000000000000000000000000000000000103603570000014097672
000001211206040100000201000000758453600000000000000000000000000000000000000000000000000000000000000000000000000000000000000000000000000000000000000000000000000103603570000014097672
000001212000000000000201000000000000000000000000000000000040524000000634218400000000000000000000000000000000000000000000000000000000000000000000000000000000000000000000000000000000
000001212100000000000201000000000000000000000000000000000040524000000634218400000000000000000000000000000000000000000000000000000000000000000000000000000000000000000000000000000000
000001212198000000000201000000000000000000000000000000000040524000000634218400000000000000000000000000000000000000000000000000000000000000000000000000000000000000000000000000000000
000001212198990000000201000000000000000000000000000000000040524000000634218400000000000000000000000000000000000000000000000000000000000000000000000000000000000000000000000000000000
000001212198990100000201000000000000000000000000000000000040524000000634218400000000000000000000000000000000000000000000000000000000000000000000000000000000000000000000000000000000
000001212198990102000201000000000000000000000000000000000040524000000634218400000000000000000000000000000000000000000000000000000000000000000000000000000000000000000000000000000000
000001220000000000000201000000060417000000000000000000001205531000000000000000000012053480000001764742000000120454800000000000000000008132620000000000000000000018832060000009638000
000001221000000000000201000000060417000000000000000000001205531000000000000000000012053480000001764742000000120454800000000000000000008132620000000000000000000018832060000009638000
000001221100000000000201000000060417000000000000000000001205531000000000000000000012053480000001764742000000120454800000000000000000008132620000000000000000000018832060000009638000
000001221101000000000201000000060227400000000000000000001204548000000000000000000012045480000001764742000000120454800000000000000000001204548000000000000000000018832060000009638000
000001221101070000000201000000060227400000000000000000001204548000000000000000000012045480000001764742000000120454800000000000000000001204548000000000000000000018832060000009638000
000001221101070100000201000000060227400000000000000000001204548000000000000000000012045480000001764742000000120454800000000000000000001204548000000000000000000018832060000009638000
000001221102000000000201000000000189600000000000000000000000983000000000000000000000008000000000000000000000000000000000000000000000006928072000000000000000000000000000000000000000
000001221102010000000201000000000189600000000000000000000000983000000000000000000000008000000000000000000000000000000000000000000000006928072000000000000000000000000000000000000000
000001221102010100000201000000000189600000000000000000000000983000000000000000000000008000000000000000000000000000000000000000000000006928072000000000000000000000000000000000000000
000001221102010200000201000000000000000000000000000000000000000000000000000000000000000000000000000000000000000000000000000000000000000000000000000000000000000000000000000000000000
000001221102010300000201000000000000000000000000000000000000000000000000000000000000000000000000000000000000000000000000000000000000000000000000000000000000000000000000000000000000
000001221102010400000201000000000000000000000000000000000000000000000000000000000000000000000000000000000000000000000000000000000000000000000000000000000000000000000000000000000000
000001221102010500000201000000000000000000000000000000000000000000000000000000000000000000000000000000000000000000000000000000000000000000000000000000000000000000000000000000000000
000001230000000000000201000041983729000003977558550000020866264000007447566900000190821360000088302978000004084425900000185195920000076822905000005268108700000747258330000043474158
000001231000000000000201000003319767000000027975100000007831994000000052300000000098830270000002328496000002967944200000001439210000075257615000003386285100000394527840000023217267
000001231100000000000201000003319767000000027975100000007831994000000052300000000098830270000002328496000002967944200000001439210000075257615000003386285100000394527840000023217267
000001231101000000000201000000520995000000000887600000000239995000000000000000000033192720000000950532000000738924200000001190000000004233631000000184300000000281010120000012128495
000001231101020000000201000000000000000000000000000000000000000000000000000000000000295320000000029532000000000000000000000000000000000000000000000000000000000000000000000000000000
000001231101030000000201000000000000000000000000000000000069995000000000000000000000000000000000000000000000017044200000000000000000000000000000000000000000000009474950000000069995
000001231101040000000201000000178870000000000489000000000000000000000000000000000000000000000000000000000000000000000000000000000000000000000000000000000000000018885000000000000000
000001231101050000000201000000000000000000000000000000000000000000000000000000000008997400000000921000000000020180000000000000000000000005000000000000500000000006995170000000000000
000001231101060000000201000000000000000000000000000000000000000000000000000000000000000000000000000000000000000000000000000000000000000000000000000000000000000000100000000000000000
000001231101070000000201000000058750000000000000000000000000000000000000000000000000000000000000000000000000000000000000000000000000000526500000000000000000000004095000000000058500
000001231101090000000201000000000000000000000000000000000000000000000000000000000000000000000000000000000000000000000000000000000000000037665000000000000000000000000000000000000000
000001231101190000000201000000000000000000000000000000000000000000000000000000000000000000000000000000000000000000000000000000000000001800000000000000000000000120000000000000000000
000001231101200000000201000000000000000000000000000000000000000000000000000000000023900000000000000000000000696900000000001190000000001819000000000183800000000120000000000012000000
000001231101210000000201000000003686000000000368600000000000000000000000000000000000000000000000000000000000000000000000000000000000000000000000000000000000000001460000000000000000
000001231101990000000201000000279689000000000030000000000170000000000000000000000000000000000000000000000000004800000000000000000000000045466000000000000000000000000000000000000000
000001231102000000000201000000000000000000008817910000000340850000000001200000000031495000000000000000000000000000000000000000000000012226945000000424241500000014445720000000268772
000001231102010000000201000000000000000000000000000000000328850000000000000000000031495000000000000000000000000000000000000000000000009743945000000175941500000011606860000000236886
000001231102020000000201000000000000000000008817910000000012000000000001200000000000000000000000000000000000000000000000000000000000002483000000000248300000000002838860000000031886
000001231103000000000201000000006772000000004214500000001415049000000021100000000034142550000001377964000000000020000000000249210000003474617000000015592100000041192000000000000000
000001231103010000000201000000003386000000000000000000001204049000000000000000000000000000000000000000000000000020000000000249210000000077148000000000000000000016755500000000000000
000001231103020000000201000000000000000000000000000000000000000000000000000000000000000000000000000000000000000000000000000000000000000000000000000000000000000000938500000000000000
000001231103030000000201000000000000000000003875900000000000000000000000000000000034142550000001377964000000000000000000000000000000003314338000000007279000000018591000000000000000
000001231103040000000201000000003386000000000338600000000211000000000021100000000000000000000000000000000000000000000000000000000000000083131000000008313100000004907000000000000000
000001231104000000000201000000000000000000014055090000000300000000000030000000000000000000000000000000000000000000000000000000000000000162422000000004151500000003780000000000000000
000001231104050000000201000000000000000000000000000000000000000000000000000000000000000000000000000000000000000000000000000000000000000162422000000004151500000003780000000000000000
000001231104060000000201000000000000000000000000000000000300000000000030000000000000000000000000000000000000000000000000000000000000000000000000000000000000000000000000000000000000
000001231104990000000201000000000000000000014055090000000000000000000000000000000000000000000000000000000000000000000000000000000000000000000000000000000000000000000000000000000000
000001231105000000000201000002792000000000000000000000005536100000000000000000000000000000000000000000000002229000000000000000000000055160000000002758000000000054100000000010820000
000001231105010000000201000000000000000000000000000000000000000000000000000000000000000000000000000000000002229000000000000000000000027580000000002758000000000000000000000000000000
000001231105030000000201000002792000000000000000000000005536100000000000000000000000000000000000000000000000000000000000000000000000027580000000000000000000000054100000000010820000
000001231199000000000201000000000000000000000000000000000000000000000000000000000000000000000000000000000000000000000000000000000000000000000000000000000000000000000000000000000000
000001231199010000000201000000000000000000000000000000000000000000000000000000000000000000000000000000000000000000000000000000000000000000000000000000000000000000000000000000000000
000001232000000000000201000038663962000003779253180000013034270000005633903700000085406360000068060347000001116481700000000000000000001565290000000000000000000352616710000000416428
000001232100000000000201000038663962000003779253180000013034270000005633903700000085406360000068060347000001116481700000000000000000001565290000000000000000000352616710000000416428
000001232101000000000201000023203798200000270000000000000000000000005593903700000000000000000067017930000000000000000000000000000000000000000000000000000000000136125990000000000000
000001232101030000000201000020503798200000270000000000000000000000000000000000000000000000000000000000000000000000000000000000000000000000000000000000000000000000000000000000000000
000001232101040000000201000002700000000000000000000000000000000000005593903700000000000000000067017930000000000000000000000000000000000000000000000000000000000136125990000000000000
000001232104000000000201000000000000000002050379820000000000000000000000000000000000000000000000000000000000000000000000000000000000000000000000000000000000000000000000000000000000
000001232104010000000201000000000000000002050379820000000000000000000000000000000000000000000000000000000000000000000000000000000000000000000000000000000000000000000000000000000000
000001232105000000000201000000000000000000000000000000000000000000000000000000000000000000000000000000000000000000000000000000000000000000000000000000000000000000000000000000000000
000001232105010000000201000000000000000000000000000000000000000000000000000000000000000000000000000000000000000000000000000000000000000000000000000000000000000000000000000000000000
000001232105020000000201000000000000000000000000000000000000000000000000000000000000000000000000000000000000000000000000000000000000000000000000000000000000000000000000000000000000
000001232106000000000201000014588733600000017887000000002223691000000040000000000004722090000000000000000000071469100000000000000000000000000000000000000000000149999120000000416428
000001232106010000000201000014588733600000017887000000002223691000000040000000000004722090000000000000000000071469100000000000000000000000000000000000000000000149999120000000416428
000001232106010100000201000000000000000000000000000000000000000000000000000000000000000000000000000000000000000000000000000000000000000000000000000000000000000000000000000000000000
000001232106010200000201000000000000000000000000000000000000000000000000000000000000000000000000000000000000000000000000000000000000000000000000000000000000000000000000000000000000
000001232106010300000201000000000000000000000000000000000000000000000000000000000000000000000000000000000000000000000000000000000000000000000000000000000000000000000000000000000000
000001232106010400000201000000000000000000000000000000000000000000000000000000000000000000000000000000000000000000000000000000000000000000000000000000000000000000000000000000000000
000001232106010500000201000000000000000000000000000000001889966000000040000000000000000000000000000000000000000000000000000000000000000000000000000000000000000000000000000000000000
000001232106010600000201000000000000000000000000000000000000000000000000000000000000000000000000000000000000000000000000000000000000000000000000000000000000000000000000000000000000
000001232106010700000201000001779065700000000000000000000000000000000000000000000000000000000000000000000000000000000000000000000000000000000000000000000000000000000000000000000000
000001232106010800000201000001689121600000000000000000000000000000000000000000000000000000000000000000000000000000000000000000000000000000000000000000000000000054103150000000000000
000001232106010900000201000002842521300000000000000000000000000000000000000000000000000000000000000000000000000000000000000000000000000000000000000000000000000000000000000000000000
000001232106011000000201000001372020200000000000000000000000000000000000000000000000000000000000000000000000000000000000000000000000000000000000000000000000000000000000000000000000
000001232106011100000201000006727134800000000000000000000000000000000000000000000000000000000000000000000000000000000000000000000000000000000000000000000000000000000000000000000000
000001232106011200000201000000178870000000017887000000000000000000000000000000000000000000000000000000000000000000000000000000000000000000000000000000000000000018885000000000000000
000001232106011300000201000000000000000000000000000000000000000000000000000000000004722090000000000000000000071469100000000000000000000000000000000000000000000000000000000000000000
000001232106011400000201000000000000000000000000000000000333725000000000000000000000000000000000000000000000000000000000000000000000000000000000000000000000000000000000000000000000
000001232106011700000201000000000000000000000000000000000000000000000000000000000000000000000000000000000000000000000000000000000000000000000000000000000000000041162470000000000000
000001232106011800000201000000000000000000000000000000000000000000000000000000000000000000000000000000000000000000000000000000000000000000000000000000000000000035848500000000416428
000001232107000000000201000000871430200001440986360000010810579000000000000000000080684270000001042417000001045012600000000000000000001565290000000000000000000066491600000000000000
000001232107010000000201000000000000000000177906570000000000000000000000000000000000000000000000000000000000000000000000000000000000000000000000000000000000000000000000000000000000
000001232107030000000201000000000000000000168912160000003187895000000000000000000032932480000001042417000000000000000000000000000000001565290000000000000000000006988800000000000000
000001232107060000000201000000661637700000284252130000004356240000000000000000000018137470000000000000000000000000000000000000000000000000000000000000000000000000000000000000000000
000001232107070000000201000000209792500000137202020000003266444000000000000000000017027770000000000000000000193479500000000000000000000000000000000000000000000023574000000000000000
000001232107080000000201000000000000000000000000000000000000000000000000000000000012586550000000000000000000851533100000000000000000000000000000000000000000000000000000000000000000
000001232107090000000201000000000000000000000000000000000000000000000000000000000000000000000000000000000000000000000000000000000000000000000000000000000000000035928800000000000000
000001232107990000000201000000000000000000672713480000000000000000000000000000000000000000000000000000000000000000000000000000000000000000000000000000000000000000000000000000000000
000001232199000000000201000000000000000000000000000000000000000000000000000000000000000000000000000000000000000000000000000000000000000000000000000000000000000000000000000000000000
000001232199050000000201000000000000000000000000000000000000000000000000000000000000000000000000000000000000000000000000000000000000000000000000000000000000000000000000000000000000
000001232199050100000201000000000000000000000000000000000000000000000000000000000000000000000000000000000000000000000000000000000000000000000000000000000000000000000000000000000000
000001232199050102000201000000000000000000000000000000000000000000000000000000000000000000000000000000000000000000000000000000000000000000000000000000000000000000000000000000000000
000001232199050104000201000000000000000000000000000000000000000000000000000000000000000000000000000000000000000000000000000000000000000000000000000000000000000000000000000000000000
000001232199050105000201000000000000000000000000000000000000000000000000000000000000000000000000000000000000000000000000000000000000000000000000000000000000000000000000000000000000
000001238000000000000201000000000000000000170330270000000000000000001761363200000006584730000017914135000000000000000000183756710000000000000000001881823600000000113780000019840463
000001238100000000000201000000000000000000170330270000000000000000001761363200000006584730000017914135000000000000000000183756710000000000000000001881823600000000113780000019840463
000001238101000000000201000000000000000000163921390000000000000000001697274400000006584730000017273247000000000000000000177347830000000000000000001817734800000000113780000019199575
000001238101010000000201000000000000000000056518130000000000000000000565747300000000997750000005677677000000000000000000058319060000000000000000000586082500000000000000000006007409
000001238101020000000201000000000000000000011552300000000000000000000116126500000000000000000001613673000000000000000000011644040000000000000000000148323200000000000000000001703553
000001238101030000000201000000000000000000005628930000000000000000000057420200000005586980000000382845000000000000000000007689060000000000000000000084433200000000000000000000923161
000001238101040000000201000000000000000000000970460000000000000000000009704600000000000000000000097046000000000000000000000970460000000000000000000010462300000000000000000000114215
000001238101050000000201000000000000000000087804450000000000000000000933804600000000000000000009357294000000000000000000097278130000000000000000000988433600000000113780000010428481
000001238101990000000201000000000000000000001447120000000000000000000014471200000000000000000000144712000000000000000000001447080000000000000000000000000000000000000000000000022756
000001238102000000000201000000000000000000006408880000000000000000000064088800000000000000000000640888000000000000000000006408880000000000000000000064088800000000000000000000640888
000001238102010000000201000000000000000000006408880000000000000000000064088800000000000000000000640888000000000000000000006408880000000000000000000064088800000000000000000000640888
000001238102010100000201000000000000000000006408880000000000000000000064088800000000000000000000640888000000000000000000006408880000000000000000000064088800000000000000000000640888
000002000000000000000201001179246725200118281683560002650028114000312956204600005465765400000534889716000057770684800005474084060000512107037000053045021100050104362860005324697348
000002100000000000000201000039975277300004278693410000472126142000048633533600005054111280000507213773000056239128400005310677220000512107037000051714638200008681326310000814371343
000002110000000000000201000025750810800002791042490000229075228000024560037400002753253740000268615231000027288141500002687760370000234532875000024803756000004947944200000441072335
000002111000000000000201000016787736900001684784530000148388524000016358031600001933445310000186407665000017332702400001838785290000151693126000016504801900003460016340000300646977
000002111100000000000201000016787736900001684784530000148388524000016358031600001933445310000186407665000017332702400001838785290000151693126000016504801900003460016340000300646977
000002111101000000000201000016787736900001684784530000148388524000016335996200001485360590000163797953000014719460500001608605420000151693126000016504801900003460016340000282071859
000002111101010000000201000013728304600001376203760000143171114000014311554900001451115800000145111580000014395402900001436722640000145530697000014553069700001701781290000170178129
000002111101010200000201000013728304600001376203760000143171114000014311554900001451115800000145111580000014395402900001436722640000145530697000014553069700001701781290000170178129
000002111101020000000201000000005184400000124558460000000637666000001269707200000000639090000012856795000000014813400000129067180000000971024000001297667500001685715190000106550990
000002111101020100000201000000005184400000124558460000000390968000001245037400000000639090000012856795000000014813400000129067180000000971024000001297667500000895667810000027546252
000002111101020200000201000000000000000000000000000000000246698000000024669800000000000000000000000000000000000000000000000000000000000000000000000000000000000790047380000079004738
000002111101030000000201000003054247900000184022310000004579744000000754734100000033605700000005829578000000309244200000042815600000005191405000000654064700000072519860000005342740
000002111101030100000201000001535703300000032167850000002371320000000533891700000017761480000004245156000000161698900000028061070000003405768000000475501000000037138230000001804577
000002111101030200000201000001518544600000151854460000002208424000000220842400000015844220000001584422000000147545300000014754530000001785637000000178563700000035381630000003538163
000002111105000000000201000000000000000000000000000000000000000000000022035400000448084720000022609712000002613241900000230179870000000000000000000000000000000000000000000018575118
000002111105030000000201000000000000000000000000000000000000000000000022035400000448084720000022609712000002613241900000230179870000000000000000000000000000000000000000000018575118
000002111105030100000201000000000000000000000000000000000000000000000022035400000224042360000000160158000000000000000000000000000000000000000000000000000000000000000000000000000000
000002111105030200000201000000000000000000000000000000000000000000000000000000000000000000000000045318000000434484900000012304170000000000000000000000000000000000000000000000000000
000002111105030300000201000000000000000000000000000000000000000000000000000000000000000000000000000000000000000000000000000000000000000000000000000000000000000000000000000002349879
000002111105030400000201000000000000000000000000000000000000000000000000000000000000000000000000000000000000000000000000000000000000000000000000000000000000000000000000000002204877
000002111105030500000201000000000000000000000000000000000000000000000000000000000000000000000000000000000000000000000000000000000000000000000000000000000000000000000000000002349879
000002111105030600000201000000000000000000000000000000000000000000000000000000000000000000000000000000000000000000000000000000000000000000000000000000000000000000000000000011670483
000002111105039900000201000000000000000000000000000000000000000000000000000000000224042360000022404236000002178757000000217875700000000000000000000000000000000000000000000000000000
000002112000000000000201000003868069400000386834800000038407086000003855135600000378155220000037881354000005482609700000401961520000038264650000003826465000000589565440000058956544
000002112100000000000201000003868069400000386834800000038407086000003855135600000378155220000037881354000005482609700000401961520000038264650000003826465000000589565440000058956544
000002112101000000000201000003867289200000386728920000038407086000003855135600000378155220000037671252000003916089800000391608980000038264650000003826465000000589565440000058956544
000002112101020000000201000003867289200000386728920000038407086000003855135600000378155220000037671252000003916089800000391608980000038264650000003826465000000589565440000058956544
000002112105000000000201000000000780200000000105880000000000000000000000000000000000000000000000210102000001566519900000010352540000000000000000000000000000000000000000000000000000
000002112105030000000201000000000780200000000105880000000000000000000000000000000000000000000000210102000001566519900000010352540000000000000000000000000000000000000000000000000000
000002112105030100000201000000000780200000000105880000000000000000000000000000000000000000000000210102000001566519900000010352540000000000000000000000000000000000000000000000000000
000002114000000000000201000005095004500000719423160000042279618000004346870200000441653210000044326212000004472829400000447013560000044575099000004472489100000898362420000081468814
000002114200000000000201000004778746000000656743810000035975004000003679355300000372061380000036988666000003713668100000370594120000037106929000003757771400000751455940000070361752
000002114201000000000201000002093508400000388220050000035975004000003679355300000372061380000036988666000003713668100000370594120000037106929000003757771400000751455940000056264080
000002114201020000000201000002093508400000388220050000035975004000003679355300000372061380000036988666000003713668100000370594120000037106929000003757771400000751455940000056264080
000002114202000000000201000002685237600000268523760000000000000000000000000000000000000000000000000000000000000000000000000000000000000000000000000000000000000000000000000014097672
000002114202010000000201000002685237600000268523760000000000000000000000000000000000000000000000000000000000000000000000000000000000000000000000000000000000000000000000000014097672
000002114202010100000201000002685237600000268523760000000000000000000000000000000000000000000000000000000000000000000000000000000000000000000000000000000000000000000000000014097672
000002114202010101000201000001342618800000134261880000000000000000000000000000000000000000000000000000000000000000000000000000000000000000000000000000000000000000000000000014097672
000002114202010102000201000001342618800000134261880000000000000000000000000000000000000000000000000000000000000000000000000000000000000000000000000000000000000000000000000000000000
000002114300000000000201000000316258500000062679350000006304614000000667514900000069591830000007337546000000759161300000076419440000007468170000000714717700000146906480000011107062
000002114301000000000201000000287018800000057165520000005788803000000601540400000061820190000006676420000000705281000000071378250000006975080000000667411900000139503580000010598938
000002114301010000000201000000287018800000057165520000005552953000000577955400000061820190000006094291000000589487700000058563370000005914740000000593616600000120321730000009064050
000002114301010200000201000000287018800000057165520000005552953000000577955400000061820190000006094291000000589487700000058563370000005914740000000593616600000120321730000009064050
000002114301030000000201000000000000000000000000000000000235850000000023585000000000000000000000582129000000115793300000012814880000001060340000000073795300000019181850000001534888
000002114301030200000201000000000000000000000000000000000235850000000023585000000000000000000000582129000000115793300000012814880000001060340000000073795300000019181850000001534888
000002114305000000000201000000029239700000005513830000000515811000000065974500000007771640000000661126000000053880300000005041190000000493090000000047305800000007402900000000508124
000002114305020000000201000000029239700000005513830000000515811000000065974500000007771640000000661126000000053880300000005041190000000493090000000047305800000007402900000000508124
000002130000000000000201000007328411400000763961490000141777078000013895872900001414236910000159974224000021358861000001894362010000207063416000019919150700002751543020000276950790
000002131000000000000201000007328411400000763961490000141777078000013895872900001414236910000159974224000021358861000001894362010000207063416000019919150700002751543020000276950790
000002131100000000000201000007328411400000763961490000141777078000013895872900001414236910000159974224000021358861000001894362010000207063416000019919150700002751543020000276950790
000002131101000000000201000007328411400000763961490000141777078000013895872900001414236910000159950551000021181108800001892971840000207063416000019919150700002751543020000276950790
000002131101010000000201000007145067600000763961490000141777078000013895872900001414236910000159950551000021181108800001892971840000207063416000019919150700002751543020000276950790
000002131101010100000201000005211320600000566132950000123417230000012776626500001347424430000154954526000020309151600001873623890000206208260000019833635100002722986630000274593390
000002131101010200000201000001933747000000197828540000018359848000001119246400000066812480000004996025000000871957200000019347950000000855156000000085515600000028556390000002357400
000002131101010203000201000000000000000000000000000000000000000000000000000000000000000000000000000000000000000000000000000000000000000000000000000000000000000004982390000000000000
000002131101010208000201000000338800000000000000000000003388000000000000000000000033880000000000000000000000508200000000000000000000000000000000000000000000000000000000000000000000
000002131101010211000201000001594947000000197828540000014971848000001119246400000032932480000004996025000000363757200000019347950000000855156000000085515600000023574000000002357400
000002131101840000000201000000183343800000000000000000000000000000000000000000000000000000000000000000000000000000000000000000000000000000000000000000000000000000000000000000000000
000002131106000000000201000000000000000000000000000000000000000000000000000000000000000000000000023673000000177752200000001390170000000000000000000000000000000000000000000000000000
000002131106030000000201000000000000000000000000000000000000000000000000000000000000000000000000023673000000177752200000001390170000000000000000000000000000000000000000000000000000
000002131106030100000201000000000000000000000000000000000000000000000000000000000000000000000000012549000000095347100000000911040000000000000000000000000000000000000000000000000000
000002131106030200000201000000000000000000000000000000000000000000000000000000000000000000000000011124000000082405100000000479130000000000000000000000000000000000000000000000000000
000002140000000000000201000000556849100000066006840000003517509000000415621700000047316600000005211178000000514959900000040750820000003759085000000437167600000053854490000005502132
000002141000000000000201000000556849100000066006840000003517509000000415621700000047316600000005211178000000514959900000040750820000003759085000000437167600000053854490000005502132
000002141300000000000201000000556849100000066006840000003517509000000415621700000047316600000005211178000000514959900000040750820000003759085000000437167600000053854490000005502132
000002141311000000000201000000556849100000066006840000003517509000000415621700000047316600000005211178000000514959900000040750820000003759085000000437167600000053854490000005502132
000002141311010000000201000000232233100000023223310000000000000000000000000000000000000000000000000000000000000000000000000000000000000000000000000000000000000004521500000000452150
000002141311020000000201000000324616000000042783530000003517509000000415621700000047316600000005211178000000514959900000040750820000003759085000000437167600000049332990000005049982
000002150000000000000201000001612521500000251290600000054272858000005471880200000378979120000028447682000002282115100000228211510000022518268000002251826800000305450430000030545043
000002150400000000000201000001612521500000251290600000054272858000005471880200000378979120000028447682000002282115100000228211510000022518268000002251826800000305450430000030545043
000002150401000000000201000001612521500000251290600000054272858000005471880200000378979120000028447682000002282115100000228211510000022518268000002251826800000305450430000030545043
000002150401010000000201000001612521500000251290600000054272858000005471880200000378979120000028447682000002282115100000228211510000022518268000002251826800000305450430000030545043
000002150401010100000201000001612521500000251290600000054272858000005471880200000378979120000028447682000002282115100000228211510000022518268000002251826800000305450430000030545043
000002180000000000000201000004726684500000406391990000043483469000004290121400000460324910000044965458000004795050900000459592510000044233393000004302737100000622534170000060301043
000002188000000000000201000003040683800000384147700000038165746000003866887100000400409600000039867949000004082024700000407811750000040019254000004013019600000581372540000049727338
000002188100000000000201000002300961800000246966470000025416179000002561984000000268320320000026679315000002709122800000270516240000026769086000002679314500000314513600000029728932
000002188101000000000201000002285335600000245403850000025263925000002546758600000266797780000026527061000002698080100000269411970000026611696000002663575500000312081810000029485753
000002188101020000000201000000212945100000038164800000004121517000000432517800000045538210000004401104000000441052000000043709160000003824479000000384853800000083044780000006582050
000002188101020100000201000000009362100000000936210000000608452000000060845200000007865010000000786501000000085205900000008520590000000355290000000035529000000013804320000001380432
000002188101020200000201000000000000000000000000000000000007135000000001389100000000167140000000020156000000002846500000000276620000000039150000000002975500000000390460000000039046
000002188101020300000201000000000000000000000000000000000000000000000000000000000000000000000000020900000000002090000000000104500000000024200000000002420000000000137500000000003300
000002188101020400000201000000183883400000035258630000003292945000000348985000000036763280000003499269000000339969900000033713480000003377619000000341107300000068064210000005094443
000002188101021000000201000000012776500000001277650000000105193000000010519300000000742780000000074278000000000000000000000000000000000028220000000002822000000000000000000000000000
000002188101021100000201000000006923100000000692310000000107792000000010779200000000000000000000000000000000010939700000001093970000000000000000000000000000000000648290000000064829
000002188101100000000201000000100258500000010025850000000773659000000077365900000010238390000001023839000000109246000000010924600000001144748000000114474800000013827320000001382732
000002188101130000000201000000065211000000006521100000000645033000000064503300000006454730000000645473000000064112300000006411230000000638450000000063845000000006349620000000634962
000002188101150000000201000001906921000000190692100000019723716000001972371600000204566450000020456645000002083669800000208366980000021004019000002100401900000208860090000020886009
000002188104000000000201000000015626200000001562620000000152254000000015225400000001522540000000152254000000011042700000001104270000000157390000000015739000000002431790000000243179
000002188104990000000201000000015626200000001562620000000152254000000015225400000001522540000000152254000000011042700000001104270000000157390000000015739000000002431790000000243179
