87612826000190010120183112201801012019PREFEITURA MUNICIPAL INDEPENDENCIA                                              
000001000000000000000201000215119132900019469000320001672372271000165039351700016372209370001629863077000190723611900018209001970001590834584000163669365600026353001310002698612580
000001100000000000000201000212390113900019393711990001664589089000164453506300016041833980001627183631000187181929200018070768700001426432291000146260833600023257531400002419472052
000001110000000000000201000174428043700016535939650001588344689000158721325500015412014660001546183904000175734500800017504163610001342878594000141817002300021043420660002262339266
000001111000000000000201000174428043700016535939650001588344689000158721325500015412014660001546183904000175734500800017504163610001342878594000141817002300021043420660002262339266
000001111100000000000201000174428043700016535939650001588344689000158721325500015412014660001546183904000175734500800017504163610001342878594000141817002300021043420660002262339266
000001111101000000000201000012751214300001273375870000138061314000013711035200001496057860000150646373000012949802600001294921720000131683137000013166716600001991637400000199270496
000001111106000000000201000029441242700002944124270000074792447000007479244700000728225020000072822502000007597199400000759719940000070505660000007050566000001262478050000126247805
000001111106010100001201000028891417200002889141720000074792447000007479244700000728225020000072822502000007045186900000704518690000070505660000007050566000001262478050000126247805
000001111106010200001201000000549825500000054982550000000000000000000000000000000000000000000000000000000000552012500000055201250000000000000000000000000000000000000000000000000000
000001111119000000000201000096044981300009986593180001037137757000103577959500010170562960001020934694000117000598800011689659980000908563046000090629350500014889050040001494537077
000001111119020000000201000072812949700007679544830000751738431000075300295300007222726230000723358423000086728940300008663555950000567606100000056722210300010438036330001045998413
000001111119020100000201000040652417100004065236320000466327619000046632815800003982154320000398215432000048629023300004862902330000283188166000028318816600005706750460000570675046
000001111119020200000201000013795014000001728468480000107060481000010706048100001275285500000127528550000016426986400001642698640000095968353000009596835300001533338230000153333823
000001111119020300000201000000070992800000007099280000000709928000000070992800000007099280000000709928000000070992800000007099280000000709928000000070992800000007099280000000709928
000001111119020400000201000000134468800000013446880000001384840000000138484000000012595970000001259597000000130666600000013066660000001289848000000128984800000014514220000001451422
000001111119020500000201000000000817700000000081770000000060516000000006051600000000477910000000047791000000005401400000000540140000004418184000000441818400000008211350000000821135
000001111119020600000201000000000000000000000000000000000000000000000000000000000000000000000000000000000000000000000000000000000000000000000000000000000000000040269990000004026999
000001111119020700000801000002250257400000225754620000040088985000004008898500000345611520000034561152000004059437100000405943710000034313455000003431345500000640907600000063955344
000001111119020900000201000000000000000000000000000000000000000000000000000000000000000000000000000000000000000000000000000000000000000000000000000000000000000013220000000001322000
000001111119021100000201000001630107700000163375210000027346061000002734606100000275954590000027595459000002435047600000243504760000014713103000001471310300000349168990000034880455
000001111119021200000201000000000000000000000000000000000955094000000095509400000016402210000001640221000000161942600000016194260000001880426000000188042600000020591060000002059106
000001111119021300000201000000428944600000042894460000006830270000000683027000000072736810000007273681000000636193600000063619360000006844838000000684483800000062315510000005462551
000001111119021400000201000000050312600000005031260000000469694000000000469600000000000000000000464998000000050315100000005031510000000526396000000000526300000000000000000000521133
000001111119021700000801000000000000000000000000000000000000000000000000000000000000000000000000000000000000000000000000000000000000000000000000000000000000000000149580000000014958
000001111119021800000501000000000000000000000000000000000000000000000000000000000000000000000000000000000000005400000000000540000000000000000000000000000000000001752590000000175259
000001111119021900000201000008476296000000889266150000081833288000008183328800000780508760000078050876000007425378900000742537890000077146389000007714638900001015671510000101567151
000001111119022100000201000000000000000000000000000000000497366000000049736600000006489790000000648979000000105707700000010570770000000802664000000080266400000019312630000001931263
000001111119022200000201000000000000000000000000000000000410880000000018573700000004108800000000333571000000041088000000004421310000000410880000000063950700000004108800000000706864
000001111119022300000201000000000000000000000000000000000271360000000009005200000002713600000000434797000000027136000000000623700000000271360000000023635800000002713600000000670809
000001111119022400000201000000000000000000000000000000000034560000000000000000000000345600000000000000000000003456000000000000000000000034560000000016412300000000345600000000229577
000001111119022500000501000000000000000000000000000000000000000000000000000000000000000000000000000000000000000000000000000000000000004188093000000418809300000000000000000000000000
000001111119022600000201000000028538800000002853880000002421174000000242117400000030009360000003000936000000057077600000005707760000002436216000000243621600000016792210000001679221
000001111119022700000201000000030226800000004457970000000287058000000028705800000002870580000000287058000000028705800000001435290000000143529000000028705800000004457970000000445797
000001111119022800000201000000000000000000000000000000000000000000000000000000000000000000000000000000000000016200000000001620000000000000000000000000000000000000000000000000000000
000001111119023000000201000000590169700000059016970000004578824000000457882400000120529780000012052978000001759535100000175953510000003039866000000303986600000056548660000005654866
000001111119023100000201000000283920000000041853280000002332200000000382527200000032448000000003244800000000314340000000031434000000003042000000000304200000000047658000000004765800
000001111119023200000201000000089200000000008920000000000669000000000111500000000008920000000000892000000000089200000000008920000000000892000000000089200000000008920000000000892000
000001111119023300000201000000191300000000022260000000001826000000000262600000000022260000000002226000000000222600000000022260000000002226000000000222600000000022260000000002226000
000001111119024200000201000000063202700000006320270000000884202000000088420200000007179140000000717914000000092463900000009246390000001011657000000101165700000011837570000001183757
000001111119024300000201000000000000000000000000000000000012720000000001272000000000451200000000045120000000001272000000000127200000000012720000000001272000000000629700000000062970
000001111119024700000801000000000000000000000000000000000000000000000000000000000000000000000000000000000000000000000000000000000000000000000000000000000000000006676000000000667600
000001111119024900000201000000000000000000000000000000000000000000000000000000000000000000000000000000000000061593000000006159300000000000000000000000000000000000000000000000000000
000001111119025100000201000000000000000000000000000000000000000000000000000000000000000000000000000000000000000000000000000000000000000000000000000000000000000003000000000000300000
000001111119025200000801000000000000000000000000000000000000000000000000000000000000000000000000000000000000000000000000000000000000000000000000000000000000000012000000000001200000
000001111119025300000201000000113489900000000000000000000577980000000000000000000005779800000001142214000000057798000000000000000000000467609000000013500000000037354450000006663263
000001111119025400000502000000000000000000000000000000000000000000000000000000000000000000000000000000000000000000000000000000000000000000000000000000000000000000378800000000037880
000001111119025600000701000000006728100000000672810000000000000000000000000000000000149190000000014919000000004383300000000438330000000003834000000000383400000000086880000000008688
000001111119025700000201000000000000000000000000000000000000000000000000000000000000000000000000000000000000214566100000021456610000003109700000000310970000000028605420000002860542
000001111119026000000201000000350366600000035036660000002613831000000261383100000024507030000002450703000000350672600000035067260000002855335000000285533500000130773750000013077375
000001111119026001000902000000120000000000012000000000000365223000000036522300000003128320000000312832000000030567900000003056790000000448690000000044869000000051210810000005121081
000001111119026002000902000000230366600000023036660000002248608000000224860800000021378710000002137871000000320104700000032010470000002406645000000240664500000077649030000007764903
000001111119026003000902000000000000000000000000000000000000000000000000000000000000000000000000000000000000000000000000000000000000000000000000000000000000000001913910000000191391
000001111119026100000201000000028600000000002860000000000154500000000015450000000006011870000000601187000000095584000000009558400000000910297000000091029700000008508170000000850817
000001111119026101000902000000028600000000002860000000000154500000000015450000000006011870000000601187000000095584000000009558400000000910297000000091029700000008508170000000850817
000001111119026200000201000000000000000000000000000000000000000000000000000000000001303210000000130321000000017370100000001737010000000000000000000000000000000015006280000001500628
000001111119026201000902000000000000000000000000000000000000000000000000000000000001303210000000130321000000017370100000001737010000000000000000000000000000000015006280000001500628
000001111119026300000201000000000000000000000000000000000000000000000000000000000000000000000000005000000000000000000000000000000000000000000000000000000000000000000000000000000000
000001111119026301000902000000000000000000000000000000000000000000000000000000000000000000000000005000000000000000000000000000000000000000000000000000000000000000000000000000000000
000001111119026400000202000000000000000000000000000000000000000000000000000000000000000000000000000000000000092425500000009242550000000000000000000000000000000000000000000000000000
000001111119026500000801000000046385600000004638560000001100000000000110000000000051582410000005158241000000389260200000038926020000001120000000000112000000000043079600000004307960
000001111119026600000801000000000000000000000000000000000000000000000000000000000056500000000005650000000000275240000000027524000000006790940000000679094000000112016000000011201600
000001111119026700000801000003500000000000350000000000000000000000000000000000000069740000000006974000000000304820000000030482000000008246300000000824630000000174501000000017450100
000001111119026800000801000000001192800000000000000000000000000000000000890000000000000000000000000000000000000000000000000000000000000000000000000000302800000000000000000000000000
000001111119026900000201000000000000000000000000000000000000000000000000000000000000000000000000000000000002069660000000206966000000004591454000000459145400000232504870000023250487
000001111119026901000201000000000000000000000000000000000000000000000000000000000000000000000000000000000000428160000000042816000000000000000000000000000000000003430000000000343000
000001111119026902000201000000000000000000000000000000000000000000000000000000000000000000000000000000000000907500000000090750000000000000000000000000000000000200869720000020086972
000001111119026903000501000000000000000000000000000000000000000000000000000000000000000000000000000000000000456000000000045600000000004591454000000459145400000000000000000000000000
000001111119026904000801000000000000000000000000000000000000000000000000000000000000000000000000000000000000278000000000027800000000000000000000000000000000000028205150000002820515
000001111119027000000801000000000000000000000000000000000000000000000000000000000000000000000000000000000000000000000000000000000000000000000000000000000000000008000000000000800000
000001111119027100000801000000000000000000000000000000000000000000000000000000000000000000000000000000000000000000000000000000000000000000000000000000000000000016000000000000396239
000001111119030000000201000002394786100000239478610000000258676000000025867600000131993900000013199390000002597551000000259755100000013455242000001345524200000108778340000010877834
000001111119030100001201000000549825500000054982550000000000000000000000000000000000000000000000000000000000552012500000055201250000000000000000000000000000000000000000000000000000
000001111119030200000902000000027578800000002757880000000258676000000025867600000002586760000000258676000000025538500000002553850000000250197000000025019700000002472080000000247208
000001111119031400000703000000000000000000000000000000000000000000000000000000000060840020000006084002000000000000000000000000000000003605045000000360504500000000000000000000000000
000001111119031600000702000000677381800000067738180000000000000000000000000000000022550650000002255065000000000000000000000000000000000000000000000000000000000024196040000002419604
000001111119031800000702000000000000000000000000000000000000000000000000000000000036394510000003639451000000000000000000000000000000000000000000000000000000000043949270000004394927
000001111119031900000702000000000000000000000000000000000000000000000000000000000008317980000000831798000000000000000000000000000000000000000000000000000000000038160950000003816095
000001111119032000001002000000975000000000097500000000000000000000000000000000000001115250000000111525000000000000000000000000000000000000000000000000000000000000000000000000000000
000001111119032100001002000000165000000000016500000000000000000000000000000000000000188730000000018873000000000000000000000000000000000000000000000000000000000000000000000000000000
000001111119032200001002000000000000000000000000000000000000000000000000000000000000000000000000000000000001950000000000195000000000009350000000000935000000000000000000000000000000
000001111119032300001002000000000000000000000000000000000000000000000000000000000000000000000000000000000000070000000000007000000000000250000000000025000000000000000000000000000000
000001111119120000000201000020837245500002067569740000285140650000028251796600002815842830000284376881000027674107500002766348930000327501704000032561616000004342235370000437660830
000001111119120100000801000001132483600000113248360000020501786000002050178600000297105750000029710575000002770511200000277051120000029473041000002947304100000356655130000035665513
000001111119120200000201000019509571500001935164120000228527389000023010669200002253182810000225318281000022299478900002229947890000261726335000026172633500003588220580000358822058
000001111119120300000201000000000724900000000000000000000007876000000000310400000000162180000000028239000000000534900000000000000000000006839000000000000000000000000000000000012188
000001111119120600000801000000000000000000000000000000000158178000000011073900000000000000000000047439000000000000000000000000000000000000000000000000000000000000000000000000000000
000001111119120700000201000000000000000000000000000000009838243000000655953800000084227700000011701475000001045492500000104549250000018644172000001536546700000142789590000017557664
000001111119120800000201000000055924900000005592490000010626879000001062687900000083507950000008350795000000640991500000064099150000014730296000001473029600000188562300000018856230
000001111119121000000801000000000000000000000000000000002900000000000200000000000014000000000002131624000000280000000000015683760000000000000000000140000000000014000000000001400000
000001111119121100000801000000099029500000009902950000001143188000000114318800000007873910000000787391000000077746700000007774670000000111621000000011162100000004000000000000400000
000001111119121200000801000000007559000000000755900000001082736000000108273600000004244560000000360500000000026412400000003280800000000000000000000000000000000004653450000000465345
000001111119121500000801000000000000000000000000000000005796351000000579635100000040317970000002818562000000242599400000036392290000001690000000000169000000000019804890000001980489
000001111119121600000801000000000000000000000000000000000000000000000000000000000016570000000001657000000000000000000000000000000000000000000000000000000000000000000000000000000000
000001111119121800000801000000000000000000000000000000001419600000000141960000000000000000000000000000000000000000000000000000000000000000000000000000000000000000000000000000000000
000001111119122800001004000000003790000000000155000000000187700000000021010000000001150000000000115000000000003900000000000390000000000180400000000018040000000001092000000000109200
000001111119123200000902000000000000000000000000000000000000000000000000000000000000000000000000000000000000014640000000000000000000000000000000000000000000000000000000000000146400
000001111119123500000504000000002509200000000250920000000617890000000061789000000000000000000000000000000000000000000000000000000000000000000000000000000000000000000000000000000000
000001111119123700000201000000000000000000000000000000000000000000000000000000000000000000000000000000000000000000000000000000000000000000000000000000000000000004867640000000486764
000001111119123800000201000000000000000000000000000000000200000000000020000000000000000000000000000000000000000000000000000000000000000000000000000000000000000011652100000001165210
000001111119123900000201000000000000000000000000000000000000000000000000000000000000000000000000000000000000000000000000000000000000000000000000000000000000000000443140000000044314
000001111119124200000801000000025652900000002500000000002132834000000213936300000013500000000001350000000000271800000000027180000000000939000000000093900000000004812780000000481278
000001111119124400000801000000000000000000000000000000000000000000000000000000000000000000000000000000000000000000000000000000000000000000000000000000000000000000681770000000068177
000001111150000000000201000036190605400002331846330000338353171000033953086100003017168820000301780335000038186900000003759861970000232126751000030970369200002900255170000442283888
000001111150020000000201000000067618000000181737990000000561587000000010071400000004130700000012940712000002513963300000101000000000000390111000001779649900000001910870000010630626
000001111150020800000801000000002837000000000000000000000023417000000000000000000000237500000000000000000000002362200000000000000000000021746000000000000000000000198990000000000000
000001111150021000000903000000001397000000000000000000000011659000000000000000000000115060000000000000000000001197500000000000000000000010560000000000000000000000098610000000000000
000001111150021200000703000000024039700000000000000000000212594000000000000000000001988760000006084000000000013668700000000000000000000106597000000360504500000000781140000000000000
000001111150021300000702000000012227300000067738170000000063549000000000000000000000472580000002255065000000003741100000000000000000000032668000000000000000000000201670000002419604
000001111150021400000702000000018971900000000000000000000248950000000000000000000001309920000003639451000000011141800000000000000000000097210000000000000000000000572210000004394927
000001111150021700000701000000000000000000000000000000000000000000000010071400000000000000000000831798000000000000000000000000000000000000000000000000000000000000000000000003816095
000001111150021800001001000000008145100000097499820000000001418000000000000000000000006880000000130398000000000000000000000000000000000000000000000000000000000000000000000000000000
000001111150021900001001000000000000000000016500000000000000000000000000000000000000000000000000000000000000000000000000000000000000000000000000000000000000000000000000000000000000
000001111150022000000501000000000000000000000000000000000000000000000000000000000000000000000000000000000000456861100000000000000000000022843000000459145400000000000000000000000000
000001111150022100001002000000000000000000000000000000000000000000000000000000000000000000000000000000000000975000000000000000000000000098106000000929971000000000058250000000000000
000001111150022200001002000000000000000000000000000000000000000000000000000000000000000000000000000000000000979990900000097500000000000000381000000005029000000000000000000000000000
000001111150022300001002000000000000000000000000000000000000000000000000000000000000000000000000000000000000035000000000000000000000000000000000000025000000000000000000000000000000
000001111150022400001002000000000000000000000000000000000000000000000000000000000000000000000000000000000000035000000000003500000000000000000000000000000000000000000000000000000000
000001111150030000000201000036122987400002150108340000337791584000033943014700003013038120000288839623000035672936700003658861970000231736640000029190719300002898344300000431653262
000001111150030100000201000018084175300001065569830000205940821000021923921100001371139620000135062118000018773801700002248926000000086436215000007386169200001257897020000169799407
000001111150030300000201000000430518400000000000000000003305677000000357766500000032671880000004037758000000328992800000030985480000002930874000000357355600000001620350000002973359
000001111150030400000201000000003024600000000000000000000025421000000000000000000000237050000000000000000000002490800000001620000000000020844000000000000000000000188640000000000000
000001111150030500000801000000000250800000000000000000000002046000000015817800000000000000000000000000000000000000000000000000000000000000000000000000000000000000000000000000000000
000001111150030600000201000009023830300000664946480000064591074000006583919500000966936420000077041729000007463519800000801605680000086918512000013239636100000816602680000127877455
000001111150030700000201000004091916400000381649390000046093455000003569350600000431226890000034196779000003876521700000358214170000039284180000003811213000000413879140000060366583
000001111150030800000201000000004099400000000000000000003300922000000328304000000099350730000001865360000000671315400000038975150000003379221000001208676200000032974120000007721549
000001111150030900000201000000000000000000000000000000000960731000000000000000000009687440000000685127000000048732100000006643320000000482262000000092533200000004797550000001104022
000001111150031000000201000000313087700000028618310000003124036000000153895800000031243640000009013112000001403178500000020554850000000130397000000000000000000006018540000002615000
000001111150031900000801000000004630700000000000000000002461315000000338000000000000064130000001604942000000242837200000000000000000000014795000000169000000000000001990000000753366
000001111150032000000801000000006815500000000000000000000065399000000000000000000000530590000001657000000000003313100000000000000000000026863000000000000000000000227920000000000000
000001111150033200000801000000033749900000000000000000000903417000000156501000000005408520000002430160000000058732500000000000000000000628282000000182009000000000027890000001063095
000001111150033400000801000000001964500000000755900000000414323000000068655000000000011890000000292394000000032865600000000000000000000003188000000000000000000000014390000000333283
000001111150033500000801000000041037000000005902950000000608220000000054318800000002053040000000587391000000040119000000003774670000000000433000000011162100000000000000000000000000
000001111150033600000801000000007521100000000000000000000072170000000000000000000000712030000000000000000000006472000000000000000000000052476000000000000000000000445220000000000000
000001111150034100000501000000000082600000000000000000000000758000000000000000000000006790000000000000000000005506100000000000000000000000764000000000000000000000001060000000121259
000001111150034200000503000000006441000000000000000000000060763000000000000000000000567940000000000000000000005166000000000000000000000012347000000418809300000000000000000000000000
000001111150034300000503000000000377400000000000000000000015929000000000000000000000161220000000032400000000001587200000000000000000000015708000000000000000000000155070000000050250
000001111150034400000503000000000767300000000000000000000248007000000001928600000004890630000000170899000000048918600000005789970000000485146000000032458400000002414660000001453183
000001111150034600000503000000000000000000000000000000000000000000000000000000000000000000000000000000000000000000000000000000000000000000000000000000000000000002169210000000000163
000001111150035000001004000000003962600000000100000000000234326000000002000000000001419300000000020000000000006432800000000000000000000190053000000001140000000001288380000000000000
000001111150035200000201000000001803600000000000000000000016577000000000000000000000148350000000000000000000062889900000000000000000000013052000000000000000000000097280000000000000
000001111150035300000801000000000316100000000000000000000002639000000000000000000000027060000000000000000000000266700000000000000000000002426000000000000000000000022370000000000000
000001111150035900000504000000003492400000000000000000000001846000000061789000000000000000000000000000000000000000000000000000000000000000000000000000000000000000000000000000000000
000001111150036000000201000000002236800000000000000000000021408000000000000000000000205200000000000000000000001922400000000000000000000015648000000000000000000003137160000000000000
000001111150036200000201000000000836700000000000000000000008029000000000000000000000079220000000000000000000000720000000000000000000000005839000000000000000000000029210000000486764
000001111150036300000201000000002368400000000000000000000022248000000020000000000000189920000000000000000000001726200000000000000000000013996000000000000000000000052240000001165210
000001111150036400000201000000000076100000000000000000000000731000000000000000000000007220000000000000000000000065500000000000000000000000532000000000000000000000002660000000044314
000001111150036600000201000000000000000000000000000000000000000000000000000000000000000000000000000000000000000000000000000000000000000000000000000000000000000050006170000002579485
000001111150036800000801000000000392400000002565290000001715979000000044313900000007339110000000630000000000138131200000013500000000000009983000000093900000000000022320000000481278
000001111150037200000201000000008659000000000000000000000081968000000000000000000000772330000000000000000000207076800000021456610000002050340000000310970000000025346820000002860542
000001111150037400000703000000000000000000000000000000000000000000000000000000000000000000000000000002000000000000000000000000000000000000000000000000000000000000000000000000000000
000001111150037500000201000000004972800000000000000000000047075000000000000000000000443550000000000000000000004074900000000000000000000032124000000000000000000000270150000000000000
000001111150037600000702000000000000000000000000010000000000000000000000000000000000000000000000000000000000000000000000000000000000000000000000000000000000000000000000000000000000
000001111150038000000201000000359898400000000000000000001007152000000261383100000012749360000002450703000000245429600000035067260000001831668000000285533500000098363030000002734514
000001111150038001000902000000122115600000000000000000000029384000000036522300000000219750000000312832000000001598800000003056790000000009250000000044869000000046148400000000321081
000001111150038002000902000000237533000000000000000000000975813000000224860800000012508800000002137871000000243617600000032010470000001820586000000240664500000052205700000002222042
000001111150038003000902000000000249800000000000000000000001955000000000000000000000020810000000000000000000000213200000000000000000000001832000000000000000000000008930000000191391
000001111150038100000201000000031146700000000000000000000169686000000001150000000003105320000000029187000000026868100000006689600000000154805000000062429700000002632900000000564817
000001111150038101000902000000031146700000000000000000000169686000000001150000000003105320000000029187000000026868100000006689600000000154805000000062429700000002632900000000564817
000001111150038200000201000000001259400000000000000000000011574000000000000000000000094700000000130321000000000783400000001728210000000004447000000000000000000012186670000000252040
000001111150038201000902000000001259400000000000000000000011574000000000000000000000094700000000130321000000000783400000001728210000000004447000000000000000000012186670000000252040
000001111150038400000202000000000185900000000000000000000001528000000000000000000000015590000000000000000000093122300000000000000000000010474000000000000000000000097000000000000000
000001111150038600000801000000000117200000000000000000000001125000000000000000000000011100000000000000000000000100800000000000000000000000818000000000000000000000004090000000068177
000001111150038700000801000000046530900000000000000000001133567000000000000000000009062210000004278241000000292551900000005325000000000897318000000024000000000040254010000003427960
000001111150038800000801000000051883400000000000000000000494124000000000000000000004596130000005650000000000133415500000027524000000002232654000000679094000000021563980000011201600
000001111150038900001002000000000000000000000000180000000000000000000000000000000000000000000000000000000000000000000000000000000000000000000000000000000000000000000000000000000000
000001111150039100000801000003548558700000000000000000000625518000000000000000000015872000000006974000000000245640100000030482000000003334493000000824630000000032344090000017450100
000001111150039300000201000000000000000000000000000000000000000000000000000000000000000000000000000000000000917586000000000000000000000095692000000000000000000063166290000009283972
000001111150039400000801000000000000000000000000000000000000000000000000000000000000000000000000000000000000280062500000000000000000000017771000000000000000000000021190000002820515
000001111150039500000801000000000000000000000000000000000000000000000000000000000000000000000000000000000000000000000000000000000000000000000000000000000000000008000840000000000000
000001120000000000000201000004013397700000133725120000000709179000001081307800000003850580000026654953000000038158800000031776430000001356205000000421575400000410627620000024803541
000001121000000000000201000004013397700000125435710000000000000000000736938600000000000000000021386194000000000000000000013845830000000000000000000084133300000144341310000010425717
000001121100000000000201000004013397700000001961950000000000000000000736938600000000000000000021386194000000000000000000013845830000000000000000000084133300000014694310000010425717
000001121101000000000201000004013397700000001961950000000000000000000736938600000000000000000021386194000000000000000000013845830000000000000000000083133800000014565110000010422792
000001121101050000000201000004013397700000001961950000000000000000000736938600000000000000000021386194000000000000000000013845830000000000000000000083133800000014565110000010422792
000001121102000000000201000000000000000000000000000000000000000000000000000000000000000000000000000000000000000000000000000000000000000000000000000000999500000000129200000000002925
000001121102010000000201000000000000000000000000000000000000000000000000000000000000000000000000000000000000000000000000000000000000000000000000000000999500000000129200000000002925
000001121200000000000201000000000000000000123473760000000000000000000000000000000000000000000000000000000000000000000000000000000000000000000000000000000000000129647000000000000000
000001121271000000000201000000000000000000123473760000000000000000000000000000000000000000000000000000000000000000000000000000000000000000000000000000000000000129647000000000000000
000001123000000000000201000000000000000000000000000000000000000000000000000000000000000000000000000000000000000000000000000000000000000000000000000000000000000000000000000000000000
000001123300000000000201000000000000000000000000000000000000000000000000000000000000000000000000000000000000000000000000000000000000000000000000000000000000000000000000000000000000
000001123308010000000201000000000000000000000000000000000000000000000000000000000000000000000000000000000000000000000000000000000000000000000000000000000000000000000000000000000000
000001125000000000000201000000000000000000008071420000000694967000000337979000000003619980000005221864000000038107300000017707160000001105953000000293772200000255026830000013442524
000001125100000000000201000000000000000000008071420000000694967000000337979000000003619980000005221864000000038107300000017707160000001105953000000293772200000255026830000013442524
000001125101000000000201000000000000000000007185390000000619116000000307360500000003060670000004933834000000027091200000015131620000001004102000000262535600000238937740000012742559
000001125101050000000201000000000000000000007185390000000619116000000306880500000003060670000002096287000000026581800000014944560000001004102000000258573900000183493970000010093758
000001125101050100000201000000000000000000007185390000000619116000000306880500000003060670000002096287000000026581800000014944560000001004102000000258573900000183493970000010093758
000001125101070000000201000000000000000000000000000000000000000000000000480000000000000000000002837547000000000509400000000187060000000000000000000003961700000055443770000002648801
000001125101070100000201000000000000000000000000000000000000000000000000480000000000000000000002837547000000000509400000000187060000000000000000000003961700000055443770000002648801
000001125102000000000201000000000000000000000886030000000075851000000030618500000000559310000000288030000000011016100000002575540000000101851000000031236600000016089090000000699965
000001125102010000000201000000000000000000000886030000000075851000000030618500000000559310000000288030000000011016100000002575540000000101851000000031236600000016014770000000692533
000001125102010100000201000000000000000000000886030000000075851000000030618500000000559310000000288030000000011016100000002575540000000101851000000031236600000016014770000000692533
000001125102020000000201000000000000000000000000000000000000000000000000000000000000000000000000000000000000000000000000000000000000000000000000000000000000000000074320000000007432
000001125102020100000201000000000000000000000000000000000000000000000000000000000000000000000000000000000000000000000000000000000000000000000000000000000000000000074320000000007432
000001126000000000000201000000000000000000000217990000000014212000000006390200000000230600000000046895000000000051500000000223440000000250252000000043669900000011259480000000935300
000001126100000000000201000000000000000000000217990000000014212000000006390200000000230600000000046895000000000051500000000223440000000250252000000043669900000011259480000000935300
000001126101000000000201000000000000000000000217990000000014212000000006390200000000230600000000046895000000000051500000000223440000000250252000000043669900000011259480000000935300
000001126101020000000201000000000000000000000217990000000014212000000006390200000000230600000000046895000000000051500000000223440000000250252000000043669900000011259480000000935300
000001130000000000000201000001340599400000122988450000006813352000000600538800000040341280000004145291000000466498800000046575820000002253442000000226577600000074448320000008370734
000001131000000000000201000001313070300000122107030000006651316000000596131600000039853720000004136531000000446342600000043122670000002017092000000201709200000072378480000008157848
000001131100000000000201000001313070300000122107030000006651316000000596131600000039853720000004136531000000446342600000043122670000002017092000000201709200000072378480000008157848
000001131101000000000201000001221070300000122107030000005731316000000573131600000039703720000003970372000000351990800000035199080000001298001000000129800100000072378480000007237848
000001131101010000000201000000091202200000009120220000003492078000000349207800000023481840000002348184000000214779300000021477930000000965418000000096541800000053710560000005371056
000001131101040000000201000001129868100000112986810000002239238000000223923800000016221880000001622188000000137211500000013721150000000332583000000033258300000018667920000001866792
000001131102000000000201000000092000000000000000000000000920000000000023000000000000150000000000166159000000094351800000007923590000000719091000000071909100000000000000000000920000
000001132000000000000201000000000000000000000000000000000000000000000000000000000000000000000000000000000000000000000000000000000000000000000000000000000000000000005070000000000000
000001132300000000000201000000000000000000000000000000000000000000000000000000000000000000000000000000000000000000000000000000000000000000000000000000000000000000005070000000000000
000001132303000000000201000000000000000000000000000000000000000000000000000000000000000000000000000000000000000000000000000000000000000000000000000000000000000000005070000000000000
000001134000000000000201000000011017800000000881420000000022036000000004407200000000487560000000008760000000012268400000000713240000000078594000000009092800000000487210000000055130
000001134100000000000201000000011017800000000881420000000022036000000004407200000000487560000000008760000000012268400000000713240000000078594000000009092800000000487210000000055130
000001134101040000000201000000004619100000000307940000000000000000000001539700000000000000000000000000000000000000000000000000000000000000000000000000000000000000000000000000000000
000001134101040400000201000000004619100000000307940000000000000000000001539700000000000000000000000000000000000000000000000000000000000000000000000000000000000000000000000000000000
000001134101050000000201000000000000000000000000000000000000000000000000000000000000000000000000000000000000001042700000000034750000000000000000000000695200000000000000000000000000
000001134101050200000201000000000000000000000000000000000000000000000000000000000000000000000000000000000000001042700000000034750000000000000000000000695200000000000000000000000000
000001134101080000000201000000000686100000000045740000000000000000000000228700000000000000000000000000000000000000000000000000000000000000000000000000000000000000000000000000000000
000001134101080100000201000000000686100000000045740000000000000000000000228700000000000000000000000000000000000000000000000000000000000000000000000000000000000000000000000000000000
000001134101090000000201000000001305500000000087030000000000000000000000435200000000000000000000000000000000000000000000000000000000000000000000000000000000000000000000000000000000
000001134101090100000201000000001305500000000087030000000000000000000000435200000000000000000000000000000000000000000000000000000000000000000000000000000000000000000000000000000000
000001134101100000000201000000000000000000000000000000000000000000000000000000000000131400000000004380000000000000000000000087600000000000000000000000000000000000000000000000000000
000001134101100100000201000000000000000000000000000000000000000000000000000000000000131400000000004380000000000000000000000087600000000000000000000000000000000000000000000000000000
000001134101110000000201000000000000000000000000000000000000000000000000000000000000312360000000000000000000000520600000000260300000000010412000000002082400000000000000000000000000
000001134101110100000201000000000000000000000000000000000000000000000000000000000000156180000000000000000000000520600000000208240000000010412000000001041200000000000000000000000000
000001134101110200000201000000000000000000000000000000000000000000000000000000000000156180000000000000000000000000000000000052060000000000000000000001041200000000000000000000000000
000001134101120000000201000000000000000000000000000000000000000000000000000000000000000000000000000000000000007399200000000000000000000011769000000001715200000000000000000000034304
000001134101120100000201000000000000000000000000000000000000000000000000000000000000000000000000000000000000007399200000000000000000000011769000000001715200000000000000000000034304
000001134101130000000201000000000000000000000000000000000000000000000000000000000000000000000000000000000000000000000000000000000000000015620000000001562000000000000000000000000000
000001134101130100000201000000000000000000000000000000000000000000000000000000000000000000000000000000000000000000000000000000000000000015620000000001562000000000000000000000000000
000001134101140000000201000000000000000000000000000000000000000000000000000000000000000000000000000000000000000000000000000000000000000010413000000000000000000000000000000000010413
000001134101140100000201000000000000000000000000000000000000000000000000000000000000000000000000000000000000000000000000000000000000000010413000000000000000000000000000000000010413
000001134101150000000201000000000000000000000000000000000000000000000000000000000000000000000000000000000000000000000000000000000000000000000000000000000000000000383080000000000000
000001134101150100000201000000000000000000000000000000000000000000000000000000000000000000000000000000000000000000000000000000000000000000000000000000000000000000383080000000000000
000001134101980000000201000000004407100000000440710000000022036000000002203600000000043800000000004380000000003305900000000330590000000030380000000003038000000000104130000000010413
000001135000000000000201000000016511300000000000000000000140000000000000000000000000000000000000000000000000007887800000002739910000000157756000000015775600000001577560000000157756
000001135100000000000201000000016511300000000000000000000140000000000000000000000000000000000000000000000000007887800000002739910000000157756000000015775600000001577560000000157756
000001135102000000000201000000016511300000000000000000000140000000000000000000000000000000000000000000000000000000000000001951130000000000000000000000000000000000000000000000000000
000001135102020000000201000000000000000000000000000000000000000000000000000000000000000000000000000000000000000000000000000000000000000000000000000000000000000000000000000000000000
000001135102030000000201000000000000000000000000000000000000000000000000000000000000000000000000000000000000000000000000000000000000000000000000000000000000000000000000000000000000
000001135102040000000201000000007000000000000000000000000000000000000000000000000000000000000000000000000000000000000000000000000000000000000000000000000000000000000000000000000000
000001135102050000000201000000009511300000000000000000000000000000000000000000000000000000000000000000000000000000000000000951130000000000000000000000000000000000000000000000000000
000001135102060000000201000000000000000000000000000000000020000000000000000000000000000000000000000000000000000000000000000200000000000000000000000000000000000000000000000000000000
000001135102070000000201000000000000000000000000000000000080000000000000000000000000000000000000000000000000000000000000000800000000000000000000000000000000000000000000000000000000
000001135102080000000201000000000000000000000000000000000040000000000000000000000000000000000000000000000000000000000000000000000000000000000000000000000000000000000000000000000000
000001135105000000000201000000000000000000000000000000000000000000000000000000000000000000000000000000000000007887800000000788780000000157756000000015775600000001577560000000157756
000001135105030000000201000000000000000000000000000000000000000000000000000000000000000000000000000000000000007887800000000788780000000157756000000015775600000001577560000000157756
000001140000000000000201000032469043400002594924330000065177292000004001252500000530140570000043849434000010597198500000400414390000064170052000003714587300000917057470000058728391
000001141000000000000201000032469043400002594924330000065177292000004001252500000530140570000043849434000010597198500000400414390000064170052000003714587300000917057470000058728391
000001141100000000000201000032469043400002594924330000065177292000004001252500000530140570000043849434000010597198500000400414390000064170052000003714587300000917057470000058728391
000001141109000000000201000032469043400002594924330000065177292000004001252500000530140570000043849434000010597198500000400414390000064170052000003714587300000917057470000058728391
000001141109060100001201000001691529200000000000000000003163819000000108026000000004534250000003742189000001649018200000000000000000005801390000000133535000000026496680000002559536
000001141109060200001201000001323778300000000000000000001624791000000164213400000000000000000003951865000001167303500000000000000000004723301000000206359400000015188940000002952376
000001141109060300001201000000644560300000000000000000001127937000000063228100000001367670000001151243000000613082800000000000000000002228334000000049862200000010307650000000929591
000001141109060600001201000001409984800000000000000000007815315000000000000000000071200890000000000000000001346717100000000000000000005648311000000000000000000049746690000000000000
000001141109060700001201000000020709200002214021530000000000000000000000000000000000000000000000000000000000000000000000000000000000000000000000000000000000000000000000000000000000
000001141109060800001201000000999690500000054982550000002563350000000000000000000003148500000000801150000001334712500000074339750000003067650000000023580000000012636000000001851450
000001141109060900001201000026378791100000325920250000048882080000003665785000000449889260000034202987000004486364400000326074640000042701066000003301250700000802681510000050435438
000001150000000000000201000000000000000000000000000000000000000000000000000000000000000000000000000000000000000000000000042816000000012091290000000000000000000488969600000028232215
000001156000000000000201000000000000000000000000000000000000000000000000000000000000000000000000000000000000000000000000042816000000012091290000000000000000000485990960000028232215
000001156100000000000201000000000000000000000000000000000000000000000000000000000000000000000000000000000000000000000000042816000000012091290000000000000000000485990960000028232215
000001156101000000000201000000000000000000000000000000000000000000000000000000000000000000000000000000000000000000000000000000000000000000000000000000000000000247514780000026749215
000001156102000000000201000000000000000000000000000000000000000000000000000000000000000000000000000000000000000000000000000000000000000000000000000000000000000001445200000000000000
000001156103000000000201000000000000000000000000000000000000000000000000000000000000000000000000000000000000000000000000000000000000000000000000000000000000000004997280000000000000
000001156105000000000201000000000000000000000000000000000000000000000000000000000000000000000000000000000000000000000000000000000000000000000000000000000000000164535380000000000000
000001156107000000000201000000000000000000000000000000000000000000000000000000000000000000000000000000000000000000000000000000000000000000000000000000000000000064519680000000842136
000001156108000000000201000000000000000000000000000000000000000000000000000000000000000000000000000000000000000000000000000000000000000000000000000000000000000002978640000000297864
000001156109000000000201000000000000000000000000000000000000000000000000000000000000000000000000000000000000000000000000042816000000012091290000000000000000000000000000000000343000
000001158000000000000201000000000000000000000000000000000000000000000000000000000000000000000000000000000000000000000000000000000000000000000000000000000000000002978640000000000000
000001158100000000000201000000000000000000000000000000000000000000000000000000000000000000000000000000000000000000000000000000000000000000000000000000000000000002978640000000000000
000001158101000000000201000000000000000000000000000000000000000000000000000000000000000000000000000000000000000000000000000000000000000000000000000000000000000002978640000000000000
000001190000000000000201000000139029700000006134440000003544577000000049081700000055486890000006350049000000345572300000045022450000003682708000000081091000000323007730000036997905
000001191000000000000201000000041601100000001545730000000017942000000007006400000001507880000000393990000000000226000000001963380000000767959000000019633800000000062820000000201215
000001191100000000000201000000041601100000001545730000000017942000000007006400000001507880000000393990000000000226000000001963380000000767959000000019633800000000062820000000201215
000001192000000000000201000000013534600000001353460000000161680000000016168000000001743270000000174327000000016730800000001673080000000162819000000016281900000000927690000000092769
000001192100000000000201000000013534600000001353460000000161680000000016168000000001743270000000174327000000016730800000001673080000000162819000000016281900000000927690000000092769
000001193000000000000201000000006650000000000070820000000000000000000001108800000000000000000000011088000000000000000000000150480000000000000000000001108800000000000000000000011068
000001193100000000000201000000006650000000000070820000000000000000000001108800000000000000000000011088000000000000000000000150480000000000000000000001108800000000000000000000011068
000001194000000000000201000000000000000000001875000000000000000000000006250000000000000000000000187500000000000000000000001250000000000000000000000012500000000000000000000000125000
000001194100000000000201000000000000000000001875000000000000000000000006250000000000000000000000187500000000000000000000001250000000000000000000000012500000000000000000000000125000
000001198000000000000201000000077244000000001289430000003364955000000018548500000052235740000005583144000000328615500000039985510000002751930000000031566500000322017220000036567853
000001198100000000000201000000077244000000001289430000003364955000000018548500000052235740000005583144000000328615500000039985510000002751930000000031566500000322017220000036567853
000001198101000000000201000000000000000000000000000000000000000000000000000000000000000000000000000000000000000000000000000000000000000000000000000000000000000153880000000014876000
000001198103000000000201000000077244000000001217770000003290355000000012638500000034453740000005500944000000296625500000039945510000002552430000000009226500000054966080000008370239
000001198104000000000201000000000000000000000000000000000000000000000000000000000000000000000000000000000000030000000000000000000000000000000000000000000000000000000000000000300000
000001198105000000000201000000000000000000000000000000000000000000000000000000000000000000000000000000000000000000000000000000000000000000000000000000000000000000000000000000000000
000001198106000000000201000000000000000000000061660000000000000000000000000000000000000000000000000000000000000000000000000000000000000000000000000000000000000000000000000000000000
000001198107000000000201000000000000000000000000000000000000000000000000000000000017300000000000030000000000000000000000000000000000000000000000000000000000000000000000000001700000
000001198108000000000201000000000000000000000000000000000000000000000000000000000000000000000000000000000000000000000000000000000000000000000000000000000000000112289140000011228914
000001198199000000000201000000000000000000000010000000000074600000000005910000000000482000000000052200000000001990000000000040000000000199500000000022340000000000882000000000092700
000001200000000000000201000002729019000000075288330000007783182000000585845400000330375390000002679446000003541682700000138233270000164402293000017408532000003095469910000279140528
000001210000000000000201000000824729500000000274620000000415200000000188913800000029275190000002595446000000035296000000002023860000001085306000000187177400000397452300000059130128
000001211000000000000201000000824729500000000274620000000415200000000188913800000029275190000002595446000000035296000000002023860000001085306000000187177400000374891520000050752820
000001211100000000000201000000824729500000000274620000000415200000000188913800000029275190000002595446000000035296000000002023860000001085306000000187177400000267266050000037788120
000001211104000000000201000000509143700000000000000000000152251000000187492600000026042270000002572386000000017849900000001695030000000590256000000155293000000103935950000025497525
000001211104010000000201000000509143700000000000000000000152251000000187492600000026042270000002572386000000017849900000001695030000000590256000000155293000000103935950000025497525
000001211104010500000201000000364674700000000000000000000000000000000180610400000002396450000000298555000000008034100000000762990000000414627000000137507700000095140760000018357009
000001211104010501000201000000364674700000000000000000000000000000000180610400000002396450000000298555000000008034100000000762990000000414627000000137507700000095140760000018357009
000001211104010700000201000000048632000000000000000000000059775000000000097700000022545970000002217900000000002371200000000020820000000042802000000004007200000001160530000005553077
000001211104010701000201000000048632000000000000000000000059775000000000097700000022545970000002217900000000002371200000000020820000000042802000000004007200000001160530000005553077
000001211104010900000201000000017992100000000000000000000023134000000000000000000000231340000000000000000000001156700000000000000000000034704000000000000000000000231330000000000000
000001211104010901000201000000017992100000000000000000000023134000000000000000000000231340000000000000000000001156700000000000000000000034704000000000000000000000231330000000000000
000001211104011000000201000000077844900000000000000000000069342000000006784500000000868510000000055931000000006287900000000911220000000098123000000013778100000007358130000001587439
000001211104011001000201000000077844900000000000000000000069342000000006784500000000868510000000055931000000006287900000000911220000000098123000000013778100000007358130000001587439
000001211104011100000201000000000000000000000000000000000000000000000000000000000000000000000000000000000000000000000000000000000000000000000000000000000000000000045200000000000000
000001211104011101000201000000000000000000000000000000000000000000000000000000000000000000000000000000000000000000000000000000000000000000000000000000000000000000045200000000000000
000001211105000000000201000000315585800000000274620000000262949000000001421200000003232920000000023060000000017446100000000328830000000495050000000031884400000013067100000001142695
000001211105300100000201000000128056700000000000000000000108468000000000000000000001084670000000000000000000005423300000000000000000000162701000000000000000000001084670000000000000
000001211105990000000201000000187529100000000274620000000154481000000001421200000002148250000000023060000000012022800000000328830000000332349000000031884400000011982430000001142695
000001211199000000000201000000000000000000000000000000000000000000000000000000000000000000000000000000000000000000000000000000000000000000000000000000000000000150263000000011147900
000001211199040000000201000000000000000000000000000000000000000000000000000000000000000000000000000000000000000000000000000000000000000000000000000000000000000150263000000008397000
000001211199040500000201000000000000000000000000000000000000000000000000000000000000000000000000000000000000000000000000000000000000000000000000000000000000000104135000000000000000
000001211199040700000201000000000000000000000000000000000000000000000000000000000000000000000000000000000000000000000000000000000000000000000000000000000000000046128000000000000000
000001211199040900000201000000000000000000000000000000000000000000000000000000000000000000000000000000000000000000000000000000000000000000000000000000000000000000000000000008397000
000001211199050000000201000000000000000000000000000000000000000000000000000000000000000000000000000000000000000000000000000000000000000000000000000000000000000000000000000002750900
000001211200000000000201000000000000000000000000000000000000000000000000000000000000000000000000000000000000000000000000000000000000000000000000000000000000000107625470000012964700
000001211206000000000201000000000000000000000000000000000000000000000000000000000000000000000000000000000000000000000000000000000000000000000000000000000000000107625470000012964700
000001212000000000000201000000000000000000000000000000000000000000000000000000000000000000000000000000000000000000000000000000000000000000000000000000000000000022560780000008377308
000001212100000000000201000000000000000000000000000000000000000000000000000000000000000000000000000000000000000000000000000000000000000000000000000000000000000022560780000008377308
000001212198000000000201000000000000000000000000000000000000000000000000000000000000000000000000000000000000000000000000000000000000000000000000000000000000000022560780000008377308
000001212198990000000201000000000000000000000000000000000000000000000000000000000000000000000000000000000000000000000000000000000000000000000000000000000000000022560780000008377308
000001212198990101000201000000000000000000000000000000000000000000000000000000000000000000000000000000000000000000000000000000000000000000000000000000000000000022560780000008377308
000001220000000000000201000000051557700000000001270000000905765000000000011000000009050220000000000000000000142806000000002059410000001109832000000000000000000031315560000001949535
000001221000000000000201000000051557700000000001270000000905765000000000011000000009050220000000000000000000142806000000002059410000001109832000000000000000000031315560000001949535
000001221100000000000201000000051557700000000001270000000905765000000000011000000009050220000000000000000000142806000000002059410000001109832000000000000000000031315560000001949535
000001221101000000000201000000051557700000000001270000000905765000000000011000000009050220000000000000000000142806000000002059410000001109832000000000000000000023865010000001949535
000001221101010000000201000000000084800000000001270000000000743000000000011000000000000000000000000000000000000000000000000000000000000000000000000000000000000000000000000000010332
000001221101020000000201000000000000000000000000000000000000000000000000000000000000000000000000000000000000000000000000000000000000000000000000000000000000000000000000000000171305
000001221101030000000201000000000000000000000000000000000000000000000000000000000000000000000000000000000000000000000000000000000000000000000000000000000000000000000000000000419771
000001221101070000000201000000045251100000000000000000000905022000000000000000000009050220000000000000000000142806000000002059410000001109832000000000000000000023865010000001204480
000001221101070100000201000000045251100000000000000000000905022000000000000000000009050220000000000000000000097638000000000000000000001109832000000000000000000016337010000000000000
000001221101070200000201000000000000000000000000000000000000000000000000000000000000000000000000000000000000045168000000000000000000000000000000000000000000000007528000000001204480
000001221101070300000201000000000000000000000000000000000000000000000000000000000000000000000000000000000000000000000000002059410000000000000000000000000000000000000000000000000000
000001221101090000000201000000006221800000000000000000000000000000000000000000000000000000000000000000000000000000000000000000000000000000000000000000000000000000000000000000143647
000001221101090100000201000000003848100000000000000000000000000000000000000000000000000000000000000000000000000000000000000000000000000000000000000000000000000000000000000000045744
000001221101090200000201000000002373700000000000000000000000000000000000000000000000000000000000000000000000000000000000000000000000000000000000000000000000000000000000000000097903
000001221102000000000201000000000000000000000000000000000000000000000000000000000000000000000000000000000000000000000000000000000000000000000000000000000000000007450550000000000000
000001221102010000000201000000000000000000000000000000000000000000000000000000000000000000000000000000000000000000000000000000000000000000000000000000000000000007450550000000000000
000001221102010100000201000000000000000000000000000000000000000000000000000000000000000000000000000000000000000000000000000000000000000000000000000000000000000000103320000000000000
000001221102010200000201000000000000000000000000000000000000000000000000000000000000000000000000000000000000000000000000000000000000000000000000000000000000000001713050000000000000
000001221102010300000201000000000000000000000000000000000000000000000000000000000000000000000000000000000000000000000000000000000000000000000000000000000000000004197710000000000000
000001221102010400000201000000000000000000000000000000000000000000000000000000000000000000000000000000000000000000000000000000000000000000000000000000000000000000457440000000000000
000001221102010500000201000000000000000000000000000000000000000000000000000000000000000000000000000000000000000000000000000000000000000000000000000000000000000000979030000000000000
000001230000000000000201000001852731800000075012440000006378217000000396920600000292049980000000000000000003363580700000134150000000162207155000017221354600002666702050000218060865
000001231000000000000201000001175350000000000000000000000483748000000023480000000180827800000000000000000000662112700000134150000000094370307000008965114000000985905450000060529702
000001231100000000000201000001175350000000000000000000000483748000000023480000000180827800000000000000000000662112700000134150000000094370307000008965114000000985905450000060529702
000001231101000000000201000001163950000000000000000000000413348000000004190000000031171500000000000000000000619707700000000000000000023407677000002280232900000606500800000010627171
000001231102000000000201000000000000000000000000000000000000000000000019290000000028898300000000000000000000010655000000000000000000005887300000000203324800000058197000000001913885
000001231103000000000201000000009600000000000000000000000000000000000000000000000007603000000000000000000000031750000000000000000000003471406000000217526800000047308750000007225494
000001231104000000000201000000001800000000000000000000000070400000000000000000000000155000000000000000000000000000000000000000000000000969360000000014230700000042598900000000119000
000001231105000000000201000000000000000000000000000000000000000000000000000000000113000000000000000000000000000000000000000000000000005080000000005795928500000231300000000017453365
000001231199000000000201000000000000000000000000000000000000000000000000000000000000000000000000000000000000000000000000134150000000055554564000000453870300000000000000000023190787
000001231199010000000201000000000000000000000000000000000000000000000000000000000000000000000000000000000000000000000000134150000000055554564000000453870300000000000000000023190787
000001232000000000000201000000677381800000000000000000005847550000000000000000000111222180000000000000000002701468000000000000000000057064578000005000000000001670882710000147329642
000001232100000000000201000000677381800000000000000000005847550000000000000000000111222180000000000000000002701468000000000000000000057064578000005000000000001670882710000147329642
000001232101000000000201000000000000000000000000000000000000000000000000000000000000000000000000000000000000000000000000000000000000002000000000005000000000000850000000000017560380
000001232101030000000201000000000000000000000000000000000000000000000000000000000000000000000000000000000000000000000000000000000000000000000000000000000000000000000000000000053500
000001232101040000000201000000000000000000000000000000000000000000000000000000000000000000000000000000000000000000000000000000000000002000000000005000000000000850000000000017506880
000001232104000000000201000000000000000000000000000000000000000000000000000000000000000000000000000000000000000000000000000000000000051459533000000000000000000000000000000007902762
000001232104010000000201000000000000000000000000000000000000000000000000000000000000000000000000000000000000000000000000000000000000051459533000000000000000000000000000000007902762
000001232105000000000201000000000000000000000000000000000000000000000000000000000000000000000000000000000000000000000000000000000000000000000000000000000000000000000000000059793133
000001232105010000000201000000000000000000000000000000000000000000000000000000000000000000000000000000000000000000000000000000000000000000000000000000000000000000000000000008287207
000001232105020000000201000000000000000000000000000000000000000000000000000000000000000000000000000000000000000000000000000000000000000000000000000000000000000000000000000051505926
000001232107000000000201000000677381800000000000000000005847550000000000000000000111222180000000000000000002701468000000000000000000003605045000000000000000000327890190000062073367
000001232107010000000201000000000000000000000000000000002370553000000000000000000060840020000000000000000000000000000000000000000000003605045000000000000000000000000000000000000000
000001232107020000000201000000677381800000000000000000001788899000000000000000000022550650000000000000000000000000000000000000000000000000000000000000000000000024196040000013237386
000001232107030000000201000000000000000000000000000000001688098000000000000000000027831510000000000000000000000000000000000000000000000000000000000000000000000212494150000012701301
000001232107040000000201000000000000000000000000000000000000000000000000000000000000000000000000000000000002701468000000000000000000000000000000000000000000000000000000000027014680
000001232107050000000201000000000000000000000000000000000000000000000000000000000000000000000000000000000000000000000000000000000000000000000000000000000000000091200000000009120000
000001232107990000000201000000000000000000000000000000000000000000000000000000000000000000000000000000000000000000000000000000000000000000000000000000000000000000000000000000000000
000001232199000000000201000000000000000000000000000000000000000000000000000000000000000000000000000000000000000000000000000000000000000000000000000000000000000492992520000000000000
000001232199050000000201000000000000000000000000000000000000000000000000000000000000000000000000000000000000000000000000000000000000000000000000000000000000000492992520000000000000
000001232199050100000201000000000000000000000000000000000000000000000000000000000000000000000000000000000000000000000000000000000000000000000000000000000000000492992520000000000000
000001232199050102000201000000000000000000000000000000000000000000000000000000000000000000000000000000000000000000000000000000000000000000000000000000000000000131645720000000000000
000001232199050104000201000000000000000000000000000000000000000000000000000000000000000000000000000000000000000000000000000000000000000000000000000000000000000270146800000000000000
000001232199050105000201000000000000000000000000000000000000000000000000000000000000000000000000000000000000000000000000000000000000000000000000000000000000000091200000000000000000
000001238000000000000201000000000000000000075012440000000046919000000373440600000000000000000000000000000000000000000000000000000000010772270000003256240600000009913890000010201521
000001238100000000000201000000000000000000075012440000000046919000000373440600000000000000000000000000000000000000000000000000000000010772270000003256240600000009913890000010201521
000001238101000000000201000000000000000000068603560000000046919000000341396200000000000000000000000000000000000000000000000000000000010772270000003031929800000009913890000009560633
000001238101010000000201000000000000000000021735740000000024414000000113414400000000000000000000000000000000000000000000000000000000003964230000000789780600000001562750000003343080
000001238101020000000201000000000000000000005314310000000022505000000025213700000000000000000000000000000000000000000000000000000000000877351000000190274600000001293600000000799599
000001238101030000000201000000000000000000003580510000000000000000000017871800000000000000000000000000000000000000000000000000000000000188637000000131519300000006700420000000455995
000001238101040000000201000000000000000000019429970000000000000000000004447300000000000000000000000000000000000000000000000000000000000008085000000203647000000000357120000000085361
000001238101050000000201000000000000000000018543030000000000000000000180449000000000000000000000000000000000000000000000000000000000001321139000001189565800000000000000000004865220
000001238101990000000201000000000000000000000000000000000000000000000000000000000000000000000000000000000000000000000000000000000000004412828000000527142500000000000000000000011378
000001238102000000000201000000000000000000006408880000000000000000000032044400000000000000000000000000000000000000000000000000000000000000000000000224310800000000000000000000640888
000001238102010100000201000000000000000000006408880000000000000000000032044400000000000000000000000000000000000000000000000000000000000000000000000224310800000000000000000000640888
000001240000000000000201000000000000000000000000000000000084000000000000000000000000000000000000084000000000000000000000000000000000000000000000000000000000000000000000000000000000
000001241000000000000201000000000000000000000000000000000084000000000000000000000000000000000000084000000000000000000000000000000000000000000000000000000000000000000000000000000000
000001241100000000000201000000000000000000000000000000000084000000000000000000000000000000000000084000000000000000000000000000000000000000000000000000000000000000000000000000000000
000002000000000000000201000036642616300003862678810000366696589000039167129000004085603490000559162931000083357288400011410019780000402349387000042863780000009143779950000858133455
000002100000000000000201000036629714000003278158960000362164765000039056081100004085603490000559162931000041548474000004210466310000402072792000041784216400009010931950000716275156
000002110000000000000201000007116161700000164497000000007393559000002131899100000066204360000024320268000000516671900000199100790000002605926000002242649100000812433230000015564638
000002111000000000000201000007116161700000164497000000007393559000002131899100000066204360000024320268000000516671900000199100790000002605926000002242649100000812433230000015564638
000002111100000000000201000007116161700000164497000000007393559000002131899100000066204360000024320268000000516671900000199100790000002605926000002242649100000812433230000015564638
000002111101000000000201000007116161700000164497000000007393559000002131899100000066204360000024320268000000516671900000199100790000002605926000002242649100000812433230000015564638
000002111101010000000201000000158661300000015866130000003924895000000392489500000044774580000004477458000000334274300000033427430000002251955000000225195500000044655480000004465548
000002111101020000000201000000004103200000124266740000000000000000001292990000000002489320000013303054000000015599300000137542820000000021388000001414903700000747416260000008646024
000002111101030000000201000006953397200000024364130000003468664000000446419600000018940460000006539756000000166798300000028130540000000332583000000602549900000020361490000002453066
000002130000000000000201000025967733900002812794260000322563939000033655286000003687598300000357796427000035906699600003644329660000365993381000036149853400006296693880000634785357
000002131000000000000201000025967733900002812794260000322563939000033655286000003687598300000357796427000035906699600003644329660000365993381000036149853400006296693880000634785357
000002131100000000000201000025967733900002812794260000322563939000033655286000003687598300000357796427000035906699600003644329660000365993381000036149853400006296693880000634785357
000002131101000000000201000025967733900002812794260000322563939000033655286000003687598300000357796427000035906699600003644329660000365993381000036149853400006296693880000634785357
000002131101010100000201000023884853100002616046230000320775040000033307586300003542925140000345017209000035876699600003641329660000362388336000035762688900006059980470000611116338
000002131101010200000201000002082880800000196748030000001788899000000347699700000144673160000012779218000000000000000000000000000000003605045000000360504500000234047410000023669019
000002131101010202000201000000000000000000000000000000000000000000000000000000000000000000000000000000000000000000000000000000000000000000000000000000000000000000728140000000000000
000002131101010203000201000000000000000000000000000000000000000000000000000000000000000000000000000000000000000000000000000000000000000000000000000000000000000000000000000000000000
000002131101010204000201000000000000000000000000000000000000000000000000000000000000000000000000000000000000000000000000000000000000000000000000000000000000000000000000000000000000
000002131101010206000201000002082880800000196748030000001788899000000347699700000144673160000012779218000000000000000000000000000000003605045000000360504500000233319270000023669019
000002131101780000000201000000000000000000000000000000000000000000000000000000000000000000000000000000000000000000000000000000000000000000000000000026660000000002666000000000000000
000002131101780100000201000000000000000000000000000000000000000000000000000000000000000000000000000000000000000000000000000000000000000000000000000026660000000002666000000000000000
000002131101980000000201000000000000000000000000000000000000000000000000000000000000000000000000000000000000030000000000003000000000000000000000000000000000000000000000000000000000
000002170000000000000201000000000000000000000000000000000000000000000000000000000000000000000129927408000000000000000000000000000000000000000000000000000000001302524580000000325050
000002174000000000000201000000000000000000000000000000000000000000000000000000000000000000000129927408000000000000000000000000000000000000000000000000000000001302524580000000325050
000002174100000000000201000000000000000000000000000000000000000000000000000000000000000000000129927408000000000000000000000000000000000000000000000000000000001302524580000000325050
000002174101000000000201000000000000000000000000000000000000000000000000000000000000000000000129927408000000000000000000000000000000000000000000000000000000001302524580000000325050
000002174101010000000201000000000000000000000000000000000000000000000000000000000000000000000129927408000000000000000000000000000000000000000000000000000000001299274080000000000000
000002174101020000000201000000000000000000000000000000000000000000000000000000000000000000000000000000000000000000000000000000000000000000000000000000000000000003250500000000325050
000002180000000000000201000003545818400000300867700000032207267000003268896000000331800830000047118828000005125102500000367035860000033473485000003391713900000599280260000065600111
000002188000000000000201000002311080800000300867700000032207267000003268896000000331800830000047118828000005125102500000367035860000033473485000003391713900000599280260000052635411
000002188100000000000201000002311080800000300012990000032063281000003257590500000330157260000046946191000005110331200000365428640000033319200000003379057900000596358720000052391361
000002188101000000000201000002311080800000300012990000032063281000003257590500000330157260000032316191000003340671200000334762640000033319200000003379057900000484898720000041245361
000002188101010000000201000000621317500000115090430000010537076000001063755800000107029740000010482083000001041498200000104309860000010373629000001039796200000209859310000015770135
000002188101010100000201000000177711000000035030520000003393770000000328580500000031934770000003196925000000322534600000032356240000003242536000000324599000000064818690000004846712
000002188101010200000201000000314311500000054247090000004555609000000478149900000048704640000004631018000000461318100000046507270000004621020000000464671400000093833640000007052086
000002188101010400000201000000119158000000023983810000002414103000000239666000000024756910000002490518000000239043400000023900340000002409291000000240447600000049191340000003720164
000002188101010700000201000000010137000000001829010000000173594000000017359400000001633420000000163622000000018602100000001546010000000100782000000010078200000002015640000000151173
000002188101020000000201000000205215100000036467740000004029864000000444200600000052593420000004780698000000529431500000053478630000004339317000000478636300000085196180000006490903
000002188101020100000201000000030419400000003041940000000512568000000051256800000000000000000000000000000000042802400000004280240000000093005000000009300500000002145000000000214500
000002188101020200000201000000000000000000000000000000000000000000000001399600000000279190000000024515000000002033400000000223660000000025287000000002553100000000477090000000034841
000002188101020300000201000000000000000000000007700000000004620000000001078000000000123200000000011550000000000924000000000030800000000000000000000000000000000000242000000000024200
000002188101020500000201000000152442100000031182740000003512676000000390466200000047858250000004311355000000483671700000048943930000004113955000000456075700000079653030000005949456
000002188101020501000201000000066080100000014154690000001540141000000156597000000021780780000001793747000000231353900000023129930000001674838000000207074200000033198040000002528280
000002188101020502000201000000002705300000000670700000000211190000000029531900000003554880000000407151000000045570600000004896280000000513907000000054093300000009587310000000721974
000002188101020504000201000000040194900000007530730000000844094000000113092500000012690250000001122420000000101801400000010384770000001045279000000105185900000018836190000001365226
000002188101020505000201000000043461800000008826620000000917251000000091244800000009832340000000988037000000104945800000010532950000000879931000000089722300000018031490000001333976
000002188101020800000201000000022353600000002235360000000000000000000000000000000000744170000000074417000000000000000000000000000000000000000000000000000000000000798470000000079847
000002188101020900000201000000000000000000000000000000000000000000000000000000000001806950000000180695000000000000000000000000000000000107070000000010707000000000000000000000000000
000002188101021000000201000000000000000000000000000000000000000000000000000000000001781660000000178166000000000000000000000000000000000000000000000000000000000001880590000000188059
000002188101040000000201000000000000000000000000000000000000000000000000000000000000000000000000000000000000000600000000000060000000000001275000000000127500000000000000000000000000
000002188101100000000201000000053481600000005348160000000478427000000047842700000007604280000000760428000000073296500000007329650000000717864000000071786400000009024670000000902467
000002188101130000000201000000058931200000005893120000002039403000000203940300000005963990000000596399000000060789600000006078960000000613152000000061315200000006204160000000620416
000002188101130100000201000000041000000000004100000000000405636000000040563600000004158720000000415872000000042731200000004273120000000432394000000043239400000004372580000000437258
000002188101130200000201000000017931200000001793120000000178082000000017808200000001805270000000180527000000018058400000001805840000000180758000000018075800000001831580000000183158
000002188101130300000201000000000000000000000000000000001455685000000145568500000000000000000000000000000000000000000000000000000000000000000000000000000000000000000000000000000000
000002188101150000000201000001372135400000137213540000014978511000001497851100000156965830000015696583000001635055400000163505540000017273963000001727396300000174614400000017461440
000002188101150100000201000000251244600000025124460000002815432000000281543200000028390560000002839056000000285813500000028581350000002362477000000236247700000023086110000002308611
000002188101150200000201000000731317600000073131760000006868611000000686861100000065040990000006504099000000661282400000066128240000005578083000000557808300000053567800000005356780
000002188101150300000201000000345087300000034508730000004400582000000440058200000052697250000005269725000000575580200000057558020000008100066000000810006600000084273750000008427375
000002188101150400000201000000044485900000004448590000000893886000000089388600000010837030000001083703000000112379300000011237930000001233337000000123333700000013686740000001368674
000002188104000000000201000000000000000000000000000000000000000000000000000000000000000000000014630000000001769660000000030666000000000000000000000000000000000111460000000011146000
000002188104050000000201000000000000000000000000000000000000000000000000000000000000000000000014630000000001769660000000030666000000000000000000000000000000000111460000000011146000
000002188301040000000201000000000000000000000854710000000143986000000011305500000001643570000000172637000000014771300000001607220000000154285000000012656000000002917490000000243645
000002188301040200000201000000000000000000000854710000000139516000000010858500000001554170000000163697000000014063000000001502260000000143208000000011889600000002849500000000236846
000002188301040201000201000000000000000000000854710000000139516000000010858500000001554170000000163697000000014063000000001502260000000143208000000011889600000002849500000000236846
000002188301040300000201000000000000000000000000000000000000000000000000000000000000000000000000000000000000000261300000000060260000000011077000000000766400000000067990000000006799
000002188301040400000201000000000000000000000000000000000004470000000000447000000000089400000000008940000000000447000000000044700000000000000000000000000000000000000000000000000000
000002188301050000000201000000000000000000000000000000000000000000000000000000000000000000000000000000000000000000000000000000000000000000000000000000000000000000004050000000000405
000002189000000000000201000001234737600000000000000000000000000000000000000000000000000000000000000000000000000000000000000000000000000000000000000000000000000000000000000012964700
000002189200000000000201000001234737600000000000000000000000000000000000000000000000000000000000000000000000000000000000000000000000000000000000000000000000000000000000000012964700
000002189201000000000201000001234737600000000000000000000000000000000000000000000000000000000000000000000000000000000000000000000000000000000000000000000000000000000000000012964700
000002200000000000000201000000000000000000000000000000000000000000000111047900000000000000000000000000000041788220300007199553470000000000000000000879563600000129647000000141553391
000002210000000000000201000000000000000000000000000000000000000000000111047900000000000000000000000000000000000000000000000000000000000000000000000000000000000129647000000010813605
000002211000000000000201000000000000000000000000000000000000000000000111047900000000000000000000000000000000000000000000000000000000000000000000000000000000000000000000000000051058
000002211100000000000201000000000000000000000000000000000000000000000111047900000000000000000000000000000000000000000000000000000000000000000000000000000000000000000000000000051058
000002211102000000000201000000000000000000000000000000000000000000000111047900000000000000000000000000000000000000000000000000000000000000000000000000000000000000000000000000051058
000002211102010000000201000000000000000000000000000000000000000000000111047900000000000000000000000000000000000000000000000000000000000000000000000000000000000000000000000000051058
000002211102010100000201000000000000000000000000000000000000000000000111047900000000000000000000000000000000000000000000000000000000000000000000000000000000000000000000000000051058
000002214000000000000201000000000000000000000000000000000000000000000000000000000000000000000000000000000000000000000000000000000000000000000000000000000000000129647000000010762547
000002214200000000000201000000000000000000000000000000000000000000000000000000000000000000000000000000000000000000000000000000000000000000000000000000000000000129647000000010762547
000002214201000000000201000000000000000000000000000000000000000000000000000000000000000000000000000000000000000000000000000000000000000000000000000000000000000129647000000010762547
000002270000000000000201000000000000000000000000000000000000000000000000000000000000000000000000000000000041788220300007199553470000000000000000000879563600000000000000000130029058
000002271000000000000201000000000000000000000000000000000000000000000000000000000000000000000000000000000000000000000000000000000000000000000000000879563600000000000000000130029058
000002271100000000000201000000000000000000000000000000000000000000000000000000000000000000000000000000000000000000000000000000000000000000000000000879563600000000000000000130029058
000002271101000000000201000000000000000000000000000000000000000000000000000000000000000000000000000000000000000000000000000000000000000000000000000879563600000000000000000130029058
000002271101010000000201000000000000000000000000000000000000000000000000000000000000000000000000000000000000000000000000000000000000000000000000000879563600000000000000000000000000
000002271101020000000201000000000000000000000000000000000000000000000000000000000000000000000000000000000000000000000000000000000000000000000000000000000000000000000000000129927408
000002271101030000000201000000000000000000000000000000000000000000000000000000000000000000000000000000000000000000000000000000000000000000000000000000000000000000000000000000101650
000002272000000000000201000000000000000000000000000000000000000000000000000000000000000000000000000000000041788220300007199553470000000000000000000000000000000000000000000000000000
000002272100000000000201000000000000000000000000000000000000000000000000000000000000000000000000000000000041788220300007199553470000000000000000000000000000000000000000000000000000
000002272103000000000201000000000000000000000000000000000000000000000000000000000000000000000000000000000003623544000003517260680000000000000000000000000000000000000000000000000000
000002272103010000000201000000000000000000000000000000000000000000000000000000000000000000000000000000000000000000000003517260680000000000000000000000000000000000000000000000000000
000002272103050000000201000000000000000000000000000000000000000000000000000000000000000000000000000000000003517260700000000000000000000000000000000000000000000000000000000000000000
000002272103060000000201000000000000000000000000000000000000000000000000000000000000000000000000000000000000106283300000000000000000000000000000000000000000000000000000000000000000
000002272104000000000201000000000000000000000000000000000000000000000000000000000000000000000000000000000030301743700003682292790000000000000000000000000000000000000000000000000000
000002272104010000000201000000000000000000000000000000000000000000000000000000000000000000000000000000000030195460400000000000000000000000000000000000000000000000000000000000000000
000002272104020000000201000000000000000000000000000000000000000000000000000000000000000000000000000000000000000000000002161391420000000000000000000000000000000000000000000000000000
000002272104030000000201000000000000000000000000000000000000000000000000000000000000000000000000000000000000000000000001218946760000000000000000000000000000000000000000000000000000
000002272104040000000201000000000000000000000000000000000000000000000000000000000000000000000000000000000000000000000000301954610000000000000000000000000000000000000000000000000000
000002272104050000000201000000000000000000000000000000000000000000000000000000000000000000000000000000000000106283300000000000000000000000000000000000000000000000000000000000000000
000002272105000000000201000000000000000000000000000000000000000000000000000000000000000000000000000000000007862932600000000000000000000000000000000000000000000000000000000000000000
000002272105980000000201000000000000000000000000000000000000000000000000000000000000000000000000000000000007862932600000000000000000000000000000000000000000000000000000000000000000
000002280000000000000201000000000000000000000000000000000000000000000000000000000000000000000000000000000000000000000000000000000000000000000000000000000000000000000000000000710728
000002282000000000000201000000000000000000000000000000000000000000000000000000000000000000000000000000000000000000000000000000000000000000000000000000000000000000000000000000710728
000002282100000000000201000000000000000000000000000000000000000000000000000000000000000000000000000000000000000000000000000000000000000000000000000000000000000000000000000000710728
000002282101000000000201000000000000000000000000000000000000000000000000000000000000000000000000000000000000000000000000000000000000000000000000000000000000000000000000000000710728
000002300000000000000201000000012902300000584519850000004531824000000000000000000000000000000000000000000000020594100000000000000000000276595000000200000000000003201000000000304908
000002340000000000000201000000000000000000000000000000000000000000000000000000000000000000000000000000000000000000000000000000000000000000000000000000000000000000000000000000000000
000002341000000000000201000000000000000000000000000000000000000000000000000000000000000000000000000000000000000000000000000000000000000000000000000000000000000000000000000000000000
000002341100000000000201000000000000000000000000000000000000000000000000000000000000000000000000000000000000000000000000000000000000000000000000000000000000000000000000000000000000
000002370000000000000201000000012902300000584519850000004531824000000000000000000000000000000000000000000000020594100000000000000000000276595000000200000000000003201000000000304908
000002371000000000000201000000012902300000584519850000004531824000000000000000000000000000000000000000000000020594100000000000000000000276595000000200000000000003201000000000304908
000002371100000000000201000000009412700000584170890000004531824000000000000000000000000000000000000000000000020594100000000000000000000276595000000200000000000003201000000000304908
000002371102000000000201000000000000000000000000000000000000000000000000000000000000000000000000000000000000000000000000000000000000000000000000000000000000000000000000000000000000
000002371103000000000201000000009412700000584170890000004531824000000000000000000000000000000000000000000000020594100000000000000000000276595000000200000000000003201000000000304908
000002371200000000000201000000003489600000000348960000000000000000000000000000000000000000000000000000000000000000000000000000000000000000000000000000000000000000000000000000000000
000002371202000000000201000000001312200000000217740000000000000000000000000000000000000000000000000000000000000000000000000000000000000000000000000000000000000000000000000000000000
000002371203000000000201000000002177400000000131220000000000000000000000000000000000000000000000000000000000000000000000000000000000000000000000000000000000000000000000000000000000
000003000000000000000201000032950293200000001990620000415868241000000114874700005605441180000004275361000113037464800000048361770000445303150000000101983700007390707900000068686130
000003100000000000000201000016743572900000000000000000181504468000000000000000001824454840000000054940000018269035900000025621020000187921255000000004815800002032141290000016984566
000003110000000000000201000012855518600000000000000000142931931000000000000000001432185550000000054940000014587990900000025621020000150409213000000004815800001509685480000016984566
000003111000000000000201000012097292500000000000000000130070322000000000000000001263917500000000054940000012872499100000025621020000131482543000000004815800001274873810000016984566
000003111100000000000201000012097292500000000000000000130070322000000000000000001263917500000000054940000012872499100000025621020000131482543000000004815800001274873810000016984566
000003111101000000000201000011904857000000000000000000125632592000000000000000001242999120000000054940000012645043100000025621020000128787809000000000000000001251280400000016984566
000003111101010000000201000007898694300000000000000000079662217000000000000000000780772080000000000000000008285841200000019113370000082210712000000000000000000833011350000001607692
000003111101020000000201000000059493500000000000000000000836956000000000000000000012195110000000054940000000103943200000001943220000000871094000000000000000000008735540000000000000
000003111101060000000201000000523064300000000000000000005158605000000000000000000052110020000000000000000000564397900000002169000000005602425000000000000000000054915800000000062614
000003111101140000000201000000052000000000000000000000000492000000000000000000000004920000000000000000000000049200000000000000000000000492000000000000000000000004920000000000000000
000003111101160000000201000000531755400000000000000000005316795000000000000000000053295850000000000000000000568433900000000820000000005421818000000000000000000055953780000000000000
000003111101170000000201000000000000000000000000000000000000000000000000000000000000000000000000000000000000000500000000000000000000000000000000000000000000000000000000000000000000
000003111101180000000201000000775144200000000000000000007669419000000000000000000075068100000000000000000000771767800000001575430000008015975000000000000000000079505390000000000000
000003111101190000000201000000114389600000000000000000003593073000000000000000000034670140000000000000000000164327400000000000000000002093066000000000000000000019770660000000000000
000003111101220000000201000000768421100000000000000000007796897000000000000000000079493000000000000000000000809111300000000000000000008391518000000000000000000070111080000015314260
000003111101240000000201000000168037700000000000000000003359250000000000000000000036707200000000000000000000205020900000000000000000004520771000000000000000000011278030000000000000
000003111101250000000201000000022577600000000000000000000377747000000000000000000014848580000000000000000000133942000000000000000000001235020000000000000000000011185200000000000000
000003111101310000000201000000991279300000000000000000010020000000000000000000000094015000000000000000000000927780000000000000000000009933410000000000000000000100200000000000000000
000003111101990000000201000000000000000000000000000000001349633000000000000000000004904040000000000000000000060777500000000000000000000000000000000000000000000001693570000000000000
000003111102000000000201000000192435500000000000000000002145802000000000000000000020918380000000000000000000227456000000000000000000002215810000000004815800000022576910000000000000
000003111102030000000201000000192435500000000000000000002145802000000000000000000020918380000000000000000000227456000000000000000000002215810000000004815800000022576910000000000000
000003111103000000000201000000000000000000000000000000002291928000000000000000000000000000000000000000000000000000000000000000000000000478924000000000000000000001016500000000000000
000003112000000000000201000000758226100000000000000000012861609000000000000000000168268050000000000000000001715491800000000000000000018926670000000000000000000234811670000000000000
000003112100000000000201000000758226100000000000000000012861609000000000000000000168268050000000000000000001715491800000000000000000018926670000000000000000000234811670000000000000
000003112101000000000201000000319089800000000000000000003535719000000000000000000038586280000000000000000000382590400000000000000000004413398000000000000000000038948290000000000000
000003112101010000000201000000110669000000000000000000001076350000000000000000000010763500000000000000000000086108000000000000000000001358836000000000000000000016000000000000000000
000003112101220000000201000000186335200000000000000000002356559000000000000000000025554520000000000000000000282834500000000000000000002901429000000000000000000014561760000000000000
000003112101240000000201000000022085600000000000000000000102810000000000000000000002268260000000000000000000013647900000000000000000000153133000000000000000000008386530000000000000
000003112104000000000201000000439136300000000000000000009325890000000000000000000129681770000000000000000001332901400000000000000000014513272000000000000000000195863380000000000000
000003112104170000000201000000036519900000000000000000001590657000000000000000000033822580000000000000000000407201300000000000000000004452765000000000000000000076021310000000000000
000003112104180000000201000000057597000000000000000000000575970000000000000000000006716010000000000000000000057482000000000000000000000574820000000000000000000004550660000000000000
000003112104190000000201000000000000000000000000000000001401189000000000000000000025922210000000000000000000258529600000000000000000002736104000000000000000000010772070000000000000
000003112104210000000201000000050591200000000000000000000860812000000000000000000005959950000000000000000000025299400000000000000000000404790000000000000000000006008610000000000000
000003112104220000000201000000126175700000000000000000000596400000000000000000000012780000000000000000000000127800000000000000000000001278000000000000000000000024174240000000000000
000003112104230000000201000000069839400000000000000000002147161000000000000000000013931740000000000000000000155136300000000000000000001677135000000000000000000031423780000000000000
000003112104260000000201000000072980100000000000000000001645041000000000000000000021128850000000000000000000242776200000000000000000002522892000000000000000000030550320000000000000
000003112104990000000201000000025433000000000000000000000508660000000000000000000009420430000000000000000000058676600000000000000000000866766000000000000000000012362390000000000000
000003120000000000000201000003888054300000000000000000038572537000000000000000000392269290000000000000000003681045000000000000000000037512042000000000000000000522455810000000000000
000003121000000000000201000003293109900000000000000000030980145000000000000000000320142680000000000000000003004665700000000000000000028369080000000000000000000413573770000000000000
000003121200000000000201000003293109900000000000000000030980145000000000000000000320142680000000000000000003004665700000000000000000028369080000000000000000000413573770000000000000
000003121201000000000201000001689058000000000000000000016137188000000000000000000174247540000000000000000001549779000000000000000000013917499000000000000000000194376690000000000000
000003121299000000000201000001604051900000000000000000014842957000000000000000000145895140000000000000000001454886700000000000000000014451581000000000000000000219197080000000000000
000003122000000000000201000000548940900000000000000000006686553000000000000000000067141070000000000000000000633520100000000000000000008682255000000000000000000104573900000000000000
000003122100000000000201000000055735200000000000000000000849393000000000000000000011221660000000000000000000095733100000000000000000003115417000000000000000000022169630000000000000
