87612826000190010120203004202008052020PREFEITURA MUNICIPAL INDEPENDENCIA                                              
0000000006CONTRIBUICAO AO FAPS                                        12091144000180000000000000000000000000000000RUA SENADOR PINHEIRO                              INDEPENDENCIA                 RS989150000000000000000000000000000000000202
0000000038CREA - CONS.REG.DE ENG.ARQ.E AGR.DO RGS                     92695790000195000000000000000000000000000000PORTO ALEGRE                                      PORTO ALEGRE                  RS904080000000000000000000000000000000000202
0000000047HSVP -ASSOCIACAO DE LITERATURA E BENEFICIENCIA              92962869000720000000000000000000000111030340RUA OSVALDO CRUZ,381                              TRES DE MAIO                  RS989100000000000353510000000000000000000202
0000000052ANTONIO AVELINO FERREIRA                                    00046252240044000000000000000000000000000000MOTORISTA/VEREADOR                                INDEPENDENCIA                 RS989150000000000000000000000000000000000201
0000000058VANDERLEIA APARECIDA DARONCO CAUDURO                        00090064224015000000000000000000000000000000PROFESSORA                                        INDENPENDENCIA                RS989150000000000000000000000000000000000201
0000000064AMUFRON - ASSOC. MUNIC. FRONT. NOROESTE (ex AMGSR)          87689006000104000000000000000000000000000000RUA BUENOS AIRES, 25                              SANTA ROSA                    RS989000000000055351257740000000000000000202
0000000077VIACAO OURO E PRATA S/A                                     92954106000142000000962042935000000000000000DENISE - 51-3375-8672                             PORTO ALEGRE                  RS900109080000055351255440000000000000000202
0000000096JOSE LEMANSKI BOYARSKI                                      00020432534091000001981017485000000000000000LAJEADO PESSEGUEIRINHO                            INDEPENDENCIA                 RS989150000000000000000000000000000000000201
0000000149OI - BRASIL TELECOM S.A- (51-074-6918)net                   76535764000224000000962845833000000000000000AV.BORGES DE MEDEIROS,512                         PORTO ALEGRE                  RS989150000000080003108000000000000000000202
0000000150JAIR CESAR SOUZA                                            00050056190034000000000000000000000000000000MOTORISTA                                         INDEPENDENCIA                 RS989150000000000991820450000000000000000201
0000000153VALMIR RICHTER                                              00051774771004000000000000000000000000000000SERVIDOR DA CAMARA DE VEREADORES                  INDEPENDENCIA                 RS989150000000000000000000000000000000000101
0000000155CONTRIBUICAO AO INSS                                        29979036000140000000000000000000000000000000SEM ENDERECO                                      INDEPENDENCIA                 RS989150000000000000000000000000000000000202
0000000167ABASE SISTEMAS E SOLUCOES LTDA                              93088649000197000001470025474000000000000000AV.SEN.ALBERTO PASQUALINI, 347                    TRES DE MAIO                  RS989100000000000353549000000000000000000202
0000000177FAMURS - FEDERACAO DAS ASSOC MUN DO RGS                     88733811000142000000000000000000000000000000RUA MARCILIO DIAS , 574                           PORTO ALEGRE                  RS904080000000051323138330000000000000000202
0000000200M.A.BOTOLLI   CIA LTDA                                      03156129000181000001100072540000000000000000AV. EXPEDICIONARIO WEBER, 2627                    SANTA ROSA                    RS000989000000000351177880000000000000000202
0000000204VANDIR MIETH - MERCEPECAS                                   89394332000101000001100023973000000000000000AV.INHACORA, 119                                  SANTA ROSA                    RS989000000000000051220200000000000000000202
0000000213FOLHA DE PGTO - SERVIDORES DIVERSOS                         87612826000190000000000000000000000000000000RUA SENADOR PINHEIRO, 1348                        INDEPENDENCIA                 RS989150000000000000000000000000000000000202
0000000217EMATER - RS                                                 89161475000173000000000000000000000000000000PORTO ALEGRE                                      PORTO ALEGRE                  RS904080000000000000000000000000000000000202
0000000223CORSAN - COMP. RIOGRANDENSE DE SANEAMENTO                   92802784000190000001980000000000000000000000AV. TRES DE MAIO, 646/0                           INDEPENDENCIA                 RS989150000001451321558180000000000000000202
0000000224CERTHIL -Luz-  COOP. DIST.ENERGIA ENTRE RIOS LTDA           98042963000152000000000000000000000000000000AV.AVAI, 960...SICREDI AG. 0306 C/30.162-0        TRES DE MAIO                  RS989100000000005553515000000000000000000202
0000000231CONTRIBUICAO AO PASEP- CODIGO 3703                          87612826000190000000000000000000000000000000.                                                 IND                           RS989150000000000000000000000000000000000202
0000000236ASSOCIACAO HOSPITALAR CARIDADE SANTA ROSA                   95815668000101000001100014303000000000000000RUA DR. FRANCISCO TIMM,656                        SANTA ROSA                    RS989000000000055351250500000000000000000202
0000000249CONTRIBUICAO AO FGTS                                        87612826000190000000000000000000000000000000NENHUM                                            NENHUM                        RS989150000000000000000000000000000000000202
0000000256JOSE VALMOR PIPPER                                          00033622450053000000000000000000000000000000MOTORISTA                                         INDEPENDENCIA                 RS989150000000000000000000000000000000000201
0000000264DPM BORBA, PAUSE   PERIN - ADVOGADOS - OAB RS 7512          92885888000105000000000000000000000000474223AV. PERNAMBUCO, 1001                              PORTO ALEGRE                  RS902400050001451302734000000000000000000202
0000000266JORNAL SEMANAL LTDA                                         92152651000115000001470000001000000000000000RUA SANTO ANGELO No 413 SALA 4                    TRES DE MAIO                  RS989100000000055353510330000000000000000202
0000000321ADALBERTO MARTINI                                           00095803629049000000000000000000000000000000MOTORISTA - RUA SANTO ANGELO                      INDEPENDENCIA                 RS989150000000055353913000000000000000000201
0000000325LOJAS COLOMBO S/A                                           89848543007856000001470015118000000000000000AV. URUGUAI, 636                                  TRES DE MAIO                  RS989100000000055353515850000000000000000202
0000000347FLAVIA BORGES BOMFIM DE LIMA                                00001180015070000000000000000000000000000000RUA JOSINO FARIAS                                 INDEPENDENCIA                 RS989150000000000000000000000000000000000201
0000000374TANIA MOUSQUER BERNARDI                                     00095324194034000000000000000000000000000000RUA SANTO ANGELO                                  INDEPENDENCIA                 RS989150000000000000000000000000000000000201
0000000376GILBERTO FELDEN                                             00064548449000000000000000000000000000000000INDEPENDENCIA                                     INDEPENDENCIA                 RS989150000000000000000000000000000000000201
0000000410NATALINO FACCIN                                             94968120000120000001980004339000000000000000RUA SAO MIGUEL , 716                              INDEPENDENCIA                 RS989150000000000353911130000000000000000202
0000000413SONIA CRISTINA TAVARES SOUTO                                00043883362034000000000000000000000000000000ENFERMEIRA                                        INDEPENDENCIA                 RS989150000000000000000000000000000000000201
0000000422C.S. RAUBER   CIA LTDA - ZUK PARAFUSOS                      04807758000197000000000000000000000000392634RUA JOAO MACLUF, 276                              SANTA ROSA                    RS989000000000000351279790000000000000000202
0000000446ASSOCIACAO DO CORPO DE BOMBEIROS VOLUNTARIOS T.M.           02074368000120000000000000000000000000000000RUA MINAS GERAIS                                  TRES DE MAIO                  RS989100000000000000000000000000000000000202
0000000448EVARISTO I. C. FURIAN                                       04045417000121000000000000000000000000000000AV. SANTA ROSA , 985                              TRES DE MAIO                  RS989100000000055353511660000000000000000202
0000000450NERCI JOSE MUCHA                                            00041098080068000000000000000000000000000000SECRETARIO DA FAZENDA  - RUA SAO MIGUEL 141       INDEPENDENCIA                 RS989150000000559995209550000000000000000201
0000000451CODIS - COFRON Mensalidade                                  94188208000120000000000000000000000000000000RUA BUENOS AIRES, 25                              SANTA ROSA                    RS989000000553512577464320000000000000000202
0000000500EVANDRO KRUMMENAUER-ME                                      00907633000188000001980005149000000000000000RODOVIA PRESIDENTE KENNEDY-KM                     INDEPENDENCIA                 RS989150000000000053912630000000000000000202
0000000552LAR BOM PASTOR DE IVAGACI E ESCOLA PROFISSIONAL             87685616000121000000000000000000000000000000VILA IVAGACI                                      BOA VISTA DO BURICA           RS989180000000000000000000000000000000000202
0000000678VILSON MEURER - ME                                          91814285000150000000000000000000000000000000AV. TRES DE MAIO                                  INDEPENDENCIA                 RS989150000000055353911470000000000000000202
0000000722J.MALUCELLI EQUIPAMENTOS LTDA                               95424321000472000000962428035000000000000000R.VOLUNTARIOS DA PATRIA, 4455                     PORTO ALEGRE                  RS995000000000054333030000000000000000000202
0000000756PROCERGS                                                    87124582000104000000962565091000000000349321PRACA DOS ACORIANOS, S/No SAMUEL                  PORTO ALEGRE                  RS900389000000051321031250000000000000000202
0000000911COMERCIAL AGRICOLA TRES AMIGOS LTDA                         88087200000174000001980001852000000000000000SENADOR SALGADO FILHO 744                         INDEPENDENCIA                 RS989150000003539120310890000000000000000202
0000000912CODIS - COFRON Servicos                                     94188208000120000000000000000000000000000000AV. BORGES DE MEDEIROS, 504 - 2o ANDAR            SANTA ROSA                    RS989000000003512643212810000000000000000202
0000000930PODER JUDICIARIO DA COMARCA TRES MAIO                       89522064013810000000000000000000000000000000RUA BURICA, 375                                   TRES DE MAIO                  RS989100005535351622353510000000000000000202
0000001083DETRAN - RS                                                 01935819000103000000000000000000000000000000PORTO ALEGRE                                      PORTO ALEGRE                  RS904080000000051328820000000000000000000202
0000001122ASSOC.DE PAIS E AMIGOS DOS EXCEPCIONAIS - APAE              00994189000185000000000000000000000000000000ESQUINA BUDEL,                                    INDEPENDENCIA                 RS989150000000000000000000000000000000000202
0000001169RIO GRANDE ENERGIA - RGE                                    02016439000138000000962636193000000000000000RUA SAO LUIS,77                                   PORTO ALEGRE                  RS906201700000054321810830000000000000000202
0000001184RADIO CIDADE CANCAO LTDA                                    89979140000167000000000000000000000134833918TRES DE MAIO                                      TRES DE MAIO                  RS989100000003535190217990000000000000000202
0000001243MAQCOES COMERCIO E REPRESENTACOES LTDA.                     91643122000151000001100036412000000000000000RUA JOAO PEDRO TIMM, No 165                       SANTA ROSA                    RS989000000000055351232200000000000000000202
0000001291CONFEDERACAO NACIONAL DOS MUNICIPIOS                        00703157000183000000000000000000000000000000FAX 0XX-61-2101-6019                              BRASILIA                      DF717370000001461210160200000000000000000202
0000001342JAIRO JOSE MELLER - MOTORISTA                               00093096909091000000000000000000000000000000INDEPENDENCIA                                     INDEPENDENCIA                 RS989150000000000962965030000000000000000201
0000001374FARMAMED PRODUTOS HOSPITALARES LTDA EPP                     92037480000183000001100038466000000000000000AVENIDA RIO GRANDE DO SUL , No 480                SANTA ROSA                    RS989000000000000351255880000000000000000202
0000001390DOUGLAS MARTINI DE ARAUJO                                   01782694000129000001980005351000000000000000RUA SANTO ANGELO,1177                             INDEPENDENCIA                 RS989150000000000000000000000000000000000202
0000001455LIBORIO SEGATTO                                             03243112000161000001470035933000000000000000RUA FERNANDO FERRARI, 407                         TRES DE MAIO                  RS989100000000000353516630000000000000000202
0000001489AUTOMASSUL INFORMATICA LTDA                                 03683195000100000001470036670000000000000000AV. SENADOR ALBERTO PASQUALINI, No 347, LOJA 02   TRES DE MAIO                  RS989100000001455353527420000000000000000202
0000001495SOCIEDADE EDUCACIONAL-SETREM 3 DE MAIO                      98039852000197000000000000000000000000000000AVENIDA SANTA ROSA,2405                           TRES DE MAIO                  RS989100000000055353510110000000000000000202
0000001513LABORATORIO SAO VICENTE LTDA                                89431100000186000000000000000000000110831437RUA OSVALDO CRUZ,381                              TRES DE MAIO                  RS989100000000000353511850000000000000000202
0000001600PANASEL - PAULO TRAESEL - EIRELI                            00152379000155000000000000000000000000000000BR 472 KM 67- NS 1833                             SAO MARTINHO                  RS986900000000000000000000000000000000000202
0000001623LUIS CESAR REIS                                             93920361000137000001470026535000000000000000RUA OSVALDO CRUZ, 858                             TRES DE MAIO                  RS989100000000000353525550000000000000000202
0000001669ELAINE PAZ DA SILVA TRANSPORTES                             04287784000131000001980006048000000000000000RUA SOROCABA , 324                                INDEPENDENCIA                 RS989150000000009990226180000000000000000202
0000001680ALERCIO J.CHRIST   CIA.LTDA                                 92332246000189000001470029968000000000000000AV.URUGUAI,670 SALA 02                            TRES DE MAIO                  RS989100000000000353532220000000000000000202
0000001744JEFERSON LUIS SCHAKOFSKI                                    04286078000175000000000000000000000000000000R. SANTA ROSA DE LIMA, 789, SALA 1                INDEPENDENCIA                 RS989150000000055353912600000000000000000202
0000001751VIZU DISTRIBUIDORA DE LIVROS LTDA                           02593711000142000000000000000000000000000000RUA MOROM,3020 Ij A BOQUEIRAO                     PASSO FUNDO                   RS990100350000000000000000000000000000000202
0000001757ALMIR ZIMMERMANN - MADEREIRA ZIMMERMANN                     90369570000146000001470017978000000000000000RUA SANTA CLARA,  No 67                           TRES DE MAIO                  RS989100000000000000000000000000000000000202
0000001801COOP.DE TECNICOS DO NOROESTE DO EST. DO RGS-UNITEC          01404787000110000000000000000000000000000000AV.SANTA ROSA, 310, sala 04                       TRES DE MAIO                  RS989100000000055353520520000000000000000202
0000001834CENTERMEDI COMERCIO DE PRODUTOS HOSP.LTDA                   03652030000170000001700004449000000000000000RUA ADAO WELKER,90                                BARAO DE COTEGIPE             RS997400000000054352327000000000000000000202
0000001856DIMASTER COMERCIO DE PRODUTOS HOSPITALARES                  02520829000140000001700004112000000000000000RUA VASCO GAMA, No 33                             BARAO DE COTEGIPE             RS997400000543523110826000000000000000000202
0000001857COPADIESEL COMERCIO DE PECAS E ACESSORIOS LTDA              02965225000108000001100071803000000000000000RS 344 KM 43 SALA 4                               SANTA ROSA                    RS989000000000000351257580000000000000000202
0000001858LABORATORIO DE ANALISES CLINICAS KL LTDA                    89921548000188000000000000000000000000000000RUA OSVALDO CRUZ,1011                             TRES DE MAIO                  RS989100003535878699628910000000000000000202
0000001872MODELO PNEUS LTDA.                                          94510682000126000000100061907000000000000000RUA MAL.HUMBERT DE ALENCAR CASTELO BRANCO,56      BENTO GONCALVES               RS957000000000054345565000000000000000000202
0000001929ALBERI BONMANN                                              00062412264015000000000000000000000000000000ESCRITURARIO                                      INDEPENDENCIA                 RS989150000000000000000000000000000000000201
0000001969DULCE TEIXEIRA PEREIRA                                      00046251880082000000000000000000000000000000PROFESSORA MUNICIPAL                              INDEPENDENCIA                 RS989150000000000000000000000000000000000201
0000001970CHC TRES DE MAIO LTDA                                       01628788000148000000000000000000000113635433AVENIDA SENADOR ALBERTO PASQUALINI,600            TRES DE MAIO                  RS000989100000000353584480000000000000000202
0000002011WELKE E PIEKAUA-SERVISUL LTDA                               05885883000188000000000000000000000000000000RUA BUENOS AIRES,534                              SANTA ROSA                    RS989000000003512468566430000000000000000202
0000002026SAVICKI E SCHNEIDER LTDA                                    04456171000180000000000000000000000000000000AV. TUCUNDUVA, No 345, SALA 04                    HORIZONTINA                   RS989200000000055353731900000000000000000202
0000002037ASSOCIACAO MAE RAINHA - RADIO DE INDEPENDENCIA              01235876000180000000000000000000000000000000RUA SENADOR SALGADO FILHO 517                     INDEPENDENCIA                 RS989150000000000000000000000000000000000202
0000003567CARLOS ROGERIO SPENGLER                                     00075601885087000000000000000000000000000000INDEP.                                            INDEPENDENCIA                 RS989150000000000000000000000000000000000201
0000003658ADEMIR MATIELLI                                             00040965635015000000000000000000000000000000SEC. DE OBRAS E VIACAO                            INDEPENDENCIA                 RS989150000000000000000000000000000000000201
0000003683COOP. DE CRED. DE LIVRE ADM. SICREDI - NOROESTE             89049738000157000000000000000000000000000000AV. URUGUAI, 366                                  TRES DE MAIO                  RS989100000000055353913140000000000000000202
0000003725SERPLAMED SERV.DE PLAN. E ASSES. EM MEDICINA TRAB.          07131887000104000000000000000000000000000000RUA GUAPORE, 650 SALA 06                          SANTA ROSA                    RS989000000000055351231570000000000000000202
0000003792FRANCIELE A. N. SCHRAMEIER                                  00000791721051000000000000000000000000000000ESCRITURARIO                                      INDEPENDENCIA                 RS989150000000000000000000000000000000000201
0000003793MARLICE IVONI BARTH DOS SANTOS                              00000135922038000000000000000000000000000000AG. EPIDEMIOLOGICO                                INDEPENDENCIA                 RS989150000000000000000000000000000000000201
0000003831MANTOMAC COMERCIO DE PECAS E SERVICOS LTDA                  79879318000144000000251477398000000000000000RUA CRISTOVAO COLOMBO, No 221-E                   CHAPECO                       SC898042500493361535653590000000000000000202
0000003838HAMERSKI DISTRIBUIDORA DE PECAS E ACESSORIOS LTDA           92739465000187000001100041491000000000000000RUA AUGUSTO KREBS, 139                            SANTA ROSA                    RS989000000003512237449230000000000000000202
0000003921ELI OLIVEIRA BAIOTTO                                        00065928636091000000000000000000000000000000PROFESSORA                                        INDEPENDENCIA                 RS989150000000000000000000000000000000000201
0000003923CELSO JOACIR BEYER- CELSO AUTO PECAS                        08293942000117000001470044720000000000000000RS 342, No 1180                                   TRES DE MAIO                  RS989100000000055353530260000000000000000202
0000003947VALMIR SOARES DOS SANTOS AUTO PECAS                         08262617000197000001470044568000000000000000RUA EDSON AZAMBUJA, 156                           TRES DE MAIO                  RS989100000000000353522290000000000000000202
0000003954CONSORCIO INT.DE SAUDE REG. MISSOES-CISMISSOES              02264781000157000002690003990000000000000000RUA MARIO BRUALIO RIBAS, 793                      ENTRE IJUIS                   RS988550000000000331383880000000000000000202
0000003960CONTRIBUICAO AO FAPS - DIVIDA                               87612826000190000000000000000000000000000000RUA SENADOR PINHEIRO, 1348                        INDEPENDENCIA                 RS989150000000000353911210000000000000000202
0000003986ORNEI FABIO VON MUHLEN - ME                                 06087247000173000000000000000000000000000000RUA SANTA MARIA,477                               TRES DE MAIO                  RS989100000000000353544860000000000000000202
0000004041ROSALVO KRISTIUM - ME                                       08681700000109000001980009101000000000003156AV. TR S DE MAIO, 1104                            INDEPENDENCIA                 RS989150000000055353912740000000000000000202
0000004048NICOLA VEICULOS LTDA - SANTA ROSA                           89342497000482000001100078050000000000000000AV. RUA EXPEDICIONARIO WEBER, No 2900             SANTA ROSA                    RS989000000000055351177770000000000000000202
0000004073TANIA ELIANE NAGEL                                          00069585482053000000000000000000000000000000LEILA INES NAGEL                                  INDEPENDENCIA                 RS989150000000000000000000000000000000000201
0000004078IGAM - INST. GAMA DE ASSESORIA A ORGAO PUBLICOS             07675477000116000000000000000000000000000000PORTO ALEGRE-RS                                   PORTO ALEGRE                  RS901109000000000000000000000000000000000202
0000004091LOJAS BECKER LTDA - LOJA 20                                 04415928002050000000000000000000000000000000RUA PE. CACIQUE, 981                              TRES DE MAIO                  RS989100000000000353510990000000000000000202
0000004115COOPERATIVA AGRO PECUARIA ALTO URUGUAI LTDA                 98042120004496000000000000000000000000000000AV TRES DE MAIO, 1067                             INDEPENDENCIA                 RS989150000000000353912110000000000000000202
0000004127VALDIR F. RODRIGUES LTDA ME -EMPREITEIRA RODRIGUES          01097428000167000000000000000000000000000000RUA: 15 DE NOVEMBRO, No 1827                      ALEGRIA                       RS989050000000009962395050000000000000000202
0000004144DENTALLY MAT. E EQUIP. ODONTOLOGICOS LTDA                   07832100000123000001100099287000000000000000AV. BORGES DE MEDEIROS, 716 SALA 01               SANTA ROSA                    RS989000000000055351238650000000000000000202
0000004197MARLA ELISA BERNARDI                                        00098370090044000000000000000000000000000000RUA IPIRANGA, 880                                 INDEPENDENCIA                 RS989150000000000353914400000000000000000201
0000004205HOSPITALARES COMERCIO DE MATERIAIS MEDICOS                  07571682000131000001100098205000000000000000RUA BURITI, 188                                   SANTA ROSA                    RS989000000000055351176920000000000000000202
0000004206FRACMA COMERCIAL DE PRODUTOS P/HIGIENE LTDA                 09427563000135000001100114540000000000000000RUA CORONEL BORGES FORTES, 942, SALA 01           SANTA ROSA                    RS989000000000000351255880000000000000000202
0000004252ASSOCIACAO HOSPITALAR BOM PASTOR                            90167289000120000001150024620000000000000525RUA INDEPENDENCIA, 73                             SANTO AUGUSTO                 RS985900000000000378110120000000000000000202
0000004271ENPHASE PAVIMENTACOES LTDA                                  93336030000154000000000000000000000000000000RS 344 KM 41, No 4001                             SANTA ROSA                    RS989000000000055351261940000000000000000202
0000004295PEDRO NELCI MACHADO                                         00049907018015000000000000000000000000000000MOTORISTA                                         INDEPENDENCIA                 RS989150000000009999466440000000000000000201
0000004296ANTONIO DINKOSKI                                            00038800527000000000000000000000000000000000MOTORISTA                                         INDEPENDENCIA                 RS989150000000000000000000000000000000000201
0000004298VINICIUS GRENZEL SCHMALZ - Fasoletto                        08472445000186000000000000000000000000000000av. uruguai, 160                                  TRES DE MAIO                  RS989100000000000000000000000000000000000202
0000004303BANCO DO BRASIL       S/A                                   00000000337668000000000000000000000000000000AV TRES DE MAIO, 1113                             INDEPENDENCIA                 RS989150000000000353911220000000000000000202
0000004306MIGUEL ROBERTO DE SA                                        02185603000130000001980009179000000000000000AV. 3 DE MAIO, 952                                INDEPENDENCIA                 RS989150000000000996339890000000000000000202
0000004313TREMA COMERCIO DE MATERIAIS DE CONSTRUCAO LTDA              09606109000141000001470046358000000000000000RUA BURICA, No 820                                TRES DE MAIO                  RS989100000000055353542040000000000000000202
0000004352LUIS CARLOS TORMOHLEN - PAZZATO PCS E ASSESSORIOS           09501031000109000000000000000000000000000000rua getulio vargas, 380                           INDEPENDENCIA                 RS989150000000000353911040000000000000000202
0000004368IRMAOS FLACH LTDA                                           08774832000177000000000000000000000000000000RUA ABC, 300                                      BOA VISTA DO BURICA           RS989180000000009996421290000000000000000202
0000004403ROSANE MASSAFRA ANTUNES                                     00059171847049000000000000000000000000000000RUA JOSINO FARIAS                                 INDEPENDENCIA                 RS989150000000009998592230000000000000000201
0000004420JOSE CLEOMIR GRIMM EPP                                      01454889000301000000000000000000000000000000ROD RS 344 KM 44                                  SANTA ROSA                    RS989000000000000351213990000000000000000202
0000004429CERTHIL-Materiais -COOP. DES. SOC. ENT. RIOS LTDA           10415935000192000000000000000000000000000000AVENIDA AVAI PAVILHAO 1                           TRES DE MAIO                  RS989100000000055353547000000000000000000202
0000004434BARICHELLO  COM. MAT. DE CONST. LTDA..3 de maio             10614770000188000000000000000000000000000000AV. SANTA ROSA, No 450                            TRES DE MAIO                  RS989100000000055353525270000000000000000202
0000004447ANTUNES COMERCIAL LTDA - EPP                                94978236000140000000930244974000000000000000RUA BERNARDO TAVEIRA JUNIOR, 111                  PELOTAS                       RS960775500000053322532880000000000000000202
0000004456ACONTURS-ASS.DOS CONSELHEIROS E EX-CONS.                    10604267000141000000000000000000000000000000RUA DEMETRIO RIBEIRO, 57                          ALEGRETE                      RS975422000000000000000000000000000000000202
0000004485BR MATERIAIS DE LIMPEZA LTDA                                07566796000193000000000000000000000000000000RUA ABISSIMA, No 386                              NOVO HAMBURGO                 RS935252700000051359577830000000000000000202
0000004506EVERTON DA ROSA                                             00096267020010000000000000000000000000000000CONTADOR                                          INDEPENDENCIA                 RS989150000000000000000000000000000000000201
0000004522TATIANE SCHULTZ SCHONARDIE                                  00002097802079000000000000000000000000000000INDEPENDENCIA                                     INDEPENDENCIA                 RS989150000000000000000000000000000000000201
0000004534FRANCIELI OVIEDO                                            00001553915003000000000000000000000000000000VISITADORA DO PIM                                 INDEPENDENCIA                 RS989150000000000000000000000000000000000201
0000004556PRISCILA RAUBER HENGEMUHLE - LIVRARIA NS APARECIDA          08863707000133000000963184903000000000000000RUA LUIZ DA CAMOES, No 372, LOJA D                PORTO ALEGRE                  RS900389000000051996513440000000000000000202
0000004560ANILA REDEL DA CHAGAS                                       00050056336004000000000000000000000000000000rua SENADOR PINHEIRO, 1046                        INDEPENDENCIA                 RS989150000000000000000000000000000000000201
0000004593GABRIELA TORRES RAUBER                                      08829940000108000000963254448000000000000000AV. PROTASIO ALVES, No 943, LOJA 01               PORTO ALEGRE                  RS904100000000051326141710000000000000000202
0000004598JACOB FERNANDES DE LIMA                                     00027526666087000000000000000000000000000000RINCAO FACCIN                                     INDEPENDENCIA                 RS989150000000000961395260000000000000000201
0000004610COMERCIO DE LINHAS E LAS TM LTDA/CASAS DAS LINHAS           93187300000102000001470024346000000000000000RUA HORIZONTINA, No 1034                          TRES DE MAIO                  RS989100000000055353521300000000000000000202
0000004616ANDERSON DIEGO SALAZAR                                      00001372934022000000000000000000000000000000motorista                                         INDEPENDENCIA                 RS989150000000000000000000000000000000000201
0000004628JUNG E RIBEIRO LTDA-ME                                      11355974000104000000000000000000000000000000av. tres de maio, 860                             INDEPENDENCIA                 RS989150000000009993266440000000000000000202
0000004644GEOLAC GEOLOGIA E MEIO AMBIENTE LTDA-GEOLAC                 91053736000183000000000000000000000000000000RUA SANTA CRUZ No 188 1o ANDAR                    TRES DE MAIO                  RS989100000000055353585570000000000000000202
0000004653REJANE MENEGUETTI                                           00095925813049000000000000000000000000000000AUXILIAR DE ESCRITURARIO                          INDEPENDENCIA                 RS989150000000000000000000000000000000000201
0000004666CENTRALPAR COMERCIO DE FERRAGENS LTDA                       08089067000156000000000000000000000000000000rua horizontina, 1048                             TRES DE MAIO                  RS989100000000000353514260000000000000000202
0000004684UNDIME/RS- UNIaO DOS DIRIG. MUN. DE EDUCACAO                05387322000159000000000000000000000000000000RUA MARCILIO DIAS, 574                            PORTO ALEGRE -MENINO DEUS     RS901300000000000000000000000000000000000202
0000004720MANJATO TRATORES LTDA - EPP                                 00492308000100000000000000000000000000000000Av do Comercio 1496                               SANTO AUGUSTO                 RS985900000000000378111310000000000000000202
0000004739SHOP PLANETA PURIFICADOR DE AGUA LTDA                       08276449000199000000000000000000000000000000RUA HORIZONTINA, 1030                             TRES DE MAIO                  RS989100000000055353523110000000000000000202
0000004763PRICILA P M GASPARETTO FARMACIA- ME                         11420912000139000000000000000000000000000000AV TRES DE MAIO, 1125, SALA 5                     INDEPENDENCIA                 RS989150000000000000000000000000000000000202
0000004766KLEBER AUGUSTO JUNG                                         00000716281007000000000000000000000000000000ESQUINA BOAVISTA..PATRICIA ROBERTI                INDEPENDENCIA                 RS989150000000000000000000000000000000000201
0000004801JOAO CARLOS DA SILVA BOLES                                  00046187200004000000000000000000000000000000RUA SENADOR PINHEIRO                              INDEPENDENCIA                 RS989150000000000000000000000000000000000201
0000004806HOSPITAL SAO JOSE- ASSOCIACAO DE LITERATURA E BEN           92962869001379000000000000000000000000000000AVENIDA PRESIDENTE VARGAS                         GIRUA                         RS988700000000000000000000000000000000000202
0000004813LAR DA VELHICE ERNANI LUIZ SCHNEIDER                        89968929000112000000000000000000000000000000Rua Pedro Cordenunzi, no 1300                     GIRUA                         RS988700000000055336122020000000000000000202
0000004814JOAO ROQUE GOETTEMS-MEI - INSS 12042837514                  12775871000166000000000000000000000000003313AV TRES DE MAIO No 743                            INDEPENDENCIA                 RS989150000000009997764270000000000000000202
0000004816MECAUTOR MECANICA E COMERCIO DE AUTOMOTORES LTDA            87704151000532000000000000000000000000000000RUA AV CEL. DICO No 1552                          IJUI                          RS987000000000000000000000000000000000000202
0000004824OI S.A- EM RECUPERAcaO JUDICIAL                             76535764000143000000000000000000000000000000rua do lavradio                                   RIO DE JANEIRO                RJ202300700000071313131790000000000000000202
0000004827MARCOS NOGARA                                               00077365232072000000000000000000000000000000MECANICO                                          INDEPENDENCIA                 RS989150000000000000000000000000000000000201
0000004836FLAVIO  AUGUSTO POHL                                        00000111513073000000000000000000000000000000FISCAL                                            INDEPENDENCIA                 RS989150000000000000000000000000000000000201
0000004844LOVANI MARINES SCHAKOFSKI BUBLITZ                           00078764629015000000000000000000000000000000ESQUINA BUDEL                                     INDEPENDENCIA                 RS989150000000000963489160000000000000000201
0000004846RODRIGO GEHM- TREMADIESEL                                   09624629000187000000000000000000000018137345RUA HORIZONTINA, 2035                             TRES DE MAIO                  RS989100000000055353594320000000000000000202
0000004876VERIDIANA NOGARA                                            00000912518006000000000000000000000000000000RUA SAO MIGUEL                                    INDEPENDENCIA                 RS989150000000000964684410000000000000000201
0000004895COOPERATIVA AGRO PECUARIA ALTO URUGUAI LTDA                 98042120000156000000000000000000000000000000AVENIDA URUGUAI                                   TRES DE MAIO                  RS989100000000000353596170000000000000000202
0000004959CELONI TABORDA ZIMMERMANN MEI INSS 17017607072              97551920000130000000000000000000000000000000RUA SANTA ROSA DE LIMA                            INDEPENDENCIA                 RS989150000000000916245660000000000000000202
0000004977GENTE SEGURADORA S.A.                                       90180605000102000000000000000000000000000000AVENIDA CARLOS GOMES, 350                         PORTO ALEGRE                  RS904800000000051302388880000000000000000202
0000004980PORTO SEGURO COMPANHIA DE SEGUROS GERAIS                    61198164000160000000000000000000000000000000RUA GUAIANAZES, 1238                              SAO PAULO                     SP012040010000011336632580000000000000000202
0000004987IMPRENSA NACIONAL                                           04196645000100000000000000000000000000000000SETOR DE INDUSTRIAS GRAFICAS, QUADRA 6, LOTE 800  BRASILIA                      DF706104600000000000000000000000000000000202
0000004993ELITE COMERCIO DE VEICULOS LTDA                             13347671000175000000000000000000000000000000ROD. BR 285 KM 457 S/N                            IJUI                          RS987000000000000000000000000000000000000202
0000004994MARISA ROSA DE OLIVEIRA                                     00028429348816000000000000000000000000000000RUA SOROCABA No387                                INDEPENDENCIA                 RS989150000000000000000000000000000000000201
0000004996JANETE BERFT ROSANELLI                                      00001522176063000000000000000000000000000000RUA MIGUEL TORZESKI No171                         INDEPENDENCIA                 RS989150000000000000000000000000000000000201
0000004997CARLOS RENAN BORGES                                         00001968121005000000000000000000000000000000RUA MANOEL DA NOBREGA No580                       INDEPENDENCIA                 RS989150000000000000000000000000000000000201
0000004999SUSANA AMORIN DE CAMPOS                                     00000442817061000000000000000000000000000000RUA SAO MIGUEL No222                              INDEPENDENCIA                 RS989150000000000000000000000000000000000201
0000005000MARIA ODETE BORGES                                          00077397622020000000000000000000000000000000RUA COSTA E SILVA No478                           INDEPENDENCIA                 RS989150000000000000000000000000000000000201
0000005001ILIANI DA ROSA CORREA                                       00000887275052000000000000000000000000000000RUA DUQUE DE CAXIAS No629                         INDEPENDENCIA                 RS989150000000000000000000000000000000000201
0000005002ROSANI DE FATIMA BORGES                                     00000579344010000000000000000000000000000000RUA AMARO LEITE No160                             INDEPENDENCIA                 RS989150000000000000000000000000000000000201
0000005003ANGELITA RODRIGUES ERTE                                     00001250041090000000000000000000000000000000RUA JOSINO FARIAS No250                           INDEPENDENCIA                 RS989150000000000000000000000000000000000201
0000005004ROSIANE ELISOLENE DE BARROS                                 00001505051088000000000000000000000000000000RUA JULIO DE CASTILHOS N o636                     INDEPENDENCIA                 RS989150000000000000000000000000000000000201
0000005005TERESINHA BOIARSKI MASSUDA                                  00077400780000000000000000000000000000000000RUA SANTO ANGELO No164                            INDEPENDENCIA                 RS989150000000000000000000000000000000000201
0000005006SABRINA NOGARA                                              00001702053040000000000000000000000000000000RUA MARECHAL DEODORO No75                         INDEPENDENCIA                 RS989150000000000000000000000000000000000201
0000005007DEJANIRA SIQUEIRA DA SILVA                                  00069585091020000000000000000000000000000000RUA SENADOR PINHEIRO No1070                       INDEPENDENCIA                 RS989150000000000000000000000000000000000201
0000005008SUELI SCHMITZ                                               00026238500034000000000000000000000000000000RUA GETULIO VARGAS No210                          INDEPENDENCIA                 RS989150000000000000000000000000000000000201
0000005009BLONDINA FOBRICH                                            00074979787053000000000000000000000000000000RUA ANTONIO RUFINO No46                           INDEPENDENCIA                 RS989150000000000000000000000000000000000201
0000005010JANETE DE FATIMA VARGAS TABORDA                             00091169348068000000000000000000000000000000RUA 16(01),0/L18 Q131                             INDEPENDENCIA                 RS989150000000000000000000000000000000000201
0000005012JANE DE LIMA                                                00002203560096000000000000000000000000000000RUA 16(01), 0/ L17 Q131                           INDEPENDENCIA                 RS989150000000000000000000000000000000000201
0000005014ELCIR TEREZINHA CORNELIUS                                   00077279379087000000000000000000000000000000GILSILEIA CORNELIUS                               INDEPENDENCIA                 RS989150000000000000000000000000000000000201
0000005016IZOLDIR DE FATIMA CORREA MIRANDA                            00089916700087000000000000000000000000000000RUA 16(01), 0L04 Q 120                            INDEPENDENCIA                 RS989150000000000000000000000000000000000201
0000005017MARIA ELISA SILVA DOS SANTOS                                00064698360030000000000000000000000000000000RUA 14, 1/ L01-A Q85                              INDEPENDENCIA                 RS989150000000000000000000000000000000000201
0000005018NOELI ALMEIDA BATISTA                                       00001849954003000000000000000000000000000000R16 L06 Q119                                      INDEPENDENCIA                 RS989150000000000000000000000000000000000201
0000005019ELISABETH TERESINHA TABORDA DE MORAE                        00046359877015000000000000000000000000000000RUA 16(01) ,0/L05Q119                             INDEPENDENCIA                 RS989150000000000000000000000000000000000201
0000005020MARINES SILVA DOS SANTOS                                    00001446121003000000000000000000000000000000RUA 16(01) L20 Q131                               INDEPENDENCIA                 RS989150000000000000000000000000000000000201
0000005021MARISTELA TERESINHA WORMANN                                 00000688332021000000000000000000000000000000RUA 14 L12A Q85                                   INDEPENDENCIA                 RS989150000000000000000000000000000000000201
0000005022BEATRIZ TELES DOS SANTOS                                    00001891088009000000000000000000000000000000RUA 14 L03 Q85                                    INDEPENDENCIA                 RS989150000000000000000000000000000000000201
0000005023MARIA CLEIDI HERMES DA SILVA                                00002115746007000000000000000000000000000000RUA 16/01 L16 Q129                                INDEPENDENCIA                 RS989150000000000000000000000000000000000201
0000005024MARLENE DE SOUZA RODRIGUES                                  00000380170086000000000000000000000000000000RUA 16/01 L06 Q120                                INDEPENDENCIA                 RS989150000000000000000000000000000000000201
0000005026NILCE TEREZINHA WAGNER                                      00070232393087000000000000000000000000000000RUA 16/01 L09 Q119                                INDEPENDENCIA                 RS989150000000000000000000000000000000000201
0000005027SANTA IVONE ZIMMERMANN LUBIAN                               00092785743091000000000000000000000000000000RUA 14 L16-A Q85                                  INDEPENDENCIA                 RS989150000000000000000000000000000000000201
0000005028MARIA CLAUDETE DE OLIVEIRA                                  00056977360020000000000000000000000000000000R 14 L05 Q85                                      INDEPENDENCIA                 RS989150000000000000000000000000000000000201
0000005029ELISSANDRA MONTEIRO LESSE                                   00001629030066000000000000000000000000000000R16 L07 Q119                                      INDEPENDENCIA                 RS989150000000000000000000000000000000000201
0000005030VILMA ANTONIA DE OLIVEIRA DORNELLES                         00096200804087000000000000000000000000000000RUA 16/01 L15 Q129                                INDEPENDENCIA                 RS989150000000000000000000000000000000000201
0000005031JOAO RENATO RUARO                                           00000926196065000000000000000000000000000000RUA 14 L11A Q85                                   INDEPENDENCIA                 RS989150000000000000000000000000000000000201
0000005032MARILENE DE LIMA                                            00001418784010000000000000000000000000000000RUA 16/01 L18 Q129                                INDEPENDENCIA                 RS989150000000000000000000000000000000000201
0000005033ROSELAINE DOS SANTOS                                        00002620789028000000000000000000000000000000RUA 16/03 L13 Q131                                INDEPENDENCIA                 RS989150000000000000000000000000000000000201
0000005034ELISIANE FATIMA DIAS SOARES                                 00001260305023000000000000000000000000000000AV IGNACIO PINTO 0 L20 A129                       INDEPENDENCIA                 RS989150000000000000000000000000000000000201
0000005036LUCIANA BORGES DA SILVA                                     00002714135064000000000000000000000000000000RUA 14 L15A Q85                                   INDEPENDENCIA                 RS989150000000000000000000000000000000000201
0000005037TATIANE APARECIDA CORREA MOTA                               00001576820050000000000000000000000000000000RUA 16/01 L14 Q129                                INDEPENDENCIA                 RS989150000000000000000000000000000000000201
0000005044DPM EDUCACAO LTDA                                           13021017000177000000000000000000000000000000AV. PERNAMBUCO, 1001, TERREO                      PORTO ALEGRE                  RS902400040000051302734000000000000000000202
0000005102INST. NAC. DE METROLOGIA, QUALID. E TECN - INMETRO          00662270000320000000000000000000000000000000AV. NOSSA SENHORA DAS GRACAS, 50                  XEREM                         RJ250702350000000000000000000000000000000202
0000005110L A DALLA PORTA JUNIOR                                      11145401000156000000000000000000000000000000RUA PASCOAL  GOMES LIBRELOTTO N20                 SANTA MARIA                   RS970100700000055302599000000000000000000202
0000005115MEDPLUS COM. ARTIGOS MEDICOS LTDA                           01706665000188000000000000000000000000000000BARAO DO TRIUNFO No 1861                          SANTA MARIA                   RS970954650000055321920870000000000000000202
0000005118COMERCIAL HETTWER-LEONILDA HUBNER HETTWER                   94681913000164000000000000000000000000000000RUA SAO PAULO No200                               TRES DE MAIO                  RS989100000000000353586260000000000000000202
0000005121ANDREI LOTTERMANN - INSS 11463625485                        00064122417015000000000000000000000000000000NENHUM                                            INDEPENDENCIA                 RS989150000000000332225880000000000000000201
0000005134FELICE AUTOMOVEIS LTDA (SR).                                91525790001075000000000000000000000000000000R EXPEDICIONARIO WEBER                            SANTA ROSA                    RS989000000000000351310000000000000000000202
0000005147LUCIANO DIAS PIRES - MEI                                    14824255000183000000000000000000000000000000AV INACIO PINTO 1036                              INDEPENDENCIA                 RS989150000000000000000000000000000000000202
0000005208LUIZ VANDERLEI GOMES DA SILVA - MEI                         14361803000186000000000000000000000000000000AVENIDA SANTA ROSA 672                            TRES DE MAIO                  RS989100000000000000000000000000000000000202
0000005223JOAILTON DE SIQUEIRA - MEI                                  14150623000155000000000000000000000000000000TV RS 342    No 652                               TRES DE MAIO                  RS989100000000000000000000000000000000000202
0000005224NOEDI TIECKER CAVALHEIRO-MEI - INSS 11622716170             15303066000128000000000000000000000000000000RUA SOA JOAO  1468                                INDEPENDENCIA                 RS989150000000000353911360000000000000000202
0000005254NEUSA KUHLER                                                00065163559087000000000000000000000000000000SENADOR PINHEIRO 1348                             INDEPENDENCIA                 RS989150000000000353911180000000000000000201
0000005257OFICIO DE REGISTROS PUBLICOS - MADALENA M. MAICA            00038474484049000000000000000000000000003449AV. TRES DE MAIO,                                 INDEPENDENCIA                 RS989150000000000000000000000000000000000201
0000005258ZEFERINO NOGARA - MEI - INSS 12233307633                    16656109000111000000000000000000000000000000ESQUINA ARAUJO CPF 197.705.370-04                 INDEPENDENCIA                 RS989150000000000000000000000000000000000202
0000005267DEISY TAHANA ROSANELI DALLA COSTA                           13794079000111000000000000000000000000000000SANTA ROSA 2340                                   TRES DE MAIO                  RS989100000000055991321290000000000000000202
0000005301BUTZKE CONTRUCOES LTDA - ME LOJA INDEPENDENCIA              93587293000136000000000000000000000000000000AV TRES DE MAIO 750                               INDEPENDENCIA                 RS989150000000055353913200000000000000000202
0000005325CHARLES ALAIR MEINKE SERIGRAFIA-MEI                         17635464000177000000000000000000000000000000RUA ANISIO ARAUJO E SILVA, 223                    INDEPENDENCIA                 RS989150000000559997719650000000000000000202
0000005349FERREIRA E SANTOS ACESSORIOS P/ VEICULOS LTDA ME            16668049000157000000000000000000000000000000ROD  BR 472   KM 31       No 560                  TRES DE MAIO                  RS989100000000000000000000000000000000000202
0000005353EMPRESA BRASILEIRA DE CORREIOS E TELEGRAFOS. MAT.           34028316002661000000000000000000000000000000R SIQUEIRA CAMPOS  No 1100                        PORTO ALEGRE                  RS900029000000000000000000000000000000000202
0000005375GABRIEL DOBLER DASSOW - MEI - INSS 21047464049              16661758000100000000000000000000000000000000R. GETULIO VARGAS 713                             INDEPENDENCIA                 RS989150000000000000000000000000000000000202
0000005383CRISTIANA FRITZEN MONITORAMENTO - ME                        15436500000148000000000000000000000000000000AV. SANTA ROSA 363, SALA 02                       TRES DE MAIO                  RS989100000000055353528520000000000000000202
0000005394BELLA PRESENTES E UTILIDADES LTDA - ME                      18012618000137000000000000000000000000000000AV. TRES DE MAIO, 997                             INDEPENDENCIA                 RS989150000000055353911680000000000000000202
0000005404ALFLEN   WAECHTER LTDA - ME                                 17728279000127000000000000000000000000000000RUA AMANDIO JAHN, 523 SALA 01                     SAO JOSE DO INHACORA          RS989580000000000000000000000000000000000202
0000005419STERICYCLE GESTaO AMBIENTAL LTDA FILIAL 05                  01568077000710000000000000000000000000000000ESTRADA MARCIANO FLORES MENDONCA, S/N             SANTA MARIA- 55-98156-0007    RS970100700000055302636670000000000000000202
0000005433TERESINHA MARCZEWSKI ZAVASKI EIRELI ME                      18374107000165000000000000000000000000000000AVENIDA TRES DE MAIO 609                          INDEPENDENCIA                 RS989150000000000000000000000000000000000202
0000005449JANETE ROSELI DE OLIVEIRA DAL FORNO                         00077365534087000000000000000000000000000000ESQUINA SALETE                                    INDEPENDENCIA                 RS989150000000000000000000000000000000000201
0000005467VAGNER ALOISIO LORO                                         00098692348015000000000000000000000000000000RUA KAISER 149                                    TRES DE MAIO                  RS989100000000000000000000000000000000000201
0000005471IRINEU ANTONIO SCHMIDT                                      00001114769096000000000000000000000000000000RUA PARAGUAI, 06                                  SANTA ROSA                    RS989000000000000000000000000000000000000201
0000005498VANDERLEI ROQUE BERTOLDO - MEI                              18651431000183000000000000000000000000000000RUA SOROCABA, 1400                                INDEPENDENCIA                 RS989150000000000000000000000000000000000202
0000005504BRPREV AUDITORIA E CONSULTORIA ATUARIAL LTDA ME             18615216000127000000000000000000000000000000ESTRADA CHAPEU DO SOL                             PORTO ALEGRE                  RS917870300000000000000000000000000000000202
0000005508LOIVA MARIA WELTER WILLERS ME                               17842732000121000000000000000000000000000000RUA MARECHAL CANDIDO RONDON 1576                  INDEPENDENCIA                 RS989150000000000000000000000000000000000202
0000005512JEDIELSON MASSUDA DA SILVA                                  00001622246055000000000000000000000000000000RUA MANOEL DA NOBREGA, 628                        INDEPENDENCIA                 RS989150000000000000000000000000000000000201
0000005514SANDRO ANTONIO ZARZECKI                                     97305866000142000000000000000000000000000000AVENIDA MAUA 204                                  NOVO MACHADO                  RS989550000000055354410410000000000000000202
0000005545GUILHERME XAVIER PIVA ME- QUALITECK INFORMATICA             18136904000104000000000000000000000000000000RUA  BARAO DE ANTONINA No 200                     CARAZINHO                     RS995000000000054996011610000000000000000202
0000005550SECR. DE DESENV. RURAL, PESCA E COOPERATIVISMO              13106183000176000000000000000000000000000000AV. PRAIA DE BELAS, 1768                          PORTO ALEGRE                  RS900400010000051321833990000000000000000202
0000005556LUIS ALBERTO DEBESAITIS                                     00047217260078000001471095980000000000000000  QUARAINZINHO                                    TRES DE MAIO                  RS989100000000559961396590000000000000000201
0000005584MXX DISTRIBUIDORA DE ABRASIVOS, FERRAMENTAS E EPIS          08858271000194000000000000000000000000000000avenida inhacora 715                              SANTA ROSA                    RS989000000000000000000000000000000000000202
0000005649JOSE OTAVIO TAVARES SOUTO - MEI - INSS 12912719684          14405434000186000000000000000000000000000000AV MONTE CASTELO  354                             INDEPENDENCIA                 RS989150000000000845497830000000000000000202
0000005651JOAO ROQUE BARASUOL BERTI-MEI INSS 11332438371              95136685000104000001980004509000000000002208RUA GENREAL COSTA E SILVA, 1082                   INDEPENDENCIA                 RS989150000000055916301450000000000000000202
0000005653SERGIO EZEQUIEL DE OLIVEIRA -ME                             13637997000137000000000000000000000000000000RUA LEONEL DE MORA BRIZOLA, N08 GALPAO            TRES DE MAIO                  RS989100000000000969765840000000000000000202
0000005658MAIKEL GELATI                                               00002580418032000000000000000000000000000000COLONIA MEDEIROS                                  INDEPENDENCIA                 RS989150000000000000000000000000000000000201
0000005713JORGE LUIS DOS SANTOS                                       00001035609045000000000000000000000000000000AV. TRES DE MAIO, 734                             INDEPENDENCIA                 RS989150000000000000000000000000000000000201
0000005730ITAIMBE AUTOMOVEIS LTDA                                     01656038000775000000000000000000000000000000AV. CORONEL DICO, 1626                            IJUI                          RS987000000000000000000000000000000000000202
0000005756CHAPEMAQUINAS COMERCIO E SERVICOS LTDA - ME                 07869457000186000000000000000000000000000000RUA OSVALDO CRUZ, 222 E                           CHAPECO                       SC898040500000049890014410000000000000000202
0000005783LEANDRO STRINGARI ME                                        21681063000120000000000000000000000000000000RUA JOSE DE ANCHIETA 206                          HORIZONTINA                   RS989200000000055964256640000000000000000202
0000005818ATMSUL COMERCIO DE ELETROELETRONICOS LTDA                   21745966000128000000000000000000000000000000AV. SENADOR ALBERTO PASQUALINI 381 SALA 01        TRES DE MAIO                  RS989100000000000353549340000000000000000202
0000005821ALEXANDER RAFAEL BENATTI - ME                               21405623000114000000000000000000000000000000RUA JOAO XXIII, 2599                              HORIZONTINA                   RS989200000000055998848720000000000000000202
0000005822KF DISTRIBUIDORA DE MEDICAMENTOS LTDA                       15068089000103000000000000000000000000000000RUA MARECHAL CASTELO BRANCO 287                   IBIACA                        RS999400000000054337410360000000000000000202
0000005864ALEXANDRE BASSAN DA SILVEIRA - MEI                          17500279000175000000000000000000000000000000RUA MACEIO, 304                                   IJUI                          RS987000000000055997479860000000000000000202
0000005889MARCELO DE OLIVEIRA DAL FORNO                               00002478792079000000000000000000000000000000Av TRES DE MAIO 921                               INDEPENDENCIA                 RS989150000000000000000000000000000000000201
0000005890ARNOLDO MAIER MULLER                                        00051775301087000000000000000000000000000000RUA PE. JOSE ANCHIETA, 648                        INDEPENDENCIA                 RS989150000000009997959140000000000000000201
0000005908J MALUCELLI EQUIPAMENTOS S/A                                95424321001100000000000000000000000000000000ROD BR392, 2781                                   SANTA MARIA                   RS970701600000055321908200000000000000000202
0000005923TUTTO PECAS EIRELI - ME                                     21781278000113000000000000000000000000000000RUA BENVENUTO DE CONTI, 327                       SANTA ROSA                    RS989000000000005596940850000000000000000202
0000005924TELEFONIA BRASIL S.A.                                       02558157001720000000000000000000000000000000AV. JOSE BONIFACIO, 245                           PORTO ALEGRE                  RS900401300000011962242570000000000000000202
0000005925DARCY CORREA BORGES                                         00038804557087000000000000000000000000000000TRV. MARIO LEITE, 160                             INDEPENDENCIA                 RS989150000000055999330700000000000000000201
0000005931MARIVANE FATIMA DE OLIVEIRA                                 00095317732034000000000000000000000000000000JOSINO FARIAS 365                                 INDEPENDENCIA                 RS989150000000055914518970000000000000000201
0000005955REFRIGERACAO KLEIN LTDA- ME                                 87805123000188000000000000000000000000000000RUA RIO DE JANEIRO                                SANTO CRISTO                  RS989600000000055354112370000000000000000202
0000005964BUSCAR ASSESSORIA LTDA-ME                                   23890638000140000000000000000000000000000000rua ijui, 3661                                    DERRUBADAS                    RS985280000000055962253740000000000000000202
0000005965ELISIANO AZOLIM - ME                                        23173286000102000000000000000000000000000000RUA PRUDENTE DE MORAES, 2260                      INDEPENDENCIA                 RS989150000000055961497750000000000000000202
0000005966AMANCIO DE MEDEIROS BORGES                                  00019320191034000000000000000000000000000000ESQUINA KREVER S/N                                INDEPENDENCIA                 RS989150000000055353914400000000000000000201
0000006084AIR LIQUIDE BRASIL- LTDA                                    00331788006583000000000000000000000000000000travessa adao comassetto, 170                     SANTA MARIA                   RS970100700000055321430480000000000000000202
0000006172VEM-SER SERVICOS EM PSICOLOGIA LTDA- ME                     16954040000102000000000000000000000000000000AV SENADOR ALBERTO PASQUALINI 257                 TRES DE MAIO                  RS989100000000009910112650000000000000000202
0000006189CARLOS ROBERTO REIS                                         00070948763949000000000000000000000000000000RUA MONTE CASTELO, 700                            INDEPENDENCIA                 RS989150000000000000000000000000000000000101
0000006191EUVITA CLINICA E CONSULTORIA LTDA                           08791548000109000000000000000000000000000000RUA SANTA HELENA, 585                             TRES DE MAIO                  RS989100000000055994817650000000000000000102
0000006193SIMON INSPECAO VEICULAR LTDA - ME                           08225436000271000000000000000000000000000000RUA NILDO SCHROER, 152 A                          IJUI                          RS987000000000055374264230000000000000000102
0000006259FILIPPE COMERCIO DE PECAS LTDA - EPP                        73202475000134000000000000000000000000000000RUA MAURICIO CARDOSO, 630                         FREDERICO WESTPHALEN          RS984000000000000000000000000000000000000102
0000006262SASSI DESENVOLVIMENTO PROFISSIONAL LTDA - ME                12584696000120000000000000000000000000000000centro                                            SARANDI                       RS995600000000549998489390000000000000000102
0000006265JOSE CARLOS MULLER PIPPER MEI- PIS 2076932978-5             26945211000190000000000000000000000000000000Rua Arnoldo Schloz 151                            INDEPENDENCIA                 RS989150000000559964229300000000000000000102
0000006272ANDRESSA I.F.CALZA E CIA LTDA-ME                            12779937000196000000000000000000000000000000RUA HORIZONTINA No 833                            TRES DE MAIO                  RS989100000000000353514740000000000000000102
0000006279DAKA COMERCIO DE EMBALAGENS LTDA                            05893461000154000000000000000000000000000000RUA HELMUTO SIMM, No 77                           HORIZONTINA                   RS989200000000000353710440000000000000000102
0000006291CRISTIANO DUARTE-ME                                         14480526000120000000000000000000000000000000rua pedro cordenunci 380 SALA 01                  REDENTORA                     RS985500000000009992135130000000000000000102
0000006304ZENAIDE HEINSCH                                             00052378470053000000000000000000000000000000ESQUINA BOA VISTA                                 INDEPENDENCIA                 RS989150000000000000000000000000000000000201
0000006308NOEMIA IVONE RIBEIRO                                        00034683275015000000000000000000000000000000RUA SOROCABOCA 1289                               INDEPENDENCIA                 RS989150000000000000000000000000000000000101
0000006311NEW SOFT INFORMATICA                                        13433599000107000000000000000000000000000000Rua Cisconde de Pelotas, 450                      SANTA MARIA                   RS970104400000055322290160000000000000000202
0000006346MDS SERVICOS ELETRICOS LTDA ME                              09208820000148000000000000000000000000000000ESTRADA RS 342 KM 20 No 295                       HORIZONTINA                   RS989200000000559812659900000000000000000102
0000006353DEBORA TAIRINE PRESTES                                      00002864139065000000000000000000000000000000RUA PRESIDENTE GETULIO VARGAS, 357                INDEPENDENCIA                 RS989150000000559999908660000000000000000201
0000006365DELCIO SCHAKOFSKI SIEPMANN - ME                             14644805000182000000000000000000000000000000RUA PRESIDENTE KENNEDY,2108                       INDEPENDENCIA                 RS989150000000055353912530000000000000000102
0000006366LUCIANE XIMENDES LAQUIMAN-ME                                18024516000131000000000000000000000000000000Coronel Serafim dos Anjos, 577                    CAPAO DO LEAO                 RS961600000000000000000000000000000000000102
0000006375ALTERMED MATERIAL MEDICO HOSPITALAR LTDA                    00802002000102000000000000000000000000000000ESTRADA BOA ESPERANCA 2320                        RIO DO SUL                    SC891600000000047352090000000000000000000102
0000006385ANTONIO LUBIAN - MEI                                        21794531000173000000000000000000000000000000RUA SOROCABA, 955                                 INDEPENDENCIA                 RS989150000000559913253090000000000000000202
0000006398DENTAL OESTE EIRELI EPP                                     05412147000102000000000000000000000000000000rua da flores, no 549                             IPORA DO OESTE                SC898990000000049363410470000000000000000102
0000006401ODONTOMEDI PRODUTOS ODONTOLOGICOS E HOSPITALARES            06194440000103000000000000000000000000000000avenida luiz antonio faedo, 1612                  FRANCISCO BELTRAO - B. SAO MIGPR856025100000046352418340000000000000000102
0000006406LUCIANETE DOS SANTOS                                        00000998888079000000000000000000000000000000RUA JULHO DE CASTILHOS, 81                        INDEPENDENCIA                 RS989150000000559965730550000000000000000101
0000006410MECAUTOR MECANICA E COMeRCIO DE AUTOMOTORES-LTDA            87704151000109000000000000000000000000000000av. ipiranga no 826                               SANTO ANGELO                  RS988032300000055331205000000000000000000102
0000006424FACE CARD ADMINISTRADORA DE CARTOES LTDA-ME                 21935659000100000000000000000000000000000000RUA TREZE DE MAIO, No 670, SALA 7, CENTRO         LIMEIRA (VER CEP POR LOGRADOURSP134800000000000000000000000000000000000102
0000006442VILSON DE MORAES-PF                                         00059837853034000000000000000000000000000000RUA SAO ROQUE 437                                 INDEPENDENCIA                 RS989150000000055968125690000000000000000101
0000006463MIGUEL NOGARRA                                              00017684668072000000000000000000000000000000rua sao joao 236                                  INDEPENDENCIA                 RS989150000000000353912030000000000000000101
0000006504IRINEU EUGENIO B. SOARES mei (C F CONCERTOS)                28095761000193000000000000000000000000000000RUA SANTA ROSA DE LIMA No 827 C F CONCERTOS       INDEPENDENCIA                 RS989150000000055996828970000000000000000102
0000006512BIANCHETTI E MOSACK LTDA                                    24792969000100000000000000000000000000000000av. 21 de abril                                   IJUI                          RS987000000000000319501810000000000000000102
0000006531AR CONTADORES CERTIFICACAO DIGITAL LTDA - ME                03151200000133000000000000000000000000000000AV. GETULIO VARGAS, 774 SALLA 401                 PORTO ALEGRE                  RS901500010000051302576000000000000000000102
0000006536ANGELINA BORGES BONFIM                                      00077983599072000000000000000000000000000000RUA SENADOR PINHEIRO, 928..Jose W. N. Bonfim      INDEPENDENCIA                 RS989150000000559999438810000000000000000101
0000006548RUDIMAR JACO SEHNEM - ME   FLORICULTURA LUZ DA LUA          03527385000138000000000000000000000000000000ROD RS 210 S/N                                    BOA VISTA DO BURICA           RS989180000000559962610750000000000000000102
0000006576SIMONE HEIN SCHEKOVITZ                                      00002338569008000000000000000000000000000000RUA THEOBALDO KREVER, 878..Fabio G. Hermes        INDEPENDENCIA                 RS989150000000559965066130000000000000000101
0000006579ROBERTO DE SOUZA GUTERRES - MEI                             21972284000158000000000000000000000000000000DT LINHA FIGUEIRA, SN                             PIRAPO                        RS978850000000559996136100000000000000000202
0000006602DIANA WITCZAK- SHANTI YOGA                                  28413676000126000000000000000000000000000000rua esquina grapia                                DOUTOR MAURICIO CARDOSO       RS989250000000000964048140000000000000000102
0000006619FUNDO NACIONAL DE DESENVOLVIMENTO DA EDUCACAO               00378257000181000000000000000000000000000000ST BANCARIO SUL QD. 02 BL. F ED. AURE             BRASILIA                      DF700709290000006121248240000000000000000102
0000006620GEOPIX DO BRASIL LTDA - EPP                                 04556970000129000000000000000000000000000000AV T4, 1478 QUADRA 169 LOTE 01 SALA 154B E155B    GOIANIA                       GO740000000000062325153450000000000000000102
0000006637TIAGO BRASIL DORNELES   CIA LTDA - ME                       10926435000115000000000000000000000000000000R EXPEDICIONARIO BERTOLDO BOECK, 136              TRES DE MAIO                  RS989100000000000353524590000000000000000102
0000006638ROSA MARIANO DE ALMEIDA                                     00000019217030000000000000000000000000000000RUA SOROCABA No 666                               INDEPENDENCIA                 RS989150000000009972334240000000000000000201
0000006664LUIS ALBERTO LEVY                                           26433807000101000000000000000000000000000000avenida tres de maio, 669                         INDEPENDENCIA                 RS989150000000009999759440000000000000000102
0000006671GERISA F. DOS SANTOS                                        27523326000150000000000000000000000000000000Rua General Osorio, 1430, centro                  VENANCIO AIRES                RS958000000000000000000000000000000000000102
0000006684MARCIO MAKOSKI DO ROSaRIO-MEI                               28871767000105000000000000000000000000000000rua antonio prado, no 50                          INDEPENDENCIA                 RS989150000000009966521430000000000000000102
0000006699CRVR- COMP. RIO GRAN. VALORIZAcaO DE RESiDUOS LTDA          03505185000184000000000000000000000000000000br 290, km 181,                                   MINAS DO LEAO (BUTIA)         RS967550000000051322707670000000000000000102
0000006746SUELI TERESINHA RAVISON                                     00076167321000000000000000000000000000000000SAO MIGUEL, INTERIOR                              INDEPENDENCIA                 RS989150000000000000000000000000000000000101
0000006747FABIANE LUCIA SOMMAVILLA                                    00002407478010000000000000000000000000000000Rua Getulio Vargas, 451,                          INDEPENDENCIA                 RS989150000000000000000000000000000000000101
0000006756S. SCHNEIDER - EPP                                          28629492000106000000000000000000000000000000Avenida Cel. Marcos Jose de Leao, 583, sala 2     FELIZ                         RS957700000000051363729020000000000000000102
0000006759PNEU BOM EIRELI- EPP                                        21609270000174000000000000000000000000000000Rua Luiz Costa, 400, sala 01                      TAPEJARA                      RS999500000000054334411930000000000000000102
0000006768DENTAX COMERCIO DE PRODUTOS ODONTOLOGICOS LTDA              21596355000165000000000000000000000000000000Rua Dirceu Jose Felipetti, 535                    BARAO DE COTEGIPE             RS997400000000054352322720000000000000000102
0000006776AGROINDUSTRIA POLPAS DE FRUTAS CITRICAS DO ABREU            21850845000146000000000000000000000000000000Rua Jose de Anchieta,73                           HORIZONTINA                   RS989200000000000000000000000000000000000102
0000006780PLANALTO COMERCIO E TRANSPORTES DE ALIMENTO LTDA-M          19633424000111000000000000000000000000000000RUA DO COMERCIO, SALA 3                           PLANALTO ALEGRE (CAXAMBU DO SUSC898820000000049332837440000000000000000102
0000006782SIFA  COMeRCIO DE MATERIAIS DE LIMPEZA EIRELI               27040523000118000000000000000000000000000000RUA VASCONCELLOS 851                              CAMPINAS DO SUL               RS996600000000549966336430000000000000000102
0000006790CONASEMS - CONS. NAC. SECRET. MUNIC. SAUDE                  33484825000188000000000000000000000000000000ESPL MINISTERIOS BLOCO G EDIF ANEXO SALA 144 ALA BBRASILIA                      DF700589000000000000000000000000000000000202
0000006799TABELIONATO INDEP. MARCOS COSTA SALOMAO                     00066999758034000000000000000000000000000000SENADOR SALGADO FILHO 635                         INDEPENDENCIA                 RS989150000000000000000000000000000000000201
0000006814IVO CASSEMIRO DEBALD                                        00029036259053000000000000000000000000000000LAJEADO ENCANTADO                                 INDEPENDENCIA                 RS989150000000559962870750000000000000000101
0000006821JEAN LENON CORO MONTEIRO                                    00001041776080000000000000000000000000000000CONTROLADOR INTERNO                               INDEPENDENCIA                 RS989150000000559914232450000000000000000101
0000006822SCHEILA STROHSCHOEN E CIA LTDA-ME                           18784151000143000000000000000000000000000000av. tres de maio 1150, sala 1                     INDEPENDENCIA                 RS989150000000000000000000000000000000000102
0000006855CONSTRUTORA BOA VISTA EIRELI-ME                             29233142000180000017310016534000000000001710TRAVESSA PARDAL, 72, SALA 1                       BOA VISTA DO BURICA           RS989180000000009991153230000000000000000102
0000006856GRA ASSES E CONS. EM NEG. INTERNACIONAIS EIRELI             14767899000187000000000000000000000000000000ROD. RSC 453 - KM0,2                              VENANCIO AIRES                RS958000000000051379329500000000000000000202
0000006857IRINEU MAIER BOYARSKI JUNIOR-MEI                            30058029000195000000000000000000000000000000RUA SANTO ANGELO 521                              INDEPENDENCIA                 RS989150000000000964815720000000000000000102
0000006874MAURICIO VINDERFELTES PADILHA                               00001803219009000000000000000000000000000000AV. TRES DE MAIO                                  INDEPENDENCIA                 RS989150000000055353942000000000000000000201
0000006881SELIA M HERMANS                                             29806057000164000000000000000000000000000000rua comandai, 74                                  SANTA ROSA                    RS989000000000055351232610000000000000000102
0000006911AVATAR ECO AMBIENTAL LTDA- ME                               17705598000117000000000000000000000000000000RUA PADRE CACIQUE , 1677                          TRES DE MAIO                  RS989100000000009960344700000000000000000102
0000006915CALL ECG SERVIcOS DE TELEMEDICINA LTDA- EPP                 04071210000121000000000000000000000000000000rua nestor guimarraes, 111, 8. andar              PONTA GROSSA (VER CEP POR LOGRPR840401300000000000000000000000000000000102
0000006938NICOLI FARMACIA E DROGARIA LTDA (MEGIER E TIECHER)          23558970000102000000000000000000000000000000INDEPENDENCIA                                     INDEPENDENCIA                 RS989150000000055353915330000000000000000202
0000006945AIRTON DE LIMA MACHADO                                      00001895943060000000000000000000000000000000INDEPENDENCIA                                     INDEPENDENCIA                 RS989150000000000000000000000000000000000201
0000006967ARIZOLI DE QUADROS MOURA                                    00030492661049000000000000000000000000000000RUA JULIO DE CASTILHOS, 600                       INDEPENDENCIA                 RS989150000000559967266020000000000000000101
0000006980LUIZ CARLOS RUCKHABER                                       00091328578020000000000000000000000000000000RUA ALFREDO HENN, 675                             TRES DE MAIO                  RS989100000000559845415640000000000000000101
0000006986JOCEMAR CALZA E CIA LTDA - MACUCO                           11251885000118000000000000000000000000000000av. uruguais, 680, centro                         TRES DE MAIO                  RS989100000000000000000000000000000000000102
0000006989GESTOR UM - CONSULTORIA FINANCEIRA LTDA                     27298119000149000000000000000000000000000000AV. PROTASIO ALVES, 2854                          PORTO ALEGRE                  RS900029000000051996103450000000000000000102
0000007007MARIA CRISTINA SANTOS BOYARSKI                              00093854323034000000000000000000000000000000RUA JOSINO FARIAS, 1331                           INDEPENDENCIA                 RS989150000000559971065050000000000000000101
0000007008CRISTIANO NEUMANN DA SILVA                                  00001291321012000000000000000000000000000000RUA MARECHAL CANDIDO RONDON                       INDEPENDENCIA                 RS989150000000000000000000000000000000000101
0000007019VENEZA DISTRIBUIDORA DE PRODUTOS HOSPITALARES               13229567000186000000000000000000000000000000AVENIDA 21 DE ABRIL 515                           BARAO DE COTEGIPE             RS997400000000054352315290000000000000000102
0000007025CHRISTIANE CONCEICAO DALLA CORTE ALVES DE MAGALHAE          00056976682015000000000000000000000000000000INDEPENDENCIA...Arno Gottems                      INDEPENDENCIA                 RS989150000000559960748460000000000000000101
0000007032MS TECNOPON INSTRUMENTACAO                                  60160975000109000000000000000000000000000000AV. PROF. BENEDITO DE ANDRADA, 649                PIRACICABA                    SP014510010000019343414180000000000000000202
0000007036JOSE LUIS DE OLIVEIRA DIAS MEI- NIS 126.26014.70.4          29973694000125000000000000000000000000000000R 14 No 125                                       INDEPENDENCIA                 RS989150000000000353941000000000000000000202
0000007056DELBA VICENTINI CREMASCO ME                                 03138598000178000000000000000000000000000000RUA 24 DE OUTUBRO 635                             ITAPIRA                       SP139700000000019412600570000000000000000102
0000007085COMERCIO DE COMBUSTIVEIS A.C. FREITAS EIRELI                30859844000153000000000000000000000000000000RS 342 No 592                                     INDEPENDENCIA                 RS989150000000559997374680000000000000000102
0000007086COMERCIO DE COMBUSTIVEIS BONATTO - DOUGLAS BONATTO          12076554000232000000000000000000000000000000AVENIDA TRES DE MAIO 1223                         INDEPENDENCIA                 RS989150000000000353914210000000000000000102
0000007088JULIO CESAR IDALGO                                          00003822431028000000000000000000000000000000RUA DAVI CANABARRO, 14                            HORIZONTINA                   RS989209700000559965839730000000000000000201
0000007089PEGASUS VEICULOS LTDA - IJUI                                94989027000607000000000000000000000000000000AV. GETULIO VARGAS, 324                           IJUI                          RS987000003333080899906270000000000000000202
0000007092JAIR SANCANDI                                               00077352998004000000000000000000000000000000SAO VALENTIM                                      INDEPENDENCIA                 RS989150000000559913398760000000000000000101
0000007094ROFESA COMeRCIO DE AUTO PEcAS LTDA                          93726917000159000000000000000000000000000000RUA URUGUAI No 374                                HORIZONTINA                   RS989209700000055353717370000000000000000102
0000007100ADRIANO CESAR KAISEKAMP - FUNERARIA                         32049760000180000000000000000000000000000000AV. TRES DE MAIO, 729 SALA 01                     INDEPENDENCIA                 RS989150000000559996172620000000000000000202
0000007101LOJAS HOLZ LTDA                                             08283518001678000000000000000000000000000000RUA GETULIO VARGAS, 470                           INDEPENDENCIA                 RS989150000000055353313250000000000000000202
0000007105JOSE CLAUDIO REGINALDO DOS SANTOS                           12142461000188000000000000000000000000000000RUA ARTUR FERRAZ DE ALMEIDA CAMPOS No 1469        GIRUA                         RS988700000000055336112330000000000000000102
0000007122J.L MADALOZZO DA ROSA   CIA LTDA ME                         03140870000154000000000000000000000000000000RUA CORONEL BORGES FORTES 664                     SANTA ROSA                    RS989000000000000351254540000000000000000102
0000007124CLAUSLI D HAHN ME                                           30470530000164000000000000000000000000000000RUA SETE DE SETEMBRO 242                          TUPARENDI                     RS989400000000559993889050000000000000000102
0000007129BOMBASSARO SERVICOS MEDICOS LTDA ME                         15016621000130000000000000000000000000000000PRACA ALADIO FERREIRA 60                          GIRUA                         RS000988700000000336123440000000000000000102
0000007133CELSON SIDINEI SCHULTZ FONSECA                              00000886471028000000000000000000000000000000RUA SANTA RITA, 053                               INDEPENDENCIA                 RS989150000000559995058330000000000000000101
0000007147ESCO GD TECNOLOGIA EM ENERGIA LTDA                          21118050000148000000000000000000000000000000AVENIDA TIARAJU No 1406                           ALEGRETE                      RS975422000000559813508960000000000000000102
0000007149SILMES COMERCIO DE PRODUTOS ODONTOLOGICOS EIRELI            04989294000187000000000000000000000000000000AVENIDA OSCAR BARCELOS 380 SALA 02                RIO DO SUL                    SC891600000000047352110000000000000000000102
0000007152ADRIANO REDEL   CIA LTDA                                    10758567000185000000000000000000000000000000RUA VER. ROQUE EDISON REDEL                       TRES DE MAIO                  RS989100000000055353516140000000000000000102
0000007161GUINCHOS TRES DE MAIO LTDA                                  27542866000180000000000000000000000000000000RUA ALBINO VERONESE, 31 SALA 07                   TRES DE MAIO                  RS989100000000559963747910000000000000000102
0000007177GLOBO INFORMATICA EIRELI EPP                                06153965000109000000000000000000000000000000AVENIDA SAO JOSE 912 SALA 02                      BOA VISTA DO BURICA           RS989180000000000353814000000000000000000102
0000007183CAETANO LIMA DA SILVA -MEI -PIS 20615412542                 31344379000180000000000000000000000130139597RUA PLANALTO 1238                                 TRES DE MAIO                  RS989100000000009964697170000000000000000102
0000007189SECRETARIA DA SAUDE - ESTADUAL SES                          87958625000149000000000000000000000000000000AV. BORGES DE MEDEIROS, 1501                      PORTO ALEGRE - PRAIA DE BELAS RS901199000000005122631000000000000000000102
0000007192BERGMANN   MANN COMERCIO GRAFICO LTDA ME                    13460705000133000000000000000000000000000000RUA MATO GROSSO 273                               CARAZINHO                     RS995000000000054990698150000000000000000102
0000007195GRAFICA SANTA LUCIA LTDA                                    27009696000173000000000000000000000000000000RUA OLAVO BILAC No 34 2o ANDAR                    PALMITOS                      SC898870000000049364727690000000000000000102
0000007206CV TYRES EIRELI                                             28888423000109000000000000000000000000000000AVENIDA NEREU RAMOS 544 SALA 01                   ITAPEMA                       SC882200000000479995459800000000000000000102
0000007208PAULO VICTOR SCHWAB EIRELI                                  27606745000155000000000000000000000000000000AVENIDA PADRE DEHON 714                           BOA VISTA DO BURICA           RS989180000000055353811400000000000000000102
0000007210MARCELO TIECHER ZIMMERMANN EIRELI EPP                       29081832000161000000000000000000000000000000RUA DO ARVOREDO 102 SALA 02                       TRES DE MAIO                  RS989100000000055353516720000000000000000102
0000007213ROSIMAR BONES EIRELI                                        31440832000152000002250013777000000000000000AV. GEERT LORENZ No 707                           SAO MARTINHO                  RS986900000000055992432020000000000000000202
0000007214RENNER ENGENHARIA EIRELI                                    29421695000167000000000000000000000000000000AVENIDA SAO JOSE 217 SALA 4                       BOA VISTA DO BURICA           RS989180000000055353810170000000000000000102
0000007235J ROSA SOLUCOES EM INFORMATICA EIRELI                       32758101000112000000000000000000000000000000AV. PLANALTO 1115 SALA 05                         BENTO GONCALVES               RS957000000000054345579000000000000000000102
0000007237TIAGO DANIEL IZOLAN PJ                                      32076501000148000000000000000000000000000000AVENIDA JOSE GARIBALDI 648 SALA 05                VIAMAO                        RS944101000000051302402470000000000000000102
0000007239PROQUILL PRODUTOS QUIMICOS DE LIMPEZA LTDA                  87174991000107000000000000000000000000000000RUA VEREADOR MARIO CARDOSO FERREIRA 359           ALVORADA                      RS948591600000051334444010000000000000000102
0000007241VIDEQUIMICA IND. E COM. DE PROD. QUiMICOS EIRELI            00112092000100000000000000000000000000000000RUA GERMANO PAROLINI 260                          CAXIAS DO SUL                 RS950126310000054329046160000000000000000102
0000007265BRUNO ARTHUR MOLTER POSTAI                                  29808713000168000000000000000000000000000000RUA SAO LOURENCO 663                              SAO PAULO DAS MISSOES         RS979800000000559970831710000000000000000102
0000007275ELVIS RICARDO PEIRRE DORNELLES                              00058233512087000000000000000000000000000000SANTA ROSA                                        SANTA ROSA                    RS483200000000000000000000000000000000000201
0000007279VERLIN   PIONTKOSKI LTDA ME                                 10894828000194000000000000000000000000000000RUA LINO COLUSSI 123 SALA 02                      BENTO GONCALVES               RS957015040000054345195050000000000000000102
0000007285MARLI CASAGRANDE PEREIRA CHAVES                             02834899000173000000000000000000000000000000AV. IPIRANGA 3047 SALA 208 ANDAR 01               PORTO ALEGRE - PARTENON       RS906100010000051323149280000000000000000202
0000007291GAUCHAFARMA MEDICAMENTOS LTDA                               89735070000100000000000000000000000000000000AV. FRANCISCO SILVEIRA BITENCOURT, 1785           PORTO ALEGRE                  RS911500100000051334650600000000000000000102
0000007318SMB SERVIcOS DE ENGENHARIA E MEDICINA LTDA                  09378748000105000000000000000000000000000000RUA PASTEUR 463 ANDAR 13                          CURITIBA                      PR800301000000519824302220000000000000000102
0000007320EICKHOFF MEDICINA LTDA ME                                   23376686000115000000000000000000000000000000RUA 28 DE SETEMBRO 16 APTO 801                    SANTA CRUZ DO SUL             RS968100400000559990139330000000000000000102
0000007331ADELIA RICHTER LISSARASSA                                   20949914000100000000000000000000000000000000INDEPENDENCIA                                     INDEPENDENCIA                 RS989150000000000000000000000000000000000102
0000007336GUILHERME PELLENZ ILHA - ME                                 24941504000174000000000000000000000000000000RUA HENRIQUE DIAS, 131                            SANTA MARIA                   RS970102200000055302530930000000000000000102
0000007338CARBONI DISTRIBUIDORA DE VEiCULOS LTDA                      02952689000180000000000000000000000000000000RODOVIA SC 355 KM 55                              VIDEIRA                       SC895600000000049353388000000000000000000102
0000007341ANTONHOLI   GARCIA MaQUINAS E EQUIPAMENTOS LTDA             33441004000164000000000000000000000000000000RUA EUCLIDES DA CUNHA 206 FUNDOS                  LONDRINA                      PR860705000000043301701630000000000000000102
0000007343TRACADO CONSTRUCOES E SERVICOS LTDA                         00472805000308000000000000000000000000000000RODOVIA RS 324 S/N KM 04                          PASSO FUNDO                   RS890100700000054210710000000000000000000102
0000007345JOMAR KACZMAREK DE ALMEIDA                                  17555204000191000000000000000000000000000000RUA DA CRIANCA, 210                               HORIZONTINA                   RS989200000000559960282120000000000000000102
0000007351NELSON ANDRE DE VARGAS ROSA                                 34520280000180000000000000000000000000000000RUA DOM PEDRO II 70                               PALMEIRA DAS MISSOES          RS983000000000055965877230000000000000000102
0000007356QUALIFRIO COMeRCIO E SERVIcOS LTDA. ME                      20606426000109000000000000000000000000000000RUA  DR JOAO DAHNE 857, SALA 01, CENTRO SANTA ROSASANTA ROSA                    RS987806750000000000000000000000000000000102
0000007373EXATTA PRESTACAO DE SERVICOS LTDA                           30424567000156000000000000000000000000000000rua 21 de abril 1302 sala 01                      ALEGRIA                       RS989050000000009969183980000000000000000102
0000007391ELITON LUIS FABRICIO -MEI 12633759701                       34975770000171000000000000000000000000000000AV. TRES DE MAIO, 1124                            INDEPENDENCIA                 RS989150000000559916526860000000000000000202
0000007394OSMAR DA SILVA E CIA LTDA                                   80965023000170000000000000000000000000000000RUA JOSE PEREIRA LIBERATO 950 SALA 02             ITAJAI                        SC883021000000000000000000000000000000000102
0000007401LUCIANO LUIS ROBERTI MEI                                    35535479000145000000000000000000000000000000RUA EXPEDICIONARIO FRANCISCO PERKOSKI 610         INDEPENDENCIA                 RS989150000000559918194000000000000000000102
0000007402ALBINO WEIMER CAPELETTI                                     00011636955053000000000000000000000000000000COLONIA MEDEIROS                                  INDEPENDENCIA                 RS989150000000000000000000000000000000000101
0000007407JOSE ARTUR S. MORISSO                                       07128513000121000000000000000000000000000000RUA 4, 86                                         SANTA MARIA                   RS971107700000000000000000000000000000000102
0000007408FELIPE FERON KIRSCHNER                                      00003511354056000000000000000000000000000000RUA ANISIO DE ARAUJO E SILVA 397                  INDEPENDENCIA                 RS989150000000559922592090000000000000000101
0000007410RAISA SODRE DE FREITAS                                      31057575000174000000000000000000000000000000IJUI                                              IJUI                          RS987000000000000000000000000000000000000102
0000007411ALICE MROZINSKI KRISTIUM                                    00090687019087000000000000000000000000000000AV. TRES DE MAIO...ROSALVO KRISTIUM               INDEPENDENCIA                 RS989150000000000000000000000000000000000201
0000007412FLAVIO DA SILVA BORGES                                      00081907800000000000000000000000000000000000RUA CINCO DE SETEMBRO, 719                        INDEPENDENCIA                 RS989150000000000000000000000000000000000101
0000007413LUCIA DE OLIVEIRA SOUZA                                     00088348407049000000000000000000000000000000IPIRANGA, 1045..Andreia Jossela de Oliveira Souza INDEPENDENCIA                 RS989150000000000000000000000000000000000201
0000007414COMeRCIO DE CARNES FERNANDO OLIVEIRA BORGES EIRELI          32830963000109000000000000000000000000000000AVENIDA TRES DE MAIO 582 SALA 02                  INDEPENDENCIA                 RS989150000000009961402580000000000000000102
0000007415DARCI ANTUNES DE OLIVEIRA                                   00026237423087000000000000000000000000000000RUA CINCO DE SETEMBRO, 714 - CENTRO               INDEPENDENCIA                 RS989150000000000000000000000000000000000201
0000007416ERINEU SIQUEIRA DA SILVA                                    00038801639015000000000000000000000000000000RUA CINCO DE SETEMBRO, 929                        INDEPENDENCIA                 RS989150000000000000000000000000000000000201
0000007417PREISSLER DOS REIS E CIA LTDA                               29739161000183000000000000000000000000000000R Arno Spengler, 800, Industrial, Independencia,  INDEPENDENCIA                 RS989150000000000000000000000000000000000102
0000007422NELCI INES SPARRENBERGER - ME 46099301020                   35898019000181000000000000000000000000000000RUA PADRE CACIQUE No 1894                         TRES DE MAIO                  RS989100000000055991624350000000000000000202
0000007423ELISANGELA MARIA BAU                                        00096266120020000000000000000000000000000000INDEPENDENCIA                                     INDEPENDENCIA                 RS989150000000009960335980000000000000000201
0000007424ALVINO REIS                                                 00042277760072000000000000000000000000000000SAO JOSE DO INHACORA                              SAO JOSE DO INHACORA          RS989580000000009991761570000000000000000201
0000007425JAIRO JOEL NUNES GARCIA                                     00068121938015000000000000000000000000000000INDEPENDENCIA RUA 01                              INDEPENDENCIA                 RS989150000000009969862120000000000000000201
0000007428SERGIO LUIS NEUBERGER   CIA LTDA - EPP                      73206419000178000000000000000000000000000000RUA EDWINO SCHROER No 321                         AUGUSTO PESTANA               RS987400000000055333412780000000000000000202
0000007430PEDRO LISCARACA DA ROSA                                     00066368367920000000000000000000000000000000RUA SAO ROQUE No 737                              INDEPENDENCIA                 RS989150000000000000000000000000000000000101
0000007465SUSANA CRISTINA KNOLL MELLER EIRELLI                        11257886000170000000000000000000000000000000avenida tito correa lopes 965 sala A              ITAQUI                        RS976500000000559990102530000000000000000102
0000007467MARINES FARSEN DE MOURA                                     00001609067096000000000000000000000000000000INDEPENDENCIA                                     INDEPENDENCIA                 RS989150000000000000000000000000000000000101
0000007468ESCOLA DE ARTES RECITAL LTDA - ME                           10912613000159000000000000000000000000000000RUA FERNANDO ALBINO, 355                          SANTA ROSA                    RS987800013512420698426220000000000000000102
0000007471IVONE INES ROSSI BONAPAZ                                    00047295740015000000000000000000000000000000RUA JOSINO FARIAS 1577                            INDEPENDENCIA                 RS989150000000559999237440000000000000000101
0000007472ELISIANE EICHKOFF MELLER DOS SANTOS                         00001509453024000000000000000000000000000000AV. TRES DE MAIO 522 (CELSON ANDRESKI DOS SANTOS) INDEPENDENCIA                 RS989150000000559971350260000000000000000101
0000007473FLAVIA ROSA DIERINGS                                        00001836573065000000000000000000000000000000RUA RIO BRANCO 37                                 TRES DE MAIO                  RS989100000000000000000000000000000000000201
0000007474CLEIDIMAR BOYARSKI DE LIMA - MEI                            31028529000147000000000000000000000000000000RUA SAO JOAO, 476                                 INDEPENDENCIA                 RS989150000000000000000000000000000000000102
0000007476CHARLINE TORMOHLEN                                          00000967830010000000000000000000000000000000INDEPENDENCIA                                     INDEPENDENCIA                 RS989150000000559912875710000000000000000201
0000007477LUIZ CARLOS TIECHER                                         00061958611034000000000000000000000000000000INDEPENDENCIA                                     INDEPENDENCIA                 RS989150000000559915161960000000000000000201
0000007479INSTITUTO DR. EDWARD BACH DE TERAPIA FLORAL - ME            67170951000180000000000000000000000000000000RUA CORONEL QUIRINO, 303                          CAMPINAS                      SP130250000000000000000000000000000000000102
0000007480SO BANDEIRAS - DISTR. DE BANDEIRAS LTDA                     09342293000160000000000000000000000000000000RUA JULIO DE CASTILHOS, 1001                      LAJEADO                       RS959000220000051371421940000000000000000202
0000007481OSMAR LUIZ TIECKER                                          00072779934034000000000000000000000000000000RUA JOSINO FARIAS, 1499                           INDEPENDENCIA                 RS989150000000000000000000000000000000000201
0000007482SUL CIRURGICA LTDA                                          29618802000141000000000000000000000000000000TV URUGUAI, 100                                   SANTO ANGELO                  RS988032500000055331413570000000000000000202
0000007483FRANCISCO DE LIMA   CIA LTDA - ME                           35827355000133000000000000000000000000000000AV. BURICA, 677 SALA 01                           TRES DE MAIO                  RS989100000000055353539840000000000000000202
0000007485FAZENDA SENHOR JESUS RAIO DE ESPERANcA                      16623270000270000000000000000000000000000000ESTRADA SALDI EMILIO CASSEL                       NOVO HAMBURGO                 RS935252700000000000000000000000000000000102
0000007486ODILO OLIVEIRA DE ALMEIDA - INOX FORT                       14487666000120000000000000000000000000000000ROD. RS 342                                       TRES DE MAIO                  RS989100000000055353513040000000000000000202
0000007487ANDRE MATHEUS DULLIUS -MEI 01653684038                      28099621000193000000000000000000000000000000RUA SAO PEDRO No 1520                             TRES DE MAIO                  RS989100000000055967991200000000000000000102
0000007488FARMABEM - COM. E DIST. DE EQUIP. MEDICOS HOSP.             22094397000160000000000000000000000000000000RUA PADRE ANCHIETA, 46 SALA 01 A 03               TAPEJARA                      RS999500000000054334411750000000000000000202
0000007489CARLA DANIELE RODRIGUES ANDERSON BRUM                       25009173000100000000000000000000000000000000V AC ONZE (CEFER DOIS), 618 FUNDOS                PORTO ALEGRE                  RS914303300000051338305760000000000000000202
0000007490SIMEIA BECHMANN MEI                                         36889609000100000000000000000000000000000000xdzzfzfsdd                                        ABAIBA (LEOPOLDINA)           MG367040000000000000000000000000000000000102
