87612826000190010120183112201801012019PREFEITURA MUNICIPAL INDEPENDENCIA                                              
0000000006CONTRIBUICAO AO FAPS                                        12091144000180000000000000000000000000000000RUA SENADOR PINHEIRO                              INDEPENDENCIA                 RS989150000000000000000000000000000000000202
0000000032WILKOMM   WILKOMM LTDA                                      93212595000120000001470024524000000000000000RUA SANTA DOLORES, N o 28                         TRES DE MAIO                  RS989100000000000353510850000000000000000202
0000000038CREA - CONS.REG.DE ENG.ARQ.E AGR.DO RGS                     92695790000195000000000000000000000000000000PORTO ALEGRE                                      PORTO ALEGRE                  RS904080000000000000000000000000000000000202
0000000039MJB - MOACIR JOSE BACKES - ME                               91500405000144000001470020561000000000000000AVENIDA PLANALTO,1194                             TRES DE MAIO                  RS989100000000000053515840000000000000000202
0000000047HSVP -ASSOCIACAO DE LITERATURA E BENEFICIENCIA              92962869000720000000000000000000000111030340RUA OSVALDO CRUZ,381                              TRES DE MAIO                  RS989100000000000353510000000000000000000202
0000000050CARLOS BORGES MASSUDA E OU/HORTENCIA                        00076167127034000001981029661000000000000000LAJEADO PESSEGUEIRO                               INDEPENDENCIA                 RS989150000000000000000000000000000000000201
0000000052ANTONIO AVELINO FERREIRA                                    00046252240044000000000000000000000000000000MOTORISTA/VEREADOR                                INDEPENDENCIA                 RS989150000000000000000000000000000000000201
0000000058VANDERLEIA APARECIDA DARONCO CAUDURO                        00090064224015000000000000000000000000000000PROFESSORA                                        INDENPENDENCIA                RS989150000000000000000000000000000000000201
0000000064AMGSR - ASSOC.MUNIC.DO GRANDE SANTA ROSA                    87689006000104000000000000000000000000000000RUA BUENOS AIRES, 25                              SANTA ROSA                    RS989000000000055351257740000000000000000202
0000000070JOSE MARSCHNER                                              00049907239020000000000000000000000000000000OPERARIO                                          INDEPENDENCIA                 RS989150000000000000000000000000000000000201
0000000077VIACAO OURO E PRATA S/A                                     92954106000142000000962042935000000000000000DENISE - 51-3375-8672                             PORTO ALEGRE                  RS900109080000055351255440000000000000000202
0000000083ENIO BACKES                                                 00059171332049000000000000000000000000000000AGENTE DE SAUDE                                   INDEPENDENCIA                 RS989150000000000000000000000000000000000201
0000000088ADALBERTO V. WACHTER   CIA LTDA- SER. DO BETAO              87807616000157000001470015258000000000000000RUA FARRAPOS, No 1671                             TRES DE MAIO                  RS989100000000055353512130000000000000000202
0000000110LUCIANA DO CARMO F.DE BARROS                                00071187456004000000000000000000000000000000PROFESSORA                                        INDEPENDENCIA                 RS989150000000000000000000000000000000000201
0000000124ANA LUCIA PIRES DE BARROS                                   00077279301053000000000000000000000000000000AGENTE MUNCIPAL DE SAUDE                          INDEPEDENCIA                  RS989150000000000000000000000000000000000201
0000000127SUELI DA SILVA BARROS                                       00053970152020000000000000000000000000000000AGENTE EPIDEMIOLOGICO- PIM                        INDEPENDENCIA                 RS989150000000000000000000000000000000000201
0000000132KURTZ KOCHHANN   CIA LTDA                                   98041577000146000001470012941000000000000000AV. SANTA ROSA, 848                               TRES DE MAIO                  RS000989100000005553519740000000000000000202
0000000135P.E.GERARDI                                                 98036213000178000001470013018000000000000000AVENIDA SANTA ROSA,763                            TRES DE MAIO                  RS989100000000000053510520000000000000000202
0000000137MARLI NABINGER WEDDIGEN-RECUPERADORA DE PARABRISAS          05900970000167000000000000000000000000000000AV. SANTA ROSA, No 1170 - FUNDOS SALA 01          TRES DE MAIO                  RS989100000000055353512710000000000000000202
0000000144AIRTON SCHULTZ                                              00097161900000000000000000000000000000000000ESQUINA BOA VISTA- INTERIOR MUNIC. INDEPENDENCIA  INDEPENDENCIA                 RS989150000000000000000000000000000000000201
0000000149OI - BRASIL TELECOM S.A- (51-074-6918)net                   76535764000224000000962845833000000000000000AV.BORGES DE MEDEIROS,512                         PORTO ALEGRE                  RS989150000000080003108000000000000000000202
0000000150JAIR CESAR SOUZA - DIARIAS                                  00050056190034000000000000000000000000000000MOTORISTA                                         INDEPENDENCIA                 RS989150000000000991820450000000000000000201
0000000153VALMIR RICHTER                                              00051774771004000000000000000000000000000000SERVIDOR DA CAMARA DE VEREADORES                  INDEPENDENCIA                 RS989150000000000000000000000000000000000101
0000000155CONTRIBUICAO AO INSS                                        29979036000140000000000000000000000000000000SEM ENDERECO                                      INDEPENDENCIA                 RS989150000000000000000000000000000000000202
0000000158PAULO RICARDO TOMASI - CARTORIO TOMASI                      00009034323072000000000000000000000000000000RUA SANTO ANGELO, 561 SALA 201                    TRES DE MAIO                  RS989100000000055353512020000000000000000201
0000000166ORIDES ZIMERMANN DE OLIVEIRA - ME                           87687463000151000000000000000000000000000000AV.TRES DE MAIO, 1023                             INDEPENDENCIA                 RS989150000000055961549230000000000000000202
0000000167ABASE SISTEMAS E SOLUCOES LTDA                              93088649000197000001470025474000000000000000AV.SEN.ALBERTO PASQUALINI, 347                    TRES DE MAIO                  RS989100000000000353549000000000000000000202
0000000177FAMURS - FEDERACAO DAS ASSOC MUN DO RGS                     88733811000142000000000000000000000000000000RUA MARCILIO DIAS , 574                           PORTO ALEGRE                  RS904080000000051323138330000000000000000202
0000000182NERY DE ARAUJO E SILVA                                      00016279573087000001981024171000000000000000INDEPENDENCIA                                     INDEPENDENCIA                 RS989150000000055968139320000000000000000201
0000000186MARCOS JOCEMAR MELLER DOMENIGHI                             00065928903049000000000000000000000000000000TESOUREIRO                                        INDEPENDENCIA                 RS989150000000000000000000000000000000000201
0000000187COTRIMAIO - COOP AGRO.PECUARIA A.U.LTDA                     98042120004577000001980003367000000000000000AV. TRES DE MAIO, 1101                            INDEPENDENCIA                 RS989150000000005553912110000000000000000202
0000000204VANDIR MIETH - MERCEPECAS                                   89394332000101000001100023973000000000000000AV.INHACORA, 119                                  SANTA ROSA                    RS989000000000000051220200000000000000000202
0000000209LOJAS QUERO-QUERO S/A                                       96418264002425000001470021259000000000000000RUA PADRE CACIQUE 1100                            TRES DE MAIO                  RS989100000000000353514940000000000000000202
0000000212SIRLEI FATIMA L. KOWALSKI                                   00049907760030000000000000000000000000000000ESCOLA PRESIDENTE GETULIO VARGAS                  INDEPENDENCIA                 RS989150000000000000000000000000000000000201
0000000213FOLHA DE PGTO - SERVIDORES DIVERSOS                         87612826000190000000000000000000000000000000RUA SENADOR PINHEIRO, 1348                        INDEPENDENCIA                 RS989150000000000000000000000000000000000202
0000000217EMATER - RS                                                 89161475000173000000000000000000000000000000PORTO ALEGRE                                      PORTO ALEGRE                  RS904080000000000000000000000000000000000202
0000000218SR - INDUSTRIA GRAFICA LTDA                                 94692555000195000000620019506000000000000000RUA DAHNE DE ABREU,536                            HORIZONTINA                   RS989200003537146491541940000000000000000202
0000000221BANCO CAIXA ECONOMICA FEDERAL                               00360305052171000000000000000000000000000000TRES DE MAIO                                      TRES DE MAIO                  RS989100000000000000000000000000000000000202
0000000222ADILAR MELLER                                               00056028326020000000000000000000000000000000Motorista e Vereador                              INDEPENDENCIA                 RS989150000000000000000000000000000000000201
0000000223CORSAN - COMP. RIOGRANDENSE DE SANEAMENTO                   92802784000190000001980000000000000000000000AV. TRES DE MAIO, 646/0                           INDEPENDENCIA                 RS989150000001451321558180000000000000000202
0000000224CERTHIL -Luz-  COOP. DIST.ENERGIA ENTRE RIOS LTDA           98042963000152000000000000000000000000000000AV.AVAI, 960...SICREDI AG. 0306 C/30.162-0        TRES DE MAIO                  RS989100000000005553515000000000000000000202
0000000231CONTRIBUICAO AO PASEP- CODIGO 3703                          87612826000190000000000000000000000000000000.                                                 IND                           RS989150000000000000000000000000000000000202
0000000236ASSOCIACAO HOSPITALAR CARIDADE SANTA ROSA                   95815668000101000001100014303000000000000000RUA DR. FRANCISCO TIMM,656                        SANTA ROSA                    RS989000000000055351250500000000000000000202
0000000237LUCELIA FERRAZ BUENO RICHTER                                00000296894060000000000000000000000000000000Auxiliar de Escriturario                          INDEPENDENCIA                 RS989150000000000000000000000000000000000201
0000000249CONTRIBUICAO AO FGTS                                        87612826000190000000000000000000000000000000NENHUM                                            NENHUM                        RS989150000000000000000000000000000000000202
0000000256JOSE VALMOR PIPPER                                          00033622450053000000000000000000000000000000MOTORISTA                                         INDEPENDENCIA                 RS989150000000000000000000000000000000000201
0000000264DPM BORBA, PAUSE   PERIN - ADVOGADOS - OAB RS 7512          92885888000105000000000000000000000000474223AV. PERNAMBUCO, 1001                              PORTO ALEGRE                  RS902400050001451302734000000000000000000202
0000000266JORNAL SEMANAL LTDA                                         92152651000115000001470000001000000000000000RUA SANTO ANGELO No 413 SALA 4                    TRES DE MAIO                  RS989100000000055353510330000000000000000202
0000000274JOSE LUIS AREND DA SILVA-EPP                                91529974000112000001470020685000000000000000R.SAO ROQUE, 62                                   TRES DE MAIO                  RS989100000000000000000000000000000000000202
0000000282VALDELIRIO SANTOS ROSA                                      00044160771068000000000000000000000000000000CARPINTEIRO                                       INDEPENDENCIA                 RS000989150000000000000000000000000000000201
0000000296ANDRE POZZEBON - DIARIAS                                    00077279085091000000000000000000000000000000PROFESSOR MUNICIPAL                               INDEPENDENCIA                 RS989150000000000000000000000000000000000201
0000000301CLARICE MARIA SCHWAN-ME..NELSON JOSE RAMBO                  97108245000179000001470030109000000000000000RUA SAO ROQUE, 92                                 TRES DE MAIO                  RS989100000000000353518720000000000000000202
0000000308VILMAR ANTONIO OKASZESKI-MEI - INSS 11622713480             12849681000146000000000000000000000000002796RUA COSTA E SILVA , No 546                        INDEPENDENCIA                 RS989150000000000963408200000000000000000202
0000000313JOAO EDECIO GRAEF                                           00018995519053000000000000000000000000000000RUA SAO JOAO                                      INDEPENDENCIA                 RS989150000000000000000000000000000000000201
0000000319BOMBAS INJETORAS TRESMAIENSE LTDA                           92571652000102000001470022246000000000000000RUA HORIZONTINA,1135                              TRES DE MAIO                  RS989100005535391320960450000000000000000202
0000000321ADALBERTO MARTINI                                           00095803629049000000000000000000000000000000MOTORISTA - RUA SANTO ANGELO                      INDEPENDENCIA                 RS989150000000055353913000000000000000000201
0000000331PATRICIA WOMMER DE OLIVEIRA                                 05519803000170000000000000000000000000000000RUA SARANDI, 643                                  PALMEIRA DAS MISSOES          RS983000000000055374213960000000000000000202
0000000345ANAMIR DE FATIMA GARCIA                                     00065928679068000000000000000000000000000000RUA JOSINO FARIAS                                 INDEPENDENCIA                 RS989150000000000000000000000000000000000201
0000000347FLAVIA BORGES BOMFIM DE LIMA                                00001180015070000000000000000000000000000000RUA JOSINO FARIAS                                 INDEPENDENCIA                 RS989150000000000000000000000000000000000201
0000000359SENAT- Ijui SERVICO NACIONAL APREND. DO TRANSPOR            73471963012900000000000000000000000000000000ENTROC. DA RS 342 C/RS 522 POSTO 44 S/N           IJUI                          RS987000000000000000000000000000000000000202
0000000374TANIA MOUSQUER BERNARDI                                     00095324194034000000000000000000000000000000RUA SANTO ANGELO                                  INDEPENDENCIA                 RS989150000000000000000000000000000000000201
0000000375MARINA ANDREIA TRAESEL                                      00097334723015000000000000000000000000000000INDEPENDENCIA                                     INDEPENDENCIA                 RS989150000000000000000000000000000000000201
0000000383KARINA DE MATTOS KEMPF                                      00001196768005000000000000000000000000000000RUA SAO JOAO                                      INDEPENDENCIA                 RS989150000000000000000000000000000000000201
0000000389LARA MELISSA WEBER DE FREITAS                               00092494005000000000000000000000000000000000RUA SANTO ANGELO 293                              INDEPENDENCIA                 RS989150000000009999587440000000000000000201
0000000396RICOHPEL - SOLUCOES CORPORATIVAS LTDA                       07818169000100000000000000000000000000000000RUA SANTA ROA, No 282                             HORIZONTINA                   RS989200000000055353715820000000000000000202
0000000410NATALINO FACCIN                                             94968120000120000001980004339000000000000000RUA SAO MIGUEL , 716                              INDEPENDENCIA                 RS989150000000000353911130000000000000000202
0000000413SONIA CRISTINA TAVARES SOUTO-DIARIAS                        00043883362034000000000000000000000000000000ENFERMEIRA                                        INDEPENDENCIA                 RS989150000000000000000000000000000000000201
0000000446ASSOCIACAO DO CORPO DE BOMBEIROS VOLUNTARIOS T.M.           02074368000120000000000000000000000000000000RUA MINAS GERAIS                                  TRES DE MAIO                  RS989100000000000000000000000000000000000202
0000000450NERCI JOSE MUCHA                                            00041098080068000000000000000000000000000000SECRETARIO DA FAZENDA  - RUA SAO MIGUEL 141       INDEPENDENCIA                 RS989150000000559995209550000000000000000201
0000000451CODIS - COFRON Mensalidade                                  94188208000120000000000000000000000000000000RUA BUENOS AIRES, 25                              SANTA ROSA                    RS989000000553512577464320000000000000000202
0000000481CHICO PECAS LTDA                                            91968032000130000000000000000000000000000000AV RIO GRANDE DO SUL No 768                       SANTA ROSA                    RS989000000553512680768500000000000000000202
0000000500EVANDRO KRUMMENAUER-ME                                      00907633000188000001980005149000000000000000RODOVIA PRESIDENTE KENNEDY-KM                     INDEPENDENCIA                 RS989150000000000053912630000000000000000202
0000000532SIRLEI ROSANELLI SEITENFUS - DIARIAS                        00056028407020000000000000000000000000000000ESCRITURARIO                                      INDEPENDENCIA                 RS989150000000000000000000000000000000000201
0000000552LAR BOM PASTOR DE IVAGACI E ESCOLA PROFISSIONAL             87685616000121000000000000000000000000000000VILA IVAGACI                                      BOA VISTA DO BURICA           RS989180000000000000000000000000000000000202
0000000678VILSON MEURER - ME                                          91814285000150000000000000000000000000000000AV. TRES DE MAIO                                  INDEPENDENCIA                 RS989150000000055353911470000000000000000202
0000000715BUTZKE COMERCIO DE MATERIAIS DE CONSTRUCAO LTDA             03037090000264000001980005297000000000000000AV.TRES DE MAIO, 750                              INDEPENDENCIA                 RS989150000000055353913200000000000000000202
0000000756PROCERGS                                                    87124582000104000000962565091000000000349321PRACA DOS ACORIANOS, S/No SAMUEL                  PORTO ALEGRE                  RS900389000000051321031250000000000000000202
0000000775CLAUDETE DE FATIMA OLIVEIRA                                 00038805340049000000000000000000000000000000..                                                INDEPENDENCIA                 RS989150000000000000000000000000000000000201
0000000912CODIS - COFRON Servicos                                     94188208000120000000000000000000000000000000AV. BORGES DE MEDEIROS, 504 - 2o ANDAR            SANTA ROSA                    RS989000000003512643212810000000000000000202
0000000930PODER JUDICIARIO DA COMARCA TRES MAIO                       89522064013810000000000000000000000000000000RUA BURICA, 375                                   TRES DE MAIO                  RS989100005535351622353510000000000000000202
0000001078SECRETARIA DA FAZENDA DO ESTADO                             87958674000181000000000000000000000000000000AV: MAUA 1155                                     PORTO ALEGRE                  RS900300800000000000000000000000000000000202
0000001083DETRAN - RS                                                 01935819000103000000000000000000000000000000PORTO ALEGRE                                      PORTO ALEGRE                  RS904080000000051328820000000000000000000202
0000001113ELEMAR A.GENZ MAT.ELETRICO,MANUT.DE REDE                    01815647000134000001470033914000000000000000TRAVESSA GIRUA 260                                TRES DE MAIO                  RS989100000000000000000000000000000000000202
0000001119MARCIA B. PIPPER                                            00062171410000000000000000000000000000000000CONSELHEIRA TUTELAR                               INDEPENDENCIA                 RS989150000000000000000000000000000000000201
0000001122ASSOC.DE PAIS E AMIGOS DOS EXCEPCIONAIS - APAE              00994189000185000000000000000000000000000000ESQUINA BUDEL,                                    INDEPENDENCIA                 RS989150000000000000000000000000000000000202
0000001146IEM  INSTITUTO DE ESTUDOS MUNICIPAIS LT                     02310921000186000000000000000000000000000000RUA GENERAL BENTO MARTINS, 24, SALA 304           PORTO ALEGRE - CENTRO         RS900100800000051377811880000000000000000202
0000001159GOHNER   CIA LTDA                                           87692844000129000001470004175000000000000000RUA RIO DE JANEIRO, 215                           TRES DE MAIO                  RS989100000000000053517380000000000000000202
0000001169RIO GRANDE ENERGIA - RGE                                    02016439000138000000962636193000000000000000RUA SAO LUIS,77                                   PORTO ALEGRE                  RS906201700000054321810830000000000000000202
0000001184RADIO CIDADE CANCAO LTDA                                    89979140000167000000000000000000000134833918TRES DE MAIO                                      TRES DE MAIO                  RS989100000003535190217990000000000000000202
0000001243MAQCOES COMERCIO E REPRESENTACOES LTDA.                     91643122000151000001100036412000000000000000RUA JOAO PEDRO TIMM, No 165                       SANTA ROSA                    RS989000000000055351232200000000000000000202
0000001291CONFEDERACAO NACIONAL DOS MUNICIPIOS                        00703157000183000000000000000000000000000000FAX 0XX-61-2101-6019                              BRASILIA                      DF717370000001461210160200000000000000000202
0000001299ERNESTO ALBERTO KOCHHANN -ME                                92522184000178000001470022513000000000000000RUA HORIZONTINA - 1357                            TRES DE MAIO                  RS989100000000000535512880000000000000000202
0000001324MAURO MARCIANO GARCIA FREITAS                               94894169000186000001090177736000000000000000RUA SAMUEL KRUSCHIM, No 200                       SANTA MARIA                   RS970100700000055321224470000000000000000202
0000001342JAIRO JOSE MELLER - MOTORISTA                               00093096909091000000000000000000000000000000INDEPENDENCIA                                     INDEPENDENCIA                 RS989150000000000962965030000000000000000201
0000001369ALTAMIR MARCELO ZIMMERMANN                                  02764528000162000001470036395000000000000000RS 342,KM 19,8                                    TRES DE MAIO                  RS989100000000000353530750000000000000000202
0000001374FARMAMED PRODUTOS HOSPITALARES LTDA EPP                     92037480000183000001100038466000000000000000AVENIDA RIO GRANDE DO SUL , No 480                SANTA ROSA                    RS989000000000000351255880000000000000000202
0000001383MAXICAL COMERCIO DE CONFECCOES LTDA                         02049297000105000000000000000000000000000000ARCO IRIS                                         TRES DE MAIO                  RS989100000000000353512770000000000000000202
0000001389GILMAR ROLIN DA SILVA                                       00067216765087000000000000000000000000000000RUA RIO BRANCO, 116                               TRES DE MAIO                  RS989100000000000000000000000000000000000201
0000001390DOUGLAS MARTINI DE ARAUJO                                   01782694000129000001980005351000000000000000RUA SANTO ANGELO,1177                             INDEPENDENCIA                 RS989150000000000000000000000000000000000202
0000001455LIBORIO SEGATTO                                             03243112000161000001470035933000000000000000RUA FERNANDO FERRARI, 407                         TRES DE MAIO                  RS989100000000000353516630000000000000000202
0000001489AUTOMASSUL INFORMATICA LTDA                                 03683195000100000001470036670000000000000000AV. SENADOR ALBERTO PASQUALINI, No 347, LOJA 02   TRES DE MAIO                  RS989100000001455353527420000000000000000202
0000001495SOCIEDADE EDUCACIONAL-SETREM 3 DE MAIO                      98039852000197000000000000000000000000000000AVENIDA SANTA ROSA,2405                           TRES DE MAIO                  RS989100000000055353510110000000000000000202
0000001513LABORATORIO SAO VICENTE LTDA                                89431100000186000000000000000000000110831437RUA OSVALDO CRUZ,381                              TRES DE MAIO                  RS989100000000000353511850000000000000000202
0000001570LUIS CARLOS BAUKEN                                          00065075110053000000000000000000000000000000RUA URUGUAI, 1708                                 HORIZONTINA                   RS989200000000000000000000000000000000000201
0000001600PANASEL - PAULO TRAESEL - EIRELI                            00152379000155000000000000000000000000000000BR 472 KM 67- NS 1833                             SAO MARTINHO                  RS986900000000000000000000000000000000000202
0000001623LUIS CESAR REIS                                             93920361000137000001470026535000000000000000RUA OSVALDO CRUZ, 858                             TRES DE MAIO                  RS989100000000000353525550000000000000000202
0000001669ELAINE PAZ DA SILVA TRANSPORTES                             04287784000131000001980006048000000000000000RUA SOROCABA , 324                                INDEPENDENCIA                 RS989150000000000993425520000000000000000202
0000001680ALERCIO J.CHRIST   CIA.LTDA                                 92332246000189000001470029968000000000000000AV.URUGUAI,670 SALA 02                            TRES DE MAIO                  RS989100000000000353532220000000000000000202
0000001696MAURI BOLIS ZIMMERMANN                                      94172152000115000001470026691000000000000000RUA ALFREDO HENN,1034 - SALA 2                    TRES DE MAIO                  RS989100000000000000000000000000000000000202
0000001744JEFERSON LUIS SCHAKOFSKI                                    04286078000175000000000000000000000000000000R. SANTA ROSA DE LIMA, 789, SALA 1                INDEPENDENCIA                 RS989150000000055353912600000000000000000202
0000001765VEISA VEICULOS LTDA                                         87488847000900000000000000000000000000000000EST BR 285 KM 377                                 ENTRE IJUIS                   RS988550000000000000000000000000000000000202
0000001801COOP.DE TECNICOS DO NOROESTE DO EST. DO RGS-UNITEC          01404787000110000000000000000000000000000000AV.SANTA ROSA, 310, sala 04                       TRES DE MAIO                  RS989100000000055353520520000000000000000202
0000001810DENTARIA E CIRURGICA MERCOSUL LTDA                          01735549000197000009676009876000000000000000RUA SANTO ANTONIO,247                             PORTO ALEGRE                  RS900400013311497716727000000000000000000202
0000001834CENTERMEDI COMERCIO DE PRODUTOS HOSP.LTDA                   03652030000170000001700004449000000000000000RUA ADAO WELKER,90                                BARAO DE COTEGIPE             RS997400000000054352327000000000000000000202
0000001856DIMASTER COMERCIO DE PRODUTOS HOSPITALARES                  02520829000140000001700004112000000000000000RUA VASCO GAMA, No 33                             BARAO DE COTEGIPE             RS997400000543523110826000000000000000000202
0000001857COPADIESEL COMERCIO DE PECAS E ACESSORIOS LTDA              02965225000108000001100071803000000000000000RS 344 KM 43 SALA 4                               SANTA ROSA                    RS989000000000000351257580000000000000000202
0000001858LABORATORIO DE ANALISES CLINICAS KL LTDA                    89921548000188000000000000000000000000000000RUA OSVALDO CRUZ,1011                             TRES DE MAIO                  RS989100003535878699628910000000000000000202
0000001870WALDELIRIO BORGES MELLER                                    00014474638034000000000000000000000000000000CHEFE DO SETOR DE OBRAS E CONSERVACAO             INDEPENDENCIA                 RS989150000000000000000000000000000000000201
0000001872MODELO PNEUS LTDA.                                          94510682000126000000100061907000000000000000RUA MAL.HUMBERT DE ALENCAR CASTELO BRANCO,56      BENTO GONCALVES               RS957000000000054345565000000000000000000202
0000001887LOJAS BECKER LTDA                                           04415928005904000001470038487000000000000000RUA PADRE CACIQUE, No 928                         TRES DE MAIO                  RS989100000000055353527950000000000000000202
0000001916ALADIO VOLNEI TORMOHLEN                                     07872457000135000001980008903000000000000000RUA GETULIO VARGAS, 380                           INDEPENDENCIA                 RS989150000000000353911040000000000000000202
0000001929ALBERI BONMANN                                              00062412264015000000000000000000000000000000ESCRITURARIO                                      INDEPENDENCIA                 RS989150000000000000000000000000000000000201
0000001932LEANDRO RICARDO DALBEM                                      02310822000102000000000000000000000000000000RUA MATO GROSSO,117                               TRES DE MAIO                  RS989100000000000000000000000000000000000202
0000001960SUSANA KOPPER                                               00051264200030000000000000000000000000000000SECRETARIA DO LEGISLATIVO                         INDEPENDENCIA                 RS989150000000000000000000000000000000000201
0000001968CATIA DE LIMA MACHADO                                       00076166228015000000000000000000000000000000SECRETARIA DE ADMINISTRACAO                       INDEPENDENCIA                 RS989150000000000000000000000000000000000201
0000001969DULCE TEIXEIRA PEREIRA                                      00046251880082000000000000000000000000000000PROFESSORA MUNICIPAL                              INDEPENDENCIA                 RS989150000000000000000000000000000000000201
0000001993COMERCIAL AGRICOLA MANJABOSCO LTDA                          87346185000179000001470023382000000000000000AVENIDA SANTA ROSA,401                            TRES DE MAIO                  RS989100000000000353514340000000000000000202
0000002021ABASTECEDORA DE COMBUSTIVEIS BONATTO LTDA                   06310576000131000000000000000000000000000000RUA SAO JOAO , ESQUINA COM AV. TRES , No 495      INDEPENDENCIA                 RS989150000000055353911800000000000000000202
0000002026SAVICKI E SCHNEIDER LTDA                                    04456171000180000000000000000000000000000000AV. TUCUNDUVA, No 345, SALA 04                    HORIZONTINA                   RS989200000000055353731900000000000000000202
0000002029ELISANGELA LUDWIG - ZUSE PECAS                              05255024000105000000000000000000000000000000RUA IVAGACI, No 1266                              TRES DE MAIO                  RS989100000000055353522740000000000000000202
0000002037ASSOCIACAO MAE RAINHA - RADIO DE INDEPENDENCIA              01235876000180000000000000000000000000000000RUA SENADOR SALGADO FILHO 517                     INDEPENDENCIA                 RS989150000000000000000000000000000000000202
0000003567CARLOS ROGERIO SPENGLER                                     00075601885087000000000000000000000000000000INDEP.                                            INDEPENDENCIA                 RS989150000000000000000000000000000000000201
0000003578CLAIRTON DE LIMA                                            00095301992015000000000000000000000000000000SERVIDOR DA CAMARA                                INDEPENDENCIA                 RS000989150000000000000000000000000000000201
0000003587JAIME JOSE ALF - JJ AUTO PECAS   TINTAS                     07218344000110000000000000000000000000000000RUA HORIZONTINA, 1589                             TRES DE MAIO                  RS989100000000000353523650000000000000000202
0000003621ZENAIDE MARGARETE DO AMORIM  MASSUDA                        00091206880082000000000000000000000000000000CMDCA                                             INDEPENDENCIA                 RS989150000000000000000000000000000000000201
0000003660TANIA JACI BORGES DE MOTTA DE SIQUEIRA                      00062975226004000000000000000000000000000000RUA IPIRANGA, S/N                                 INDEPENDENCIA                 RS989150000000000353911180000000000000000201
0000003663OSMILDA CRUZ KEMP                                           00048511994068000000000000000000000000000000RUA SANTA ROSA DE LIMA, 233                       INDEPENDENCIA                 RS989150000000000353912550000000000000000201
0000003666GENI CAPPI SCHONARDIE                                       00026237440097000000000000000000000000000000CONSELHEIRA                                       INDEPENDENCIA                 RS989150000000000000000000000000000000000201
0000003695VULMAR  ANTONIO WINK - ME                                   91381517000123000001430022458000000000000000RUA ARTUR AMBROS, 420                             TENENTE PORTELA               RS985000000000000355115650000000000000000202
0000003725SERPLAMED SERV.DE PLAN. E ASSES. EM MEDICINA TRAB.          07131887000104000000000000000000000000000000RUA GUAPORE, 650 SALA 06                          SANTA ROSA                    RS989000000000055351231570000000000000000202
0000003742LEANDRO NOGARA                                              07611894000103000000000000000000000000000000AV. TRES DE MAIO, 918                             INDEPENDENCIA                 RS989150000000055915823780000000000000000202
0000003750MARCOS EVANDRO KLEIN NAGEL                                  07598799000109000001470043820000000000000000AV. PLANALTO, 343                                 TRES DE MAIO                  RS989100000000055353518280000000000000000202
0000003786A FLACH   CIA LTDA (ATUAL BURICA PNEUS)                     02332508000112000001730007225000000000000000R. TRES DE MAIO, 331                              BOA VISTA DO BURICA           RS989180000000000353811720000000000000000202
0000003791ROSANE NEUMANN PAIM                                         00000346422000000000000000000000000000000000AG. EPIDEMIOLOGICO                                INDEPENDENCIA                 RS989150000000000000000000000000000000000201
0000003792FRANCIELE A. N. SCHRAMEIER                                  00000791721051000000000000000000000000000000ESCRITURARIO                                      INDEPENDENCIA                 RS989150000000000000000000000000000000000201
0000003793MARLICE IVONI BARTH DOS SANTOS                              00000135922038000000000000000000000000000000AG. EPIDEMIOLOGICO                                INDEPENDENCIA                 RS989150000000000000000000000000000000000201
0000003806GENECI BORDIGNON DA SILVA                                   00026242176068000000000000000000000000000000INDEPENDENCIA                                     INDEPENDENCIA                 RS989150000000000000000000000000000000000201
0000003815DESORDI, DESORDI   CIA LTDA                                 03722348000180000001130116716000000000000000RUA BORGES DE MEDEIROS, 510                       SANTO ANGELO                  RS988032800000000331314100000000000000000202
0000003831MANTOMAC COMERCIO DE PECAS E SERVICOS LTDA                  79879318000144000000251477398000000000000000RUA CRISTOVAO COLOMBO, No 221-E                   CHAPECO                       SC898042500493361535653590000000000000000202
0000003834LETICIA DA SILVA BONFANTI                                   00000497773007000000000000000000000000000000AV. TRES DE MAIO                                  INDEPENDENCIA                 RS989150000000000000000000000000000000000201
0000003839MARLICI LENHART CLAUS-Auto Eletrica Ristof                  07694947000199000001470044126000000000000000RUA SANTA MARIA, 477                              TRES DE MAIO                  RS989100000000000353512490000000000000000202
0000003842FOCO ENGENHARIA ELETRICA E COMERCIO LTDA                    91358788000168000001100035548000000000000000RUA BUENOS AIRES, 512                             SANTA ROSA                    RS989000000000000351251410000000000000000202
0000003853ELIZABETE CATARINA TIECHER                                  00037302094004000000000000000000000000000000PROFESSORA                                        INDEPENDENCIA                 RS989150000000000000000000000000000000000201
0000003855RIO GRANDE DO SUL PODER JUD. - TRIB. DE JUSTICA             89522064000166000000000000000000000000000000PRCA MARECHAL DEODORO, 55                         PORTO ALEGRE                  RS900109080000000000000000000000000000000202
0000003868ORNEI FABIO VON MUHLEN                                      06087247000173000001470043286000000133336677RUA SANTA MARIA, 477 - SALA 01                    TRES DE MAIO                  RS989100000000000000000000000000000000000202
0000003915RODRIGO TABORDA LIMA - PADARIA PAO DE MEL                   07500643000143000001980008830000000000000000AV. TRES DE MAIO, 582                             INDEPENDENCIA                 RS989150000000000000000000000000000000000202
0000003921ELI OLIVEIRA BAIOTTO                                        00065928636091000000000000000000000000000000PROFESSORA                                        INDEPENDENCIA                 RS989150000000000000000000000000000000000201
0000003922TATIANE FIN KRISTIUM                                        00089849035072000000000000000000000000000000PROFESSORA                                        INDEPENDENCIA                 RS989150000000000000000000000000000000000201
0000003923CELSO JOACIR BEYER- CELSO AUTO PECAS                        08293942000117000001470044720000000000000000RS 342, No 1180                                   TRES DE MAIO                  RS989100000000055353530260000000000000000202
0000003925CTG - SENTINELA DO RIO GRANDE                               90476854000131000000000000000000000000000000AV. TRES DE MAIO, 220                             INDEPENDENCIA                 RS989150000000000000000000000000000000000202
0000003947VALMIR SOARES DOS SANTOS AUTO PECAS                         08262617000197000001470044568000000000000000RUA EDSON AZAMBUJA, 156                           TRES DE MAIO                  RS989100000000000353522290000000000000000202
0000003954CONSORCIO INT.DE SAUDE REG. MISSOES-CISMISSOES              02264781000157000002690003990000000000000000RUA MARIO BRUALIO RIBAS, 793                      ENTRE IJUIS                   RS988550000000000331383880000000000000000202
0000003960CONTRIBUICAO AO FAPS - DIVIDA                               87612826000190000000000000000000000000000000RUA SENADOR PINHEIRO, 1348                        INDEPENDENCIA                 RS989150000000000353911210000000000000000202
0000003985ELETROMAIO COM. MATE. ELETRIC. E HIDR. LTDA                 07194591000124000000000000000000000000000000RUA PADRE CACIQUE, 1101                           TRES DE MAIO                  RS989100000000055353523950000000000000000202
0000004021MILTON WOLLMANN DE BARROS                                   00056289316087000000000000000000000000000000MEDICO VETERINARIO                                INDEPENDENCIA                 RS989150000000000000000000000000000000000201
0000004029FRANALI COMERCIO DE LIVROS LTDA                             08708255000115000001100102083000000000000000RUA AGCO PRENDA, 72                               SANTA ROSA                    RS989000000000000351128860000000000000000202
0000004040AGUA VIVA POCOS E ARTESIANOS LTDA                           05704686000115000000000000000000000000000000AV. 7 DE SETEMBRO, 295                            TAPEJARA                      RS999500000000054334410100000000000000000202
0000004041ROSALVO KRISTIUM - ME                                       08681700000109000001980009101000000000003156AV. TR S DE MAIO, 1104                            INDEPENDENCIA                 RS989150000000055353912740000000000000000202
0000004059MARINES FARIAS TABORDA                                      00077397509053000000000000000000000000000000AV. TR S DE MAIO                                  INDEPENDENCIA                 RS989150000000000000000000000000000000000201
0000004078IGAM - INST. GAMA DE ASSESORIA A ORGAO PUBLICOS             07675477000116000000000000000000000000000000PORTO ALEGRE-RS                                   PORTO ALEGRE                  RS901109000000000000000000000000000000000202
0000004095PIPPI MAQUINAS AGRICOLAS LTDA                               88590096000136000000000000000000000000000000Avenida Bento Goncalves, 1500                     GIRUA                         RS988700000000055336135500000000000000000202
0000004102JORGE LUIS BAU                                              00027506274000000000000000000000000000000000CHEFE DO SETOR DE OBRAS E VIACAO                  INDEPENDENCIA                 RS989150000000000000000000000000000000000201
0000004115COOPERATIVA AGRO PECUARIA ALTO URUGUAI LTDA                 98042120004496000000000000000000000000000000AV TRES DE MAIO, 1067                             INDEPENDENCIA                 RS989150000000000353912110000000000000000202
0000004121TIAGO BRASIL DORNELES ME                                    08840262000176000001980009128000000000000000RUA SAO MIGUEL, 998                               INDEPENDENCIA                 RS989150000000000353911440000000000000000202
0000004144DENTALLY MAT. E EQUIP. ODONTOLOGICOS LTDA                   07832100000123000001100099287000000000000000AV. BORGES DE MEDEIROS, 716 SALA 01               SANTA ROSA                    RS989000000000055351238650000000000000000202
0000004150COMERCIO DE VIDRO GIRARDI LTDA                              08227268000172000001470044517000000000000000AV. SENADOR ALBERTO PASQUALINE, 190               TRES DE MAIO                  RS989100000000000000000000000000000000000202
0000004197MARLA ELISA BERNARDI                                        00098370090044000000000000000000000000000000RUA IPIRANGA, 880                                 INDEPENDENCIA                 RS989150000000000353914400000000000000000201
0000004205HOSPITALARES COMERCIO DE MATERIAIS MEDICOS                  07571682000131000001100098205000000000000000RUA BURITI, 188                                   SANTA ROSA                    RS989000000000055351176920000000000000000202
0000004225ANA PAULA GUIMARaES HENZES                                  00000000001030000000000000000000000000000000RUA    SANTO ANGELO, 290                          INDEPENDENCIA                 RS989150000000000000000000000000000000000201
0000004235ANTONIO LUIZ LIMBERGER                                      00045094918087000000000000000000000000000000AV, AMERICA      s/n     - inss no 11622610452    SANTA ROSA                    RS989000000000000000000000000000000000000201
0000004252ASSOCIACAO HOSPITALAR BOM PASTOR                            90167289000120000001150024620000000000000525RUA INDEPENDENCIA, 73                             SANTO AUGUSTO                 RS985900000000000378110120000000000000000202
0000004266DAER - DEPARTAMENTO AUTONOMO DE ESTRADAS E RODAGEM          92883834000100000000000000000000000000000000av. borges de medeiros, 1555                      PORTO ALEGRE                  RS900200200000051321055740000000000000000202
0000004271ENPHASE PAVIMENTACOES LTDA                                  93336030000154000000000000000000000000000000RS 344 KM 41, No 4001                             SANTA ROSA                    RS989000000000055351261940000000000000000202
0000004288LEONILDA DE FATIMA FURTADO TOLEDO                           00000295613025000000000000000000000000000000AGENTE DE SAUDE                                   INDEPENDENCIA                 RS989150000000000000000000000000000000000201
0000004295PEDRO NELCI MACHADO                                         00049907018015000000000000000000000000000000MOTORISTA                                         INDEPENDENCIA                 RS989150000000009999466440000000000000000201
0000004296ANTONIO DINKOSKI                                            00038800527000000000000000000000000000000000MOTORISTA                                         INDEPENDENCIA                 RS989150000000000000000000000000000000000201
0000004298VINICIUS GRENZEL SCHMALZ - Fasoletto                        08472445000186000000000000000000000000000000av. uruguai, 160                                  TRES DE MAIO                  RS989100000000000000000000000000000000000202
0000004303BANCO DO BRASIL       S/A                                   00000000337668000000000000000000000000000000AV TRES DE MAIO, 1113                             INDEPENDENCIA                 RS989150000000000353911220000000000000000202
0000004306MIGUEL ROBERTO DE SA                                        02185603000130000001980009179000000000000000AV. 3 DE MAIO, 952                                INDEPENDENCIA                 RS989150000000000996339890000000000000000202
0000004313TREMA COMERCIO DE MATERIAIS DE CONSTRUCAO LTDA              09606109000141000001470046358000000000000000RUA BURICA, No 820                                TRES DE MAIO                  RS989100000000055353542040000000000000000202
0000004322ULMIRA CORADINI MENSCH                                      00061027332072000000000000000000000000000000independencia                                     INDEPENDENCIA                 RS989150000000000000000000000000000000000201
0000004328ONIRIO LUIZ DALLA FAVERA                                    00028085760053000000000000000000000000000000Rua Castelo Branco                                INDEPENDENCIA                 RS989150000000000000000000000000000000000201
0000004346CELOI LOVANI MUNIZ FABBRIM                                  00077983726015000000000000000000000000000000PROG FESSORA                                      INDEPENDENCIA                 RS989150000000000000000000000000000000000201
0000004348NADIR HERNANDES NAGEL                                       00059837985020000000000000000000000000000000PROFESSORA                                        INDEPENDENCIA                 RS989150000000000000000000000000000000000201
0000004349SANDRA VENITES PF                                           00098725114034000000000000000000000000000000RUA ANISIO DE ARAUJO E SILVA 156                  INDEPENDENCIA                 RS989150000000000000000000000000000000000201
0000004352LUIS CARLOS TORMOHLEN - PAZZATO PCS E ASSESSORIOS           09501031000109000000000000000000000000000000rua getulio vargas, 380                           INDEPENDENCIA                 RS989150000000000353911040000000000000000202
0000004355INCAMEL MECANICA PESADA LTDA                                73399024000139000000000000000000000000000000br 472, km 139,40                                 TRES DE MAIO                  RS989100000000000353521360000000000000000202
0000004413MINISTERIO DA FAZENDA - SEC. RECEITA FEDERAL                00394460005887000000000000000000000000000000ESP. DOS MINISTERIOS BLOCO,05                     BRASILIA - EIXO MONIMENTAL    DF703105000000000000000000000000000000000202
0000004429CERTHIL-Materiais -COOP. DES. SOC. ENT. RIOS LTDA           10415935000192000000000000000000000000000000AVENIDA AVAI PAVILHAO 1                           TRES DE MAIO                  RS989100000000055353547000000000000000000202
0000004434BARICHELLO  COM. MAT. DE CONST. LTDA..3 de maio             10614770000188000000000000000000000000000000AV. SANTA ROSA, No 450                            TRES DE MAIO                  RS989100000000055353525270000000000000000202
0000004436AUGUSTA DARONCO CAUDURO                                     00001737516012000000000000000000000000000000ASSESSORA DE COMUNICACAO                          INDEPENDENCIA                 RS989150000000000000000000000000000000000201
0000004439TANIA GORETE RIETH                                          00052816702049000000000000000000000000000000PROFESSORA -                                      INDEPENDENCIA                 RS989150000000000000000000000000000000000201
0000004440VIVIANE KEIST                                               00092250220000000000000000000000000000000000RUA SOROCABA                                      INDEPENDENCIA                 RS989150000000000000000000000000000000000201
0000004451CRISTIANA ALICE SCHONINGER                                  00001852843020000000000000000000000000000000AUXILIAR DE ESCRITURARIO                          INDEPENDENCIA                 RS989150000000000000000000000000000000000201
0000004456ACONTURS-ASS.DOS CONSELHEIROS E EX-CONS.                    10604267000141000000000000000000000000000000RUA DEMETRIO RIBEIRO, 57                          ALEGRETE                      RS975422000000000000000000000000000000000202
0000004464CAIXA ECONOMICA FEDERAL AGENCIA TRES DE MAIO                00360305052171000000000000000000000000000000AV. URUGUAI, 600                                  TRES DE MAIO                  RS989100000000055353518000000000000000000202
0000004476PAULO ANTONIO SILVA - PAULUS EQP. HOSPITALARES              08747326000199000001130143128000000000000000RUA XV DE NOVEMBRO, 2365 SALA A                   SANTO ANGELO                  RS988040009943040733122630000000000000000202
0000004499ADOVANDRO LUIZ FRAPORTI - ME                                07554943000105000000370039874000000000000000RUA DOS IMIGRANTES, No 467                        ENCANTADO                     RS959600000000051375132740000000000000000202
0000004502Z K M HIDRAULICA LTDA                                       08106121000124000000000000000000000000000000RUA JOAO MACLUF, No 276                           SANTA ROSA                    RS989000000000055351212150000000000000000202
0000004506EVERTON DA ROSA                                             00096267020010000000000000000000000000000000CONTADOR                                          INDEPENDENCIA                 RS989150000000000000000000000000000000000201
0000004508CLAUDIA DE SA KEMPF                                         00001328321002000000000000000000000000000000independencia                                     INDEPENDENCIA                 RS989150000000000000000000000000000000000201
0000004510DEISI HOSLER                                                00001716240093000000000000000000000000000000independencia                                     INDEPENDENCIA                 RS989150000000000000000000000000000000000201
0000004521TAMIRES VANESSA MOREIRA                                     00002063950008000000000000000000000000000000independenciA                                     INDEPENDENCIA                 RS989150000000000000000000000000000000000201
0000004534FRANCIELI OVIEDO                                            00001553915003000000000000000000000000000000VISITADORA DO PIM                                 INDEPENDENCIA                 RS989150000000000000000000000000000000000201
0000004542HOTEL FAZENDA E TURISMO RURAL TRES CASCATAS LTDA            02231795000174000000000000000000000000000000LINHA REVOLTA                                     SANTO CRISTO                  RS989600003541074999978870000000000000000202
0000004544CONSTRUTORA JRD LTDA                                        08728051000146000003160004513000000000000000RUA ANTONIO LORENZON, No 107                      SEDE NOVA                     RS986750000000055996130220000000000000000202
0000004560ANILA REDEL DA CHAGAS                                       00050056336004000000000000000000000000000000rua SENADOR PINHEIRO, 1046                        INDEPENDENCIA                 RS989150000000000000000000000000000000000201
0000004569MOACIR SOARES DOS SANTOS                                    00035733446072000000000000000000000000000000RUA EURICO S DE OLIVEIRA, 109                     INDEPENDENCIA                 RS989150000000000000000000000000000000000201
0000004593GABRIELA TORRES RAUBER                                      08829940000108000000963254448000000000000000AV. PROTASIO ALVES, No 943, LOJA 01               PORTO ALEGRE                  RS904100000000051326141710000000000000000202
0000004598JACOB FERNANDES DE LIMA                                     00027526666087000000000000000000000000000000RINCAO FACCIN                                     INDEPENDENCIA                 RS989150000000000961395260000000000000000201
0000004603FUNDACAO EDUCACIONAL MACHADO DE ASSIS-FEMA                  95817615000111000000000000000000000000000000RUA SANTOS DUMONT, No 820                         SANTA ROSA                    RS989000000000055351138000000000000000000202
0000004609VALDIR BONIN                                                92113521000173000000000000000000000000000000AV. 3 MAIO, 904                                   INDEPENDENCIA                 RS989150000000000000000000000000000000000202
0000004616ANDERSON DIEGO SALAZAR                                      00001372934022000000000000000000000000000000motorista                                         INDEPENDENCIA                 RS989150000000000000000000000000000000000201
0000004625MACIEL FERNANDO MASSUDA - MEI - INSS 12544833655            11258599000184000000000000000000000000000000RUA SANTO ANGELO, 382                             INDEPENDENCIA                 RS989150000000000962347890000000000000000202
0000004628JUNG E RIBEIRO LTDA-ME                                      11355974000104000000000000000000000000000000av. tres de maio, 860                             INDEPENDENCIA                 RS989150000000009993266440000000000000000202
0000004644GEOLAC GEOLOGIA E MEIO AMBIENTE LTDA-GEOLAC                 91053736000183000000000000000000000000000000RUA SANTA CRUZ No 188 1o ANDAR                    TRES DE MAIO                  RS989100000000055353585570000000000000000202
0000004652ELENICE SEIDEL                                              00000859569020000000000000000000000000000000AGENTE DE SAUDE                                   INDEPENDENCIA                 RS989150000000000000000000000000000000000201
0000004653REJANE MENEGUETTI                                           00095925813049000000000000000000000000000000AUXILIAR DE ESCRITURARIO                          INDEPENDENCIA                 RS989150000000000000000000000000000000000201
0000004660GRACIELA KUHLER DE MOURA                                    00002475459026000000000000000000000000000000INDEPENDENCIA                                     INDEPENDENCIA                 RS989150000000000000000000000000000000000201
0000004684UNDIME/RS- UNIaO DOS DIRIG. MUN. DE EDUCACAO                05387322000159000000000000000000000000000000RUA MARCILIO DIAS, 574                            PORTO ALEGRE -MENINO DEUS     RS901300000000000000000000000000000000000202
0000004701SULCOM  COMERCIO DE INFORMATICA LTDA                        03037778000163000000000000000000000000000000rua marechal floriano no 600                      PALMEIRA DAS MISSOES          RS983000000000055374100000000000000000000202
0000004713ELIZANDRA MACIOROSKI                                        09007233000190000001780006141000000000000000av guarani no 143,                                CACIQUE DOBLE                 RS998600000000054355213170000000000000000202
0000004733MARCIO CRISTIANO LOSEKANN                                   12047089000120000000000000000000000000000000AV. MEDIANEIRA, 211                               TRES DE MAIO                  RS989100000000000991513480000000000000000202
0000004738CRISTIAN BORGES MULLER                                      00001579052096000000000000000000000000000000RUA SENADOR PINHEIRO 1348                         INDEPENDENCIA                 RS989150000000000000000000000000000000000201
0000004740LIDIANE MARTINI                                             00001527402010000000000000000000000000000000AGENTE DE SAUDE                                   INDEPENDENCIA                 RS989150000000000000000000000000000000000201
0000004754CRUZ VERMELHA BRASILEIRA FILIAL DE SANTA ROSA               12116619000145000000000000000000000000000000R JOSE LAVARDA                                    SANTA ROSA                    RS989000000000000000000000000000000000000202
0000004756RUBENS RIBEIRO DOS SANTOS - MEI                             09353639000125000000000000000000000000000000RUA IVAGACI                                       TRES DE MAIO                  RS989100000000000000000000000000000000000202
0000004763PRICILA P M GASPARETTO FARMACIA- ME                         11420912000139000000000000000000000000000000AV TRES DE MAIO, 1125, SALA 5                     INDEPENDENCIA                 RS989150000000000000000000000000000000000202
0000004766KLEBER AUGUSTO JUNG                                         00000716281007000000000000000000000000000000ESQUINA BOAVISTA                                  INDEPENDENCIA                 RS989150000000000000000000000000000000000201
0000004790MARCIA GIANETE DA SILVA ZUHL                                00090887905072000000000000000000000000000000MONITORA VISITADORA DOPIM                         INDEPENDENCIA                 RS989150000000000000000000000000000000000201
0000004806HOSPITAL SAO JOSE- ASSOCIACAO DE LITERATURA E BEN           92962869001379000000000000000000000000000000AVENIDA PRESIDENTE VARGAS                         GIRUA                         RS988700000000000000000000000000000000000202
0000004812PATRICIA PAVLAK                                             00001243663090000000000000000000000000000000AUXILIAR DE ESCRITURARIO                          INDEPENDENCIA                 RS989150000000000000000000000000000000000201
0000004813LAR DA VELHICE ERNANI LUIZ SCHNEIDER                        89968929000112000000000000000000000000000000Rua Pedro Cordenunzi, no 1300                     GIRUA                         RS988700000000055336122020000000000000000202
0000004816MECAUTOR MECANICA E COMERCIO DE AUTOMOTORES LTDA            87704151000532000000000000000000000000000000RUA AV CEL. DICO No 1552                          IJUI                          RS987000000000000000000000000000000000000202
0000004827MARCOS NOGARA                                               00077365232072000000000000000000000000000000MECANICO                                          INDEPENDENCIA                 RS989150000000000000000000000000000000000201
0000004833JUSSARA INES VIONE TOLEDO                                   00071299696015000000000000000000000000000000RUA SENADOR PINHEIRO, 1348                        INDEPENDENCIA                 RS989150000000000000000000000000000000000201
0000004836FLAVIO  AUGUSTO POHL                                        00000111513073000000000000000000000000000000FISCAL                                            INDEPENDENCIA                 RS989150000000000000000000000000000000000201
0000004841MELLER E BOYARSKI EXTINTORES LTDA                           12920769000107000000000000000000000000000000RUA SAO JOAO, 705                                 INDEPENDENCIA                 RS989150000000000000000000000000000000000202
0000004844LOVANI MARINES SCHAKOFSKI BUBLITZ                           00078764629015000000000000000000000000000000ESQUINA BUDEL                                     INDEPENDENCIA                 RS989150000000000963489160000000000000000201
0000004846RODRIGO GEHM- TREMADIESEL                                   09624629000187000000000000000000000018137345RUA HORIZONTINA, 2035                             TRES DE MAIO                  RS989100000000055353594320000000000000000202
0000004855DANIELI MARIANE GIOVELLI                                    00000192726005000000000000000000000000000000PSICOLOGA                                         INDEPENDENCIA                 RS989150000000000000000000000000000000000201
0000004859ELIETE TURRA                                                00069585466015000000000000000000000000000000MONITORA                                          INDEPENDENCIA                 RS989150000000000000000000000000000000000201
0000004876VERIDIANA NOGARA                                            00000912518006000000000000000000000000000000RUA SAO MIGUEL                                    INDEPENDENCIA                 RS989150000000000964684410000000000000000201
0000004883ROSELI DE OLIVEIRA SANTOS                                   00056028466034000000000000000000000000000000PROFESSORA                                        INDEPENDENCIA                 RS989150000000000000000000000000000000000201
0000004887DEBORA ZIMMERMANN                                           00095571159049000000000000000000000000000000PROFESSORA                                        INDEPENDENCIA                 RS989150000000000000000000000000000000000201
0000004888ANA PAULA HAHN                                              00098041096034000000000000000000000000000000PROFESSORA                                        INDEPENDENCIA                 RS989150000000000000000000000000000000000201
0000004889MARI LUCIA COPETTI                                          00070899096034000000000000000000000000000000PROFESSORA                                        INDEPENDENCIA                 RS989150000000000000000000000000000000000201
0000004904CLAUDIA LISIANE FRANK                                       00089993349020000000000000000000000000000000PROFESSORA                                        INDEPENDENCIA                 RS989150000000000000000000000000000000000201
0000004905REINALDO DALL" AGNESE PIRES                                 00093526814015000000000000000000000000000000PROFESSOR                                         INDEPENDENCIA                 RS989150000000000000000000000000000000000201
0000004916LASCH TRANSPORTES LTDA ME                                   07518101000106000000000000000000000000000000RUA SANTA CRUZ                                    TRES DE MAIO                  RS989100000000000000000000000000000000000202
0000004918REGIS GIARDELI ZANELLA                                      00000268085013000000000000000000000000000000INSTRUTOR DE INFORMATICA                          INDEPENDENCIA                 RS989150000000000000000000000000000000000201
0000004928SLC COMERCIAL DE MAQUINAS AGRICOLAS LTDA                    90055054000147000000000000000000000000000000RUA DAHNE DE ABREU, 1152                          HORIZONTINA                   RS989200000000000353711320000000000000000202
0000004959CELONI TABORDA ZIMMERMANN MEI INSS 17017607072              97551920000130000000000000000000000000000000RUA SANTA ROSA DE LIMA                            INDEPENDENCIA                 RS989150000000000916245660000000000000000202
0000004967NERI OLIVEIRA QUITAISKI                                     00074649493072000000000000000000000000000000AUXILIAR DE ESCRITURARIO                          INDEPENDENCIA                 RS989150000000000000000000000000000000000201
0000004977GENTE SEGURADORA S.A.                                       90180605000102000000000000000000000000000000AVENIDA CARLOS GOMES, 350                         PORTO ALEGRE                  RS904800000000051302388880000000000000000202
0000004979MAPFRE SEGUROS GERAIS S.A                                   61074175000138000000000000000000000000000000AVENIDA DAS NACOES UNIDAS, 11711                  SAO PAULO                     SP045780000000054322332450000000000000000202
0000004980PORTO SEGURO COMPANHIA DE SEGUROS GERAIS                    61198164000160000000000000000000000000000000RUA GUAIANAZES, 1238                              SAO PAULO                     SP012040010000011336632580000000000000000202
0000004983INPLAN ASSESSORIA E PLANEJAMENTO AGROPECUARIO               06303203000214000000000000000000000140637290AV. EXP. BERTHOLDO BOECK 12 SALA 01               TRES DE MAIO                  RS989100000000055997816360000000000000000202
0000004987IMPRENSA NACIONAL                                           04196645000100000000000000000000000000000000SETOR DE INDUSTRIAS GRAFICAS, QUADRA 6, LOTE 800  BRASILIA                      DF706104600000000000000000000000000000000202
0000004993ELITE COMERCIO DE VEICULOS LTDA                             13347671000175000000000000000000000000000000ROD. BR 285 KM 457 S/N                            IJUI                          RS987000000000000000000000000000000000000202
0000004994MARISA ROSA DE OLIVEIRA                                     00028429348816000000000000000000000000000000RUA SOROCABA No387                                INDEPENDENCIA                 RS989150000000000000000000000000000000000201
0000004996JANETE BERFT ROSANELLI                                      00001522176063000000000000000000000000000000RUA MIGUEL TORZESKI No171                         INDEPENDENCIA                 RS989150000000000000000000000000000000000201
0000004997CARLOS RENAN BORGES                                         00001968121005000000000000000000000000000000RUA MANOEL DA NOBREGA No580                       INDEPENDENCIA                 RS989150000000000000000000000000000000000201
0000004998MARLENE LESSES DOS SANTOS                                   00000955756006000000000000000000000000000000RUA JOSINO FARIAS No1361                          INDEPENDENCIA                 RS989150000000000000000000000000000000000201
0000004999SUSANA AMORIN DE CAMPOS                                     00000442817061000000000000000000000000000000RUA SAO MIGUEL No222                              INDEPENDENCIA                 RS989150000000000000000000000000000000000201
0000005000MARIA ODETE BORGES                                          00077397622020000000000000000000000000000000RUA COSTA E SILVA No478                           INDEPENDENCIA                 RS989150000000000000000000000000000000000201
0000005001ILIANI DA ROSA CORREA                                       00000887275052000000000000000000000000000000RUA DUQUE DE CAXIAS No629                         INDEPENDENCIA                 RS989150000000000000000000000000000000000201
0000005002ROSANI DE FATIMA BORGES                                     00000579344010000000000000000000000000000000RUA AMARO LEITE No160                             INDEPENDENCIA                 RS989150000000000000000000000000000000000201
0000005003ANGELITA RODRIGUES ERTE                                     00001250041090000000000000000000000000000000RUA JOSINO FARIAS No250                           INDEPENDENCIA                 RS989150000000000000000000000000000000000201
0000005004ROSIANE ELISOLENE DE BARROS                                 00001505051088000000000000000000000000000000RUA JULIO DE CASTILHOS N o636                     INDEPENDENCIA                 RS989150000000000000000000000000000000000201
0000005005TERESINHA BOIARSKI MASSUDA                                  00077400780000000000000000000000000000000000RUA SANTO ANGELO No164                            INDEPENDENCIA                 RS989150000000000000000000000000000000000201
0000005006SABRINA NOGARA                                              00001702053040000000000000000000000000000000RUA MARECHAL DEODORO No75                         INDEPENDENCIA                 RS989150000000000000000000000000000000000201
0000005007DEJANIRA SIQUEIRA DA SILVA                                  00069585091020000000000000000000000000000000RUA SENADOR PINHEIRO No1070                       INDEPENDENCIA                 RS989150000000000000000000000000000000000201
0000005008SUELI SCHMITZ                                               00026238500034000000000000000000000000000000RUA GETULIO VARGAS No210                          INDEPENDENCIA                 RS989150000000000000000000000000000000000201
0000005009BLONDINA FOBRICH                                            00074979787053000000000000000000000000000000RUA ANTONIO RUFINO No46                           INDEPENDENCIA                 RS989150000000000000000000000000000000000201
0000005010JANETE DE FATIMA VARGAS TABORDA                             00091169348068000000000000000000000000000000RUA 16(01),0/L18 Q131                             INDEPENDENCIA                 RS989150000000000000000000000000000000000201
0000005011MARIA LOIRI ZIMMERMANN                                      00056976410015000000000000000000000000000000RUA 16(01), 0/L08 Q120                            INDEPENDENCIA                 RS989150000000000000000000000000000000000201
0000005012JANE DE LIMA                                                00002203560096000000000000000000000000000000RUA 16(01), 0/ L17 Q131                           INDEPENDENCIA                 RS989150000000000000000000000000000000000201
0000005013PAULO SANTOS DA SILVA                                       00030923301020000000000000000000000000000000RUA 14,0/L14-A Q85                                INDEPENDENCIA                 RS989150000000000000000000000000000000000201
0000005014ELCIR TEREZINHA CORNELIUS                                   00077279379087000000000000000000000000000000RUA 16(01), 0/L05 Q 120                           INDEPENDENCIA                 RS989150000000000000000000000000000000000201
0000005016IZOLDIR DE FATIMA CORREA MIRANDA                            00089916700087000000000000000000000000000000RUA 16(01), 0L04 Q 120                            INDEPENDENCIA                 RS989150000000000000000000000000000000000201
0000005017MARIA ELISA SILVA DOS SANTOS                                00064698360030000000000000000000000000000000RUA 14, 1/ L01-A Q85                              INDEPENDENCIA                 RS989150000000000000000000000000000000000201
0000005018NOELI ALMEIDA BATISTA                                       00001849954003000000000000000000000000000000R16 L06 Q119                                      INDEPENDENCIA                 RS989150000000000000000000000000000000000201
0000005019ELISABETH TERESINHA TABORDA DE MORAE                        00046359877015000000000000000000000000000000RUA 16(01) ,0/L05Q119                             INDEPENDENCIA                 RS989150000000000000000000000000000000000201
0000005020MARINES SILVA DOS SANTOS                                    00001446121003000000000000000000000000000000RUA 16(01) L20 Q131                               INDEPENDENCIA                 RS989150000000000000000000000000000000000201
0000005021MARISTELA TERESINHA WORMANN                                 00000688332021000000000000000000000000000000RUA 14 L12A Q85                                   INDEPENDENCIA                 RS989150000000000000000000000000000000000201
0000005022BEATRIZ TELES DOS SANTOS                                    00001891088009000000000000000000000000000000RUA 14 L03 Q85                                    INDEPENDENCIA                 RS989150000000000000000000000000000000000201
0000005023MARIA CLEIDI HERMES DA SILVA                                00002115746007000000000000000000000000000000RUA 16/01 L16 Q129                                INDEPENDENCIA                 RS989150000000000000000000000000000000000201
0000005024MARLENE DE SOUZA RODRIGUES                                  00000380170086000000000000000000000000000000RUA 16/01 L06 Q120                                INDEPENDENCIA                 RS989150000000000000000000000000000000000201
0000005026NILCE TEREZINHA WAGNER                                      00070232393087000000000000000000000000000000RUA 16/01 L09 Q119                                INDEPENDENCIA                 RS989150000000000000000000000000000000000201
0000005027SANTA IVONE ZIMMERMANN LUBIAN                               00092785743091000000000000000000000000000000RUA 14 L16-A Q85                                  INDEPENDENCIA                 RS989150000000000000000000000000000000000201
0000005028MARIA CLAUDETE DE OLIVEIRA                                  00056977360020000000000000000000000000000000R 14 L05 Q85                                      INDEPENDENCIA                 RS989150000000000000000000000000000000000201
0000005029ELISSANDRA MONTEIRO LESSE                                   00001629030066000000000000000000000000000000R16 L07 Q119                                      INDEPENDENCIA                 RS989150000000000000000000000000000000000201
0000005030VILMA ANTONIA DE OLIVEIRA DORNELLES                         00096200804087000000000000000000000000000000RUA 16/01 L15 Q129                                INDEPENDENCIA                 RS989150000000000000000000000000000000000201
0000005031JOAO RENATO RUARO                                           00000926196065000000000000000000000000000000RUA 14 L11A Q85                                   INDEPENDENCIA                 RS989150000000000000000000000000000000000201
0000005032MARILENE DE LIMA                                            00001418784010000000000000000000000000000000RUA 16/01 L18 Q129                                INDEPENDENCIA                 RS989150000000000000000000000000000000000201
0000005033ROSELAINE DOS SANTOS                                        00002620789028000000000000000000000000000000RUA 16/03 L13 Q131                                INDEPENDENCIA                 RS989150000000000000000000000000000000000201
0000005034ELISIANE FATIMA DIAS SOARES                                 00001260305023000000000000000000000000000000AV IGNACIO PINTO 0 L20 A129                       INDEPENDENCIA                 RS989150000000000000000000000000000000000201
0000005036LUCIANA BORGES DA SILVA                                     00002714135064000000000000000000000000000000RUA 14 L15A Q85                                   INDEPENDENCIA                 RS989150000000000000000000000000000000000201
0000005037TATIANE APARECIDA CORREA MOTA                               00001576820050000000000000000000000000000000RUA 16/01 L14 Q129                                INDEPENDENCIA                 RS989150000000000000000000000000000000000201
0000005042VOLMIR ALVES BAIRROS- MOTORISTA                             00077401107015000000000000000000000000000000RUA SENADOR PINHEIRO 1348                         INDEPENDENCIA                 RS989150000000000000000000000000000000000201
0000005044DPM EDUCACAO LTDA                                           13021017000177000000000000000000000000000000AV. PERNAMBUCO, 1001, TERREO                      PORTO ALEGRE                  RS902400040000051302734000000000000000000202
0000005067VERIDIANE KREMER                                            00098148729034000000000000000000000000000000RUA MANOEL DA NOBREGA No 629                      INDEPENDENCIA                 RS989150009685627696946530000000000000000201
0000005095TERESINHA DOS SANTOS                                        00026235951000000000000000000000000000000000RUA JULHO DE CASTILHOS                            INDEPENDENCIA                 RS989150000000000000000000000000000000000201
0000005096VANESSA PANDOLFO BONAPAZ SOUTO                              00001853657018000000000000000000000000000000rua senador pinheiro 835                          INDEPENDENCIA                 RS989150000000000000000000000000000000000201
0000005102INST. NAC. DE METROLOGIA, QUALID. E TECN - INMETRO          00662270000320000000000000000000000000000000AV. NOSSA SENHORA DAS GRACAS, 50                  XEREM                         RJ250702350000000000000000000000000000000202
0000005110L A DALLA PORTA JUNIOR                                      11145401000156000000000000000000000000000000RUA PASCOAL  GOMES LIBRELOTTO N20                 SANTA MARIA                   RS970100700000055302599000000000000000000202
0000005115MEDPLUS COM. ARTIGOS MEDICOS LTDA                           01706665000188000000000000000000000000000000BARAO DO TRIUNFO No 1861                          SANTA MARIA                   RS970954650000055321920870000000000000000202
0000005121ANDREI LOTTERMANN - INSS 11463625485                        00064122417015000000000000000000000000000000NENHUM                                            INDEPENDENCIA                 RS989150000000000332225880000000000000000201
0000005125TARGA PECAS E ACESSORIOS LTDA                               92118488000174000000000000000000000000000000RUA OTTO NIEMEYER 2286                            PORTO ALEGRE                  RS919100010000051324139170000000000000000202
0000005134FELICE AUTOMOVEIS LTDA (SR).                                91525790001075000000000000000000000000000000R EXPEDICIONARIO WEBER                            SANTA ROSA                    RS989000000000000351310000000000000000000202
0000005143COMERCIAL AGRICOLA CAPRI LTDA                               05797417000140000000000000000000000000000000RUA XV DE NOVEMBRO,1553                           ITAPIRA                       SP139745200000019384366430000000000000000202
0000005147LUCIANO DIAS PIRES - MEI                                    14824255000183000000000000000000000000000000AV INACIO PINTO 1036                              INDEPENDENCIA                 RS989150000000000000000000000000000000000202
0000005150ABITECK COMERCIO DE ELETRODOMETICOS E INFORM. LTDA          14890558000102000000000000000000000000000000RUA MARECHAL FLORIANO, 32 LOJA 02                 TRES DE MAIO                  RS989100000000055353549400000000000000000202
0000005157KALINOVISKI   KALINOVISKI LTDA ME                           02150800000114000000000000000000000000000000RUA JOAO BERTANI, 39                              ERECHIM                       RS997000000000054371240070000000000000000202
0000005165JULIANA WITCZAK                                             00000412246040000000000000000000000000000000RUA SENADOR PINHEIRO 1348                         INDEPENDENCIA                 RS989150000000000353911180000000000000000201
0000005166CARMEM KADDATZ ALBUQUERQUE                                  00000361555008000000000000000000000000000000RUASENADOR PINHEIRO 1348                          INDEPENDENCIA                 RS989150000000000353911180000000000000000201
0000005172CAMERA AGROALIMENTOS S/A                                    98248644001412000000000000000000000000000000AVENIDA TRES DE MAIO                              INDEPENDENCIA                 RS989150005535391015351150000000000000000202
0000005184BENOIT ELETRODOMESTICOS LTDA. TRES DE MAIO                  87296026013438000000000000000000000000000000RUA HORIZONTINA No1048                            TRES DE MAIO                  RS989100000000000353520940000000000000000202
0000005185JOAO SADI DE BARROS                                         00025341545087000000000000000000000000000000PRECATORIO                                        INDEPENDENCIA                 RS989150000000000000000000000000000000000201
0000005188ATUATI LUSSANI E CIA LTDA/ATUATI MAQUINAS E IMPLEM          01435215000106000000000000000000000000000000RUA JOSE SCHMITT 1585                             SAO MARTINHO                  RS986900000000055353313680000000000000000202
0000005221SOLUCIONE SERVICOS DE ACABAMENTOS LTDA                      09491843000102000000000000000000000000000000RUA HORIZONTINA    No 1357 SALA 02.               TRES DE MAIO                  RS989100000000000000000000000000000000000202
0000005223JOAILTON DE SIQUEIRA - MEI                                  14150623000155000000000000000000000000000000TV RS 342    No 652                               TRES DE MAIO                  RS989100000000000000000000000000000000000202
0000005246UNIMED MISSOES/RS-COOPERATIVA MEDICA LTDA                   87701249000102000000000000000000000000000000AV GETULIO VARGAS 1079                            SANTO ANGELO                  RS988015700000000000000000000000000000000202
0000005254NEUSA KUHLER                                                00065163559087000000000000000000000000000000SENADOR PINHEIRO 1348                             INDEPENDENCIA                 RS989150000000000353911180000000000000000201
0000005257OFICIO DE REGISTROS PUBLICOS - MADALENA M. MAICA            00038474484049000000000000000000000000003449AV. TRES DE MAIO,                                 INDEPENDENCIA                 RS989150000000000000000000000000000000000201
0000005258ZEFERINO NOGARA - MEI - INSS 12233307633                    16656109000111000000000000000000000000000000ESQUINA ARAUJO CPF 197.705.370-04                 INDEPENDENCIA                 RS989150000000000000000000000000000000000202
0000005261EUCLIDES MENEZES DE SA - MEI                                15722268000104000043801208608000000000000000jose lavarda, 124                                 SANTA ROSA                    RS989000000000055351116030000000000000000202
0000005262SENAT S. ROSA-SERV. NAC. DE APREND. DO TRANSPORTE           73471963015411000000000000000000000000000000ROD  RS 344- SANTA ROSA                           SANTA ROSA                    RS989000000000000351180800000000000000000202
0000005272BRANCA JUNG                                                 00067215874087000000000000000000000000000000SENADOR PINHEIRO 1348                             INDEPENDENCIA                 RS989150000000000353911070000000000000000201
0000005284TABELIONATO INDEP. ROBERTO CARLOS PARCIANELLO               00052487032049000000000000000000000000000000AV. TRES DE MAIO No 777                           INDEPENDENCIA                 RS989150000000000000000000000000000000000201
0000005288ANBIMA ASSOC. BR. ENT.MERC. FINAN. FILIAL 7                 34271171000762000000000000000000000000000000AV. NACOES UNIDAS 8501, 21o ANDAR                 SAO PAULO                     SP054250700000000000000000000000000000000202
0000005293RAFAELA DAL FORNO-ME  FARMACIA CONFIANcA                    17133701000100000000000000000000000000000000AV TRES DE MAIO    1094                           INDEPENDENCIA                 RS989150000000000000000000000000000000000202
0000005295GILBERTO MARASCA                                            00026237067000000000000000000000000000000000ESQUINA ARAUJO                                    INDEPENDENCIA                 RS989150000000000964063020000000000000000201
0000005296BRASIL TELECOM COMUNICACAO MULTIMIDIA LTDA                  02041460000193000000000000000000000000000000AV. DAS NACOES UNIDAS 12.901 - 27A CJ 2701 T.OESTESAO PAULO                     RS045780000000055331334770000000000000000202
0000005299CLOVIS EDISON SCHRAMEIER                                    00094039763068000000000000000000000000000000R. SENADOR PINHEIRO 1348                          INDEPENDENCIA                 RS989150000000000000000000000000000000000201
0000005301BUTZKE CONTRUCOES LTDA - ME LOJA INDEPENDENCIA              93587293000136000000000000000000000000000000AV TRES DE MAIO 750                               INDEPENDENCIA                 RS989150000000055353913200000000000000000202
0000005308RODA BRASIL COMERCIO DE PECAS PARA VEICULOS LTDA            06889977000198000000000000000000000000000000RUA TANCREDO DE ALMEIDA NEVES, 5056               CONCORDIA                     SC897000000000049344200770000000000000000202
0000005323ELISANDRO LUIS BUSCOSKI DE OLIVEIRA                         00001560575069000000000000000000000000000000RUA CINCO DE SETEMBRO No 806                      INDEPENDENCIA                 RS989150000000000000000000000000000000000201
0000005325CHARLES ALAIR MEINKE SERIGRAFIA-MEI                         17635464000177000000000000000000000000000000RUA ANISIO ARAUJO E SILVA, 223                    INDEPENDENCIA                 RS989150000000559997719650000000000000000202
0000005338MARCOS SPENGLER                                             00096387300053000000000000000000000000000000RUA SAO MIGUEL 775                                INDEPENDENCIA                 RS989150000000000000000000000000000000000201
0000005339ASTOR STAUDT                                                91824383000178000000000000000000000000000000TV UM, 83- VRS- 452                               FELIZ                         RS957700000000051363729020000000000000000202
0000005349FERREIRA E SANTOS ACESSORIOS P/ VEICULOS LTDA ME            16668049000157000000000000000000000000000000ROD  BR 472   KM 31       No 560                  TRES DE MAIO                  RS989100000000000000000000000000000000000202
0000005353EMPRESA BRASILEIRA DE CORREIOS E TELEGRAFOS. MAT.           34028316002661000000000000000000000000000000R SIQUEIRA CAMPOS  No 1100                        PORTO ALEGRE                  RS900029000000000000000000000000000000000202
0000005356LEONEU FERNANDO IMMICH                                      00094588970097000000000000000000000000000000R: SANTA GENOVEVA No 325                          TRES DE MAIO                  RS989100000000000000000000000000000000000201
0000005360JORNAL DO COMERCIO - JORNAL CIDADES                         00512930000124000000000000000000000000000000RUA OLAVO BILAC, 435                              PORTO ALEGRE - CIDADE BAIXA   RS900503500000000000000000000000000000000202
0000005363NOELI VIEIRA DISTRIB. DE SOROS - EPP (VOOLMED)              01733345000117000000000000000000000000000000RUA ALVARES CABRAL, 1000                          PASSO FUNDO                   RS990512000000000000000000000000000000000202
0000005367NELCI SCHULKTZ SCHAURICH                                    00061592790097000000000000000000000000000000RUA SENADOR PINHEIRO, 1348                        INDEPENDENCIA                 RS989150000000000353910480000000000000000201
0000005372JULIANA PERCOSKI GONCALVES                                  00000671486039000000000000000000000000000000RUA SENADOR PINHEIRO 1348                         INDEPENDENCIA                 RS989150000000000353914400000000000000000201
0000005375GABRIEL DOBLER DASSOW - MEI - INSS 21047464049              16661758000100000000000000000000000000000000R. GETULIO VARGAS 713                             INDEPENDENCIA                 RS989150000000000000000000000000000000000202
0000005383CRISTIANA FRITZEN MONITORAMENTO - ME                        15436500000148000000000000000000000000000000AV. SANTA ROSA 363, SALA 02                       TRES DE MAIO                  RS989100000000055353528520000000000000000202
0000005394BELLA PRESENTES E UTILIDADES LTDA - ME                      18012618000137000000000000000000000000000000AV. TRES DE MAIO, 997                             INDEPENDENCIA                 RS989150000000055353911680000000000000000202
0000005404ALFLEN   WAECHTER LTDA - ME                                 17728279000127000000000000000000000000000000RUA AMANDIO JAHN, 523 SALA 01                     SAO JOSE DO INHACORA          RS989580000000000000000000000000000000000202
0000005411ISMAEL STROHER   CIA LTDA - ME                              08984945000105000000000000000000000000000000AV. SAO JOSE, 1180                                BOA VISTA DO BURICA           RS989180000000000000000000000000000000000202
0000005419STERICYCLE GESTaO AMBIENTAL LTDA FILIAL 05                  01568077000710000000000000000000000000000000ESTRADA MARCIANO FLORES MENDONCA, S/N             SANTA MARIA- 55-98156-0007    RS970100700000055302636670000000000000000202
0000005433TERESINHA MARCZEWSKI ZAVASKI EIRELI ME                      18374107000165000000000000000000000000000000AVENIDA TRES DE MAIO 609                          INDEPENDENCIA                 RS989150000000000000000000000000000000000202
0000005449JANETE ROSELI DE OLIVEIRA DAL FORNO                         00077365534087000000000000000000000000000000ESQUINA SALETE                                    INDEPENDENCIA                 RS989150000000000000000000000000000000000201
0000005460VILMAR PIPPER                                               00059171111034000000000000000000000000000000RUA SENADOR PINHEIRO, 1348                        INDEPENDENCIA                 RS989150000000000000000000000000000000000201
0000005467VAGNER ALOISIO LORO                                         00098692348015000000000000000000000000000000RUA KAISER 149                                    TRES DE MAIO                  RS989100000000000000000000000000000000000201
0000005471IRINEU ANTONIO SCHMIDT                                      00001114769096000000000000000000000000000000RUA PARAGUAI, 06                                  SANTA ROSA                    RS989000000000000000000000000000000000000201
0000005474COMERCIO DE LINHAS E LAS SANTA ROSA LTDA                    08574064000108000000000000000000000000000000AVENIDA SANTA CRUZ, 1054                          SANTA ROSA                    RS989000000000055351138940000000000000000202
0000005479CLAUDIR KOREN - MEI                                         13299654000100000000000000000000000000000000RUA OTTO SCHULTZ, 68                              TRES DE MAIO                  RS989100000000000000000000000000000000000202
0000005482JAIR SEIBEL                                                 00074649833000000000000000000000000000000000RUA SENADOR PINHEIRO, 1348                        INDEPENDENCIA                 RS989150000000000000000000000000000000000201
0000005484CESAR A. FRANTZ MACHADO - ME                                17706894000132000000000000000000000000000000RUA VIGARIO JOSE INACIO, 399 SALA 801             PORTO ALEGRE                  RS904800000000051321266600000000000000000202
0000005498VANDERLEI ROQUE BERTOLDO - MEI                              18651431000183000000000000000000000000000000RUA SOROCABA, 1400                                INDEPENDENCIA                 RS989150000000000000000000000000000000000202
0000005504BRPREV AUDITORIA E CONSULTORIA ATUARIAL LTDA ME             18615216000127000000000000000000000000000000ESTRADA CHAPEU DO SOL                             PORTO ALEGRE                  RS917870300000000000000000000000000000000202
0000005506ANA PAULA R. S. SCHMIDT - MEI - INSS 16000997176            18912333000152000000000000000000000000000000RUA ANISIO ARAUJO E SILVA, 165                    INDEPENDENCIA                 RS989150000000055962551310000000000000000202
0000005508LOIVA MARIA WELTER WILLERS ME                               17842732000121000000000000000000000000000000RUA MARECHAL CANDIDO RONDON 1576                  INDEPENDENCIA                 RS989150000000000000000000000000000000000202
0000005512JEDIELSON MASSUDA DA SILVA                                  00001622246055000000000000000000000000000000RUA MANOEL DA NOBREGA, 628                        INDEPENDENCIA                 RS989150000000000000000000000000000000000201
0000005521JUNIARA MELLER DE BARROS                                    00001547014083000000000000000000000000000000RUA SENADOR PINHEIRO 1348                         INDEPENDENCIA                 RS989150000000000000000000000000000000000201
0000005545GUILHERME XAVIER PIVA ME- QUALITECK INFORMATICA             18136904000104000000000000000000000000000000RUA  BARAO DE ANTONINA No 200                     CARAZINHO                     RS995000000000054996011610000000000000000202
0000005548HERIBERTO RODRIGUEZ CARABALLO                               00006713979157000000000000000000000000000000RUA: MARECHAL DEODORO, No 112                     INDEPENDENCIA                 RS989150000000559969613390000000000000000201
0000005550SECR. DE DESENV. RURAL, PESCA E COOPERATIVISMO              13106183000176000000000000000000000000000000AV. PRAIA DE BELAS, 1768                          PORTO ALEGRE                  RS900400010000051321833990000000000000000202
0000005556LUIS ALBERTO DEBESAITIS                                     00047217260078000001471095980000000000000000  QUARAINZINHO                                    TRES DE MAIO                  RS989100000000559961396590000000000000000201
0000005584MXX DISTRIBUIDORA DE ABRASIVOS, FERRAMENTAS E EPIS          08858271000194000000000000000000000000000000avenida inhacora 715                              SANTA ROSA                    RS989000000000000000000000000000000000000202
0000005595SOS MASTER GUINCHO LTDA - ME                                05907066000183000000000000000000000000000000RUA ALBINO VERONEZE, 30/41                        TRES DE MAIO                  RS989100000000000000000000000000000000000202
0000005610IVANILDA DA LUZ FOGACA                                      00000002772078000000000000000000000000000000RUA SENADOR PINHEIRO 1348                         INDEPENDENCIA                 RS989150000000000000000000000000000000000201
0000005613ANA PAULA DOS SANTOS FIN                                    00002474385029000000000000000000000000000000AV. TRES DE MAIO                                  INDEPENDENCIA                 RS989150000000000000000000000000000000000201
0000005618ARNALDO HANNUSCH DALTEIN                                    00035808241049000000000000000000000000000000SAO ROQUE, S/N                                    INDEPENDENCIA                 RS989150000000000000000000000000000000000201
0000005649JOSE OTAVIO TAVARES SOUTO - MEI - INSS 12912719684          14405434000186000000000000000000000000000000AV MONTE CASTELO  354                             INDEPENDENCIA                 RS989150000000000845497830000000000000000202
0000005651JOAO ROQUE BARASUOL BERTI-MEI INSS 11332438371              95136685000104000001980004509000000000002208RUA GENREAL COSTA E SILVA, 1082                   INDEPENDENCIA                 RS989150000000055916301450000000000000000202
0000005653SERGIO EZEQUIEL DE OLIVEIRA - MEI INSS 11353727828          13637997000137000000000000000000000000000000AVENIDA TRES DE MAIO 13                           INDEPENDENCIA                 RS989150000000000969765840000000000000000202
0000005658MAIKEL GELATI                                               00002580418032000000000000000000000000000000COLONIA MEDEIROS                                  INDEPENDENCIA                 RS989150000000000000000000000000000000000201
0000005663TATIANE GELATI                                              19497744000191000000000000000000000000000000.                                                 INDEPENDENCIA                 RS989150000000000000000000000000000000000202
0000005688WANDERLEIA KOCHHANN                                         00002424149070000000000000000000000000000000PASSE LIVRE                                       INDEPENDENCIA                 RS989150000000000000000000000000000000000201
0000005713JORGE LUIS DOS SANTOS                                       00001035609045000000000000000000000000000000AV. TRES DE MAIO, 734                             INDEPENDENCIA                 RS989150000000000000000000000000000000000201
0000005714VALENTE, SCHERER   SILVA LTDA - ME                          11462376000134000000000000000000000000000000AV. SENADOR ALBERTO PASQUALINI, 199 SALA 03       TRES DE MAIO                  RS989100000000000000000000000000000000000202
0000005726ACERTCON AUTORIDADE CERTIFICADORA LTDA                      00087112000121000000000000000000000000000000RUA GENERAL ANDRADE NEVES, 90 CJ. 102             PORTO ALEGRE - CENTRO         RS900102100000000000000000000000000000000202
0000005730ITAIMBE AUTOMOVEIS LTDA                                     01656038000775000000000000000000000000000000AV. CORONEL DICO, 1626                            IJUI                          RS987000000000000000000000000000000000000202
0000005736TAILA FRANCIELI HEINSCH DE OLIVEIRA                         00001672643031000000000000000000000000000000INDEPENDENCIA                                     INDEPENDENCIA                 RS989150000000000000000000000000000000000201
0000005737ADRIANA RAQUEL DA SILVA GUTERRES                            17580974000194000000000000000000000000000000RUA RIO BRANCO,1936                               SAO LUIZ GONZAGA              RS978000000000055335231770000000000000000202
0000005740GRAFICA E EDITORA CASA MUNDO DA MIDIA LTDA                  05289241000116000000000000000000000000000000RUA DAHNE DE ABREU 577                            HORIZONTINA                   RS989200000000055353730050000000000000000202
0000005742ANDREIA JOSSELA DE OLIVEIRA SOUZA                           00096677945049000000000000000000000000000000RUA SENADOR PINHEIRO, 1348                        INDEPENDENCIA                 RS989150000000000000000000000000000000000201
0000005744CLARO S.A.                                                  40432544000147000000000000000000000000000000RUA FLORIDA, 1970                                 MOCOES                        SP046300000000000000000000000000000000000202
0000005754ANTONIO MIGUEL FARIAS DE OLIVEIRA                           00002296528082000000000000000000000000000000PASSE LIVRE                                       INDEPENDENCIA                 RS989150000000000000000000000000000000000201
0000005756CHAPEMAQUINAS COMERCIO E SERVICOS LTDA - ME                 07869457000186000000000000000000000000000000RUA OSVALDO CRUZ, 222 E                           CHAPECO                       SC898040500000049890014410000000000000000202
0000005759SERVILUZ COM. DE MAT. ELETRICOS E HIDRAULICOS LTDA          10291471000150000000000000000000000000000000RUA HORIZONTINA, 1260                             TRES DE MAIO                  RS989100000000055353526360000000000000000202
0000005765DNIT - DEPART. NACIONAL DE INFRAEST. DE TRANSP.             04892707000100000000000000000000000000000000Q03 LOTE A, S/N                                   BRASILIA                      DF700409020000061331540000000000000000000202
0000005767DPRF MIN. DA JUSTICA -DEPART. POL. RODOV. FEDERAL           00394494010441000000000000000000000000000000ST POLICIAL LOTE, 05                              BRASILIA                      DF706102000000061202567000000000000000000202
0000005783LEANDRO STRINGARI ME                                        21681063000120000000000000000000000000000000RUA JOSE DE ANCHIETA 206                          HORIZONTINA                   RS989200000000055964256640000000000000000202
0000005794GILMAR BALKE BORGES                                         00068084692020000000000000000000000000000000INDEPENDENCIA                                     INDEPENDENCIA                 RS989150000000000000000000000000000000000201
0000005815GLADIS GRESELE KOSCREVIC                                    00003087342033000000000000000000000000000000RUA HORIZONTINA, 1005                             TRES DE MAIO                  RS989100000000055999867900000000000000000201
0000005816JULIANO FRIEDRICH                                           06230947000175000000000000000000000000000000RUA SAO JOAO                                      SAO MIGUEL DAS MISSOES        RS988650000000055338110980000000000000000202
0000005818ATMSUL COMERCIO DE ELETROELETRONICOS LTDA                   21745966000128000000000000000000000000000000AV. SENADOR ALBERTO PASQUALINI 381 SALA 01        TRES DE MAIO                  RS989100000000000353549340000000000000000202
0000005821ALEXANDER RAFAEL BENATTI - ME                               21405623000114000000000000000000000000000000RUA JOAO XXIII, 2599                              HORIZONTINA                   RS989200000000055998848720000000000000000202
0000005873GIRO - GESTAO INTEGRADA DE RESIDUOS E OPERA. LTDA           11140823000139000000000000000000000000000000RUA SETE DE SETEMBRO No 38                        HORIZONTINA                   RS989200000000559996256640000000000000000202
