87612826000190010120183112201801012019PREFEITURA MUNICIPAL INDEPENDENCIA                                              
000001111101000000000201000100000000000000000000000000000011
0000011111060101000012010050000013732X0000000000000006301023
000001111106010200001201005000104005210000000000600000295123
0000011111190201000002010001000013732X0000000000000007132321
0000011111190202000002010001000013732X0000000000000007129321
0000011111190203000002010001000013732X0000000000000283141421
0000011111190204000002010001000013732X0000000000000004015021
0000011111190205000002010001000013732X0000000000000007385721
0000011111190207000008010040000013732X0000000000000010062521
0000011111190209000002010001000013732X0000000000000011456121
0000011111190211000002010020000013732X0000000000000005011321
0000011111190212000002011016000013732X0000000000000007767421
0000011111190213000002011014000013732X0000000000000007684821
0000011111190214000002011018000013732X0000000000000007827121
0000011111190215000008010031000013732X0000000000000011552521
0000011111190216000008014505000013732X0000000000000011482021
0000011111190218000005011036000013732X0000000000000005605721
0000011111190219000002010031000013732X0000000000000008837421
0000011111190220000002014503000013732X0000000000000011473121
0000011111190221000002011001000013732X0000000000000009622921
0000011111190222000002011031000013732X0000000000000009622921
0000011111190223000002011033000013732X0000000000000009622921
0000011111190224000002011059000013732X0000000000000009622921
0000011111190228000002014760000013732X0000000000000009954621
0000011111190230000002014510000013732X0000000000000009952X21
0000011111190242000002010001000013732X0000000000000008928121
0000011111190243000002011071000013732X0000000000000009622921
0000011111190245000008014935000013732X0000000000000010741721
0000011111190249000002014710000013732X0000000000000009954621
0000011111190250000008014510000013732X0000000000000009952X21
0000011111190251000002014720000013732X0000000000000009954621
0000011111190253000002014710000013732X0000000000000009954621
0000011111190256000007010001000013732X0000000000000000764121
0000011111190257000002014590000013732X0000000000000009953821
0000011111190260010009021064000013732X0000000000000011143021
0000011111190260020009021021000013732X0000000000000011143021
0000011111190261010009021038000013732X0000000000000011141421
0000011111190262010009021067000013732X0000000000000011142221
0000011111190264000002021050000013732X0000000000000011012421
0000011111190265000008014521000013732X0000000000000009952X21
0000011111190266000008014931000013732X0000000000000011229121
0000011111190267000008014931000013732X0000000000000011304221
0000011111190269020002011010000013732X0000000000000011411121
0000011111190270000008014520000013732X0000000000000009952X21
0000011111190271000008014520000013732X0000000000000009952X21
0000011111190272010008014510000013732X0000000000000011473121
0000011111190272020008014520000013732X0000000000000011473121
0000011111190272030008014503000013732X0000000000000011473121
0000011111190272040008014502000013732X0000000000000011473121
0000011111190272050008014520000013732X0000000000000011473121
0000011111190272060008014501000013732X0000000000000011473121
0000011111190272070008014520000013732X0000000000000011473121
0000011111190272080008014504000013732X0000000000000011473121
0000011111190273010008014936000013732X0000000000000011482021
0000011111190274000005021072000013732X0000000000000011535521
000001111119030100001201005000104005210000000000600000071123
000001111119030200000902000100104005210000000000600000249821
000001111119031400000703103900104005210000000000600647184821
000001111119031500000703000100104005210000000000600647184821
000001111119031600000702102400104005210000000000600647180521
000001111119031800000702102200104005210000000000600647194521
000001111119032200001002120200104005210000000000600647219421
000001111119032300001002000100104005210000000000600647219421
000001111119032400001002120400104005210000000000600647232121
000001111119032500001002000100104005210000000000600647232121
000001111119032600000602120000104005210000000000600647216021
000001111119032700000602000100104005210000000000600647216021
000001111119120100000801004000041010640000000000040288190221
000001111119120200000201000100041010640000000000040131530621
000001111119120300000201111400041009440000000000040188130521
000001111119120700000201101700041010640000000000040197060621
000001111119120800000201002000041010640000000000040240210921
000001111119121000000801409000041010640000000000040287224521
000001111119121100000801416000041010640000000000040287223721
000001111119121200000801405000041010640000000000040287221021
000001111119121500000801401100041010640000000000040287229621
000001111119121600000801411100041010640000000000040802490421
000001111119121800000801409000041010640000000000040287226121
000001111119122800001004100500041010640000000000040285540521
000001111119123200000902110300041010640000000000040806820021
000001111119124200000801405000041010640000000000040816370621
000001111119124400000801401100041010640000000000040816360221
0000011111500208000008014935000013732X0000000000000010741731
0000011111500209000002010031000013732X0000000000000011552531
000001111150021000000903106500104005210000000001300012566531
000001111150021200000703103900104005210000000000600647184831
000001111150021300000702102400104005210000000000600647180531
000001111150021400000702102200104005210000000000600647194531
000001111150021500000701000100104005210000000000600647184831
000001111150022100001002120200104005210000000000600647219431
000001111150022300001002000100104005210000000000600647219431
000001111150022500001002120400104005210000000000600647232131
000001111150022600001002000100104005210000000000600647232131
000001111150022700000602120000104005210000000000600647216031
000001111150022800000602000100104005210000000000600647216031
0000011111500301000002010001000013732X0000000000000007132331
0000011111500302000002014505000013732X0000000000000011482031
0000011111500303000002011014000013732X0000000000000007684831
0000011111500304000002014760000013732X0000000000000009954631
000001111150030500000801409000041010640000000000040804700931
000001111150030600000201000100041009440000000000040131530631
0000011111500307000002010031000013732X0000000000000008837431
000001111150030800000201101700041009440000000000040197060631
0000011111500309000002011016000013732X0000000000000007767431
0000011111500310000002014510000013732X0000000000000009952X31
0000011111500311000008011072000013732X0000000000000011535531
000001111150031200000201120000104005210000000000600647216031
000001111150031300000201000100104005210000000000600647216031
0000011111500314000009014503000013732X0000000000000011473131
000001111150031900000801401100041010640000000000040287229631
000001111150032000000801411100041010640000000000040802490431
000001111150033400000801405000041010640000000000040287221031
000001111150033500000801416000041010640000000000040287223731
000001111150033600000801430300041010640000000000040802760131
0000011111500343000005031071000013732X0000000000000009622931
0000011111500346000005031059000013732X0000000000000009622931
000001111150035000001004100500041010640000000000040285540531
0000011111500352000002014710000013732X0000000000000009954631
0000011111500353000008014510000013732X0000000000000009952X31
000001111150035700000902110300041010640000000000040806820031
0000011111500360000002014720000013732X0000000000000009954631
0000011111500366000002014710000013732X0000000000000009954631
000001111150036800000801405000041010640000000000040816370631
0000011111500372000002014590000013732X0000000000000009953831
0000011111500375000002014931000013732X0000000000000010925831
000001111150037700000702102200104005210000000000600647194531
0000011111500380010009021064000013732X0000000000000011143031
0000011111500380020009021021000013732X0000000000000011143031
0000011111500381010009021038000013732X0000000000000011141431
0000011111500382010009021067000013732X0000000000000011142231
0000011111500384000002021050000013732X0000000000000011012431
000001111150038600000801401100041010640000000000040816360231
0000011111500387000008014521000013732X0000000000000009952X31
0000011111500388000008014931000013732X0000000000000011229131
0000011111500391000008014931000013732X0000000000000011304231
0000011111500393000002011010000013732X0000000000000011411131
000001111150039400000801000100104005210000000000600647232131
0000011111500395000008014520000013732X0000000000000009952X31
000001111150039700000801120400104005210000000000600647232131
0000011111500398010008014510000013732X0000000000000011473131
0000011111500398020008014520000013732X0000000000000011473131
0000011111500398030008014503000013732X0000000000000011473131
0000011111500398060008014520000013732X0000000000000011473131
0000011111500399010008014936000013732X0000000000000011482031
0000011411090601000012010050000013732X0000000000000006301033
0000011411090602000012010050000013732X0000000000000006301033
000001141109060300001201005000104005210000000000600000071133
000001141109060600001201005000104005210000000000600000071133
000001141109060800001201005000104005210000000000600000295133
0000011411090609000012010050000013732X0000000000000006301033
FINALIZADOR0000000150                                                                                                                                                                                                                                                                                                                                                                                                                                                                                                                                                                                                                                                                                                                                                                                                           
