87612826000190010120203004202008052020PREFEITURA MUNICIPAL INDEPENDENCIA                                              
0000011111010000000002010001000000000000000000000000000000110000
0000011111060102000012010050001040052100000000006000002951230000
0000011111060104000012018001000410106400000000000408273505230000
0000011111060105000012010050000013732X0000000000000011698X230000
0000011111190201000002010001000013732X00000000000000071323210000
0000011111190202000002010001000013732X00000000000000071293210000
0000011111190204000002010001000013732X00000000000000040150210000
0000011111190205000002010001000013732X00000000000000073857210000
0000011111190206000002010001000013732X0000000000000011636X210000
0000011111190207000008010040000013732X00000000000000100625210000
0000011111190207000008010040000013732X00000000000000100625213160
0000011111190208000005021070000013732X00000000000000096229210000
0000011111190209000002018001000013732X00000000000000071323210000
0000011111190211000002010020000013732X00000000000000050113210000
0000011111190212000002011016000013732X00000000000000077674210000
0000011111190213000002011014000013732X00000000000000076848210000
0000011111190214000002011018000013732X00000000000000078271210000
0000011111190215000008010031000013732X00000000000000115525210000
0000011111190216000008014505000013732X00000000000000114820210000
0000011111190219000004011008000013732X00000000000000040150210000
0000011111190220000008014503000013732X00000000000000114731210000
0000011111190221000002011001000013732X00000000000000096229210000
0000011111190222000002011031000013732X00000000000000096229210000
0000011111190223000002011033000013732X00000000000000096229210000
0000011111190224000002011059000013732X00000000000000096229210000
0000011111190225000008014511000013732X00000000000000114731210000
0000011111190225000008014511000013732X00000000000000114731213160
0000011111190242000002010001000013732X00000000000000089281210000
0000011111190243000002011071000013732X00000000000000096229210000
0000011111190256000007010001000013732X00000000000000007641210000
0000011111190257000009021064000013732X00000000000000111430210000
0000011111190258000009021021000013732X00000000000000111430210000
0000011111190259000009021038000013732X00000000000000111414210000
0000011111190263000009021067000013732X00000000000000111422210000
0000011111190266000008014931000013732X00000000000000112291210000
0000011111190268000005011011000013732X00000000000000114111210000
0000011111190269000008014002000013732X00000000000000114111210000
0000011111190272010008014500000013732X00000000000000114731210000
0000011111190272030008014503000013732X00000000000000114731210000
0000011111190272040008014502000013732X00000000000000114731210000
0000011111190272060008014501000013732X00000000000000114731210000
0000011111190272070008014520000013732X00000000000000114731210000
0000011111190274000002011010000013732X00000000000000114111210000
0000011111190328000010021207001040052100000000006006472500210000
0000011111190330000010011206001040052100000000006006472496210000
0000011111190332000006021203001040052100000000006006472267210000
0000011111190333000006020001001040052100000000006006472267210000
0000011111191201000008010040000410106400000000000402881902210000
0000011111191201000008010040000410106400000000000402881902213160
0000011111191202000002010001000410106400000000000401315306210000
0000011111191204000008014170000410106400000000000408091601210000
0000011111191206000008014300000410106400000000000408302408210000
0000011111191207000002011017000413732X00000000000401970606210000
0000011111191208000002010020000410106400000000000402402109210000
0000011111191209000004011112000410094400000000000401315306210000
0000011111191210000008014090000410106400000000000402872245210000
0000011111191211000008014160000410106400000000000402872237210000
0000011111191212000008014050000410106400000000000402872210210000
0000011111191215000008014011000410106400000000000402872296210000
0000011111191219000002018001000410106400000000000408273505210000
0000011111191221000008014303000410106400000000000408027601210000
0000011111191228000010041005000410106400000000000402855405210000
0000011111191232000009021103000410106400000000000408068200210000
0000011111191242000008014050000410106400000000000408163706210000
0000011111199901010002010001007480030600000000000000078784210000
0000011111199901020002018001007480030600000000000000078784210000
0000011111199901030008010900007480030600000000000000078784210000
0000011111199901030008010900007480030600000000000000078784213160
0000011111300100000004010001007480030600000000000000149410210000
0000011111500213000005021031000013732X00000000000000096229310000
0000011111500214000007021022001040052100000000006006471945310000
0000011111500227000006021200001040052100000000006006472160310000
0000011111500228000005021070000013732X00000000000000096229310000
0000011111500229000010021207001040052100000000006006472500310000
0000011111500231000010011206001040052100000000006006472496310000
0000011111500233000006021203001040052100000000006006472267310000
0000011111500234000006020001001040052100000000006006472267310000
0000011111500301000002010001000013732X00000000000000071323310000
0000011111500302000002014505000013732X00000000000000114820310000
0000011111500303000002011014000013732X00000000000000076848310000
0000011111500305000008014090000410106400000000000408047009310000
0000011111500306000002010001000410106400000000000401315306310000
0000011111500307000005020031000013732x00000000000000115525310000
0000011111500308000002011017000410106400000000000401970606310000
0000011111500309000002011016000013732X00000000000000077674310000
0000011111500310000008014170000410106400000000000408091601310000
0000011111500311000005021001000013732X00000000000000096229310000
0000011111500312000005021033000013732X00000000000000096229310000
0000011111500314000009014503000013732X00000000000000114731310000
0000011111500317000002010001007480030600000000000000078784310000
0000011111500319000008014011000410106400000000000402872296310000
0000011111500325000004011008000013732X00000000000000040150310000
0000011111500326000004011112000410094400000000000401315306310000
0000011111500327000002011018000013732X00000000000000078271310000
0000011111500328000005011011000013732X00000000000000114111310000
0000011111500329000008014002000013732X00000000000000114111310000
0000011111500330000002011010000013732X00000000000000114111310000
0000011111500331000008010900007480030600000000000000078784310000
0000011111500332000006021203001040052100000000006006472267310000
0000011111500334000008014050000410106400000000000402872210310000
0000011111500335000008014160000410106400000000000402872237310000
0000011111500336000008014303000410106400000000000408027601310000
0000011111500346000005031059000013732X00000000000000096229310000
0000011111500350000010041005000410106400000000000402855405310000
0000011111500357000009021103000410106400000000000408068200310000
0000011111500368000008014050000410106400000000000408163706310000
0000011111500378000009021064000013732X00000000000000111430310000
0000011111500379000009021021000013732x00000000000000111430310000
0000011111500383000009021038000013732x00000000000000111414310000
0000011111500384000002021050000013732X00000000000000110124310000
0000011111500385000009021067000013732x00000000000000111422310000
0000011111500388000008014931000013732X00000000000000112291310000
0000011111500389000008014300000410106400000000000408302408310000
0000011111500398010008014500000013732X00000000000000114731310000
0000011111500398030008014503000013732X00000000000000114731310000
0000011111500398060008014520000013732X00000000000000114731310000
0000011111500398070008014500000013732X00000000000000114731310000
0000011411090608000012010050001040052100000000006000002951330000
0000011411090611000012010050000013732X0000000000000011698X330000
0000011411090612000012010050000013732X0000000000000011698X330000
0000011411090613000012010050000013732X0000000000000011698X330000
0000011411090614000012010050001040052100000000006000002951330000
0000011411090615000012010050007480030600000000000000113598330000
0000011411090616000012010050007480030600000000000000113598330000
0000011411090617000012010050000013732X0000000000000011698X330000
0000011411090618000012010050000013732X0000000000000011698X330000
FINALIZADOR0000000126                                                                                                                                                                                                                                                                                                                                                                                                                                                                                                                                                                                                                                                                                                                                                                                                           
