87612826000190010120203004202008052020PREFEITURA MUNICIPAL INDEPENDENCIA                                              
2905                08102019000003/2020         030120200000000477490000000000000024
2918                04122019000004/2020         030120200000000435000000000043500015
2918                04122019000006/2020         070120200000036784940000000000000011
2918                04122019000006/2020         070120200000026032273000002603227315
2918                04122019000007/2020         090120200000008300000000000830000015
2918                04122019000009/2020         130120200000030574190000003057419015
2918                04122019000010/2020         140120200000000320000000000032000015
2918                04122019000011/2020         160120200000001000000000000100000015
2918                04122019000012/2020         210120200000003740000000000374000015
2918                04122019000013/2020         240120200000000518732000000000000011
2918                04122019000013/2020         240120200000000049000000000004900015
2918                04122019000014/2020         270120200000014800000000001480000015
2918                04122019000016/2020         300120200000014730000000001473000015
2918                04122019000017/2020         310120200000003829888000000000000012
2918                04122019000017/2020         310120200000000820000000000082000015
2918                04122019000018/2020         190220200000001535354000000153535415
2918                04122019000023/2020         210220200000007500000000000000000012
2918                04122019000023/2020         210220200000007040000000000704000015
2918                04122019000025/2020         040320200000013529250000000000000012
2918                04122019000026/2020         060320200000001404000000000140400015
2918                04122019000027/2020         100320200000000590000000000059000015
2918                04122019000028/2020         160320200000000001982000000000000012
2918                04122019000028/2020         160320200000001045000000000104500015
2918                04122019000030/2020         170320200000040644273000000000000012
2918                04122019000030/2020         170320200000000413800000000041380015
2918                04122019000035/2020         190320200000007000000000000000000012
2918                04122019000035/2020         190320200000027800000000002780000015
2918                04122019000037/2020         230320200000001151555000000000000011
2918                04122019000037/2020         230320200000000009189000000000000012
2918                04122019000037/2020         230320200000008520000000000852000015
2918                04122019000043/2020         030420200000001405400000000000000012
2918                04122019000043/2020         030420200000000160000000000016000015
2918                04122019000045/2020         070420200000000172800000000000000012
2918                04122019000045/2020         070420200000000070000000000007000015
2918                04122019000046/2020         140420200000002610000000000000000012
2918                04122019000047/2020         150420200000000300000000000030000015
2918                04122019000048/2020         160420200000000300000000000030000015
2918                04122019000049/2020         200420200000000015661000000000000012
2918                04122019000049/2020         200420200000003100000000000310000015
2918                04122019000054/2020         240420200000004510000000000451000015
2918                04122019000055/2020         240420200000030000000000003000000015
2918                04122019000056/2020         290420200000000600000000000060000015
2922                17122019000001/2020         030120200000013000000000001300000025
2924                17122019000002/2020         030120200000010000000000001000000025
2928                19022020000019/2020         210220200000003800000000000380000025
2929                19022020000020/2020         210220200000005400000000000540000025
2930                19022020000021/2020         210220200000000045940000000004594025
2931                19022020000022/2020         210220200000005300000000000530000025
2933                03032020000024/2020         040320200000000300000000000030000025
2934                17032020000033/2020         190320200000004000000000000400000025
2935                17032020000031/2020         180320200000001500000000000150000025
2936                17032020000034/2020         190320200000000085167000000008516725
2945                22042020000052/2020         240420200000001852888000000185288825
2947                22042020000053/2020         240420200000005797705000000579770525
4320                17031964000039/2020         260320200000001600000000000160000035
FINALIZADOR0000000055                                                                                                                                                                                                                                                                                                                                                                                                                                                                                                                                                                                                                                                                                                                                                                                                           
