87612826000190010120183112201801012019PREFEITURA MUNICIPAL INDEPENDENCIA                                              
2771                03102017000003/2018         100120180000002495824000000000000024
2771                03102017000003/2018         100120180000001416315000000000000024
2779                14122017000002/2018         020120180000008156704000000000000011
2779                14122017000002/2018         020120180000054919000000005491900015
2779                14122017000005/2018         150120180000001589942000000000000011
2779                14122017000005/2018         150120180000041137800000004113780015
2779                14122017000009/2018         060220180000002000000000000000000011
2779                14122017000009/2018         060220180000023135000000002313500015
2779                14122017000010/2018         210220180000000497355000000000000011
2779                14122017000010/2018         210220180000013260145000001326014515
2779                14122017000017/2018         060320180000013700000000000000000011
2779                14122017000017/2018         060320180000011728200000001172820015
2779                14122017000022/2018         130320180000019578260000001957826015
2779                14122017000023/2018         190320180000004299071000000429907115
2779                14122017000024/2018         260320180000001300000000000000000012
2779                14122017000024/2018         260320180000011235000000001123500015
2779                14122017000026/2018         020420180000002235054000000000000011
2779                14122017000026/2018         020420180000000026681000000000000012
2779                14122017000026/2018         020420180000002755000000000275500015
2779                14122017000029/2018         090420180000000251326000000000000011
2779                14122017000029/2018         090420180000000740000000000074000015
2779                14122017000030/2018         160420180000008909400000000890940015
2779                14122017000031/2018         230420180000002265155000000000000011
2779                14122017000031/2018         230420180000019788510000001978851015
2779                14122017000035/2018         070520180000000008022000000000000012
2779                14122017000035/2018         070520180000005630000000000563000015
2779                14122017000036/2018         140520180000010600000000000000000011
2779                14122017000036/2018         140520180000005717000000000571700015
2779                14122017000040/2018         210520180000004756879000000000000012
2779                14122017000040/2018         210520180000016684689000001668468915
2779                14122017000047/2018         290520180000001700000000000170000015
2779                14122017000049/2018         040620180000004000000000000000000012
2779                14122017000049/2018         040620180000012997000000001299700015
2779                14122017000051/2018         110620180000000200000000000000000011
2779                14122017000051/2018         110620180000010236500000001023650015
2779                14122017000052/2018         180620180000001310000000000131000015
2779                14122017000055/2018         250620180000008860802000000886080215
2779                14122017000056/2018         250620180000002168476000000000000012
2779                14122017000056/2018         250620180000016366500000001636650015
2779                14122017000059/2018         020720180000012032124000001203212415
2779                14122017000061/2018         090720180000000600000000000060000015
2779                14122017000062/2018         100720180000002358188000000235818815
2779                14122017000063/2018         110720180000003170000000000317000015
2779                14122017000064/2018         130720180000000050000000000005000015
2779                14122017000065/2018         160720180000000154221000000015422115
2779                14122017000067/2018         200720180000005800027000000580002715
2779                14122017000068/2018         230720180000000520000000000052000015
2779                14122017000069/2018         240720180000001060000000000106000015
2779                14122017000070/2018         250720180000000606000000000060600015
2779                14122017000071/2018         260720180000003653953000000000000012
2779                14122017000071/2018         260720180000013763238000001376323815
2779                14122017000072/2018         300720180000006932200000000693220015
2779                14122017000074/2018         060820180000001300000000000000000011
2779                14122017000074/2018         060820180000003265000000000326500015
2779                14122017000076/2018         140820180000000175000000000000000011
2779                14122017000076/2018         140820180000001277801000000127780115
2779                14122017000077/2018         150820180000005000000000000500000015
2779                14122017000078/2018         160820180000002400000000000000000012
2779                14122017000078/2018         160820180000003037000000000303700015
2779                14122017000079/2018         160820180000021578916000002157891615
2779                14122017000080/2018         270820180000001033000000000000000012
2779                14122017000080/2018         270820180000012742380000001274238015
2779                14122017000081/2018         270820180000002000000000000000000012
2779                14122017000081/2018         270820180000003550550000000355055015
2779                14122017000084/2018         030920180000006110000000000611000015
2779                14122017000085/2018         100920180000004601946000000460194615
2779                14122017000087/2018         120920180000001137000000000113700015
2779                14122017000088/2018         120920180000000100000000000010000015
2779                14122017000089/2018         170920180000016471317000000000000012
2779                14122017000089/2018         170920180000002870000000000287000015
2779                14122017000090/2018         180920180000004130000000000413000015
2779                14122017000091/2018         190920180000002447061000000000000011
2779                14122017000091/2018         190920180000002560427000000000000012
2779                14122017000091/2018         190920180000001974100000000197410015
2779                14122017000092/2018         240920180000003019700000000301970015
2779                14122017000093/2018         240920180000001615930000000000000012
2779                14122017000093/2018         240920180000020962744000002096274415
2779                14122017000094/2018         011020180000016450000000001645000015
2779                14122017000096/2018         081020180000000100000000000000000012
2779                14122017000096/2018         081020180000007132000000000713200015
2779                14122017000098/2018         151020180000000250000000000000000012
2779                14122017000098/2018         151020180000003100000000000310000015
2779                14122017000099/2018         161020180000007100000000000710000015
2779                14122017000100/2018         161020180000006304209000000630420915
2779                14122017000101/2018         181020180000002647087000000264708715
2779                14122017000103/2018         221020180000001509300000000150930015
2779                14122017000104/2018         241020180000001436416000000000000012
2779                14122017000104/2018         241020180000004132075000000413207515
2779                14122017000105/2018         241020180000010722000000000000000012
2779                14122017000105/2018         241020180000009200000000000920000015
2779                14122017000107/2018         301020180000000100000000000000000012
2779                14122017000107/2018         301020180000000910000000000091000015
2779                14122017000108/2018         301020180000007440000000000000000012
2779                14122017000108/2018         301020180000000380000000000038000015
2779                14122017000109/2018         071120180000001461000000000146100015
2779                14122017000110/2018         081120180000069963000000000000000012
2779                14122017000110/2018         081120180000001611000000000161100015
2779                14122017000111/2018         091120180000000580000000000058000015
2779                14122017000112/2018         121120180000002901000000000290100015
2779                14122017000114/2018         131120180000000950000000000095000015
2779                14122017000115/2018         141120180000000214000000000021400015
2779                14122017000117/2018         161120180000000260000000000026000015
2779                14122017000118/2018         191120180000002424400000000242440015
2779                14122017000119/2018         231120180000000302500000000030250015
2779                14122017000120/2018         261120180000000020838000000000000011
2779                14122017000120/2018         261120180000036015864000003601586415
2779                14122017000121/2018         261120180000010708927000001070892715
2779                14122017000122/2018         291120180000009816753000000981675315
2779                14122017000124/2018         031220180000003934146000000000000012
2779                14122017000124/2018         031220180000003523533000000352353315
2779                14122017000125/2018         101220180000000233845000000000000011
2779                14122017000125/2018         101220180000008516812000000000000012
2779                14122017000125/2018         101220180000022150304000002215030415
2779                14122017000126/2018         101220180000000842775000000000000012
2779                14122017000126/2018         101220180000000231144000000023114415
2779                14122017000127/2018         171220180000000067922000000000000011
2779                14122017000127/2018         171220180000000236400000000023640015
2779                14122017000128/2018         181220180000000197310000000000000011
2779                14122017000128/2018         181220180000001170000000000000000012
2779                14122017000128/2018         181220180000009417824000000941782415
2779                14122017000130/2018         191220180000028355000000002835500015
2779                14122017000131/2018         201220180000001200000000000120000015
2779                14122017000132/2018         211220180000000617200000000061720015
2779                14122017000135/2018         211220180000028175011000002817501115
2779                14122017000136/2018         261220180000006382262000000638226215
2779                14122017000138/2018         281220180000000027845000000000000012
2779                14122017000138/2018         281220180000016360852000001636085215
2779                14122017000139/2018         311220180000004430252000000443025215
2797                06022018000011/2018         260220180000006450000000000645000025
2798                06022018000012/2018         260220180000004500000000000000000021
2799                20022018000013/2018         260220180000024375000000000000000022
2799                20022018000013/2018         260220180000000650000000000065000025
2800                20022018000014/2018         260220180000000554221000000000000021
2800                20022018000014/2018         260220180000000100000000000010000025
2801                20022018000015/2018         260220180000000110000000000000000021
2802                20022018000016/2018         260220180000003840000000000384000025
2803                07032018000018/2018         090320180000000160000000000000000021
2803                07032018000018/2018         090320180000000510000000000051000025
2804                07032018000019/2018         090320180000000026500000000002650025
2805                07032018000020/2018         090320180000003300000000000330000025
2806                07032018000021/2018         090320180000001126666000000112666625
2808                03042018000027/2018         050420180000001220000000000122000025
2810                03042018000028/2018         050420180000006304209000000000000021
2810                03042018000028/2018         050420180000025000000000000000000022
2812                17042018000032/2018         240420180000001300000000000000000021
2812                17042018000032/2018         240420180000000800000000000080000025
2817                17042018000033/2018         240420180000005500000000000000000026
2819                08052018000037/2018         140520180000000020000000000002000025
2820                08052018000038/2018         140520180000005910972000000000000021
2820                08052018000038/2018         140520180000000089028000000000000022
2821                08052018000039/2018         140520180000001600000000000160000015
2822                22052018000042/2018         250520180000001300000000000130000025
2823                22052018000043/2018         250520180000000882990000000000000022
2825                22052018000044/2018         250520180000016908850000000000000021
2826                05062018000050/2018         080620180000008000000000000000000022
2828                19062018000057/2018         260620180000001069300000000000000021
2830                19062018000058/2018         260620180000001050000000000105000025
2833                03072018000060/2018         030720180000034160000000000000000022
2836                21082018000083/2018         300820180000030264188000000000000022
2836                21082018000083/2018         300820180000002238317000000223831725
2837                04092018000086/2018         100920180000000856800000000085680025
2840                09102018000097/2018         091020180000011955408000000000000022
2840                09102018000097/2018         091020180000001249959000000124995925
2842                16102018000102/2018         181020180000001680000000000168000025
2853                21122018000134/2018         211220180000017700000000001770000015
FINALIZADOR0000000165                                                                                                                                                                                                                                                                                                                                                                                                                                                                                                                                                                                                                                                                                                                                                                                                           
