87612826000190010120203004202008052020PREFEITURA MUNICIPAL INDEPENDENCIA                                              
110128846000000000007339047120000000000100000202000000001020120200000020700000+0000000231                                                                                                                                                                     00000N                    000000000000000000000000PASEP A RECOLHER NO EXERCICIO DE 2020 CONFORME ESTIMATIVA. COMPETENCIA: 2020                                                                                                                                                                                                                                                                                                                                    NSA00XX000000000000000000
110128846000000000007339047120000000000100000202000000002020120200000007000000+0000000231                                                                                                                                                                     00000N                    000000000000000000000000RETENCAO AO PASEP 1% FPM...............R$ ITR...............R$ FEP...............R$ ICMS EXP..........R$ FEX. CEX..........R$ AFM-APOIO.........R$                                                                                                                                                                                                                                                              NSA01XX000000000000000000
050212361000200002019339039430000000002000000202000000003020120200000000036000+0000000224                                                                                                                                                                     00000N                    000000000000000000000000ENERGIA  ELETRICA  UTILIZADA  NA  ESCOLA  MUNICIPAL  PRIMEIRO  DE  MAIO, NO EXERCICIO 2020. MES: FAT. No: No CONOSCO: 7852 CONSUMO:                                                                                                                                                                                                                                                                             DPV01XX000000000000000000
050212361000200002019339039430000000002000000202000000003040320200000000033619-0000000224                                                                                                                                                                     00000N                    000000000000000000000000DEVIDO A ESCOLA TER SIDO CEDIDA PARA A COMUNIDADE.                                                                                                                                                                                                                                                                                                                                                              DPV01XX000000000000000000
080110301000600002059339039430000000004000000202000000004020120200000000048000+0000000224                                                                                                                                                                     00000N                    000000000000000000000000ENERGIA  ELETRICA  UTILIZADA NO ESF DE ESQUINA ARAUJO, NO EXERCICIO 2020. MES: FAT. No: No CONOSCO: 7854 CONSUMO:                                                                                                                                                                                                                                                                                               DPV01XX000000000000000000
080110301000600002059339039430000000004000000202000000005020120200000000036000+0000000224                                                                                                                                                                     00000N                    000000000000000000000000ENERGIA  ELETRICA  UTILIZADA  NO  ESF DE SAO VALENTIM, NO EXERCICIO 2020. MES: FAT. No: No CONOSCO: 7855 CONSUMO:                                                                                                                                                                                                                                                                                               DPV01XX000000000000000000
070215452001700002045339039430000000000100000202000000006020120200000001440000+0000000224                                                                                                                                                                     00000N                    000000000000000000000000ENERGIA  ELETRICA  UTILIZADA  NA  ILUMINACAO  PUBLICA, NO EXERCICIO 2020. MES: FAT. No: No CONOSCO: 13274 CONSUMO:                                                                                                                                                                                                                                                                                              DPV01XX000000000000000000
030104122000100002003339039440000000000100000202000000007020120200000000198000+0000000223                                                                                                                                                                     00000N                    000000000000000000000000TARIFA  DE  AGUA  E  ESGOTO  REF.  AO  IMOVEL  COM  MATRICULA  DA CORSAN No 1572026-8 NO EXERCICIO 2020. REF. MES: CONSUMO M³:                                                                                                                                                                                                                                                                                  DPV01XX000000000000000000
060126122000100002032339039440000000000100000202000000008020120200000000120000+0000000223                                                                                                                                                                     00000N                    000000000000000000000000TARIFA  DE  AGUA  E  ESGOTO  REF.  AO  IMOVEL  COM  MATRICULA  DA CORSAN No 1571968-5 NO EXERCICIO 2020. REF. MES: CONSUMO M³:                                                                                                                                                                                                                                                                                  DPV01XX000000000000000000
070115122000100002038339039440000000000100000202000000009020120200000000084000+0000000223                                                                                                                                                                     00000N                    000000000000000000000000TARIFA  DE  AGUA  E  ESGOTO  REF.  AO  IMOVEL  COM  MATRICULA  DA CORSAN No 1571970-7 NO EXERCICIO 2020. REF. MES: CONSUMO M³:                                                                                                                                                                                                                                                                                  DPV01XX000000000000000000
050427812000300002029339039440000000000100000202000000010020120200000000144000+0000000223                                                                                                                                                                     00000N                    000000000000000000000000TARIFA  DE  AGUA  E  ESGOTO  REF.  AO  IMOVEL  COM  MATRICULA  DA CORSAN No 1572025-0 NO EXERCICIO 2020. REF. MES: CONSUMO M³:                                                                                                                                                                                                                                                                                  DPV01XX000000000000000000
090108122001100002075339039440000000000100000202000000011020120200000000192000+0000000223                                                                                                                                                                     00000N                    000000000000000000000000TARIFA  DE  AGUA  E  ESGOTO  REF.  AO  IMOVEL  COM  MATRICULA  DA CORSAN No 1572027-6 NO EXERCICIO 2020. REF. MES: CONSUMO M³:                                                                                                                                                                                                                                                                                  DPV01XX000000000000000000
100120122000100002090339039440000000000100000202000000012020120200000000084000+0000000223                                                                                                                                                                     00000N                    000000000000000000000000TARIFA  DE  AGUA  E  ESGOTO  REF.  AO  IMOVEL  COM  MATRICULA  DA CORSAN No 1572111-6 NO EXERCICIO 2020. REF. MES: CONSUMO M³:                                                                                                                                                                                                                                                                                  DPV01XX000000000000000000
050427812000300002029339039440000000000100000202000000013020120200000000096000+0000000223                                                                                                                                                                     00000N                    000000000000000000000000TARIFA  DE  AGUA  E  ESGOTO  REF.  AO  IMOVEL  COM  MATRICULA  DA CORSAN No 1572168-0 NO EXERCICIO 2020. REF. MES: CONSUMO M³:                                                                                                                                                                                                                                                                                  DPV01XX000000000000000000
090208241001100002077339039440000000000100000202000000014020120200000000060000+0000000223                                                                                                                                                                     00000N                    000000000000000000000000TARIFA  DE  AGUA  E  ESGOTO  REF.  AO  IMOVEL  COM  MATRICULA  DA CORSAN No 1577919-0 NO EXERCICIO 2020. REF. MES: CONSUMO M³:                                                                                                                                                                                                                                                                                  DPV01XX000000000000000000
020408243001100002009339039440000000000100000202000000015020120200000000072000+0000000223                                                                                                                                                                     00000N                    000000000000000000000000TARIFA  DE  AGUA  E  ESGOTO  REF.  AO  IMOVEL  COM  MATRICULA  DA CORSAN No 2020046-3 NO EXERCICIO 2020. REF. MES: CONSUMO M³:                                                                                                                                                                                                                                                                                  DPV01XX000000000000000000
050212361000200002019339039440000000002000000202000000016020120200000000840000+0000000223                                                                                                                                                                     00000N                    000000000000000000000000TARIFA  DE  AGUA  E  ESGOTO  REF.  AO  IMOVEL  COM  MATRICULA  DA CORSAN No 1577994-7 NO EXERCICIO 2020. REF. MES: CONSUMO M³:                                                                                                                                                                                                                                                                                  DPV01XX000000000000000000
050212782000200002031339039440000000002000000202000000017020120200000000084000+0000000223                                                                                                                                                                     00000N                    000000000000000000000000TARIFA  DE  AGUA  E  ESGOTO  REF.  AO  IMOVEL  COM  MATRICULA  DA CORSAN No 1571966-9 NO EXERCICIO 2020. REF. MES: CONSUMO M³:                                                                                                                                                                                                                                                                                  DPV01XX000000000000000000
050212365000200002023339039440000000002000000202000000018020120200000000420000+0000000223                                                                                                                                                                     00000N                    000000000000000000000000TARIFA  DE  AGUA  E  ESGOTO  REF.  AO  IMOVEL  COM  MATRICULA  DA CORSAN No 1571928-6 NO EXERCICIO 2020. REF. MES: CONSUMO M³:                                                                                                                                                                                                                                                                                  DPV01XX000000000000000000
080110302000800002065339039440000000004000000202000000019020120200000000420000+0000000223                                                                                                                                                                     00000N                    000000000000000000000000TARIFA  DE  AGUA  E  ESGOTO  REF.  AO  IMOVEL  COM  MATRICULA  DA CORSAN No 1578091-0 NO EXERCICIO 2020. REF. MES: CONSUMO M³:                                                                                                                                                                                                                                                                                  DPV01XX000000000000000000
080110301000600002059339039440000000004000000202000000020020120200000000084000+0000000223                                                                                                                                                                     00000N                    000000000000000000000000TARIFA  DE  AGUA  E  ESGOTO  REF.  AO  IMOVEL  COM  MATRICULA  DA CORSAN No 1571697-0 NO EXERCICIO 2020. REF. MES: CONSUMO M³:                                                                                                                                                                                                                                                                                  DPV01XX000000000000000000
080110301000600002059339039440000000004000000202000000021020120200000000084000+0000000223                                                                                                                                                                     00000N                    000000000000000000000000TARIFA  DE  AGUA  E  ESGOTO  REF.  AO  IMOVEL  COM  MATRICULA  DA CORSAN No 2448726-0 NO EXERCICIO 2020. REF. MES: CONSUMO M³:                                                                                                                                                                                                                                                                                  DPV01XX000000000000000000
030104122000100002003339039430000000000100000202000000022020120200000005000000+0000001169                                                                                                                                                                     00000N                    000000000000000000000000TARIFA  DE  ENERGIA  ELETRICA UTILIZADA NO PREDIO DO PALACIO MUNICIPAL REF. EXERCICIO 2020. MES: FAT. No: No CONOSCO: 3082467685 CONSUMO:                                                                                                                                                                                                                                                                       DPV01XX000000000000000000
060126122000100002032339039430000000000100000202000000023020120200000000840000+0000001169                                                                                                                                                                     00000N                    000000000000000000000000TARIFA  DE  ENERGIA ELETRICA UTILIZADA NO PREDIO DO PARQUE DE MAQUINAS REF. EXERCICIO 2020. MES: FAT. No: No CONOSCO: 3082467660 CONSUMO:                                                                                                                                                                                                                                                                       DPV01XX000000000000000000
060126122000100002032339039430000000000100000202000000023070420200000000001000-0000001169                                                                                                                                                                     00000N                    000000000000000000000000AJUSTE DA DOTACAO                                                                                                                                                                                                                                                                                                                                                                                               DPV01XX000000000000000000
060126122000100002032339039430000000000100000202000000023130420200000000010000-0000001169                                                                                                                                                                     00000N                    000000000000000000000000por nao ter necessidade no presente                                                                                                                                                                                                                                                                                                                                                                             DPV01XX000000000000000000
060126122000100002032339039430000000000100000202000000024020120200000000300000+0000001169                                                                                                                                                                     00000N                    000000000000000000000000TARIFA  DE  ENERGIA  ELETRICA UTILIZADA NO PREDIO DA OFICINA MUNICIPAL REF. EXERCICIO 2020. MES: FAT. No: No CONOSCO: 3085069531 CONSUMO:                                                                                                                                                                                                                                                                       DPV01XX000000000000000000
050427812000300002029339039430000000000100000202000000025020120200000000080000+0000001169                                                                                                                                                                     00000N                    000000000000000000000000TARIFA  DE  ENERGIA  ELETRICA UTILIZADA NO ESTADIO MUNICIPAL REF. EXERCICIO 2020. MES: FAT. No: No CONOSCO: 3082467825 CONSUMO:                                                                                                                                                                                                                                                                                 DPV01XX000000000000000000
050427812000300002029339039430000000000100000202000000026020120200000000120000+0000001169                                                                                                                                                                     00000N                    000000000000000000000000TARIFA  DE  ENERGIA  ELETRICA  UTILIZADA NA PRACA JOAO SAFFI REF. EXERCICIO 2020. MES: FAT. No: No CONOSCO: 4002592400 CONSUMO:                                                                                                                                                                                                                                                                                 DPV01XX000000000000000000
050427812000300002029339039430000000000100000202000000027020120200000000020000+0000001169                                                                                                                                                                     00000N                    000000000000000000000000TARIFA  DE ENERGIA ELETRICA UTILIZADA NA PRCA DA CIDADE ALTA REF. EXERCICIO 2020. MES: FAT. No: No CONOSCO: 3085573325 CONSUMO:                                                                                                                                                                                                                                                                                 DPV01XX000000000000000000
090208241001100002077339039430000000000100000202000000028020120200000000240000+0000001169                                                                                                                                                                     00000N                    000000000000000000000000TARIFA  DE  ENERGIA  ELETRICA  UTILIZADA  NO  PREDIO DO CENTRO DE AMPARO AO IDOSO (SALAO VERDE) REF. EXERCICIO 2020. MES: FAT. No: No CONOSCO: 3085151186 CONSUMO:                                                                                                                                                                                                                                              DPV01XX000000000000000000
090208244001100002085339039430000000000100000202000000029020120200000000260000+0000001169                                                                                                                                                                     00000N                    000000000000000000000000TARIFA DE ENERGIA ELETRICA UTILIZADA NO PREDIO DO CRAS REF. EXERCICIO 2020.  MES: FAT. No: No CONOSCO: 3082467680 CONSUMO:                                                                                                                                                                                                                                                                                      DPV01XX000000000000000000
050313392000300002026339039430000000000100000202000000030020120200000000084000+0000001169                                                                                                                                                                     00000N                    000000000000000000000000TARIFA DE ENERGIA ELETRICA UTILIZADA NO PREDIO DA BIBLIOTECA MUNICIPAL REF. EXERCICIO 2020. MES: FAT. No: No CONOSCO: 3085141606 CONSUMO:                                                                                                                                                                                                                                                                       DPV01XX000000000000000000
020408243001100002009339039430000000000100000202000000031020120200000000100000+0000001169                                                                                                                                                                     00000N                    000000000000000000000000TARIFA  DE  ENERGIA  ELETRICA  UTILIZADA NO PREDIO DO CONSELHO TUTELAR REF. EXERCICIO 2020. MES: FAT. No: No CONOSCO: 3082467811 CONSUMO:                                                                                                                                                                                                                                                                       DPV01XX000000000000000000
030104122000100002010339039430000000000100000202000000032020120200000000048000+0000001169                                                                                                                                                                     00000N                    000000000000000000000000TARIFA  DE  ENERGIA ELETRICA UTILIZADA NO PREDIO ANTIGO DO CONSELHO TUTELAR REF. EXERCICIO 2020. MES: FAT. No: No CONOSCO: 3082483862 CONSUMO:                                                                                                                                                                                                                                                                  DPV01XX000000000000000000
050212365000200002023339039430000000002000000202000000033020120200000002200000+0000001169                                                                                                                                                                     00000N                    000000000000000000000000TARIFA  DE  ENERGIA  ELETRICA UTILIZADA NO PREDIO DA E.M.E.I LAR DA CRIANCA REF. EXERCICIO 2020. MES: FAT. No: No CONOSCO: 3082467807 CONSUMO:                                                                                                                                                                                                                                                                  DPV01XX000000000000000000
050212361000200002019339039430000000002000000202000000034020120200000001056000+0000001169                                                                                                                                                                     00000N                    000000000000000000000000TARIFA  DE  ENERGIA  ELETRICA  UTILIZADA  NO GINASIO DA E.M.E.F. PRESIDENTE GETULIO VARGAS REF. EXERCICIO 2020. MES: FAT. No: No CONOSCO: 3082967060 CONSUMO:                                                                                                                                                                                                                                                   DPV01XX000000000000000000
050212361000200002019339039430000000002000000202000000035020120200000002400000+0000001169                                                                                                                                                                     00000N                    000000000000000000000000TARIFA  DE ENERGIA ELETRICA UTILIZADA NA E.M.E.F. PRESIDENTE GETULIO VARGAS REF. EXERCICIO 2020. MES: FAT. No: No CONOSCO: 3082467801 CONSUMO:                                                                                                                                                                                                                                                                  DPV01XX000000000000000000
080110302000800002065339039430000000004000000202000000036020120200000004800000+0000001169                                                                                                                                                                     00000N                    000000000000000000000000TARIFA  DE  ENERGIA ELETRICA UTILIZADA NO PREDIO DO PRONTO ATENDIMENTO REF. EXERCICIO 2020. MES: FAT. No: No CONOSCO: 3082467691 CONSUMO:                                                                                                                                                                                                                                                                       DPV01XX000000000000000000
080110301000600002059339039430000000004000000202000000037020120200000001200000+0000001169                                                                                                                                                                     00000N                    000000000000000000000000TARIFA  DE ENERGIA ELETRICA UTILIZADA NO PREDIO DO ESF 01 NO REF. EXERCICIO 2020. MES: FAT. No: No CONOSCO: 3085733400 CONSUMO:                                                                                                                                                                                                                                                                                 DPV01XX000000000000000000
070215452001700002045339039430000000000100000202000000038020120200000019200000+0000001169                                                                                                                                                                     00000N                    000000000000000000000000TARIFA  DE  ENERGIA  ELETRICA  UTILIZADA  NA  ILUMINACAO  PUBLICA  NO  REF. EXERCICIO 2020. MES: FAT. No: No CONOSCO: 3082467837 CONSUMO:                                                                                                                                                                                                                                                                       DPV01XX000000000000000000
070215452001700002045339039250000000000100000202000000039020120200000000600000+0000001169                                                                                                                                                                     00000N                    000000000000000000000000TAXA  DE  ADMINISTRACAO  PELA  COBRANCA  DA CIP ATRAVES DA CONTA DE ENERGIA ELETRICA REF. EXERCICIO 2020. MES: FAT. No: No CONOSCO: 3082467837                                                                                                                                                                                                                                                                  DPV01XX000000000000000000
080110785000800002074339014140000000004000000202000000040020120200000000400000+0000004295                                                                                                                                                                     00000N                    000000000000000000000000DIARIAS  PARA  VIAGENS REALIZADAS PARA TRANSPORTE DE PACIENTES ENCAMINHADOS PELA  SECR. DE SAUDE PARA CONSULTAS E EXAMES EM DIVERSAS ESPECIALIDADES NOS MUNICIPIOS  DA  REGIAO E CAPITAL E FORA DO ESTADO NO EXERCICIO 2020 CONF RD 10 EM ANEXO.                                                                                                                                                                NSA00IX000000000000000000
080110785000800002074339014140000000004000000202000000040200220200000000013933-0000004295                                                                                                                                                                     00000N                    000000000000000000000000DEVOLUCAO DEVIDO CANCELAMENTO DA CONSULTA DA PACIENTE.                                                                                                                                                                                                                                                                                                                                                          NSA00IX000000000000000000
080110785000800002074339014140000000004000000202000000041020120200000000400000+0000000321                                                                                                                                                                     00000N                    000000000000000000000000DIARIAS  PARA  VIAGENS REALIZADAS PARA TRANSPORTE DE PACIENTES ENCAMINHADOS PELA  SECR. DE SAUDE PARA CONSULTAS E EXAMES EM DIVERSAS ESPECIALIDADES NOS MUNICIPIOS  DA  REGIAO E CAPITAL E FORA DO ESTADO NO EXERCICIO 2020 CONF RD 10 EM ANEXO NE 40.                                                                                                                                                          NSA00IX000000000000000000
080110785000800002074339014140000000004000000202000000042020120200000000400000+0000000150                                                                                                                                                                     00000N                    000000000000000000000000DIARIAS  PARA  VIAGENS REALIZADAS PARA TRANSPORTE DE PACIENTES ENCAMINHADOS PELA  SECR. DE SAUDE PARA CONSULTAS E EXAMES EM DIVERSAS ESPECIALIDADES NOS MUNICIPIOS  DA  REGIAO E CAPITAL E FORA DO ESTADO NO EXERCICIO 2020 CONF RD 10 EM ANEXO NE 40.                                                                                                                                                          NSA00IX000000000000000000
080110785000800002074339014140000000004000000202000000043020120200000000400000+0000001342                                                                                                                                                                     00000N                    000000000000000000000000DIARIAS  PARA  VIAGENS REALIZADAS PARA TRANSPORTE DE PACIENTES ENCAMINHADOS PELA  SECR. DE SAUDE PARA CONSULTAS E EXAMES EM DIVERSAS ESPECIALIDADES NOS MUNICIPIOS  DA  REGIAO E CAPITAL E FORA DO ESTADO NO EXERCICIO 2020 CONF RD 10 EM ANEXO NE 40.                                                                                                                                                          NSA00IX000000000000000000
080110785000800002074339014140000000004000000202000000044020120200000000200000+0000004876                                                                                                                                                                     00000N                    000000000000000000000000DIARIAS  PARA  VIAGENS REALIZADAS PARA TRANSPORTE DE PACIENTES ENCAMINHADOS PELA  SECR. DE SAUDE PARA CONSULTAS E EXAMES EM DIVERSAS ESPECIALIDADES NOS MUNICIPIOS  DA  REGIAO E CAPITAL E FORA DO ESTADO NO EXERCICIO 2020 CONF RD 10 EM ANEXO NE 40.                                                                                                                                                          NSA01XX000000000000000000
080110785000800002074339014140000000004000000202000000045020120200000000400000+0000004616                                                                                                                                                                     00000N                    000000000000000000000000DIARIAS  PARA  VIAGENS REALIZADAS PARA TRANSPORTE DE PACIENTES ENCAMINHADOS PELA  SECR. DE SAUDE PARA CONSULTAS E EXAMES EM DIVERSAS ESPECIALIDADES NOS MUNICIPIOS  DA  REGIAO E CAPITAL E FORA DO ESTADO NO EXERCICIO 2020 CONF RD 10 EM ANEXO NE 40.                                                                                                                                                          NSA00IX000000000000000000
080110785000800002074339014140000000004000000202000000046020120200000000080000+0000005713                                                                                                                                                                     00000N                    000000000000000000000000DIARIAS  PARA  VIAGENS REALIZADAS PARA TRANSPORTE DE PACIENTES ENCAMINHADOS PELA  SECR. DE SAUDE PARA CONSULTAS E EXAMES EM DIVERSAS ESPECIALIDADES NOS MUNICIPIOS  DA  REGIAO E CAPITAL E FORA DO ESTADO NO EXERCICIO 2020 CONF RD 10 EM ANEXO NE 40.                                                                                                                                                          NSA00IX000000000000000000
080110785000800002074339014140000000004000000202000000047020120200000000100000+0000000052                                                                                                                                                                     00000N                    000000000000000000000000DIARIAS  PARA  VIAGENS REALIZADAS PARA TRANSPORTE DE PACIENTES ENCAMINHADOS PELA  SECR. DE SAUDE PARA CONSULTAS E EXAMES EM DIVERSAS ESPECIALIDADES NOS MUNICIPIOS  DA  REGIAO E CAPITAL E FORA DO ESTADO NO EXERCICIO 2020 CONF RD 10 EM ANEXO NE 40.                                                                                                                                                          NSA00IX000000000000000000
080110301000600002061339039500300000004000000202000000050020120200000000608000+0000007129                                                                                                                                                                     00006N                    000000000000000000112019SERVICOS  MEDICOS  ESPECIALIZADOS  EM  PEDIATRIA, PARA ATENDIMENTO JUNTO AO NASF CONF RD 09 E CONTRATO No 026/2019. PROCESSO No 20/19 PREGAO No 11 /19 EDITAL No 11/19 VIGENCIA ATE 18.01.2020                                                                                                                                                                                                                  PRP01XX000000000000000000
080110302000800002065339039500300000004000000202000000051020120200000005500000+0000005433                                                                                                                                                                     00006N                    000000000000000000632018SERVICOS  MEDICOS PARA ATENDIMENTO JUNTO A UNIDADE BASICA DE SAUDE 3o TURNO ATENDIMENTO        AMPLIADO DE ESF NOTURNO CONF CONTRATO No 107/18 E PEDIDO No 04/2020 EM ANEXO. PROCESSO 136/18 EDITAL 72/18 PREGAO 63/18 VIGENCIA ATE 25.06.2020                                                                                                                                                                  PRP01XX000000000000000000
080110301000600002061339039500300000004000000202000000052020120200000000800000+0000005433                                                                                                                                                                     00006N                    000000000000000000632018SERVICOS  MEDICOS  PARA  ATENDIMENTO  JUNTO  A  UNIDADE  BASICA  DE SAUDE - ESF/NASF  CONF      CONTRATO  No  107/18  E  RD  04/2020 EM ANEXO NE 51. PROCESSO 136/18 EDITAL 72/18 PREGAO 63/18 VIGENCIA ATE 25.06.2020                                                                                                                                                                                          PRP01XX000000000000000000
080110301000600002059339039780000000004000000202000000053020120200000000124623+0000005419                                                                                                                                                                     00000N                    000000000000000000312017SERVICO  DE  RECOLHIMENTO,TRANSPORTE E DESTINACAO FINAL DE LIXO CONTAMINADO GRUPO  A  E  E,       DOS ESFS CONF CONTRATO No 009/2017 E ADITIVO 001/19 E PEDIDO 008/2020 EM ANEXO. PROCESSO 51/17 DISPENSA 31/17 VIGENCIA ATE 02.02.2020                                                                                                                                                                         DPV01XX000000000000000000
080110303000800002069339039509900000004000000202000000054020120200000004000000+0000001858                                                                                                                                                                     00000N                    000000000000000000032018EXAMES  LABORATORIAS  PARA PACIENTES ATENDIDOS NA REDE BASICA DE SAUDE CONF CONTRATO 09/2018 E RD 03/2020 EM ANEXO. PROCESSO 205/18 EDITAL 106/18 CHAMAMENTO PUBLICO 03/18 VIGENCIA ATE 25.10.2020                                                                                                                                                                                                              DPV01XX000000000000000000
080110302000800002065339039509900000004000000202000000055020120200000001597097+0000000047                                                                                                                                                                     00002N                    000000000000000000022018SERVICOS  DE  ATENDIMENTO  DE  URGENCIA  E EMERGENCIA COM PLANTAO MEDICO 24 HORAS  CONF    CONTRATO  No  10/2018,  ADITIVO  001/19  E RD 06 EM ANEXO. PROCESSO 027/18 INEXIGIBILIDADE 002/18 VALOR MENSAL: 16.769,52 VIGENCIA ATE 01.02.2020                                                                                                                                                                    PRI01XN000000000000000000
080110301000600001421339339000000000004000000202000000056020120200000002077778+0000000912                                                                                                                                                                     00000N                    000000000000000000000000CONSULTAS  E  EXAMES  ESPECIALIZADOS  A  PACIENTES  ENCAMINHADOS  PELA REDE BASICA DE SAUDE DO MUNICIPIO CONF RD 02 EM ANEXO.                                                                                                                                                                                                                                                                                   DPV01XX000000000000000000
110104122000000000002317170010000000000100000202000000057020120200000001172312+0000000451                                                                                                                                                                     00000N                    000000000000000000000000CONTRIBUICAO  MENSAL  DE  CONSORCIADO  CODIS/COFRON  PARA O EXERCICIO 2020. CONF.  CONTRATO DE RATEIO 007/2020, ATA 05/19, OFICIO 017/19 E PEDIDO 11 EM ANEXO. VALOR MENSAL = R$ 976,92                                                                                                                                                                                                                         DPV01XX000000000000000000
110104122000000000002337170010000000000100000202000000058020120200000000345346+0000000451                                                                                                                                                                     00000N                    000000000000000000000000CONTRIBUICAO  MENSAL  DE  CONSORCIADO  CODIS/COFRON  PARA O EXERCICIO 2020. CONF.  CONTRATO DE RATEIO 007/2020, ATA 05/19, OFICIO 017/19 E PEDIDO 11 EM ANEXO NE 57. VALOR MENSAL = R$ 287,79                                                                                                                                                                                                                   DPV01XX000000000000000000
110104122000000000002447170010000000000100000202000000059020120200000000037749+0000000451                                                                                                                                                                     00000N                    000000000000000000000000CONTRIBUICAO  MENSAL  DE  CONSORCIADO  CODIS/COFRON  PARA O EXERCICIO 2020. CONF.  CONTRATO DE RATEIO 007/2020, ATA 05/19, OFICIO 017/19 E PEDIDO 11 EM ANEXO NE 57. VALOR MENSAL = R$ 31,46                                                                                                                                                                                                                    DPV01XX000000000000000000
080110303000800002067337170010000000004000000202000000060020120200000000875160+0000000451                                                                                                                                                                     00000N                    000000000000000000000000RATEIO  PARA MANUTENCAO DO SAMU AVANCADO CONFORME CONTRATO DE RATEIO 009/18 E  ADITIVO  001    ENTRE  COFRON, FUMSSAR, SANTA ROSA E INDEPENDENCIA E LEI MUNICIPAL 2141/10. RD 07 EM ANEXO. VALOR MENSAL = R$ 729,30                                                                                                                                                                                             DPV01XX000000000000000000
120109122000100002107339035010000000005000000202001000061020120200000000325000+0000006989                                                                                                                                                                     00000N                    000000000000000000322019SERVICOS  DE ASSESSORIA E GERENCIAMENTO DA CARTEIRA DE INVESTIMENTOS PARA O FUNDO DA PREVIDENCIA SOCIAL CONF CONTRATO No 041/19. PROCESSO No 81/19 DISPENSA 32/19 VALOR MENSAL R$ 650,00 VIG. MAIO/2020                                                                                                                                                                                                         DPV01XX000000000000000000
040104129000100002118339035010000000000100000202000000062020120200000000045500+0000005964                                                                                                                                                                     00000N                    000000000000000000022019ASSESSORIA  PARA APURACAO DO INDICE DE RETORNO NO RECOLHIMENTO DO ICMS CONF CONTRATO No 002/2019. VIG. 21.01.2020                                                                                                                                                                                                                                                                                               DPV01XX000000000000000000
070215452001000002042339039780000000000100000202000000063020120200000012749880+0000006911                                                                                                                                                                     90404N                    000000000000000000062018COLETA  E TRANSPORTE ATE ATERRO LICENCIADO, DOS RESIDUOS SOLIDOS PRODUZIDOS NO  PERIMETRO        URBANO  DO MUNICIPIO DE INDEPENDENCIA CONF CONTRATO No 151/2018 E TERMO ADITIVO 002/19. PROCESSO 121/18 EDITAL 64/18 TOMADA DE PRECOS 06/18 VALOR MENSAL R$ 15.238,90 VIGENCIA 11.09.20                                                                                                                        TMP01XN000000000000000000
030104126000100002011339035010000000000100000202000000067020120200000000031497+0000005821                                                                                                                                                                     00000N                    000000000000000000012018CONSULTORIA  NA  AREA  DE TI PARA SUPORTE E MONITORAMENTO CENTRALIZADO CONF CONTRATO No 001/18 E ADITIVO 002/2019. PROCESSO 06/2018 DISPENSA 01/2018 VIGENCIA 11.01.2020                                                                                                                                                                                                                                        DPV01XX000000000000000000
070215452001000002042339039780000000000100000202000000068020120200000007995000+0000006699                                                                                                                                                                     90302N                    000000000000000000042018ATERRO  LICENCIADO  PARA  RECEBIMENTO  DE  RESIDUOS SOLIDOS DO MUNICIPIO DE INDEPENDENCIA    CONF  CONTRATO  No  033/2018  E  TERMO  ADITIVO  001/19. PROCESSO 45/18 INEXIGIBILIDADE 04/18 VIGENCIA 21.09.2020                                                                                                                                                                                                  PRI01XN000000000000000000
030104131000100002117339039920000000000100000202000000069020120200000000120000+0000001184                                                                                                                                                                     00000N                    000000000000000000422017PRESTACAO  DE SERVICOS DE COMUNICACAO ATRAVES DE INFORMATIVO MUNICIPAL PARA DIVULGACAO       DE AVISOS E MATERIAS DE INTERESSE PUBLICO CONF CONTRATO No 45/17 E TERMO ADITIVO 002/19. PROCESSO 76/2017 DISPENSA 42/2017 VIGENCIA 02.03.2020                                                                                                                                                                     DPV01XX000000000000000000
030104122000100002003339039770000000000100000202000000070020120200000000020000+0000005383                                                                                                                                                                     00000N                    000000000000000000812017MONITORAMENTO  ATRAVES DE CENTRAL DE ALARMES DO PREDIO DO PALACIO MUNICIPAL CONF CONTRATO No 136/2017 E ADITIVO 002/18. PROCESSO 184/17 DISPENSA 81/17 VIGENCIA 28.02.2020                                                                                                                                                                                                                                      DPV01XX000000000000000000
020304122000100002006339035010000000000100000202000000071020120200000002403984+0000000264                                                                                                                                                                     00002N                    000000000000000000222017ASSESSORIA  TECNICA  E JURIDICA PRESTADAS AO MUNICIPIO CONF CONTRATO 207/17 E TERMO ADITIVO 002/19. PROCESSO 285/17 INEXIGIBILIDADE 22/17 VIGENCIA 21.11.2020                                                                                                                                                                                                                                                   PRI01XN000000000000000000
030104122000100002010339040060000000000100000202000000072020120200000000189587+0000000167                                                                                                                                                                     00006N                    000000000000000000472018LOCACAO  DE  SISTEMAS  DE INFORMATICA PARA O ANO DE 2020 SISTEMAS: FOLHA DE PAGAMENTO,             PROTOCOLO,  PATRIMONIO, DIARIAS E PORTAL DO SERVIDOR CONF    CONTRATO    No   111/2018  E  TERMO  DE  APOSTILAMENTO  001/2019. PROCESSO 107/18 EDITAL 54/18 PREGAO 47/18 VALOR MENSAL = R$ 1.895,87 IRRF 1,5% NA LIQUIDACAO                                                                                  PRP01XX000000000000000000
030104126000100002011339040060000000000100000202000000073020120200000000319536+0000000167                                                                                                                                                                     00006N                    000000000000000000472018LOCACAO  DE  SISTEMAS  DE INFORMATICA PARA O ANO DE 2020 SISTEMAS: WEB SITE CONF    CONTRATO    No   111/2018  E  TERMO  DE  APOSTILAMENTO  001/2019. PROCESSO 107/18 EDITAL 54/18 PREGAO 47/18 VALOR MENSAL = R$ 266,28 IRRF 1,5% NA LIQUIDACAO                                                                                                                                                                PRP01XX000000000000000000
050104122000100002016339040060000000000100000202000000074020120200000000093728+0000000167                                                                                                                                                                     00006N                    000000000000000000472018LOCACAO  DE  SISTEMAS  DE INFORMATICA PARA O ANO DE 2020 SISTEMAS: EDUCAR E PORTAL  DO  PROFESSOR  CONF  CONTRATO  No 111/2018 E TERMO DE APOSTILAMENTO 001/2019. PROCESSO 107/18 EDITAL 54/18 PREGAO 47/18 VALOR MENSAL = R$ 937,28 IRRF 1,5% NA LIQUIDACAO                                                                                                                                                    PRP01XX000000000000000000
060126122000100002032339040060000000000100000202000000075020120200000000830772+0000000167                                                                                                                                                                     00006N                    000000000000000000472018LOCACAO    DE  SISTEMAS  DE  INFORMATICA  PARA  O  ANO  DE  2020  SISTEMAS: ALMOXARIFADO  E  FROTAS  CONF CONTRATO No 111/2018 E TERMO DE APOSTILAMENTO 001/2019. PROCESSO 107/18 EDITAL 54/18 PREGAO 47/18 VALOR MENSAL = R$ 692,31 IRRF 1,5% NA LIQUIDACAO                                                                                                                                                    PRP01XX000000000000000000
040104123000100002015339040060000000000100000202000000076020120200000000256690+0000000167                                                                                                                                                                     00006N                    000000000000000000472018LOCACAO    DE  SISTEMAS  DE  INFORMATICA  PARA  O  ANO  DE  2020  SISTEMAS: CONTABILIDADE  E    ORCAMENTO,  TESOURARIA,  LDO, PPA, COMPRAS E LICITACAO, CONVENIOS  E  CONTRATOS, SIOPS/SIOPE,  CONF CONTRATO No 111/2018 E TERMO DE APOSTILAMENTO 001/2019. PROCESSO 107/18 EDITAL 54/18 PREGAO 47/18 VALOR MENSAL = R$ 2.566,90 IRRF 1,5% NA LIQUIDACAO                                                        PRP01XX000000000000000000
040104129000100002118339040060000000000100000202000000077020120200000000231126+0000000167                                                                                                                                                                     00006N                    000000000000000000472018LOCACAO  DE  SISTEMAS  DE  INFORMATICA  PARA O ANO DE 2020 SISTEMAS: ISSQN, NOTA  FISCAL  ELETRONICA  E TRIBUTACAO CONF CONTRATO No 111/2018 E TERMO DE APOSTILAMENTO 001/2019. PROCESSO 107/18 EDITAL 54/18 PREGAO 47/18 VALOR MENSAL = R$ 2.311,26 IRRF 1,5% NA LIQUIDACAO                                                                                                                                    PRP01XX000000000000000000
030104131000100002012339040060000000000100000202000000078020120200000000447348+0000000167                                                                                                                                                                     00006N                    000000000000000000472018LOCACAO  DE  SISTEMAS  DE INFORMATICA PARA O ANO DE 2020 SISTEMAS: POTAL DA TRANSPARENCIA  CONF CONTRATO No 111/2018 E TERMO DE APOSTILAMENTO 001/2019.  PROCESSO 107/18 EDITAL 54/18 PREGAO 47/18 VALOR MENSAL = R$ 372,79 IRRF 1,5% NA LIQUIDACAO                                                                                                                                                             PRP01XX000000000000000000
080110301000600002059339040060000000004000000202000000079020120200000000110771+0000000167                                                                                                                                                                     00006N                    000000000000000000472018LOCACAO  DE  SISTEMAS DE INFORMATICA PARA O ANO DE 2020 SISTEMAS: SAUDE PEC E  SAUDE  ATENDIMENTOS  CONF  CONTRATO No 111/2018 E TERMO DE APOSTILAMENTO 001/2019. PROCESSO 107/18 EDITAL 54/18 PREGAO 47/18 VALOR MENSAL = R$ 1.107,71 IRRF 1,5% NA LIQUIDACAO                                                                                                                                                  PRP01XX000000000000000000
080110122000500002049339040060000000004000000202000000080020120200000000047930+0000000167                                                                                                                                                                     00006N                    000000000000000000472018LOCACAO  DE  SISTEMAS  DE  INFORMATICA  PARA  O ANO DE 2020 SISTEMAS: SAUDE FARMACIA  CONF  CONTRATO  No  111/2018 E TERMO DE APOSTILAMENTO 001/2019. PROCESSO 107/18 EDITAL 54/18 PREGAO 47/18 VALOR MENSAL = R$ 479,30 IRRF 1,5% NA LIQUIDACAO                                                                                                                                                                PRP01XX000000000000000000
030104131000100002012339040130000000000100000202000000081020120200000000308000+0000007177                                                                                                                                                                     00006N                    000000000000000000222019LOCACAO  DE  INFRAESTRUTURA  DE  COMUNICACAO  PARA  INTERLIGACAO E ACESSO A INTERNET  DAS    UNIDADES ADMINISTRATIVAS E PALACIO MUNICIPAL CONF CONTRATO No 038/2019. PROCESSO No 47/19 EDITAL No 24/19 PREGAO No 22/19 VIG. 25.04.2020                                                                                                                                                                          PRP01XX000000000000000000
090208244001100002081339032990100000000100000202000000082030120200000000120000+0000006442                                                                                                                                                                     00000N                    000000000000000000000000ALUGUEL  SOCIAL  DE  UM IMOVEL RESIDENCIAL PARA UMA FAMILIA CARENTE CONF RD 03 EM ANEXO. VALOR MENSAL R$ 600,00                                                                                                                                                                                                                                                                                                 DPV01XX000000000000000000
080110302000800002064339093080000000004000000202000000083030120200000000018000+0000005925                                                                                                                                                                     00000N                    000000000000000000000000RESSARCIMENTO  DE  CONSULTA/EXAME  MEDICO  CONF LEI 2613/15 DE ACORDO COM O DECRETO 104/15 CONF RD 16 EM ANEXO.                                                                                                                                                                                                                                                                                                 NSA06XX000000000000000000
080110302000800002064339093080000000004000000202000000084030120200000000018000+0000004616                                                                                                                                                                     00000N                    000000000000000000000000RESSARCIMENTO  DE  CONSULTA/EXAME  MEDICO  CONF LEI 2613/15 DE ACORDO COM O DECRETO 104/15 CONF RD 15 EM ANEXO.                                                                                                                                                                                                                                                                                                 NSA01XX000000000000000000
080110785000800002074339033010000000004000000202000000085030120200000001989180+0000000077                                                                                                                                                                     00000N                    000000000000000000000000PASSAGENS  (VALE  SAUDE) PARA DESLOCAMENTO DE PACIENTES A PORTO ALEGRE PARA TRATAMENTO    DE  SAUDE  DE  ALTA  COMPLEXIDADE  CONF  RD  12  EM  ANEXO. 172 UN. X R$ 115,65                                                                                                                                                                                                                                       DPV01XX000000000000000000
110104122000000000003339039990200000000100000202000000086030120200000001806720+0000003954                                                                                                                                                                     00000N                    000000000000000000000000CONTRIBUICAO  DO  MUNICIPIO  REF.  AO  RATEIO PARA MANUTENCAO DO CISMISSOES CONF. LEI M. 2728/17 E RD 13 EM ANEXO. VALOR MENSAL = R$ 1.505,60                                                                                                                                                                                                                                                                   DPV01XX000000000000000000
040104129000100002118339030010000000000100000202000000087030120200000000042200+0000007086                                                                                                                                                                     00006S                    000000000000000001032018COMBUSTIVEL  PARA  ABASTECIMENTO  DA VIATURA DA SECR. DA FAZENDA - SETOR DE FISCALIZACAO CONF RD 001 EM ANEXO. PROCESSO  No  226/18  EDITAL  No  117/18  PREGAO  No  103/18 SRP No 24/18 100 LTS GASOLINA COMUM X R$ 4,22                                                                                                                                                                                       PRP01XX000000000000000000
040104129000100002118339039190000000000100000202000000088030120200000000010920+0000007085                                                                                                                                                                     00006S                    000000000000000000032019LAVAGEM  DE  VEICULO DA VIATURA DA SECR. DA FAZENDA - SETOR DE FISCALIZACAO CONF RD 002 EM ANEXO. PROCESSO  No  003/19  EDITAL  No  003/19  PREGAO  No 003/19 SRP No 002/19                                                                                                                                                                                                                                     PRP01XX000000000000000000
040104129000100002118339039190000000000100000202000000088180320200000000008190-0000007085                                                                                                                                                                     00006S                    000000000000000000032019estornado por solicitaacao da sec obras cfe anexo a ne 374                                                                                                                                                                                                                                                                                                                                                      PRP01XX000000000000000000
080110302000800002065339039160000000004000000202000000089060120200000000109000+0000005498                                                                                                                                                                     00000N                    000000000000000000000000MAO  DE OBRA PARA INSTALACAO DE CONDICIONADOR DE AR SPLIT E SUBSTITUICAO DE LAMPADAS    DO   PRONTO  ATENDIMENTO  (PADU)  CONF  RD  19/2020  EM  ANEXO.                                                                                                                                                                                                                                                         DPV01XX000000000000000000
080110303000800002066339039509900000004000000202000000090060120200000001453116+0000006366                                                                                                                                                                     00002N                    000000000000000000092017ACOLHIMENTO  DE  PACIENTES  PARA  TRATAMENTO  PSIQUIATRICO CONF CONTRATO No 89/17 E TERMO ADITIVO 001/18. PROCESSO 127/17 INEXIGIBILIDADE 09/17 VIGENCIA 30.12.2020                                                                                                                                                                                                                                             PRI01XN000000000000000000
080110303000800002066339039509900000004000000202000000091060120200000000715500+0000006366                                                                                                                                                                     00000N                    000000000000000000000000ACOLHIMENTO  DE  PACIENTE PARA TRATAMENTO PSIQUIATRICO CONF OFICIO JUDICIAL 1022/18 E RD 18 EM ANEXO. VALOR MENSAL R$ 1.192,50                                                                                                                                                                                                                                                                                  DPV01XX000000000000000000
080110303000800002068339039500100000004000000202000000092070120200000000507500+0000000236                                                                                                                                                                     00000N                    000000000000000000000000SESSOES  DE  BOTA  DE  UNA A PACIENTES EM TRATAMENTO PELO SISTEMA BASICO DE SAUDE CONF RD 27 EM ANEXO. 145 X R$ 35,00                                                                                                                                                                                                                                                                                           DPV01XX000000000000000000
080110303000800002068339039500100000004000000202000000093070120200000002810000+0000000047                                                                                                                                                                     00000N                    000000000000000000012018CONULTAS  ELETIVAS,  CIRURGIAS  GERIAS  DE  VARIZES,  HERNIA  E  VESICULA A PACIENTES  ENCAMINHADOS  PELO  SISTEMA BASICO DE SAUDE DO MUNICIPIO CONF RD 26 EM ANEXO. PROCESSO  001/18  EDITAL  001/18  TERM. DE CRED. 001/18 CONTRATO No 02/2018                                                                                                                                                                DPV01XX000000000000000000
080110303000800002069339039500100000004000000202000000094070120200000000092496+0000004806                                                                                                                                                                     00000N                    000000000000000000012018EXAMES  ESPECIALIZADOS  E CONSULTAS PARA ATENDER AOS PACIENTES ENCAMINHADOS PELO SISTEMA DE SAUDE DO MUNICIPIO CONF RD 25 EM ANEXO. CREDENCIAMENTO 004/18                                                                                                                                                                                                                                                       DPV01XX000000000000000000
080110303000800002068339039500100000004000000202000000095070120200000000800000+0000004252                                                                                                                                                                     00000N                    000000000000000000012018COMPLEMENTACAO  CIRURGICA  A  PACIENTES ENCAMINHADOS PELO SISTEMA BASICO DE SAUDE DO MUNICIPIO CONF RD 24 EM ANEXO. PROCESSO 001/18 EDITAL 001/18 TERM. DE CRED. 003/18                                                                                                                                                                                                                                         DPV01XX000000000000000000
080110302000800002064339036309900000004000000202000000096070120200000000175000+0000005121                                                                                                                                                                     00000N                    000000000000000000012018CONSULTAS  COM REUMATOLOGISTA A PACIENTES EM TRATAMENTO PELA REDE BASICA DE SAUDE CONF RD 23 EM ANEXO. TERMO DE CREDENCIAMENTO 001/2018 CONTRATO No 06/2018                                                                                                                                                                                                                                                     DPV01XX000000000000000000
080110302000800002064339039509900000004000000202000000097070120200000000308000+0000006671                                                                                                                                                                     00000N                    000000000000000000012018CONSULTA  PSIQUIATRA  A PACIENTES ENCAMINHADOS PELO SISTEMA BASICO DE SAUDE DO MUNICIPIO CONF RD 22 EM ANEXO. PROCESSO 001/18 EDITAL 001/18 TERM. DE CRED. 001/18                                                                                                                                                                                                                                               DPV01XX000000000000000000
080110301000600002115339039509900000004000000202000000098070120200000000508753+0000006822                                                                                                                                                                     00000N                    000000000000000000022018CONSULTA  E  PROCEDIMENTOS  DE  FISIOTERAPIA  PARA  TRATAMENTO  DE SAUDE DE PACIENTES ATENDIDOS NA REDE BASICA CONF RD 28 EM ANEXO. CREDENCIAMENTO 007/18                                                                                                                                                                                                                                                       DPV01XX000000000000000000
080110301000600002115339039509900000004000000202000000099070120200000000684647+0000006822                                                                                                                                                                     00000N                    000000000000000000022018CONSULTA  E  PROCEDIMENTOS  DE  FISIOTERAPIA  PARA  TRATAMENTO  DE SAUDE DE PACIENTES   ATENDIDOS  NA  REDE  BASICA  CONF  RD  28  EM  ANEXO  NE  98. CREDENCIAMENTO 007/18                                                                                                                                                                                                                                     DPV01XX000000000000000000
080110301000600002059339030390000000004000000202000000100070120200000000079000+0000004816                                                                                                                                                                     00000N                    000000000000000000000000MATERIAL  PARA  REVISAO  DOS  110.000 KM RODADOS DO VEICULO VOYAGE IXW 9032 CONF RD 22 EM ANEXO. NE 0100 = R$ 790,00 NE 0101 = R$ 320,00                                                                                                                                                                                                                                                                        DPV01XX000000000000000000
080110301000600002059339039190000000004000000202000000101070120200000000032000+0000004816                                                                                                                                                                     00000N                    000000000000000000000000SERVICOS  MECANICOS  PARA  REVISAO DOS 110.000 KM RODADOS DO VEICULO VOYAGE IXW 9032 CONF RD 22 EM ANEXO NE 0100.                                                                                                                                                                                                                                                                                               DPV01XX000000000000000000
050212782000200002031339030390000000002000000202000000102070120200000000235800+0000007094                                                                                                                                                                     00006S                    000000000000000000042019BATERIAS  PARA  SUBSTITUICAO  NOS  VEICULOS  DA FROTA DO TRANSPORTE ESCOLAR CONF RD 22 EM ANEXO. PROCESSO  No 06/19 EDITA L No 04/19 PREGAO PRESENCIAL No 04/19 SRP No 03/19                                                                                                                                                                                                                                    PRP01XX000000000000000000
050212782000200002031339039190000000002000000202000000103070120200000000406910+0000005651                                                                                                                                                                     00006S                    000000000000000000232019CHAPEAMENTO,  PINTURA,  VEDACAO  E  SERVICOS  MECANICOS  PARA MANUTENCAO DA FROTA DO TRANSPORTE ESCOLAR CONF RD 20 EM ANEXO. PROCESSO No 049/19 EDITAL 25/19 PREGAO 23/19 SRP 14/19                                                                                                                                                                                                                             PRP01XX000000000000000000
050212782000200002031339039190000000002000000202000000104070120200000000542500+0000005258                                                                                                                                                                     00006S                    000000000000000000312019SERVICOS  MECANICOS  PARA MANUTENCAO DA FROTA DO TRANSPORTE ESCOLAR CONF RD 21 EM ANEXO. PROCESSO No 062/19 EDITAL 33/19 PREGAO 31/19 SRP 21/19                                                                                                                                                                                                                                                                 PRP01XX000000000000000000
080110302000800002065339030210000000004000000202000000105070120200000000030500+0000006279                                                                                                                                                                     00006S                    000000000000000000462019MATERIAIS  DE  COPA  E COZINHA PARA MANUTENCAO DO PRONTO ATENDIMENTO - PADU CONF RD 19 EM ANEXO. PROCESSO No 86/19 EDITAL No 49/19 PREGAO 46/19 SRP 28/19                                                                                                                                                                                                                                                       PRP01XX000000000000000000
080110301000600002059339030160000000004000000202000000106070120200000000017000+0000005325                                                                                                                                                                     00006S                    000000000000000000292019MATERIAL  DE  EXPEDIENTE  PARA  MANUTENCAO DAS ROTINAS DE TRABALHO DOS ESFS CONF RD 18 EM ANEXO. PROCESSO    No  59/19  EDITAL  No  31/19  PREGAO  No  29/19  SRP  No  19/19                                                                                                                                                                                                                                    PRP01XX000000000000000000
080110122000500002049339030160000000004000000202000000107070120200000000003400+0000005325                                                                                                                                                                     00006S                    000000000000000000292019MATERIAL   DE  EXPEDIENTE  PARA  MANUTENCAO  DAS  ROTINAS  DE  TRABALHO  DA SECRETARIA DE SAUDE CONF RD 17 EM ANEXO. PROCESSO    No  59/19  EDITAL  No  31/19  PREGAO  No  29/19  SRP  No  19/19                                                                                                                                                                                                                PRP01XX000000000000000000
070215451001700002040339030540000000000100000202000000108070120200000000578500+0000004271                                                                                                                                                                     00006S                    000000000000000000692019CONCRETO  BETUMINOSO A QUENTE CBUQ PARA MANUTENCAO DAS VIAS URBANAS CONF RD 12 EM ANEXO. PROCESSO 141/19 EDITAL 77/19 PREGAO 69/19 SRP 36/19                                                                                                                                                                                                                                                                    PRP01XX000000000000000000
070215451001700002040339030540000000000100000202000000109070120200000000147000+0000007343                                                                                                                                                                     00006S                    000000000000000000692019EMULSAO  ASFALTICA  PARA MANUTENCAO DAS VIAS URBANAS CONF RD 13 EM ANEXO. PROCESSO 141/19 EDITAL 77/19 PREGAO 69/19 SRP 36/19                                                                                                                                                                                                                                                                                   PRP01XX000000000000000000
070215452001700002045339039990500000000100000202000000110070120200000002430000+0000006346                                                                                                                                                                     00006S                    000000000000000000742019SERVICOS  TECNICOS  PARA  MANUTENCAO  DA  ILUMINACAO  PUBLICA CONF RD 11 EM ANEXO. PROCESSO  No 163/19 PREGAO PRESENCIAL No 74/19 SRP No 39/19 EDITAL No 84/19                                                                                                                                                                                                                                                  PRP01XX000000000000000000
020104122000100002004339039190000000000100000202000000111070120200000000016380+0000007085                                                                                                                                                                     00006S                    000000000000000000032019LAVAGEM    DO    VEICULO  OFICIAL  DO  GABINETE  CONF  RD  09  EM  ANEXO. PROCESSO 03/19 EDITAL 03/19 PREGAO 03/19 SRP 02/19                                                                                                                                                                                                                                                                                    PRP01XX000000000000000000
020104122000100002004339039190000000000100000202000000111160320200000000016380-0000007085                                                                                                                                                                     00006S                    000000000000000000032019estornado conforme solicitacao em anexo                                                                                                                                                                                                                                                                                                                                                                         PRP01XX000000000000000000
020408243001100002009339039190000000000100000202000000112070120200000000016380+0000007085                                                                                                                                                                     00006S                    000000000000000000032019LAVAGEM    DO    VEICULO  DO  CONSELHO  TUTELAR  CONF  RD  10  EM  ANEXO. PROCESSO 03/19 EDITAL 03/19 PREGAO 03/19 SRP 02/19                                                                                                                                                                                                                                                                                    PRP01XX000000000000000000
020408243001100002009339039190000000000100000202000000112160320200000000013650-0000007085                                                                                                                                                                     00006S                    000000000000000000032019estornado conforme solicitacao em anexo a ne 111/2020                                                                                                                                                                                                                                                                                                                                                           PRP01XX000000000000000000
050212782000200002031339039190000000002000000202000000113070120200000000436820+0000007085                                                                                                                                                                     00006S                    000000000000000000032019LAVAGEM  DOS VEICULOS DA FROTA DO TRANSPORTE ESCOLAR CONF RD 08 EM ANEXO. PROCESSO 03/19 EDITAL 03/19 PREGAO 03/19 SRP 02/19                                                                                                                                                                                                                                                                                    PRP01XX000000000000000000
100220608000400002094339030010000000000100000202000000114070120200000000520500+0000007086                                                                                                                                                                     00006S                    000000000000000001032018COMBUSTIVEL  PARA  ABASTECIMENTO  DAS  VIATURAS DA INFRAESTRUTURA BASICA DE CAMPO CONF RD 006 EM ANEXO. PROCESSO  No  226/18  EDITAL  No  117/18 PREGAO PRESENCIAL No 103/18 SRP No 24/18 1.500 LTS OLEO DIESEL S10 X R$ 3,47                                                                                                                                                                                   PRP01XX000000000000000000
100220608000400002094339030010000000000100000202000000114040220200000000520500-0000007086                                                                                                                                                                     00006S                    000000000000000001032018por nao ter necessidade e utilizacao ate o presente                                                                                                                                                                                                                                                                                                                                                             PRP01XX000000000000000000
100220608000400002094339030010000000000100000202000000115070120200000000820000+0000007086                                                                                                                                                                     00006S                    000000000000000000052019COMBUSTIVEL  PARA  ABASTECIMENTO  DAS  VIATURAS DA INFRAESTRUTURA BASICA DE CAMPO CONF RD 007 EM ANEXO. PROCESSO    No    07/19  EDITAL  No  05/19  PREGAO  No  05/19  SRP  04/19 2.500 LTS OLEO DIESEL COMUM X R$ 3,28                                                                                                                                                                                         PRP01XX000000000000000000
100220608000400002094339030010000000000100000202000000115120220200000000146616-0000007086                                                                                                                                                                     00006S                    000000000000000000052019por nao ter mais necessidade no presente                                                                                                                                                                                                                                                                                                                                                                        PRP01XX000000000000000000
080110785000800002074339030010000000004000000202000000116070120200000001266000+0000007086                                                                                                                                                                     00006S                    000000000000000001032018COMBUSTIVEL  PARA  ABASTECIMENTO  DAS  VIATURAS  DO TRANSPORTE DE PACIENTES CONF RD 005 EM ANEXO. PROCESSO  No  226/18  EDITAL  No  117/18 PREGAO PRESENCIAL No 103/18 SRP No 24/18 3.000 LTS GASOLINA COMUM X R$ 4,22                                                                                                                                                                                          PRP01XX000000000000000000
080110785000800002074339030010000000004000000202000000116040220200000000676044-0000007086                                                                                                                                                                     00006S                    000000000000000001032018por nao ter sido utilizado ate o presente                                                                                                                                                                                                                                                                                                                                                                       PRP01XX000000000000000000
080110785000800002074339030010000000004000000202000000117070120200000000694000+0000007086                                                                                                                                                                     00006S                    000000000000000001032018COMBUSTIVEL  PARA  ABASTECIMENTO  DAS  VIATURAS  DO TRANSPORTE DE PACIENTES CONF RD 005 EM ANEXO NE 116 PROCESSO  No  226/18  EDITAL  No  117/18 PREGAO PRESENCIAL No 103/18 SRP No 24/18 2.000 LTS OLEO DIESEL S10 X R$ 3,47                                                                                                                                                                                   PRP01XX000000000000000000
080110785000800002074339030010000000004000000202000000117040220200000000546178-0000007086                                                                                                                                                                     00006S                    000000000000000001032018por nao ter sido utilizado ate o presente                                                                                                                                                                                                                                                                                                                                                                       PRP01XX000000000000000000
090208244001100002085339030010000000106700000202000000118070120200000000063300+0000007086                                                                                                                                                                     00006S                    000000000000000001032018COMBUSTIVEL PARA ABASTECIMENTO DAS VIATURAS DO CRAS CONF RD 004 EM ANEXO. PROCESSO  No  226/18  EDITAL  No  117/18 PREGAO PRESENCIAL No 103/18 SRP No 24/18 150 LTS GASOLINA COMUM X R$ 4.22                                                                                                                                                                                                                    PRP01XX000000000000000000
090208244001100002085339030010000000106700000202000000118040220200000000024054-0000007086                                                                                                                                                                     00006S                    000000000000000001032018estornado por nao ter sido utilizado ate a presente data                                                                                                                                                                                                                                                                                                                                                        PRP01XX000000000000000000
080110785000800002074339030040000000004000000202000000119070120200000000033500+0000006084                                                                                                                                                                     00006S                    000000000000000000122019OXIGENIO  MEDICINAL  A PACIENTES EM TRATAMENTO PELO SISTEMA BASICO DE SAuDE DO MUNICIPIO CONF RD 14 EM ANEXO. PROCESSO 21/19 PREGAO 12/19 SRP 07/19 EDITAL 12/19                                                                                                                                                                                                                                                PRP01XX000000000000000000
080110303000900002071339032990300000004000000202000000120070120200000000595000+0000006084                                                                                                                                                                     00006S                    000000000000000000122019OXIGENIO  MEDICINAL  A PACIENTES EM TRATAMENTO PELO SISTEMA BASICO DE SAuDE DO MUNICIPIO CONF RD 15 EM ANEXO. PROCESSO 21/19 PREGAO 12/19 SRP 07/19 EDITAL 12/19                                                                                                                                                                                                                                                PRP01XX000000000000000000
080110301000600002059339030040000000401100000202000000121070120200000000525000+0000006084                                                                                                                                                                     00006S                    000000000000000000122019OXIGENIO  MEDICINAL  A PACIENTES EM TRATAMENTO PELO SISTEMA BASICO DE SAuDE DO MUNICIPIO CONF RD 16 EM ANEXO. PROCESSO 21/19 PREGAO 12/19 SRP 07/19 EDITAL 12/19                                                                                                                                                                                                                                                PRP01XX000000000000000000
090108122001100002075339030440000000000100000202000000122070120200000000020000+0000004352                                                                                                                                                                     00000N                    000000000000000000000000JOGO  DE PLACAS PARA COLOCACAO NO VEICULO GRAND SIENA DA ASSISTENCIA SOCIAL CONF RD 04 EM ANEXO.                                                                                                                                                                                                                                                                                                                DPV01XX000000000000000000
090108122001100002075339036990100000000100000202000000123070120200000000001440+0000005257                                                                                                                                                                     00000N                    000000000000000000000000DIGITALIZACAO  E COPIA DE DOCUMENTO PARA A SECR. DE ASSISTENCIA SOCIAL CONF RD 03 EM ANEXO.                                                                                                                                                                                                                                                                                                                     DPV01XX000000000000000000
050212361000200002019339339000000000002000000202000000124070120200000002288000+0000000912                                                                                                                                                                     00000N                    000000000000000000000000ATENDIMENTO  PSICOLOGICO AOS ALUNOS DA REDE BASICA DE EDUCACAO NO EXERCICIO 2020 CONF RD 010 EM ANEXO.                                                                                                                                                                                                                                                                                                          DPV01XX000000000000000000
110128843000000000005469171990100000100800000202000000125080120200000014097372+0000003960                                                                                                                                                                     00000N                    000000000000000000000000PARCELA  179/360  A  190/360  DO  PARCELAMENTO DA DIVIDA COM O FAPS CFE LEI 1623/2005,  CORRIGIDA  PELA LEI 2921/2019. PERIODO DE JANEIRO A DEZEMBRO DE 2020. PISO SALARIAL R$ 468,60 x 25,07 = R$ 11747,81. MES: JA A DEZ/2020 PARCELA:179 A 190/360                                                                                                                                                           NSA06XX000000000000000000
050212782000200002031339030390000000002000000202000000126080120200000001650000+0000004959                                                                                                                                                                     00006S                    000000000000000000042019MATERIAL  PARA  MANUTENCAO  DA  PARTE  ELETRICA  DOS  VEICULOS  DA FROTA DO TRANSPORTE ESCOLAR CONF RD 23 EM ANEXO. PROCESSO    No  06/19  EDITAL  No  04/19  PREGAO  No  04/19  SRP  No  03/19                                                                                                                                                                                                                 PRP01XX000000000000000000
050212782000200002031339039190000000002000000202000000127080120200000000417200+0000004959                                                                                                                                                                     00006S                    000000000000000000042019MAO  DE  OBRA  PARA  MANUTENCAO  DA PARTE ELETRICA DOS VEICULOS DA FROTA DO TRANSPORTE ESCOLAR CONF RD 24 EM ANEXO. PROCESSO    No  06/19  EDITAL  No  04/19  PREGAO  No  04/19  SRP  No  03/19                                                                                                                                                                                                                 PRP01XX000000000000000000
080110301000600002059339039500300000450000000202000000128080120200000004965000+0000007320                                                                                                                                                                     00006S                    000000000000000000612019SERVICOS  MEDICOS  PARA  MANUTENCAO  DOS  ATENDIMENTOS  A POPULACAO JUNTO A UNIDADE BASICA DE SAUDE ESF 1 CONF RD 26 EM ANEXO. PROCESSO 122/19 EDITAL 67/19 PREGAO 061/19 SRP 34/19                                                                                                                                                                                                                             PRP01XX000000000000000000
080110301000600002059339039500300000004000000202000000129080120200000001176000+0000007318                                                                                                                                                                     00006S                    000000000000000000612019SERVICOS  MEDICOS  PARA  MANUTENCAO  DOS  ATENDIMENTOS  A POPULACAO JUNTO A UNIDADE BASICA DE SAUDE ESF 2 CONF RD 28 EM ANEXO. PROCESSO 122/19 EDITAL 67/19 PREGAO 061/19 SRP 34/19                                                                                                                                                                                                                             PRP01XX000000000000000000
