87612826000190010120203004202008052020PREFEITURA MUNICIPAL INDEPENDENCIA                                              
020200000212500000000000000002650170420200000000065000+                                                                                                                                                                     000000000000000000000000000000PECAS PARA CONSERTO DA AMBULANCIA RENAULT MASTER. CONF RD 202 EM ANEXO.  NE 2124 R$ 300,00  NE 2125 R$ 650,00                                                                                                                                                                                                                                                                                                   N00000000000000000000                    0000S0000002641  X
020200000207500000000000000002651170420200000000021238+                                                                                                                                                                     000000000000000000000000000000MEDICAMENTOS PARA MANUTENCAO DO ATENDIMENTO FARMACOLOGICO JUNTO A FARMACIA BASICA DO MUNICIPIO CONF RD 186 EM ANEXO.                                                                                                                                                                                                                                                                                            N00000000000000000000                    0000S0000118341  X
020200000009200000000000000002652170420200000000007000+                                                                                                                                                                     000000000000000000000000000000SESSOES DE BOTA DE UNA A PACIENTES EM TRATAMENTO PELO SISTEMA BASICO DE SAUDE CONF RD 27 EM ANEXO.  145 X R$ 35,00                                                                                                                                                                                                                                                                                              N00000000000000000000                    0000S0000699660  X
020200000013800000000000000002653170420200000000006480+                                                                                                                                                                     000000000000000000000000000000SERVICOS NOTARIAIS E REGISTRAIS PARA O EXERCICIO 2020 CONF RD 06 EM ANEXO.                                                                                                                                                                                                                                                                                                                                      N00000000000000000000                    0000S0000601280  X
020200000069700000000000000002654170420200000000029280+                                                                                                                                                                     000000000000000000000000000000COMBUSTIVEL PARA ABASTECIMENTO DO GERADOR DE ENERGIA DO PRONTO ATENDIMENTO CONF RD 141 EM ANEXO.  PROCESSO No 02/2020 EDITAL No 02/2020 PREGAO No 02/2020 SRP No  01/2020  500 LTS. DIESEL S10 X R$ 3,86                                                                                                                                                                                                        N00000000000000000000                    0000S0000001631  X
020200000216000000000000000002655170420200000000020734+                                                                                                                                                                     000000000000000000000000000000AFERICAO DE TACOGRAFO DOS VEICULOS DA FROTA DO TRANSPORTE ESCOLAR CONF RD 112 EM ANEXO.                                                                                                                                                                                                                                                                                                                         N00000000000000000000                    0000N000000000   X
020200000216000000000000000002656170420200000000020734+                                                                                                                                                                     000000000000000000000000000000AFERICAO DE TACOGRAFO DOS VEICULOS DA FROTA DO TRANSPORTE ESCOLAR CONF RD 112 EM ANEXO.                                                                                                                                                                                                                                                                                                                         N00000000000000000000                    0000N000000000   X
020200000216000000000000000002657170420200000000020734+                                                                                                                                                                     000000000000000000000000000000AFERICAO DE TACOGRAFO DOS VEICULOS DA FROTA DO TRANSPORTE ESCOLAR CONF RD 112 EM ANEXO.                                                                                                                                                                                                                                                                                                                         N00000000000000000000                    0000N000000000   X
020200000216000000000000000002658170420200000000020734+                                                                                                                                                                     000000000000000000000000000000AFERICAO DE TACOGRAFO DOS VEICULOS DA FROTA DO TRANSPORTE ESCOLAR CONF RD 112 EM ANEXO.                                                                                                                                                                                                                                                                                                                         N00000000000000000000                    0000N000000000   X
020200000216000000000000000002659170420200000000020734+                                                                                                                                                                     000000000000000000000000000000AFERICAO DE TACOGRAFO DOS VEICULOS DA FROTA DO TRANSPORTE ESCOLAR CONF RD 112 EM ANEXO.                                                                                                                                                                                                                                                                                                                         N00000000000000000000                    0000N000000000   X
020200000173500000000000000002660170420200000000125600+                                                                                                                                                                     000000000000000000000000000000PNEU 205/60 R16 PARA SUBSTITUICAO NO VEICULO SPN IZK 7E95 CONF RD 172 EM ANEXO.                                                                                                                                                                                                                                                                                                                                 N00000000000000000000                    0000S028899821890X
020200000004200000000000000002661170420200000000004182+                                                                                                                                                                     000000000000000000000000000000DIARIAS PARA VIAGENS REALIZADAS PARA TRANSPORTE DE PACIENTES ENCAMINHADOS PELA SECR. DE SAUDE PARA CONSULTAS E EXAMES EM DIVERSAS ESPECIALIDADES NOS MUNICIPIOS DA REGIAO E CAPITAL E FORA DO ESTADO NO EXERCICIO 2020 CONF RD 10 EM ANEXO NE 40.                                                                                                                                                               X00000000000000000000                    0000X000000000   X
020200000004000000000000000002662170420200000000004182+                                                                                                                                                                     000000000000000000000000000000DIARIAS PARA VIAGENS REALIZADAS PARA TRANSPORTE DE PACIENTES ENCAMINHADOS PELA SECR. DE SAUDE PARA CONSULTAS E EXAMES EM DIVERSAS ESPECIALIDADES NOS MUNICIPIOS DA REGIAO E CAPITAL E FORA DO ESTADO NO EXERCICIO 2020 CONF RD 10 EM ANEXO.                                                                                                                                                                     X00000000000000000000                    0000X000000000   X
020200000133900000000000000002663200420200000000008004+                                                                                                                                                                     000000000000000000000000000000LOCACAO DE IMPRESSORA COM SISTEMA DE IMPRESSAO DIGITAL PARA MANUTENCAO DAS ROTINAS DE TRABALHO DAS ESCOLAS DE EDUCACAO INFANTIL CONF CONTRATO No 088/2019 E RD 177 EM ANEXO.  PROCESSO 137/19 EDITAL 73/19 PREGAO 67/19                                                                                                                                                                                         S0000000000000000008895                  2019S0000055890  C
020200000169900000000000000002664200420200000000006048+                                                                                                                                                                     000000000000000000000000000000LOCACAO DE IMPRESSORA COM SISTEMA DE IMPRESSAO DIGITAL PARA MANUTENCAO DAS ROTINAS DE TRABALHO DA SECRETARIA DA FAZENDA E SETORES CONF CONTRATO No 088/19.  PROCESSO 137/19 EDITAL 73/19 PREGAO 67/19                                                                                                                                                                                                           S0000000000000000008895                  2019S0000055890  C
020200000133800000000000000002665200420200000000005022+                                                                                                                                                                     000000000000000000000000000000LOCACAO DE IMPRESSORA COM SISTEMA DE IMPRESSAO DIGITAL PARA MANUTENCAO DAS ROTINAS DE TRABALHO DA SECRETARIA DE SERV. URBANOS E SETORES CONF CONTRATO No 088/2019 E RD 178 EM ANEXO.  PROCESSO 137/19 EDITAL 73/19 PREGAO 67/19                                                                                                                                                                                 S0000000000000000008895                  2019S0000055890  C
020200000133700000000000000002666200420200000000017418+                                                                                                                                                                     000000000000000000000000000000LOCACAO DE IMPRESSORA COM SISTEMA DE IMPRESSAO DIGITAL PARA MANUTENCAO DAS ROTINAS DE TRABALHO DA SECRETARIA DE ADMINISTRACAO E SETORES CONF CONTRATO No 088/2019 E RD 181 EM ANEXO.  PROCESSO 137/19 EDITAL 73/19 PREGAO 67/19                                                                                                                                                                                 S0000000000000000008895                  2019S0000055890  C
020200000133600000000000000002667200420200000000012564+                                                                                                                                                                     000000000000000000000000000000LOCACAO DE IMPRESSORA COM SISTEMA DE IMPRESSAO DIGITAL PARA MANUTENCAO DAS ROTINAS DE TRABALHO DA SECRETARIA DA EDUCACAO E SETORES CONF CONTRATO No 088/2019 E RD 183 EM ANEXO.  PROCESSO 137/19 EDITAL 73/19 PREGAO 67/19                                                                                                                                                                                      S0000000000000000008895                  2019S0000055890  C
020200000169800000000000000002668200420200000000009456+                                                                                                                                                                     000000000000000000000000000000LOCACAO DE IMPRESSORA COM SISTEMA DE IMPRESSAO DIGITAL PARA MANUTENCAO DAS ROTINAS DE TRABALHO DA SECRETARIA DE SAUDE E SETORES CONF CONTRATO No 088/19.  PROCESSO 137/19 EDITAL 73/19 PREGAO 67/19                                                                                                                                                                                                             S0000000000000000008895                  2019S0000055890  C
020200000166400000000000000002669200420200000000017618+                                                                                                                                                                     000000000000000000000000000000LOCACAO DE IMPRESSORA COM SISTEMA DE IMPRESSAO DIGITAL PARA MANUTENCAO DAS ROTINAS DE TRABALHO DA SECRETARIA DE ADMINISTRACAO E SETORES CONF CONTRATO No 003/2018.  PROCESSO 137/19 EDITAL 73/19 PREGAO 67/19                                                                                                                                                                                                   S0000000000000000000310                  2018S0000055900  C
020200000133500000000000000002670200420200000000036814+                                                                                                                                                                     000000000000000000000000000000LOCACAO DE IMPRESSORA COM SISTEMA DE IMPRESSAO DIGITAL PARA MANUTENCAO DAS ROTINAS DE TRABALHO DA SECRETARIA DA FAZENDA E SETORES CONF CONTRATO No 003/2018, ADITIVO 001/2019 E RD 180 EM ANEXO.  PROCESSO 315/17 EDITAL 138/17 PROCESSO 315/17 PREGAO 125/17                                                                                                                                                   S0000000000000000000310                  2018S0000055900  C
020200000133400000000000000002671200420200000000005232+                                                                                                                                                                     000000000000000000000000000000LOCACAO DE IMPRESSORA COM SISTEMA DE IMPRESSAO DIGITAL PARA MANUTENCAO DAS ROTINAS DE TRABALHO DA SECRETARIA DE SAUDE E SETORES CONF CONTRATO No 003/2018, ADITIVO 001/2019 E RD 179 EM ANEXO.  PROCESSO 315/17 EDITAL 138/17 PROCESSO 315/17 PREGAO 125/17                                                                                                                                                     S0000000000000000000310                  2018S0000055900  C
020200000105000000000000000002672200420200000000261585+                                                                                                                                                                     000000000000000000000000000000SERVICO DE CHAPEAMENTO, PINTURAS, SERVICO DE VEDACAO, TROCA DE PECAS NOS VEICULOS DA FROTA  DO TRANSPORTE ESCOLAR. CONF OC 261 EM ANEXO.  PROCESSO 49/2019 PREGAO 23/2019 SRP 14/2019                                                                                                                                                                                                                           N00000000000000000000                    0000S0000000361  X
020200000000200000000000000002673200420200000000069588+                                                                                                                                                                     000000000000000000000000000000RETENCAO AO PASEP 1%  FPM...............R$   ITR...............R$   FEP...............R$   ICMS EXP..........R$   FEX. CEX..........R$   AFM-APOIO.........R$                                                                                                                                                                                                                                                   N00000000000000000000                    0000X000000000   X
020200000162400000000000000002674200420200000000128000+                                                                                                                                                                     000000000000000000000000000000BANDEIRAS OFICIAL DO BRASIL, DO RIO GRANDE DO SUL E DO MUNICIPIO DE INDEPENDENCIA CONF RD 09 EM ANEXO NE 1623.                                                                                                                                                                                                                                                                                                  N00000000000000000000                    0000S0000014381  X
020200000162300000000000000002675200420200000000128000+                                                                                                                                                                     000000000000000000000000000000BANDEIRAS OFICIAL DO BRASIL, DO RIO GRANDE DO SUL E DO MUNICIPIO DE INDEPENDENCIA CONF RD 09 EM ANEXO.  NE 1623 = R$ 1.280,00  NE 1624 = R$ 1.280,00                                                                                                                                                                                                                                                            N00000000000000000000                    0000S0000014391  X
020200000208100000000000000002676200420200000000012250+                                                                                                                                                                     000000000000000000000000000000ENCADERNACAO DE DOCUMENTOS DAS ESCOLAS MUNICIPAIS PARA ARQUIVO JUNTO A SECRETARIA DE EDUCACAO. CONF RD 106 EM ANEXO.                                                                                                                                                                                                                                                                                            N00000000000000000000                    0000S0000055140  X
020200000013900000000000000002677200420200000000001530+                                                                                                                                                                     000000000000000000000000000000SERVICOS NOTARIAIS E REGISTRAIS PARA O EXERCICIO 2020 CONF RD 04 EM ANEXO.                                                                                                                                                                                                                                                                                                                                      N00000000000000000000                    0000S0000310360  X
020200000217100000000000000002678200420200000000028500+                                                                                                                                                                     000000000000000000000000000000PECAS PARA SUBSTITUICAO E CONSERTO DA RETRO No 80 CONF RD 25 EM ANEXO.                                                                                                                                                                                                                                                                                                                                          N00000000000000000000                    0000S0000090931  X
020200000013900000000000000002679200420200000000001530+                                                                                                                                                                     000000000000000000000000000000SERVICOS NOTARIAIS E REGISTRAIS PARA O EXERCICIO 2020 CONF RD 04 EM ANEXO.                                                                                                                                                                                                                                                                                                                                      N00000000000000000000                    0000S0000310410  X
020200000172100000000000000002680200420200000000275400+                                                                                                                                                                     000000000000000000000000000000204 UN. ALCOOL GEL 70% PARA MANUTENCAO DA HIGIENIZACAO DOS SERVIDORES DOAS ESFS E USUARIOS DO SUS CONF RD 169 EM ANEXO.                                                                                                                                                                                                                                                                                         N00000000000000000000                    0000S0000017761  X
020200000208500000000000000002681200420200000000068000+                                                                                                                                                                     000000000000000000000000000000CONFECCAO DE JALECOS MANGA LONGA - EPI'S AOS SERVIDORES QUE TRABALHAM NO COMBATE AO COVID 19 CONF RD 192 EM ANEXO.                                                                                                                                                                                                                                                                                              N00000000000000000000                    0000S0000000071  X
020200000024800000000000000002682200420200000000234500+                                                                                                                                                                     000000000000000000000000000000DISCO RIGIDO PARA SUBSTITUICAO NO SERVIDOR LENOVO CONF RD 69 EM ANEXO.  PROCESSO No 110/19 EDITAL No 59/19 PREGAO No 55/19 SRP No 32/19                                                                                                                                                                                                                                                                         N00000000000000000000                    0000S0000037151  X
020200000207800000000000000002683220420200000000038675+                                                                                                                                                                     000000000000000000000000000000COMBUSTIVEL PARA ABASTECIMENTO DOS VEICULOS DO ESF CONF OC 410 EM ANEXO.  PROCESSO No 02/2020 EDITAL No 02/2020 PREGAO No 02/2020 SRP No  01/2020  1.000 LTS. GASOLINA COMUM X R$ 4,55                                                                                                                                                                                                                          N00000000000000000000                    0000S0000001641  X
020200000069200000000000000002684220420200000000075547+                                                                                                                                                                     000000000000000000000000000000COMBUSTIVEL PARA ABASTECIMENTO DOS VEICULOS DO TRANSPORTE DA SAUDE CONF RD 137 EM ANEXO.  PROCESSO No 02/2020 EDITAL No 02/2020 PREGAO No 02/2020 SRP No  01/2020  1.500 LTS. GASOLINA COMUM X R$ 4,76                                                                                                                                                                                                          N00000000000000000000                    0000S0000001641  X
020200000171100000000000000002685220420200000000079056+                                                                                                                                                                     000000000000000000000000000000COMBUSTIVEL PARA ABASTECIMENTO DOS VEICULOS DO TRANSPORTE DA SAUDE CONF RD 386 EM ANEXO.  PROCESSO No 02/2020 EDITAL No 02/2020 PREGAO No 02/2020 SRP No  01/2020  500 LTS. DIESEL S10 X R$ 3,86                                                                                                                                                                                                                N00000000000000000000                    0000S0000001641  X
020200000207800000000000000002686220420200000000019115+                                                                                                                                                                     000000000000000000000000000000COMBUSTIVEL PARA ABASTECIMENTO DOS VEICULOS DO ESF CONF OC 410 EM ANEXO.  PROCESSO No 02/2020 EDITAL No 02/2020 PREGAO No 02/2020 SRP No  01/2020  1.000 LTS. GASOLINA COMUM X R$ 4,55                                                                                                                                                                                                                          N00000000000000000000                    0000S0000001711  X
020200000207800000000000000002687220420200000000023205+                                                                                                                                                                     000000000000000000000000000000COMBUSTIVEL PARA ABASTECIMENTO DOS VEICULOS DO ESF CONF OC 410 EM ANEXO.  PROCESSO No 02/2020 EDITAL No 02/2020 PREGAO No 02/2020 SRP No  01/2020  1.000 LTS. GASOLINA COMUM X R$ 4,55                                                                                                                                                                                                                          N00000000000000000000                    0000S0000001611  X
020200000136000000000000000002688220420200000000023800+                                                                                                                                                                     000000000000000000000000000000COMBUSTIVEL PARA ABASTECIMENTO DAS MAQUINAS E EQUIPAMENTOS DA LIMPEZA URBANA CONF RD 288 EM ANEXO.  PROCESSO No 02/2020 EDITAL No 02/2020 PREGAO No 02/2020 SRP No 01/2020  300 LTS GASOLINA COMUM X R$ 4,76                                                                                                                                                                                                    N00000000000000000000                    0000S0000001581  X
020200000165400000000000000002689220420200000000037800+                                                                                                                                                                     000000000000000000000000000000COMBUSTIVEL PARA ABASTECIMENTO DAS MAQUINAS E EQUIPAMENTOS DA LIMPEZA URBANA CONF RD 348 EM ANEXO.  PROCESSO No 02/2020 EDITAL No 02/2020 PREGAO No 02/2020 SRP No 01/2020  2.000 LTS DIESEL COMUM X R$ 3,78                                                                                                                                                                                                    N00000000000000000000                    0000S0000001581  X
020200000154200000000000000002690220420200000000018200+                                                                                                                                                                     000000000000000000000000000000COMBUSTIVEL PARA ABASTECIMENTO DO VEICULO DO CONSELHO TUTELAR CONF RD 328 EM ANEXO.  PROCESSO No 02/2020 EDITAL No 02/2020 PREGAO No 02/2020 SRP No  01/2020  150 LTS. GASOLINA COMUM X R$ 4,76                                                                                                                                                                                                                 N00000000000000000000                    0000S0000001721  X
020200000105100000000000000002691220420200000000051925+                                                                                                                                                                     000000000000000000000000000000COMBUSTIVEL PARA ABASTECIMENTO DAS MAQUINAS DA PATRULIA AGRICOLA. CONF OC 260 EM ANEXO.  PROCESSO No 02/2020 , EDITAL No 02/2020, PREGAO No 02/2020 SRP No  01/202  3.000 LT DIESEL COMUN X R$ 3,78                                                                                                                                                                                                             N00000000000000000000                    0000S0000001691  X
020200000072000000000000000002692220420200000000032983+                                                                                                                                                                     000000000000000000000000000000COMBUSTIVEL PARA ABASTECIMENTO DAS MAQUINAS E EQUIPAMENTOS DA INFRAESTRUTURA BASICA DE CAMPO CONF RD 155 EM ANEXO NE 719.  PROCESSO No 02/2020 EDITAL No 02/2020 PREGAO No 02/2020 SRP No 01/2020  3.000 LTS OLEO DIESEL S10 X R$ 3,86                                                                                                                                                                          N00000000000000000000                    0000S0000001681  X
020200000070300000000000000002693220420200000000008190+                                                                                                                                                                     000000000000000000000000000000COMBUSTIVEL PARA ABASTECIMENTO DO VEICULO DO SETOR DE FISCALIZACAO E TRIBUTOS CONF RD 135 EM ANEXO.  PROCESSO No 02/2020 EDITAL No 02/2020 PREGAO No 02/2020 SRP No  01/2020  300 LTS. GASOLINA COMUM X R$ 4,76                                                                                                                                                                                                 N00000000000000000000                    0000S0000001601  X
020200000069200000000000000002694220420200000000063332+                                                                                                                                                                     000000000000000000000000000000COMBUSTIVEL PARA ABASTECIMENTO DOS VEICULOS DO TRANSPORTE DA SAUDE CONF RD 137 EM ANEXO.  PROCESSO No 02/2020 EDITAL No 02/2020 PREGAO No 02/2020 SRP No  01/2020  1.500 LTS. GASOLINA COMUM X R$ 4,76                                                                                                                                                                                                          N00000000000000000000                    0000S0000001551  X
020200000218100000000000000002695200420200000000161395+                                                                                                                                                                     000000000000000000000000000000CONTRIBUICAO PATRONAL DE 20% SOBRE LIQUIDACAO DE SERVICOS PRESTADO POR MEI.  NE: 1050, 2099 E 1956  VALOR LIQUIDADO: R$ 2.615,85 / R$ 1.743,90 E R$ 3.710,00  DATA LIQUIDACAO: 03, 08 E 20.04.2020  MEI: JOAO ROQUE BARASUOL BERTI  NIT: 113.3243.837-1  CNPJ: 95.136.685/0001-04                                                                                                                               X00000000000000000000                    0000X000000000   X
020200000072000000000000000002696220420200000000131544+                                                                                                                                                                     000000000000000000000000000000COMBUSTIVEL PARA ABASTECIMENTO DAS MAQUINAS E EQUIPAMENTOS DA INFRAESTRUTURA BASICA DE CAMPO CONF RD 155 EM ANEXO NE 719.  PROCESSO No 02/2020 EDITAL No 02/2020 PREGAO No 02/2020 SRP No 01/2020  3.000 LTS OLEO DIESEL S10 X R$ 3,86                                                                                                                                                                          N00000000000000000000                    0000S0000001661  X
020200000071900000000000000002697220420200000000038225+                                                                                                                                                                     000000000000000000000000000000COMBUSTIVEL PARA ABASTECIMENTO DAS MAQUINAS E EQUIPAMENTOS DA INFRAESTRUTURA BASICA DE CAMPO CONF RD 155 EM ANEXO.  PROCESSO No 02/2020 EDITAL No 02/2020 PREGAO No 02/2020 SRP No 01/2020  500 LTS GASOLINA COMUM X R$ 4,76                                                                                                                                                                                    N00000000000000000000                    0000S0000001651  X
020200000218200000000000000002698200420200000000013664+                                                                                                                                                                     000000000000000000000000000000CONTRIBUICAO PATRONAL DE 20% SOBRE LIQUIDACAO DE SERVICOS PRESTADO POR MEI.  NE: 1599, 1663 E 2059  VALOR LIQUIDADO: R$ 100,00 / R$ 553,20 E R$ 30,00  DATA LIQUIDACAO: 06, 08 E 09.04.2020  MEI: GABRIEL DOBLER DASSOW  NIT: 210.4746.404-9  CNPJ: 16.661.758/0001-00                                                                                                                                          X00000000000000000000                    0000X000000000   X
020200000105100000000000000002699220420200000000213372+                                                                                                                                                                     000000000000000000000000000000COMBUSTIVEL PARA ABASTECIMENTO DAS MAQUINAS DA PATRULIA AGRICOLA. CONF OC 260 EM ANEXO.  PROCESSO No 02/2020 , EDITAL No 02/2020, PREGAO No 02/2020 SRP No  01/202  3.000 LT DIESEL COMUN X R$ 3,78                                                                                                                                                                                                             N00000000000000000000                    0000S0000001671  X
020200000136300000000000000002700220420200000000030940+                                                                                                                                                                     000000000000000000000000000000COMBUSTIVEL PARA ABASTECIMENTO DAS MAQUINAS E EQUIPAMENTOS DA SECR. DE OBRAS CONF RD 290 EM ANEXO NE 1362.  PROCESSO No 02/2020 EDITAL No 02/2020 PREGAO No 02/2020 SRP No 01/2020  300 LTS GASOLINA COMUM X R$ 4,76                                                                                                                                                                                            N00000000000000000000                    0000S0000001591  X
020200000165300000000000000002702220420200000000098426+                                                                                                                                                                     000000000000000000000000000000COMBUSTIVEL PARA ABASTECIMENTO DAS MAQUINAS E EQUIPAMENTOS DA SECR. DE OBRAS CONF RD 349 EM ANEXO NE 1652.  PROCESSO No 02/2020 EDITAL No 02/2020 PREGAO No 02/2020 SRP No 01/2020  3.000 LTS DIESEL S10 X R$ 3,86                                                                                                                                                                                              N00000000000000000000                    0000S0000001591  X
020200000218300000000000000002703200420200000000006576+                                                                                                                                                                     000000000000000000000000000000CONTRIBUICAO PATRONAL DE 20% SOBRE LIQUIDACAO DE SERVICOS PRESTADO POR MEI.  NE: 1714  VALOR LIQUIDADO: R$ 328,80  DATA LIQUIDACAO: 03.04.2020  MEI: IRINEU EUGENIO B. SOARES  NIT: 118.8814.968-2  CNPJ: 28.095.761/0001-93                                                                                                                                                                                    X00000000000000000000                    0000X000000000   X
020200000136200000000000000002704220420200000000189000+                                                                                                                                                                     000000000000000000000000000000COMBUSTIVEL PARA ABASTECIMENTO DAS MAQUINAS E EQUIPAMENTOS DA SECR. DE OBRAS CONF RD 290 EM ANEXO.  PROCESSO No 02/2020 EDITAL No 02/2020 PREGAO No 02/2020 SRP No 01/2020  3.000 LTS DIESEL COMUM X R$ 3,78                                                                                                                                                                                                    N00000000000000000000                    0000S0000001591  X
020200000136100000000000000002705220420200000000075600+                                                                                                                                                                     000000000000000000000000000000COMBUSTIVEL PARA ABASTECIMENTO DO VEICULO DO TRANSPORTE COLETIVO CONF RD 289 EM ANEXO.  PROCESSO No 02/2020 EDITAL No 02/2020 PREGAO No 02/2020 SRP No 01/2020  1.000 LTS DIESEL COMUM X R$ 3,78                                                                                                                                                                                                                N00000000000000000000                    0000S0000001591  X
020200000165200000000000000002706220420200000000557550+                                                                                                                                                                     000000000000000000000000000000COMBUSTIVEL PARA ABASTECIMENTO DAS MAQUINAS E EQUIPAMENTOS DA SECR. DE OBRAS CONF RD 349 EM ANEXO.  PROCESSO No 02/2020 EDITAL No 02/2020 PREGAO No 02/2020 SRP No 01/2020  5.000 LTS DIESEL COMUM X R$ 3,78                                                                                                                                                                                                    N00000000000000000000                    0000S0000001591  X
020200000136300000000000000002707220420200000000013650+                                                                                                                                                                     000000000000000000000000000000COMBUSTIVEL PARA ABASTECIMENTO DAS MAQUINAS E EQUIPAMENTOS DA SECR. DE OBRAS CONF RD 290 EM ANEXO NE 1362.  PROCESSO No 02/2020 EDITAL No 02/2020 PREGAO No 02/2020 SRP No 01/2020  300 LTS GASOLINA COMUM X R$ 4,76                                                                                                                                                                                            N00000000000000000000                    0000S0000001621  X
020200000136000000000000000002708220420200000000013650+                                                                                                                                                                     000000000000000000000000000000COMBUSTIVEL PARA ABASTECIMENTO DAS MAQUINAS E EQUIPAMENTOS DA LIMPEZA URBANA CONF RD 288 EM ANEXO.  PROCESSO No 02/2020 EDITAL No 02/2020 PREGAO No 02/2020 SRP No 01/2020  300 LTS GASOLINA COMUM X R$ 4,76                                                                                                                                                                                                    N00000000000000000000                    0000S0000001621  X
020200000218400000000000000002709200420200000000055200+                                                                                                                                                                     000000000000000000000000000000CONTRIBUICAO PATRONAL DE 20% SOBRE LIQUIDACAO DE SERVICOS PRESTADO POR MEI.  NE: 1407 E 1627  VALOR LIQUIDADO: R$ 1.600,00 E R$ 1.160,00  DATA LIQUIDACAO: 01 E 03.04.2020  MEI: JOSE LUIS DE OLIVEIRA DIAS  NIT: 126.2601.470-4  CNPJ: 29.973.694/0001-25                                                                                                                                                      X00000000000000000000                    0000X000000000   X
020200000165400000000000000002710220420200000000032220+                                                                                                                                                                     000000000000000000000000000000COMBUSTIVEL PARA ABASTECIMENTO DAS MAQUINAS E EQUIPAMENTOS DA LIMPEZA URBANA CONF RD 348 EM ANEXO.  PROCESSO No 02/2020 EDITAL No 02/2020 PREGAO No 02/2020 SRP No 01/2020  2.000 LTS DIESEL COMUM X R$ 3,78                                                                                                                                                                                                    N00000000000000000000                    0000S0000001621  X
020200000165200000000000000002711220420200000000418860+                                                                                                                                                                     000000000000000000000000000000COMBUSTIVEL PARA ABASTECIMENTO DAS MAQUINAS E EQUIPAMENTOS DA SECR. DE OBRAS CONF RD 349 EM ANEXO.  PROCESSO No 02/2020 EDITAL No 02/2020 PREGAO No 02/2020 SRP No 01/2020  5.000 LTS DIESEL COMUM X R$ 3,78                                                                                                                                                                                                    N00000000000000000000                    0000S0000001621  X
020200000165300000000000000002712220420200000000244623+                                                                                                                                                                     000000000000000000000000000000COMBUSTIVEL PARA ABASTECIMENTO DAS MAQUINAS E EQUIPAMENTOS DA SECR. DE OBRAS CONF RD 349 EM ANEXO NE 1652.  PROCESSO No 02/2020 EDITAL No 02/2020 PREGAO No 02/2020 SRP No 01/2020  3.000 LTS DIESEL S10 X R$ 3,86                                                                                                                                                                                              N00000000000000000000                    0000S0000001621  X
020200000218500000000000000002713200420200000000010800+                                                                                                                                                                     000000000000000000000000000000CONTRIBUICAO PATRONAL DE 20% SOBRE LIQUIDACAO DE SERVICOS PRESTADO POR MEI.  NE: 2077 E 1737  VALOR LIQUIDADO: R$ 320,00 E R$ 220,00  DATA LIQUIDACAO: 01 E 08.04.2020  MEI: VANDERLEI ROQUE BERTOLDO  NIT: 190.0019.792-1  CNPJ: 18.651.431/0001-83                                                                                                                                                            X00000000000000000000                    0000X000000000   X
020200000218600000000000000002714200420200000000010800+                                                                                                                                                                     000000000000000000000000000000CONTRIBUICAO PATRONAL DE 20% SOBRE LIQUIDACAO DE SERVICOS PRESTADO POR MEI.  NE: 1675  VALOR LIQUIDADO: R$ 540,00  DATA LIQUIDACAO: 08.04.2020  MEI: SERGIO EZEQUIEL DE OLIVEIRA  NIT: 113.5372.782-8  CNPJ: 13.637.997/0001-37                                                                                                                                                                                 X00000000000000000000                    0000X000000000   X
020200000166600000000000000002715220420200000000034085+                                                                                                                                                                     000000000000000000000000000000VIDRO SUP. PORTA LATERAL PARA SUBSTITUICAO NO ROLO COMPACTADOR 88 CONF RD 56 EM ANEXO.                                                                                                                                                                                                                                                                                                                          N00000000000000000000                    0000S0000148491  X
020200000171100000000000000002716220420200000000017340+                                                                                                                                                                     000000000000000000000000000000COMBUSTIVEL PARA ABASTECIMENTO DOS VEICULOS DO TRANSPORTE DA SAUDE CONF RD 386 EM ANEXO.  PROCESSO No 02/2020 EDITAL No 02/2020 PREGAO No 02/2020 SRP No  01/2020  500 LTS. DIESEL S10 X R$ 3,86                                                                                                                                                                                                                N00000000000000000000                    0000S0000001731  X
020200000207800000000000000002717220420200000000072777+                                                                                                                                                                     000000000000000000000000000000COMBUSTIVEL PARA ABASTECIMENTO DOS VEICULOS DO ESF CONF OC 410 EM ANEXO.  PROCESSO No 02/2020 EDITAL No 02/2020 PREGAO No 02/2020 SRP No  01/2020  1.000 LTS. GASOLINA COMUM X R$ 4,55                                                                                                                                                                                                                          N00000000000000000000                    0000S0000001731  X
020200000072000000000000000002718220420200000000038760+                                                                                                                                                                     000000000000000000000000000000COMBUSTIVEL PARA ABASTECIMENTO DAS MAQUINAS E EQUIPAMENTOS DA INFRAESTRUTURA BASICA DE CAMPO CONF RD 155 EM ANEXO NE 719.  PROCESSO No 02/2020 EDITAL No 02/2020 PREGAO No 02/2020 SRP No 01/2020  3.000 LTS OLEO DIESEL S10 X R$ 3,86                                                                                                                                                                          N00000000000000000000                    0000S0000001761  X
020200000105100000000000000002719220420200000000069345+                                                                                                                                                                     000000000000000000000000000000COMBUSTIVEL PARA ABASTECIMENTO DAS MAQUINAS DA PATRULIA AGRICOLA. CONF OC 260 EM ANEXO.  PROCESSO No 02/2020 , EDITAL No 02/2020, PREGAO No 02/2020 SRP No  01/202  3.000 LT DIESEL COMUN X R$ 3,78                                                                                                                                                                                                             N00000000000000000000                    0000S0000001761  X
020200000004300000000000000002727220420200000000004182+                                                                                                                                                                     000000000000000000000000000000DIARIAS PARA VIAGENS REALIZADAS PARA TRANSPORTE DE PACIENTES ENCAMINHADOS PELA SECR. DE SAUDE PARA CONSULTAS E EXAMES EM DIVERSAS ESPECIALIDADES NOS MUNICIPIOS DA REGIAO E CAPITAL E FORA DO ESTADO NO EXERCICIO 2020 CONF RD 10 EM ANEXO NE 40.                                                                                                                                                               X00000000000000000000                    0000X000000000   X
020200000217800000000000000002728220420200000000015000+                                                                                                                                                                     000000000000000000000000000000LEITORA PARA CARTAO CERTIFICADO DIGITAL A3 PARA O CONTROLADOR INTERNO CONF RD 12 EM ANEXO.                                                                                                                                                                                                                                                                                                                      N00000000000000000000                    0000X000000000   X
020200000087500000000000000002729230420200000012429800+                                                                                                                                                                     000000000000000000000000000000AQUISICAO DE CAMINHAO NOVO ZERO QUILOMETRO, ORIGINAL DE FABRICA, TRUCADO, REDUZIDO E TRACIONADO, 6X4, ANO/MODELO 2019/2020. CONF OC 185 E CONTRATO 05/2020 EM ANEXO.  PROCESSO 01/2020 EDITAL 01/2020 PREGAO 01/2020                                                                                                                                                                                            S000000000000000000055                   2020S0001545791  C
020200000170300000000000000002730230420200000008785000+                                                                                                                                                                     000000000000000000000000000000AQUISICAO DE CAMINHAO NOVO ZERO QUILOMETRO, ORIGINAL DE FABRICA, TRUCADO, REDUZIDO E TRACIONADO, 6X4, ANO/MODELO 2019/2020. CONF CONTRATO 05/2020 EM ANEXO.  PROCESSO 01/2020 EDITAL 01/2020 PREGAO 01/2020  NE TRANSPOSTA DA NE 876 AJUSTE DE VINCULACAO                                                                                                                                                       S000000000000000000055                   2020S0001545791  C
020200000170400000000000000002731230420200000001017135+                                                                                                                                                                     000000000000000000000000000000AQUISICAO DE CAMINHAO NOVO ZERO QUILOMETRO, ORIGINAL DE FABRICA, TRUCADO, REDUZIDO E TRACIONADO, 6X4, ANO/MODELO 2019/2020. CONF CONTRATO 05/2020 EM ANEXO.  PROCESSO 01/2020 EDITAL 01/2020 PREGAO 01/2020  NE TRANSPOSTA DA NE 876 AJUSTE DE VINCULACAO                                                                                                                                                       S000000000000000000055                   2020S0001545791  C
020200000219600000000000000002732230420200000000015661+                                                                                                                                                                     000000000000000000000000000000AQUISICAO DE CAMINHAO NOVO ZERO QUILOMETRO, ORIGINAL DE FABRICA, TRUCADO, REDUZIDO E TRACIONADO, 6X4, ANO/MODELO 2019/2020. CONF CONTRATO 05/2020.  PROCESSO 01/2020 EDITAL 01/2020 PREGAO 01/2020  NE TRANSPOSTA DA NE 1704 AJUSTE DE VINCULACAO                                                                                                                                                               S000000000000000000055                   2020S0001545791  C
020200000217900000000000000002733230420200000000108131+                                                                                                                                                                     000000000000000000000000000000AQUISICAO DE CAMINHAO NOVO ZERO QUILOMETRO, ORIGINAL DE FABRICA, TRUCADO, REDUZIDO E TRACIONADO, 6X4, ANO/MODELO 2019/2020. CONF CONTRATO 05/2020.  PROCESSO 01/2020 EDITAL 01/2020 PREGAO 01/2020  NE TRANSPOSTA DE PARTE DA NE 1704 AJUSTE DE VINCULACAO                                                                                                                                                      S000000000000000000055                   2020S0001545791  C
020200000170200000000000000002734230420200000015644273+                                                                                                                                                                     000000000000000000000000000000AQUISICAO DE CAMINHAO NOVO ZERO QUILOMETRO, ORIGINAL DE FABRICA, TRUCADO, REDUZIDO E TRACIONADO, 6X4, ANO/MODELO 2019/2020. CONF OC 185 E CONTRATO 05/2020 EM ANEXO.  PROCESSO 01/2020 EDITAL 01/2020 PREGAO 01/2020  NE TRANSPOSTA DA NE 876 AJUSTE DE VINCULACAO                                                                                                                                              S000000000000000000055                   2020S0001545791  C
020200000216200000000000000002735230420200000000054352+                                                                                                                                                                     000000000000000000000000000000MATERIAL PARA MANUTENCAO DAS VIAS URBANAS CONF RD 54 EM ANEXO.                                                                                                                                                                                                                                                                                                                                                  N00000000000000000000                    0000S0000009291  X
020200000216100000000000000002736230420200000000014846+                                                                                                                                                                     000000000000000000000000000000MATERIAL PARA MANUTENCAO DE PONTES E PONTILHOES NAS VIAS RURAIS CONF RD 74 EM ANEXO.                                                                                                                                                                                                                                                                                                                            N00000000000000000000                    0000S0000009301  X
020200000170500000000000000002737230420200000000625000+                                                                                                                                                                     000000000000000000000000000000MAO DE OBRA PARA CONSERTO DA MOTONIVELADORA No 83 CONF RD 388 EM ANEXO.  PROCESSO 36/2020 DISPENSA 18/2020                                                                                                                                                                                                                                                                                                      N00000000000000000000                    0000S0000000840  X
020200000170600000000000000002738230420200000000869640+                                                                                                                                                                     000000000000000000000000000000MATERIAIS PARA CONSERTO DA MOTONIVELADORA No 83 CONF RD 387 EM ANEXO.  PROCESSO 36/2020 DISPENSA 18/2020                                                                                                                                                                                                                                                                                                        N00000000000000000000                    0000S028786918890X
020200000080100000000000000002739230420200000001365000+                                                                                                                                                                     000000000000000000000000000000TERMO DE FOMENTO PARA EXECUCAO DE PROJETO DE MANUTENCAO E REGULAR ATENDIMENTO AO  ENSINO GRATUITO AS PESSOAS COM NECESSIDADES ESPECIAIS, COM A FINALIDADE DE PREVENCAO,    ORIENTACAO, PRESTACAO DE SERVICO, APOIO A FAMILIA, DIRECIONADA A CONSTRUCAO DE UMA SOCIEDADE MAIS JUSTA E SOLIDARIA CONFORME TERMO DE FOMENTO 001/2020 EM ANEXO.   PROCESSO 04/19 INEXIGIBILIDADE 01/19                              N00000000000000000000                    0000X000000000   X
020200000012600000000000000002740230420200000000005700+                                                                                                                                                                     000000000000000000000000000000MATERIAL PARA MANUTENCAO DA PARTE ELETRICA DOS VEICULOS DA FROTA DO TRANSPORTE ESCOLAR CONF RD 23 EM ANEXO.  PROCESSO No 06/19 EDITAL No 04/19 PREGAO No 04/19 SRP No 03/19                                                                                                                                                                                                                                     N00000000000000000000                    0000S028945038890X
020200000012600000000000000002741230420200000000007800+                                                                                                                                                                     000000000000000000000000000000MATERIAL PARA MANUTENCAO DA PARTE ELETRICA DOS VEICULOS DA FROTA DO TRANSPORTE ESCOLAR CONF RD 23 EM ANEXO.  PROCESSO No 06/19 EDITAL No 04/19 PREGAO No 04/19 SRP No 03/19                                                                                                                                                                                                                                     N00000000000000000000                    0000S028945016890X
020200000012600000000000000002742230420200000000005700+                                                                                                                                                                     000000000000000000000000000000MATERIAL PARA MANUTENCAO DA PARTE ELETRICA DOS VEICULOS DA FROTA DO TRANSPORTE ESCOLAR CONF RD 23 EM ANEXO.  PROCESSO No 06/19 EDITAL No 04/19 PREGAO No 04/19 SRP No 03/19                                                                                                                                                                                                                                     N00000000000000000000                    0000S028945047890X
020200000012600000000000000002743230420200000000002400+                                                                                                                                                                     000000000000000000000000000000MATERIAL PARA MANUTENCAO DA PARTE ELETRICA DOS VEICULOS DA FROTA DO TRANSPORTE ESCOLAR CONF RD 23 EM ANEXO.  PROCESSO No 06/19 EDITAL No 04/19 PREGAO No 04/19 SRP No 03/19                                                                                                                                                                                                                                     N00000000000000000000                    0000S028945028890X
020200000004500000000000000002744230420200000000004182+                                                                                                                                                                     000000000000000000000000000000DIARIAS PARA VIAGENS REALIZADAS PARA TRANSPORTE DE PACIENTES ENCAMINHADOS PELA SECR. DE SAUDE PARA CONSULTAS E EXAMES EM DIVERSAS ESPECIALIDADES NOS MUNICIPIOS DA REGIAO E CAPITAL E FORA DO ESTADO NO EXERCICIO 2020 CONF RD 10 EM ANEXO NE 40.                                                                                                                                                               X00000000000000000000                    0000X000000000   X
020200000004500000000000000002745230420200000000008364+                                                                                                                                                                     000000000000000000000000000000DIARIAS PARA VIAGENS REALIZADAS PARA TRANSPORTE DE PACIENTES ENCAMINHADOS PELA SECR. DE SAUDE PARA CONSULTAS E EXAMES EM DIVERSAS ESPECIALIDADES NOS MUNICIPIOS DA REGIAO E CAPITAL E FORA DO ESTADO NO EXERCICIO 2020 CONF RD 10 EM ANEXO NE 40.                                                                                                                                                               X00000000000000000000                    0000X000000000   X
020200000216700000000000000002746230420200000000004182+                                                                                                                                                                     000000000000000000000000000000DIARIAS PARA VIAGENS REALIZADAS PARA TRANSPORTE DE PACIENTES ENCAMINHADOS PELA SECR. DE SAUDE PARA CONSULTAS E EXAMES EM DIVERSAS ESPECIALIDADES NOS MUNICIPIOS DA REGIAO E CAPITAL E FORA DO ESTADO NO EXERCICIO 2020 CONF RD 211 EM ANEXO.                                                                                                                                                                    X00000000000000000000                    0000X000000000   X
020200000220900000000000000002754240420200000000113870+                                                                                                                                                                     000000000000000000000000000000REMUNERACAO REFERENTE AO MES DE ABRIL 2020.   EDUCACAO MDE GV FUND. APOIO CCS  SALARIO C/C                                                                                                                                                                                                                                                                                                                      X00000000000000000000                    0000X000000000   X
020200000221000000000000000002755240420200000002950068+                                                                                                                                                                     000000000000000000000000000000REMUNERACAO REFERENTE AO MES DE ABRIL 2020.   EDUCACAO MDE LAR EDUC. INF. APOIO ESTATUTARIOS  VENCIMENTO                                                                                                                                                                                                                                                                                                        X00000000000000000000                    0000X000000000   X
020200000221100000000000000002756240420200000000157731+                                                                                                                                                                     000000000000000000000000000000REMUNERACAO REFERENTE AO MES DE ABRIL 2020.   EDUCACAO MDE LAR EDUC. INF. APOIO ESTATUTARIOS  SALARIO MATERNIDADE                                                                                                                                                                                                                                                                                               X00000000000000000000                    0000X000000000   X
020200000221200000000000000002757240420200000000130591+                                                                                                                                                                     000000000000000000000000000000REMUNERACAO REFERENTE AO MES DE ABRIL 2020.   EDUCACAO MDE LAR EDUC. INF. APOIO ESTATUTARIOS  ANUENIOS                                                                                                                                                                                                                                                                                                          X00000000000000000000                    0000X000000000   X
020200000221300000000000000002758240420200000000063758+                                                                                                                                                                     000000000000000000000000000000REMUNERACAO REFERENTE AO MES DE ABRIL 2020.   EDUCACAO MDE LAR EDUC. INF. APOIO ESTATUTARIOS  HORAS EXTRAS EDUCACAO                                                                                                                                                                                                                                                                                             X00000000000000000000                    0000X000000000   X
020200000221400000000000000002759240420200000001391737+                                                                                                                                                                     000000000000000000000000000000REMUNERACAO REFERENTE AO MES DE ABRIL 2020.   EDUCACAO MDE TRANSPORTE ESCOLAR ESTATUTARIOS   VENCIMENTO                                                                                                                                                                                                                                                                                                         X00000000000000000000                    0000X000000000   X
020200000221500000000000000002760240420200000000255573+                                                                                                                                                                     000000000000000000000000000000REMUNERACAO REFERENTE AO MES DE ABRIL 2020.   EDUCACAO MDE TRANSPORTE ESCOLAR ESTATUTARIOS   ADIC. INSALUBRIDADE                                                                                                                                                                                                                                                                                                X00000000000000000000                    0000X000000000   X
020200000221600000000000000002761240420200000000456623+                                                                                                                                                                     000000000000000000000000000000REMUNERACAO REFERENTE AO MES DE ABRIL 2020.   EDUCACAO MDE TRANSPORTE ESCOLAR ESTATUTARIOS   AUXILIO DOENCA                                                                                                                                                                                                                                                                                                     X00000000000000000000                    0000X000000000   X
020200000221700000000000000002762240420200000000104620+                                                                                                                                                                     000000000000000000000000000000REMUNERACAO REFERENTE AO MES DE ABRIL 2020.   EDUCACAO MDE TRANSPORTE ESCOLAR ESTATUTARIOS   ANUENIOS                                                                                                                                                                                                                                                                                                           X00000000000000000000                    0000X000000000   X
020200000221800000000000000002763240420200000000197476+                                                                                                                                                                     000000000000000000000000000000REMUNERACAO REFERENTE AO MES DE ABRIL 2020.   EDUCACAO MDE TRANSPORTE ESCOLAR ESTATUTARIOS   HORAS EXTRAS EDUCACAO                                                                                                                                                                                                                                                                                              X00000000000000000000                    0000X000000000   X
020200000221900000000000000002764240420200000000009043+                                                                                                                                                                     000000000000000000000000000000REMUNERACAO REFERENTE AO MES DE ABRIL 2020.   EDUCACAO MDE TRANSPORTE ESCOLAR ESTATUTARIOS   HORAS EXTRAS SAUDE                                                                                                                                                                                                                                                                                                 X00000000000000000000                    0000X000000000   X
020200000222000000000000000002765240420200000000001170+                                                                                                                                                                     000000000000000000000000000000REMUNERACAO REFERENTE AO MES DE ABRIL 2020.   EDUCACAO MDE TRANSPORTE ESCOLAR ESTATUTARIOS   HORAS EXTRAS ASSISTENCIA                                                                                                                                                                                                                                                                                           X00000000000000000000                    0000X000000000   X
020200000222100000000000000002766240420200000000420000+                                                                                                                                                                     000000000000000000000000000000REMUNERACAO REFERENTE AO MES DE ABRIL 2020.   EDUCACAO MDE TRANSPORTE ESCOLAR ESTATUTARIOS   GRATIF. TRANSPORTE ESCOLAR                                                                                                                                                                                                                                                                                         X00000000000000000000                    0000X000000000   X
020200000222200000000000000002767240420200000000084301+                                                                                                                                                                     000000000000000000000000000000REMUNERACAO REFERENTE AO MES DE ABRIL 2020.   EDUCACAO MDE TRANSPORTE ESCOLAR ESTATUTARIOS   GRATIF. RESP. FROTA TRANSPORTE ESCOLAR                                                                                                                                                                                                                                                                             X00000000000000000000                    0000X000000000   X
020200000222300000000000000002768240420200000001124058+                                                                                                                                                                     000000000000000000000000000000REMUNERACAO REFERENTE AO MES DE ABRIL 2020.   EDUCACAO MDE GV FUNDAMENTAL APOIO ESTATUTARIOS   VENCIMENTO                                                                                                                                                                                                                                                                                                       X00000000000000000000                    0000X000000000   X
020200000222400000000000000002769240420200000000076400+                                                                                                                                                                     000000000000000000000000000000REMUNERACAO REFERENTE AO MES DE ABRIL 2020.   EDUCACAO MDE GV FUNDAMENTAL APOIO ESTATUTARIOS   ANUENIOS                                                                                                                                                                                                                                                                                                         X00000000000000000000                    0000X000000000   X
020200000222500000000000000002770240420200000000009724+                                                                                                                                                                     000000000000000000000000000000REMUNERACAO REFERENTE AO MES DE ABRIL 2020.   EDUCACAO MDE GV FUNDAMENTAL APOIO ESTATUTARIOS   SALARIO FAMILIA                                                                                                                                                                                                                                                                                                  X00000000000000000000                    0000X000000000   X
020200000222600000000000000002771240420200000000001744+                                                                                                                                                                     000000000000000000000000000000REMUNERACAO REFERENTE AO MES DE ABRIL 2020.   EDUCACAO MDE GV FUNDAMENTAL APOIO ESTATUTARIOS   HORAS EXTRAS EDUCACAO                                                                                                                                                                                                                                                                                            X00000000000000000000                    0000X000000000   X
020200000222700000000000000002772240420200000000309276+                                                                                                                                                                     000000000000000000000000000000REMUNERACAO REFERENTE AO MES DE ABRIL 2020.   EDUCACAO MDE GV INFANTIL APOIO ESTATUTARIOS   VENCIMENTO                                                                                                                                                                                                                                                                                                          X00000000000000000000                    0000X000000000   X
020200000222800000000000000002773240420200000000003092+                                                                                                                                                                     000000000000000000000000000000REMUNERACAO REFERENTE AO MES DE ABRIL 2020.   EDUCACAO MDE GV INFANTIL APOIO ESTATUTARIOS   ANUENIOS                                                                                                                                                                                                                                                                                                            X00000000000000000000                    0000X000000000   X
020200000222900000000000000002774240420200000000016318+                                                                                                                                                                     000000000000000000000000000000REMUNERACAO REFERENTE AO MES DE ABRIL 2020.   EDUCACAO MDE GV INFANTIL APOIO ESTATUTARIOS   HORAS EXTRAS EDUCACAO                                                                                                                                                                                                                                                                                               X00000000000000000000                    0000X000000000   X
020200000223000000000000000002775240420200000000158738+                                                                                                                                                                     000000000000000000000000000000REMUNERACAO REFERENTE AO MES DE ABRIL 2020.   EDUCACAO FUNDEB GV FUND. PROFESSOR CLT   VENCIMENTO                                                                                                                                                                                                                                                                                                               X00000000000000000000                    0000X000000000   X
020200000223100000000000000002776240420200000000061908+                                                                                                                                                                     000000000000000000000000000000REMUNERACAO REFERENTE AO MES DE ABRIL 2020.   EDUCACAO FUNDEB GV FUND. PROFESSOR CLT   ANUENIOS                                                                                                                                                                                                                                                                                                                 X00000000000000000000                    0000X000000000   X
020200000223200000000000000002777240420200000005169852+                                                                                                                                                                     000000000000000000000000000000REMUNERACAO REFERENTE AO MES DE ABRIL 2020.   EDUCACAO FUNDEB LAR EDUC. INFANTIL PROFESSOR ESTATUTARIOS  VENCIMENTO  REG. SUPLEMENTAR                                                                                                                                                                                                                                                                           X00000000000000000000                    0000X000000000   X
020200000223300000000000000002778240420200000000240184+                                                                                                                                                                     000000000000000000000000000000REMUNERACAO REFERENTE AO MES DE ABRIL 2020.   EDUCACAO FUNDEB LAR EDUC. INFANTIL PROFESSOR ESTATUTARIOS  PREMIO ASSIDUIDADE                                                                                                                                                                                                                                                                                     X00000000000000000000                    0000X000000000   X
020200000223400000000000000002779240420200000000030064+                                                                                                                                                                     000000000000000000000000000000REMUNERACAO REFERENTE AO MES DE ABRIL 2020.   EDUCACAO FUNDEB LAR EDUC. INFANTIL PROFESSOR ESTATUTARIOS  GRATIF. CURSO SUP. 300 HORAS                                                                                                                                                                                                                                                                           X00000000000000000000                    0000X000000000   X
020200000223500000000000000002780240420200000000522917+                                                                                                                                                                     000000000000000000000000000000REMUNERACAO REFERENTE AO MES DE ABRIL 2020.   EDUCACAO FUNDEB LAR EDUC. INFANTIL PROFESSOR ESTATUTARIOS  ANUENIOS                                                                                                                                                                                                                                                                                               X00000000000000000000                    0000X000000000   X
020200000223600000000000000002781240420200000000218749+                                                                                                                                                                     000000000000000000000000000000REMUNERACAO REFERENTE AO MES DE ABRIL 2020.   EDUCACAO FUNDEB LAR EDUC. INFANTIL PROFESSOR ESTATUTARIOS  VICE DIRETOR DE ESCOLA FG 02  DIRETOR DE ESCOLA III FG03                                                                                                                                                                                                                                               X00000000000000000000                    0000X000000000   X
020200000223700000000000000002782240420200000009330540+                                                                                                                                                                     000000000000000000000000000000REMUNERACAO REFERENTE AO MES DE ABRIL 2020.   EDUCACAO FUNDEB GV FUNDAMENTAL PROFESSOR ESTATUTARIOS  VENCIMENTO  REG. SUPLEMENTAR  DIF. SALARIO  REST. DESC. FALTA/ATRASO                                                                                                                                                                                                                                       X00000000000000000000                    0000X000000000   X
020200000223800000000000000002783240420200000000240184+                                                                                                                                                                     000000000000000000000000000000REMUNERACAO REFERENTE AO MES DE ABRIL 2020.   EDUCACAO FUNDEB GV FUNDAMENTAL PROFESSOR ESTATUTARIOS  PREMIO ASSIDUIDADE                                                                                                                                                                                                                                                                                         X00000000000000000000                    0000X000000000   X
020200000223900000000000000002784240420200000000060128+                                                                                                                                                                     000000000000000000000000000000REMUNERACAO REFERENTE AO MES DE ABRIL 2020.   EDUCACAO FUNDEB GV FUNDAMENTAL PROFESSOR ESTATUTARIOS  GRATIF. CURSO SUP. 300 HORAS                                                                                                                                                                                                                                                                               X00000000000000000000                    0000X000000000   X
020200000224000000000000000002785240420200000000572852+                                                                                                                                                                     000000000000000000000000000000REMUNERACAO REFERENTE AO MES DE ABRIL 2020.   EDUCACAO FUNDEB GV FUNDAMENTAL PROFESSOR ESTATUTARIOS  AUXILIO DOENCA                                                                                                                                                                                                                                                                                             X00000000000000000000                    0000X000000000   X
020200000224100000000000000002786240420200000001274171+                                                                                                                                                                     000000000000000000000000000000REMUNERACAO REFERENTE AO MES DE ABRIL 2020.   EDUCACAO FUNDEB GV FUNDAMENTAL PROFESSOR ESTATUTARIOS  ANUENIOS                                                                                                                                                                                                                                                                                                   X00000000000000000000                    0000X000000000   X
020200000224200000000000000002787240420200000000031209+                                                                                                                                                                     000000000000000000000000000000REMUNERACAO REFERENTE AO MES DE ABRIL 2020.   EDUCACAO FUNDEB GV FUNDAMENTAL PROFESSOR ESTATUTARIOS  HORAS EXTRAS EDUCACAO                                                                                                                                                                                                                                                                                      X00000000000000000000                    0000X000000000   X
020200000224300000000000000002788240420200000000572368+                                                                                                                                                                     000000000000000000000000000000REMUNERACAO REFERENTE AO MES DE ABRIL 2020.   EDUCACAO FUNDEB GV FUNDAMENTAL PROFESSOR ESTATUTARIOS  GRATIF. DOCENCIA ALUNOS ESPECIAIS  VICE DIRETOR DE ESCOLA FG 02  DIRETOR DE ESCOLA III FG 03                                                                                                                                                                                                               X00000000000000000000                    0000X000000000   X
020200000224400000000000000002789240420200000000209416+                                                                                                                                                                     000000000000000000000000000000REMUNERACAO REFERENTE AO MES DE ABRIL 2020.   EDUCACAO FUNDEB GV EDUC. INFANTIL PROFESSOR ESTATUTARIOS  VENCIMENTO                                                                                                                                                                                                                                                                                              X00000000000000000000                    0000X000000000   X
020200000224500000000000000002790240420200000000433293+                                                                                                                                                                     000000000000000000000000000000REMUNERACAO REFERENTE AO MES DE ABRIL 2020.   EDUCACAO FUNDEB GV EDUC. INFANTIL PROFESSOR ESTATUTARIOS  SALARIO MATERNIDADE                                                                                                                                                                                                                                                                                     X00000000000000000000                    0000X000000000   X
020200000224600000000000000002791240420200000000913400+                                                                                                                                                                     000000000000000000000000000000REMUNERACAO REFERENTE AO MES DE ABRIL 2020.   GABINETE CONSELHO TUTELAR  VENCIMENTO                                                                                                                                                                                                                                                                                                                             X00000000000000000000                    0000X000000000   X
020200000224700000000000000002792240420200000002227500+                                                                                                                                                                     000000000000000000000000000000REMUNERACAO REFERENTE AO MES DE ABRIL 2020.   GABINETE PREFEITO E VICE  SUBSIDIOS                                                                                                                                                                                                                                                                                                                               X00000000000000000000                    0000X000000000   X
020200000224800000000000000002793240420200000000554354+                                                                                                                                                                     000000000000000000000000000000REMUNERACAO REFERENTE AO MES DE ABRIL 2020.   GABINETE ASSESSORIA CONSULTORIA CCS  SALARIO C/C                                                                                                                                                                                                                                                                                                                  X00000000000000000000                    0000X000000000   X
020200000224900000000000000002794240420200000000405000+                                                                                                                                                                     000000000000000000000000000000REMUNERACAO REFERENTE AO MES DE ABRIL 2020.   ADMINISTRACAO CCS  SUBSIDIOS                                                                                                                                                                                                                                                                                                                                      X00000000000000000000                    0000X000000000   X
020200000225000000000000000002795240420200000000113870+                                                                                                                                                                     000000000000000000000000000000REMUNERACAO REFERENTE AO MES DE ABRIL 2020.   ADMINISTRACAO CCS  SALARIO C/C                                                                                                                                                                                                                                                                                                                                    X00000000000000000000                    0000X000000000   X
020200000225100000000000000002796240420200000000398314+                                                                                                                                                                     000000000000000000000000000000REMUNERACAO REFERENTE AO MES DE ABRIL 2020.   ADMINISTRACAO CONTRATO ENGENHEIRO CIVIL  SALARIO                                                                                                                                                                                                                                                                                                                  X00000000000000000000                    0000X000000000   X
020200000225200000000000000002797240420200000000405000+                                                                                                                                                                     000000000000000000000000000000REMUNERACAO REFERENTE AO MES DE ABRIL 2020.   FAZENDA CCS  SUBSIDIOS                                                                                                                                                                                                                                                                                                                                            X00000000000000000000                    0000X000000000   X
020200000225300000000000000002798240420200000000405000+                                                                                                                                                                     000000000000000000000000000000REMUNERACAO REFERENTE AO MES DE ABRIL 2020.   EDUCACAO SECRETARIA CCS  SUBSIDIOS                                                                                                                                                                                                                                                                                                                                X00000000000000000000                    0000X000000000   X
020200000225400000000000000002799240420200000000728204+                                                                                                                                                                     000000000000000000000000000000REMUNERACAO REFERENTE AO MES DE ABRIL 2020.   EDUCACAO SECRETARIA CCS  SALARIO C/C                                                                                                                                                                                                                                                                                                                              X00000000000000000000                    0000X000000000   X
020200000225500000000000000002800240420200000000059044+                                                                                                                                                                     000000000000000000000000000000REMUNERACAO REFERENTE AO MES DE ABRIL 2020.   OBRAS CCS  SALARIO C/C                                                                                                                                                                                                                                                                                                                                            X00000000000000000000                    0000X000000000   X
020200000225600000000000000002801240420200000000310500+                                                                                                                                                                     000000000000000000000000000000REMUNERACAO REFERENTE AO MES DE ABRIL 2020.   OBRAS CCS  SUBSIDIOS                                                                                                                                                                                                                                                                                                                                              X00000000000000000000                    0000X000000000   X
020200000225700000000000000002802240420200000000405000+                                                                                                                                                                     000000000000000000000000000000REMUNERACAO REFERENTE AO MES DE ABRIL 2020.   SERVICOS URBANOS CCS  SUBSIDIOS                                                                                                                                                                                                                                                                                                                                   X00000000000000000000                    0000X000000000   X
020200000225800000000000000002803240420200000000033750+                                                                                                                                                                     000000000000000000000000000000REMUNERACAO REFERENTE AO MES DE ABRIL 2020.   SERVICOS URBANOS CCS  FERIAS   VERBAS RESCISORIAS                                                                                                                                                                                                                                                                                                                 X00000000000000000000                    0000X000000000   X
020200000225900000000000000002804240420200000000691137+                                                                                                                                                                     000000000000000000000000000000REMUNERACAO REFERENTE AO MES DE ABRIL 2020.   SERVICOS URBANOS CCS  DIF. SALARIO  SALARIO C/C  VERBAS RESCISORIAS                                                                                                                                                                                                                                                                                               X00000000000000000000                    0000X000000000   X
