87612826000190010120183112201801012019PREFEITURA MUNICIPAL INDEPENDENCIA                                              
0000011311010100000002010000014331210R01
0000011311010100000002010000014331210D01
0000011311010400000002010000022819806R01
0000011311010400000002010000022819806D01
0000021881010101000002010000023996451R07
0000021881010101000002010000023996451D07
0000021881010102000002010000034816947R07
0000021881010102000002010000034816947D07
0000021881010104000002010000019735012R07
0000021881010104000002010000019735012D07
0000021881010107000002010000000722742R07
0000021881010107000002010000000722742D07
0000021881010201000002010000003425705R07
0000021881010201000002010000003425705D07
0000021881010202000002010000000107609R07
0000021881010202000002010000000107609D07
0000021881010203000002010000000046750R07
0000021881010203000002010000000046750D07
0000021881010205010002010000013204969R07
0000021881010205010002010000013204969D07
0000021881010205020002010000000605283R07
0000021881010205020002010000000605283D07
0000021881010205040002010000005824724R07
0000021881010205040002010000005824724D07
0000021881010205050002010000005686554R07
0000021881010205050002010000005686554D07
0000021881010209000002010000000170212R07
0000021881010209000002010000000170212D07
0000021881010400000012010000000006750R07
0000021881010400000012010000000006750D07
0000021881011000000002010000005091829R07
0000021881011000000002010000005091829D07
0000021881011301000002010000002681745R07
0000021881011301000002010000002681745D07
0000021881011302000002010000001111193R07
0000021881011302000002010000001111193D07
0000021881011501000002010000006418402R07
0000021881011501000002010000006418402D07
0000021881011502000002010000024133792R07
0000021881011502000002010000024133792D07
0000021881011503000002010000076342078R07
0000021881011503000002010000076342078D07
0000021881011504000002010000007253194R07
0000021881011504000002010000007253194D07
0000021881040500000002010000037070000R07
0000021881040500000002010000037070000D07
0000021883010402010002010000000535396R07
0000021883010402010002010000000535396D07
0000021883010403000002010000000032565R07
0000021883010403000002010000000032565D07
0000049101000000000002010000000000001R07
FINALIZADOR0000000051                                                                                                                                                                                                                                                                                                                                                                                                                                                                                                                                                                                                                                                                                                                                                                                                           
