87612826000190010120203004202008052020PREFEITURA MUNICIPAL INDEPENDENCIA                                              
0000011311010100000002010000002775562R018001
0000011311010100000002010000002775562D018001
0000011311010400000002010000020135741R018001
0000011311010400000002010000020135741D018001
0000011311019900000002010000000270000R018001
0000011311019900000002010000000270000D018001
0000011323060100000002010000000277285R018001
0000011323060100000002010000000391155D018001
0000011323060300000002010000000010372R018001
0000011323060300000002010000000010372D018001
0000021881010201000002010000000559175R078001
0000021881010201000002010000000559175D078001
0000021881010202000002010000000014750R078001
0000021881010204000002010000008282136R078001
0000021881010204000002010000006407852D078001
0000021881010212000002010000000350969R078001
0000021881010212000002010000000350969D078001
0000021881011000000002010000002117136R078001
0000021881011000000002010000002117136D078001
0000021881011300000002010000001352764R078001
0000021881011300000002010000001352764D078001
0000021881011500000002010000044355882R078001
0000021881011500000002010000044355882D078001
0000021881049900000002010000000331244R078001
0000021881049900000002010000000331244D078001
0000021881990200000002010000013819000R078001
0000021881990200000002010000013819000D078001
0000021882010101000002010000029539515R078001
0000021882010101000002010000022514076D078001
0000021883010401000002010000000191332R078001
0000021883010401000002010000000148884D078001
0000021883010403000002010000000002496R078001
0000021883010403000002010000000002496D078001
0000021883010405000012010000000005520R078001
0000021883010405000012010000000005520D078001
0000021883010407000002010000000006146R078001
0000021883010407000002010000000006146D078001
FINALIZADOR0000000037                                                                                                                                                                                                                                                                                                                                                                                                                                                                                                                                                                                                                                                                                                                                                                                                           
