87612826000190010120183112201801012019PREFEITURA MUNICIPAL INDEPENDENCIA                                              
0000010000000000000002010000205785232000020754451200001923506530000202089599000021810271900001957407650000238165355000021395123100001844946510000162818626000018977379400002955221770000000
0000011000000000000002010000008524061000000779746800000097984200000010872206000002009518000000256027550000010767702000000962968600000113515860000010805402000001122142200000183837880000000
0000011100000000000002010000008272161000000752371800000094587860000010552128000001975548000000254196550000010659702000000924478600000099206860000009707702000001084452200000179035240000000
0000011120000000000002010000006785454000000594098600000077051170000008209789000001750447500000230963640000008444785000000685545100000071027760000007188631000000843642600000150997200000000
0000011120200000000002010000000100441000000009575400000036504980000003718888000000575079300000156354010000000615542000000076904100000005845590000000246779000000035338500000009132890000000
0000011120200010000002010000000060264000000005745400000021902610000002231301000000345044100000093811450000000369322000000046140600000003507280000000148064000000021201800000005479630000001
0000011120200020000002010000000025111000000002393900000009126550000000929752000000143772300000039089290000000153890000000019227100000001461460000000061698000000008835300000002283290000020
0000011120200030000002010000000015066000000001436100000005475820000000557835000000086262900000023453270000000092330000000011536400000000876850000000037017000000005301400000001369970000040
0000011120400000000002010000004165013000000311913200000032586730000003579288000000333598200000036087630000003381583000000319641000000034015170000003323773000000324854100000068068310000000
0000011120431000000002010000004165013000000311913200000032586730000003579288000000333598200000036087630000003381583000000319641000000034015170000003323773000000324854100000068068310000000
0000011120431010000002010000003239259000000221614500000024162430000002617601000000249411800000027719310000002521910000000236694600000027159110000002673241000000262164300000055099430000000
0000011120431010100002010000001943555000000132968700000014497460000001570561000000149647000000016631580000001513145000000142016700000016295460000001603945000000157298600000033059660000001
0000011120431010200002010000000809815000000055403600000006040610000000654400000000062353000000006929830000000630478000000059173700000006789780000000668310000000065541100000013774860000020
0000011120431010300002010000000485889000000033242200000003624360000000392640000000037411800000004157900000000378287000000035504200000004073870000000400986000000039324600000008264910000040
0000011120431020000002010000000490218000000057370200000005090050000000460594000000048805500000004762780000000497843000000046871200000002369370000000240057000000021642300000005085030000000
0000011120431020100002010000000294130000000034422100000003054030000000276356000000029283300000002857660000000298706000000028122700000001421620000000144034000000012985400000003051020000001
0000011120431020200002010000000122555000000014342600000001272510000000115149000000012201400000001190700000000124461000000011717800000000592340000000060014000000005410600000001271260000020
0000011120431020300002010000000073533000000008605500000000763510000000069089000000007320800000000714420000000074676000000007030700000000355410000000036009000000003246300000000762750000040
0000011120431030000002010000000435536000000032928500000003334250000000501093000000035380900000003605540000000361830000000036075200000004486690000000410475000000041047500000007883850000000
0000011120431030100002010000000261322000000019757100000002000550000000300656000000021228600000002163320000000217097000000021645100000002692020000000246285000000024628500000004730300000001
0000011120431030200002010000000108884000000008232100000000833560000000125273000000008845200000000901390000000090458000000009018800000001121670000000102619000000010261900000001970970000020
0000011120431030300002010000000065330000000004939300000000500140000000075164000000005307100000000540830000000054275000000005411300000000673000000000061571000000006157100000001182580000040
0000011120800000000002010000002520000000000272610000000007959460000000911613000000841770000000038522000000004447660000000289000000000031167000000003618079000000483450000000073796000000000
0000011120800010000002010000001512000000000163566000000004775670000000546968000000505062000000023113200000002668596000000173400000000018700200000002170847000000290070000000044277600000001
0000011120800020000002010000000630000000000068152500000001989870000000227903000000210442500000009630500000001111915000000072250000000007791750000000904520000000120862500000018449000000020
0000011120800030000002010000000378000000000040891500000001193920000000136742000000126265500000005778300000000667149000000043350000000004675050000000542712000000072517500000011069400000040
0000011130000000000002010000001486707000000158273200000017536690000002342339000000225100500000023232910000002214917000000238933500000028179100000002519071000000240809600000028038040000000
0000011130500000000002010000001486707000000158273200000017536690000002342339000000225100500000023232910000002214917000000238933500000028179100000002519071000000240809600000028038040000000
0000011130501000000002010000001486707000000158273200000017536690000002342339000000225100500000023232910000002214917000000238933500000028179100000002519071000000240809600000028038040000000
0000011130501010000002010000000892023000000094963600000010521990000001405396000000135059600000013939730000001328946000000143359800000016907430000001511440000000144485000000016822710000001
0000011130501020000002010000000371677000000039568400000004384210000000585592000000056275800000005808280000000553733000000059733800000007044820000000629770000000060202800000007009610000020
0000011130501030000002010000000223007000000023741200000002630490000000351351000000033765100000003484900000000332238000000035839900000004226850000000377861000000036121800000004205720000040
0000011200000000000002010000000251900000000027375000000003396340000000320078000000033970000000001831000000000108000000000038490000000014309000000001097700000000037690000000004802640000000
0000011210000000000002010000000073600000000014550000000001376000000000177600000000021830000000000517000000000011000000000012950000000013760000000000989200000000022220000000002965640000000
0000011211700000000002010000000027300000000001820000000000182000000000027300000000001820000000000182000000000000000000000001820000000000182000000000018200000000000000000000000546000000001
0000011212100000000002010000000005500000000002240000000000667000000000101000000000008950000000000055000000000011000000000002800000000000165000000000152500000000004400000000000652000001005
0000011212500000000002010000000040800000000010490000000000527000000000049300000000011060000000000280000000000000000000000008330000000013413000000000818500000000017820000000001767640000001
0000011220000000000002010000000178300000000012825000000002020340000000142478000000012140000000001314000000000097000000000025540000000000549000000000108500000000015470000000001837000000000
0000011221200000000002010000000178300000000012825000000002020340000000142478000000012140000000001314000000000097000000000025540000000000549000000000108500000000015470000000001837000000001
0000011229900000000002010000000000000000000000000000000000000000000000000000000000000000000000000000000000000000000000000000000000000000000000000000000000000000000000000000000000000000000
0000011229900040000002010000000000000000000000000000000000000000000000000000000000000000000000000000000000000000000000000000000000000000000000000000000000000000000000000000000000000000001
0000012000000000000002010000000973429000000705028300000061927220000006299603000000638085800000062587940000006073837000000610116100000060479270000006104111000000607005800000165714050000000
0000012100000000000002010000000000000000000621317500000052958680000005241208000000539635000000053066240000005175459000000523952300000051914630000005182166000000521579600000157701350000000
0000012102900000000002010000000000000000000621317500000052958680000005241208000000539635000000053066240000005175459000000523952300000051914630000005182166000000521579600000157701350000000
0000012102907000000002010000000000000000000621317500000052958680000005241208000000539635000000053066240000005175459000000523952300000051914630000005182166000000521579600000157701350000050
0000012300000000000002010000000973429000000083710800000008968540000001058395000000098450800000009521700000000898378000000086163800000008564640000000921945000000085426200000008012700000001
0000013000000000000002010000027470559000004232445000000207266990000010090229000001070150600000111682510000045315326000002448842200000245530720000007816397000000734073200000131427990000000
0000013100000000000002010000001361025000000136102500000014517000000001451700000000145170000000013872000000001387200000000145170000000014517000000001451700000000138720000000013872000000000
0000013110000000000002010000001361025000000136102500000014517000000001451700000000145170000000013872000000001387200000000145170000000014517000000001451700000000138720000000013872000000000
0000013110000040000002010000001361025000000136102500000014517000000001451700000000145170000000013872000000001387200000000145170000000014517000000001451700000000138720000000013872000000001
0000013200000000000002010000026109534000004096342500000192749990000008638529000000924980600000097810510000043928126000002303672200000231013720000006364697000000595353200000117555990000000
0000013250000000000002010000002189297000000201363000000026231280000001912585000000237090100000021354140000002119293000000180880000000014727290000001316441000000103885300000005856440000000
0000013250100000000002010000000569326000000046970900000005831470000000489284000000060662300000005115400000000504101000000050903400000004799920000000428726000000034486200000002251620000000
0000013250102000000002010000000093352000000006413600000000932560000000100814000000016030200000001503540000000163700000000016914500000001408470000000141777000000012149600000000553810000000
0000013250102010000002010000000093352000000006413600000000932560000000100814000000016030200000001503540000000163700000000016914500000001408470000000141777000000012149600000000553810000031
0000013250103000000002010000000317993000000026094300000003108430000000241540000000026593600000001875330000000153663000000015212300000002027580000000188346000000016258700000001356510000000
0000013250103010000002010000000179464000000014936800000001756980000000137305000000016199100000001116530000000082050000000008230400000001337830000000128398000000011653200000001017020000000
0000013250103010100002010000000050588000000004042300000000468280000000037342000000005353200000000309660000000008265000000000358700000000650990000000065298000000005501500000000468390004510
0000013250103010200002010000000028264000000002384700000000289590000000018294000000001668300000000072430000000007791000000000875800000000072550000000004901000000000255400000000002350004503
0000013250103010400002010000000010046000000000799000000000095620000000007015000000000808000000000067550000000006635000000000633400000000066260000000006426000000000513600000000045920004710
0000013250103010500002010000000001674000000000148700000000011930000000001446000000000128000000000014260000000001392000000000127500000000012630000000001163000000000116800000000010690004510
0000013250103010800002010000000015538000000001470800000000115500000000013871000000001146500000000122400000000012720000000001218800000000103960000000010448000000000984900000000090150004760
0000013250103010900002010000000012384000000000998400000000121680000000009240000000001089600000000096240000000009576000000000964800000000077760000000007872000000000693600000000067800004720
0000013250103011000002010000000000000000000000000000000000000000000000000000000000000000000000000000000000000000000000000000000000000000000000000000000000000000000000000000000000000004710
0000013250103011100002010000000000000000000000000000000000000000000000000000000000000000000000000000000000000000000000000000000000000000000000000000000000000000000930700000000075320004710
0000013250103011200002010000000048048000000003854200000000467680000000035200000000004127200000000359610000000035671000000003509700000000269910000000023349000000001850000000000161820004590
0000013250103011400002010000000012922000000001238700000000186700000000014897000000001878300000000074380000000000000000000000541700000000083770000000008941000000000806700000000093740004521
0000013250103011600002010000000000000000000000000000000000000000000000000000000000000000000000000000000000000000000000000000000000000000000000000000000000000000000000000000000000840004520
0000013250103020000002010000000138529000000011157500000001351450000000104235000000010394500000000758800000000071613000000006981900000000689750000000059948000000004605500000000339490000000
0000013250103020100002010000000001389000000000111900000000013520000000000694000000000000000000000000000000000000000000000000000000000000000000000000000000000000000000000000000000000004190
0000013250103020200002010000000025589000000002071800000000243940000000020570000000000641300000000000000000000000000000000000237800000000102200000000004575000000000019900000000000000004011
0000013250103020300002010000000005555000000000409000000000055240000000002613000000000118900000000000000000000000000000000000057600000000015910000000001597000000000132000000000001190004050
0000013250103020500002010000000037663000000003049200000000372060000000028193000000003361200000000194470000000016658000000001647300000000133390000000013524000000001169000000000111020004111
0000013250103020600002010000000005707000000000466300000000047510000000003469000000000321900000000020850000000000460000000000073000000000004330000000000000000000000000000000000000000004160
0000013250103020800002010000000041562000000003364900000000410590000000031111000000003709200000000341110000000032541000000003217900000000260570000000026419000000002283500000000216870004303
0000013250103021000002010000000000421000000000034000000000004160000000000315000000000037600000000003460000000000329000000000032600000000002640000000000268000000000023100000000000350004011
0000013250103021100002010000000004624000000000374300000000045680000000003461000000000412700000000037950000000003620000000000358000000000028990000000002940000000000254000000000003810004011
0000013250103021200002010000000013088000000001059600000000129300000000009318000000000989300000000090990000000008679000000000858300000000069500000000007046000000000494500000000002790004090
0000013250103021300002010000000002283000000000164100000000023050000000004006000000000744600000000064650000000008819000000000449300000000068160000000003167000000000193900000000002930004050
0000013250103021400002010000000000648000000000052400000000006400000000000485000000000057800000000005320000000000507000000000050100000000004060000000000412000000000035600000000000530004011
0000013250110000000002010000000068536000000006484300000000859200000000059492000000006144800000000483700000000045261000000003779000000000258340000000022086000000001616500000000177430000000
0000013250110010000002010000000013727000000001174000000000150050000000011681000000001337300000000120390000000012215000000000958600000000065540000000005251000000000391800000000033720001038
0000013250110020000002010000000009663000000001149300000000173720000000012012000000001242800000000095470000000008614000000000737400000000050030000000004247000000000285300000000044840001064
0000013250110030000002010000000001247000000000125100000000009460000000001009000000000099500000000010860000000001028000000000110400000000009430000000000889000000000089300000000000000001020
0000013250110040000002010000000007015000000000557900000000066760000000004898000000000533300000000041370000000003870000000000308400000000022570000000002190000000000176800000000019110001067
0000013250110050000002010000000036884000000003478000000000459210000000029892000000002931900000000215610000000019534000000001664200000000110770000000009509000000000673300000000079760001021
0000013250111000000002010000000047148000000004527300000000751790000000057227000000006350400000000532690000000053591000000004982200000000343130000000020714000000001089900000000020570000000
0000013250111010000002010000000004274000000000339900000000048540000000004113000000000556700000000054160000000006030000000000507600000000034040000000003662000000000226300000000001630001001
0000013250111020000002010000000000000000000000000000000000014300000000004207000000000772500000000059250000000005398000000000437600000000027680000000001947000000000205500000000001530001016
0000013250111030000002010000000004679000000001105900000000323320000000020740000000001781400000000134510000000013919000000001274100000000138680000000013279000000000499700000000004090001014
0000013250111070000002010000000000460000000000036600000000004370000000000321000000000037000000000003090000000000542000000000051900000000003880000000000376000000000010600000000000000001036
0000013250111110000002010000000035746000000002866400000000346940000000026069000000003044900000000263450000000026086000000002557400000000123470000000000000000000000000000000000000000001070
0000013250111120000002010000000001989000000000178500000000014320000000001777000000000157900000000018230000000001616000000000153600000000015380000000001450000000000147800000000013090001071
0000013250111130000002010000000000000000000000000000000000000000000000000000000000000000000000000000000000000000000000000000000000000000000000000000000000000000000000000000000000230001059
0000013250199000000002010000000042297000000003451400000000179490000000030211000000005543300000000720140000000087886000000010015400000000762400000000055803000000003371500000000143300000000
0000013250199010000002010000000013306000000001082000000000134430000000010783000000001366800000000132620000000012695000000001263300000000103940000000010659000000000994300000000096950001005
0000013250199040000002010000000028070000000002275600000000037780000000018628000000004108300000000578750000000074478000000008126600000000604550000000040061000000001870700000000000000000000
0000013250199040100002010000000022653000000001834100000000019320000000018628000000004108300000000578750000000074478000000008126600000000604550000000040061000000001870700000000000000001017
0000013250199040200002010000000005417000000000441500000000018460000000000000000000000000000000000000000000000000000000000000000000000000000000000000000000000000000000000000000000000001009
0000013250199070000002010000000000921000000000093800000000007280000000000800000000000068200000000008770000000000713000000000625500000000053910000000005083000000000506500000000046350001050
0000013250200000000002010000001619971000000154392100000020399810000001423301000000176427800000016238740000001615192000000129976600000009927370000000887715000000069399100000003604820000000
0000013250299000000002010000001619971000000154392100000020399810000001423301000000176427800000016238740000001615192000000129976600000009927370000000887715000000069399100000003604820000000
0000013250299010000002010000001564822000000146372400000019578770000001343725000000166840400000015454210000001525334000000122231600000009140620000000803571000000062696100000003347430000000
0000013250299010100002010000000843508000000085969800000010429790000000712988000000089321100000007856360000000769096000000056204800000004546940000000467829000000049397500000003048890000001
0000013250299010200002010000000721314000000060402600000009148980000000630737000000077519300000007597850000000756238000000066026800000004593680000000335742000000013298600000000298540000001
0000013250299020000002010000000055149000000008019700000000821040000000079576000000009587400000000784530000000089858000000007745000000000786750000000084144000000006703000000000257390000000
0000013250299020100002010000000000000000000000000000000000000000000000000000000000000000000000000000000000000000000000000000000000000000000000000000000000000000000000000000000000000000001
0000013250299020200002010000000055149000000008019700000000821040000000079576000000009587400000000784530000000089858000000007745000000000786750000000084144000000006703000000000257390000001
0000013280000000000002010000023920237000003894979500000166518710000006725944000000687890500000076456370000041808833000002122792200000216286430000005048256000000491467900000111699550000000
0000013281000000000002010000023920237000003894979500000166518710000006725944000000687890500000076456370000041808833000002122792200000216286430000005048256000000491467900000111699550000000
0000013281001000000002010000005414496000001150079600000031638190000000000000000000000000000000004534250000012237669000000425251300000058013900000000000000000000000000000000026496680000050
0000013281002000000002010000003945270000000929251300000016247910000000000000000000000000000000000000000000008990623000000268241200000047233010000000000000000000000000000000015188940000050
0000013281003000000002010000002121840000000432376300000011279370000000000000000000000000000000001367670000004464532000000166629600000022283340000000000000000000000000000000010307650000050
0000013281006000000002010000004775161000000382643200000043842430000003431072000000361716200000035029270000004258649000000368839700000030148660000002633445000000253271600000024419530000050
0000013281007000000002010000000207092000000000000000000000000000000000000000000000000000000000000000000000000000000000000000000000000000000000000000000000000000000000000000000000000000050
0000013281008000000002010000003503700000000649320500000023950500000000168300000000000000000000003148500000007827000000000552012500000030676500000000000000000000000000000000012636000000050
0000013281009000000002010000003952678000000351308600000039560310000003126572000000326174300000032376680000004030360000000341817900000027931020000002414811000000238196300000022650750000050
0000016000000000000002010000000826750000000043260000000004008000000000714850000000061305000000008225000000000853900000000060730000000004526000000000259800000000032600000000016990000000000
0000016000200000000002010000000022250000000002710000000000373000000000020100000000003905000000000504000000000076900000000008880000000000421000000000022300000000003600000000000260000000000
0000016000299000000002010000000022250000000002710000000000373000000000020100000000003905000000000504000000000076900000000008880000000000421000000000022300000000003600000000000260000000001
0000016000300000000002010000000000000000000000000000000000000000000000010000000000000000000000000176000000000020000000000003000000000000100000000000010000000000002000000000000000000000000
0000016000301000000002010000000000000000000000000000000000000000000000010000000000000000000000000176000000000020000000000003000000000000100000000000010000000000002000000000000000000000001
0000016001700000000002010000000458000000000018900000000002095000000000308250000000051350000000003415000000000482000000000041650000000002805000000000178000000000018500000000003040000000001
0000016005000000000002010000000000000000000000000000000000000000000000000000000000000000000000000000000000000000000000000000000000000000000000000000000000000000000000000000013220000000001
0000016009900000000002010000000346500000000021650000000001540000000000376500000000006050000000004130000000000275000000000007200000000001200000000000049500000000008500000000000470000000000
0000016009900010000002010000000346500000000021650000000001540000000000376500000000006050000000004130000000000275000000000007200000000001200000000000049500000000008500000000000470000000001
0000017000000000000002010000167010139000014811186100001527642620000169945857000017481543700001501595590000168958821000017188165700001391197690000136074925000015350818600002337315080000000
0000017200000000000002010000166985047000014811186100001494858320000166667152000017153673200001468808540000164755861000016860295200001358410640000132796220000015022948100002304528030000000
0000017210000000000002010000066648054000009230254000000573853200000068077012000007625364200000709813210000088825851000007629597100000553219070000064091512000006537869000001297589290000000
0000017210100000000002010000060452930000007750538700000485762350000058544762000006640961000000611667310000079016448000005358968800000461319170000054254620000005284387700001013110810000000
0000017210102000000002010000060452133000007749800700000485572500000058503231000006636181900000611667310000047240578000005357645300000449861760000050982177000005243874000000701361010000000
0000017210102010000002010000036271280000004649880300000291343490000035101938000003981709100000367000370000028344347000003214587200000269917040000030589306000003146324500000420816610000001
0000017210102020000002010000003022607000000387490100000024278630000002925162000000331809100000030583370000002362029000000267882200000022493100000002549109000000262193600000035068050000020
0000017210102040000002010000009067820000001162470100000072835880000008775485000000995427300000091750100000007086087000000803646800000067479270000007647326000000786581100000105204150000040
0000017210102060000002010000012090426000001549960200000097114500000011700646000001327236400000122333470000009448115000001071529100000089972350000010196436000001048774800000140272200000031
0000017210103000000002010000000000000000000000000000000000000000000000000000000000000000000000000000000000000000000000000000000000000000000000000000000000000000000000000000307589820000000
0000017210103010000002010000000000000000000000000000000000000000000000000000000000000000000000000000000000000000000000000000000000000000000000000000000000000000000000000000184553890000001
0000017210103020000002010000000000000000000000000000000000000000000000000000000000000000000000000000000000000000000000000000000000000000000000000000000000000000000000000000076897460000020
0000017210103030000002010000000000000000000000000000000000000000000000000000000000000000000000000000000000000000000000000000000000000000000000000000000000000000000000000000046138470000040
0000017210104000000002010000000000000000000000000000000000000000000000000000000000000000000000000000000000031735091000000000000000000000000000000000000000000000000000000000000000000000000
0000017210104010000002010000000000000000000000000000000000000000000000000000000000000000000000000000000000019041054000000000000000000000000000000000000000000000000000000000000000000000001
0000017210104020000002010000000000000000000000000000000000000000000000000000000000000000000000000000000000007933773000000000000000000000000000000000000000000000000000000000000000000000020
0000017210104030000002010000000000000000000000000000000000000000000000000000000000000000000000000000000000004760264000000000000000000000000000000000000000000000000000000000000000000000040
0000017210105000000002010000000000797000000000738000000000189850000000041531000000004779100000000000000000000040779000000001323500000011457410000003272443000000040513700000004159980000000
0000017210105010000002010000000000478000000000442800000000113920000000024919000000002867500000000000000000000024467000000000794100000006874440000001963466000000024308200000002495980000001
0000017210105020000002010000000000040000000000036900000000009490000000002076000000000238900000000000000000000002039000000000066100000000572880000000163622000000002025700000000208000000020
0000017210105030000002010000000000120000000000110700000000028470000000006229000000000716900000000000000000000006117000000000198500000001718610000000490867000000006077100000000624000000040
0000017210105040000002010000000000159000000000147600000000037970000000008307000000000955800000000000000000000008156000000000264800000002291480000000654488000000008102700000000832000000031
0000017212200000000002010000000575972000000076871600000007433170000000641523000000063463600000006249610000000674163000000063250300000006408530000000648995000000069796300000007534590000000
0000017212270000000002010000000575972000000076871600000007433170000000641523000000063463600000006249610000000674163000000063250300000006408530000000648995000000069796300000007534590000001
0000017213300000000002010000002524581000000833396800000048290280000005859240000000585924000000058592400000005844030000001888898000000054724520000005834678000000827397100000091301360000000
0000017213301000000002010000001519933000000151993300000015199330000001519933000000151993300000015199330000001519933000001401993300000015199330000001519933000000151993300000015199330004510
0000017213302000000002010000000000000000000191300000000007130000000001113000000000111300000000011130000000001113000000000111300000000011130000000001113000000000111300000000011130000004520
0000017213303000000002010000000000000000000283920000000007098000000001622400000000162240000000016224000000001622400000000152100000000015210000000001521000000000162240000000031434000004520
0000017213304000000002010000000000000000000089200000000002230000000000446000000000044600000000004460000000000446000000000044600000000004460000000000446000000000044600000000004460000004520
0000017213306000000002010000000158739000000014352900000001435290000000143529000000014352900000001435290000000128319000000015873900000001435290000000000000000000028705800000001587390004710
0000017213307000000002010000000000000000000000000000000000000000000000000000000000000000000000000000000000000000000000000000000000000000000000000000000000000000000000000000000662370004720
0000017213308000000002010000000000000000000000000000000000000000000000000000000000000000000000000000000000000000000000000000000000000000000000000000000000000000000000000000002337630004720
0000017213311000000002010000000000000000000000000000000000000000000000000000000000000000000000000000000000000000000000000061593000000000000000000000000000000000000000000000000000000004710
0000017213312000000002010000000845909000000028899000000002889900000000288990000000028899000000002889900000000288990000000028899000000002889900000000178619000000057798000000005779800004710
0000017213313000000002010000000000000000000028538800000005707760000000285388000000028538800000002853880000000285388000000028538800000000000000000000616126000000000000000000006161260004503
0000017213316000000002010000000000000000000000000000000000000000000000000000000000000000000000000000000000000000000000000000000000000000000000000000000000000000066760000000000000000004520
0000017213317000000002010000000000000000000001192800000000000000000000000000000000000000000000000000000000000000000000000000000000000000000000000000000000000000000000000000000000000004520
0000017213319000000002010000000000000000000044000000000006600000000000440000000000044000000000004400000000000440000000000044000000000004400000000000440000000000044000000000004400000004521
0000017213320000000002010000000000000000000000000000000000000000000000000000000000000000000000000000000000000000000000000000000000000000000000000000000000000000080000000000000000000004520
0000017213321000000002010000000000000000000000000000000000000000000000000000000000000000000000000000000000000000000000000000000000000000000000000000000000000000080000000000008000000004520
0000017213322000000002010000000000000000000000000000000000000000000000000000000000000000000000000000000000000000000000000000000000000000000000000000000000000000000000000000000149580004590
0000017213400000000002010000001286666000000250300000000001430000000000000000000000028600000000002860000000000143000000000014300000000000000000000000286000000000049941200000113780370000000
0000017213401000000002010000000143000000000014300000000001430000000000000000000000028600000000002860000000000143000000000014300000000000000000000000286000000000014300000000001430000001038
0000017213402000000002010000000000000000000000000000000000000000000000000000000000000000000000000000000000000000000000000000000000000000000000000000000000000000035641200000008921760001067
0000017213404000000002010000000000000000000120000000000000000000000000000000000000000000000000000000000000000000000000000000000000000000000000000000000000000000000000000000048000000001064
0000017213405000000002010000001143666000000116000000000000000000000000000000000000000000000000000000000000000000000000000000000000000000000000000000000000000000000000000000055428610001021
0000017213500000000002010000001452941000000283650500000027387760000002676523000000270919200000026894250000002793246000000268683600000027217210000002712255000000270850300000028042530000000
0000017213501000000002010000001452941000000283650500000016574290000001595176000000162784500000016080780000001657899000000160548900000016403740000001630908000000162715600000016310360001014
0000017213502000000002010000000000000000000000000000000000000000000000000000000000000000000000000000000000000054000000000000000000000000000000000000000000000000000000000000000540000001036
0000017213503000000002010000000000000000000000000000000006038000000000603800000000060380000000006038000000000603800000000060380000000006038000000000603800000000060380000000006038000000000
0000017213503010000002010000000000000000000000000000000002390400000000239040000000023904000000002390400000000239040000000023904000000002390400000000239040000000023904000000002390400001001
0000017213503020000002010000000000000000000000000000000002054400000000205440000000020544000000002054400000000205440000000020544000000002054400000000205440000000020544000000002054400001031
0000017213503030000002010000000000000000000000000000000001356800000000135680000000013568000000001356800000000135680000000013568000000001356800000000135680000000013568000000001356800001033
0000017213503040000002010000000000000000000000000000000000172800000000017280000000001728000000000172800000000017280000000001728000000000172800000000017280000000001728000000000172800001059
0000017213503060000002010000000000000000000000000000000000063600000000006360000000000636000000000063600000000006360000000000636000000000063600000000006360000000000636000000000063600001071
0000017213504000000002010000000000000000000000000000000004775470000000477547000000047754700000004775470000000477547000000047754700000004775470000000477547000000047754700000004775370001016
0000017213506000000002010000000000000000000000000000000000000000000000000000000000000000000000000000000000000000000000000000000000000000000000000000000000000000000000000000000378800001013
0000017213600000000002010000000354964000000035496400000003549640000000354964000000035496400000003549640000000354964000000035496400000003549640000000354964000000035496400000003549640000000
0000017213600010000002010000000212978000000021297800000002129780000000212978000000021297800000002129780000000212978000000021297800000002129780000000212978000000021297800000002129780000001
0000017213600020000002010000000017748000000001774800000000177480000000017748000000001774800000000177480000000017748000000001774800000000177480000000017748000000001774800000000177480000020
0000017213600040000002010000000053245000000005324500000000532450000000053245000000005324500000000532450000000053245000000005324500000000532450000000053245000000005324500000000532450000040
0000017213600050000002010000000070993000000007099300000000709930000000070993000000007099300000000709930000000070993000000007099300000000709930000000070993000000007099300000000709930000031
0000017219900000000002010000000000000000000000000000000000000000000000000000000000000000000000000000000000000000000000000000000000000000000000000000000000000000000000000000040269990000000
0000017219900600000002010000000000000000000000000000000000000000000000000000000000000000000000000000000000000000000000000000000000000000000000000000000000000000000000000000040269990000001
0000017220000000000002010000074588280000003996001300000683370900000076213780000007168395800000556445680000057222165000007258245400000612052870000048984319000006422644800000801176490000000
0000017220100000000002010000074388280000003975276400000607930150000074325842000007045412000000519792710000057216816000006532433600000612034660000048979301000006402644800000771584640000000
0000017220101000000002010000062068524000003652683200000559269660000058709294000006434865500000494989000000055120308000006374691300000600015290000047065062000006263496100000722439000000000
0000017220101010000002010000037241112000002191609900000335561800000035225576000003860919200000296993390000033072185000003824814700000360009170000028239037000003758097600000433463390000001
0000017220101020000002010000003103427000000182634200000027963480000002935464000000321743300000024749450000002756015000000318734600000030000770000002353253000000313174800000036121950000020
0000017220101040000002010000009310280000000547902400000083890450000008806395000000965229800000074248350000008268046000000956203700000090002290000007059759000000939524400000108365850000040
0000017220101050000002010000012413705000000730536700000111853930000011741859000001286973200000098997810000011024062000001274938300000120003060000009413013000001252699300000144487810000031
0000017220102000000002010000010927529000000245116500000043328590000014228054000000528953200000016960100000000823686000000064400600000004040220000000393744000000029419800000038304080000000
0000017220102010000002010000006556512000000147069600000025997150000008536830000000317371600000010176040000000494205000000038640100000002424110000000236243000000017651700000022982470000001
0000017220102020000002010000000546378000000012255900000002166420000000711404000000026447600000000847990000000041187000000003220000000000202020000000019689000000001471100000001915180000020
0000017220102030000002010000001639130000000036767600000006499280000002134208000000079343100000002544020000000123555000000009660100000000606040000000059063000000004413000000005745590000040
0000017220102040000002010000002185509000000049023400000008665740000002845612000000105790900000003392050000000164739000000012880400000000808050000000078749000000005884000000007660840000031
0000017220104000000002010000000889101000000077476700000005331900000000918800000000081593300000007843610000000769671000000093341700000007979150000000994099000000109728900000010841560000000
0000017220104010000002010000000533461000000046485900000003199130000000551280000000048956100000004706140000000461803000000056005000000004787470000000596459000000065837300000006504920000001
0000017220104020000002010000000044454000000003873900000000266600000000045940000000004079600000000392190000000038484000000004667100000000398970000000049705000000005486400000000542090000020
0000017220104040000002010000000133365000000011621500000000799790000000137820000000012238900000001176550000000115450000000014001200000001196880000000149115000000016459400000001626240000040
0000017220104050000002010000000177821000000015495400000001066380000000183760000000016318700000001568730000000153934000000018668400000001595830000000198820000000021945800000002168310000031
0000017220113000000002010000000503126000000000000000000000000000000000469694000000000000000000000000000000000503151000000000000000000000000000000000526396000000000000000000000000000001018
0000017223300000000002010000000200000000000020000000000075440750000001880062000000121362000000036652970000000000000000000725811800000000000000000000000000000000020000000000029591850000000
0000017223301000000002010000000000000000000000000000000024163510000000000000000000121362000000012132350000000000000000000242599400000000000000000000000000000000000000000000012271230004011
0000017223301050202002010000000000000000000000000000000010440000000000648000000000000000000000007200000000000000000000000136800000000000000000000000000000000000000000000000000000000004050
0000017223302000000002010000000000000000000000000000000020000000000000500000000000000000000000010000000000000000000000000200000000000000000000000000000000000000000000000000014000000004090
0000017223303000000002010000000000000000000000000000000014196000000000000000000000000000000000000000000000000000000000000000000000000000000000000000000000000000000000000000000000000004090
0000017223305000000002010000000000000000000000000000000000000000000000000000000000000000000000000000000000000000000000000000000000000000000000000000000000000000000000000000000000000004190
0000017223306000000002010000000000000000000000000000000002641240000000132062000000000000000000001320620000000000000000000026412400000000000000000000000000000000000000000000001320620004050
0000017223310000000002010000000200000000000020000000000004000000000000200000000000000000000000002000000000000000000000000040000000000000000000000000000000000000020000000000002000000004160
0000017223312000000002010000000000000000000000000000000000000000000000400000000000000000000000004000000000000000000000000080000000000000000000000000000000000000000000000000000000000004090
0000017229900000000002010000000000000000000000724900000000000000000000007876000000001621800000000000000000000005349000000000000000000000018210000000005018000000000000000000000000000000000
0000017229900030000002010000000000000000000000724900000000000000000000007876000000001621800000000000000000000005349000000000000000000000018210000000005018000000000000000000000000000001114
0000017240000000000002010000025748713000001584930800000237634220000022376360000002359913200000202549650000018707845000001972452700000193138700000019720389000002062434300000205762250000000
0000017240100000000002010000025748713000001584930800000237634220000022376360000002359913200000202549650000018707845000001972452700000193138700000019720389000002062434300000205762250000031
0000017500000000000002010000000000000000000000000000000000000000000000000000000000000000000000000000000000000924255000000000000000000000000000000000000000000000000000000000000000000000000
0000017500000010000002010000000000000000000000000000000000000000000000000000000000000000000000000000000000000924255000000000000000000000000000000000000000000000000000000000000000000001050
0000017600000000000002010000000025092000000000000000000032784300000003278705000000327870500000032787050000003278705000000327870500000032787050000003278705000000327870500000032787050000000
0000017620000000000002010000000025092000000000000000000032784300000003278705000000327870500000032787050000003278705000000327870500000032787050000003278705000000327870500000032787050000000
0000017620200000000002010000000025092000000000000000000032784300000003278705000000327870500000032787050000003278705000000327870500000032787050000003278705000000327870500000032787050000000
0000017620200010000002010000000025092000000000000000000032784300000003278705000000327870500000032787050000003278705000000327870500000032787050000003278705000000327870500000032787050000000
0000017620200010100002010000000000000000000000000000000032784300000003278705000000327870500000032787050000003278705000000327870500000032787050000003278705000000327870500000032787050001017
0000017620200010200002010000000025092000000000000000000000000000000000000000000000000000000000000000000000000000000000000000000000000000000000000000000000000000000000000000000000000001009
0000019000000000000002010000000980294000000182785000000024677500000004166854000000549668800000017289060000006195769000000124300500000029696970000001757991000001130739600000119936770000000
0000019100000000000002010000000158896000000005726200000006561420000000559726000000206607700000003427200000000374888000000044907300000015099960000000586792000000188164600000045369530000000
0000019110000000000002010000000020945000000000768500000000165670000000015090000000001082900000000149060000000032831000000009390400000000962080000000068480000000008793200000001837910000000
0000019113500000000002010000000000000000000000000000000000000000000000000000000000000000000000000000000000000000000000000000000000000000000000000000005285000000001675300000000057450000001
0000019113800000000002010000000000000000000000000000000000000000000000000000000000000000000000000044510000000030110000000005055700000000755100000000038682000000005966900000001621900000000
0000019113800010000002010000000000000000000000000000000000000000000000000000000000000000000000000026700000000018065000000003033100000000453030000000023207000000003580100000000973090000001
0000019113800020000002010000000000000000000000000000000000000000000000000000000000000000000000000011130000000007529000000001264400000000188800000000009672000000001491700000000405510000020
0000019113800030000002010000000000000000000000000000000000000000000000000000000000000000000000000006680000000004516000000000758200000000113270000000005803000000000895100000000243300000040
0000019114000000000002010000000020945000000000768500000000164290000000015090000000001075900000000103500000000002721000000004334700000000206980000000024513000000001151000000000158560000000
0000019114000010000002010000000012567000000000461200000000098570000000009054000000000645500000000062100000000001633000000002600800000000124180000000014708000000000690400000000095120000001
0000019114000020000002010000000005236000000000192100000000041070000000003773000000000269000000000025880000000000680000000001083700000000051750000000006128000000000287900000000039650000020
0000019114000030000002010000000003142000000000115200000000024650000000002263000000000161400000000015520000000000408000000000650200000000031050000000003677000000000172700000000023790000040
0000019119900000000002010000000000000000000000000000000000001380000000000000000000000007000000000001050000000000000000000000000000000000000000000000000000000000000000000000000000000000000
0000019119901000000002010000000000000000000000000000000000001380000000000000000000000007000000000001050000000000000000000000000000000000000000000000000000000000000000000000000000000000000
0000019119901010000002010000000000000000000000000000000000001380000000000000000000000007000000000001050000000000000000000000000000000000000000000000000000000000000000000000000000000000001
0000019130000000000002010000000130715000000004851800000006371330000000519860000000199379500000003278140000000335773000000033988500000012977140000000246171000000172203400000037378840000000
0000019131100000000002010000000114148000000004520000000006206700000000432371000000035320700000003195520000000195227000000030882500000012187880000000186394000000036226500000035412250000000
0000019131100010000002010000000068483000000002711500000003723870000000259412000000021192100000001917200000000117129000000018528700000007312630000000111824000000021735300000021247110000001
0000019131100020000002010000000028541000000001130200000001551780000000108102000000008830700000000798970000000048811000000007721200000003047050000000046608000000009057100000008853250000020
0000019131100030000002010000000017124000000000678300000000931050000000064857000000005297900000000479350000000029287000000004632600000001828200000000027962000000005434100000005311890000040
0000019131300000000002010000000000000000000000000000000000000000000000000000000000155866500000000020820000000009080000000000208200000000026410000000001388000000128639900000000076330000000
0000019131300010000002010000000000000000000000000000000000000000000000000000000000093519900000000012490000000005447000000000124900000000015850000000000833000000077183800000000045800000001
0000019131300020000002010000000000000000000000000000000000000000000000000000000000038966600000000005210000000002271000000000052100000000006600000000000347000000032160100000000019080000020
0000019131300030000002010000000000000000000000000000000000000000000000000000000000023380000000000003120000000001362000000000031200000000003960000000000208000000019296000000000011450000040
0000019133500000000002010000000016567000000000331800000000164630000000087489000000008192300000000061800000000131466000000002897800000000762850000000058389000000007337000000001850320000001
0000019139900000000002010000000000000000000000000000000000000000000000000000000000000000000000000000000000000000000000000000000000000000000000000000000000000000000000000000000039940000000
0000019139900010000002010000000000000000000000000000000000000000000000000000000000000000000000000000000000000000000000000000000000000000000000000000000000000000000000000000000039940000001
0000019150000000000002010000000004967000000000000000000000006680000000023325000000003517600000000000000000000006284000000000560900000000836940000000272141000000007168000000006152780000000
0000019159900000000002010000000004967000000000000000000000006680000000023325000000003517600000000000000000000006284000000000560900000000836940000000272141000000007168000000006152780000000
0000019159901000000002010000000004967000000000000000000000006680000000023325000000003517600000000000000000000006284000000000560900000000836940000000272141000000007168000000006152780000000
0000019159901010000002010000000000000000000000000000000000000000000000018281000000000000000000000000000000000000000000000000000000000000773130000000006413000000000675100000000223650000001
0000019159901020000002010000000004967000000000000000000000006680000000005044000000003517600000000000000000000006284000000000560900000000063810000000265728000000006492900000005618580000001
0000019159901090000002010000000000000000000000000000000000000000000000000000000000000000000000000000000000000000000000000000000000000000000000000000000000000000000000000000000212660000001
0000019159901100000002010000000000000000000000000000000000000000000000000000000000000000000000000000000000000000000000000000000000000000000000000000000000000000000000000000000097890000001
0000019180000000000002010000000002269000000000105900000000017740000000001451000000000239000000000000000000000000000000000000967500000000323800000000000000000000000000000000000000000000000
0000019180100000000002010000000002269000000000105900000000017740000000001451000000000096800000000000000000000000000000000000967500000000323800000000000000000000000000000000000000000000001
0000019189900000000002010000000000000000000000000000000000000000000000000000000000000142200000000000000000000000000000000000000000000000000000000000000000000000000000000000000000000000001
0000019190000000000002010000000000000000000000000000000000000000000000000000000000002388700000000000000000000000000000000000000000000000000000000000000000000000000000000000000000000000000
0000019192700000000002010000000000000000000000000000000000000000000000000000000000001178700000000000000000000000000000000000000000000000000000000000000000000000000000000000000000000000001
0000019195000000000002010000000000000000000000000000000000000000000000000000000000001210000000000000000000000000000000000000000000000000000000000000000000000000000000000000000000000000001
0000019200000000000002010000000200071000000123876200000003499240000002094303000000049093300000002335540000000257598000000023198900000003112790000000321776000000031523800000003063890000000
0000019210000000000002010000000022035000000002203600000000220360000000000000000000000000000000000043800000000014792000000001826700000000203960000000009984000000000520600000000052070000000
0000019219900000000002010000000022035000000002203600000000220360000000000000000000000000000000000043800000000014792000000001826700000000203960000000009984000000000520600000000052070000000
0000019219901000000002010000000022035000000002203600000000220360000000000000000000000000000000000043800000000014792000000001826700000000203960000000009984000000000520600000000052070000001
0000019220000000000002010000000178036000000121672600000003278880000002094303000000049093300000002291740000000242806000000021372200000002908830000000311792000000031003200000003011820000000
0000019220100000000002010000000000000000000000000000000000000000000000000000000000000000000000000188730000000000000000000000000000000000000000000000000000000000000000000000000000000000000
0000019220101000000002010000000000000000000000000000000000000000000000000000000000000000000000000188730000000000000000000000000000000000000000000000000000000000000000000000000000000000001
0000019220700000000002010000000000000000000000000000000001356470000000000000000000006407000000000000000000000000000000000000000000000000000000000000000000000000000000000000000000000000000
0000019220701000000002010000000000000000000000000000000001356470000000000000000000006407000000000000000000000000000000000000000000000000000000000000000000000000000000000000000000000000001
0000019229900000000002010000000178036000000121672600000001922410000002094303000000042686300000002103010000000242806000000021372200000002908830000000311792000000031003200000003011820000000
0000019229900020000002010000000000000000000000000000000000000000000001858500000000021000000000000000000000000000000000000000000000000000000000000000000000000000000000000000000000000000001
0000019229900040000002010000000000000000000108509300000000000000000000000000000000000000000000000000000000000000000000000000000000000000171530000000017152000000001715200000000171520000001
0000019229900070000002010000000178036000000013163300000001922410000000235803000000021686300000002103010000000242806000000021372200000002737300000000294640000000029288000000002840300000000
0000019229900070400002010000000178036000000013163300000001922410000000235803000000021686300000002103010000000242806000000021372200000002737300000000294640000000029288000000002840300000001
0000019300000000000002010000000467181000000017756000000011193540000001143352000000222680800000006851660000000603810000000050169900000009211890000000563507000000213918400000060504990000000
0000019310000000000002010000000450349000000017756000000011174440000001105353000000221508900000006851660000000597785000000049727300000008957000000000508132000000210249700000058514750000000
0000019311100000000002010000000394731000000016446000000010744420000000941322000000074989200000006736360000000514584000000047582000000007912130000000389344000000068042300000055098450000000
0000019311100010000002010000000236832000000009867300000006446530000000564767000000044992200000004041680000000308745000000028548300000004747210000000233600000000040824300000033058620000001
0000019311100020000002010000000098687000000004111900000002686210000000235348000000018748200000001684180000000128650000000011896200000001978110000000097341000000017011600000013774910000020
0000019311100030000002010000000059212000000002466800000001611680000000141207000000011248800000001010500000000077189000000007137500000001186810000000058403000000010206400000008264920000040
0000019311300000000002010000000000000000000000000000000000000000000000004800000000127388200000000029180000000004626000000000291800000000149910000000020597000000126331400000000784320000000
0000019311300010000002010000000000000000000000000000000000000000000000002880000000076432800000000017500000000002775000000000175000000000089940000000012356000000075798500000000470590000001
0000019311300020000002010000000000000000000000000000000000000000000000001200000000031847200000000007300000000001157000000000073000000000037480000000005150000000031583100000000196080000020
0000019311300030000002010000000000000000000000000000000000000000000000000720000000019108200000000004380000000000694000000000043800000000022490000000003091000000018949800000000117650000040
0000019313500000000002010000000055618000000001310000000000430020000000159231000000019131500000000086120000000078575000000001853500000000795010000000098191000000015876000000002602730000001
0000019319900000000002010000000000000000000000000000000000000000000000000000000000000000000000000000000000000000000000000000000000000000099950000000000000000000000000000000000029250000000
0000019319901000000002010000000000000000000000000000000000000000000000000000000000000000000000000000000000000000000000000000000000000000099950000000000000000000000000000000000029250000000
0000019319901010000002010000000000000000000000000000000000000000000000000000000000000000000000000000000000000000000000000000000000000000099950000000000000000000000000000000000029250000000
0000019319901010100002010000000000000000000000000000000000000000000000000000000000000000000000000000000000000000000000000000000000000000099950000000000000000000000000000000000029250000001
0000019320000000000002010000000016832000000000000000000000019100000000037999000000001171900000000000000000000006025000000000442600000000254890000000055375000000003668700000001990240000000
0000019329900000000002010000000016832000000000000000000000019100000000037999000000001171900000000000000000000006025000000000442600000000254890000000055375000000003668700000001990240000000
0000019329901000000002010000000016832000000000000000000000019100000000037999000000001171900000000000000000000006025000000000442600000000254890000000055375000000003668700000001990240000000
0000019329901010000002010000000000000000000000000000000000000000000000033120000000000000000000000000000000000000000000000000000000000000236510000000010087000000001008700000000152850000001
0000019329901040000002010000000000000000000000000000000000000000000000000000000000000000000000000000000000000000000000000000000000000000000000000000007870000000000000000000000000000000001
0000019329901050000002010000000016832000000000000000000000000000000000004879000000001171900000000000000000000004425000000000442600000000000000000000035784000000000000000000001329120000001
0000019329901060000002010000000000000000000000000000000000019100000000000000000000000000000000000000000000000001600000000000000000000000018380000000001634000000001500000000000000000000001
0000019329901070000002010000000000000000000000000000000000000000000000000000000000000000000000000000000000000000000000000000000000000000000000000000000000000000001160000000000000000000001
0000019329901090000002010000000000000000000000000000000000000000000000000000000000000000000000000000000000000000000000000000000000000000000000000000000000000000000000000000000040000000001
0000019329901100000002010000000000000000000000000000000000000000000000000000000000000000000000000000000000000000000000000000000000000000000000000000000000000000000000000000000468270000001
0000019900000000000002010000000154146000000035426600000003423300000000369473000000071287000000004674660000004959473000000006024400000002272330000000285916000000697132800000010998360000000
0000019909800000000002010000000154146000000035426600000003423300000000369473000000043988800000004303910000000677873000000006024400000002272330000000285916000000044019000000007568360000000
0000019909801000000002010000000154146000000035426600000003423300000000369473000000043988800000004303910000000677873000000006024400000002272330000000285916000000044019000000007568360000001
0000019909900000000002010000000000000000000000000000000000000000000000000000000000027298200000000370750000004281600000000000000000000000000000000000000000000000653113800000003430000000000
0000019909900500000002010000000000000000000000000000000000000000000000000000000000000000000000000000000000000000000000000000000000000000000000000000000000000000653113800000000000000000000
0000019909900500100002010000000000000000000000000000000000000000000000000000000000000000000000000000000000000000000000000000000000000000000000000000000000000000653113800000000000000000001
0000019909900990100002010000000000000000000000000000000000000000000000000000000000000000000000000000000000004281600000000000000000000000000000000000000000000000000000000000003430000000001
0000019909900990200002010000000000000000000000000000000000000000000000000000000000027298200000000370750000000000000000000000000000000000000000000000000000000000000000000000000000000000001
0000020000000000000002010000035919498000000081083100000008753050000000752285000000080334900000006173320000023828439000000066898400000005938110000000509034000000037405300000110536040000000
0000022000000000000002010000000000000000000000000000000000000000000000000000000000000000000000000000000000013415000000000000000000000000000000000000000000000000000000000000108030000000000
0000022100000000000002010000000000000000000000000000000000000000000000000000000000000000000000000000000000013415000000000000000000000000000000000000000000000000000000000000108030000000000
0000022190000000000002010000000000000000000000000000000000000000000000000000000000000000000000000000000000013415000000000000000000000000000000000000000000000000000000000000108030000000000
0000022190000010000002010000000000000000000000000000000000000000000000000000000000000000000000000000000000004340000000000000000000000000000000000000000000000000000000000000000000000000000
0000022190000010200002010000000000000000000000000000000000000000000000000000000000000000000000000000000000001560000000000000000000000000000000000000000000000000000000000000000000000001011
0000022190000010300002010000000000000000000000000000000000000000000000000000000000000000000000000000000000002780000000000000000000000000000000000000000000000000000000000000000000000004002
0000022190000020000002010000000000000000000000000000000000000000000000000000000000000000000000000000000000009075000000000000000000000000000000000000000000000000000000000000108030000001010
0000024000000000000002010000035000000000000000000000000000000000000000000000000000000000000000000000000000009750000000000000000000000000000000000000000000000000000000000000000000000000000
0000024200000000000002010000035000000000000000000000000000000000000000000000000000000000000000000000000000000000000000000000000000000000000000000000000000000000000000000000000000000000000
0000024210000000000002010000035000000000000000000000000000000000000000000000000000000000000000000000000000000000000000000000000000000000000000000000000000000000000000000000000000000000000
0000024210100000000002010000035000000000000000000000000000000000000000000000000000000000000000000000000000000000000000000000000000000000000000000000000000000000000000000000000000000000000
0000024210101000000002010000035000000000000000000000000000000000000000000000000000000000000000000000000000000000000000000000000000000000000000000000000000000000000000000000000000000004931
0000024700000000000002010000000000000000000000000000000000000000000000000000000000000000000000000000000000009750000000000000000000000000000000000000000000000000000000000000000000000000000
0000024710000000000002010000000000000000000000000000000000000000000000000000000000000000000000000000000000009750000000000000000000000000000000000000000000000000000000000000000000000000000
0000024710500000000002010000000000000000000000000000000000000000000000000000000000000000000000000000000000000000000000000000000000000000000000000000000000000000000000000000000000000000000
0000024710503000000002010000000000000000000000000000000000000000000000000000000000000000000000000000000000000000000000000000000000000000000000000000000000000000000000000000000000000001201
0000024719900000000002010000000000000000000000000000000000000000000000000000000000000000000000000000000000009750000000000000000000000000000000000000000000000000000000000000000000000000000
0000024719906000000002010000000000000000000000000000000000000000000000000000000000000000000000000000000000009750000000000000000000000000000000000000000000000000000000000000000000000001202
0000025000000000000002010000000919498000000081083100000008753050000000752285000000080334900000006173320000000663439000000066898400000005938110000000509034000000037405300000002506040000000
0000025900000000000002010000000919498000000081083100000008753050000000752285000000080334900000006173320000000663439000000066898400000005938110000000509034000000037405300000002506040000000
0000025900000020000002010000000919498000000081083100000008753050000000752285000000080334900000006173320000000663439000000066898400000005938110000000509034000000037405300000002506040000000
0000025900000020100002010000000007387000000000658300000000052610000000006398000000000560800000000058980000000006025000000000595000000000054360000000005124000000000514800000000047130001065
0000025900000020200002010000000124578000000011581900000000924370000000120157000000009262900000001062470000000069970000000006671700000000633350000000043262000000004078300000000373310001039
0000025900000020400002010000000014323000000001404700000000106940000000012723000000001084000000000129100000000011965000000001165700000000113280000000010418000000001038900000000095100004935
0000025900000020600002010000000096155000000009356400000000732870000000074949000000007342400000000575680000000054623000000005679500000000500390000000047171000000004739200000000098290001022
0000025900000020800002010000000315386000000025317600000003084540000000232745000000027397700000002299910000000190911000000018399300000001418120000000122966000000010399900000000794140004931
0000025900000020900002010000000087195000000003507800000000284350000000035114000000002811300000000191450000000018818000000001859300000000168160000000015852000000001592700000000042400001024
0000025900000021200002010000000193822000000029176500000003560960000000269422000000031807000000002691300000000230815000000022558600000001747090000000159784000000013283500000001015740004931
00000259000000213000020100000000806520000000000799000000000064100000000007770000000000688-0000000835570000000000000000000000000000000000000000000000000000000000000000000000000000000001023
0000025900000021400002010000000000000000000000000000000000000000000000000000000000000000000000000000000000000000000000000000000000000000505000000000047606000000000304100000000027840001202
0000025900000021500002010000000000000000000000000000000000000000000000000000000000000000000000000000000000000031278000000001863100000000002000000000000181000000000000000000000000000001202
0000025900000021800002010000000000000000000000000000000000000000000000000000000000000000000000000000000000000040497000000006036300000000477720000000047920000000001242000000000012090001010
0000025900000021900002010000000000000000000000000000000000000000000000000000000000000000000000000000000000000008537000000001208800000000090210000000008750000000000211900000000000000004002
0000025900000022000002010000000000000000000000000000000000000000000000000000000000000000000000000000000000000000000000000000861100000000228430000000000000000000000000000000000000000001011
0000070000000000000002010000012347376000001635944300000138016790000013795842000001411350400000138030370000013629749000001379967400000135566870000013562837000001361060700000412158290000000
0000072000000000000002010000012347376000001635944300000138016790000013795842000001411350400000138030370000013629749000001379967400000135566870000013562837000001361060700000412158290000000
0000072100000000000002010000012347376000001635944300000138016790000013795842000001411350400000138030370000013629749000001379967400000135566870000013562837000001361060700000412158290000000
0000072102900000000002010000012347376000001635944300000138016790000013795842000001411350400000138030370000013629749000001379967400000135566870000013562837000001361060700000412158290000000
0000072102901000000002010000000000000000000765903700000064615660000006458834000000660755500000064622030000006381069000000646062400000063468700000006349747000000637211600000192961210000050
0000072102913000000002010000000000000000000870040600000073401130000007337008000000750594900000073408340000007248680000000733905000000072098170000007213090000000723849100000219197080000050
0000072102915000000002010000012347376000000000000000000000000000000000000000000000000000000000000000000000000000000000000000000000000000000000000000000000000000000000000000000000000000050
0000080000000000000002010000000000000000000000000000000000000000000000000000000000000000000000000000000000000000000000000300000000000000000000000000000000000000000000000000012000000000000
0000082000000000000002010000000000000000000000000000000000000000000000000000000000000000000000000000000000000000000000000300000000000000000000000000000000000000000000000000012000000000000
0000082100000000000002010000000000000000000000000000000000000000000000000000000000000000000000000000000000000000000000000300000000000000000000000000000000000000000000000000012000000000000
0000082190000000000002010000000000000000000000000000000000000000000000000000000000000000000000000000000000000000000000000300000000000000000000000000000000000000000000000000012000000000000
0000082190000010000002010000000000000000000000000000000000000000000000000000000000000000000000000000000000000000000000000300000000000000000000000000000000000000000000000000012000000000000
0000082190000010200002010000000000000000000000000000000000000000000000000000000000000000000000000000000000000000000000000300000000000000000000000000000000000000000000000000000000000001011
0000082190000010300002010000000000000000000000000000000000000000000000000000000000000000000000000000000000000000000000000000000000000000000000000000000000000000000000000000012000000004002
000009000000000000000201-000026963700-000023541770-000023086438-000030996074-000039420707-000026078565-000021040012-000025979215-000022794424-000025091681-000034757586-0000327800250000000
000009110000000000000201-000000025089-000000019150-000000730102-000000743773-000001150158-0000030569230000000000000000000000000000000000000000000000000000-00000014000000000000000000000000
000009111000000000000201-000000025089-000000019150-000000730102-000000743773-000001150158-0000030569230000000000000000000000000000000000000000000000000000-00000014000000000000000000000000
000009111200000000000201-000000025089-000000019150-000000730102-000000743773-000001150158-0000030569230000000000000000000000000000000000000000000000000000-00000014000000000000000000000000
000009111202000000000201-000000020089-000000019150-000000730102-000000743773-000001150158-0000030569230000000000000000000000000000000000000000000000000000000000000000000000000000000000000
000009111202000100000201-000000012052-000000011489-000000438039-000000446236-000000690058-0000018341110000000000000000000000000000000000000000000000000000000000000000000000000000001030001
000009111202000200000201-000000005023-000000004789-000000182546-000000185968-000000287572-0000007642740000000000000000000000000000000000000000000000000000000000000000000000000000001030020
000009111202000300000201-000000003014-000000002872-000000109517-000000111569-000000172528-0000004585380000000000000000000000000000000000000000000000000000000000000000000000000000001030040
000009111208000000000201-000000005000000000000000000000000000000000000000000000000000000000000000000000000000000000000000000000000000000000000000000000000-00000014000000000000000000000000
000009111208000100000201-000000003000000000000000000000000000000000000000000000000000000000000000000000000000000000000000000000000000000000000000000000000-00000008400000000000000001090001
000009111208000200000201-000000001250000000000000000000000000000000000000000000000000000000000000000000000000000000000000000000000000000000000000000000000-00000003500000000000000001090020
000009111208000300000201-000000000750000000000000000000000000000000000000000000000000000000000000000000000000000000000000000000000000000000000000000000000-00000002100000000000000001090040
00000913250111000000020100000000000000000000000000000000000000000000000000000000000000000000000000000000000000000000000000000000-0000002459740000000000000000000000000000000000000000000000
00000913250111110000020100000000000000000000000000000000000000000000000000000000000000000000000000000000000000000000000000000000-0000002459740000000000000000000000000000000000000001091070
000009130000000000000201000000000000000000000000000000000000000-000003354675-000009481364-0000001650830000000000000-000001913850-000000245974-000004133366-00000829295300000000000000000000
000009132000000000000201000000000000000000000000000000000000000-000003354675-000009481364-0000001650830000000000000-000001913850-000000245974-000004133366-00000829295300000000000000000000
00000913250000000000020100000000000000000000000000000000000000000000000000000000000000000000000000000000000000000000000000000000-0000002459740000000000000000000000000000000000000000000000
00000913250100000000020100000000000000000000000000000000000000000000000000000000000000000000000000000000000000000000000000000000-0000002459740000000000000000000000000000000000000000000000
000009132800000000000201000000000000000000000000000000000000000-000003354675-000009481364-0000001650830000000000000-0000019138500000000000000-000004133366-00000829295300000000000000000000
000009132810000000000201000000000000000000000000000000000000000-000003354675-000009481364-0000001650830000000000000-0000019138500000000000000-000004133366-00000829295300000000000000000000
000009132810010000000201000000000000000000000000000000000000000-000001080260-0000037421890000000000000000000000000000000000000000000000000000-000001335350-00000255953600000000000001090050
000009132810020000000201000000000000000000000000000000000000000-000001642134-000003786782-000000165083000000000000000000000000000000000000000-000002063594-00000295237600000000000001090050
000009132810030000000201000000000000000000000000000000000000000-000000632281-0000011512430000000000000000000000000000000000000000000000000000-000000498622-00000092959100000000000001090050
0000091328100800000002010000000000000000000000000000000000000000000000000000-00000080115000000000000000000000000000-0000019138500000000000000-000000235800-00000185145000000000000001090050
00000916000000000000020100000000000000000000000000-000000006000-0000000060000000000000000000000000000000000000000000000000000000000000000000000000000000000000000000000-0000000100000000000
00000916000200000000020100000000000000000000000000-000000006000-000000006000000000000000000000000000000000000000000000000000000000000000000000000000000000000000000000000000000000000000000
00000916000299000000020100000000000000000000000000-000000006000-000000006000000000000000000000000000000000000000000000000000000000000000000000000000000000000000000000000000000000001090001
00000916009900000000020100000000000000000000000000000000000000000000000000000000000000000000000000000000000000000000000000000000000000000000000000000000000000000000000-0000000100000000000
00000916009900010000020100000000000000000000000000000000000000000000000000000000000000000000000000000000000000000000000000000000000000000000000000000000000000000000000-0000000100001090001
000009170000000000000201-000026938611-000023522620-000021944841-000026587942-000027443739-000022700195-000020869994-000023853795-000021538066-000020612494-000023445055-0000296131040000000
000009172000000000000201-000026938611-000023522620-000021944841-000026551172-000027443739-000022700195-000020869994-000023853795-000021538066-000020612494-000023445055-0000296131040000000
000009172100000000000201-000012161576-000015572065-000009786236-000011779941-000013352911-000012304336-000009527259-000010788924-000009297372-000010921912-000010639764-0000141814080000000
000009172101000000000201-000012090584-000015501073-000009715244-000011708949-000013281919-000012233344-000009456267-000010717932-000009226380-000010850920-000010568772-0000141104160000000
000009172101020000000201-000012090425-000015499597-000009711448-000011700644-000013272362-000012233344-000009448112-000010715287-000008997233-000010196432-000010487745-0000140272170000000
0000091721010206000002010000000000000000000000000000000000000000000000000000000000000000000000000000000000000000000000000000000000000000000000000000000000000000000000000000000000001030031
000009172101020600000201-000012090425-000015499597-000009711448-000011700644-000013272362-000012233344-000009448112-000010715287-000008997233-000010196432-000010487745-0000140272171050031
000009172101050000000201-000000000159-000000001476-000000003796-000000008305-0000000095570000000000000-000000008155-000000002645-000000229147-000000654488-000000081027-0000000831990000000
000009172101050400000201-000000000159-000000001476-000000003796-000000008305-0000000095570000000000000-000000008155-000000002645-000000229147-000000654488-000000081027-0000000831991050031
000009172136000000000201-000000070992-000000070992-000000070992-000000070992-000000070992-000000070992-000000070992-000000070992-000000070992-000000070992-000000070992-0000000709920000000
000009172136000500000201-000000070992-000000070992-000000070992-000000070992-000000070992-000000070992-000000070992-000000070992-000000070992-000000070992-000000070992-0000000709921050031
000009172200000000000201-000014777035-000007950555-000012158605-000014771231-000014090828-000010395859-000011342735-000013064871-000012240694-000009690582-000012805291-0000154316960000000
000009172201000000000201-000014777035-000007950555-000012158605-000014771231-000014090828-000010395859-000011342735-000013064871-000012240694-000009690582-000012805291-0000154316960000000
000009172201010000000201-000012413705-000007305367-000011185393-000011741859-000012869732-000009899781-000011024062-000012749383-000012000306-000009413013-000012526993-0000144487810000000
000009172201010500000201-000012413705-000007305367-000011185393-000011741859-000012869732-000009899781-000011024062-000012749383-000012000306-000009413013-000012526993-0000144487811050031
000009172201020000000201-000002185509-000000490234-000000866574-000002845612-000001057909-000000339205-000000164739-000000128804-000000080805-000000078749-000000058840-0000007660840000000
000009172201020400000201-000002185509-000000490234-000000866574-000002845612-000001057909-000000339205-000000164739-000000128804-000000080805-000000078749-000000058840-0000007660841050031
000009172201040000000201-000000177821-000000154954-000000106638-000000183760-000000163187-000000156873-000000153934-000000186684-000000159583-000000198820-000000219458-0000002168310000000
000009172201040500000201-000000177821-000000154954-000000106638-000000183760-000000163187-000000156873-000000153934-000000186684-000000159583-000000198820-000000219458-0000002168311050031
000009176000000000000201000000000000000000000000000000000000000-000000036770000000000000000000000000000000000000000000000000000000000000000000000000000000000000000000000000000000000000000
000009176200000000000201000000000000000000000000000000000000000-000000036770000000000000000000000000000000000000000000000000000000000000000000000000000000000000000000000000000000000000000
000009176202000000000201000000000000000000000000000000000000000-000000036770000000000000000000000000000000000000000000000000000000000000000000000000000000000000000000000000000000000000000
000009176202000100000201000000000000000000000000000000000000000-000000036770000000000000000000000000000000000000000000000000000000000000000000000000000000000000000000000000000000000000000
000009176202000102000201000000000000000000000000000000000000000-000000036770000000000000000000000000000000000000000000000000000000000000000000000000000000000000000000000000000000001091009
000009100000000000000201-000026963700-000023541770-000023086438-000030996074-000039420707-000026078565-000021040012-000025979215-000022794424-000025091681-000034757586-0000327800250000000
00000919000000000000020100000000000000000000000000-000000405495-000000303684-000001345446-000000156364-000000170018-000000211570-000001010384-000000345821-000002879578-0000031569210000000
00000919100000000000020100000000000000000000000000-000000405495-000000303684-000001345446-000000156364-000000170018-000000211570-000001010384-000000345821-000001296272-0000031569210000000
00000919130000000000020100000000000000000000000000-000000404827-000000290140-000001322386-000000156364-000000169503-000000211570-000000952707-000000153246-000001246850-0000027341280000000
00000919131100000000020100000000000000000000000000-000000393486-000000225630-000000152276-000000153791-000000076299-000000189519-000000893279-000000110823-000000244283-0000026007960000000
00000919131100010000020100000000000000000000000000-000000236088-000000135373-000000091365-000000092271-000000045779-000000113709-000000535964-000000066489-000000146567-0000015604681030001
00000919131100020000020100000000000000000000000000-000000098375-000000056411-000000038069-000000038451-000000019076-000000047381-000000223323-000000027709-000000061073-0000006502061030020
00000919131100030000020100000000000000000000000000-000000059023-000000033846-000000022842-000000023069-000000011444-000000028429-000000133992-000000016625-000000036643-0000003901221030040
0000091913130000000002010000000000000000000000000000000000000000000000000000-0000011167520000000000000-000000005094000000000000000000000000000000000000000-00000095177400000000000000000000
0000091913130001000002010000000000000000000000000000000000000000000000000000-0000006700510000000000000-000000003056000000000000000000000000000000000000000-00000057106400000000000001030001
0000091913130002000002010000000000000000000000000000000000000000000000000000-0000002791880000000000000-000000001274000000000000000000000000000000000000000-00000023794400000000000001030020
0000091913130003000002010000000000000000000000000000000000000000000000000000-0000001675130000000000000-000000000764000000000000000000000000000000000000000-00000014276600000000000001030040
00000919133500000000020100000000000000000000000000-000000011341-000000064510-000000053358-000000002573-000000088110-000000022051-000000059428-000000042423-000000050793-0000001304201030001
00000919139900000000020100000000000000000000000000000000000000000000000000000000000000000000000000000000000000000000000000000000000000000000000000000000000000000000000-0000000029120000000
00000919139900010000020100000000000000000000000000000000000000000000000000000000000000000000000000000000000000000000000000000000000000000000000000000000000000000000000-0000000029121030001
00000919150000000000020100000000000000000000000000-000000000668-000000013544-0000000230600000000000000-0000000005150000000000000-000000057677-000000192575-000000049422-0000004227930000000
00000919159900000000020100000000000000000000000000-000000000668-000000013544-0000000230600000000000000-0000000005150000000000000-000000057677-000000192575-000000049422-0000004227930000000
00000919159901000000020100000000000000000000000000-000000000668-000000013544-0000000230600000000000000-0000000005150000000000000-000000057677-000000192575-000000049422-0000004227930000000
000009191599010100000201000000000000000000000000000000000000000-0000000135440000000000000000000000000000000000000000000000000000-00000005298100000000000000000000000000-0000000118331030001
00000919159901020000020100000000000000000000000000-0000000006680000000000000-0000000230600000000000000-0000000005150000000000000-000000004696-000000192575-000000049422-0000003948151030001
00000919159901090000020100000000000000000000000000000000000000000000000000000000000000000000000000000000000000000000000000000000000000000000000000000000000000000000000-0000000161451030001
0000091990000000000002010000000000000000000000000000000000000000000000000000000000000000000000000000000000000000000000000000000000000000000000000000000000-00000158330600000000000000000000
0000091990990000000002010000000000000000000000000000000000000000000000000000000000000000000000000000000000000000000000000000000000000000000000000000000000-00000158330600000000000000000000
0000091990990050000002010000000000000000000000000000000000000000000000000000000000000000000000000000000000000000000000000000000000000000000000000000000000-00000158330600000000000000000000
0000091990990050010002010000000000000000000000000000000000000000000000000000000000000000000000000000000000000000000000000000000000000000000000000000000000-00000158330600000000000001030001
FINALIZADOR0000000443                                                                                                                                                                                                                                                                                                                                                                                                                                                                                                                                                                                                                                                                                                                                                                                                           
