87612826000190010120203004202008052020PREFEITURA MUNICIPAL INDEPENDENCIA                                              
00000100000000000000020100002680739450000219084301000021675928900002676002710000277131352000031402928900002662634690000205053385000024120187000002579915120000216804165000042121768300000000000
00000110000000000000020100000224040200000011634549000001598051800000199387420000027716793000007555019200000225493070000011596301000002095073200000108719900000017183879000001656943700000000000
00000111000000000000020100000222184930000011101183000001543070700000195242010000027206925000007499575500000220143850000010912708000001854631600000100864810000016672626000001582279400000000000
00000111300000000000020100000058949500000004371205000000483686800000045525270000006883448000000450513700000048476990000004427423000000457459900000046200090000004500163000000895860800000000000
00000111303000000000020100000058949500000004371205000000483686800000045525270000006883448000000450513700000048476990000004427423000000457459900000046200090000004500163000000895860800000000000
00000111303100000000020100000058949500000004371205000000483686800000045525270000004373595000000450513700000044077770000004427423000000457459900000046200090000004500163000000895860800000000000
00000111303110000000020100000058949500000004371205000000483686800000045525270000004373595000000450513700000044077770000004427423000000457459900000046200090000004500163000000895860800000000000
00000111303110100000020100000048090990000003574375000000353258600000035098870000003509562000000366639200000035674830000003546710000000371356800000035930070000003480615000000697423400000000000
00000111303110101000020100000028854590000002144625000000211955100000021059320000002105737000000219983500000021404900000002128025000000222814100000021558040000002088369000000418454100000010000
00000111303110102000020100000012022750000000893594000000088314700000008774720000000877391000000091659800000008918710000000886678000000092839200000008982520000000870154000000174355800000200000
00000111303110103000020100000007213650000000536156000000052988800000005264830000000526434000000054995900000005351220000000532007000000055703500000005389510000000522092000000104613500000400000
00000111303110200000020100000005122160000000318085000000026068100000005002040000000269092000000024380400000002453530000000285772000000026609000000002690910000000294181000000057391600000000000
00000111303110201000020100000003073300000000190851000000015640900000003001220000000161455000000014628200000001472120000000171463000000015965300000001614540000000176509000000034434800000010000
00000111303110202000020100000001280540000000079521000000006517000000001250510000000067273000000006095100000000613380000000071443000000006652300000000672730000000073545000000014348000000200000
00000111303110203000020100000000768320000000047713000000003910200000000750310000000040364000000003657100000000368030000000042866000000003991400000000403640000000044127000000008608800000400000
00000111303110300000020100000005736350000000478745000000104360100000005424360000000594941000000059494100000005949410000000594941000000059494100000007579110000000725367000000141045800000000000
00000111303110301000020100000003441810000000287247000000062616100000003254620000000356965000000035696500000003569650000000356965000000035696500000004547460000000435220000000084627400000010000
00000111303110302000020100000001434090000000119686000000026090000000001356090000000148735000000014873500000001487350000000148735000000014873500000001894780000000181342000000035261500000200000
00000111303110303000020100000000860450000000071812000000015654000000000813650000000089241000000008924100000000892410000000089241000000008924100000001136870000000108805000000021156900000400000
00000111303400000000020100000000000000000000000000000000000000000000000000000000002509853000000000000000000004399220000000000000000000000000000000000000000000000000000000000000000000000000000
00000111303410000000020100000000000000000000000000000000000000000000000000000000002509853000000000000000000004399220000000000000000000000000000000000000000000000000000000000000000000000000000
00000111303410100000020100000000000000000000000000000000000000000000000000000000002509853000000000000000000004399220000000000000000000000000000000000000000000000000000000000000000000000000000
00000111303410101000020100000000000000000000000000000000000000000000000000000000001505912000000000000000000002639510000000000000000000000000000000000000000000000000000000000000000000000010000
00000111303410102000020100000000000000000000000000000000000000000000000000000000000627463000000000000000000001099820000000000000000000000000000000000000000000000000000000000000000000000200000
00000111303410103000020100000000000000000000000000000000000000000000000000000000000376478000000000000000000000659890000000000000000000000000000000000000000000000000000000000000000000000400000
00000111800000000000020100000163235430000006729978000001059383900000149716740000020323477000007049061800000171666860000006485285000001397171700000054664720000012172463000000686418600000000000
00000111801000000000020100000135484150000004413773000000777280200000119351760000017121175000006782938600000146008450000003656958000000976569000000021057650000009076805000000325085700000000000
00000111801100000000020100000005164150000000710273000000461290200000057656760000009557475000002268335400000028339450000001205158000000107139000000008217650000000372605000000110585700000000000
00000111801110000000020100000000000000000000000000000000327116100000047350070000008800528000002162090900000011221900000000545512000000035201500000001333010000000069205000000035674200000000000
00000111801110100000020100000000000000000000000000000000196267100000028409800000005280268000001297241100000006733080000000327297000000021120700000000799800000000041524000000021404300000010000
00000111801110200000020100000000000000000000000000000000081781000000011837710000002200175000000540532600000002805540000000136385000000008800500000000333260000000017301000000008918900000200000
00000111801110300000020100000000000000000000000000000000049068000000007102560000001320085000000324317200000001683280000000081830000000005280300000000199950000000010380000000005351000000400000
00000111801120000000020100000000000000000000000000000000000000000000000000000000000000000000000001110800000000947680000000050987000000005275300000000215570000000012224000000006699500000000000
00000111801120100000020100000000000000000000000000000000000000000000000000000000000000000000000000666000000000568580000000030588000000003164900000000129340000000007333000000004019600000010000
00000111801120200000020100000000000000000000000000000000000000000000000000000000000000000000000000277900000000236970000000012750000000001319000000000053890000000003057000000001675000000200000
00000111801120300000020100000000000000000000000000000000000000000000000000000000000000000000000000166900000000142130000000007649000000000791400000000032340000000001834000000001004900000400000
00000111801130000000020100000004204410000000546747000000099656300000007548650000000600141000000081920000000010716940000000514198000000052793100000004807430000000246306000000054268700000000000
00000111801130100000020100000002522590000000328033000000059792500000004529090000000360076000000049150900000006429990000000308507000000031674800000002884350000000147777000000032559700000010000
00000111801130200000020100000001051160000000136697000000024915300000001887210000000150045000000020480800000002679350000000128558000000013199000000001201940000000061580000000013568300000200000
00000111801130300000020100000000630660000000082017000000014948500000001132350000000090020000000012288300000001607600000000077133000000007919300000000721140000000036949000000008140700000400000
00000111801140000000020100000000959740000000163526000000034517800000002758040000000156806000000023213700000005452930000000094461000000013869100000001861640000000044870000000013943300000000000
00000111801140100000020100000000575830000000098110000000020710000000001654780000000094075000000013928100000003271730000000056671000000008320900000001116900000000026919000000008365500000010000
00000111801140200000020100000000239970000000040887000000008630000000000689540000000039209000000005803600000001363260000000023621000000003467600000000465460000000011221000000003486400000200000
00000111801140300000020100000000143940000000024529000000005177800000000413720000000023522000000003482000000000817940000000014169000000002080600000000279280000000006730000000002091400000400000
00000111801400000000020100000130320000000003703500000000315990000000061695000000007563700000004514603200000117669000000002451800000000869430000000012840000000008704200000000214500000000000000
00000111801410000000020100000130320000000003703500000000315990000000061695000000007563700000004514603200000117669000000002451800000000869430000000012840000000008704200000000214500000000000000
00000111801410100000020100000078192000000002222100000000189594000000037017000000004538220000002708761900000070601400000001471080000000521658000000007704000000005222520000000128700000000010000
00000111801410200000020100000032580000000000925875000000078997500000015423750000001890925000001128650800000029417250000000612950000000217357500000003210000000002176050000000053625000000200000
00000111801410300000020100000019548000000000555525000000047398500000009254250000001134555000000677190500000017650350000000367770000000130414500000001926000000001305630000000032175000000400000
00000111802000000000020100000027751280000002316205000000282103700000030364980000003202302000000266123200000025658410000002828327000000420602700000033607070000003095658000000361332900000000000
00000111802300000000020100000027751280000002316205000000282103700000030364980000003202302000000266123200000025658410000002828327000000420602700000033607070000003095658000000361332900000000000
00000111802310000000020100000027175130000002284371000000280958500000030252030000003153280000000263536500000025523620000002820437000000418771600000032797790000003085456000000355166500000000000
00000111802310100000020100000016305060000001370620000000168574600000018151160000001891960000000158121400000015314050000001692252000000251262400000019678530000001851265000000213098100000010000
00000111802310200000020100000006793800000000571095000000070240100000007563060000000788327000000065884500000006381020000000705116000000104693300000008199530000000771370000000088792900000200000
00000111802310300000020100000004076270000000342656000000042143800000004537810000000472993000000039530600000003828550000000423069000000062815900000004919730000000462821000000053275500000400000
00000111802320000000020100000000576150000000031834000000001145200000000112950000000033513000000001486700000000134790000000007890000000001250200000000181390000000010202000000001905400000000000
00000111802320100000020100000000345680000000019100000000000687100000000067770000000020108000000000892000000000080870000000004733000000000750100000000108820000000006121000000001143100000010000
00000111802320200000020100000000144040000000007959000000000286300000000028240000000008378000000000371700000000033700000000001973000000000312600000000045360000000002551000000000476400000200000
00000111802320300000020100000000086430000000004775000000000171800000000016940000000005027000000000223000000000020220000000001184000000000187500000000027210000000001530000000000285900000400000
00000111802330000000020100000000000000000000000000000000000000000000000000000000000012638000000000917000000000000000000000000000000000000502800000000475240000000000000000000002146400000000000
00000111802330100000020100000000000000000000000000000000000000000000000000000000000007582000000000550100000000000000000000000000000000000301700000000285140000000000000000000001287800000010000
00000111802330200000020100000000000000000000000000000000000000000000000000000000000003160000000000229300000000000000000000000000000000000125700000000118810000000000000000000000536600000200000
00000111802330300000020100000000000000000000000000000000000000000000000000000000000001896000000000137600000000000000000000000000000000000075400000000071290000000000000000000000322000000400000
00000111802340000000020100000000000000000000000000000000000000000000000000000000000002871000000000183000000000000000000000000000000000000078100000000152650000000000000000000002114600000000000
00000111802340100000020100000000000000000000000000000000000000000000000000000000000001722000000000109700000000000000000000000000000000000046900000000091600000000000000000000001268700000010000
00000111802340200000020100000000000000000000000000000000000000000000000000000000000000718000000000045800000000000000000000000000000000000019500000000038160000000000000000000000528700000200000
00000111802340300000020100000000000000000000000000000000000000000000000000000000000000431000000000027500000000000000000000000000000000000011700000000022890000000000000000000000317200000400000
00000112000000000000020100000001855270000000533366000000054981100000004145410000000509868000000055443700000005349220000000683593000000240441600000007855090000000511253000000074664300000000000
00000112200000000000020100000000767990000000218319000000024810000000001502980000000180500000000011440000000001113480000000166500000000012230000000001236220000000171986000000019272600000000000
00000112201000000000020100000000767990000000218319000000024810000000001502980000000180500000000011440000000001113480000000166500000000012230000000001236220000000171986000000019272600000000000
00000112201100000000020100000000767990000000218319000000024810000000001502980000000180500000000011440000000001113480000000166500000000012230000000001236220000000171986000000019272600000000000
00000112201110000000020100000000760000000000217983000000024810000000001502000000000180500000000011440000000001113000000000166500000000012230000000001236000000000171900000000019240000000000000
00000112201110100000020100000000760000000000217983000000024810000000001502000000000180500000000011440000000001113000000000166500000000012230000000001236000000000171900000000019240000000010000
00000112201120000000020100000000000000000000000336000000000000000000000000980000000000000000000000000000000000000480000000000000000000000000000000000000220000000000086000000000032600000000000
00000112201120100000020100000000000000000000000336000000000000000000000000980000000000000000000000000000000000000480000000000000000000000000000000000000220000000000086000000000032600000010000
00000112201130000000020100000000007000000000000000000000000000000000000000000000000000000000000000000000000000000000000000000000000000000000000000000000000000000000000000000000000000000000000
00000112201130100000020100000000007000000000000000000000000000000000000000000000000000000000000000000000000000000000000000000000000000000000000000000000000000000000000000000000000000000010000
00000112201140000000020100000000000990000000000000000000000000000000000000000000000000000000000000000000000000000000000000000000000000000000000000000000000000000000000000000000000000000000000
00000112201140100000020100000000000990000000000000000000000000000000000000000000000000000000000000000000000000000000000000000000000000000000000000000000000000000000000000000000000000000010000
00000112800000000000020100000001087280000000315047000000030171100000002642430000000329368000000044003700000004235740000000517093000000228211600000006618870000000339267000000055391700000000000
00000112801000000000020100000001087280000000315047000000030171100000002642430000000329368000000044003700000004235740000000517093000000228211600000006618870000000339267000000055391700000000000
00000112801100000000020100000000248650000000024200000000006050000000000000000000000000000000000001210000000000242000000000036300000000004840000000000363000000000024200000000006183100000000000
00000112801110000000020100000000121000000000024200000000006050000000000000000000000000000000000001210000000000242000000000036300000000004840000000000363000000000024200000000006050000000010000
00000112801120000000020100000000000000000000000000000000000000000000000000000000000000000000000000000000000000000000000000000000000000000000000000000000000000000000000000000000133100000010000
00000112801130000000020100000000112000000000000000000000000000000000000000000000000000000000000000000000000000000000000000000000000000000000000000000000000000000000000000000000000000000010000
00000112801140000000020100000000015650000000000000000000000000000000000000000000000000000000000000000000000000000000000000000000000000000000000000000000000000000000000000000000000000000010000
00000112801900000000020100000000838630000000290847000000024121100000002642430000000329368000000042793700000003993740000000480793000000223371600000006255870000000315067000000049208600000000000
00000112801910000000020100000000221000000000214300000000010980000000002099000000000259200000000038990000000003615000000000465900000000218660000000005608000000000280200000000044020000000000000
00000112801910100000020100000000093000000000050400000000001680000000000255000000000021500000000013410000000001028000000000197800000000206660000000003830000000000047900000000007390000000010000
00000112801910300000020100000000042000000000062800000000005040000000000306000000000021500000000005830000000001523000000000179700000000003480000000000995000000000083200000000026100000000010000
00000112801910400000020100000000000000000000000000000000000000000000000000000000000000000000000000000000000000000000000000000000000000000000000000000000000000000000000000000000000000000010000
00000112801910500000020100000000086000000000075200000000000000000000000749000000000201200000000015100000000000823000000000012400000000003100000000000450000000000106800000000004470000010050000
00000112801910600000020100000000000000000000025900000000003740000000000633000000000009800000000004130000000000241000000000076000000000005420000000000281000000000037100000000005540000000010000
00000112801910700000020100000000000000000000000000000000000520000000000156000000000005200000000000520000000000000000000000000000000000000000000000000052000000000005200000000000520000000010000
00000112801920000000020100000000000000000000000000000000000000000000000001820000000000000000000000000000000000000000000000000000000000000000000000000070050000000004716000000001370300000000000
00000112801920100000020100000000000000000000000000000000000000000000000000000000000000000000000000000000000000000000000000000000000000000000000000000067580000000002942000000000664700000010000
00000112801920300000020100000000000000000000000000000000000000000000000000000000000000000000000000000000000000000000000000000000000000000000000000000001400000000001774000000000705600000010000
00000112801920600000020100000000000000000000000000000000000000000000000000000000000000000000000000000000000000000000000000000000000000000000000000000001070000000000000000000000000000000010000
00000112801920700000020100000000000000000000000000000000000000000000000001820000000000000000000000000000000000000000000000000000000000000000000000000000000000000000000000000000000000000010000
00000112801930000000020100000000456090000000049658000000010318400000000439520000000058631000000003276000000000327620000000012352000000003863100000000447250000000024706000000002808600000000000
00000112801930100000020100000000456090000000049658000000010318400000000439520000000058631000000003276000000000327620000000012352000000003863100000000447250000000024706000000002808600000010000
00000112801940000000020100000000161540000000026889000000002822700000000102090000000011537000000000527700000000051120000000002541000000000848500000000130570000000005445000000001009700000000000
00000112801940100000020100000000161540000000026889000000002822700000000102090000000011537000000000527700000000051120000000002541000000000848500000000130570000000005445000000001009700000010000
00000120000000000000020100000015085790000008827728000000816332900000082190290000008300895000000826058400000080247750000008090012000000787212600000079058160000008032528000002127423600000000000
00000121000000000000020100000000000000000007397220000000629822100000063687860000006585347000000651363600000065229170000006571905000000648332100000065834590000006648463000001981302600000000000
00000121800000000000020100000000000000000007397220000000629822100000063687860000006585347000000651363600000065229170000006571905000000648332100000065834590000006648463000001981302600000000000
00000121801000000000020100000000000000000007397220000000629822100000063687860000006585347000000651363600000065229170000006571905000000648332100000065834590000006648463000001981302600000000000
00000121801100000000020100000000000000000007397220000000629822100000063687860000006579754000000648265200000064919330000006540921000000648332100000065524750000006617479000001972007400000000000
00000121801110000000020100000000000000000007397220000000629822100000063687860000006579754000000648265200000064919330000006540921000000648332100000065524750000006617479000001972007400000500000
00000121801300000000020100000000000000000000000000000000000000000000000000000000000005593000000003098400000000309840000000030984000000000000000000000309840000000030984000000009295200000000000
00000121801310000000020100000000000000000000000000000000000000000000000000000000000005593000000003098400000000309840000000030984000000000000000000000309840000000030984000000009295200000500000
00000124000000000000020100000015085790000001430508000000186510800000018502430000001715548000000174694800000015018580000001518107000000138880500000013223570000001384065000000146121000000000000
00000124000100000000020100000015085790000001430508000000186510800000018502430000001715548000000174694800000015018580000001518107000000138880500000013223570000001384065000000146121000000000000
00000124000110000000020100000015085790000001430508000000186510800000018502430000001715548000000174694800000015018580000001518107000000138880500000013223570000001384065000000146121000000010000
00000130000000000000020100000517989860000011959266000001348453100000234067940000048837740000005099033000000251471690000009104811000004310251200000467401750000003632314000002800650100000000000
00000131000000000000020100000014696860000001412235000000149200000000014920000000001806434000000149200000000015977580000001747098000000154220300000014920000000001517888000000161794800000000000
00000131001000000000020100000014696860000001412235000000149200000000014920000000001806434000000149200000000015977580000001747098000000154220300000014920000000001517888000000161794800000000000
00000131001100000000020100000014696860000001412235000000149200000000014920000000001806434000000149200000000015977580000001747098000000154220300000014920000000001517888000000161794800000000000
00000131001110000000020100000014517000000001394200000000149200000000014920000000001695300000000149200000000015614000000001700200000000149200000000014920000000001492000000000159200000000010000
00000131001120000000020100000000000000000000000000000000000000000000000000000000000030446000000000000000000000104100000000020647000000000000000000000000000000000000000000000000000000000010000
00000131001130000000020100000000150720000000016165000000000000000000000000000000000066879000000000000000000000222930000000022293000000004458600000000000000000000022293000000002229300000010000
00000131001140000000020100000000029140000000001870000000000000000000000000000000000013809000000000000000000000036550000000003958000000000561700000000000000000000003595000000000365500000010000
00000132000000000000020100000503293000000010547031000001199253100000219147940000047031306000004949833000000235494110000007357713000004156030900000452481750000002114426000002638855300000000000
00000132100000000000020100000503293000000010547031000001199253100000219147940000047031306000004949833000000235494110000007357713000004156030900000452481750000002114426000002638855300000000000
00000132100100000000020100000012225110000001271731000000126504800000014412170000001536312000000146330100000019014080000001557676000000172557100000013634990000000766522000000063717800000000000
00000132100110000000020100000012225110000001271731000000126504800000014412170000001536312000000146330100000019014080000001557676000000172557100000013634990000000766522000000063717800000000000
00000132100110100000020100000002588100000000242580000000024142600000003102370000000372697000000037297400000004329840000000398164000000041603600000003399550000000331576000000024424100000000000
00000132100110102000020100000000554260000000044548000000006579000000001148940000000161600000000016788600000002148650000000207573000000020745600000001057940000000088515000000006915000000310000
00000132100110103000020100000001346790000000143593000000010905800000001236720000000134833000000012384300000001367230000000102295000000010083800000001299540000000093211000000005265300000000000
00000132100110103010020100000000005160000000000471000000000044900000000005030000000000530000000000045400000000002430000000000000000000000000000000000000000000000000000000000000000000041110000
00000132100110103020020100000000001770000000000161000000000015400000000025440000000004028000000000493300000000086110000000006572000000000500300000000072050000000006580000000000840200040500000
00000132100110103030020100000000336330000000030680000000001650000000000244700000000029996000000002604100000000198190000000006228000000000571200000000058050000000003971000000000091100049310000
00000132100110103040020100000000134540000000012286000000000742600000000099360000000012205000000001056900000000068860000000000329000000000029900000000003000000000000224000000000007900049310000
00000132100110103050020100000000000000000000022323000000001952200000000191450000000013738000000001476000000000147610000000000000000000000000000000000222240000000010062000000000000000045000000
00000132100110103070020100000000000000000000000000000000000232000000000024440000000003613000000000292600000000040070000000004042000000000375700000000043810000000002538000000000253000045030000
00000132100110103080020100000000000000000000000000000000000000000000000000000000000000000000000000000000000000007860000000000661000000000068800000000006730000000001117000000000002600041600000
00000132100110103090020100000000000000000000000000000000000148200000000068280000000012483000000001587000000000258210000000030059000000003673200000000397900000000032898000000001353600040110000
00000132100110103100020100000000000000000000000000000000000014800000000006340000000000798000000000002400000000001630000000000596000000000085400000000013790000000002038000000000162600040500000
00000132100110103110020100000000000000000000000000000000000000000000000000000000000000000000000000000000000000035960000000003309000000000344000000000029980000000002780000000000100500040900000
00000132100110103160020100000000045110000000004134000000000397600000000044200000000003909000000000320100000000036660000000002512000000000234300000000029580000000001426000000000115400045030000
00000132100110103170020100000000230360000000021023000000002009700000000222910000000023479000000002035900000000247680000000021949000000002035800000000209020000000016411000000001374300043030000
00000132100110103180020100000000039420000000000921000000000059900000000006690000000000691000000000059300000000002820000000000000000000000000000000000000000000000000000000000000000000047100000
00000132100110103190020100000000044760000000004031000000000384800000000042660000000004485000000000336500000000013430000000000000000000000000000000000000000000000000000000000000000000047100000
00000132100110103200020100000000054720000000005014000000000482100000000053850000000005556000000000484400000000059130000000004462000000000420000000000061450000000004166000000000358500045050000
00000132100110103210020100000000009850000000000899000000000049900000000000000000000000000000000000000000000000000000000000000000000000000000000000000000000000000000000000000000000000049360000
00000132100110103220020100000000406610000000036470000000002210400000000148230000000013894000000001174100000000122500000000005228000000000256900000000001560000000000000000000000000000045200000
00000132100110103230020100000000033660000000003379000000000339100000000034040000000003416000000000342900000000034420000000000000000000000000000000000000000000000000000000000000000000047600000
00000132100110103240020100000000004500000000001801000000000172200000000019100000000002012000000000073400000000003660000000000000000000000000000000000000000000000000000000000000000000041900000
00000132100110103250020100000000000000000000000000000000000000000000000000000000000000000000000000000000000000000000000000016348000000001488300000000146650000000008039000000000511100045000000
00000132100110103270020100000000000000000000000000000000000000000000000000000000000000000000000000000000000000000000000000000000000000000000000000000003730000000000961000000000094500043000000
00000132100110107000020100000000124590000000012018000000001203700000000127400000000010000000000000983600000000109360000000006191000000000464000000000096630000000006989000000000350700000000000
00000132100110107010020100000000000000000000000666000000000099100000000010880000000000772000000000105600000000014870000000000749000000000039900000000011270000000001089000000000042300010640000
00000132100110107020020100000000085070000000007661000000000730300000000074130000000005288000000000533600000000053420000000002277000000000000000000000014660000000001033000000000127900010210000
00000132100110107030020100000000028210000000002655000000000274700000000031260000000003406000000000303100000000036030000000002785000000000262400000000041230000000002843000000000102500010380000
00000132100110107040020100000000011310000000001036000000000099600000000011130000000000534000000000041300000000005040000000000380000000000033300000000003660000000000110000000000010700010670000
00000132100110107050020100000000000000000000000000000000000000000000000000000000000000000000000000000000000000000000000000000000000000000128400000000025810000000001914000000000067300011030000
00000132100110108000020100000000016160000000006251000000000809300000000073600000000005517000000000348400000000029000000000004477000000000421900000000059410000000005687000000000387900000000000
00000132100110108030020100000000016160000000006240000000000618200000000048620000000001344000000000170900000000006000000000002077000000000171100000000024350000000001933000000000048800010140000
00000132100110108040020100000000000000000000000011000000000067400000000015710000000002389000000000100200000000006220000000000284000000000005800000000005590000000000592000000000009400010160000
00000132100110108050020100000000000000000000000000000000000062100000000008260000000001037000000000065100000000000950000000000000000000000000000000000000000000000000000000000000000000010010000
00000132100110108060020100000000000000000000000000000000000061600000000001010000000000747000000000012200000000000000000000000000000000000000000000000000000000000000000000000000000000010310000
00000132100110108070020100000000000000000000000000000000000000000000000000000000000000000000000000000000000000015830000000002116000000000245000000000029470000000003162000000000329700010700000
00000132100110199000020100000000546300000000036170000000004644800000000515710000000060747000000006792500000000675600000000077628000000009888300000000886030000000137174000000011505200000000000
00000132100110199010020100000000084940000000007784000000000777000000000086170000000009490000000000897400000000116750000000010691000000000997000000000103770000000008205000000000794900010050000
00000132100110199020020100000000000000000000000000000000000925600000000134260000000014763000000001366000000000104260000000007322000000000720600000000063220000000007324000000000275900010170000
00000132100110199060020100000000026310000000002641000000000265100000000026600000000005789000000000581000000000058310000000007719000000000716200000000030940000000002851000000000260400010500000
00000132100110199070020100000000348440000000025158000000002525100000000253460000000013597000000002355600000000236440000000023732000000002201800000000179070000000017647000000001611800010220000
00000132100110199080020100000000083500000000000587000000000058900000000005910000000015866000000001592500000000159840000000009717000000001926100000000193270000000017806000000000949600012000000
00000132100110199090020100000000003110000000000000000000000000000000000000000000000001242000000000000000000000000000000000000000000000000000000000000000000000000000000000000000000000010220000
00000132100110199100020100000000000000000000000000000000000093100000000009310000000000000000000000000000000000000000000000001151000000000000000000000000000000000000000000000000000000012000000
00000132100110199110020100000000000000000000000000000000000000000000000000000000000000000000000000000000000000000000000000017296000000000000000000000000000000000000000000000000000000012070000
00000132100110199120020100000000000000000000000000000000000000000000000000000000000000000000000000000000000000000000000000000000000000003326600000000271990000000025059000000002289000012070000
00000132100110199130020100000000000000000000000000000000000000000000000000000000000000000000000000000000000000000000000000000000000000000000000000000000000000000041194000000003762800012060000
00000132100110199140020100000000000000000000000000000000000000000000000000000000000000000000000000000000000000000000000000000000000000000000000000000034140000000000000000000000000000012060000
00000132100110199150020100000000000000000000000000000000000000000000000000000000000000000000000000000000000000000000000000000000000000000000000000000000000000000017086000000001560700012030000
00000132100110199160020100000000000000000000000000000000000000000000000000000000000000000000000000000000000000000000000000000000000000000000000000000009630000000000002000000000000100012030000
00000132100110200000020100000009637010000001029151000000102362200000011309800000001163615000000109032700000014684240000001159512000000130953500000010235440000000434946000000039293700000000000
00000132100110299000020100000000000000000000000000000000000000000000000000000000000000000000000000000000000000000000000000000000000000000000000000000000000000000000000000000000000000000010000
00000132100110299010020100000003890420000000675159000000046952400000003843970000000586220000000086977500000003988190000000205892000000007338700000000665310000000038567000000000678700000010000
00000132100110299020020100000005400380000000301858000000049517200000006786820000000513576000000014631500000006866470000000356646000000010288600000000527580000000084327000000007303300000010000
00000132100110299050020100000000346210000000052134000000005892600000000679010000000063819000000007423700000001055090000000097565000000010227700000001253350000000114444000000006187100000010000
00000132100110299080020100000000000000000000000000000000000000000000000000000000000000000000000000000000000002774490000000499409000000103098500000007789200000000197608000000025124600000010000
00000132100400000000020100000491067890000009275300000001072748300000204735770000045494994000004803502900000216480030000005800037000003983473800000438846760000001347904000002575137500000000000
00000132100410000000020100000000000000000000000000000000000000000000000000000000000000000000000000000000000000000000000000000000000000000000000000000000000000000000000000000000000000000500000
00000132100410100000020100000162260460000001929733000000218185300000058764060000014460747000001534470100000054580520000000000000000001230650700000126207730000000000000000000467059200000500000
00000132100410200000020100000154891160000001156345000000104358600000044254410000013184837000001364046500000042401720000000000000000001061196000000109446840000000000000000000318089000000500000
00000132100410300000020100000061605820000000813444000000083736200000022302650000005459234000000582174800000020643560000000000000000000470506300000037317820000000000000000000000000000000500000
00000132100410400000020100000026908850000002138324000000215133600000024412610000003200545000000282404500000034663430000002628868000000317917600000022222860000000000000000000000000000000500000
00000132100410600000020100000054592500000000813103000000206205000000026974500000005523000000000704535000000023178000000000104049000000526080000000058491000000000000000000000369720000000500000
00000132100410700000020100000030809100000002423430000000245129600000028027540000003666631000000335872000000041012800000003067120000000377123200000032074420000001307668000000171761700000500000
00000132100410800000020100000000000000000000000921000000000000000000000000000000000000000000000000000000000000000000000000000000000000000000000000000000000000000000000000000000000000000500000
00000132100410900000020100000000000000000000000000000000000000000000000000000000000000000000000000000000000000000000000000000000000000000000000000009312600000000040236000000425905400000500000
00000132100411000000020100000000000000000000000000000000000000000000000000000000000000000000000000000000000000000000000000000000000000000000000000008501460000000000000000000238644900000500000
00000132100411100000020100000000000000000000000000000000000000000000000000000000000000000000000000000000000000000000000000000000000000000000000000011655380000000000000000000177193300000500000
00000132100411200000020100000000000000000000000000000000000000000000000000000000000000000000000000000000000000000000000000000000000000000000000000023616650000000000000000000406764000000500000
00000136000000000000020100000000000000000000000000000000000000000000000000000000000000000000000000000000000000000000000000000000000000000000000000000000000000000000000000000000000000000000000
00000136001000000000020100000000000000000000000000000000000000000000000000000000000000000000000000000000000000000000000000000000000000000000000000000000000000000000000000000000000000000000000
00000136001100000000020100000000000000000000000000000000000000000000000000000000000000000000000000000000000000000000000000000000000000000000000000000000000000000000000000000000000000000000000
00000136001110000000020100000000000000000000000000000000000000000000000000000000000000000000000000000000000000000000000000000000000000000000000000000000000000000000000000000000000000000010000
00000160000000000000020100000002220000000000283000000000025350000000002830000000000230500000000044150000000003215000000000319000000000016700000000002005000000000119500000000038350000000000000
00000161000000000000020100000002220000000000283000000000025350000000002830000000000230500000000044150000000003215000000000319000000000016700000000002005000000000119500000000036350000000000000
00000161001000000000020100000002220000000000283000000000025350000000002830000000000230500000000044150000000003215000000000319000000000016700000000002005000000000119500000000036350000000000000
00000161001100000000020100000002220000000000283000000000025350000000002830000000000230500000000044150000000003215000000000319000000000016700000000002005000000000119500000000036350000000000000
00000161001110000000020100000002220000000000283000000000025350000000002830000000000230500000000044150000000003215000000000319000000000016700000000002005000000000119500000000036350000000000000
00000161001110100000020100000002220000000000283000000000025350000000002830000000000230500000000044150000000003215000000000319000000000016700000000002005000000000119500000000036350000000010000
00000162000000000000020100000000000000000000000000000000000000000000000000000000000000000000000000000000000000000000000000000000000000000000000000000000000000000000000000000002000000000000000
00000162002000000000020100000000000000000000000000000000000000000000000000000000000000000000000000000000000000000000000000000000000000000000000000000000000000000000000000000002000000000000000
00000162002100000000020100000000000000000000000000000000000000000000000000000000000000000000000000000000000000000000000000000000000000000000000000000000000000000000000000000002000000000000000
00000162002110000000020100000000000000000000000000000000000000000000000000000000000000000000000000000000000000000000000000000000000000000000000000000000000000000000000000000002000000000000000
00000162002110100000020100000000000000000000000000000000000000000000000000000000000000000000000000000000000000000000000000000000000000000000000000000000000000000000000000000002000000000010000
00000170000000000000020100001915907400000185708424000017814235300002103940740000190899037000017554755300002093463190000175033394000016814186200001912404410000186699959000035349572600000000000
00000171000000000000020100000838302650000097293481000007464857200000731459950000091535694000007607941800000975693090000078486908000006926317900000725331390000082999928000019156152200000000000
00000171800000000000020100000838302650000097293481000007464857200000731459950000091535694000007607941800000975693090000078486908000006926317900000725331390000082999928000019156152200000000000
00000171801000000000020100000776260860000084903141000006354916000000620103800000079617889000006282020800000857103520000062711523000005774620500000569700090000070002523000011899610600000000000
00000171801200000000020100000772681650000084874453000006354916000000619992000000079565168000006267331000000515465920000062559185000005568690100000512670220000069576687000008314741200000000000
00000171801210000000020100000772681650000084874453000006354916000000619992000000079565168000006267331000000515465920000062559185000005568690100000512670220000069576687000008314741200000000000
00000171801210100000020100000463608980000050924672000003812949600000371995200000047739100000003760398700000309279540000037535509000003341214100000307602130000041746014000004988844500000010000
00000171801210200000020100000038634090000004243723000000317745800000030999600000003978258000000313366500000025773300000003127960000000278434500000025633520000003478834000000415737100000200000
00000171801210300000020100000115902250000012731168000000953237400000092998800000011934776000000940099600000077319890000009383878000000835303500000076900530000010436502000001247211300000400000
00000171801210400000020100000154536330000016974890000001270983200000123998400000015913034000001253466200000103093190000012511838000001113738000000102534040000013915337000001662948300000310000
00000171801300000000020100000000000000000000000000000000000000000000000000000000000000000000000000000000000000000000000000000000000000000000000000000000000000000000000000003546935200000000000
00000171801310000000020100000000000000000000000000000000000000000000000000000000000000000000000000000000000000000000000000000000000000000000000000000000000000000000000000003546935200000000000
00000171801310100000020100000000000000000000000000000000000000000000000000000000000000000000000000000000000000000000000000000000000000000000000000000000000000000000000000002128161100000010000
00000171801310200000020100000000000000000000000000000000000000000000000000000000000000000000000000000000000000000000000000000000000000000000000000000000000000000000000000000886733800000200000
00000171801310300000020100000000000000000000000000000000000000000000000000000000000000000000000000000000000000000000000000000000000000000000000000000000000000000000000000000532040300000400000
00000171801400000000020100000000000000000000000000000000000000000000000000000000000000000000000000000000000341589250000000000000000000000000000000000000000000000000000000000000000000000000000
00000171801410000000020100000000000000000000000000000000000000000000000000000000000000000000000000000000000341589250000000000000000000000000000000000000000000000000000000000000000000000000000
00000171801410100000020100000000000000000000000000000000000000000000000000000000000000000000000000000000000204953550000000000000000000000000000000000000000000000000000000000000000000000010000
00000171801410200000020100000000000000000000000000000000000000000000000000000000000000000000000000000000000085397310000000000000000000000000000000000000000000000000000000000000000000000200000
00000171801410300000020100000000000000000000000000000000000000000000000000000000000000000000000000000000000051238390000000000000000000000000000000000000000000000000000000000000000000000400000
00000171801500000000020100000003579210000000028688000000000000000000000111800000000052721000000014689800000000048350000000152338000000205930400000057029870000000425836000000037934200000000000
00000171801510000000020100000003579210000000028688000000000000000000000111800000000052721000000014689800000000048350000000152338000000205930400000057029870000000425836000000037934200000000000
00000171801510100000020100000002147520000000017212000000000000000000000067080000000031631000000008813800000000029010000000091404000000123558100000034217940000000255502000000022760700000010000
00000171801510200000020100000000178960000000001434000000000000000000000005590000000002637000000000734500000000002420000000007616000000010296600000002851480000000021292000000001896600000200000
00000171801510300000020100000000536880000000004304000000000000000000000016770000000007909000000002203500000000007250000000022851000000030889600000008554470000000063875000000005690100000400000
00000171801510400000020100000000715850000000005738000000000000000000000022360000000010544000000002938000000000009670000000030467000000041186100000011405980000000085167000000007586800000310000
00000171802000000000020100000009782840000000961489000000093544600000008625550000001095994000000110959500000012081880000000959963000000105526400000010430120000001138623000000104819600000000000
00000171802200000000020100000000000000000000000000000000000000000000000130750000000000000000000000000000000000000000000000000000000000000000000000000000000000000000000000000000000000000000000
00000171802210000000020100000000000000000000000000000000000000000000000130750000000000000000000000000000000000000000000000000000000000000000000000000000000000000000000000000000000000000010000
00000171802600000000020100000009782840000000961489000000093544600000008494800000001095994000000110959500000012081880000000959963000000105526400000010430120000001138623000000104819600000000000
00000171802610000000020100000009782840000000961489000000093544600000008494800000001095994000000110959500000012081880000000959963000000105526400000010430120000001138623000000104819600000010000
00000171803000000000020100000024008460000007263165000000726316500000076631650000007385565000000734228600000072422860000007242286000000744228600000102813860000007526967000001202117600000000000
00000171803100000000020100000020150160000006374016000000637401600000063740160000006374016000000635313700000063531370000006353137000000635313700000081783310000006666137000001045667700000000000
00000171803110000000020100000020150160000006374016000000637401600000063740160000006374016000000635313700000063531370000006353137000000635313700000081783310000006666137000001045667700045000000
00000171803200000000020100000000735830000000073583000000007358300000000735830000000095983000000007358300000000735830000000073583000000007358300000000735830000000073583000000007358300000000000
00000171803210000000020100000000735830000000073583000000007358300000000735830000000095983000000007358300000000735830000000073583000000007358300000000735830000000073583000000007358300045010000
00000171803300000000020100000000000000000000503319000000050331900000009033190000000603319000000060331900000005033190000000503319000000070331900000017172250000000475000000000115796400000000000
00000171803310000000020100000000000000000000503319000000050331900000009033190000000603319000000060331900000005033190000000503319000000070331900000017172250000000475000000000115796400045020000
00000171803400000000020100000003122470000000312247000000031224700000003122470000000312247000000031224700000003122470000000312247000000031224700000003122470000000312247000000033295200000000000
00000171803410000000020100000003122470000000312247000000031224700000003122470000000312247000000031224700000003122470000000312247000000031224700000003122470000000312247000000033295200045030000
00000171805000000000020100000026716790000003416511000000290080100000024525150000003280315000000316660600000032630530000002426186000000287409300000027762320000002794967000000217837800000000000
00000171805100000000020100000026716790000002388967000000187325700000018517350000001826007000000213982600000016457450000001683406000000168354900000016066880000001625423000000169818300000000000
00000171805110000000020100000026716790000002388967000000187325700000018517350000001826007000000213982600000016457450000001683406000000168354900000016066880000001625423000000169818300010140000
00000171805200000000020100000000000000000000000000000000000000000000000000000000000000000000000000000000000000210000000000000000000000002100000000000000000000000000000000000000000000000000000
00000171805210000000020100000000000000000000000000000000000000000000000000000000000000000000000000000000000000210000000000000000000000002100000000000000000000000000000000000000000000010360000
00000171805300000000020100000000000000000000600780000000060078000000006007800000000600780000000102678000000007427800000000742780000000074278000000007427800000000742780000000000000000000000000
00000171805310000000020100000000000000000000600780000000060078000000006007800000000600780000000102678000000007427800000000742780000000074278000000007427800000000742780000000000000000000000000
00000171805310100000020100000000000000000000253440000000025344000000002534400000000253440000000025344000000002534400000000253440000000025344000000002534400000000253440000000000000000010010000
00000171805310200000020100000000000000000000201160000000020116000000002011600000000201160000000020116000000002011600000000201160000000020116000000002011600000000201160000000000000000010310000
00000171805310300000020100000000000000000000118720000000011872000000001187200000000118720000000011872000000001187200000000118720000000011872000000001187200000000118720000000000000000010330000
00000171805310400000020100000000000000000000017920000000001792000000000179200000000017920000000001792000000000179200000000017920000000001792000000000179200000000017920000000000000000010590000
00000171805310500000020100000000000000000000009540000000000954000000000095400000000009540000000000954000000000095400000000009540000000000954000000000095400000000009540000000000000000010710000
00000171805310600000020100000000000000000000000000000000000000000000000000000000000000000000000042600000000001420000000000142000000000014200000000001420000000000142000000000000000000010700000
00000171805400000000020100000000000000000000426764000000042676400000000000000000000853528000000000000000000008535280000000000000000000042676400000004267640000000426764000000042676400000000000
00000171805410000000020100000000000000000000426764000000042676400000000000000000000853528000000000000000000008535280000000000000000000042676400000004267640000000426764000000042676400010160000
00000171805900000000020100000000000000000000000000000000000000000000000000000000000000000000000000000000000000000000000000000000000000000000000000000000000000000000000000000005343100000000000
00000171805910000000020100000000000000000000000000000000000000000000000000000000000000000000000000000000000000000000000000000000000000000000000000000000000000000000000000000005343100000000000
00000171805910100000020100000000000000000000000000000000000000000000000000000000000000000000000000000000000000000000000000000000000000000000000000000000000000000000000000000005343100010130000
00000171806000000000020100000000000000000000000000000000000000000000000000000000000000000000000000000000000000000000000000000000000000000000000000000000000000000000000000000000000000000000000
00000171806100000000020100000000000000000000000000000000000000000000000000000000000000000000000000000000000000000000000000000000000000000000000000000000000000000000000000000000000000000000000
00000171806110000000020100000000000000000000000000000000000000000000000000000000000000000000000000000000000000000000000000000000000000000000000000000000000000000000000000000000000000000000000
00000171806110100000020100000000000000000000000000000000000000000000000000000000000000000000000000000000000000000000000000000000000000000000000000000000000000000000000000000000000000000010000
00000171806110200000020100000000000000000000000000000000000000000000000000000000000000000000000000000000000000000000000000000000000000000000000000000000000000000000000000000000000000000200000
00000171806110300000020100000000000000000000000000000000000000000000000000000000000000000000000000000000000000000000000000000000000000000000000000000000000000000000000000000000000000000400000
00000171806110400000020100000000000000000000000000000000000000000000000000000000000000000000000000000000000000000000000000000000000000000000000000000000000000000000000000000000000000000310000
00000171808000000000020100000000000000000000000000000000000000000000000000000000000000000000000000000000000000000000000005000000000000000000000000000000000000000000000000000000000000000000000
00000171808100000000020100000000000000000000000000000000000000000000000000000000000000000000000000000000000000000000000005000000000000000000000000000000000000000000000000000000000000000000000
00000171808110000000020100000000000000000000000000000000000000000000000000000000000000000000000000000000000000000000000005000000000000000000000000000000000000000000000000000000000000000000000
00000171808110100000020100000000000000000000000000000000000000000000000000000000000000000000000000000000000000000000000005000000000000000000000000000000000000000000000000000000000000045000000
00000171812000000000020100000001533700000000749175000000000000000000001573800000000155931000000164072300000001454300000000146950000000014533100000014625000000001536848000001529258300000000000
00000171812100000000020100000001533700000000749175000000000000000000001573800000000155931000000164072300000001454300000000146950000000014533100000014625000000001536848000001529258300000000000
00000171812110000000020100000001533700000000749175000000000000000000001573800000000155931000000164072300000001454300000000146950000000014533100000014625000000001536848000001529258300000000000
00000171812110100000020100000001533700000000149175000000000000000000001573800000000155931000000030764000000001454300000000146950000000014533100000001430000000000143000000000014300000010380000
00000171812110200000020100000000000000000000000000000000000000000000000000000000000000000000000000000000000000000000000000000000000000000000000000000000000000000074348000000051866600010670000
00000171812110300000020100000000000000000000000000000000000000000000000000000000000000000000000073308300000000000000000000000000000000000000000000007195000000000719500000000803091700010210000
00000171812110400000020100000000000000000000600000000000000000000000000000000000000000000000000060000000000000000000000000000000000000000000000000006000000000000600000000000660000000010640000
00000171899000000000020100000000000000000000000000000000000000000000000000000000000000000000000000000000000000000000000000000000000000000000000000000000000000000000000000004202508300000000000
00000171899100000000020100000000000000000000000000000000000000000000000000000000000000000000000000000000000000000000000000000000000000000000000000000000000000000000000000004202508300000000000
00000171899110000000020100000000000000000000000000000000000000000000000000000000000000000000000000000000000000000000000000000000000000000000000000000000000000000000000000004202508300000000000
00000171899110100000020100000000000000000000000000000000000000000000000000000000000000000000000000000000000000000000000000000000000000000000000000000000000000000000000000004202508300010080000
00000172000000000000020100000811427960000065407805000007969789200001115332420000073644738000007967418400000889501280000074207298000007919921700000952669740000079619587000013308516400000000000
00000172800000000000020100000811427960000065407805000007969789200001115332420000073644738000007967418400000889501280000074207298000007919921700000952669740000079619587000013308516400000000000
00000172801000000000020100000775210080000065389805000007393476600001045768660000070441743000007253505800000826770370000066784709000007221162500000875856140000071238003000012725210700000000000
00000172801100000000020100000618821700000061014658000006767330000000859374850000062264746000006920081300000799594240000064236241000007063955400000854815910000069808874000011680494100000000000
00000172801110000000020100000618821700000061014658000006767330000000859374850000062264746000006920081300000799594240000064236241000007063955400000854815910000069808874000011680494100000000000
00000172801110100000020100000371293000000036608796000004060398000000515624900000037358848000004152048700000479756540000038541746000004238373300000512889530000041885325000007008296500000010000
00000172801110200000020100000030941090000003050732000000338366500000042968750000003113237000000346004100000039979710000003211812000000353197700000042740800000003490443000000584024700000200000
00000172801110300000020100000092823260000009152198000001015099500000128906230000009339712000001038012200000119939140000009635435000001059593300000128222390000010471330000001752074000000400000
00000172801110400000020100000123764350000012202932000001353466000000171874970000012452949000001384016300000159918850000012847248000001412791100000170963190000013961776000002336098900000310000
00000172801200000000020100000141251340000003426737000000521833600000172166510000007180433000000224693200000013346620000001595603000000067004400000003854660000000379051000000927790900000000000
00000172801210000000020100000141251340000003426737000000521833600000172166510000007180433000000224693200000013346620000001595603000000067004400000003854660000000379051000000927790900000000000
00000172801210100000020100000084750790000002056039000000313099600000103299870000004308257000000134815800000008007930000000957361000000040202500000002312760000000227430000000556674400000010000
00000172801210200000020100000007062560000000171338000000026091900000008608330000000359019000000011234600000000667360000000079780000000003350300000000192750000000018952000000046389500000200000
00000172801210300000020100000021187690000000514011000000078275300000025824990000001077065000000033704000000002001990000000239340000000010050700000000578210000000056858000000139168600000400000
00000172801210400000020100000028250300000000685349000000104366800000034433320000001436092000000044938800000002669340000000319122000000013400900000000770940000000075811000000185558400000310000
00000172801300000000020100000012625770000000948410000000104313000000011844660000000996564000000108731300000011600480000000952865000000090202700000015007460000001050078000000116925700000000000
00000172801310000000020100000012625770000000948410000000104313000000011844660000000996564000000108731300000011600480000000952865000000090202700000015007460000001050078000000116925700000000000
00000172801310100000020100000007575460000000569045000000062587700000007106790000000597938000000065238700000006960280000000571719000000054121700000009004450000000630046000000070155200000010000
00000172801310200000020100000000631290000000047421000000005215700000000592230000000049828000000005436600000000580030000000047643000000004510100000000750380000000052504000000005846400000200000
00000172801310300000020100000001893870000000142262000000015646900000001776700000000149485000000016309700000001740070000000142930000000013530400000002251130000000157512000000017538900000400000
00000172801310400000020100000002525150000000189682000000020862700000002368940000000199313000000021746300000002320100000000190573000000018040500000003001500000000210016000000023385200000310000
00000172801400000000020100000002511270000000000000000000000000000000002382640000000000000000000000000000000002229030000000000000000000000000000000002178110000000000000000000000000000000000000
00000172801410000000020100000002511270000000000000000000000000000000002382640000000000000000000000000000000002229030000000000000000000000000000000002178110000000000000000000000000000010180000
00000172803000000000020100000004000000000000018000000000257813100000037661310000000018000000000395413100000030880960000004237594000000300589100000044963650000005183500000000264806200000000000
00000172803100000000020100000004000000000000018000000000257813100000037661310000000018000000000395413100000030880960000004237594000000300589100000044963650000005183500000000264806200000000000
00000172803110000000020100000004000000000000018000000000257813100000037661310000000018000000000395413100000030880960000004237594000000300589100000044963650000005183500000000264806200000000000
00000172803110100000020100000000000000000000018000000000124606900000012460690000000018000000000122806900000012460340000002470532000000125382900000018694570000002439438000000003600000040110000
00000172803110200000020100000000000000000000000000000000100000000000010000000000000000000000000160000000000010000000000001000000000000100000000000010000000000001500000000000200000000040900000
00000172803110300000020100000000000000000000000000000000000000000000000000000000000000000000000000000000000000000000000000000000000000000000000000000000000000000000000000000000000000040900000
00000172803110400000020100000000000000000000000000000000013206200000001320620000000000000000000013206200000001320620000000132062000000013206200000004622170000000132062000000013206200040500000
00000172803110500000020100000000000000000000000000000000020000000000002000000000000000000000000040000000000002000000000000200000000000020000000000004000000000000200000000000000000000041600000
00000172803110600000020100000004000000000000000000000000000000000000000000000000000000000000000000000000000000000000000000000000000000000000000000000000000000000000000000000000000000041900000
00000172803110700000020100000000000000000000000000000000000000000000011880000000000000000000000059400000000005100000000000435000000000042000000000004800000000000912000000000048000000040500000
00000172803110800000020100000000000000000000000000000000000000000000000000000000000000000000000000000000000000000000000000000000000000000000000000002846910000000000000000000000000000043000000
00000172810000000000020100000032217880000000000000000000318499500000031849950000003184995000000318499500000031849950000003184995000000398170100000031849950000003184995000000318499500000000000
00000172810200000000020100000032217880000000000000000000318499500000031849950000003184995000000318499500000031849950000003184995000000318499500000031849950000003184995000000318499500000000000
00000172810210000000020100000032217880000000000000000000318499500000031849950000003184995000000318499500000031849950000003184995000000318499500000031849950000003184995000000318499500000000000
00000172810210100000020100000032217880000000000000000000318499500000031849950000003184995000000318499500000031849950000003184995000000318499500000031849950000003184995000000318499500000000000
00000172810210101000020100000032217880000000000000000000318499500000031849950000003184995000000318499500000031849950000003184995000000318499500000031849950000003184995000000318499500010170000
00000172810900000000020100000000000000000000000000000000000000000000000000000000000000000000000000000000000000000000000000000000000000079670600000000000000000000000000000000000000000000000000
00000172810910000000020100000000000000000000000000000000000000000000000000000000000000000000000000000000000000000000000000000000000000079670600000000000000000000000000000000000000000000000000
00000172810910700000020100000000000000000000000000000000000000000000000000000000000000000000000000000000000000000000000000000000000000079670600000000000000000000000000000000000000000011030000
00000172899000000000020100000000000000000000000000000000000000000000000052500000000000000000000000000000000000000000000000000000000000000000000000000000000000000013089000000000000000000000000
00000172899100000000020100000000000000000000000000000000000000000000000052500000000000000000000000000000000000000000000000000000000000000000000000000000000000000013089000000000000000000000000
00000172899110000000020100000000000000000000000000000000000000000000000052500000000000000000000000000000000000000000000000000000000000000000000000000000000000000013089000000000000000000000000
00000172899110100000020100000000000000000000000000000000000000000000000052500000000000000000000000000000000000000000000000000000000000000000000000000000000000000013089000000000000000011140000
00000174000000000000020100000000000000000000800000000000000000000000008391770000000000000000000000000000000005023020000000000000000000000000000000000000000000000000000000000025000000000000000
00000174000100000000020100000000000000000000000000000000000000000000008391770000000000000000000000000000000005023020000000000000000000000000000000000000000000000000000000000025000000000000000
00000174000110000000020100000000000000000000000000000000000000000000008391770000000000000000000000000000000005023020000000000000000000000000000000000000000000000000000000000025000000000000000
00000174000110100000020100000000000000000000000000000000000000000000008391770000000000000000000000000000000005023020000000000000000000000000000000000000000000000000000000000025000000010500000
00000174800000000000020100000000000000000000800000000000000000000000000000000000000000000000000000000000000000000000000000000000000000000000000000000000000000000000000000000000000000000000000
00000174810000000000020100000000000000000000800000000000000000000000000000000000000000000000000000000000000000000000000000000000000000000000000000000000000000000000000000000000000000000000000
00000174810100000000020100000000000000000000800000000000000000000000000000000000000000000000000000000000000000000000000000000000000000000000000000000000000000000000000000000000000000000000000
00000174810110000000020100000000000000000000800000000000000000000000000000000000000000000000000000000000000000000000000000000000000000000000000000000000000000000000000000000000000000000000000
00000174810110100000020100000000000000000000800000000000000000000000000000000000000000000000000000000000000000000000000000000000000000000000000000000000000000000000000000000000000000000010000
00000175000000000000020100000266176790000022207138000002379588900000248756600000025718605000001979395100000223245800000022339188000001967946600000234403280000024080444000002859904000000000000
00000175800000000000020100000266176790000022207138000002379588900000248756600000025718605000001979395100000223245800000022339188000001967946600000234403280000024080444000002859904000000000000
00000175801000000000020100000265953400000022207138000002379588900000248756600000025718605000001979395100000223245800000022339188000001967946600000234403280000024080444000002859904000000000000
00000175801100000000020100000265953400000022207138000002379588900000248756600000025718605000001979395100000223245800000022339188000001967946600000234403280000024080444000002859904000000000000
00000175801110000000020100000265953400000022207138000002379588900000248756600000025718605000001979395100000223245800000022339188000001967946600000234403280000024080444000002859904000000310000
00000175899000000000020100000000223390000000000000000000000000000000000000000000000000000000000000000000000000000000000000000000000000000000000000000000000000000000000000000000000000000000000
00000175899100000000020100000000223390000000000000000000000000000000000000000000000000000000000000000000000000000000000000000000000000000000000000000000000000000000000000000000000000000000000
00000175899110000000020100000000223390000000000000000000000000000000000000000000000000000000000000000000000000000000000000000000000000000000000000000000000000000000000000000000000000000000000
00000175899110100000020100000000223390000000000000000000000000000000000000000000000000000000000000000000000000000000000000000000000000000000000000000000000000000000000000000000000000000010000
00000190000000000000020100000005496200000000671334000000073505800000053586320000001146387000000323913000000008743990000000909867000000096763800000010325900000001135985000000148828300000000000
00000192000000000000020100000004139840000000231272000000037279200000049428940000000668100000000275467200000003854890000000419407000000049321000000004731100000000567688000000048170400000000000
00000192800000000000020100000004139840000000231272000000037279200000049428940000000668100000000275467200000003854890000000419407000000049321000000004731100000000567688000000048170400000000000
00000192801000000000020100000003324140000000203359000000029758400000003513980000000373054000000037270300000003694980000000373709000000045472900000004645300000000478640000000047287000000000000
00000192801100000000020100000003324140000000203359000000029758400000003513980000000373054000000037270300000003694980000000373709000000045472900000004645300000000478640000000047287000000000000
00000192801110000000020100000003324140000000203359000000029758400000003513980000000373054000000037270300000003694980000000373709000000045472900000004645300000000478640000000047287000000000000
00000192801110100000020100000003324140000000203359000000029758400000003513980000000373054000000037270300000003694980000000373709000000045472900000004645300000000478640000000047287000000010000
00000192802000000000020100000000815700000000027913000000007520800000045914960000000295046000000238196900000000159910000000045698000000003848100000000085800000000089048000000000883400000000000
00000192802900000000020100000000815700000000027913000000007520800000045914960000000295046000000238196900000000159910000000045698000000003848100000000085800000000089048000000000883400000000000
00000192802910000000020100000000027540000000002754000000005987800000045567540000000253000000000229605400000000080540000000008054000000002099200000000000000000000057831000000000000000000000000
00000192802910200000020100000000000000000000000000000000000000000000045540000000000253000000000228800000000000000000000000000000000000000000000000000000000000000000000000000000000000000010000
00000192802910800000020100000000027540000000002754000000001316700000000027540000000000000000000000805400000000080540000000008054000000002099200000000000000000000057831000000000000000000010000
00000192802910900000020100000000000000000000000000000000004671100000000000000000000000000000000000000000000000000000000000000000000000000000000000000000000000000000000000000000000000000010000
00000192802920000000020100000000000000000000000000000000000000000000000000000000000009804000000000000000000000000000000000000000000000000000000000000000000000000000000000000000000000000000000
00000192802920200000020100000000000000000000000000000000000000000000000000000000000009804000000000000000000000000000000000000000000000000000000000000000000000000000000000000000000000000010000
00000192802930000000020100000000499570000000019321000000001215700000000277000000000025759000000001669600000000065120000000028829000000001415400000000065120000000024745000000000651100000000000
00000192802930200000020100000000499570000000019321000000000518600000000201780000000018237000000001669600000000065120000000006263000000001415400000000065120000000024745000000000651100000010000
00000192802930800000020100000000000000000000000000000000000697100000000075220000000007522000000000000000000000000000000000022566000000000000000000000000000000000000000000000000000000000010000
00000192802940000000020100000000288590000000005838000000000317300000000070420000000006483000000006921900000000014250000000008815000000000333500000000020680000000006472000000000232300000000000
00000192802940200000020100000000288590000000005838000000000180300000000055640000000004825000000006921900000000014250000000002401000000000333500000000020680000000006472000000000232300000010000
00000192802940800000020100000000000000000000000000000000000137000000000014780000000001658000000000000000000000000000000000006414000000000000000000000000000000000000000000000000000000000010000
00000199000000000000020100000001356360000000440062000000036226600000004157380000000478287000000048445800000004889100000000490460000000047442800000005594800000000568297000000100657900000000000
00000199099000000000020100000001356360000000440062000000036226600000004157380000000478287000000048445800000004889100000000490460000000047442800000005594800000000568297000000100657900000000000
00000199099200000000020100000001356360000000440062000000036226600000004157380000000478287000000048445800000004889100000000490460000000047442800000005594800000000568297000000100657900000000000
00000199099210000000020100000001356360000000440062000000036226600000004157380000000478287000000048445800000004889100000000490460000000047442800000005594800000000568297000000100657900000000000
00000199099210200000020100000001356360000000440062000000036226600000004157380000000478287000000048445800000004889100000000490460000000047442800000005594800000000568297000000100657900000010000
00000199099990000000020100000000000000000000000000000000000000000000000000000000000000000000000000000000000000000000000000000000000000000000000000000000000000000000000000000000000000000010000
00000200000000000000020100000000000000000000000000000000737550000000000000000000004917000000000000000000000049170000000011741683000000000000000000234395050000000000000000000000000000000000000
00000240000000000000020100000000000000000000000000000000737550000000000000000000004917000000000000000000000049170000000011741683000000000000000000234395050000000000000000000000000000000000000
00000241000000000000020100000000000000000000000000000000737550000000000000000000004917000000000000000000000049170000000011741683000000000000000000234395050000000000000000000000000000000000000
00000241800000000000020100000000000000000000000000000000737550000000000000000000004917000000000000000000000049170000000011741683000000000000000000234395050000000000000000000000000000000000000
00000241810000000000020100000000000000000000000000000000737550000000000000000000004917000000000000000000000049170000000011741683000000000000000000234395050000000000000000000000000000000000000
00000241810700000000020100000000000000000000000000000000737550000000000000000000000000000000000000000000000049170000000000000000000000000000000000049170000000000000000000000000000000000000000
00000241810710000000020100000000000000000000000000000000737550000000000000000000000000000000000000000000000049170000000000000000000000000000000000049170000000000000000000000000000000000000000
00000241810710100000020100000000000000000000000000000000737550000000000000000000000000000000000000000000000049170000000000000000000000000000000000000000000000000000000000000000000000012000000
00000241810710200000020100000000000000000000000000000000000000000000000000000000000000000000000000000000000000000000000000000000000000000000000000000000000000000000000000000000000000012030000
00000241810710300000020100000000000000000000000000000000000000000000000000000000000000000000000000000000000000000000000000000000000000000000000000049170000000000000000000000000000000012030000
00000241810900000000020100000000000000000000000000000000000000000000000000000000004917000000000000000000000000000000000011741683000000000000000000185225050000000000000000000000000000000000000
00000241810910000000020100000000000000000000000000000000000000000000000000000000004917000000000000000000000000000000000011741683000000000000000000185225050000000000000000000000000000000000000
00000241810910100000020100000000000000000000000000000000000000000000000000000000000000000000000000000000000000000000000000000000000000000000000000185225050000000000000000000000000000012060000
00000241810910200000020100000000000000000000000000000000000000000000000000000000000000000000000000000000000000000000000011741683000000000000000000000000000000000000000000000000000000012070000
00000241810910300000020100000000000000000000000000000000000000000000000000000000004917000000000000000000000000000000000000000000000000000000000000000000000000000000000000000000000000010220000
00000700000000000000020100000134261880000021012269000001795569200000181568540000018774239000001856981500000185962630000018685186000001848338100000187688520000018954166000005648515300000000000
00000720000000000000020100000134261880000021012269000001795569200000181568540000018774239000001856981500000185962630000018685186000001848338100000187688520000018954166000005648515300000000000
00000721000000000000020100000134261880000021012269000001795569200000181568540000018774239000001856981500000185962630000018685186000001848338100000187688520000018954166000005648515300000000000
00000721800000000000020100000134261880000021012269000001795569200000181568540000018774239000001856981500000185962630000018685186000001848338100000187688520000018954166000005648515300000000000
00000721803000000000020100000000000000000021012269000001795569200000181568540000018774239000001856981500000185962630000018685186000001848338100000187688520000018954166000005648515300000000000
00000721803100000000020100000000000000000021012269000001795569200000181568540000018767283000001853128200000185577300000018646653000001844484800000187303190000018915633000005636955400000000000
00000721803110000000020100000000000000000021012269000001795569200000181568540000018767283000001853128200000185577300000018646653000001844484800000187303190000018915633000005636955400000000000
00000721803110100000020100000000000000000009166069000000783271200000079204660000008182828000000806208100000080736170000008112405000000802437100000081488990000008229740000002452463300000500000
00000721803110200000020100000000000000000011846200000001012298000000102363880000010584455000001046920100000104841130000010534248000001042047700000105814200000010685893000003184492100000500000
00000721803300000000020100000000000000000000000000000000000000000000000000000000000006956000000003853300000000385330000000038533000000003853300000000385330000000038533000000011559900000000000
00000721803310000000020100000000000000000000000000000000000000000000000000000000000006956000000003853300000000385330000000038533000000003853300000000385330000000038533000000011559900000500000
00000721804000000000020100000134261880000000000000000000000000000000000000000000000000000000000000000000000000000000000000000000000000000000000000000000000000000000000000000000000000000000000
00000721804100000000020100000134261880000000000000000000000000000000000000000000000000000000000000000000000000000000000000000000000000000000000000000000000000000000000000000000000000000000000
00000721804110000000020100000134261880000000000000000000000000000000000000000000000000000000000000000000000000000000000000000000000000000000000000000000000000000000000000000000000000000500000
000009000000000000000201-000032755195-000030058586-000028151016-000034216805-000031770423-000031902464-000026801112-000030687636-000025991562-000028867561-000051131326-00004215577200000000000
000009100000000000000201-000032755195-000030058586-000028151016-000034216805-000031770423-000031902464-000026801112-000030687636-000025991562-000028867561-000051131326-00004215577200000000000
000009110000000000000201-0000017760000000000000000-000000654231-000000947008-000001758493-00000483141200000000000000000000000000000000000000000000000000000000000000000000000000000000000000000
000009111000000000000201-0000017760000000000000000-000000654231-000000947008-000001758493-00000483141200000000000000000000000000000000000000000000000000000000000000000000000000000000000000000
000009111800000000000201-0000017760000000000000000-000000654231-000000947008-000001758493-00000483141200000000000000000000000000000000000000000000000000000000000000000000000000000000000000000
000009111801000000000201-0000017760000000000000000-000000654231-000000947008-000001758493-00000483141200000000000000000000000000000000000000000000000000000000000000000000000000000000000000000
00000911180110000000020100000000000000000000000000-000000654231-000000947008-000001758493-00000418761200000000000000000000000000000000000000000000000000000000000000000000000000000000000000000
00000911180111000000020100000000000000000000000000-000000654231-000000947008-000001758493-00000418761200000000000000000000000000000000000000000000000000000000000000000000000000000000000000000
00000911180111010000020100000000000000000000000000-000000392515-000000568181-000001055047-00000251250800000000000000000000000000000000000000000000000000000000000000000000000000000010300010000
00000911180111020000020100000000000000000000000000-000000163576-000000236772-000000439658-00000104694800000000000000000000000000000000000000000000000000000000000000000000000000000010300200000
00000911180111030000020100000000000000000000000000-000000098140-000000142055-000000263788-00000062815600000000000000000000000000000000000000000000000000000000000000000000000000000010300400000
000009111801400000000201-0000017760000000000000000000000000000000000000000000000000000000-00000064380000000000000000000000000000000000000000000000000000000000000000000000000000000000000000000
000009111801410000000201-0000017760000000000000000000000000000000000000000000000000000000-00000064380000000000000000000000000000000000000000000000000000000000000000000000000000000000000000000
00000911180141010000020100000000000000000000000000000000000000000000000000000000000000000-00000038628000000000000000000000000000000000000000000000000000000000000000000000000000000010800010000
000009111801410100000201-0000010656000000000000000000000000000000000000000000000000000000000000000000000000000000000000000000000000000000000000000000000000000000000000000000000000010900010000
00000911180141020000020100000000000000000000000000000000000000000000000000000000000000000-00000016095000000000000000000000000000000000000000000000000000000000000000000000000000000010800200000
000009111801410200000201-0000004440000000000000000000000000000000000000000000000000000000000000000000000000000000000000000000000000000000000000000000000000000000000000000000000000010900200000
00000911180141030000020100000000000000000000000000000000000000000000000000000000000000000-00000009657000000000000000000000000000000000000000000000000000000000000000000000000000000010800400000
000009111801410300000201-0000002664000000000000000000000000000000000000000000000000000000000000000000000000000000000000000000000000000000000000000000000000000000000000000000000000010900400000
0000091300000000000002010000000000000000000000000000000000000000000000000000000000000000000000000000000000000000000-00000478839100000000000000000000000000-000022883221000000000000000000000000
0000091320000000000002010000000000000000000000000000000000000000000000000000000000000000000000000000000000000000000-00000478839100000000000000000000000000-000022883221000000000000000000000000
0000091321000000000002010000000000000000000000000000000000000000000000000000000000000000000000000000000000000000000-00000478839100000000000000000000000000-000022883221000000000000000000000000
0000091321004101000002010000000000000000000000000000000000000000000000000000000000000000000000000000000000000000000-00000180246900000000000000000000000000-000006019130000000000000010900500000
0000091321004102000002010000000000000000000000000000000000000000000000000000000000000000000000000000000000000000000-00000227704100000000000000000000000000-000005000509000000000000010900500000
0000091321004103000002010000000000000000000000000000000000000000000000000000000000000000000000000000000000000000000-000000708881000000000000000000000000000000000000000000000000000010900500000
0000091321004106000002010000000000000000000000000000000000000000000000000000000000000000000000000000000000000000000000000000000000000000000000000000000000-000002482200000000000000010900500000
0000091321004110000002010000000000000000000000000000000000000000000000000000000000000000000000000000000000000000000000000000000000000000000000000000000000-000002752380000000000000010900500000
0000091321004111000002010000000000000000000000000000000000000000000000000000000000000000000000000000000000000000000000000000000000000000000000000000000000-000002611856000000000000010900500000
0000091321004112000002010000000000000000000000000000000000000000000000000000000000000000000000000000000000000000000000000000000000000000000000000000000000-000004017146000000000000010900500000
000009170000000000000201-000030979195-000030058586-000027496785-000033269797-000030011930-000027071052-000026801112-000025899245-000025991562-000028867561-000028248105-00004215577200000000000
000009171000000000000201-000015525215-000016980624-000012709830-000012402074-000015923576-000012564038-000010310283-000012542302-000011549237-000011393998-000014000502-00001670534700000000000
000009171800000000000201-000015525215-000016980624-000012709830-000012402074-000015923576-000012564038-000010310283-000012542302-000011549237-000011393998-000014000502-00001670534700000000000
000009171801000000000201-000015525215-000016980624-000012709830-000012402074-000015923576-000012564038-000010310283-000012542302-000011549237-000011393998-000014000502-00001670534700000000000
000009171801200000000201-000015453632-000016974888-000012709830-000012399838-000015913032-000012534659-000010309316-000012511835-000011137378-000010253403-000013915335-00001662948000000000000
000009171801210000000201-000015453632-000016974888-000012709830-000012399838-000015913032-000012534659-000010309316-000012511835-000011137378-000010253403-000013915335-00001662948000000000000
00000917180121040000020100000000000000000000000000000000000000000000000000000000000000000000000000000000000000000000000000000000000000000000000000000000000000000000000000000000000010300310000
000009171801210400000201-000015453632-000016974888-000012709830-000012399838-000015913032-000012534659-000010309316-000012511835-000011137378-000010253403-000013915335-00001662948010500310000
000009171801500000000201-000000071583-0000000057360000000000000-000000002236-000000010544-000000029379-000000000967-000000030467-000000411859-000001140595-000000085167-00000007586700000000000
000009171801510000000201-000000071583-0000000057360000000000000-000000002236-000000010544-000000029379-000000000967-000000030467-000000411859-000001140595-000000085167-00000007586700000000000
00000917180151040000020100000000000000000000000000000000000000000000000000000000000000000000000000000000000000000000000000000000000000000000000000000000000000000000000000000000000010300310000
000009171801510400000201-000000071583-0000000057360000000000000-000000002236-000000010544-000000029379-000000000967-000000030467-000000411859-000001140595-000000085167-00000007586710500310000
00000917180600000000020100000000000000000000000000000000000000000000000000000000000000000000000000000000000000000000000000000000000000000000000000000000000000000000000000000000000000000000000
00000917180610000000020100000000000000000000000000000000000000000000000000000000000000000000000000000000000000000000000000000000000000000000000000000000000000000000000000000000000000000000000
00000917180611000000020100000000000000000000000000000000000000000000000000000000000000000000000000000000000000000000000000000000000000000000000000000000000000000000000000000000000000000000000
00000917180611040000020100000000000000000000000000000000000000000000000000000000000000000000000000000000000000000000000000000000000000000000000000000000000000000000000000000000000010300310000
000009172000000000000201-000015453980-000013077962-000014786955-000020867723-000014088354-000014507014-000016490829-000013356943-000014442325-000017473563-000014247603-00002545042500000000000
000009172800000000000201-000015453980-000013077962-000014786955-000020867723-000014088354-000014507014-000016490829-000013356943-000014442325-000017473563-000014247603-00002545042500000000000
000009172801000000000201-000015453980-000013077962-000014786955-000020867723-000014088354-000014507014-000016490829-000013356943-000014442325-000017473563-000014247603-00002545042500000000000
000009172801100000000201-000012376435-000012202931-000013534660-000017187497-000012452949-000013840163-000015991885-000012847248-000014127911-000017096319-000013961776-00002336098900000000000
000009172801110000000201-000012376435-000012202931-000013534660-000017187497-000012452949-000013840163-000015991885-000012847248-000014127911-000017096319-000013961776-00002336098900000000000
00000917280111040000020100000000000000000000000000000000000000000000000000000000000000000000000000000000000000000000000000000000000000000000000000000000000000000000000000000000000010300310000
000009172801110400000201-000012376435-000012202931-000013534660-000017187497-000012452949-000013840163-000015991885-000012847248-000014127911-000017096319-000013961776-00002336098910500310000
000009172801200000000201-000002825030-000000685349-000001043668-000003443332-000001436092-000000449388-000000266934-000000319122-000000134009-000000077094-000000075811-00000185558400000000000
000009172801210000000201-000002825030-000000685349-000001043668-000003443332-000001436092-000000449388-000000266934-000000319122-000000134009-000000077094-000000075811-00000185558400000000000
00000917280121040000020100000000000000000000000000000000000000000000000000000000000000000000000000000000000000000000000000000000000000000000000000000000000000000000000000000000000010300310000
000009172801210400000201-000002825030-000000685349-000001043668-000003443332-000001436092-000000449388-000000266934-000000319122-000000134009-000000077094-000000075811-00000185558410500310000
000009172801300000000201-000000252515-000000189682-000000208627-000000236894-000000199313-000000217463-000000232010-000000190573-000000180405-000000300150-000000210016-00000023385200000000000
000009172801310000000201-000000252515-000000189682-000000208627-000000236894-000000199313-000000217463-000000232010-000000190573-000000180405-000000300150-000000210016-00000023385200000000000
00000917280131040000020100000000000000000000000000000000000000000000000000000000000000000000000000000000000000000000000000000000000000000000000000000000000000000000000000000000000010300310000
000009172801310400000201-000000252515-000000189682-000000208627-000000236894-000000199313-000000217463-000000232010-000000190573-000000180405-000000300150-000000210016-00000023385210500310000
0000091321004000000002010000000000000000000000000000000000000000000000000000000000000000000000000000000000000000000-00000478839100000000000000000000000000-000022883221000000000000000000000000
0000091321004100000002010000000000000000000000000000000000000000000000000000000000000000000000000000000000000000000-00000478839100000000000000000000000000-000022883221000000000000000000000000
FINALIZADOR0000000472                                                                                                                                                                          
