87612826000190010120203004202008052020PREFEITURA MUNICIPAL INDEPENDENCIA                                              
00000100000000000000020100002436795140000281971488000025273041600002406517490000000000000000000000000000000000000000000000000000000000000000000000000000000000000000000000000000000000051479244100058057642900052100358800055411233800051418229300057763466500000000000
00000110000000000000020100000141062690000010421941000001713070000000211035720000000000000000000000000000000000000000000000000000000000000000000000000000000000000000000000000000000000005037596000005037596000005037596000005037596000005037596000005171670500000000000
00000111000000000000020100000138289170000010111835000001680950000000206707720000000000000000000000000000000000000000000000000000000000000000000000000000000000000000000000000000000000004930614600004930614600004930614600004930614600004930614600005064684900000000000
00000111300000000000020100000078063000000005382272000000533847000000052503100000000000000000000000000000000000000000000000000000000000000000000000000000000000000000000000000000000000001139615800001139615800001139615800001139615800001139615800001273688700000000000
00000111303000000000020100000078063000000005382272000000533847000000052503100000000000000000000000000000000000000000000000000000000000000000000000000000000000000000000000000000000000001139615800001139615800001139615800001139615800001139615800001273688700000000000
00000111303100000000020100000078063000000005382272000000533847000000052503100000000000000000000000000000000000000000000000000000000000000000000000000000000000000000000000000000000000001139615800001139615800001139615800001139615800001139615800001273688700000000000
00000111303110000000020100000078063000000005382272000000533847000000052503100000000000000000000000000000000000000000000000000000000000000000000000000000000000000000000000000000000000001139615800001139615800001139615800001139615800001139615800001273688700000000000
00000111303110100000020100000062909280000004196435000000413585300000040545110000000000000000000000000000000000000000000000000000000000000000000000000000000000000000000000000000000000000970290400000970290400000970290400000970290400000970290400001084442500000000000
00000111303110101000020100000037745570000002517861000000248151200000024327060000000000000000000000000000000000000000000000000000000000000000000000000000000000000000000000000000000000000593589400000593589400000593589400000593589400000593589400000593589700000010000
00000111303110102000020100000015727320000001049109000000103396300000010136280000000000000000000000000000000000000000000000000000000000000000000000000000000000000000000000000000000000000228303600000228303600000228303600000228303600000228303600000342455600000200000
00000111303110103000020100000009436390000000629465000000062037800000006081770000000000000000000000000000000000000000000000000000000000000000000000000000000000000000000000000000000000000148397400000148397400000148397400000148397400000148397400000148397200000400000
00000111303110200000020100000005682760000000402432000000038773300000003693520000000000000000000000000000000000000000000000000000000000000000000000000000000000000000000000000000000000000071197800000071197800000071197800000071197800000071197800000079574300000000000
00000111303110201000020100000003409660000000241459000000023264000000002216110000000000000000000000000000000000000000000000000000000000000000000000000000000000000000000000000000000000000043556400000043556400000043556400000043556400000043556400000043556000000010000
00000111303110202000020100000001420690000000100608000000009693300000000923380000000000000000000000000000000000000000000000000000000000000000000000000000000000000000000000000000000000000016752400000016752400000016752400000016752400000016752400000025128800000200000
00000111303110203000020100000000852410000000060365000000005816000000000554030000000000000000000000000000000000000000000000000000000000000000000000000000000000000000000000000000000000000010889000000010889000000010889000000010889000000010889000000010889500000400000
00000111303110300000020100000009470960000000783405000000081488400000008264470000000000000000000000000000000000000000000000000000000000000000000000000000000000000000000000000000000000000098127600000098127600000098127600000098127600000098127600000109671900000000000
00000111303110301000020100000005682580000000470043000000048893000000004958680000000000000000000000000000000000000000000000000000000000000000000000000000000000000000000000000000000000000060031000000060031000000060031000000060031000000060031000000060030900000010000
00000111303110302000020100000002367740000000195851000000020372100000002066120000000000000000000000000000000000000000000000000000000000000000000000000000000000000000000000000000000000000023088800000023088800000023088800000023088800000023088800000034633500000200000
00000111303110303000020100000001420640000000117511000000012223300000001239670000000000000000000000000000000000000000000000000000000000000000000000000000000000000000000000000000000000000015007800000015007800000015007800000015007800000015007800000015007500000400000
00000111800000000000020100000060226170000004729563000001147103000000154204620000000000000000000000000000000000000000000000000000000000000000000000000000000000000000000000000000000000003790998800003790998800003790998800003790998800003790998800003790996200000000000
00000111801000000000020100000028919760000002051971000000885874700000118654320000000000000000000000000000000000000000000000000000000000000000000000000000000000000000000000000000000000003155161400003155161400003155161400003155161400003155161400003155157800000000000
00000111801100000000020100000011781130000000481313000000386194700000015484320000000000000000000000000000000000000000000000000000000000000000000000000000000000000000000000000000000000000934532600000934532600000934532600000934532600000934532600000934529800000000000
00000111801110000000020100000000000000000000000000000000333998300000011660290000000000000000000000000000000000000000000000000000000000000000000000000000000000000000000000000000000000000776471000000776471000000776471000000776471000000776471000000776470700000000000
00000111801110100000020100000000000000000000000000000000200397300000006996140000000000000000000000000000000000000000000000000000000000000000000000000000000000000000000000000000000000000465882600000465882600000465882600000465882600000465882600000465882400000010000
00000111801110200000020100000000000000000000000000000000083501300000002915080000000000000000000000000000000000000000000000000000000000000000000000000000000000000000000000000000000000000194117800000194117800000194117800000194117800000194117800000194117400000200000
00000111801110300000020100000000000000000000000000000000050099700000001749070000000000000000000000000000000000000000000000000000000000000000000000000000000000000000000000000000000000000116470600000116470600000116470600000116470600000116470600000116470900000400000
00000111801120000000020100000000000000000000000000000000000000000000000000000000000000000000000000000000000000000000000000000000000000000000000000000000000000000000000000000000000000000006430200000006430200000006430200000006430200000006430200000006428800000000000
00000111801120100000020100000000000000000000000000000000000000000000000000000000000000000000000000000000000000000000000000000000000000000000000000000000000000000000000000000000000000000003858000000003858000000003858000000003858000000003858000000003857800000010000
00000111801120200000020100000000000000000000000000000000000000000000000000000000000000000000000000000000000000000000000000000000000000000000000000000000000000000000000000000000000000000001607600000001607600000001607600000001607600000001607600000001607000000200000
00000111801120300000020100000000000000000000000000000000000000000000000000000000000000000000000000000000000000000000000000000000000000000000000000000000000000000000000000000000000000000000964600000000964600000000964600000000964600000000964600000000964000000400000
00000111801130000000020100000007257660000000403650000000037604200000002789710000000000000000000000000000000000000000000000000000000000000000000000000000000000000000000000000000000000000111554000000111554000000111554000000111554000000111554000000111553700000000000
00000111801130100000020100000004354570000000242183000000022562400000001673800000000000000000000000000000000000000000000000000000000000000000000000000000000000000000000000000000000000000066932400000066932400000066932400000066932400000066932400000066932200000010000
00000111801130200000020100000001814450000000100919000000009401200000000697450000000000000000000000000000000000000000000000000000000000000000000000000000000000000000000000000000000000000027888400000027888400000027888400000027888400000027888400000027888900000200000
00000111801130300000020100000001088640000000060548000000005640600000000418460000000000000000000000000000000000000000000000000000000000000000000000000000000000000000000000000000000000000016733200000016733200000016733200000016733200000016733200000016732600000400000
00000111801140000000020100000004523470000000077663000000014592200000001034320000000000000000000000000000000000000000000000000000000000000000000000000000000000000000000000000000000000000040077400000040077400000040077400000040077400000040077400000040076600000000000
00000111801140100000020100000002714040000000046598000000008755300000000620590000000000000000000000000000000000000000000000000000000000000000000000000000000000000000000000000000000000000024046400000024046400000024046400000024046400000024046400000024046200000010000
00000111801140200000020100000001130900000000019417000000003648200000000258590000000000000000000000000000000000000000000000000000000000000000000000000000000000000000000000000000000000000010019400000010019400000010019400000010019400000010019400000010018900000200000
00000111801140300000020100000000678530000000011648000000002188700000000155140000000000000000000000000000000000000000000000000000000000000000000000000000000000000000000000000000000000000006011600000006011600000006011600000006011600000006011600000006011500000400000
00000111801400000000020100000017138630000001570658000000499680000000103170000000000000000000000000000000000000000000000000000000000000000000000000000000000000000000000000000000000000002220628800002220628800002220628800002220628800002220628800002220628000000000000
00000111801410000000020100000017138630000001570658000000499680000000103170000000000000000000000000000000000000000000000000000000000000000000000000000000000000000000000000000000000000002220628800002220628800002220628800002220628800002220628800002220628000000000000
00000111801410100000020100000010283180000000942394000000299808000000061902000000000000000000000000000000000000000000000000000000000000000000000000000000000000000000000000000000000000001332377200001332377200001332377200001332377200001332377200001332377200000010000
00000111801410200000020100000004284660000000392665000000124920000000025792500000000000000000000000000000000000000000000000000000000000000000000000000000000000000000000000000000000000000555157200000555157200000555157200000555157200000555157200000555157000000200000
00000111801410300000020100000002570790000000235599000000074952000000015475500000000000000000000000000000000000000000000000000000000000000000000000000000000000000000000000000000000000000333094400000333094400000333094400000333094400000333094400000333093800000400000
00000111802000000000020100000031306410000002677592000000261228300000035550300000000000000000000000000000000000000000000000000000000000000000000000000000000000000000000000000000000000000635837400000635837400000635837400000635837400000635837400000635838400000000000
00000111802300000000020100000031306410000002677592000000261228300000035550300000000000000000000000000000000000000000000000000000000000000000000000000000000000000000000000000000000000000635837400000635837400000635837400000635837400000635837400000635838400000000000
00000111802310000000020100000030675760000002647807000000257514100000035464840000000000000000000000000000000000000000000000000000000000000000000000000000000000000000000000000000000000000606005800000606005800000606005800000606005800000606005800000606006600000000000
00000111802310100000020100000018405390000001588680000000154508100000021278810000000000000000000000000000000000000000000000000000000000000000000000000000000000000000000000000000000000000363603600000363603600000363603600000363603600000363603600000363603400000010000
00000111802310200000020100000007668970000000661954000000064378800000008866260000000000000000000000000000000000000000000000000000000000000000000000000000000000000000000000000000000000000151501400000151501400000151501400000151501400000151501400000151501900000200000
00000111802310300000020100000004601400000000397173000000038627200000005319770000000000000000000000000000000000000000000000000000000000000000000000000000000000000000000000000000000000000090900800000090900800000090900800000090900800000090900800000090901300000400000
00000111802320000000020100000000412130000000019785000000003714200000000085460000000000000000000000000000000000000000000000000000000000000000000000000000000000000000000000000000000000000006055000000006055000000006055000000006055000000006055000000006055400000000000
00000111802320100000020100000000247270000000011871000000002228500000000051270000000000000000000000000000000000000000000000000000000000000000000000000000000000000000000000000000000000000003633000000003633000000003633000000003633000000003633000000003633200000010000
00000111802320200000020100000000103040000000004946000000000928600000000021370000000000000000000000000000000000000000000000000000000000000000000000000000000000000000000000000000000000000001513800000001513800000001513800000001513800000001513800000001513600000200000
00000111802320300000020100000000061820000000002968000000000557100000000012820000000000000000000000000000000000000000000000000000000000000000000000000000000000000000000000000000000000000000908200000000908200000000908200000000908200000000908200000000908600000400000
00000111802330000000020100000000203480000000009419000000000000000000000000000000000000000000000000000000000000000000000000000000000000000000000000000000000000000000000000000000000000000011073600000011073600000011073600000011073600000011073600000011074100000000000
00000111802330100000020100000000122090000000005651000000000000000000000000000000000000000000000000000000000000000000000000000000000000000000000000000000000000000000000000000000000000000006644200000006644200000006644200000006644200000006644200000006644300000010000
00000111802330200000020100000000050870000000002355000000000000000000000000000000000000000000000000000000000000000000000000000000000000000000000000000000000000000000000000000000000000000002768400000002768400000002768400000002768400000002768400000002768500000200000
00000111802330300000020100000000030520000000001413000000000000000000000000000000000000000000000000000000000000000000000000000000000000000000000000000000000000000000000000000000000000000001661000000001661000000001661000000001661000000001661000000001661300000400000
00000111802340000000020100000000015040000000000581000000000000000000000000000000000000000000000000000000000000000000000000000000000000000000000000000000000000000000000000000000000000000012703000000012703000000012703000000012703000000012703000000012702300000000000
00000111802340100000020100000000009020000000000349000000000000000000000000000000000000000000000000000000000000000000000000000000000000000000000000000000000000000000000000000000000000000007621800000007621800000007621800000007621800000007621800000007621400000010000
00000111802340200000020100000000003770000000000145000000000000000000000000000000000000000000000000000000000000000000000000000000000000000000000000000000000000000000000000000000000000000003175800000003175800000003175800000003175800000003175800000003175300000200000
00000111802340300000020100000000002250000000000087000000000000000000000000000000000000000000000000000000000000000000000000000000000000000000000000000000000000000000000000000000000000000001905400000001905400000001905400000001905400000001905400000001905600000400000
00000112000000000000020100000002773520000000310106000000032120000000004328000000000000000000000000000000000000000000000000000000000000000000000000000000000000000000000000000000000000000106981400000106981400000106981400000106981400000106981400000106985600000000000
00000112800000000000020100000002773520000000310106000000032120000000004328000000000000000000000000000000000000000000000000000000000000000000000000000000000000000000000000000000000000000106981400000106981400000106981400000106981400000106981400000106985600000000000
00000112801000000000020100000002773520000000310106000000032120000000004328000000000000000000000000000000000000000000000000000000000000000000000000000000000000000000000000000000000000000106981400000106981400000106981400000106981400000106981400000106985600000000000
00000112801100000000020100000000121000000000038700000000001290000000000258000000000000000000000000000000000000000000000000000000000000000000000000000000000000000000000000000000000000000005489400000005489400000005489400000005489400000005489400000005490000000000000
00000112801110000000020100000000121000000000038700000000001290000000000258000000000000000000000000000000000000000000000000000000000000000000000000000000000000000000000000000000000000000005489400000005489400000005489400000005489400000005489400000005490000000010000
00000112801900000000020100000002652520000000271406000000030830000000004070000000000000000000000000000000000000000000000000000000000000000000000000000000000000000000000000000000000000000101492000000101492000000101492000000101492000000101492000000101495600000000000
00000112801910000000020100000002076000000000241000000000030830000000004070000000000000000000000000000000000000000000000000000000000000000000000000000000000000000000000000000000000000000101492000000101492000000101492000000101492000000101492000000101495600000000000
00000112801910100000020100000000168000000000005700000000004300000000000854000000000000000000000000000000000000000000000000000000000000000000000000000000000000000000000000000000000000000048849200000048849200000048849200000048849200000048849200000048850100000010000
00000112801910300000020100000000341000000000023700000000006510000000001071000000000000000000000000000000000000000000000000000000000000000000000000000000000000000000000000000000000000000010421200000010421200000010421200000010421200000010421200000010422100000010000
00000112801910400000020100000001403000000000097800000000011210000000001283000000000000000000000000000000000000000000000000000000000000000000000000000000000000000000000000000000000000000021896000000021896000000021896000000021896000000021896000000021896700000010000
00000112801910500000020100000000000000000000107400000000000670000000000287000000000000000000000000000000000000000000000000000000000000000000000000000000000000000000000000000000000000000014506800000014506800000014506800000014506800000014506800000014507600010050000
00000112801910600000020100000000164000000000006400000000008140000000000463000000000000000000000000000000000000000000000000000000000000000000000000000000000000000000000000000000000000000005818800000005818800000005818800000005818800000005818800000005819100000010000
00000112801910700000020100000000000000000000000000000000000000000000000112000000000000000000000000000000000000000000000000000000000000000000000000000000000000000000000000000000000000000000000000000000000000000000000000000000000000000000000000000000000000000010000
00000112801930000000020100000000491030000000025168000000000000000000000000000000000000000000000000000000000000000000000000000000000000000000000000000000000000000000000000000000000000000000000000000000000000000000000000000000000000000000000000000000000000000000000
00000112801930100000020100000000280030000000025168000000000000000000000000000000000000000000000000000000000000000000000000000000000000000000000000000000000000000000000000000000000000000000000000000000000000000000000000000000000000000000000000000000000000000010000
00000112801930400000020100000000211000000000000000000000000000000000000000000000000000000000000000000000000000000000000000000000000000000000000000000000000000000000000000000000000000000000000000000000000000000000000000000000000000000000000000000000000000000010000
00000112801940000000020100000000085490000000005238000000000000000000000000000000000000000000000000000000000000000000000000000000000000000000000000000000000000000000000000000000000000000000000000000000000000000000000000000000000000000000000000000000000000000000000
00000112801940100000020100000000078200000000005238000000000000000000000000000000000000000000000000000000000000000000000000000000000000000000000000000000000000000000000000000000000000000000000000000000000000000000000000000000000000000000000000000000000000000010000
00000112801940400000020100000000007290000000000000000000000000000000000000000000000000000000000000000000000000000000000000000000000000000000000000000000000000000000000000000000000000000000000000000000000000000000000000000000000000000000000000000000000000000010000
00000120000000000000020100000018238360000010213297000000899615000000087656780000000000000000000000000000000000000000000000000000000000000000000000000000000000000000000000000000000000001717532600001717532600001717532600001717532600001717532600002415118000000000000
00000121000000000000020100000000000000000008478867000000702691700000070082920000000000000000000000000000000000000000000000000000000000000000000000000000000000000000000000000000000000001395168600001395168600001395168600001395168600001395168600002092752900000000000
00000121800000000000020100000000000000000008478867000000702691700000070082920000000000000000000000000000000000000000000000000000000000000000000000000000000000000000000000000000000000001395168600001395168600001395168600001395168600001395168600002092752900000000000
00000121801000000000020100000000000000000008478867000000702691700000070082920000000000000000000000000000000000000000000000000000000000000000000000000000000000000000000000000000000000001395168600001395168600001395168600001395168600001395168600002092752900000000000
00000121801100000000020100000000000000000008447551000000699560100000069769760000000000000000000000000000000000000000000000000000000000000000000000000000000000000000000000000000000000001388600000001388600000001388600000001388600000001388600000002082900000000000000
00000121801110000000120100000000000000000008447551000000699560100000069769760000000000000000000000000000000000000000000000000000000000000000000000000000000000000000000000000000000000001388600000001388600000001388600000001388600000001388600000002082900000000500000
00000121801300000000020100000000000000000000031316000000003131600000000313160000000000000000000000000000000000000000000000000000000000000000000000000000000000000000000000000000000000000006568600000006568600000006568600000006568600000006568600000009852900000000000
00000121801310000000120100000000000000000000031316000000003131600000000313160000000000000000000000000000000000000000000000000000000000000000000000000000000000000000000000000000000000000006568600000006568600000006568600000006568600000006568600000009852900000500000
00000124000000000000020100000018238360000001734430000000196923300000017573860000000000000000000000000000000000000000000000000000000000000000000000000000000000000000000000000000000000000322364000000322364000000322364000000322364000000322364000000322365100000000000
00000124000100000000020100000018238360000001734430000000196923300000017573860000000000000000000000000000000000000000000000000000000000000000000000000000000000000000000000000000000000000322364000000322364000000322364000000322364000000322364000000322365100000000000
00000124000110000000020100000018238360000001734430000000196923300000017573860000000000000000000000000000000000000000000000000000000000000000000000000000000000000000000000000000000000000322364000000322364000000322364000000322364000000322364000000322365100000010000
00000130000000000000020100000150593240000014964729000000534490200000216703150000000000000000000000000000000000000000000000000000000000000000000000000000000000000000000000000000000000004494199000004496882200004494199000004494199000004494199000004494207400000000000
00000131000000000000020100000016559210000001712200000000171048000000017086000000000000000000000000000000000000000000000000000000000000000000000000000000000000000000000000000000000000000333783200000333783200000333783200000333783200000333783200000333785200000000000
00000131001000000000020100000016559210000001712200000000171048000000017086000000000000000000000000000000000000000000000000000000000000000000000000000000000000000000000000000000000000000333783200000333783200000333783200000333783200000333783200000333785200000000000
00000131001100000000020100000016559210000001712200000000171048000000017086000000000000000000000000000000000000000000000000000000000000000000000000000000000000000000000000000000000000000333783200000333783200000333783200000333783200000333783200000333785200000000000
00000131001110000000020100000015994000000001701200000000170860000000017086000000000000000000000000000000000000000000000000000000000000000000000000000000000000000000000000000000000000000329834400000329834400000329834400000329834400000329834400000329835500000010000
00000131001120000000020100000000000000000000011000000000000188000000000000000000000000000000000000000000000000000000000000000000000000000000000000000000000000000000000000000000000000000000531800000000531800000000531800000000531800000000531800000000531900000010000
00000131001130000000020100000000445860000000000000000000000000000000000000000000000000000000000000000000000000000000000000000000000000000000000000000000000000000000000000000000000000000003115000000003115000000003115000000003115000000003115000000003115700000010000
00000131001140000000020100000000119350000000000000000000000000000000000000000000000000000000000000000000000000000000000000000000000000000000000000000000000000000000000000000000000000000000302000000000302000000000302000000000302000000000302000000000302100000010000
00000132000000000000020100000134034030000013252529000000363442200000199617150000000000000000000000000000000000000000000000000000000000000000000000000000000000000000000000000000000000004160415800004163099000004160415800004160415800004160415800004160422200000000000
00000132100000000000020100000134034030000013252529000000363442200000199617150000000000000000000000000000000000000000000000000000000000000000000000000000000000000000000000000000000000004160415800004163099000004160415800004160415800004160415800004160422200000000000
00000132100100000000020100000007024460000000483400000000063389900000004821340000000000000000000000000000000000000000000000000000000000000000000000000000000000000000000000000000000000000257082800000259766000000257082800000257082800000257082800000257087200000000000
00000132100110000000020100000007024460000000483400000000063389900000004821340000000000000000000000000000000000000000000000000000000000000000000000000000000000000000000000000000000000000257082800000259766000000257082800000257082800000257082800000257087200000000000
00000132100110100000020100000003845750000000205848000000026533300000002197910000000000000000000000000000000000000000000000000000000000000000000000000000000000000000000000000000000000000021008400000023691600000021008400000021008400000021008400000021009500000000000
00000132100110102000020100000000878210000000060512000000008337400000000640740000000000000000000000000000000000000000000000000000000000000000000000000000000000000000000000000000000000000021008400000021008400000021008400000021008400000021008400000021009500000310000
00000132100110103000020100000000487760000000033890000000003553900000000247070000000000000000000000000000000000000000000000000000000000000000000000000000000000000000000000000000000000000000000000000000000000000000000000000000000000000000000000000000000000000000000
00000132100110103020020100000000069710000000003533000000000417300000000042160000000000000000000000000000000000000000000000000000000000000000000000000000000000000000000000000000000000000000000000000000000000000000000000000000000000000000000000000000000000040500000
00000132100110103030020100000000003190000000000000000000000000000000000000000000000000000000000000000000000000000000000000000000000000000000000000000000000000000000000000000000000000000000000000000000000000000000000000000000000000000000000000000000000000049310000
00000132100110103050020100000000174180000000011500000000001908100000000068660000000000000000000000000000000000000000000000000000000000000000000000000000000000000000000000000000000000000000000000000000000000000000000000000000000000000000000000000000000000045000000
00000132100110103070020100000000002420000000000430000000000072300000000011220000000000000000000000000000000000000000000000000000000000000000000000000000000000000000000000000000000000000000000000000000000000000000000000000000000000000000000000000000000000045030000
00000132100110103080020100000000004740000000000641000000000052600000000001940000000000000000000000000000000000000000000000000000000000000000000000000000000000000000000000000000000000000000000000000000000000000000000000000000000000000000000000000000000000041600000
00000132100110103090020100000000040380000000004288000000000082000000000010880000000000000000000000000000000000000000000000000000000000000000000000000000000000000000000000000000000000000000000000000000000000000000000000000000000000000000000000000000000000040110000
00000132100110103100020100000000032580000000002858000000000404300000000022930000000000000000000000000000000000000000000000000000000000000000000000000000000000000000000000000000000000000000000000000000000000000000000000000000000000000000000000000000000000040500000
00000132100110103110020100000000023740000000002324000000000000000000000015390000000000000000000000000000000000000000000000000000000000000000000000000000000000000000000000000000000000000000000000000000000000000000000000000000000000000000000000000000000000040900000
00000132100110103160020100000000014660000000001182000000000120000000000006810000000000000000000000000000000000000000000000000000000000000000000000000000000000000000000000000000000000000000000000000000000000000000000000000000000000000000000000000000000000045030000
00000132100110103170020100000000059070000000002375000000000000000000000000000000000000000000000000000000000000000000000000000000000000000000000000000000000000000000000000000000000000000000000000000000000000000000000000000000000000000000000000000000000000043030000
00000132100110103200020100000000028950000000002049000000000208200000000011740000000000000000000000000000000000000000000000000000000000000000000000000000000000000000000000000000000000000000000000000000000000000000000000000000000000000000000000000000000000045050000
00000132100110103220020100000000005600000000000561000000000052000000000001870000000000000000000000000000000000000000000000000000000000000000000000000000000000000000000000000000000000000000000000000000000000000000000000000000000000000000000000000000000000045203110
00000132100110103250020100000000028540000000002149000000000237100000000017900000000000000000000000000000000000000000000000000000000000000000000000000000000000000000000000000000000000000000000000000000000000000000000000000000000000000000000000000000000000045000000
00000132100110103260020100000000000000000000000000000000000000000000000031200000000000000000000000000000000000000000000000000000000000000000000000000000000000000000000000000000000000000000000000000000000000000000000000000000000000000000000000000000000000009003160
00000132100110103270020100000000000000000000000000000000000000000000000004370000000000000000000000000000000000000000000000000000000000000000000000000000000000000000000000000000000000000000000000000000000000000000000000000000000000000000000000000000000000041703160
00000132100110106000020100000000001760000000000179000000000003000000000000610000000000000000000000000000000000000000000000000000000000000000000000000000000000000000000000000000000000000000000000000000000000000000000000000000000000000000000000000000000000010180000
00000132100110107000020100000000137830000000009185000000001241500000000085130000000000000000000000000000000000000000000000000000000000000000000000000000000000000000000000000000000000000000000000000000000000000000000000000000000000000000000000000000000000000000000
00000132100110107010020100000000000000000000000000000000000055600000000006870000000000000000000000000000000000000000000000000000000000000000000000000000000000000000000000000000000000000000000000000000000000000000000000000000000000000000000000000000000000010640000
00000132100110107020020100000000131380000000008711000000000850200000000057590000000000000000000000000000000000000000000000000000000000000000000000000000000000000000000000000000000000000000000000000000000000000000000000000000000000000000000000000000000000010210000
00000132100110107030020100000000000730000000000112000000000014400000000001110000000000000000000000000000000000000000000000000000000000000000000000000000000000000000000000000000000000000000000000000000000000000000000000000000000000000000000000000000000000010380000
00000132100110107040020100000000005720000000000362000000000028400000000001000000000000000000000000000000000000000000000000000000000000000000000000000000000000000000000000000000000000000000000000000000000000000000000000000000000000000000000000000000000000010670000
00000132100110107050020100000000000000000000000000000000000292900000000018560000000000000000000000000000000000000000000000000000000000000000000000000000000000000000000000000000000000000000000000000000000000000000000000000000000000000000000000000000000000011030000
00000132100110108000020100000000047610000000005362000000000981700000000032640000000000000000000000000000000000000000000000000000000000000000000000000000000000000000000000000000000000000000000000000000918900000000000000000000000000000000000000000000000000000000000
00000132100110108030020100000000014550000000002021000000000296300000000018770000000000000000000000000000000000000000000000000000000000000000000000000000000000000000000000000000000000000000000000000000000000000000000000000000000000000000000000000000000000010140000
00000132100110108040020100000000000000000000000000000000000027900000000001520000000000000000000000000000000000000000000000000000000000000000000000000000000000000000000000000000000000000000000000000000000000000000000000000000000000000000000000000000000000010160000
00000132100110108050020100000000000000000000000256000000000305300000000011110000000000000000000000000000000000000000000000000000000000000000000000000000000000000000000000000000000000000000000000000000000000000000000000000000000000000000000000000000000000010010000
00000132100110108060020100000000000000000000000044000000000028500000000000430000000000000000000000000000000000000000000000000000000000000000000000000000000000000000000000000000000000000000000000000000000000000000000000000000000000000000000000000000000000010310000
00000132100110108070020100000000033060000000002990000000000289300000000000000000000000000000000000000000000000000000000000000000000000000000000000000000000000000000000000000000000000000000000000000000918900000000000000000000000000000000000000000000000000010700000
00000132100110108080020100000000000000000000000051000000000034400000000000810000000000000000000000000000000000000000000000000000000000000000000000000000000000000000000000000000000000000000000000000000000000000000000000000000000000000000000000000000000000010330000
00000132100110199000020100000002292580000000096720000000012415800000001191720000000000000000000000000000000000000000000000000000000000000000000000000000000000000000000000000000000000000000000000000001764300000000000000000000000000000000000000000000000000000000000
00000132100110199010020100000000080140000000005844000000000736700000000058370000000000000000000000000000000000000000000000000000000000000000000000000000000000000000000000000000000000000000000000000000000000000000000000000000000000000000000000000000000000010050000
00000132100110199020020100000000000000000000000000000000000443800000000063830000000000000000000000000000000000000000000000000000000000000000000000000000000000000000000000000000000000000000000000000000000000000000000000000000000000000000000000000000000000010170000
00000132100110199060020100000000030250000000003009000000000285900000000028010000000000000000000000000000000000000000000000000000000000000000000000000000000000000000000000000000000000000000000000000000000000000000000000000000000000000000000000000000000000010500000
00000132100110199070020100000000148930000000014609000000001400600000000125910000000000000000000000000000000000000000000000000000000000000000000000000000000000000000000000000000000000000000000000000000000000000000000000000000000000000000000000000000000000010220000
00000132100110199080020100000000095240000000008610000000000863200000000081790000000000000000000000000000000000000000000000000000000000000000000000000000000000000000000000000000000000000000000000000000000000000000000000000000000000000000000000000000000000012000000
00000132100110199120020100000000184500000000011503000000001090000000000109270000000000000000000000000000000000000000000000000000000000000000000000000000000000000000000000000000000000000000000000000000000000000000000000000000000000000000000000000000000000012070000
00000132100110199130020100000000002410000000000468000000000011300000000001370000000000000000000000000000000000000000000000000000000000000000000000000000000000000000000000000000000000000000000000000000000000000000000000000000000000000000000000000000000000011120000
00000132100110199140020100000000000010000000000000000000000081300000000000000000000000000000000000000000000000000000000000000000000000000000000000000000000000000000000000000000000000000000000000000000000000000000000000000000000000000000000000000000000000012030000
00000132100110199150020100000000141090000000004711000000000012800000000118520000000000000000000000000000000000000000000000000000000000000000000000000000000000000000000000000000000000000000000000000000000000000000000000000000000000000000000000000000000000012030000
00000132100110199160020100000000377360000000008234000000000780200000000078210000000000000000000000000000000000000000000000000000000000000000000000000000000000000000000000000000000000000000000000000000000000000000000000000000000000000000000000000000000000012060000
00000132100110199170020100000000009370000000000684000000000036100000000000000000000000000000000000000000000000000000000000000000000000000000000000000000000000000000000000000000000000000000000000000000198200000000000000000000000000000000000000000000000000043000000
00000132100110199180020100000001223280000000039048000000005202300000000410940000000000000000000000000000000000000000000000000000000000000000000000000000000000000000000000000000000000000000000000000000000000000000000000000000000000000000000000000000000000010080000
00000132100110199190020100000000000000000000000000000000000054900000000004980000000000000000000000000000000000000000000000000000000000000000000000000000000000000000000000000000000000000000000000000000000000000000000000000000000000000000000000000000000000010110000
00000132100110199200020100000000000000000000000000000000000216200000000023960000000000000000000000000000000000000000000000000000000000000000000000000000000000000000000000000000000000000000000000000000000000000000000000000000000000000000000000000000000000040020000
00000132100110199210020100000000000000000000000000000000001200500000000086560000000000000000000000000000000000000000000000000000000000000000000000000000000000000000000000000000000000000000000000000001566100000000000000000000000000000000000000000000000000010100000
00000132100110200000020100000003178710000000277552000000036856600000002623430000000000000000000000000000000000000000000000000000000000000000000000000000000000000000000000000000000000000236074400000236074400000236074400000236074400000236074400000236077700000000000
00000132100110299010020100000001096060000000047429000000005639500000000529280000000000000000000000000000000000000000000000000000000000000000000000000000000000000000000000000000000000000096040200000096040200000096040200000096040200000096040200000096041000000010000
00000132100110299020020100000000901530000000107113000000011688800000000611030000000000000000000000000000000000000000000000000000000000000000000000000000000000000000000000000000000000000095657200000095657200000095657200000095657200000095657200000095658200000010000
00000132100110299050020100000000221620000000028991000000004934500000000387670000000000000000000000000000000000000000000000000000000000000000000000000000000000000000000000000000000000000014246400000014246400000014246400000014246400000014246400000014247200000010000
00000132100110299080020100000000959500000000094019000000014593800000001095450000000000000000000000000000000000000000000000000000000000000000000000000000000000000000000000000000000000000030130600000030130600000030130600000030130600000030130600000030131300000010000
00000132100400000000020100000127009570000012769129000000300052300000194795810000000000000000000000000000000000000000000000000000000000000000000000000000000000000000000000000000000000003903333000003903333000003903333000003903333000003903333000003903335000000000000
00000132100410100000120100000006271120000001056484000000000000000000029330430000000000000000000000000000000000000000000000000000000000000000000000000000000000000000000000000000000000000990416600000990416600000990416600000990416600000990416600000990417000000500000
00000132100410200000120100000000569070000000359218000000000000000000020603950000000000000000000000000000000000000000000000000000000000000000000000000000000000000000000000000000000000000800416600000800416600000800416600000800416600000800416600000800417000000500000
00000132100410300000120100000000000000000000000000000000000000000000000000000000000000000000000000000000000000000000000000000000000000000000000000000000000000000000000000000000000000000375416600000375416600000375416600000375416600000375416600000375417000000500000
00000132100410400000120100000000000000000000000000000000000000000000000000000000000000000000000000000000000000000000000000000000000000000000000000000000000000000000000000000000000000000601250000000601250000000601250000000601250000000601250000000601250000000500000
00000132100410600000120100000020092500000001776468000000000000000000016896000000000000000000000000000000000000000000000000000000000000000000000000000000000000000000000000000000000000000590833200000590833200000590833200000590833200000590833200000590834000000500000
00000132100410700000120100000019323360000001698476000000300052300000018185530000000000000000000000000000000000000000000000000000000000000000000000000000000000000000000000000000000000000545000000000545000000000545000000000545000000000545000000000545000000000500000
00000132100410900000120100000017901650000002365085000000000000000000016856260000000000000000000000000000000000000000000000000000000000000000000000000000000000000000000000000000000000000000000000000000000000000000000000000000000000000000000000000000000000000500000
00000132100411000000120100000038071100000003106685000000000000000000042421010000000000000000000000000000000000000000000000000000000000000000000000000000000000000000000000000000000000000000000000000000000000000000000000000000000000000000000000000000000000000500000
00000132100411100000120100000003971740000000444167000000000000000000011875250000000000000000000000000000000000000000000000000000000000000000000000000000000000000000000000000000000000000000000000000000000000000000000000000000000000000000000000000000000000000500000
00000132100411200000120100000020809030000001962546000000000000000000038627380000000000000000000000000000000000000000000000000000000000000000000000000000000000000000000000000000000000000000000000000000000000000000000000000000000000000000000000000000000000000500000
00000160000000000000020100000001582500000000242750000000030400000000001120000000000000000000000000000000000000000000000000000000000000000000000000000000000000000000000000000000000000000025893400000025893400000025893400000025893400000025893400000025893700000000000
00000161000000000000020100000001582500000000242750000000030400000000001120000000000000000000000000000000000000000000000000000000000000000000000000000000000000000000000000000000000000000025893400000025893400000025893400000025893400000025893400000025893700000000000
00000161001000000000020100000001582500000000242750000000030400000000001120000000000000000000000000000000000000000000000000000000000000000000000000000000000000000000000000000000000000000025893400000025893400000025893400000025893400000025893400000025893700000000000
00000161001100000000020100000001582500000000242750000000030400000000001120000000000000000000000000000000000000000000000000000000000000000000000000000000000000000000000000000000000000000025893400000025893400000025893400000025893400000025893400000025893700000000000
00000161001110000000020100000001582500000000242750000000030400000000001120000000000000000000000000000000000000000000000000000000000000000000000000000000000000000000000000000000000000000025893400000025893400000025893400000025893400000025893400000025893700000000000
00000161001110100000020100000001582500000000242750000000030400000000001120000000000000000000000000000000000000000000000000000000000000000000000000000000000000000000000000000000000000000025893400000025893400000025893400000025893400000025893400000025893700000010000
00000170000000000000020100002118042130000245272925000021834247000001880149750000000000000000000000000000000000000000000000000000000000000000000000000000000000000000000000000000000000040036820700046012111300040407935400043968810400039975805900045489373900000000000
00000171000000000000020100000812069170000115321259000007730033600000780194300000000000000000000000000000000000000000000000000000000000000000000000000000000000000000000000000000000000017148240800016838915200016617339100020222522700016732764700020349696700000000000
00000171800000000000020100000812069170000115321259000007730033600000780194300000000000000000000000000000000000000000000000000000000000000000000000000000000000000000000000000000000000017148240800016838915200016617339100020222522700016732764700020349696700000000000
00000171801000000000020100000704664100000101463254000005999157800000583011840000000000000000000000000000000000000000000000000000000000000000000000000000000000000000000000000000000000014373143000014370507700014380059900017911935200014495485500018039105100000000000
00000171801200000000020100000701692260000101391399000005928635800000581137560000000000000000000000000000000000000000000000000000000000000000000000000000000000000000000000000000000000014282877000014282877000014282877000014282877000014282877000014282877500000000000
00000171801210000000020100000701692260000101391399000005928635800000581137560000000000000000000000000000000000000000000000000000000000000000000000000000000000000000000000000000000000014282877000014282877000014282877000014282877000014282877000014282877500000000000
00000171801210100000020100000421015350000060834840000003557181500000348682530000000000000000000000000000000000000000000000000000000000000000000000000000000000000000000000000000000000008569726200008569726200008569726200008569726200008569726200008569726500000010000
00000171801210200000020100000035084610000005069570000000296431800000029056880000000000000000000000000000000000000000000000000000000000000000000000000000000000000000000000000000000000000714143800000714143800000714143800000714143800000714143800000714144100000200000
00000171801210300000020100000105253840000015208710000000889295400000087170640000000000000000000000000000000000000000000000000000000000000000000000000000000000000000000000000000000000002142431600002142431600002142431600002142431600002142431600002142431400000400000
00000171801210400000020100000140338460000020278279000001185727100000116227510000000000000000000000000000000000000000000000000000000000000000000000000000000000000000000000000000000000002856575400002856575400002856575400002856575400002856575400002856575500000310000
00000171801300000000020100000000000000000000000000000000000000000000000000000000000000000000000000000000000000000000000000000000000000000000000000000000000000000000000000000000000000000000000000000000000000000000000000000000000000000000000000003641070000000000000
00000171801310000000020100000000000000000000000000000000000000000000000000000000000000000000000000000000000000000000000000000000000000000000000000000000000000000000000000000000000000000000000000000000000000000000000000000000000000000000000000003641070000000000000
00000171801310100000020100000000000000000000000000000000000000000000000000000000000000000000000000000000000000000000000000000000000000000000000000000000000000000000000000000000000000000000000000000000000000000000000000000000000000000000000000002184642000000010000
00000171801310200000020100000000000000000000000000000000000000000000000000000000000000000000000000000000000000000000000000000000000000000000000000000000000000000000000000000000000000000000000000000000000000000000000000000000000000000000000000000910267500000200000
00000171801310300000020100000000000000000000000000000000000000000000000000000000000000000000000000000000000000000000000000000000000000000000000000000000000000000000000000000000000000000000000000000000000000000000000000000000000000000000000000000546160500000400000
00000171801400000000020100000000000000000000000000000000000000000000000000000000000000000000000000000000000000000000000000000000000000000000000000000000000000000000000000000000000000000000000000000000000000000000000000003541660000000000000000000000000000000000000
00000171801410000000020100000000000000000000000000000000000000000000000000000000000000000000000000000000000000000000000000000000000000000000000000000000000000000000000000000000000000000000000000000000000000000000000000003541660000000000000000000000000000000000000
00000171801410100000020100000000000000000000000000000000000000000000000000000000000000000000000000000000000000000000000000000000000000000000000000000000000000000000000000000000000000000000000000000000000000000000000000002124996000000000000000000000000000000010000
00000171801410200000020100000000000000000000000000000000000000000000000000000000000000000000000000000000000000000000000000000000000000000000000000000000000000000000000000000000000000000000000000000000000000000000000000000885415000000000000000000000000000000200000
00000171801410300000020100000000000000000000000000000000000000000000000000000000000000000000000000000000000000000000000000000000000000000000000000000000000000000000000000000000000000000000000000000000000000000000000000000531249000000000000000000000000000000400000
00000171801500000000020100000002971840000000071855000000070522000000001874280000000000000000000000000000000000000000000000000000000000000000000000000000000000000000000000000000000000000090266000000087630700000097182900000087398200000212608500000115157600000000000
00000171801510000000020100000002971840000000071855000000070522000000001874280000000000000000000000000000000000000000000000000000000000000000000000000000000000000000000000000000000000000090266000000087630700000097182900000087398200000212608500000115157600000000000
00000171801510100000020100000001783100000000043113000000042313200000001124560000000000000000000000000000000000000000000000000000000000000000000000000000000000000000000000000000000000000069024400000069024400000069024400000069024400000069024400000069024300000010000
00000171801510200000020100000000148590000000003593000000003526100000000093720000000000000000000000000000000000000000000000000000000000000000000000000000000000000000000000000000000000000000797100000000270000000002180500000000223500000025265600000005775500000200000
00000171801510300000020100000000445780000000010778000000010578300000000281140000000000000000000000000000000000000000000000000000000000000000000000000000000000000000000000000000000000000017256200000017256200000017256200000017256200000017256200000017255600000400000
00000171801510400000020100000000594370000000014371000000014104400000000374860000000000000000000000000000000000000000000000000000000000000000000000000000000000000000000000000000000000000003188300000001080100000008721800000000894100000101062300000023102200000310000
00000171802000000000020100000011080860000001257943000000130180000000010414540000000000000000000000000000000000000000000000000000000000000000000000000000000000000000000000000000000000000330866000000330866000000330866000000330866000000330866000000330866900000000000
00000171802200000000020100000000000000000000000000000000000000000000000040050000000000000000000000000000000000000000000000000000000000000000000000000000000000000000000000000000000000000000000000000000000000000000000000000000000000000000000000000000000000000000000
00000171802210000000020100000000000000000000000000000000000000000000000040050000000000000000000000000000000000000000000000000000000000000000000000000000000000000000000000000000000000000000000000000000000000000000000000000000000000000000000000000000000000000010000
00000171802600000000020100000011080860000001257943000000130180000000010374490000000000000000000000000000000000000000000000000000000000000000000000000000000000000000000000000000000000000330866000000330866000000330866000000330866000000330866000000330866900000000000
00000171802610000000020100000011080860000001257943000000130180000000010374490000000000000000000000000000000000000000000000000000000000000000000000000000000000000000000000000000000000000330866000000330866000000330866000000330866000000330866000000330866900000010000
00000171803000000000020100000066558210000009650137000001119278900000094173460000000000000000000000000000000000000000000000000000000000000000000000000000000000000000000000000000000000001910516400001301056400001160516400001160516400001160516400001160518000000000000
00000171803100000000020100000051203040000008669620000000880687200000083632460000000000000000000000000000000000000000000000000000000000000000000000000000000000000000000000000000000000001754771600001004771600001004771600001004771600001004771600001004771600000000000
00000171803110000000020100000051203040000008669620000000880687200000083632460000000000000000000000000000000000000000000000000000000000000000000000000000000000000000000000000000000000001754771600001004771600001004771600001004771600001004771600001004771600045000000
00000171803200000000020100000000735830000000073583000000007358300000000735830000000000000000000000000000000000000000000000000000000000000000000000000000000000000000000000000000000000000011410600000011410600000011410600000011410600000011410600000011411700000000000
00000171803210000000020100000000735830000000073583000000007358300000000735830000000000000000000000000000000000000000000000000000000000000000000000000000000000000000000000000000000000000011410600000011410600000011410600000011410600000011410600000011411700045010000
00000171803300000000020100000005289820000000573982000000057398200000005739820000000000000000000000000000000000000000000000000000000000000000000000000000000000000000000000000000000000000086810000000086810000000086810000000086810000000086810000000086810100000000000
00000171803310000000020100000005289820000000573982000000057398200000005739820000000000000000000000000000000000000000000000000000000000000000000000000000000000000000000000000000000000000086810000000086810000000086810000000086810000000086810000000086810100045020000
00000171803400000000020100000009329520000000332952000000033295200000003329520000000000000000000000000000000000000000000000000000000000000000000000000000000000000000000000000000000000000057524200000057524200000057524200000057524200000057524200000057524600000000000
00000171803410000000020100000009329520000000332952000000033295200000003329520000000000000000000000000000000000000000000000000000000000000000000000000000000000000000000000000000000000000057524200000057524200000057524200000057524200000057524200000057524600045030000
00000171803900000000020100000000000000000000000000000000140540000000000735830000000000000000000000000000000000000000000000000000000000000000000000000000000000000000000000000000000000000000000000000140540000000000000000000000000000000000000000000000000000000000000
00000171803910000000020100000000000000000000000000000000140540000000000735830000000000000000000000000000000000000000000000000000000000000000000000000000000000000000000000000000000000000000000000000140540000000000000000000000000000000000000000000000000000000000000
00000171803910100000020100000000000000000000000000000000000000000000000000000000000000000000000000000000000000000000000000000000000000000000000000000000000000000000000000000000000000000000000000000140540000000000000000000000000000000000000000000000000000045110000
00000171803910100000020100000000000000000000000000000000140540000000000735830000000000000000000000000000000000000000000000000000000000000000000000000000000000000000000000000000000000000000000000000000000000000000000000000000000000000000000000000000000000045113160
00000171805000000000020100000028336000000002949925000000326725900000041996480000000000000000000000000000000000000000000000000000000000000000000000000000000000000000000000000000000000000380917200000610378600000593098600000593098600000593098600000593099600000000000
00000171805100000000020100000028336000000002332125000000204728300000019181160000000000000000000000000000000000000000000000000000000000000000000000000000000000000000000000000000000000000380917200000380917200000380917200000380917200000380917200000380918000000000000
00000171805110000000020100000028336000000002332125000000204728300000019181160000000000000000000000000000000000000000000000000000000000000000000000000000000000000000000000000000000000000380917200000380917200000380917200000380917200000380917200000380918000010140000
00000171805300000000020100000000000000000000617800000000076456000000013707000000000000000000000000000000000000000000000000000000000000000000000000000000000000000000000000000000000000000000000000000134472000000117192000000117192000000117192000000117192000000000000
00000171805310000000020100000000000000000000617800000000076456000000013707000000000000000000000000000000000000000000000000000000000000000000000000000000000000000000000000000000000000000000000000000134472000000117192000000117192000000117192000000117192000000000000
00000171805310100000020100000000000000000000243600000000034104000000005846400000000000000000000000000000000000000000000000000000000000000000000000000000000000000000000000000000000000000000000000000049824000000049824000000049824000000049824000000049824000010010000
00000171805310200000020100000000000000000000210000000000023940000000004494000000000000000000000000000000000000000000000000000000000000000000000000000000000000000000000000000000000000000000000000000040232000000040232000000040232000000040232000000040232000010310000
00000171805310300000020100000000000000000000137000000000015344000000002904400000000000000000000000000000000000000000000000000000000000000000000000000000000000000000000000000000000000000000000000000023744000000023744000000023744000000023744000000023744000010330000
00000171805310400000020100000000000000000000016200000000001836000000000345600000000000000000000000000000000000000000000000000000000000000000000000000000000000000000000000000000000000000000000000000017280000000000000000000000000000000000000000000000000000010590000
00000171805310500000020100000000000000000000011000000000001232000000000116600000000000000000000000000000000000000000000000000000000000000000000000000000000000000000000000000000000000000000000000000003392000000003392000000003392000000003392000000003392000010710000
00000171805400000000020100000000000000000000000000000000045541600000009108320000000000000000000000000000000000000000000000000000000000000000000000000000000000000000000000000000000000000000000000000094989400000094989400000094989400000094989400000094989600000000000
00000171805410000000020100000000000000000000000000000000045541600000009108320000000000000000000000000000000000000000000000000000000000000000000000000000000000000000000000000000000000000000000000000094989400000094989400000094989400000094989400000094989600010160000
00000171812000000000020100000001430000000000000000000000154691000000007969960000000000000000000000000000000000000000000000000000000000000000000000000000000000000000000000000000000000000152798200000226106500000152798200000226106500000152798200000226107100000000000
00000171812100000000020100000001430000000000000000000000154691000000007969960000000000000000000000000000000000000000000000000000000000000000000000000000000000000000000000000000000000000152798200000226106500000152798200000226106500000152798200000226107100000000000
00000171812110000000020100000001430000000000000000000000154691000000007969960000000000000000000000000000000000000000000000000000000000000000000000000000000000000000000000000000000000000152798200000226106500000152798200000226106500000152798200000226107100000000000
00000171812110100000020100000001430000000000000000000000014300000000002860000000000000000000000000000000000000000000000000000000000000000000000000000000000000000000000000000000000000000030249000000030249000000030249000000030249000000030249000000030249200010380000
00000171812110200000020100000000000000000000000000000000000000000000000000000000000000000000000000000000000000000000000000000000000000000000000000000000000000000000000000000000000000000002549200000002549200000002549200000002549200000002549200000002549600010670000
00000171812110300000020100000000000000000000000000000000093708000000000000000000000000000000000000000000000000000000000000000000000000000000000000000000000000000000000000000000000000000000000000000073308300000000000000000073308300000000000000000073308300010210000
00000171812110400000020100000000000000000000000000000000046683000000005109960000000000000000000000000000000000000000000000000000000000000000000000000000000000000000000000000000000000000120000000000120000000000120000000000120000000000120000000000120000000010640000
00000171899000000000020100000000000000000000000000000000000000000000042628020000000000000000000000000000000000000000000000000000000000000000000000000000000000000000000000000000000000000000000000000000000000000000000000000000000000000000000000000000000000000000000
00000171899100000000020100000000000000000000000000000000000000000000042628020000000000000000000000000000000000000000000000000000000000000000000000000000000000000000000000000000000000000000000000000000000000000000000000000000000000000000000000000000000000000000000
00000171899110000000020100000000000000000000000000000000000000000000042628020000000000000000000000000000000000000000000000000000000000000000000000000000000000000000000000000000000000000000000000000000000000000000000000000000000000000000000000000000000000000000000
00000171899110200000020100000000000000000000000000000000000000000000042628020000000000000000000000000000000000000000000000000000000000000000000000000000000000000000000000000000000000000000000000000000000000000000000000000000000000000000000000000000000000000010000
00000172000000000000020100000940803330000100326778000011037247400000804650170000000000000000000000000000000000000000000000000000000000000000000000000000000000000000000000000000000000018117457700019340234500019158390600019529544200019040712300020373829700000000000
00000172800000000000020100000940803330000100326778000011037247400000804650170000000000000000000000000000000000000000000000000000000000000000000000000000000000000000000000000000000000018117457700019340234500019158390600019529544200019040712300020373829700000000000
00000172801000000000020100000896220680000089920481000010447549700000721475510000000000000000000000000000000000000000000000000000000000000000000000000000000000000000000000000000000000017120583700018066361500017884517600018255671200017766839300018847506500000000000
00000172801100000000020100000695010050000083039734000009710324900000528863610000000000000000000000000000000000000000000000000000000000000000000000000000000000000000000000000000000000015802857500016730624100016589780200016960933800016472101900017552767400000000000
00000172801110000000020100000695010050000083039734000009710324900000528863610000000000000000000000000000000000000000000000000000000000000000000000000000000000000000000000000000000000015802857500016730624100016589780200016960933800016472101900017552767400000000000
00000172801110100000020100000417006030000049823838000005826195100000317318160000000000000000000000000000000000000000000000000000000000000000000000000000000000000000000000000000000000010010906600010010906600010010906600010010906600010010906600010010906000000010000
00000172801110200000020100000034750490000004151988000000485516100000026443190000000000000000000000000000000000000000000000000000000000000000000000000000000000000000000000000000000000000834242200000834242200000834242200000834242200000834242200000834242200000200000
00000172801110300000020100000104251510000012455961000001456548700000079329540000000000000000000000000000000000000000000000000000000000000000000000000000000000000000000000000000000000002124732300002522346500002461984900002621050700002411551300002874694000000400000
00000172801110400000020100000139002020000016607947000001942065000000105772720000000000000000000000000000000000000000000000000000000000000000000000000000000000000000000000000000000000002832976400003363128800003282646500003494734300003215401800003832925200000310000
00000172801200000000020100000187094270000005917497000000634012300000180971150000000000000000000000000000000000000000000000000000000000000000000000000000000000000000000000000000000000001046133200001046133200001046133200001046133200001046133200001046134400000000000
00000172801210000000020100000187094270000005917497000000634012300000180971150000000000000000000000000000000000000000000000000000000000000000000000000000000000000000000000000000000000001046133200001046133200001046133200001046133200001046133200001046134400000000000
00000172801210100000020100000112256520000003550492000000380407200000108582690000000000000000000000000000000000000000000000000000000000000000000000000000000000000000000000000000000000000627680000000627680000000627680000000627680000000627680000000627680200000010000
00000172801210200000020100000009354710000000295877000000031700600000009048540000000000000000000000000000000000000000000000000000000000000000000000000000000000000000000000000000000000000052306600000052306600000052306600000052306600000052306600000052307000000200000
00000172801210300000020100000028064160000000887627000000095101800000027145660000000000000000000000000000000000000000000000000000000000000000000000000000000000000000000000000000000000000156920000000156920000000156920000000156920000000156920000000156920100000400000
00000172801210400000020100000037418880000001183501000000126802700000036194260000000000000000000000000000000000000000000000000000000000000000000000000000000000000000000000000000000000000209226600000209226600000209226600000209226600000209226600000209227100000310000
00000172801300000000020100000011794260000000963250000000103212500000009527640000000000000000000000000000000000000000000000000000000000000000000000000000000000000000000000000000000000000248604200000248604200000248604200000248604200000248604200000248604700000000000
00000172801310000000020100000011794260000000963250000000103212500000009527640000000000000000000000000000000000000000000000000000000000000000000000000000000000000000000000000000000000000248604200000248604200000248604200000248604200000248604200000248604700000000000
00000172801310100000020100000007076550000000577949000000061927500000005716580000000000000000000000000000000000000000000000000000000000000000000000000000000000000000000000000000000000000149162600000149162600000149162600000149162600000149162600000149162400000010000
00000172801310200000020100000000589720000000048163000000005160600000000476380000000000000000000000000000000000000000000000000000000000000000000000000000000000000000000000000000000000000012430200000012430200000012430200000012430200000012430200000012430300000200000
00000172801310300000020100000001769140000000144488000000015481900000001429150000000000000000000000000000000000000000000000000000000000000000000000000000000000000000000000000000000000000037290600000037290600000037290600000037290600000037290600000037290900000400000
00000172801310400000020100000002358850000000192650000000020642500000001905530000000000000000000000000000000000000000000000000000000000000000000000000000000000000000000000000000000000000049720800000049720800000049720800000049720800000049720800000049721100000310000
00000172801400000000020100000002322100000000000000000000000000000000002113110000000000000000000000000000000000000000000000000000000000000000000000000000000000000000000000000000000000000022988800000041000000000000000000000000000000000000000000000000000000000000000
00000172801410000000020100000002322100000000000000000000000000000000002113110000000000000000000000000000000000000000000000000000000000000000000000000000000000000000000000000000000000000022988800000041000000000000000000000000000000000000000000000000000000010180000
00000172803000000000020100000041582650000006196808000000280561800000058261060000000000000000000000000000000000000000000000000000000000000000000000000000000000000000000000000000000000000636707400000636707400000636707400000636707400000636707400000786707800000000000
00000172803100000000020100000041582650000006196808000000280561800000058261060000000000000000000000000000000000000000000000000000000000000000000000000000000000000000000000000000000000000636707400000636707400000636707400000636707400000636707400000786707800000000000
00000172803110000000020100000041582650000006196808000000280561800000058261060000000000000000000000000000000000000000000000000000000000000000000000000000000000000000000000000000000000000636707400000636707400000636707400000636707400000636707400000786707800000000000
00000172803110100000020100000024392030000002426622000000247355600000012296640000000000000000000000000000000000000000000000000000000000000000000000000000000000000000000000000000000000000250000000000250000000000250000000000250000000000250000000000250000000040110000
00000172803110200000020100000010000000000002000000000000000000000000030000000000000000000000000000000000000000000000000000000000000000000000000000000000000000000000000000000000000000000216666600000216666600000216666600000216666600000216666600000216667000040900000
00000172803110300000020100000000000000000000000000000000000000000000000000000000000000000000000000000000000000000000000000000000000000000000000000000000000000000000000000000000000000000000000000000000000000000000000000000000000000000000000000000150000000040900000
00000172803110400000020100000001320620000000396186000000013206200000001320620000000000000000000000000000000000000000000000000000000000000000000000000000000000000000000000000000000000000026412400000026412400000026412400000026412400000026412400000026412400040500000
00000172803110500000020100000002000000000000600000000000020000000000002000000000000000000000000000000000000000000000000000000000000000000000000000000000000000000000000000000000000000000040000000000040000000000040000000000040000000000040000000000040000000041600000
00000172803110700000020100000003870000000000774000000000000000000000007350000000000000000000000000000000000000000000000000000000000000000000000000000000000000000000000000000000000000000103628400000103628400000103628400000103628400000103628400000103628400040500000
00000172803110800000020100000000000000000000000000000000000000000000005293800000000000000000000000000000000000000000000000000000000000000000000000000000000000000000000000000000000000000000000000000000000000000000000000000000000000000000000000000000000000041703160
00000172810000000000020100000000000000000004209489000000249135900000024913600000000000000000000000000000000000000000000000000000000000000000000000000000000000000000000000000000000000000000000000000636999000000636999000000636999000000636999000000739448400000000000
00000172810200000000020100000000000000000003184995000000249135900000024913600000000000000000000000000000000000000000000000000000000000000000000000000000000000000000000000000000000000000000000000000636999000000636999000000636999000000636999000000636999000000000000
00000172810210000000020100000000000000000003184995000000249135900000024913600000000000000000000000000000000000000000000000000000000000000000000000000000000000000000000000000000000000000000000000000636999000000636999000000636999000000636999000000636999000000000000
00000172810210100000020100000000000000000003184995000000249135900000024913600000000000000000000000000000000000000000000000000000000000000000000000000000000000000000000000000000000000000000000000000636999000000636999000000636999000000636999000000636999000000000000
00000172810210101000020100000000000000000003184995000000249135900000024913600000000000000000000000000000000000000000000000000000000000000000000000000000000000000000000000000000000000000000000000000636999000000636999000000636999000000636999000000636999000010170000
00000172810900000000020100000000000000000001024494000000000000000000000000000000000000000000000000000000000000000000000000000000000000000000000000000000000000000000000000000000000000000000000000000000000000000000000000000000000000000000000000000102449400000000000
00000172810910000000020100000000000000000001024494000000000000000000000000000000000000000000000000000000000000000000000000000000000000000000000000000000000000000000000000000000000000000000000000000000000000000000000000000000000000000000000000000102449400000000000
00000172810910700000020100000000000000000001024494000000000000000000000000000000000000000000000000000000000000000000000000000000000000000000000000000000000000000000000000000000000000000000000000000000000000000000000000000000000000000000000000000102449400011030000
00000172899000000000020100000003000000000000000000000000060000000000000000000000000000000000000000000000000000000000000000000000000000000000000000000000000000000000000000000000000000000360166600000000166600000000166600000000166600000000166600000000167000000000000
00000172899100000000020100000003000000000000000000000000060000000000000000000000000000000000000000000000000000000000000000000000000000000000000000000000000000000000000000000000000000000360166600000000166600000000166600000000166600000000166600000000167000000000000
00000172899110000000020100000003000000000000000000000000060000000000000000000000000000000000000000000000000000000000000000000000000000000000000000000000000000000000000000000000000000000360166600000000166600000000166600000000166600000000166600000000167000000000000
00000172899110100000020100000000000000000000000000000000000000000000000000000000000000000000000000000000000000000000000000000000000000000000000000000000000000000000000000000000000000000000166600000000166600000000166600000000166600000000166600000000167000011140000
00000172899110200000020100000003000000000000000000000000060000000000000000000000000000000000000000000000000000000000000000000000000000000000000000000000000000000000000000000000000000000360000000000000000000000000000000000000000000000000000000000000000000011120000
00000174000000000000020100000000000000000000000000000000000000000000022000000000000000000000000000000000000000000000000000000000000000000000000000000000000000000000000000000000000000000000000000000220000000000000000000000000000000000000000000000000000000000000000
00000174800000000000020100000000000000000000000000000000000000000000022000000000000000000000000000000000000000000000000000000000000000000000000000000000000000000000000000000000000000000000000000000220000000000000000000000000000000000000000000000000000000000000000
00000174810000000000020100000000000000000000000000000000000000000000022000000000000000000000000000000000000000000000000000000000000000000000000000000000000000000000000000000000000000000000000000000220000000000000000000000000000000000000000000000000000000000000000
00000174810100000000020100000000000000000000000000000000000000000000022000000000000000000000000000000000000000000000000000000000000000000000000000000000000000000000000000000000000000000000000000000220000000000000000000000000000000000000000000000000000000000000000
00000174810110000000020100000000000000000000000000000000000000000000022000000000000000000000000000000000000000000000000000000000000000000000000000000000000000000000000000000000000000000000000000000220000000000000000000000000000000000000000000000000000000000000000
00000174810110300000020100000000000000000000000000000000000000000000022000000000000000000000000000000000000000000000000000000000000000000000000000000000000000000000000000000000000000000000000000000220000000000000000000000000000000000000000000000000000000000000000
00000174810110301000020100000000000000000000000000000000000000000000000000000000000000000000000000000000000000000000000000000000000000000000000000000000000000000000000000000000000000000000000000000220000000000000000000000000000000000000000000000000000000009000000
00000174810110301000020100000000000000000000000000000000000000000000022000000000000000000000000000000000000000000000000000000000000000000000000000000000000000000000000000000000000000000000000000000000000000000000000000000000000000000000000000000000000000009003160
00000175000000000000020100000365169630000029624888000003066966000000273305280000000000000000000000000000000000000000000000000000000000000000000000000000000000000000000000000000000000004771122200009612961600004632205700004216743500004202328900004765847500000000000
00000175800000000000020100000365169630000029624888000003066966000000273305280000000000000000000000000000000000000000000000000000000000000000000000000000000000000000000000000000000000004771122200009612961600004632205700004216743500004202328900004765847500000000000
00000175801000000000020100000365169630000029624888000003066966000000273305280000000000000000000000000000000000000000000000000000000000000000000000000000000000000000000000000000000000004771122200009612961600004632205700004216743500004202328900004765847500000000000
00000175801100000000020100000365169630000029624888000003066966000000273305280000000000000000000000000000000000000000000000000000000000000000000000000000000000000000000000000000000000004771122200009612961600004632205700004216743500004202328900004765847500000000000
00000175801110000000020100000365169630000029624888000003066966000000273305280000000000000000000000000000000000000000000000000000000000000000000000000000000000000000000000000000000000004771122200009612961600004632205700004216743500004202328900004765847500000310000
00000190000000000000020100000007276220000000855846000000261219400000009852090000000000000000000000000000000000000000000000000000000000000000000000000000000000000000000000000000000000000167202400000767627400000417202400000167202400000167202400000167203000000000000
00000192000000000000020100000005824020000000294460000000043372100000004914560000000000000000000000000000000000000000000000000000000000000000000000000000000000000000000000000000000000000100535800000550535800000350535800000100535800000100535800000100536000000000000
00000192800000000000020100000005824020000000294460000000043372100000004914560000000000000000000000000000000000000000000000000000000000000000000000000000000000000000000000000000000000000100535800000550535800000350535800000100535800000100535800000100536000000000000
00000192801000000000020100000004668650000000276951000000040696800000004846810000000000000000000000000000000000000000000000000000000000000000000000000000000000000000000000000000000000000100535800000100535800000100535800000100535800000100535800000100536000000000000
00000192801100000000020100000004668650000000276951000000040696800000004846810000000000000000000000000000000000000000000000000000000000000000000000000000000000000000000000000000000000000100535800000100535800000100535800000100535800000100535800000100536000000000000
00000192801110000000020100000004668650000000276951000000040696800000004846810000000000000000000000000000000000000000000000000000000000000000000000000000000000000000000000000000000000000100535800000100535800000100535800000100535800000100535800000100536000000000000
00000192801110100000020100000004668650000000276951000000040696800000004846810000000000000000000000000000000000000000000000000000000000000000000000000000000000000000000000000000000000000100535800000100535800000100535800000100535800000100535800000100536000000010000
00000192802000000000020100000001155370000000017509000000002675300000000067750000000000000000000000000000000000000000000000000000000000000000000000000000000000000000000000000000000000000000000000000450000000000250000000000000000000000000000000000000000000000000000
00000192802900000000020100000001155370000000017509000000002675300000000067750000000000000000000000000000000000000000000000000000000000000000000000000000000000000000000000000000000000000000000000000450000000000250000000000000000000000000000000000000000000000000000
00000192802910200000020100000000000000000000000000000000000000000000000000000000000000000000000000000000000000000000000000000000000000000000000000000000000000000000000000000000000000000000000000000450000000000250000000000000000000000000000000000000000000000010000
00000192802910800000020100000000000000000000017509000000000677500000000067750000000000000000000000000000000000000000000000000000000000000000000000000000000000000000000000000000000000000000000000000000000000000000000000000000000000000000000000000000000000000010000
00000192802910900000020100000001155370000000000000000000000000000000000000000000000000000000000000000000000000000000000000000000000000000000000000000000000000000000000000000000000000000000000000000000000000000000000000000000000000000000000000000000000000000010000
00000192802930200000020100000000000000000000000000000000000806400000000000000000000000000000000000000000000000000000000000000000000000000000000000000000000000000000000000000000000000000000000000000000000000000000000000000000000000000000000000000000000000000010000
00000192802940200000020100000000000000000000000000000000001191400000000000000000000000000000000000000000000000000000000000000000000000000000000000000000000000000000000000000000000000000000000000000000000000000000000000000000000000000000000000000000000000000010000
00000199000000000000020100000001452200000000561386000000217847300000004937530000000000000000000000000000000000000000000000000000000000000000000000000000000000000000000000000000000000000066666600000217091600000066666600000066666600000066666600000066667000000000000
00000199099000000000020100000001452200000000561386000000217847300000004937530000000000000000000000000000000000000000000000000000000000000000000000000000000000000000000000000000000000000066666600000217091600000066666600000066666600000066666600000066667000000000000
00000199099100000000020100000000000000000000000000000000179900000000000000000000000000000000000000000000000000000000000000000000000000000000000000000000000000000000000000000000000000000000000000000150425000000000000000000000000000000000000000000000000000000000000
00000199099110000000020100000000000000000000000000000000179900000000000000000000000000000000000000000000000000000000000000000000000000000000000000000000000000000000000000000000000000000000000000000150425000000000000000000000000000000000000000000000000000000000000
00000199099110500000020100000000000000000000000000000000179900000000000000000000000000000000000000000000000000000000000000000000000000000000000000000000000000000000000000000000000000000000000000000150425000000000000000000000000000000000000000000000000000000010000
00000199099200000000020100000001452200000000561386000000037947300000004937530000000000000000000000000000000000000000000000000000000000000000000000000000000000000000000000000000000000000066666600000066666600000066666600000066666600000066666600000066667000000000000
00000199099210000000020100000001452200000000561386000000037947300000004937530000000000000000000000000000000000000000000000000000000000000000000000000000000000000000000000000000000000000066666600000066666600000066666600000066666600000066666600000066667000000000000
00000199099210200000020100000001452200000000561386000000037947300000004937530000000000000000000000000000000000000000000000000000000000000000000000000000000000000000000000000000000000000066666600000066666600000066666600000066666600000066666600000066667000000010000
00000200000000000000020100000000000000000000000000000002185400000000000000000000000000000000000000000000000000000000000000000000000000000000000000000000000000000000000000000000000000006469555400001202500000000000000000002156518400000000000000000000000000000000000
00000220000000000000020100000000000000000000000000000001202000000000000000000000000000000000000000000000000000000000000000000000000000000000000000000000000000000000000000000000000000000000000000001202500000000000000000000000000000000000000000000000000000000000000
00000221000000000000020100000000000000000000000000000001202000000000000000000000000000000000000000000000000000000000000000000000000000000000000000000000000000000000000000000000000000000000000000001202500000000000000000000000000000000000000000000000000000000000000
00000221300000000000020100000000000000000000000000000001202000000000000000000000000000000000000000000000000000000000000000000000000000000000000000000000000000000000000000000000000000000000000000001202500000000000000000000000000000000000000000000000000000000000000
00000221300100000000020100000000000000000000000000000001202000000000000000000000000000000000000000000000000000000000000000000000000000000000000000000000000000000000000000000000000000000000000000001202500000000000000000000000000000000000000000000000000000000000000
00000221300110000000020100000000000000000000000000000001202000000000000000000000000000000000000000000000000000000000000000000000000000000000000000000000000000000000000000000000000000000000000000001202500000000000000000000000000000000000000000000000000000000000000
00000221300110200000020100000000000000000000000000000001202000000000000000000000000000000000000000000000000000000000000000000000000000000000000000000000000000000000000000000000000000000000000000001202500000000000000000000000000000000000000000000000000000000000000
00000221300110201000020100000000000000000000000000000000878000000000000000000000000000000000000000000000000000000000000000000000000000000000000000000000000000000000000000000000000000000000000000000878500000000000000000000000000000000000000000000000000000010100000
00000221300110202000020100000000000000000000000000000000111000000000000000000000000000000000000000000000000000000000000000000000000000000000000000000000000000000000000000000000000000000000000000000111000000000000000000000000000000000000000000000000000000010110000
00000221300110203000020100000000000000000000000000000000213000000000000000000000000000000000000000000000000000000000000000000000000000000000000000000000000000000000000000000000000000000000000000000213000000000000000000000000000000000000000000000000000000040020000
00000240000000000000020100000000000000000000000000000000983400000000000000000000000000000000000000000000000000000000000000000000000000000000000000000000000000000000000000000000000000006469555400000000000000000000000000002156518400000000000000000000000000000000000
00000241000000000000020100000000000000000000000000000000983400000000000000000000000000000000000000000000000000000000000000000000000000000000000000000000000000000000000000000000000000006469555400000000000000000000000000002156518400000000000000000000000000000000000
00000241800000000000020100000000000000000000000000000000983400000000000000000000000000000000000000000000000000000000000000000000000000000000000000000000000000000000000000000000000000006469555400000000000000000000000000002156518400000000000000000000000000000000000
00000241810000000000020100000000000000000000000000000000983400000000000000000000000000000000000000000000000000000000000000000000000000000000000000000000000000000000000000000000000000000000000000000000000000000000000000000000000000000000000000000000000000000000000
00000241810700000000020100000000000000000000000000000000983400000000000000000000000000000000000000000000000000000000000000000000000000000000000000000000000000000000000000000000000000000000000000000000000000000000000000000000000000000000000000000000000000000000000
00000241810710200000020100000000000000000000000000000000983400000000000000000000000000000000000000000000000000000000000000000000000000000000000000000000000000000000000000000000000000000000000000000000000000000000000000000000000000000000000000000000000000012030000
00000241899000000000020100000000000000000000000000000000000000000000000000000000000000000000000000000000000000000000000000000000000000000000000000000000000000000000000000000000000000006469555400000000000000000000000000002156518400000000000000000000000000000000000
00000241899100000000020100000000000000000000000000000000000000000000000000000000000000000000000000000000000000000000000000000000000000000000000000000000000000000000000000000000000000006469555400000000000000000000000000002156518400000000000000000000000000000000000
00000241899110000000020100000000000000000000000000000000000000000000000000000000000000000000000000000000000000000000000000000000000000000000000000000000000000000000000000000000000000006469555400000000000000000000000000002156518400000000000000000000000000000000000
00000241899110100000020100000000000000000000000000000000000000000000000000000000000000000000000000000000000000000000000000000000000000000000000000000000000000000000000000000000000000006469555400000000000000000000000000002156518400000000000000000000000000010080000
00000700000000000000020100000140973720000024997247000002071664100000206617350000000000000000000000000000000000000000000000000000000000000000000000000000000000000000000000000000000000004371773000004375923000004375923000004375923000004375923000006450584400000000000
00000720000000000000020100000140973720000024997247000002071664100000206617350000000000000000000000000000000000000000000000000000000000000000000000000000000000000000000000000000000000004371773000004375923000004375923000004375923000004375923000006450584400000000000
00000721000000000000020100000140973720000024997247000002071664100000206617350000000000000000000000000000000000000000000000000000000000000000000000000000000000000000000000000000000000004371773000004375923000004375923000004375923000004375923000006450584400000000000
00000721800000000000020100000140973720000024997247000002071664100000206617350000000000000000000000000000000000000000000000000000000000000000000000000000000000000000000000000000000000004371773000004375923000004375923000004375923000004375923000006450584400000000000
00000721803000000000120100000000000000000024997247000002071664100000206617350000000000000000000000000000000000000000000000000000000000000000000000000000000000000000000000000000000000004136773000004140923000004140923000004140923000004140923000006215584400000000000
00000721803100000000120100000000000000000024958302000002067769600000206227900000000000000000000000000000000000000000000000000000000000000000000000000000000000000000000000000000000000004132623000004132623000004132623000004132623000004132623000006198934400000000000
00000721803110000000120100000000000000000024958302000002067769600000206227900000000000000000000000000000000000000000000000000000000000000000000000000000000000000000000000000000000000004132623000004132623000004132623000004132623000004132623000006198934400000000000
00000721803110100000120100000000000000000010505682000000869998600000086768250000000000000000000000000000000000000000000000000000000000000000000000000000000000000000000000000000000000001824930600001824930600001824930600001824930600001824930600002737396400000500000
00000721803110200000120100000000000000000014452620000001197771000000119459650000000000000000000000000000000000000000000000000000000000000000000000000000000000000000000000000000000000002307692400002307692400002307692400002307692400002307692400003461538000000500000
00000721803300000000020100000000000000000000038945000000003894500000000389450000000000000000000000000000000000000000000000000000000000000000000000000000000000000000000000000000000000000004150000000008300000000008300000000008300000000008300000000016650000000000000
00000721803310000000120100000000000000000000038945000000003894500000000389450000000000000000000000000000000000000000000000000000000000000000000000000000000000000000000000000000000000000004150000000008300000000008300000000008300000000008300000000016650000000500000
00000721804000000000120100000140973720000000000000000000000000000000000000000000000000000000000000000000000000000000000000000000000000000000000000000000000000000000000000000000000000000235000000000235000000000235000000000235000000000235000000000235000000000000000
00000721804100000000120100000140973720000000000000000000000000000000000000000000000000000000000000000000000000000000000000000000000000000000000000000000000000000000000000000000000000000235000000000235000000000235000000000235000000000235000000000235000000000000000
00000721804110000000120100000140973720000000000000000000000000000000000000000000000000000000000000000000000000000000000000000000000000000000000000000000000000000000000000000000000000000235000000000235000000000235000000000235000000000235000000000235000000000500000
000009000000000000000201-000031971255-000038276745-000050360545-00002628069100000000000000000000000000000000000000000000000000000000000000000000000000000000000000000000000000000000-00059516875-00066497317-00070368911-00066111512-00064319869-0006971551100000000000
000009100000000000000201-000031971255-000038276745-000050360545-00002628069100000000000000000000000000000000000000000000000000000000000000000000000000000000000000000000000000000000-00059516875-00066497317-00070368911-00066111512-00064319869-0006971551100000000000
00000911000000000000020100000000000000000000000000-000000661806-00000023320600000000000000000000000000000000000000000000000000000000000000000000000000000000000000000000000000000000-00000000000-00001700000-00006300000-00000000000-00000000000-0000000000000000000000
00000911100000000000020100000000000000000000000000-000000661806-00000023320600000000000000000000000000000000000000000000000000000000000000000000000000000000000000000000000000000000-00000000000-00001700000-00006300000-00000000000-00000000000-0000000000000000000000
00000911180000000000020100000000000000000000000000-000000661806-00000023320600000000000000000000000000000000000000000000000000000000000000000000000000000000000000000000000000000000-00000000000-00001700000-00006300000-00000000000-00000000000-0000000000000000000000
00000911180100000000020100000000000000000000000000-000000661806-00000023320600000000000000000000000000000000000000000000000000000000000000000000000000000000000000000000000000000000-00000000000-00001700000-00006300000-00000000000-00000000000-0000000000000000000000
00000911180111000000020100000000000000000000000000-000000661806-00000023320600000000000000000000000000000000000000000000000000000000000000000000000000000000000000000000000000000000-00000000000-00001700000-00006300000-00000000000-00000000000-0000000000000000000000
00000911180111010000020100000000000000000000000000-000000661806-00000023320600000000000000000000000000000000000000000000000000000000000000000000000000000000000000000000000000000000-00000000000-00001020000-00003780000-00000000000-00000000000-0000000000010300010000
000009111801110200000201000000000000000000000000000000000000000000000000000000000000000000000000000000000000000000000000000000000000000000000000000000000000000000000000000000000000-00000000000-00000425000-00001575000-00000000000-00000000000-0000000000010300200000
000009111801110300000201000000000000000000000000000000000000000000000000000000000000000000000000000000000000000000000000000000000000000000000000000000000000000000000000000000000000-00000000000-00000255000-00000945000-00000000000-00000000000-0000000000010300400000
000009130000000000000201-0000000000010000000000000-000016805325000000000000000000000000000000000000000000000000000000000000000000000000000000000000000000000000000000000000000000000-00000000000-00000000000-00000000000-00000000000-00000000000-0000000000000000000000
000009132000000000000201-0000000000010000000000000-000016805325000000000000000000000000000000000000000000000000000000000000000000000000000000000000000000000000000000000000000000000-00000000000-00000000000-00000000000-00000000000-00000000000-0000000000000000000000
000009132100000000000201-0000000000010000000000000-000016805325000000000000000000000000000000000000000000000000000000000000000000000000000000000000000000000000000000000000000000000-00000000000-00000000000-00000000000-00000000000-00000000000-0000000000000000000000
000009132100400000000201-0000000000010000000000000-000016805325000000000000000000000000000000000000000000000000000000000000000000000000000000000000000000000000000000000000000000000-00000000000-00000000000-00000000000-00000000000-00000000000-0000000000000000000000
000009132100410000001201-0000000000010000000000000-000016805325000000000000000000000000000000000000000000000000000000000000000000000000000000000000000000000000000000000000000000000-00000000000-00000000000-00000000000-00000000000-00000000000-0000000000000000000000
00000913210041010000120100000000000000000000000000-000001683596000000000000000000000000000000000000000000000000000000000000000000000000000000000000000000000000000000000000000000000-00000000000-00000000000-00000000000-00000000000-00000000000-0000000000010900500000
00000913210041020000120100000000000000000000000000-000000416125000000000000000000000000000000000000000000000000000000000000000000000000000000000000000000000000000000000000000000000-00000000000-00000000000-00000000000-00000000000-00000000000-0000000000010900500000
00000913210041060000120100000000000000000000000000-000003785718000000000000000000000000000000000000000000000000000000000000000000000000000000000000000000000000000000000000000000000-00000000000-00000000000-00000000000-00000000000-00000000000-0000000000010900500000
00000913210041090000120100000000000000000000000000-000004155250000000000000000000000000000000000000000000000000000000000000000000000000000000000000000000000000000000000000000000000-00000000000-00000000000-00000000000-00000000000-00000000000-0000000000010900500000
000009132100411000001201-0000000000010000000000000-000001879846000000000000000000000000000000000000000000000000000000000000000000000000000000000000000000000000000000000000000000000-00000000000-00000000000-00000000000-00000000000-00000000000-0000000000010900500000
00000913210041110000120100000000000000000000000000-000000841341000000000000000000000000000000000000000000000000000000000000000000000000000000000000000000000000000000000000000000000-00000000000-00000000000-00000000000-00000000000-00000000000-0000000000010900500000
00000913210041120000120100000000000000000000000000-000004043449000000000000000000000000000000000000000000000000000000000000000000000000000000000000000000000000000000000000000000000-00000000000-00000000000-00000000000-00000000000-00000000000-0000000000010900500000
000009170000000000000201-000031971254-000038276745-000032893414-00002604748500000000000000000000000000000000000000000000000000000000000000000000000000000000000000000000000000000000-00059516875-00064797317-00064068911-00066111512-00064319869-0006971551100000000000
