87612826000190010120183112201801012019PREFEITURA MUNICIPAL INDEPENDENCIA                                              
0000010000000000000002010000252931601000025983774300001991853130000221397665000025076291200002387454560000268908956000018005632400001951720250000291006040000020493107100003371322840004298564030004451561920004441216960004508042180004484110030005756290490000000
0000011000000000000002010000009750012000000769482900000127821300000015455935000002894714200000627165290000013389909000001331754000000202715470000026432903000001070864200000150396440000274702510000284699810000307369980000277337190000394146100000786374970000000
0000011100000000000002010000009602039000000760461500000126188420000015345671000002880324200000624965110000013300422000001247223700000188280480000025754014000001036967500000147939800000268798030000278795330000301465500000271432710000388241620000780470280000000
0000011120000000000002010000000300483000000000092400000000006730000000004478000000079601800000001677200000000016671000000002374200000021400860000003781927000000056492400000004001980000016666680000016666680000016666680000016666680000016666680000016666600000000
0000011120100000000002010000000300483000000000092400000000006730000000004478000000079601800000001677200000000016671000000002374200000021400860000003781927000000056492400000004001980000016666680000016666680000016666680000016666680000016666680000016666600000000
0000011120110000000002010000000300483000000000092400000000006730000000004478000000079601800000001677200000000016671000000002374200000021400860000003781927000000056492400000004001980000016666680000016666680000016666680000016666680000016666680000016666600000000
0000011120111000000002010000000300483000000000092400000000006730000000004478000000079601800000001677200000000016671000000002374200000021400860000003781927000000056492400000004001980000016666680000016666680000016666680000016666680000016666680000016666600000000
0000011120111010000002010000000180290000000000055400000000004030000000002686000000047761000000001006320000000010002000000001424600000012840520000002269156000000033895400000002401180000010000000000010000000000010000000000010000000000010000000000010000000000001
0000011120111020000002010000000015024000000000004600000000000340000000000224000000003980100000000083860000000000833000000000118700000001070040000000189096000000002824600000000200100000000833340000000833340000000833340000000833340000000833340000000833300000020
0000011120111030000002010000000045072000000000013900000000001010000000000672000000011940300000000251580000000002501000000000356100000003210130000000567289000000008473900000000600300000002500000000002500000000002500000000002500000000002500000000002500000000040
0000011120111040000002010000000060097000000000018500000000001350000000000896000000015920400000000335440000000003335000000000474800000004280170000000756386000000011298500000000800400000003333340000003333340000003333340000003333340000003333340000003333300000031
0000011130000000000002010000005515919000000392098700000043000300000004071901000000425967700000039447940000004475230000000420335200000041781280000004326140000000419121700000074576400000072311860000072311860000072311860000072311860000145811860000072311840000000
0000011130300000000002010000005515919000000392098700000043000300000004071901000000425967700000039447940000004475230000000420335200000041781280000004326140000000419121700000074576400000072311860000072311860000072311860000072311860000145811860000072311840000000
0000011130310000000002010000005515919000000392098700000043000300000004071901000000425967700000039447940000004475230000000420335200000041781280000004326140000000414479900000074576400000072311860000072311860000072311860000072311860000145811860000072311840000000
0000011130311000000002010000005515919000000392098700000043000300000004071901000000425967700000039447940000004475230000000420335200000041781280000004326140000000414479900000074576400000072311860000072311860000072311860000072311860000145811860000072311840000000
0000011130311010000002010000004724699000000318957000000036063550000003349041000000341870300000032151300000003712764000000346149600000033863510000003557895000000339266500000059294030000057029380000057029380000057029380000057029380000120529380000057029440000000
0000011130311010100002010000002834819000000191374100000021638130000002009425000000205122200000019290790000002227658000000207689800000020318100000002134737000000203559900000035576420000034217640000034217640000034217640000034217640000072217640000034217610000001
0000011130311010200002010000001181175000000079739300000009015890000000837260000000085467600000008037820000000928191000000086537400000008465880000000889474000000084816600000014823510000014257340000014257340000014257340000014257340000030257340000014257380000020
0000011130311010300002010000000708705000000047843600000005409530000000502356000000051280500000004822690000000556915000000051922400000005079530000000533684000000050890000000008894100000008554400000008554400000008554400000008554400000018054400000008554450000040
0000011130311020000002010000000297929000000032428900000002847690000000238994000000031067400000002619510000000294753000000026143200000002952830000000273607000000026252800000005568100000008145180000008145180000008145180000008145180000008145180000008145070000000
0000011130311020100002010000000178758000000019457400000001708620000000143396000000018640400000001571700000000176852000000015685900000001771700000000164164000000015751700000003340850000004887100000004887100000004887100000004887100000004887100000004887080000001
0000011130311020200002010000000074482000000008107200000000711920000000059749000000007766900000000654880000000073688000000006535800000000738210000000068402000000006563200000001392030000002036300000002036300000002036300000002036300000002036300000002036240000020
0000011130311020300002010000000044689000000004864300000000427150000000035849000000004660100000000392930000000044213000000003921500000000442920000000041041000000003937900000000835220000001221780000001221780000001221780000001221780000001221780000001221750000040
0000011130311030000002010000000493291000000040712800000004089060000000483866000000053030000000004677130000000467713000000048042400000004964940000000494638000000048960600000009714270000007137300000007137300000007137300000007137300000017137300000007137330000000
0000011130311030100002010000000295974000000024427700000002453430000000290319000000031818000000002806280000000280628000000028825400000002978960000000296782000000029376300000005828560000004282380000004282380000004282380000004282380000010282380000004282400000001
0000011130311030200002010000000123323000000010178200000001022270000000120967000000013257500000001169280000000116928000000012010600000001241240000000123660000000012240200000002428570000001784320000001784320000001784320000001784320000004284320000001784360000020
0000011130311030300002010000000073994000000006106900000000613360000000072580000000007954500000000701570000000070157000000007206400000000744740000000074196000000007344100000001457140000001070600000001070600000001070600000001070600000002570600000001070570000040
0000011130340000000002010000000000000000000000000000000000000000000000000000000000000000000000000000000000000000000000000000000000000000000000000000000000000000004641800000000000000000000000000000000000000000000000000000000000000000000000000000000000000000000
0000011130341000000002010000000000000000000000000000000000000000000000000000000000000000000000000000000000000000000000000000000000000000000000000000000000000000004641800000000000000000000000000000000000000000000000000000000000000000000000000000000000000000000
0000011130341010000002010000000000000000000000000000000000000000000000000000000000000000000000000000000000000000000000000000000000000000000000000000000000000000004641800000000000000000000000000000000000000000000000000000000000000000000000000000000000000000000
0000011130341010100002010000000000000000000000000000000000000000000000000000000000000000000000000000000000000000000000000000000000000000000000000000000000000000002785000000000000000000000000000000000000000000000000000000000000000000000000000000000000000000001
0000011130341010200002010000000000000000000000000000000000000000000000000000000000000000000000000000000000000000000000000000000000000000000000000000000000000000001160500000000000000000000000000000000000000000000000000000000000000000000000000000000000000000020
0000011130341010300002010000000000000000000000000000000000000000000000000000000000000000000000000000000000000000000000000000000000000000000000000000000000000000000696300000000000000000000000000000000000000000000000000000000000000000000000000000000000000000040
0000011180000000000002010000003785637000000368270400000083181390000011269292000002374754700000583839970000008808521000000824514300000125098340000017645947000000561353400000069361420000179819490000189816790000212486960000182454170000225763080000691491840000000
0000011180100000000002010000001617307000000175609900000060933810000009044788000002093839800000562397870000005747837000000536007900000090913100000014487445000000258962900000038604910000136119870000146117170000168787340000138754550000182063460000617792260000000
0000011180110000000002010000000218307000000026999900000042541810000004380388000000764583200000186323870000001304027000000096567900000013702100000000387445000000082232900000012555910000062117610000072114910000094785080000064752290000101241200000119359910000000
0000011180111000000002010000000000000000000000000000000031046010000003836608000000650810000000181198510000000456770000000067038900000005967440000000111340000000020671600000004882090000045900570000055897870000078536610000048389740000084753790000102879590000000
0000011180111010000002010000000000000000000000000000000018627360000002301943000000390480700000108717990000000274057000000040222700000003580420000000066804000000012402600000002929230000032335820000032335820000032335820000032335820000034335820000084335800000001
0000011180111020000002010000000000000000000000000000000007761710000000959175000000162706300000045300550000000114195000000016760300000001491900000000027835000000005168200000001220540000013473260000013473260000013473260000013473260000035973260000016473240000020
0000011180111030000002010000000000000000000000000000000004656940000000575490000000097623000000027179970000000068518000000010055900000000895120000000016701000000003100800000000732320000000091490000010088790000032727530000002580660000014444710000002070550000040
0000011180112000000002010000000000000000000000000000000000000000000000000000000000000000000000000172010000000047173000000008225100000000934200000000018195000000003674700000000911360000000355200000000355200000000386630000000500710000000625570000000618360000000
0000011180112010000002010000000000000000000000000000000000000000000000000000000000000000000000000103170000000028300000000004934600000000560480000000010916000000002204500000000546800000000284160000000284160000000284160000000284160000000284160000000284200000001
0000011180112020000002010000000000000000000000000000000000000000000000000000000000000000000000000043040000000011796000000002056600000000233570000000004549000000000918900000000227880000000000000000000000000000000031430000000145510000000270370000000263110000020
0000011180112030000002010000000000000000000000000000000000000000000000000000000000000000000000000025800000000007077000000001233900000000140150000000002730000000000551300000000136680000000071040000000071040000000071040000000071040000000071040000000071050000040
0000011180113000000002010000000183000000000020666100000007941350000000390551000000082404900000003850530000000583481000000017226500000004848210000000205219000000042808100000005611770000011856800000011856800000011856800000011856800000011856800000011856900000000
0000011180113010000002010000000109797000000012399000000004764710000000234328000000049442800000002310260000000350078000000010335500000002908920000000123128000000025683700000003367010000007114080000007114080000007114080000007114080000007114080000007114140000001
0000011180113020000002010000000045752000000005166900000001985430000000097643000000020601700000000962710000000145878000000004307000000001212080000000051308000000010702600000001402980000002964200000002964200000002964200000002964200000002964200000002964220000020
0000011180113030000002010000000027451000000003100200000001191210000000058580000000012360400000000577560000000087525000000002584000000000727210000000030783000000006421800000000841780000001778520000001778520000001778520000001778520000001778520000001778540000040
0000011180114000000002010000000035307000000006333800000003554450000000153229000000031368300000001102820000000216603000000004077400000001952250000000052691000000015078500000001150690000004005040000004005040000004005040000004005040000004005040000004005060000000
0000011180114010000002010000000021183000000003800100000002132610000000091933000000018820700000000661660000000129959000000002446100000001171290000000031612000000009046800000000690300000002403020000002403020000002403020000002403020000002403020000002403060000001
0000011180114020000002010000000008828000000001583700000000888670000000038311000000007842400000000275720000000054153000000001019600000000488100000000013175000000003770000000000287730000001001260000001001260000001001260000001001260000001001260000001001260000020
0000011180114030000002010000000005296000000000950000000000533170000000022985000000004705200000000165440000000032491000000000611700000000292860000000007904000000002261700000000172660000000600760000000600760000000600760000000600760000000600760000000600740000040
0000011180140000000002010000001399000000000148610000000018392000000004664400000001329256600000376074000000004443810000000439440000000077211000000014100000000000176730000000026049000000074002260000074002260000074002260000074002260000080822260000498432350000000
0000011180141000000002010000001399000000000148610000000018392000000004664400000001329256600000376074000000004443810000000439440000000077211000000014100000000000176730000000026049000000074002260000074002260000074002260000074002260000080822260000498432350000000
0000011180141010000002010000000839400000000089166000000011035200000002798640000000797553900000225644400000002666285000000263664000000046326600000008460000000000106038000000015629400000044401360000044401360000044401360000044401360000044401360000305401390000001
0000011180141020000002010000000349750000000037152500000004598000000001166100000000332314200000094018500000001110953000000109860000000019302750000003525000000000044182500000006512250000018500560000018500560000018500560000018500560000025320560000119680610000020
0000011180141030000002010000000209850000000022291500000002758800000000699660000000199388500000056411100000000666572000000065916000000011581650000002115000000000026509500000003907350000011100340000011100340000011100340000011100340000011100340000073350350000040
0000011180200000000002010000002168330000000192660500000022247580000002224504000000280914900000021442100000003060684000000288506400000034185240000003158502000000302390500000030756510000043699620000043699620000043699620000043699620000043699620000073699580000000
0000011180230000000002010000002168330000000192660500000022247580000002224504000000280914900000021442100000003060684000000288506400000034185240000003158502000000302390500000030756510000043699620000043699620000043699620000043699620000043699620000073699580000000
0000011180231000000002010000002124494000000191304200000022041190000002207548000000278108600000021232710000003019271000000282491000000033848110000003129929000000297976200000030551850000043328320000043328320000043328320000043328320000043328320000073328330000000
0000011180231010000002010000001274695000000114781900000013224640000001324524000000166864200000012739530000001811556000000169493700000020308730000001877951000000178785200000018331090000025997000000025997000000025997000000025997000000025997000000043996960000001
0000011180231020000002010000000531126000000047826500000005510340000000551888000000069527800000005308250000000754821000000070623200000008462120000000782489000000074494500000007637990000010832080000010832080000010832080000010832080000010832080000018332080000020
0000011180231030000002010000000318673000000028695800000003306210000000331136000000041716600000003184930000000452894000000042374100000005077260000000469489000000044696500000004582770000006499240000006499240000006499240000006499240000006499240000010999290000040
0000011180232000000002010000000024953000000001356300000000070520000000016956000000002806300000000209390000000041413000000006015400000000337130000000028573000000003719900000000122800000000371300000000371300000000371300000000371300000000371300000000371250000000
0000011180232010000002010000000014971000000000813700000000042320000000010174000000001683700000000125630000000024847000000003609200000000202270000000017144000000002231800000000073670000000222780000000222780000000222780000000222780000000222780000000222750000001
0000011180232020000002010000000006239000000000339100000000017620000000004239000000000701700000000052350000000010354000000001503900000000084290000000007143000000000930000000000030710000000092820000000092820000000092820000000092820000000092820000000092840000020
0000011180232030000002010000000003743000000000203500000000010580000000002543000000000420900000000031410000000006212000000000902300000000050570000000004286000000000558100000000018420000000055700000000055700000000055700000000055700000000055700000000055660000040
0000011180233000000002010000000015100000000000000000000000100000000000000000000000000000000000000000000000000000000000000000000000000000000000000000000000000000000520000000000070890000000000000000000000000000000000000000000000000000000000000000000000000000000
0000011180233010000002010000000009060000000000000000000000060000000000000000000000000000000000000000000000000000000000000000000000000000000000000000000000000000000312000000000042540000000000000000000000000000000000000000000000000000000000000000000000000000001
0000011180233020000002010000000003775000000000000000000000025000000000000000000000000000000000000000000000000000000000000000000000000000000000000000000000000000000130000000000017720000000000000000000000000000000000000000000000000000000000000000000000000000020
0000011180233030000002010000000002265000000000000000000000015000000000000000000000000000000000000000000000000000000000000000000000000000000000000000000000000000000078000000000010630000000000000000000000000000000000000000000000000000000000000000000000000000040
0000011180234000000002010000000003783000000000000000000000035870000000000000000000000000000000000000000000000000000000000000000000000000000000000000000000000000000174400000000010970000000000000000000000000000000000000000000000000000000000000000000000000000000
0000011180234010000002010000000002270000000000000000000000021520000000000000000000000000000000000000000000000000000000000000000000000000000000000000000000000000000104600000000006580000000000000000000000000000000000000000000000000000000000000000000000000000001
0000011180234020000002010000000000946000000000000000000000008970000000000000000000000000000000000000000000000000000000000000000000000000000000000000000000000000000043600000000002740000000000000000000000000000000000000000000000000000000000000000000000000000020
0000011180234030000002010000000000567000000000000000000000005380000000000000000000000000000000000000000000000000000000000000000000000000000000000000000000000000000026200000000001650000000000000000000000000000000000000000000000000000000000000000000000000000040
0000011200000000000002010000000147973000000009021400000001632880000000110264000000014390000000002200180000000089487000000084530300000014434990000000678889000000033896700000002456640000005904480000005904480000005904480000005904480000005904480000005904690000000
0000011210000000000002010000000147466000000009021400000001632880000000110264000000014390000000002200180000000089487000000084530300000014434990000000672152000000032466700000002102640000005431700000005431700000005431700000005431700000005431700000005431860000000
0000011210100000000002010000000090666000000008441400000001266880000000086464000000002560000000001549180000000072087000000082210300000014260990000000509352000000028986700000001986640000004683440000004683440000004683440000004683440000004683440000004683540000000
0000011210110000000002010000000090666000000008441400000001266880000000086464000000002560000000001549180000000072087000000082210300000014260990000000509352000000028986700000001986640000004683440000004683440000004683440000004683440000004683440000004683540000000
0000011210111000000002010000000035300000000002560000000000806000000000059000000000002560000000000905000000000065500000000077050000000014086000000000493600000000016870000000001380000000004683440000004683440000004683440000004683440000004683440000004683540000001
0000011210112000000002010000000000858000000000004000000000000000000000001777000000000000000000000003840000000000000000000000289000000000000000000000008752000000001485200000000000000000000000000000000000000000000000000000000000000000000000000000000000000000001
0000011210113000000002010000000041588000000004740000000000339000000000019400000000000000000000000446260000000005828000000003819300000000129930000000006193000000007509300000000472530000000000000000000000000000000000000000000000000000000000000000000000000000001
0000011210114000000002010000000012920000000001137400000000121880000000006287000000000000000000000194080000000000759000000001052000000000045060000000000807000000003122200000000134110000000000000000000000000000000000000000000000000000000000000000000000000000001
0000011210400000000002010000000056800000000000580000000000366000000000023800000000011830000000000651000000000017400000000002320000000000174000000000162800000000003480000000000116000000000748260000000748260000000748260000000748260000000748260000000748320000000
0000011210410000000002010000000056800000000000580000000000366000000000023800000000011830000000000651000000000017400000000002320000000000174000000000162800000000003480000000000116000000000748260000000748260000000748260000000748260000000748260000000748320000000
0000011210411000000002010000000056800000000000580000000000366000000000023800000000011830000000000651000000000017400000000002320000000000174000000000162800000000003480000000000116000000000748260000000748260000000748260000000748260000000748260000000748320001005
0000011220000000000002010000000000507000000000000000000000000000000000000000000000000000000000000000000000000000000000000000000000000000000000000000006737000000001430000000000354000000000472780000000472780000000472780000000472780000000472780000000472830000000
0000011220100000000002010000000000507000000000000000000000000000000000000000000000000000000000000000000000000000000000000000000000000000000000000000006737000000001430000000000354000000000472780000000472780000000472780000000472780000000472780000000472830000000
0000011220110000000002010000000000507000000000000000000000000000000000000000000000000000000000000000000000000000000000000000000000000000000000000000006737000000001430000000000354000000000472780000000472780000000472780000000472780000000472780000000472830000000
0000011220111000000002010000000000000000000000000000000000000000000000000000000000000000000000000000000000000000000000000000000000000000000000000000000000000000001430000000000354000000000472780000000472780000000472780000000472780000000472780000000472830000001
0000011220114000000002010000000000507000000000000000000000000000000000000000000000000000000000000000000000000000000000000000000000000000000000000000006737000000000000000000000000000000000000000000000000000000000000000000000000000000000000000000000000000000001
0000012000000000000002010000001154266000000786622700000066971990000007103901000000765973600000076818760000007586956000000769684900000075393770000007396124000000757561900000191990810000142562590000147763090000147353030000157913080000146802840000149755420000000
0000012100000000000002010000000000000000000679801200000055287080000005644854000000609188300000060618050000006179329000000633826800000062167180000006181482000000626839700000179533350000129462920000129462920000129462920000129462920000129462920000129463010000000
0000012100400000000002010000000000000000000679801200000055287080000005644854000000609188300000060618050000006179329000000633826800000062167180000006181482000000626839700000179533350000129462920000129462920000129462920000129462920000129462920000129463010000000
00000121004100000000020100000000000000000000000000000000000000000000000000000000000038638-0000000386380000000000000000000000000000000000000000000000000000000000000000000000000000000000000000000000000000000000000000000000000000000000000000000000000000000000000
00000121004120000000120100000000000000000000000000000000000000000000000000000000000038638-0000000386380000000000000000000000000000000000000000000000000000000000000000000000000000000000000000000000000000000000000000000000000000000000000000000000000000000000050
0000012100420000000002010000000000000000000679801200000055287080000005644854000000605324500000061004430000006179329000000633826800000062167180000006181482000000626839700000179533350000129462920000129462920000129462920000129462920000129462920000129463010000000
0000012100421000000012010000000000000000000679801200000055287080000005644854000000605324500000061004430000006179329000000633826800000062167180000006181482000000626839700000179533350000129462920000129462920000129462920000129462920000129462920000129463010000050
0000012400000000000002010000001154266000000106821500000011684910000001459047000000156785300000016200710000001407627000000135858100000013226590000001214642000000130722200000012457460000013099670000018300170000017890110000028450160000017339920000020292410000000
0000012400010000000002010000001154266000000106821500000011684910000001459047000000156785300000016200710000001407627000000135858100000013226590000001214642000000130722200000012457460000013099670000018300170000017890110000028450160000017339920000020292410000000
0000012400011000000002010000001154266000000106821500000011684910000001459047000000156785300000016200710000001407627000000135858100000013226590000001214642000000130722200000012457460000013099670000018300170000017890110000028450160000017339920000020292410000001
0000013000000000000002010000039274154000005248293200000183387680000007052339000000444833400000075512930000031181302000000703074800000085715920000079597204000001643737500000241352630000323969420000574236230000324956730000421819420000330624150000325456760000000
0000013100000000000002010000001517006000000115843500000017478680000001517813000000138720000000013872000000001533625000000138720000000014791170000001387200000000147770800000013872000000028134900000028134900000028134900000028134900000028134900000028135000000000
0000013100100000000002010000001517006000000115843500000017478680000001517813000000138720000000013872000000001533625000000138720000000014791170000001387200000000147770800000013872000000028134900000028134900000028134900000028134900000028134900000028135000000000
0000013100110000000002010000001517006000000115843500000017478680000001517813000000138720000000013872000000001533625000000138720000000014791170000001387200000000147770800000013872000000028134900000028134900000028134900000028134900000028134900000028135000000000
0000013100111000000002010000001451700000000115650000000017469000000001451700000000138720000000013872000000001516200000000138720000000014517000000001387200000000145170000000013872000000028134900000028134900000028134900000028134900000028134900000028135000000001
0000013100112000000002010000000000806000000000193500000000009680000000001613000000000000000000000000000000000008386000000000000000000000109650000000000000000000000967500000000000000000000000000000000000000000000000000000000000000000000000000000000000000000001
0000013100113000000002010000000064500000000000000000000000000000000000064500000000000000000000000000000000000009039000000000000000000000150720000000000000000000001507200000000000000000000000000000000000000000000000000000000000000000000000000000000000000000001
0000013100114000000002010000000000000000000000000000000000000000000000000000000000000000000000000000000000000000000000000000000000000000013800000000000000000000000126100000000000000000000000000000000000000000000000000000000000000000000000000000000000000000001
0000013200000000000002010000037757148000001482449700000165909000000005534526000000306113400000061640930000029647677000000564354800000070924750000078210004000001495966700000227480630000295834520000296101330000296821830000295834520000302489250000297321760000000
0000013210000000000002010000037757148000001482449700000165909000000005534526000000306113400000061640930000029647677000000564354800000070924750000078210004000001495966700000227480630000295834520000296101330000296821830000295834520000302489250000297321760000000
0000013210010000000002010000000919093000000099441800000012729770000001182487000000136769700000015465360000001744575000000188234400000015023400000001622037000000142284800000009992450000022225940000022492750000023213250000022225940000028880670000023712830000000
0000013210011000000002010000000919093000000099441800000012729770000001182487000000136769700000015465360000001744575000000188234400000015023400000001622037000000142284800000009992450000022225940000022492750000023213250000022225940000028880670000023712830000000
0000013210011010000002010000000506496000000043912500000005745270000000541681000000059288600000005730860000000575715000000058942100000004527920000000513372000000040762500000002933030000000000000000000266810000000987310000000000000000006654730000001486660000000
0000013210011010200002010000000077154000000006530300000000998520000000129317000000015194200000001305420000000132971000000012444800000001167800000000144792000000012441100000000798490000000000000000000000000000000000000000000000000000000000000000000000000000031
0000013210011010300002010000000285801000000023748800000003261100000000272039000000030571100000003154150000000316260000000032672200000002653010000000268706000000020787400000001523210000000000000000000266810000000890280000000000000000003551050000001486660000000
0000013210011010301002010000000048824000000003579600000000311710000000026132000000002077200000000218460000000012341000000000485800000000000000000000000000000000000000000000000000000000000000000000000000000000000000000000000000000000000000000000000000000004510
0000013210011010302002010000000012029000000000953600000000110600000000010731000000001065900000000108240000000011462000000001207100000000100610000000010377000000000839400000000053680000000000000000000000000000000000000000000000000000000000000000000000000004111
0000013210011010303002010000000023500000000001862600000000216070000000020962000000002082200000000211430000000022392000000002358000000000196540000000022835000000002074100000000208410000000000000000000000000000000000000000000000000000000000000000000000000004303
0000013210011010304002010000000008998000000000896200000000087210000000008719000000000843500000000068380000000001942000000000029600000000001490000000000149000000000000000000000000000000000000000000000266810000000000000000000000000000000000000000000000000004935
0000013210011010305002010000000004780000000000368400000000041750000000003794000000000379200000000038110000000004034000000000422500000000034910000000004061000000000361900000000036800000000000000000000000000000000126390000000000000000000000000000000000000004710
0000013210011010306002010000000001004000000000100800000000009770000000000980000000000094800000000007850000000000249000000000025000000000002510000000000000000000000000000000000000000000000000000000000000000000000000000000000000000000000000000000000000000004510
0000013210011010307002010000000008712000000000697800000000080160000000007662000000000646700000000045350000000004005000000000419700000000034660000000001200000000000000000000000000000000000000000000000000000000000237060000000000000000000000000000000000000004720
0000013210011010308002010000000009851000000000782900000000089170000000008617000000000859700000000086270000000009062000000000952800000000078890000000009005000000000557900000000044190000000000000000000000000000000265970000000000000000000000000000000000000004710
0000013210011010309002010000000003845000000000335600000000143200000000009610000000001209000000000138050000000015399000000001566800000000166540000000020655000000001903400000000058790000000000000000000000000000000000000000000000000000000000000000000000000004050
0000013210011010310002010000000017260000000001375300000000154560000000014647000000001380500000000109370000000006371000000000507700000000040850000000000956000000000000000000000000000000000000000000000000000000000000000000000000000000000000000000000000000004590
0000013210011010311002010000000014841000000001179600000000128480000000000886000000000088400000000001700000000000000000000000000000000000000000000000000000000000000000000000000000000000000000000000000000000000000000000000000000000000000000000000000000000004521
0000013210011010312002010000000047877000000003523700000000389850000000037783000000003800400000000381610000000040169000000004217100000000349800000000040663000000003688200000000344270000000000000000000000000000000000000000000000000000000000000000000000000004931
0000013210011010313002010000000059249000000004749700000000460730000000044015000000004421800000000443910000000042914000000004159400000000299950000000023136000000001813000000000082400000000000000000000000000000000000000000000000000000000000000000000000000004931
0000013210011010314002010000000001839000000000141700000000016070000000001459000000000145900000000014670000000001551000000000162600000000013430000000001566000000000138400000000005380000000000000000000000000000000000000000000000000000000000000000000000000004520
0000013210011010315002010000000009054000000000849900000000085330000000008269000000000799900000000080290000000008059000000000808900000000081190000000008149000000000817900000000082100000000000000000000000000000000260860000000000000000000000000000000000000004760
0000013210011010316002010000000000000000000001224800000000000000000000000532000000001826900000000000000000000000000000000000000000000000000000000000000000000000000000000000000000000000000000000000000000000000000000000000000000000000000000000000000000000004520
0000013210011010318002010000000000000000000000000000000000009170000000001536000000000201600000000022050000000000427000000000038200000000002220000000000361000000000060000000000003300000000000000000000000000000000000000000000000000000000000000000000086660004503
0000013210011010319002010000000000000000000000000000000000042820000000003438000000000259400000000020090000000000873000000000000000000000000000000000000000000000000000000000000000000000000000000000000000000000000000000000000000000000000000000000000000000004160
0000013210011010320002010000000000000000000000000000000000214560000000012360000000001273500000000127410000000016612000000001571400000000132590000000011723000000000502600000000006120000000000000000000000000000000000000000000000000000001048770000000000000004011
0000013210011010321002010000000000000000000000000000000000036000000000003502000000000384700000000040790000000003354000000000287200000000027300000000001880000000000155200000000005640000000000000000000000000000000000000000000000000000000000000000000000000004050
0000013210011010322002010000000000000000000000000000000000505260000000033963000000003843300000000234970000000000000000000000000000000000000000000000000000000000000000000000000000000000000000000000000000000000000000000000000000000000000000000000001400000004090
0000013210011010324002010000000000000000000000000000000000000000000000000000000000001638800000000313500000000032941000000003458900000000287200000000033386000000001268900000000008940000000000000000000000000000000000000000000000000000000000000000000000000004936
0000013210011010325002010000000014138000000001126600000000128630000000012442000000001247800000000125250000000013160000000001381800000000114740000000013339000000001215600000000122130000000000000000000000000000000000000000000000000000000000000000000000000004931
0000013210011010326002010000000000000000000000000000000000000000000000000000000000000000000000000316400000000068883000000008603900000000686930000000065241000000005390900000000443940000000000000000000000000000000000000000000000000000002500000000000000000004520
0000013210011010327002010000000000000000000000000000000000000000000000000000000000000000000000000000000000000000060000000000007800000000000660000000000024000000000000000000000000000000000000000000000000000000000000000000000000000000000002280000000000000004011
0000013210011010329002010000000000000000000000000000000000000000000000000000000000000000000000000000000000000000000000000000000000000000000000000000000000000000000000000000000017120000000000000000000000000000000000000000000000000000000000000000000000000004503
0000013210011010700002010000000039619000000003395900000000385890000000039440000000003433500000000314060000000027404000000002559800000000240900000000025345000000001973400000000124170000000000000000000000000000000000000000000000000000000854270000000000000000000
0000013210011010701002010000000012607000000000971700000000110030000000013390000000001169500000000102140000000009208000000000759300000000065340000000006721000000000415400000000010180000000000000000000000000000000000000000000000000000000854270000000000000001064
0000013210011010702002010000000019805000000001574300000000179070000000016929000000001371500000000129870000000011857000000001306400000000136680000000014328000000001218600000000084340000000000000000000000000000000000000000000000000000000000000000000000000001021
0000013210011010703002010000000003364000000000266100000000031070000000003009000000000291100000000028490000000002747000000000306200000000027120000000002840000000000264200000000024210000000000000000000000000000000000000000000000000000000000000000000000000001038
0000013210011010704002010000000003843000000000296100000000032630000000002817000000000280700000000025720000000001886000000000132400000000007200000000000926000000000027000000000003750000000000000000000000000000000000000000000000000000000000000000000000000001067
0000013210011010705002010000000000000000000000287700000000033090000000003295000000000320700000000027840000000001706000000000055500000000004560000000000530000000000048200000000001690000000000000000000000000000000000000000000000000000000000000000000000000001103
0000013210011010800002010000000005682000000000979800000000142780000000008970000000000678000000000046570000000007301000000001962700000000124950000000011161000000001165800000000044430000000000000000000000000000000016810000000000000000000000000000000000000000000
0000013210011010801002010000000001128000000000112500000000010930000000000776000000000066100000000006910000000000721000000000075100000000007810000000000813000000000084200000000001670000000000000000000000000000000000000000000000000000000000000000000000000001071
0000013210011010802002010000000000498000000000038400000000004460000000000433000000000029200000000003120000000000360000000000040700000000002400000000000250000000000025000000000001050000000000000000000000000000000000000000000000000000000000000000000000000001059
0000013210011010803002010000000002603000000000617400000000116850000000004316000000000202400000000011750000000000536000000000276200000000016810000000003259000000000179400000000009630000000000000000000000000000000000000000000000000000000000000000000000000001014
0000013210011010804002010000000001453000000000211500000000005880000000001842000000000127800000000022340000000004808000000001392200000000089230000000006244000000000766900000000032080000000000000000000000000000000000000000000000000000000000000000000000000001017
0000013210011010805002010000000000000000000000000000000000004660000000001603000000000084400000000002450000000000876000000000178500000000008700000000000595000000000110300000000000000000000000000000000000000000000000000000000000000000000000000000000000000001016
0000013210011010806002010000000000000000000000000000000000000000000000000000000000000168100000000000000000000000000000000000000000000000000000000000000000000000000000000000000000000000000000000000000000000000000016810000000000000000000000000000000000000001072
0000013210011010900002010000000002613000000000262300000000025420000000002552000000000246900000000024780000000000890000000000000000000000000000000000000000000000000000000000000000000000000000000000000000000000000000000000000000000000000000000000000000000000000
0000013210011010908002010000000002613000000000262300000000025420000000002552000000000246900000000024780000000000890000000000000000000000000000000000000000000000000000000000000000000000000000000000000000000000000000000000000000000000000000000000000000000001202
0000013210011019900002010000000095627000000008995400000000931560000000089363000000009164900000000885880000000090889000000009302600000000341260000000063368000000004394800000000442730000000000000000000000000000000080220000000000000000002249410000000000000000000
0000013210011019901002010000000010831000000000881200000000102680000000010118000000001016000000000108800000000011843000000001256100000000079210000000007547000000000744600000000076360000000000000000000000000000000000000000000000000000000000000000000000000001005
0000013210011019902002010000000004423000000000227400000000011830000000000142000000000000000000000000000000000000000000000000000000000000000000000000000000000000000000000000000000000000000000000000000000000000000080220000000000000000000000000000000000000001065
00000132100110199030020100000000374900000000022541000000002263100000000219300000000021215000000002129400000000213730000000021453-0000000305680000000000000000000000000000000000000000000000000000000000000000000000000000000000000000000000000000000000000000001039
0000013210011019904002010000000003980000000000000000000000000000000000000000000000000000000000000000000000000000000000000000000000000000000000000000000000000000000000000000000000000000000000000000000000000000000000000000000000000000000000000000000000000001024
0000013210011019905002010000000007793000000003594000000000358560000000034736000000003382500000000339510000000034076000000003420300000000343300000000034458000000003458600000000347140000000000000000000000000000000000000000000000000000000000000000000000000001022
0000013210011019906002010000000004391000000000000000000000000000000000000000000000000406400000000000000000000000000000000000000000000000019010000000001908000000000191600000000019230000000000000000000000000000000000000000000000000000000000000000000000000001050
0000013210011019907002010000000025648000000002038700000000232180000000022437000000002238500000000224630000000023597000000002480900000000205420000000019455000000000000000000000000000000000000000000000000000000000000000000000000000000002249410000000000000001010
0000013210011019908002010000000001071000000000000000000000000000000000000000000000000000000000000000000000000000000000000000000000000000000000000000000000000000000000000000000000000000000000000000000000000000000000000000000000000000000000000000000000000001022
0000013210011020000002010000000412597000000055529300000006984500000000640806000000077481100000009734500000001168860000000129292300000010495480000001108665000000101522300000007059420000022225940000022225940000022225940000022225940000022225940000022226170000000
0000013210011020100002010000000000000000000000000000000000000000000000000000000000000000000000000000000000000000000000000000000000000000425770000000000000000000000000000000000000000000000000000000000000000000000000000000000000000000000000000000000000000000000
0000013210011020102002010000000000000000000000000000000000000000000000000000000000000000000000000000000000000000000000000000000000000000425770000000000000000000000000000000000000000000000000000000000000000000000000000000000000000000000000000000000000000000001
0000013210011029900002010000000412597000000055529300000006984500000000640806000000077481100000009734500000001168860000000129292300000010069710000001108665000000101522300000007059420000022225940000022225940000022225940000022225940000022225940000022226170000000
0000013210011029901002010000000250733000000029404100000004811050000000341443000000033490100000005172330000000555296000000052605500000006725140000000565391000000073016700000003384610000010373900000010373900000010373900000010373900000010373900000010373960000001
0000013210011029902002010000000136754000000023901900000001663500000000242824000000036693500000003959980000000560059000000069650600000002751560000000453048000000019309500000003281560000010373900000010373900000010373900000010373900000010373900000010373960000001
0000013210011029904002010000000025110000000002223300000000509950000000056539000000007297500000000602190000000053505000000007036200000000593010000000090226000000009196100000000393250000001478140000001478140000001478140000001478140000001478140000001478250000001
0000013210040000000002010000036838055000001383007900000153179230000004352039000000169343700000046175570000027903102000000376120400000055901350000076587967000001353681900000217488180000273608580000273608580000273608580000273608580000273608580000273608930000000
0000013210041000000012010000036838055000001383007900000153179230000004352039000000169343700000046175570000027903102000000376120400000055901350000076587967000001353681900000217488180000273608580000273608580000273608580000273608580000273608580000273608930000000
0000013210041010000012010000011179921000000180844200000030805570000000000000000000000000000000000000000000007654993000000000000000000000000000000023987626000000329977800000059216230000039086940000039086940000039086940000039086940000039086940000039086990000050
0000013210041020000012010000010050868000000115175300000006982070000000000000000000000000000000000000000000006305663000000000000000000000000000000021684565000000359917600000042517090000039086940000039086940000039086940000039086940000039086940000039086990000050
0000013210041030000012010000004170331000000077436700000011936150000000000000000000000000000000000000000000002929638000000000000000000000000000000009152692000000127929900000022839370000039086940000039086940000039086940000039086940000039086940000039086990000050
0000013210041040000012010000002464599000000232968900000028297630000002174006000000085893100000022267750000003081552000000185226600000027183180000004342980000000247684300000025559330000039086940000039086940000039086940000039086940000039086940000039086990000050
0000013210041050000012010000000000000000000000000000000000000000000000000000000000000000000000000000000000000000000000000000000000000000000000000000000000000000000000000000000000000000039086940000039086940000039086940000039086940000039086940000039086990000050
0000013210041060000012010000006490500000000545095100000047055000000000000000000000000000000000000000000000004701300000000000000000000000000000000012829800000000025410000000039897000000039086940000039086940000039086940000039086940000039086940000039086990000050
0000013210041070000012010000002481836000000231487700000028102810000002178033000000083450600000023907820000003229956000000190893800000028718170000004590304000000262762300000027459160000039086940000039086940000039086940000039086940000039086940000039086990000050
0000013600000000000002010000000000000000003650000000000000000000000000000000000000000000000000000000000000000000000000000000000000000000000000000000000000000000000000000000000000000000000000000000250000000000000000000000097850000000000000000000000000000000000
0000013600100000000002010000000000000000003650000000000000000000000000000000000000000000000000000000000000000000000000000000000000000000000000000000000000000000000000000000000000000000000000000000250000000000000000000000097850000000000000000000000000000000000
0000013600110000000002010000000000000000003650000000000000000000000000000000000000000000000000000000000000000000000000000000000000000000000000000000000000000000000000000000000000000000000000000000250000000000000000000000097850000000000000000000000000000000000
0000013600111000000002010000000000000000003650000000000000000000000000000000000000000000000000000000000000000000000000000000000000000000000000000000000000000000000000000000000000000000000000000000250000000000000000000000097850000000000000000000000000000000001
0000016000000000000002010000010892400000000052300000000006160520000000822761000000073410000000003710000000000603700000000090981900000003167000000000530646000000029520000000003251720000010086380000010086380000010086380000010086380000010086380000070086450000000
0000016100000000000002010000010862800000000044440000000005334520000000729061000000065980000000003556000000000568600000000087521900000002857000000000455346000000027880000000002794720000002070240000002070240000002070240000002070240000002070240000062070300000000
0000016100100000000002010000000560800000000044440000000005334520000000729061000000065980000000003556000000000568600000000087521900000002857000000000455346000000027880000000002794720000002070240000002070240000002070240000002070240000002070240000002070300000000
0000016100110000000002010000000560800000000044440000000005334520000000729061000000065980000000003556000000000568600000000087521900000002857000000000455346000000027880000000002794720000002070240000002070240000002070240000002070240000002070240000002070300000000
0000016100111000000002010000000558400000000044440000000005334000000000729000000000065980000000003556000000000568600000000087510000000002857000000000428200000000027880000000002653000000002070240000002070240000002070240000002070240000002070240000002070300000001
0000016100112000000002010000000000000000000000000000000000000520000000000061000000000000000000000000000000000000000000000000011900000000000000000000000000000000000000000000000000000000000000000000000000000000000000000000000000000000000000000000000000000000001
0000016100113000000002010000000002400000000000000000000000000000000000000000000000000000000000000000000000000000000000000000000000000000000000000000027146000000000000000000000111660000000000000000000000000000000000000000000000000000000000000000000000000000001
0000016100114000000002010000000000000000000000000000000000000000000000000000000000000000000000000000000000000000000000000000000000000000000000000000000000000000000000000000000030060000000000000000000000000000000000000000000000000000000000000000000000000000001
0000016100200000000002010000010302000000000000000000000000000000000000000000000000000000000000000000000000000000000000000000000000000000000000000000000000000000000000000000000000000000000000000000000000000000000000000000000000000000000000000000060000000000000
0000016100210000000002010000010302000000000000000000000000000000000000000000000000000000000000000000000000000000000000000000000000000000000000000000000000000000000000000000000000000000000000000000000000000000000000000000000000000000000000000000060000000000000
0000016100211000000002010000010302000000000000000000000000000000000000000000000000000000000000000000000000000000000000000000000000000000000000000000000000000000000000000000000000000000000000000000000000000000000000000000000000000000000000000000060000000000001
0000016200000000000002010000000009800000000002000000000000198000000000020000000000002000000000000000000000000000000000000000000000000000000000000000020000000000000000000000000200000000000000000000000000000000000000000000000000000000000000000000000000000000000
0000016200200000000002010000000009800000000002000000000000198000000000020000000000002000000000000000000000000000000000000000000000000000000000000000020000000000000000000000000200000000000000000000000000000000000000000000000000000000000000000000000000000000000
0000016200210000000002010000000009800000000002000000000000198000000000020000000000002000000000000000000000000000000000000000000000000000000000000000020000000000000000000000000200000000000000000000000000000000000000000000000000000000000000000000000000000000000
0000016200211000000002010000000009800000000002000000000000198000000000020000000000002000000000000000000000000000000000000000000000000000000000000000020000000000000000000000000200000000000000000000000000000000000000000000000000000000000000000000000000000000001
0000016400000000000002010000000019800000000005860000000000628000000000073700000000005430000000000154000000000035100000000003460000000000310000000000055300000000001640000000000257000000000000000000000000000000000000000000000000000000000000000000000000000000000
0000016400100000000002010000000019800000000005860000000000628000000000073700000000005430000000000154000000000035100000000003460000000000310000000000055300000000001640000000000257000000000000000000000000000000000000000000000000000000000000000000000000000000000
0000016400110000000002010000000019800000000005860000000000628000000000073700000000005430000000000154000000000035100000000003460000000000310000000000055300000000001640000000000257000000000000000000000000000000000000000000000000000000000000000000000000000000000
0000016400111000000002010000000019800000000005860000000000628000000000073700000000005430000000000154000000000035100000000003460000000000310000000000055300000000001640000000000257000000000000000000000000000000000000000000000000000000000000000000000000000000001
0000016900000000000002010000000000000000000000000000000000000000000000000000000000000000000000000000000000000000000000000000000000000000000000000000000000000000000000000000000000000000008016140000008016140000008016140000008016140000008016140000008016150000000
0000016909900000000002010000000000000000000000000000000000000000000000000000000000000000000000000000000000000000000000000000000000000000000000000000000000000000000000000000000000000000008016140000008016140000008016140000008016140000008016140000008016150000000
0000016909910000000002010000000000000000000000000000000000000000000000000000000000000000000000000000000000000000000000000000000000000000000000000000000000000000000000000000000000000000008016140000008016140000008016140000008016140000008016140000008016150000000
0000016909911000000002010000000000000000000000000000000000000000000000000000000000000000000000000000000000000000000000000000000000000000000000000000000000000000000000000000000000000000008016140000008016140000008016140000008016140000008016140000008016150000001
0000017000000000000002010000190695352000019060105300001599046630000189016818000020415477800001585143970000214352480000015033569100001577390290000174777283000016917425700002773857890003537021770003424441390003640631470003629552220003590859720004412103480000000
0000017100000000000002010000077980188000009607121100000667296130000081182505000009637036100000809691300000099739321000007209557100000590860920000062220393000007593360500001317710410001703817710001417315140001658744060001730205590001687169450002196377970000000
0000017180000000000002010000077980188000009607121100000667296130000081182505000009637036100000809691300000099739321000007209557100000590860920000062220393000007593360500001317710410001703817710001417315140001658744060001730205590001687169450002196377970000000
0000017180100000000002010000064054498000008373926100000563892610000059122303000007255742900000679465830000078271545000005821790200000439079870000049879187000006265419100001096452590001485238360001177452220001376931940001463044850001108216560001874029320000000
0000017180120000000002010000064054498000008373926100000563892610000059122303000007255742900000679465830000046147589000005821790200000439079870000049879187000006265419100000767196520001485238360001177452220001376931940001136173850001108216560001543773320000000
0000017180121000000002010000064054498000008373926100000563892610000059122303000007255742900000679465830000046147589000005821790200000439079870000049879187000006265419100000767196520001485238360001177452220001376931940001136173850001108216560001543773320000000
0000017180121010000002010000038432698000005024355600000338335570000035473382000004353445800000407679510000027688554000003493074000000263447910000029927513000003759251400000460317900000927264480000681035570000840619350000648012870000625647040000974092440000001
0000017180121020000002010000003202725000000418696300000028194630000002956115000000362787100000033973290000002307379000000291089600000021954000000002493959000000313271000000038359830000065231560000065231560000065231560000065231560000065231560000065231510000020
0000017180121030000002010000009608175000001256088900000084583890000008868346000001088361500000101919870000006922138000000873268600000065861990000007481877000000939812900000115079480000231816120000170258890000210154830000162003220000156411760000243523120000040
0000017180121040000002010000012810900000001674785300000112778520000011824460000001451148500000135893160000009229518000001164358000000087815970000009975838000001253083800000153439310000260926200000260926200000260926200000260926200000260926200000260926250000031
0000017180130000000002010000000000000000000000000000000000000000000000000000000000000000000000000000000000000000000000000000000000000000000000000000000000000000000000000000329256070000000000000000000000000000000000000000000000000000000000000000330256000000000
0000017180131000000002010000000000000000000000000000000000000000000000000000000000000000000000000000000000000000000000000000000000000000000000000000000000000000000000000000329256070000000000000000000000000000000000000000000000000000000000000000330256000000000
0000017180131010000002010000000000000000000000000000000000000000000000000000000000000000000000000000000000000000000000000000000000000000000000000000000000000000000000000000197553640000000000000000000000000000000000000000000000000000000000000000198153600000001
0000017180131020000002010000000000000000000000000000000000000000000000000000000000000000000000000000000000000000000000000000000000000000000000000000000000000000000000000000082314020000000000000000000000000000000000000000000000000000000000000000082564000000020
0000017180131030000002010000000000000000000000000000000000000000000000000000000000000000000000000000000000000000000000000000000000000000000000000000000000000000000000000000049388410000000000000000000000000000000000000000000000000000000000000000049538400000040
0000017180140000000002010000000000000000000000000000000000000000000000000000000000000000000000000000000000032123956000000000000000000000000000000000000000000000000000000000000000000000000000000000000000000000000000000000326871000000000000000000000000000000000
0000017180141000000002010000000000000000000000000000000000000000000000000000000000000000000000000000000000032123956000000000000000000000000000000000000000000000000000000000000000000000000000000000000000000000000000000000326871000000000000000000000000000000000
0000017180141010000002010000000000000000000000000000000000000000000000000000000000000000000000000000000000019274374000000000000000000000000000000000000000000000000000000000000000000000000000000000000000000000000000000000196122600000000000000000000000000000001
0000017180141020000002010000000000000000000000000000000000000000000000000000000000000000000000000000000000008030989000000000000000000000000000000000000000000000000000000000000000000000000000000000000000000000000000000000081717750000000000000000000000000000020
0000017180141030000002010000000000000000000000000000000000000000000000000000000000000000000000000000000000004818593000000000000000000000000000000000000000000000000000000000000000000000000000000000000000000000000000000000049030650000000000000000000000000000040
0000017180200000000002010000000812840000000086588300000009155520000000778638000000085502600000009400660000001130760000000109864100000011512890000001103489000000139534400000012834310000011654320000012599710000012922800000014085210000016872320000014519940000000
0000017180260000000002010000000812840000000086588300000009155520000000778638000000085502600000009400660000001130760000000109864100000011512890000001103489000000139534400000012834310000011654320000012599710000012922800000014085210000016872320000014519940000000
0000017180261000000002010000000812840000000086588300000009155520000000778638000000085502600000009400660000001130760000000109864100000011512890000001103489000000139534400000012834310000011654320000012599710000012922800000014085210000016872320000014519940000001
0000017180300000000002010000003646233000000784612400000060481320000014713714000001478558200000086572630000016913901000000800151200000078855820000007143812000000761896500000163507600000129576420000143576420000141074270000166514800000337223400000234245340000000
0000017180310000000002010000003646233000000784612400000060481320000014713714000001478558200000086572630000016913901000000800151200000078855820000007143812000000761896500000163507600000129576420000143576420000141074270000166514800000337223400000234245340000000
0000017180311000000002010000003646233000000784612400000060481320000014713714000001478558200000086572630000016913901000000800151200000078855820000007143812000000761896500000163507600000129576420000143576420000141074270000166514800000337223400000234245340000000
0000017180311010000002010000001545833000000154583300000015458330000001545833000000154583300000015458330000001545833000000154583300000015458330000001545833000000154583300000015458330000030398660000030398660000030398660000030398660000030398660000030677110004510
0000017180311020000002010000000000000000000000000000000000000000000000000000000000000000000000000000000000000000000000000000000000000000000000000000000000000000000000000000000000000000022260000000022260000000022260000000022260000000027260000000022260000004520
0000017180311030000002010000000000000000000000000000000000000000000000000000000000000000000000000000000000000000000000000000000000000000000000000000000000000000000000000000000000000000035490000000035490000000035490000000035490000000035490000000035490000004520
0000017180311040000002010000000000000000000000000000000000000000000000000000000000000000000000000000000000000000000000000000000000000000000000000000000000000000000000000000000000000000008920000000008920000000008920000000008920000000008920000000008920000004520
0000017180311050000002010000000000000000000000000000000000000000000000000000000000000000000000000000000000000000000000000000000000000000000000000000000000000000000000000000000000000000002000000000002000000000002000000000002000000000002000000000002000000004710
0000017180311060000002010000000000000000000030806300000003331700000000312247000000031224700000003122470000000312247000000031224700000003122470000000624494000000031224700000003122470000005707760000005707760000005707760000005707760000005707760000009098230004503
0000017180311070000002010000000000000000000000000000000000000000000000000000000000000000000000000000000000000000000000000000000000000000000000000000000000000000000000000000000000000000008800000000008800000000008800000000008800000000008800000000008800000004521
0000017180311080000002010000000000000000000000000000000000000000000000000000000000000000000000000000000000000000000000000000000000000000000000000000000000000000000000000000000000000000016000000000016000000000016000000000016000000000016000000000016000000004520
0000017180311090000002010000000000000000000000000000000000000000000000000000000000000000000000000000000000000000000000000000000000000000000000000000000000000000000000000000000000000000000000000000001000000000000000000000001000000000000000000000001000000004520
0000017180311100000002010000002100400000000514240000000036214000000004421400000000442140000000044214000000004421400000000442140000000044214000000004450583000000445058300000110540590000000000000000000000000000000000000000000000000000000000000000027000000004520
0000017180311110000002010000000000000000000084982800000005477290000000432519000000043251900000003042000000000560838000000164844900000004325190000000432519000000073671900000008650380000000000000000013000000000002667950000015938380000011159300000018000000004502
0000017180311120000002010000000000000000000000000000000000000000000007928132000000000000000000000000000000000000000000000000000000000000000000000000000000000000000000000000000000000000000000000000000000000000000000000000000000000000055000000000006487680004520
0000017180311130000002010000000000000000000000000000000000000000000000073583000000007358300000000735830000000073583000000007358300000000735830000000073583000000007358300000000735830000000000000000000000000000008829900000000000000000000000000000000000000004501
00000171803111400000020100000000000000000000000000000000000000000000000000000000008000000-0000080000000000000000000000000000000000000000000000000000000000000000000000000000000000000000000000000000000000000000000000000000000000000000000000000000000000000004936
0000017180311150000002010000000000000000000000000000000000000000000000000000000000000000000000100000000000010000000000000000000000000000000000000000000000000000000000000000000000000000000000000000000000000000000000000000020000000000136487680000043512320004520
0000017180311160000002010000000000000000000000000000000000000000000000000000000000000000000000000000000000000000000000000000000000000011000000000000000000000000000000000000000000000000000000000000000000000000000000000000000000000000000000000000000000000004504
0000017180311170000002010000000000000000000000000000000000000000000000000000000000000000000000000000000000000000000000000000000000000000000000000000016800000000000000000000000000000000000000000000000000000000000000000000000000000000000000000000000000000004501
0000017180311180000002010000000000000000000000000000000000000000000000000000000000000000000000000000000000000000000000000000000000000000000000000000000000000000050000000000001000000000000000000000000000000000000000000000000000000000000000000000005000000004502
0000017180311200000002010000000000000000000000000000000000000000000000000000000000000000000000000000000000000000000000000000000000000000000000000000000000000000000000000000024000000000000000000000000000000000000000000000000000000000000000000000000000000004503
0000017180400000000002010000000000000000000014300000000001430000000003317368000000014740400000001581760000000163854000000153094700000028610530000000307726000000000000000000016404020000014885660000014885660000014885660000020885660000039635660000014885890000000
0000017180410000000002010000000000000000000014300000000001430000000003317368000000014740400000001581760000000163854000000153094700000028610530000000307726000000000000000000016404020000014885660000014885660000014885660000020885660000039635660000014885890000000
0000017180411000000002010000000000000000000014300000000001430000000003317368000000014740400000001581760000000163854000000153094700000028610530000000307726000000000000000000016404020000014885660000014885660000014885660000020885660000039635660000014885890000000
0000017180411010000002010000000000000000000014300000000001430000000000146115000000014740400000001581760000000163854000000015983600000001568590000000159030000000000000000000003125350000002949320000002949320000002949320000002949320000002949320000002949410001038
0000017180411020000002010000000000000000000000000000000000000000000000000000000000000000000000000000000000000000000000000000000000000000000000000000148696000000000000000000005947840000000764760000000764760000000764760000000764760000000764760000000764800001067
0000017180411030000002010000000000000000000000000000000000000000000000171253000000000000000000000000000000000000000000000077111100000015041940000000000000000000000000000000007330830000008296580000008296580000008296580000008296580000008296580000008296680001021
0000017180411040000002010000000000000000000000000000000000000000000003000000000000000000000000000000000000000000000000000060000000000012000000000000000000000000000000000000000000000000002875000000002875000000002875000000008875000000027625000000002875000001064
0000017180500000000002010000001713922000000309977500000028565000000002873314000000764775200000028898740000002882093000000286940100000029030130000003409011000000388793700000024740210000054761050000061099230000105227490000057973170000057965530000050995600000000
0000017180510000000002010000001713922000000309977500000018086850000001742808000000173336700000017593680000001751587000000173889500000017455070000001782359000000275744000000018396610000049985580000039210690000035770160000036084630000036076990000033342530000000
0000017180511000000002010000001713922000000309977500000018086850000001742808000000173336700000017593680000001751587000000173889500000017455070000001782359000000275744000000018396610000049985580000039210690000035770160000036084630000036076990000033342530001014
0000017180520000000002010000000000000000000000000000000000000000000000000000000000002700000000000000000000000000000000000000000000000000270000000000000000000000000000000000000000000000000000000000000000000000000000000000000000000000000000000000000540000000000
0000017180521000000002010000000000000000000000000000000000000000000000000000000000002700000000000000000000000000000000000000000000000000270000000000000000000000000000000000000000000000000000000000000000000000000000000000000000000000000000000000000540000001036
0000017180530000000002010000000000000000000000000000000006343600000000634360000000063436000000006343600000000634360000000063436000000006343600000000634360000000063436000000006343600000000000000000012337600000012337600000012337600000012337600000012337600000000
0000017180531000000002010000000000000000000000000000000006343600000000634360000000063436000000006343600000000634360000000063436000000006343600000000634360000000063436000000006343600000000000000000012337600000012337600000012337600000012337600000012337600000000
0000017180531010000002010000000000000000000000000000000002520000000000252000000000025200000000002520000000000252000000000025200000000002520000000000252000000000025200000000002520000000000000000000004881600000004881600000004881600000004881600000004881600001001
0000017180531020000002010000000000000000000000000000000002289800000000228980000000022898000000002289800000000228980000000022898000000002289800000000228980000000022898000000002289800000000000000000004536800000004536800000004536800000004536800000004536800001031
0000017180531030000002010000000000000000000000000000000001293200000000129320000000012932000000001293200000000129320000000012932000000001293200000000129320000000012932000000001293200000000000000000002586400000002586400000002586400000002586400000002586400001033
0000017180531040000002010000000000000000000000000000000000166400000000016640000000001664000000000166400000000016640000000001664000000000166400000000016640000000001664000000000166400000000000000000000332800000000332800000000332800000000332800000000332800001059
0000017180531050000002010000000000000000000000000000000000074200000000007420000000000742000000000074200000000007420000000000742000000000074200000000007420000000000742000000000074200000000000000000000000000000000000000000000000000000000000000000000000000001071
0000017180540000000002010000000000000000000000000000000004134550000000496146000000049614600000004961460000000496146000000049614600000004961460000000992292000000049613700000000000000000004775470000009550940000009550940000009550940000009550940000004775470000000
0000017180541000000002010000000000000000000000000000000004134550000000496146000000049614600000004961460000000496146000000049614600000004961460000000992292000000049613700000000000000000004775470000009550940000009550940000009550940000009550940000004775470001016
0000017180590000000002010000000000000000000000000000000000000000000000000000000000475687900000000000000000000000000000000000000000000000000000000000000000000000000000000000000000000000000000000000000000000000047568790000000000000000000000000000000000000000000
0000017180591000000002010000000000000000000000000000000000000000000000000000000000475687900000000000000000000000000000000000000000000000000000000000000000000000000000000000000000000000000000000000000000000000047568790000000000000000000000000000000000000000000
0000017180591010000002010000000000000000000000000000000000000000000000000000000000475687900000000000000000000000000000000000000000000000000000000000000000000000000000000000000000000000000000000000000000000000047568790000000000000000000000000000000000000001072
0000017180600000000002010000000377195000000037716800000003771680000000377168000000037716800000003771680000000377168000000037716800000003771680000000377168000000037716800000003771680000007701900000007701900000007701900000007701900000007701900000007701880000000
0000017180610000000002010000000377195000000037716800000003771680000000377168000000037716800000003771680000000377168000000037716800000003771680000000377168000000037716800000003771680000007701900000007701900000007701900000007701900000007701900000007701880000000
0000017180611000000002010000000377195000000037716800000003771680000000377168000000037716800000003771680000000377168000000037716800000003771680000000377168000000037716800000003771680000007701900000007701900000007701900000007701900000007701900000007701880000000
0000017180611010000002010000000226317000000022630100000002263010000000226301000000022630100000002263010000000226301000000022630100000002263010000000226301000000022630100000002263010000004621140000004621140000004621140000004621140000004621140000004621120000001
0000017180611020000002010000000018860000000001885800000000188580000000018858000000001885800000000188580000000018858000000001885800000000188580000000018858000000001885800000000188580000000385100000000385100000000385100000000385100000000385100000000385070000020
0000017180611030000002010000000056579000000005657500000000565750000000056575000000005657500000000565750000000056575000000005657500000000565750000000056575000000005657500000000565750000001155280000001155280000001155280000001155280000001155280000001155310000040
0000017180611040000002010000000075439000000007543400000000754340000000075434000000007543400000000754340000000075434000000007543400000000754340000000075434000000007543400000000754340000001540380000001540380000001540380000001540380000001540380000001540380000031
0000017181000000000002010000007375500000000000000000000000000000000000000000000000000000000000000000000000000000000000000000000000000000000000000000000000000000000000000000000000000000000000000000000000000000000000000000000000000000119554080000000000000000000
0000017181090000000002010000007375500000000000000000000000000000000000000000000000000000000000000000000000000000000000000000000000000000000000000000000000000000000000000000000000000000000000000000000000000000000000000000000000000000119554080000000000000000000
0000017181091000000002010000007375500000000000000000000000000000000000000000000000000000000000000000000000000000000000000000000000000000000000000000000000000000000000000000000000000000000000000000000000000000000000000000000000000000119554080000000000000000000
0000017181091010000002010000007375500000000000000000000000000000000000000000000000000000000000000000000000000000000000000000000000000000000000000000000000000000000000000000000000000000000000000000000000000000000000000000000000000000119554080000000000000001022
0000017200000000000002010000082869086000007325351500000710707530000084140732000008251943000000570081070000093298150000005613731500000781016610000088103470000007019501000001149825390001369272910001541481450001492992270001484343840001487430020001754721260000000
0000017280000000000002010000082869086000007325351500000710707530000084140732000008251943000000570081070000093298150000005613731500000781016610000088103470000007019501000001149825390001369272910001541481450001492992270001484343840001487430020001754721260000000
0000017280100000000002010000080823856000005749170300000634546720000080682917000007808765900000504180650000086030255000005269338100000716252410000083125425000006345144100001149397450001328933270001442011500001366504750001343356700001333844770001600764250000000
0000017280110000000002010000064997073000005285628700000576035370000062645938000007366134900000474075720000083821502000005061654500000699242280000081241674000006243800600001059220900001197978100001292678640001260374070001272467340001285115640001362298850000000
0000017280111000000002010000064997073000005285628700000576035370000062645938000007366134900000474075720000083821502000005061654500000699242280000081241674000006243800600001059220900001197978100001292678640001260374070001272467340001285115640001362298850000000
0000017280111010000002010000038998243000003171377200000345621210000037587562000004419680800000284445430000050292900000003036992700000419545350000048745003000003746280300000635532530000767091260000767091260000767091260000767091260000767091260000767091280000001
0000017280111020000002010000003249853000000264281400000028801770000003132297000000368306800000023703780000004191075000000253082700000034962120000004062085000000312190000000052961060000063924280000063924280000063924280000063924280000063924280000063924230000020
0000017280111030000002010000009749561000000792844300000086405310000009396891000001104920200000071111360000012573226000000759248200000104886350000012186251000000936570100000158883130000157269670000197855610000184010800000189193630000194614330000227692860000040
0000017280111040000002010000012999416000001057125800000115207080000012529188000001473227100000094815150000016764301000001012330900000139848460000016248335000001248760200000211844180000209692890000263807490000245347730000252258170000259485770000303590480000031
0000017280120000000002010000014194022000000355368900000049813120000016670234000000341745100000020176850000000879892000000107369600000007973770000000594615000000005318800000079984840000108008140000127436370000088331810000047671490000027314320000214557420000000
0000017280121000000002010000014194022000000355368900000049813120000016670234000000341745100000020176850000000879892000000107369600000007973770000000594615000000005318800000079984840000108008140000127436370000088331810000047671490000027314320000214557420000000
0000017280121010000002010000008516411000000213221100000029887870000010002136000000205046900000012106080000000527930000000064421600000004784250000000356764000000003191400000047990870000071075180000086617770000055334120000022805860000006520130000155790550000001
0000017280121020000002010000000709700000000017768600000002490650000000833511000000017087100000001008860000000043998000000005368500000000398700000000029733000000000265800000003999260000003832840000003832840000003832840000003832840000003832840000011432790000020
0000017280121030000002010000002129103000000053305300000007471970000002500536000000051261700000003026530000000131985000000016105400000001196060000000089194000000000797700000011997730000017768800000021654440000013833530000005701470000001630030000032002710000040
0000017280121040000002010000002838808000000071073900000009962630000003334051000000068349400000004035380000000175979000000021474100000001594760000000118924000000001063900000015996980000015331320000015331320000015331320000015331320000015331320000015331370000031
0000017280130000000002010000001129535000000108172700000008698230000000935990000000100885900000009928080000000899244000000100314000000009036360000001072353000000096024700000010191710000018269720000017568000000017798870000017667910000018022350000023907980000000
0000017280131000000002010000001129535000000108172700000008698230000000935990000000100885900000009928080000000899244000000100314000000009036360000001072353000000096024700000010191710000018269720000017568000000017798870000017667910000018022350000023907980000000
0000017280131010000002010000000677722000000064903700000005218920000000561593000000060531400000005956840000000539547000000060188400000005421810000000643410000000057614800000006115040000010763480000010763480000010763480000010763480000010763480000014763500000001
0000017280131020000002010000000056476000000005408600000000434920000000046800000000005044400000000496410000000044962000000005015700000000451820000000053618000000004801300000000509580000000896960000000896960000000896960000000896960000000896960000001196940000020
0000017280131030000002010000000169430000000016225900000001304740000000140399000000015132900000001489220000000134886000000015047100000001355460000000160854000000014403700000001528750000002690880000002690880000002690880000002690880000002690880000003990820000040
0000017280131040000002010000000225907000000021634500000001739650000000187198000000020177200000001985610000000179849000000020062800000001807270000000214471000000019204900000002038340000003918400000003216680000003447550000003316590000003671030000003956720000031
0000017280140000000002010000000503226000000000000000000000000000000000430755000000000000000000000000000000000429617000000000000000000000000000000000216783000000000000000000000000000000004677310000004328490000000000000000005549960000003392460000000000000000000
0000017280141000000002010000000503226000000000000000000000000000000000430755000000000000000000000000000000000429617000000000000000000000000000000000216783000000000000000000000000000000004677310000004328490000000000000000005549960000003392460000000000000001018
0000017280300000000002010000000792000000001576181200000039884710000000236000000000443177100000033682540000004046107000000021800000000032546320000001756257000000030000000000000360000000040229560000040229560000059229560000089160710000090518750000064706270000000
0000017280310000000002010000000792000000001576181200000039884710000000236000000000443177100000033682540000004046107000000021800000000032546320000001756257000000030000000000000360000000040229560000040229560000059229560000089160710000090518750000064706270000000
0000017280311000000002010000000792000000001576181200000039884710000000236000000000443177100000033682540000004046107000000021800000000032546320000001756257000000030000000000000360000000040229560000040229560000059229560000089160710000090518750000064706270000000
0000017280311010000002010000000000000000000366150200000012464090000000036000000000122906900000012170520000001258570000000001800000000012405700000000613226000000000000000000000360000000012115320000012115320000012115320000036115320000020627300000012115400004011
0000017280311020000002010000000000000000000920000000000014000000000000000000000000140000000000010000000000001000000000000000000000000010000000000000500000000000000000000000000000000000015833320000015833320000034833320000040764470000025833320000021833400004090
0000017280311030000002010000000000000000000000000000000000000000000000000000000000077064000000000000000000000722475000000000000000000000000000000000000000000000000000000000000000000000000000000000000000000000000000000000000000000000000000000000014196000004090
0000017280311040000002010000000000000000000066031000000001320620000000000000000000013206200000001320620000000132062000000000000000000001320620000000066031000000000000000000000000000000008280920000008280920000008280920000008280920000008280920000008280980004050
0000017280311050000002010000000000000000000080000000000004000000000000200000000000000000000000004000000000000000000000000020000000000000000000000000100000000000030000000000000000000000004000000000004000000000004000000000004000000000004000000000004000000004160
0000017280311060000002010000000792000000000144000000000008100000000000000000000000090000000000006191400000000918000000000000000000000008820000000000477000000000000000000000000000000000000000000000000000000000000000000000000000000000031627210000004280490004050
0000017280311070000002010000000000000000000000000000000000000000000000000000000000000000000000000000000000000015000000000000000000000000000000000000000000000000000000000000000000000000000000000000000000000000000000000000000000000000000150000000000000000004011
0000017281000000000002010000001253230000000000000000000036276100000003221788000000000000000000032217880000003221788000000322178800000032217880000003221788000000644356900000000000000000000000000000059130310000067147880000051716350000062956420000089140620000000
0000017281020000000002010000000500000000000000000000000036276100000003221788000000000000000000032217880000003221788000000322178800000032217880000003221788000000644356900000000000000000000000000000059130310000067147880000051716350000062956420000081608320000000
0000017281021000000002010000000500000000000000000000000036276100000003221788000000000000000000032217880000003221788000000322178800000032217880000003221788000000644356900000000000000000000000000000059130310000067147880000051716350000062956420000081608320000000
0000017281021010000002010000000500000000000000000000000036276100000003221788000000000000000000032217880000003221788000000322178800000032217880000003221788000000644356900000000000000000000000000000059130310000067147880000051716350000062956420000081608320000000
0000017281021010100002010000000500000000000000000000000036276100000003221788000000000000000000032217880000003221788000000322178800000032217880000003221788000000644356900000000000000000000000000000059130310000067147880000051716350000062956420000081608320001017
0000017281090000000002010000000753230000000000000000000000000000000000000000000000000000000000000000000000000000000000000000000000000000000000000000000000000000000000000000000000000000000000000000000000000000000000000000000000000000000000000000007532300000000
0000017281091000000002010000000753230000000000000000000000000000000000000000000000000000000000000000000000000000000000000000000000000000000000000000000000000000000000000000000000000000000000000000000000000000000000000000000000000000000000000000007532300000000
0000017281091070000002010000000753230000000000000000000000000000000000000000000000000000000000000000000000000000000000000000000000000000000000000000000000000000000000000000000000000000000000000000000000000000000000000000000000000000000000000000007532300001103
0000017289900000000002010000000000000000000000000000000000000000000000000027000000000000000000000000000000000000000000000000414600000000000000000000000000000000000000000000000067940000000110080000000110080000000110080000000110080000000110080000000110120000000
0000017289910000000002010000000000000000000000000000000000000000000000000027000000000000000000000000000000000000000000000000414600000000000000000000000000000000000000000000000067940000000110080000000110080000000110080000000110080000000110080000000110120000000
0000017289911000000002010000000000000000000000000000000000000000000000000027000000000000000000000000000000000000000000000000414600000000000000000000000000000000000000000000000067940000000110080000000110080000000110080000000110080000000110080000000110120000000
0000017289911010000002010000000000000000000000000000000000000000000000000027000000000000000000000000000000000000000000000000414600000000000000000000000000000000000000000000000067940000000110080000000110080000000110080000000110080000000110080000000110120001114
0000017400000000000002010000000000000000000000000000000000000000000000000000000000000000000000000000000000000483244000000000000000000000000000000000000000000000000000000000001888020000000000000000000000000000000000000000000000000000000000000000000000000000000
0000017400010000000002010000000000000000000000000000000000000000000000000000000000000000000000000000000000000483244000000000000000000000000000000000000000000000000000000000001888020000000000000000000000000000000000000000000000000000000000000000000000000000000
0000017400011000000002010000000000000000000000000000000000000000000000000000000000000000000000000000000000000483244000000000000000000000000000000000000000000000000000000000001888020000000000000000000000000000000000000000000000000000000000000000000000000000000
0000017400011010000002010000000000000000000000000000000000000000000000000000000000000000000000000000000000000483244000000000000000000000000000000000000000000000000000000000001888020000000000000000000000000000000000000000000000000000000000000000000000000001050
0000017500000000000002010000029846078000002127632700000221042970000023693581000002526498700000205371600000020831765000002210280500000205512760000024453420000002304564200000304434070000463931150000465644800000488895140000415002790000416260250000461004250000000
0000017580000000000002010000029846078000002127632700000221042970000023693581000002526498700000205371600000020831765000002210280500000205512760000024453420000002304564200000304434070000463931150000465644800000488895140000415002790000416260250000461004250000000
0000017580100000000002010000029758436000002127632700000221042970000023693581000002526498700000205371600000020831765000002210280500000205512760000024453420000002304564200000303803940000463931150000465644800000488895140000415002790000416260250000461004250000000
0000017580110000000002010000029758436000002127632700000221042970000023693581000002526498700000205371600000020831765000002210280500000205512760000024453420000002304564200000303803940000463931150000465644800000488895140000415002790000416260250000461004250000000
0000017580111000000002010000029758436000002127632700000221042970000023693581000002526498700000205371600000020831765000002210280500000205512760000024453420000002304564200000303803940000463931150000465644800000488895140000415002790000416260250000461004250000031
0000017589900000000002010000000087642000000000000000000000000000000000000000000000000000000000000000000000000000000000000000000000000000000000000000000000000000000000000000000630130000000000000000000000000000000000000000000000000000000000000000000000000000000
0000017589910000000002010000000087642000000000000000000000000000000000000000000000000000000000000000000000000000000000000000000000000000000000000000000000000000000000000000000630130000000000000000000000000000000000000000000000000000000000000000000000000000000
0000017589911000000002010000000087642000000000000000000000000000000000000000000000000000000000000000000000000000000000000000000000000000000000000000000000000000000000000000000630130000000000000000000000000000000000000000000000000000000000000000000000000000000
0000017589911010000002010000000087642000000000000000000000000000000000000000000000000000000000000000000000000000000000000000000000000000000000000000000000000000000000000000000630130000000000000000000000000000000000000000000000000000000000000000000000000000001
0000019000000000000002010000001165417000000066970200000008465010000001945911000000481882200000019103610000001794609000000076567700000007337800000002271880000000073997800000010473350000010221360000010335020000010819370000011333890000011590840000012513410000000
0000019100000000000002010000000011205000000000000000000000000000000000018896000000000000000000000000000000000006596000000000000000000000000000000000000000000000000000000000000000000000000000000000000000000000000000000000000000000000000000000000000000000000000
0000019100100000000002010000000011205000000000000000000000000000000000018896000000000000000000000000000000000000436000000000000000000000000000000000000000000000000000000000000000000000000000000000000000000000000000000000000000000000000000000000000000000000000
0000019100110000000002010000000011205000000000000000000000000000000000018896000000000000000000000000000000000000436000000000000000000000000000000000000000000000000000000000000000000000000000000000000000000000000000000000000000000000000000000000000000000000000
0000019100114000000002010000000011205000000000000000000000000000000000018896000000000000000000000000000000000000436000000000000000000000000000000000000000000000000000000000000000000000000000000000000000000000000000000000000000000000000000000000000000000000001
0000019100900000000002010000000000000000000000000000000000000000000000000000000000000000000000000000000000000006160000000000000000000000000000000000000000000000000000000000000000000000000000000000000000000000000000000000000000000000000000000000000000000000000
0000019100910000000002010000000000000000000000000000000000000000000000000000000000000000000000000000000000000006160000000000000000000000000000000000000000000000000000000000000000000000000000000000000000000000000000000000000000000000000000000000000000000000000
0000019100911000000002010000000000000000000000000000000000000000000000000000000000000000000000000000000000000006160000000000000000000000000000000000000000000000000000000000000000000000000000000000000000000000000000000000000000000000000000000000000000000000001
0000019200000000000002010000000435027000000028596100000004455620000001537343000000438938000000014175560000001363825000000032788400000003183620000001851636000000030825800000003578840000000159980000000273640000000757990000001272510000001529460000002451940000000
0000019210000000000002010000000000000000000002398600000000000000000000020038000000002003800000000000000000000026355000000004297500000000186740000000000000000000001107000000000000000000000000000000000000000000000000000000000000000000000000000000000000000000000
0000019219900000000002010000000000000000000002398600000000000000000000020038000000002003800000000000000000000026355000000004297500000000186740000000000000000000001107000000000000000000000000000000000000000000000000000000000000000000000000000000000000000000000
0000019219910000000002010000000000000000000002398600000000000000000000020038000000002003800000000000000000000026355000000004297500000000186740000000000000000000001107000000000000000000000000000000000000000000000000000000000000000000000000000000000000000000000
0000019219911000000002010000000000000000000002398600000000000000000000020038000000002003800000000000000000000026355000000004297500000000186740000000000000000000001107000000000000000000000000000000000000000000000000000000000000000000000000000000000000000000001
0000019220000000000002010000000435027000000026197500000004455620000001517305000000436934200000014175560000001337470000000028490900000002996880000001851636000000029718800000003578840000000159980000000273640000000757990000001272510000001529460000002451940000000
0000019220600000000002010000000150460000000011292400000001826240000000000293000000000000000000000000000000000000000000000000000000000000000000000000000000000000000000000000000000000000000000000000000000000000000000000000000000000000000000000000000000000000000
0000019220610000000002010000000150460000000011292400000001826240000000000293000000000000000000000000000000000000000000000000000000000000000000000000000000000000000000000000000000000000000000000000000000000000000000000000000000000000000000000000000000000000000
0000019220611000000002010000000150460000000011292400000001826240000000000293000000000000000000000000000000000000000000000000000000000000000000000000000000000000000000000000000000000000000000000000000000000000000000000000000000000000000000000000000000000000001
0000019229900000000002010000000284567000000014905100000002629380000001517012000000436934200000014175560000001337470000000028490900000002996880000001851636000000029718800000003578840000000159980000000273640000000757990000001272510000001529460000002451940000000
0000019229910000000002010000000284567000000014905100000002629380000001517012000000436934200000014175560000001337470000000028490900000002996880000001851636000000029718800000003578840000000159980000000273640000000757990000001272510000001529460000002451940000000
0000019229911000000002010000000284567000000014905100000002629380000001517012000000436934200000014175560000001337470000000028490900000002996880000001780833000000029318800000002892090000000000000000000000000000000000000000000000000000000000000000000000000000000
0000019229911020000002010000000000000000000000000000000000440000000001243000000000058916000000009116000000000044000000000000000000000000000000000001484000000000000000000000000000000000000000000000000000000000000000000000000000000000000000000000000000000000001
0000019229911040000002010000000017152000000000000000000000000000000000000000000000346765600000002171900000001004325000000000000000000000000000000000000000000000000000000000000000000000000000000000000000000000000000000000000000000000000000000000000000000000001
0000019229911060000002010000000267415000000014905100000002189380000000274012000000031252600000002887660000000289145000000028490900000002996880000000296833000000029318800000002892090000000000000000000000000000000000000000000000000000000000000000000000000000001
0000019229913000000002010000000000000000000000000000000000000000000000000000000000000000000000000000000000000000000000000000000000000000000000000000018150000000000320400000000225900000000128040000000217820000000468870000000527760000000761670000001426400000000
0000019229913020000002010000000000000000000000000000000000000000000000000000000000000000000000000000000000000000000000000000000000000000000000000000018150000000000320400000000225900000000128040000000217820000000468870000000527760000000761670000001426400000001
0000019229914000000002010000000000000000000000000000000000000000000000000000000000000000000000000000000000000000000000000000000000000000000000000000052653000000000079600000000460850000000031940000000055820000000289120000000744750000000767790000001025540000000
0000019229914020000002010000000000000000000000000000000000000000000000000000000000000000000000000000000000000000000000000000000000000000000000000000052653000000000079600000000460850000000031940000000055820000000289120000000744750000000767790000001025540000001
0000019900000000000002010000000719185000000038374100000004009390000000389672000000042944200000004928050000000424188000000043779300000004154180000000420244000000043172000000006894510000010061380000010061380000010061380000010061380000010061380000010061470000000
0000019909900000000002010000000719185000000038374100000004009390000000389672000000042944200000004928050000000424188000000043779300000004154180000000420244000000043172000000006894510000010061380000010061380000010061380000010061380000010061380000010061470000000
0000019909910000000002010000000570000000000002189000000000433520000000021676000000002140800000000000000000000000000000000000000000000000000000000000000000000000000000000000000000000000000000000000000000000000000000000000000000000000000000000000000000000000000
0000019909913000000002010000000570000000000001670700000000334140000000016707000000001670700000000000000000000000000000000000000000000000000000000000000000000000000000000000000000000000000000000000000000000000000000000000000000000000000000000000000000000000000
0000019909913050000002010000000570000000000001670700000000334140000000016707000000001670700000000000000000000000000000000000000000000000000000000000000000000000000000000000000000000000000000000000000000000000000000000000000000000000000000000000000000000000001
0000019909914000000002010000000000000000000000518300000000099380000000004969000000000470100000000000000000000000000000000000000000000000000000000000000000000000000000000000000000000000000000000000000000000000000000000000000000000000000000000000000000000000000
0000019909914050000002010000000000000000000000518300000000099380000000004969000000000470100000000000000000000000000000000000000000000000000000000000000000000000000000000000000000000000000000000000000000000000000000000000000000000000000000000000000000000000001
0000019909920000000002010000000149185000000036185100000003575870000000367996000000040803400000004928050000000424188000000043779300000004154180000000420244000000043172000000006894510000010061380000010061380000010061380000010061380000010061380000010061470000000
