87612826000190010120183112201801012019PREFEITURA MUNICIPAL INDEPENDENCIA                                              
2014300000000000000DESPESAS CORRENTES                                                                                            S01
2014310000000000000PESSOAL E ENCARGOS SOCIAIS                                                                                    S02
2014313000000000000TRANSFERENCIAS A ESTADOS E AO DISTRITO FEDERAL                                                                S03
2014313013000000000OBRIGACOES PATRONAIS                                                                                          S05
2014313013400000000ENCARGOS DE PESSOAL REQUISITADOS DE OUTROS ENTES                                                              S06
2014313013400100000CONTRIBUICAO PATRONAL PARA O RPPS DO ESTADO                                                                   A07
2014314000000000000TRANSFERENCIAS A MUNICIPIOS                                                                                   S03
2014314013000000000OBRIGACOES PATRONAIS                                                                                          S05
2014314013400000000ENCARGOS DE PESSOAL REQUISITADO DE OUTROS ENTES                                                               S06
2014314013400100000CONTRIBUICAO PATRONAL PARA RPPS DE OUTRO MUNICIPIO                                                            A07
2014315000000000000TRANSFERENCIAS A INSTITUICOES PRIVADAS SEM FINS LUCRATIVOS                                                    S03
2014315011000000000VENCIMENTOS E VANTAGENS FIXAS - PESSOAL CIVIL                                                                 S05
2014315011990000000OUTRAS DESPESAS FIXAS - PESSOAL CIVIL                                                                         S06
2014315011991000000TRANSFERENCIAS DE RECURSOS PARA COBERTURA DE DESPESAS COM PESSOAL CONTRATADO ATRAVES DE INSTITUICOES          A07
2014315013000000000OBRIGACOES PATRONAIS                                                                                          S05
2014315013010000000FGTS                                                                                                          A06
2014315013020000000INSS                                                                                                          A06
2014317100000000000TRANSFERENCIAS A CONSORCIOS PUBLICOS                                                                          S04
2014317170000000000RATEIO PELA PARTICIPACAO EM CONSORCIO PUBLICO                                                                 S05
2014317170010000000COFRON                                                                                                        A06
2014317170020000000CISMISSOES                                                                                                    A06
2014317170030000000CIGRES                                                                                                        A06
2014319000000000000APLICACOES DIRETAS                                                                                            S03
2014319001000000000APOSENTADORIAS DO RPPS, RESERVA REMUNERADA E REFORMAS DOS MILITARES                                           S05
2014319001010000000PROVENTOS - PESSOAL CIVIL                                                                                     A06
201431900106000000013 SALARIO - APOSENTADOS - PESSOAL CIVIL                                                                      A06
2014319001990000000OUTRAS APOSENTADORIAS                                                                                         A06
2014319003000000000PENSOES, EXCLUSIVE DO RGPS                                                                                    S05
2014319003010000000PENSOES - PESSOAL CIVIL                                                                                       A06
201431900303000000013 SALARIO - PESSOAL CIVIL - PENSIONISTAS                                                                     A06
2014319003990000000OUTRAS PENSOES                                                                                                A06
2014319004000000000CONTRATACAO POR TEMPO DETERMINADO                                                                             S05
2014319004010000000PROFESSORES SUBSTITUTOS/VISITANTES                                                                            S06
2014319004010200000CONTRATACAO POR TEMPO DETERMINADO DE PROFESSORES                                                              A07
2014319004150000000OBRIGACOES PATRONAIS                                                                                          S06
2014319004150100000INSS DE PESSOAL CONTRATADO TEMPORARIAMENTE                                                                    A07
2014319004150200000FGTS DE PESSOAL CONTRATADO TEMPORARIAMENTE                                                                    A07
2014319004990000000OUTRAS CONTRATACOES POR TEMPO DETERMINADO                                                                     S06
2014319004990100000CONTRATACAO POR TEMPO DETERMINADO DE PROFISSIONAIS DA SAUDE                                                   A07
2014319005000000000OUTROS BENEFICIOS PREVIDENCIARIOS DO RPPS                                                                     S05
2014319005000100000OUTROS BENEFICIOS PREVIDENCIARIOS - PESSOAL ATIVO                                                             S07
2014319005000101000AUXILIO-DOENCA - PESSOAL ATIVO                                                                                A08
2014319005000102000AUXILIO-RECLUSAO - PESSOAL ATIVO                                                                              A08
2014319005000103000SALARIO MATERNIDADE - PESSOAL ATIVO                                                                           A08
2014319005000104000AUXILIO-ACIDENTE                                                                                              A08
2014319005000105000SALARIO-FAMILIA DE SEGURADOS                                                                                  A08
2014319005000106000ABONO ANUAL – 13o SALARIO                                                                                     A08
2014319005000199000OUTROS BENEFICIOS PREVIDENCIARIOS                                                                             A08
2014319005000200000OUTROS BENEFICIOS PREVIDENCIARIOS - PESSOAL INATIVO                                                           S07
2014319005000201000AUXILIO-DOENCA - PESSOAL INATIVO                                                                              A08
2014319005000202000AUXILIO-RECLUSAO - PESSOAL INATIVO                                                                            A08
2014319005000203000SALARIO MATERNIDADE - PESSOAL INATIVO                                                                         A08
2014319005000204000AUXILIO-ACIDENTE                                                                                              A08
2014319005000205000SALARIO-FAMILIA DE SEGURADOS                                                                                  A08
2014319005000206000ABONO ANUAL – 13o SALARIO                                                                                     A08
2014319005000299000OUTROS BENEFICIOS PREVIDENCIARIOS                                                                             A08
2014319005000300000OUTROS BENEFICIOS PREVIDENCIARIOS - PENSIONISTAS                                                              S07
2014319005000301000AUXILIO-DOENCA - PENSIONISTAS                                                                                 A08
2014319005000302000AUXILIO-RECLUSAO - PENSIONISTAS                                                                               A08
2014319005000303000SALARIO MATERNIDADE - PENSIONISTAS                                                                            A08
2014319005000304000AUXILIO-ACIDENTE                                                                                              A08
2014319005000306000ABONO ANUAL – 13o SALARIO                                                                                     A08
2014319005000399000OUTROS BENEFICIOS PREVIDENCIARIOS                                                                             A08
2014319007000000000CONTRIBUICAO A ENTIDADES FECHADAS DE PREVIDENCIA                                                              S05
2014319007010000000COMPLEMENTACAO DE PREVIDENCIA                                                                                 A06
2014319007030000000CONTRIBUICAO  PATRONAL PREVIDENCIA PRIVADA                                                                    A06
2014319007990000000OUTRAS CONTRIBUICOES                                                                                          A06
2014319008000000000OUTROS BENEFICIOS ASSISTENCIAIS                                                                               S05
2014319008010000000AUXILIO FUNERAL ATIVO CIVIL                                                                                   A06
2014319008030000000AUXILIO FUNERAL INATIVO CIVIL                                                                                 A06
2014319008050000000AUXILIO NATALIDADE ATIVO CIVIL                                                                                A06
2014319008070000000AUXILIO NATALIDADE INATIVO CIVIL                                                                              A06
2014319008090000000AUXILIO RECLUSAO ATIVO CIVIL                                                                                  A06
2014319008110000000AUXILIO RECLUSAO INATIVO CIVIL                                                                                A06
2014319008130000000AUXILIO FUNERAL PENSIONISTA CIVIL                                                                             A06
2014319008150000000AUXILIO RECLUSAO PENSIONISTA CIVIL                                                                            A06
2014319008180000000AUXILIO NATALIDADE PENSIONISTA CIVIL                                                                          A06
2014319008990000000OUTROS BENEFICIOS ASSISTENCIAIS                                                                               S06
2014319008990100000AUXILIO CRECHE                                                                                                A07
2014319008990200000ASSISTENCIA PRE-ESCOLAR                                                                                       A07
2014319008990300000AUXILIO INVALIDEZ                                                                                             A07
2014319008990400000CONTRIBUICAO DA ENTIDADE PARA O ATENDIMENTO A SAUDE DO SERVIDOR                                               A07
2014319009000000000SALARIO-FAMILIA                                                                                               S05
2014319009010000000SALARIO FAMILIA - ATIVO PESSOAL CIVIL                                                                         A06
2014319009020000000SALARIO FAMILIA-INATIVO PESSOAL CIVIL                                                                         A06
2014319009050000000SALARIO FAMILIA-PENSIONISTA PESSOAL CIVIL                                                                     A06
2014319009990000000OUTROS SALARIOS-FAMILIA                                                                                       A06
2014319011000000000VENCIMENTOS E VANTAGENS FIXAS - PESSOAL CIVIL                                                                 S05
2014319011010000000VENCIMENTOS E SALARIOS                                                                                        S06
2014319011010100000VENCIMENTOS E VANTAGENS FIXAS - SERVIDORES                                                                    A07
2014319011040000000ADICIONAL NOTURNO                                                                                             A06
2014319011050000000INCORPORACOES                                                                                                 A06
2014319011070000000ABONO DE PERMANENCIA                                                                                          A06
2014319011080000000ADIANTAMENTO PECUNIARIO                                                                                       A06
2014319011090000000ADICIONAL DE PERICULOSIDADE                                                                                   A06
2014319011100000000ADICIONAL DE INSALUBRIDADE                                                                                    A06
2014319011110000000ADICIONAL DE ATIVIDADES PENOSAS                                                                               A06
2014319011300000000ABONO PROVISORIO - PESSOAL CIVIL                                                                              A06
2014319011310000000GRATIFICACAO POR EXERCICIO DE CARGOS                                                                          A06
2014319011330000000GRATIFICACAO POR EXERCICIO DE FUNCOES                                                                         A06
2014319011370000000GRATIFICACAO DE TEMPO DE SERVICO                                                                              A06
2014319011400000000GRATIFICACOES ESPECIAIS                                                                                       A06
2014319011420000000FERIAS INDENIZADAS                                                                                            A06
201431901143000000013o SALARIO                                                                                                   A06
2014319011440000000FERIAS - ABONO PECUNIARIO                                                                                     A06
2014319011450000000FERIAS - ABONO CONSTITUCIONAL                                                                                 A06
2014319011460000000FERIAS - PAGAMENTO ANTECIPADO                                                                                 A06
2014319011470000000LICENCA-PREMIO                                                                                                A06
2014319011490000000LICENCA CAPACITACAO                                                                                           A06
2014319011730000000REMUNERACAO PELA  PARTICIPACAO EM  ORGAOS DE  DELIBERACAO COLETIVA                                            S06
2014319011730100000REMUNERACAO DOS CONSELHEIROS TUTELARES                                                                        A07
2014319011730200000REMUNERACAO DOS INTEGRANTES DAS JARIS                                                                         A07
2014319011739900000REMUNERACOES PELA PARTICIPACAO EM OUTROS ORGAOS DE DELIBERACAO COLETIVA                                       S07
2014319011739901000JETON CONSELHO RPPS                                                                                           A08
2014319011740000000SUBSIDIOS                                                                                                     A06
2014319011750000000REPRESENTACAO MENSAL                                                                                          A06
2014319011990000000OUTRAS DESPESAS FIXAS - PESSOAL CIVIL                                                                         A06
2014319013000000000OBRIGACOES PATRONAIS                                                                                          S05
2014319013010000000FGTS                                                                                                          S06
2014319013010100000FGTS - SERVIDORES                                                                                             A07
2014319013020000000CONTRIBUICOES PREVIDENCIARIAS - INSS                                                                          S06
2014319013020100000INSS - SERVIDORES                                                                                             A07
2014319013020300000INSS - AGENTES POLITICOS                                                                                      A07
2014319013020400000INSS SOBRE SESSAO EXTRAORDINARIA - AGENTES POLITICOS                                                          A07
2014319013020500000INSS SOBRE CONVOCACAO EXTRAORDINARIA - AGENTES POLITICOS                                                      A07
2014319013150000000MULTAS                                                                                                        A06
2014319013400000000ENCARGOS DE PESSOAL REQUISITADO DE OUTROS ENTES                                                               A06
2014319013990000000OUTRAS OBRIGACOES PATRONAIS                                                                                   S06
2014319013990100000ENCARGO PATRONAL SOBRE SERVICOS DE MEI                                                                        A07
2014319016000000000OUTRAS DESPESAS VARIAVEIS - PESSOAL CIVIL                                                                     S05
2014319016040000000CONVOCACAO EXTRAORDINARIA                                                                                     A06
2014319016320000000SUBSTITUICOES                                                                                                 A06
2014319016440000000SERVICOS EXTRAORDINARIOS                                                                                      S06
2014319016440100000HORAS EXTRAORDINARIAS                                                                                         A07
2014319016440200000HORA-MAQUINA                                                                                                  A07
2014319016440300000PLANTAO MEDICO/ENFERMAGEM                                                                                     A07
2014319016440400000PLANTAO MOTORISTA                                                                                             A07
2014319016990000000OUTRAS DESPESAS VARIAVEIS - PESSOAL CIVIL                                                                     S06
2014319016990100000AJUDA DE CUSTO                                                                                                A07
2014319016990200000REMOCOES                                                                                                      A07
2014319016990300000SESSOES EXTRAORDINARIAS                                                                                       A07
2014319034000000000OUTRAS DESPESAS DE PESSOAL DECORRENTES DE  CONTRATOS DE TERCEIRIZACAO                                         S05
2014319034010000000SUBSTITUICAO  DE MAO-DE-OBRA  (ART.18 PAR.1 LC 101)                                                           A06
2014319046000000000AUXILIO-ALIMENTACAO                                                                                           S05
2014319046000200000AUXILIO-ALIMENTACAO - SERVIDORES                                                                              A07
2014319047000000000OBRIGACOES TRIBUTARIAS E CONTRIBUTIVAS                                                                        S05
2014319047000200000CONTRIBUICAO SUPLEMENTAR AO FGTS                                                                              A07
2014319047000300000PAGAMENTO DE PARCELAMENTO DE DIVIDAS COM ENCARGOS SOCIAIS                                                     A07
2014319067000000000DEPOSITOS COMPULSORIOS                                                                                        S05
2014319067020000000DEPOSITOS JUDICIAIS                                                                                           A06
2014319067030000000DEPOSITOS PARA RECURSOS                                                                                       A06
2014319067990000000OUTROS DEPOSITOS COMPULSORIOS                                                                                 A06
2014319091000000000SENTENCAS JUDICIAIS                                                                                           S05
2014319091010000000PRECATORIOS - ATIVO CIVIL                                                                                     A06
2014319091060000000SENTENCAS JUDICIAIS DE PEQUENO VALOR                                                                          A06
2014319091230000000PRECATORIOS - INATIVO CIVIL                                                                                   A06
2014319091360000000PRECATORIOS - PENSIONISTA CIVIL                                                                               A06
2014319091990000000OUTRAS SENTENCAS JUDICIAIS                                                                                    A06
2014319092000000000DESPESAS DE EXERCICIOS ANTERIORES                                                                             S05
2014319092010000000ATIVO CIVIL                                                                                                   A06
2014319092020000000INATIVO CIVIL                                                                                                 A06
2014319092040000000OUTRAS DESPESAS VARIAVEIS - CIVIL                                                                             A06
2014319092050000000OBRIGACOES PATRONAIS - ATIVO CIVIL                                                                            A06
2014319092060000000OBRIGACOES PATRONAIS - INATIVO CIVIL                                                                          A06
2014319092120000000PENSIONISTA CIVIL                                                                                             A06
2014319092230000000GRATIFICACAO POR TEMPO DE SERVICO-ANUENIO ATIVO CIVIL                                                         A06
2014319092240000000GRATIFICACAO POR  TEMPO DE SERVICO-ANUENIO INATIVO CIVIL                                                      A06
2014319092250000000GRATIFICACAO POR TEMPO DE SERVICO-ANUENIO PENSIONISTA  CIVIL                                                  A06
2014319092260000000RESSARCIMENTO DE DESPESAS DE PESSOAL REQUISITADO                                                              A06
2014319092910000000PRECATORIOS                                                                                                   A06
2014319092990000000OUTRAS DESPESAS DE EXERCICIOS ANTERIORES                                                                      A06
2014319094000000000INDENIZACOES E RESTITUICOES TRABALHISTAS                                                                      S05
2014319094010000000INDENIZACOES TRABALHISTAS - ATIVO CIVIL                                                                       S06
2014319094010100000INDENIZACAO PARA DEMISSAO DE SERVIDORES/ EMPREGADOS                                                           A07
2014319094010200000DESPESAS RELATIVAS A PROGRAMAS DE  DESLIGAMENTO VOLUNTARIO                                                    A07
2014319094010300000FERIAS,  AVISO PREVIO E/OU 13o SALARIO  INDENIZADOS                                                           A07
2014319094030000000INDENIZACOES TRABALHISTAS - INATIVO CIVIL                                                                     A06
2014319094130000000INDENIZACOES TRABALHISTAS - PENSIONISTA CIVIL                                                                 A06
2014319094990000000DIVERSAS INDENIZACOES TRABALHISTAS                                                                            A06
2014319094993000000ENCARGOS SOBRE INDENIZACOES TRABALHISTAS                                                                      A07
2014319096000000000RESSARCIMENTO DE DESPESAS DE PESSOAL REQUISITADO                                                              S05
2014319096010000000PESSOAL REQUISITADO DE OUTROS ORGAOS                                                                          A06
2014319100000000000APLICACAO DIRETA DECORRENTE DE OPERACAO ENTRE ORGAOS, FUNDOS E ENTIDADES INTEGRANTES DOS ORCAMENTOS           S04
2014319113000000000OBRIGACOES PATRONAIS                                                                                          S05
2014319113030000000CONTRIBUICAO PATRONAL PARA O RPPS                                                                             S06
2014319113030100000CONTRIBUICOES PATRONAIS PARA O RPPS - ATIVO CIVIL                                                             A07
2014319113030200000CONTRIBUICOES PATRONAIS PARA O RPPS - INATIVO CIVIL                                                           A07
2014319113030300000CONTRIBUICOES PATRONAIS PARA O RPPS - PENSIONISTA                                                             A07
2014319113030400000CONTRIBUICOES PATRONAIS PARA O RPPS - VEREADORES                                                              A07
2014319113080000000PLANO DE SEGURIDADE  SOCIAL DO SERVIDOR - PESSOAL  ATIVO                                                      S06
2014319113080100000CONTRIBUICAO PATRONAL PARA O ATENDIMENTO A SAUDE DO SERVIDOR ATIVO                                            A07
2014319113080200000CONTRIBUICAO PATRONAL PARA A ASSISTENCIA SOCIAL DO SERVIDOR ATIVO                                             A07
2014319113100000000PLANO DE SEGURIDADE  SOCIAL DO SERVIDOR - PESSOAL  INATIVO                                                    S06
2014319113100100000CONTRIBUICAO PATRONAL PARA O ATENDIMENTO A SAUDE DO SERVIDOR INATIVO                                          A07
2014319113100200000CONTRIBUICAO PATRONAL PARA A ASSISTENCIA SOCIAL DO SERVIDOR INATIVO                                           A07
2014319113120000000PLANO DE SEGURIDADE  SOCIAL DO PENSIONISTA                                                                    S06
2014319113120100000CONTRIBUICAO PATRONAL PARA O ATENDIMENTO A SAUDE DO PENSIONISTA                                               A07
2014319113120200000CONTRIBUICAO PATRONAL PARA A ASSISTENCIA SOCIAL DO PENSIONISTA                                                A07
2014319113150000000MULTAS                                                                                                        S06
2014319113150100000MULTAS SOBRE A CONTRIBUICAO PATRONAL PARA O RPPS                                                              A07
2014319113150200000MULTAS SOBRE A CONTRIBUICAO PATRONAL PARA O PLANO DE SEGURIDADE  SOCIAL DO SERVIDOR                           A07
2014319113170000000JUROS                                                                                                         S06
2014319113170100000JUROS SOBRE A CONTRIBUICAO PATRONAL PARA O RPPS                                                               A07
2014319113170200000JUROS SOBRE A CONTRIBUICAO PATRONAL PARA O PLANO DE SEGURIDADE  SOCIAL DO SERVIDOR                            A07
2014319113400000000ENCARGOS DE PESSOAL REQUISITADO DE OUTROS ENTES                                                               A06
2014319113990000000OUTRAS OBRIGACOES PATRONAIS                                                                                   S06
2014319113990100000AMORTIZACAO DO PASSIVO ATUARIAL COM O RPPS - ALIQUOTA SUPLEMENTAR                                             A07
2014319192000000000DESPESAS DE EXERCICIOS ANTERIORES                                                                             S05
2014319192050000000OBRIGACOES PATRONAIS - ATIVO CIVIL                                                                            A06
2014319192060000000OBRIGACOES PATRONAIS - INATIVO CIVIL                                                                          A06
2014319192130000000MULTAS                                                                                                        A06
2014319192170000000JUROS                                                                                                         A06
2014319192260000000RESSARCIMENTO DE DESPESAS DE PESSOAL REQUISITADO                                                              A06
2014319192990000000OUTRAS DESPESAS DE EXERCICIOS ANTERIORES                                                                      A06
2014319196000000000RESSARCIMENTO DE DESPESAS DE PESSOAL REQUISITADO - OPERACOES INTRA-ORCAMENTARIAS                              S05
2014319196010000000PESSOAL REQUISITADO DE OUTROS ORGAOS                                                                          A06
2014320000000000000JUROS E ENCARGOS DA DIVIDA                                                                                    S02
2014329000000000000APLICACOES DIRETAS                                                                                            S03
2014329021000000000JUROS SOBRE A DIVIDA POR CONTRATO                                                                             S05
2014329021010000000JUROS DA DIVIDA CONTRATADA COM INSTITUICOES FINANCEIRAS                                                       S06
2014329021010100000JUROS DO CAMINHO DA ESCOLA                                                                                    A07
2014329021020000000JUROS DA DIVIDA CONTRATADA COM GOVERNOS                                                                       S06
2014329021020100000JUROS DA DIVIDA CONTRATADA COM A UNIAO                                                                        A07
2014329021020200000JUROS DA DIVIDA CONTRATADA COM O ESTADO                                                                       A07
2014329021030000000JUROS DA DIVIDA CONTRATADA NO EXTERIOR                                                                        A06
2014329021990000000OUTROS JUROS DA DIVIDA CONTRATADA                                                                             A06
2014329022000000000OUTROS ENCARGOS SOBRE A DIVIDA POR CONTRATO                                                                   S05
2014329022010000000ENCARGOS DA DIVIDA CONTRATADA COM INSTITUICOES FINANCEIRAS                                                    A06
2014329022020000000ENCARGOS DA DIVIDA CONTRATADA COM GOVERNOS                                                                    S06
2014329022020100000ENCARGOS DA DIVIDA CONTRATADA COM A UNIAO                                                                     A07
2014329022020200000ENCARGOS DA DIVIDA CONTRATADA COM O ESTADO                                                                    A07
2014329022990000000DIVERSOS ENCARGOS DA DIVIDA CONTRATADA                                                                        A06
2014329023000000000JUROS, DESAGIOS E DESCONTOS DA DIVIDA MOBILIARIA                                                              S05
2014329023010000000JUROS                                                                                                         A06
2014329023020000000DESAGIOS                                                                                                      A06
2014329023030000000DESCONTOS                                                                                                     A06
2014329024000000000OUTROS ENCARGOS SOBRE A DIVIDA MOBILIARIA                                                                     S05
2014329024010000000ENCARGOS                                                                                                      A06
2014329025000000000ENCARGOS SOBRE OPERACOES DE CREDITO POR ANTECIPACAO DA RECEITA                                                S05
2014329025010000000ENCARGOS SOBRE ADIANTAMENTOS BANCARIOS                                                                        A06
2014329091000000000SENTENCAS JUDICIAIS                                                                                           A05
2014329092000000000DESPESAS DE EXERCICIOS ANTERIORES                                                                             S05
2014329092010000000JUROS DA DIVIDA INTERNA                                                                                       A06
2014329092020000000ENCARGOS DA DIVIDA INTERNA                                                                                    A06
2014329092040000000ENCARGOS DA DIVIDA EXTERNA                                                                                    A06
2014329093000000000INDENIZACOES E RESTITUICOES                                                                                   S05
2014329093990000000OUTRAS INDENIZACOES E RESTITUICOES                                                                            A06
2014330000000000000OUTRAS DESPESAS CORRENTES                                                                                     S02
2014332000000000000TRANSFERENCIAS A UNIAO                                                                                        S03
2014332001000000000APOSENTADORIAS, RESERVA REMUNERADA E REFORMAS                                                                 S05
2014332001010000000COMPENSACAO PREVID.APOSENTADORIAS ENTRE RPPS E RGPS                                                           S06
2014332001010100000COMPENSACAO PREVIDENCIARIA - APOSENTADORIAS ENTRE PM E RGPS                                                   A07
2014332001010200000COMPENSACAO PREVIDENCIARIA - APOSENTADORIAS ENTRE RPPS E RGPS                                                 A07
2014332003000000000PENSOES                                                                                                       S05
2014332003010000000COMPENSACAO PREVID.DE PENSOES ENTRE RPPS E RGPS                                                               S06
2014332003010100000COMPENSACAO PREVIDENCIARIA - PENSOES ENTRE PM E RGPS                                                          A07
2014332003010200000COMPENSACAO PREVIDENCIARIA - PENSOES ENTRE RPPS E RGPS                                                        A07
2014332039000000000OUTROS SERVICOS DE TERCEIROS - PESSOA JURIDICA                                                                S05
2014332039000100000PAGAMENTO DE LAUDEMIO                                                                                         A07
2014332041000000000CONTRIBUICOES                                                                                                 S05
2014332041990000000OUTRAS CONTRIBUICOES                                                                                          S06
2014332041990100000TRANSFERENCIAS FUNSET-FUNDO NAC.SEGURANCA EDUC.TRANSITO(LF 9503/97)                                           A07
2014332041990200000TRANSFERENCIA VALORES A JUSTICA ELEITORAL                                                                     A07
2014332093000000000INDENIZACOES E RESTITUICOES                                                                                   S05
2014332093000100000RESTITUICAO DE TRANSFERENCIAS E CONVENIOS RECEBIDOS DA UNIAO                                                  A07
2014332200000000000EXECUCAO ORCAMENTARIA DELEGADA A UNIAO                                                                        S04
2014332230000000000MATERIAL DE CONSUMO                                                                                           A05
2014332239000000000OUTROS SERVICOS DE TERCEIROS - PESSOA JURIDICA                                                                A05
2014333000000000000TRANSFERENCIAS A ESTADOS E AO DISTRITO FEDERAL                                                                S03
2014333041000000000CONTRIBUICOES                                                                                                 S05
2014333041390000000RIO GRANDE DO SUL                                                                                             S06
2014333041390100000COMPENSACAO FINANCEIRA (S9o ART.201 DA CF)                                                                    A07
2014333041390200000PROGRAMA TROCA-TROCA                                                                                          A07
2014333041390300000TRANSFERENCIAS PARA GRUPAMENTOS DE INCENDIO                                                                   A07
2014333043000000000SUBVENCOES SOCIAIS                                                                                            S05
2014333043390000000RIO GRANDE DO SUL                                                                                             A06
2014333047000000000OBRIGACOES TRIBUTARIAS E CONTRIBUTIVAS                                                                        S05
2014333047990000000OUTRAS OBRIGACOES TRIBUTARIAS E CONTRIBUTIVAS                                                                 A06
2014333093000000000INDENIZACOES E RESTITUICOES                                                                                   S05
2014333093390000000RIO GRANDE DO SUL                                                                                             S06
2014333093390100000RESTITUICAO DE TRANSFERENCIAS E CONVENIOS RECEBIDOS DO ESTADO                                                 A07
2014333093390200000RESTITUICAO DE IPVA                                                                                           A07
2014333100000000000TRANSFERENCIAS A ESTADOS E AO DISTRITO FEDERAL - FUNDO A FUNDO                                                S04
2014333141000000000CONTRIBUICOES                                                                                                 A05
2014333200000000000EXECUCAO ORCAMENTARIA DELEGADA A ESTADOS E AO DISTRITO FEDERAL                                                S04
2014333230000000000MATERIAL DE CONSUMO                                                                                           A05
2014333239000000000OUTROS SERVICOS DE TERCEIROS - PESSOA JURIDICA                                                                A05
2014334000000000000TRANSFERENCIAS A MUNICIPIOS                                                                                   S03
2014334041000000000CONTRIBUICOES                                                                                                 S05
2014334041390000000A MUNICIPIOS DO ESTADO DO RIO GRANDE DO SUL                                                                   S06
2014334041390100000COMPENSACAO FINANCEIRA (S9o ART.201 DA CF)                                                                    A07
2014334041390200000CONTRIBUICOES A ESCOLAS MUNICIPAIS                                                                            A07
2014334041390300000CONTRIBUICOES MUNICIPIO POLO DA CONTRAPARTIDA CONVENIO C/UNIAO                                                A07
2014334041390400000TRANSFERENCIA A MUNICIPIO EMANCIPADO PARA ACERTO DE  CONTAS                                                   A07
2014334047000000000OBRIGACOES TRIBUTARIAS E CONTRIBUTIVAS                                                                        S05
2014334047990000000OUTRAS OBRIGACOES TRIBUTARIAS E CONTRIBUTIVAS                                                                 S06
2014334047990100000CONTRIBUICAO PATRONAL PARA  RPPS DE OUTRO MUNICIPIO                                                           A07
2014334093000000000INDENIZACOES E RESTITUICOES                                                                                   S05
2014334093990000000OUTRAS INDENIZACOES E RESTITUICOES                                                                            S06
2014334093990100000RESTITUICAO DE TRANSFERENCIAS E CONVENIOS RECEBIDOS DOS MUNICIPIOS                                            A07
2014334200000000000EXECUCAO ORCAMENTARIA DELEGADA A MUNICIPIOS                                                                   S04
2014334239000000000OUTROS SERVICOS DE TERCEIROS - PESSOA JURIDICA                                                                A05
2014335000000000000TRANSFERENCIAS A INSTITUICOES PRIVADAS SEM FINS LUCRATIVOS                                                    S03
2014335041000000000CONTRIBUICOES                                                                                                 S05
2014335041010000000INSTITUICOES DE CARATER ASSISTENCIAL,  CULTURAL E EDUCACIONAL                                                 S06
2014335041010100000PROGRAMA DINHEIRO DIRETO NAS ESCOLAS - PDDE                                                                   A07
2014335041030000000INSTITUICOES DE PESQUISA  E DESENVOLVIMENTO TECNOLOGICO                                                       A06
2014335041080000000ENTIDADES REPRESENTATIVAS DE CLASSE                                                                           A06
2014335041990000000OUTRAS INSTITUICOES PRIVADAS                                                                                  A06
2014335041990100000CONVENIO COM BOMBEIROS DE TRES DE MAIO                                                                        A07
2014335043000000000SUBVENCOES SOCIAIS                                                                                            S05
2014335043010000000INSTITUICOES DE CARATER ASSISTENCIAL,  CULTURAL E EDUCACIONAL                                                 S06
2014335043010100000CONVENIO APAE INDEPENDENCIA                                                                                   A07
2014335043990000000OUTRAS INSTITUICOES PRIVADAS                                                                                  A06
2014335092000000000DESPESAS DE EXERCICIOS ANTERIORES                                                                             S05
2014335092990000000OUTRAS DESPESAS DE EXERCICIOS ANTERIORES                                                                      A06
2014335093000000000INDENIZACOES E RESTITUICOES                                                                                   S05
2014335093020000000RESTITUICOES                                                                                                  S06
2014335093020100000RESTITUICOES A ENTIDADES PRIVADAS SEM FINS LUCRATIVOS                                                         A07
2014336000000000000TRANSFERENCIAS A INSTITUICOES PRIVADAS COM FINS LUCRATIVOS                                                    S03
2014336045000000000SUBVENCOES ECONOMICAS                                                                                         A05
2014337000000000000TRANSFERENCIAS A INSTITUICOES MULTIGOVERNAMENTAIS                                                             S03
2014337041000000000CONTRIBUICOES                                                                                                 S05
2014337041990000000OUTRAS CONTRIBUICOES                                                                                          S06
2014337100000000000TRANSFERENCIAS A CONSORCIOS PUBLICOS                                                                          S04
2014337170000000000RATEIO PELA PARTICIPACAO EM CONSORCIO PUBLICO                                                                 S05
2014337170010000000COFRON                                                                                                        A06
2014337170020000000CISMISSOES                                                                                                    A06
2014337170030000000CIGRES                                                                                                        A06
2014337200000000000EXECUCAO ORCAMENTARIA DELEGADA A CONSORCIOS PUBLICOS                                                          S04
2014337239000000000OUTROS SERVICOS DE TERCEIROS - PESSOA JURIDICA                                                                A05
2014339000000000000APLICACOES DIRETAS                                                                                            S03
2014339014000000000DIARIAS -  CIVIL                                                                                              S05
2014339014140000000DIARIAS NO PAIS                                                                                               A06
2014339014160000000DIARIAS NO EXTERIOR                                                                                           A06
2014339014990000000OUTRAS DIARIAS                                                                                                A06
2014339018000000000AUXILIO FINANCEIRO A ESTUDANTES                                                                               S05
2014339018010000000BOLSAS DE ESTUDO NO PAIS                                                                                      A06
2014339018020000000BOLSAS DE ESTUDO NO EXTERIOR                                                                                  A06
2014339018030000000BOLSA ESCOLA - BENEFICIO                                                                                      A06
2014339018990000000OUTROS AUXILIOS FINANCEIROS A ESTUDANTES                                                                      S06
2014339018990100000PASSE LIVRE ESTUDANTIL LEI ESTADUAL 14.307/2013                                                               A07
2014339020000000000AUXILIO FINANCEIRO A PESQUISADORES                                                                            S05
2014339020010000000AUXILIO A PESQUISADORES                                                                                       A06
2014339030000000000MATERIAL DE CONSUMO                                                                                           S05
2014339030010000000COMBUSTIVEIS E LUBRIFICANTES AUTOMOTIVOS                                                                      A06
2014339030020000000COMBUSTIVEIS E LUBRIFICANTES DE AVIACAO                                                                       A06
2014339030030000000COMBUSTIVEIS E LUBRIFICANTES  PARA  OUTRAS FINALIDADES                                                        A06
2014339030040000000GAS E OUTROS MATERIAIS ENGARRAFADOS                                                                           A06
2014339030050000000EXPLOSIVOS E MUNICOES                                                                                         A06
2014339030060000000ALIMENTOS PARA ANIMAIS                                                                                        A06
2014339030070000000GENEROS DE ALIMENTACAO                                                                                        S06
2014339030070100000MERENDA ESCOLAR                                                                                               S07
2014339030070101000MERENDA ESCOLAR ADQUIRIDA DA AGRICULTURA FAMILIAR                                                             A08
2014339030070102000MERENDA ESCOLAR ADQUIRIDAS DE OUTRAS FONTES                                                                   A08
2014339030079900000OUTROS GENEROS DE ALIMENTACAO                                                                                 A07
2014339030080000000ANIMAIS PARA PESQUISA E ABATE                                                                                 A06
2014339030090000000MATERIAL FARMACOLOGICO                                                                                        A06
2014339030100000000MATERIAL ODONTOLOGICO                                                                                         A06
2014339030110000000MATERIAL QUIMICO                                                                                              A06
2014339030120000000MATERIAL DE COUDELARIA OU DE USO ZOOTECNICO                                                                   A06
2014339030130000000MATERIAL DE CACA E PESCA                                                                                      A06
2014339030140000000MATERIAL EDUCATIVO E ESPORTIVO                                                                                A06
2014339030150000000MATERIAL PARA  FESTIVIDADES E HOMENAGENS                                                                      A06
2014339030160000000MATERIAL DE EXPEDIENTE                                                                                        A06
2014339030170000000MATERIAL DE PROCESSAMENTO DE DADOS                                                                            A06
2014339030180000000MATERIAIS E MEDICAMENTOS PARA  USO VETERINARIO                                                                A06
2014339030190000000MATERIAL DE ACONDICIONAMENTO E EMBALAGEM                                                                      A06
2014339030200000000MATERIAL DE CAMA, MESA E BANHO                                                                                A06
2014339030210000000MATERIAL DE COPA E COZINHA                                                                                    A06
2014339030220000000MATERIAL DE LIMPEZA E PRODUTOS  DE HIGIENIZACAO                                                               A06
2014339030230000000UNIFORMES, TECIDOS E AVIAMENTOS                                                                               A06
2014339030240000000MATERIAL PARA  MANUTENCAO DE BENS IMOVEIS / INSTALACOES                                                       A06
2014339030250000000MATERIAL PARA  MANUTENCAO DE BENS MOVEIS                                                                      A06
2014339030260000000MATERIAL ELETRICO E ELETRONICO                                                                                A06
2014339030270000000MATERIAL DE MANOBRA E PATRULHAMENTO                                                                           A06
2014339030280000000MATERIAL DE PROTECAO E SEGURANCA                                                                              A06
2014339030290000000MATERIAL PARA  AUDIO, VIDEO E FOTO                                                                            A06
2014339030300000000MATERIAL PARA COMUNICACOES                                                                                    A06
2014339030310000000SEMENTES, MUDAS DE PLANTAS E INSUMOS                                                                          A06
2014339030320000000SUPRIMENTO DE AVIACAO                                                                                         A06
2014339030330000000MATERIAL PARA  PRODUCAO INDUSTRIAL                                                                            A06
2014339030340000000SOBRESSAL. MAQ.E MOTORES NAVIOS E EMBARCACOES                                                                 A06
2014339030350000000MATERIAL LABORATORIAL                                                                                         A06
2014339030360000000MATERIAL HOSPITALAR                                                                                           A06
2014339030370000000SOBRESSALENTES DE ARMAMENTO                                                                                   A06
2014339030380000000SUPRIMENTO DE PROTECAO AO VOO                                                                                 A06
2014339030390000000MATERIAL PARA  MANUTENCAO DE VEICULOS                                                                         A06
2014339030400000000MATERIAL BIOLOGICO                                                                                            A06
2014339030410000000MATERIAL PARA  UTILIZACAO EM GRAFICA                                                                          A06
2014339030420000000FERRAMENTAS                                                                                                   A06
2014339030430000000MATERIAL PARA  REABILITACAO PROFISSIONAL                                                                      A06
2014339030440000000MATERIAL DE SINALIZACAO VISUAL E OUTROS                                                                       A06
2014339030450000000MATERIAL TECNICO PARA  SELECAO E TREINAMENTO                                                                  A06
2014339030460000000MATERIAL BIBLIOGRAFICO                                                                                        A06
2014339030490000000BILHETES DE PASSAGEM                                                                                          A06
2014339030500000000BANDEIRAS, FLAMULAS E INSIGNIAS                                                                               A06
2014339030510000000DISCOTECAS E FILMOTECAS NAO IMOBILIZAVEL                                                                      A06
2014339030540000000MATERIAL PARA MANUTENCAO E CONSERVACAO DE ESTRADAS E VIAS                                                     A06
2014339030960000000MATERIAL DE CONSUMO - PAGAMENTO  ANTECIPADO                                                                   A06
2014339030990000000OUTROS MATERIAIS DE CONSUMO                                                                                   S06
2014339030990100000MATERIAL PARA MANUTENCAO DE MAQUINAS E EQUIPAMENTOS                                                           A07
2014339030990200000MATERIAIS PARA DOACAO                                                                                         A07
2014339031000000000PREMIACOES CULTURAIS, ARTISTICAS, CIENTIFICAS, DESPORTIVAS E OUTRAS                                           S05
2014339031010000000PREMIACOES CULTURAIS                                                                                          A06
2014339031020000000PREMIACOES ARTISTICAS                                                                                         A06
2014339031030000000PREMIACOES CIENTIFICAS                                                                                        A06
2014339031040000000PREMIACOES DESPORTIVAS                                                                                        A06
2014339031050000000ORDENS HONORIFICAS                                                                                            A06
2014339031990000000OUTRAS PREMIACOES                                                                                             A06
2014339032000000000MATERIAL, BEM OU SERVICO PARA DISTRIBUICAO GRATUITA                                                           S05
2014339032010000000SERVICOS PRESTADOS GRATUITAMENTE                                                                              A06
2014339032020000000MATERIAL DE SAUDE DISTRIBUIDO GRATUITAMENTE                                                                   S06
2014339032020100000MEDICAMENTOS                                                                                                  A07
2014339032020200000MATERIAL HOSPITALAR                                                                                           A07
2014339032020300000OUTROS MATERIAIS DE DISTRIBUICAO GRATUITA                                                                     A07
2014339032030000000MATERIAL DESTINADO A ASSISTENCIA SOCIAL                                                                       S06
2014339032030100000MEDICAMENTOS                                                                                                  A07
2014339032030200000OUTROS MATERIAIS DE DISTRIBUICAO GRATUITA                                                                     A07
2014339032040000000MATERIAL EDUCACIONAL E CULTURAL                                                                               A06
2014339032050000000MERCADORIAS PARA DOACAO                                                                                       A06
2014339032070000000MATERIAL PARA CERIMONIAL                                                                                      A06
2014339032080000000MATERIAL PARA REABILITACAO PROFISSIONAL                                                                       A06
2014339032090000000MATERIAL PARA DIVULGACAO                                                                                      A06
2014339032100000000CONSULTAS E EXAMES PAGOS POR ADIANTAMENTO                                                                     A06
2014339032960000000MATERIAL DE DISTRIBUICAO GRATUITA - PAGAMENTO ANTECIPADO                                                      A06
2014339032990000000OUTROS MATERIAIS DE DISTRIBUICAO GRATUITA                                                                     A06
2014339033000000000PASSAGENS E DESPESAS COM LOCOMOCAO                                                                            S05
2014339033010000000PASSAGENS PARA O PAIS                                                                                         A06
2014339033020000000PASSAGENS PARA O EXTERIOR                                                                                     A06
2014339033030000000LOCACAO DE MEIOS DE TRANSPORTE                                                                                A06
2014339033050000000LOCOMOCAO URBANA                                                                                              A06
2014339033080000000PEDAGIOS                                                                                                      A06
2014339033960000000PASSAGENS E DESPESAS COM LOCOMOCAO-PAGAMENTO ANTECIPADO                                                       A06
2014339033990000000OUTRAS DESPESAS COM LOCOMOCAO                                                                                 A06
2014339035000000000SERVICOS DE CONSULTORIA                                                                                       S05
2014339035010000000ASSESSORIA E CONSULTORIA TECNICA OU JURIDICA                                                                  A06
2014339035020000000AUDITORIA EXTERNA                                                                                             A06
2014339035960000000SERVICOS DE CONSULTORIA - PAGTO ANTECIPADO                                                                    A06
2014339035990000000OUTROS SERVICOS DE CONSULTORIA                                                                                A06
2014339036000000000OUTROS SERVICOS DE TERCEIROS - PESSOA FISICA                                                                  S05
2014339036010000000CONDOMINIOS                                                                                                   A06
2014339036020000000DIARIAS A COLABORADORES EVENTUAIS NO PAIS                                                                     A06
2014339036030000000DIARIAS A COLABORADORES EVENTUAIS NO EXTERIOR                                                                 A06
2014339036040000000COMISSOES E CORRETAGENS                                                                                       A06
2014339036050000000DIREITOS AUTORAIS                                                                                             A06
2014339036060000000SERVICOS TECNICOS PROFISSIONAIS                                                                               A06
2014339036070000000ESTAGIARIOS                                                                                                   A06
2014339036080000000BOLSA DE INICIACAO AO TRABALHO                                                                                A06
2014339036110000000PRO-LABORE A CONSULTORES EVENTUAIS                                                                            A06
2014339036130000000CONFERENCIAS E EXPOSICOES E ESPETACULOS                                                                       A06
2014339036140000000ARMAZENAGEM                                                                                                   A06
2014339036150000000LOCACAO DE IMOVEIS                                                                                            A06
2014339036160000000LOCACAO DE BENS MOVEIS E INTANGIVEIS                                                                          A06
2014339036180000000MANUTENCAO E CONSERVACAO  DE EQUIPAMENTOS                                                                     A06
2014339036200000000MANUTENCAO E CONSERVACAO  DE VEICULOS                                                                         A06
2014339036210000000MANUTENCAO E CONSERVACAO DE BENS MOVEIS DE OUTRAS NATUREZAS                                                   A06
2014339036220000000MANUTENCAO E CONSERVACAO  DE BENS IMOVEIS                                                                     A06
2014339036230000000FORNECIMENTO DE ALIMENTACAO                                                                                   A06
2014339036250000000SERVICOS DE LIMPEZA E CONSERVACAO                                                                             A06
2014339036260000000SERVICOS DOMESTICOS                                                                                           A06
2014339036270000000SERVICOS DE COMUNICACAO EM GERAL                                                                              A06
2014339036280000000SERVICO DE SELECAO E TREINAMENTO                                                                              A06
2014339036290000000HONORARIOS ADVOCATICIOS - ONUS DA SUCUMBENCIA                                                                 A06
2014339036300000000SERVICOS MEDICOS E ODONTOLOGICOS                                                                              A06
2014339036310000000SERVICOS DE REABILITACAO PROFISSIONAL                                                                         A06
2014339036320000000SERVICOS DE ASSISTENCIA SOCIAL                                                                                A06
2014339036340000000SERVICOS DE PERICIAS MEDICAS POR BENEFICIOS                                                                   A06
2014339036350000000SERVICOS  DE APOIO ADMINISTRATIVOS, TECNICO E OPERACIONAL                                                     A06
2014339036360000000SERVICOS DE CONSERVACAO E REBENEFICIAMENTO  DE MERCADORIAS                                                    A06
2014339036370000000CONFECCAO DE MATERIAL DE ACONDICIONAMENTO  E EMBALAGEM                                                        A06
2014339036380000000CONFECCAO DE UNIFORMES, BANDEIRAS E FLAMULAS                                                                  A06
2014339036390000000FRETES E TRANSPORTES DE ENCOMENDAS                                                                            A06
2014339036420000000JUROS                                                                                                         A06
2014339036450000000JETONS A CONSELHEIROS                                                                                         A06
2014339036460000000DIARIAS A CONSELHEIROS                                                                                        A06
2014339036590000000SERVICOS DE AUDIO, VIDEO E FOTO                                                                               A06
2014339036960000000OUTROS SERVICOS DE TERCEIROS PESSOA FISICA - PAGAMENTO ANTECIPADO                                             A06
2014339036990000000OUTROS SERVICOS                                                                                               S06
2014339036990100000SERVICOS NOTARIAIS                                                                                            A07
2014339037000000000LOCACAO DE MAO-DE-OBRA                                                                                        S05
2014339037010000000APOIO ADMINISTRATIVO, TECNICO E OPERACIONAL                                                                   A06
2014339037020000000LIMPEZA E CONSERVACAO                                                                                         A06
2014339037030000000VIGILANCIA OSTENSIVA                                                                                          A06
2014339037040000000MANUTENCAO E CONSERVACAO DE BENS IMOVEIS                                                                      A06
2014339037050000000SERVICOS DE COPA E COZINHA                                                                                    A06
2014339037060000000MANUTENCAO E CONSERVACAO DE BENS MOVEIS                                                                       A06
2014339037960000000LOCACAO DE MAO-DE-OBRA - PAGAMENTO  ANTECIPADO                                                                A06
2014339037990000000OUTRAS LOCACOES DE MAO DE OBRA                                                                                A06
2014339038000000000ARRENDAMENTO MERCANTIL                                                                                        S05
2014339038010000000MAQUINAS E APARELHOS                                                                                          A06
2014339038030000000VEICULOS RODOVIARIOS                                                                                          A06
2014339038040000000OUTROS BENS MOVEIS                                                                                            A06
2014339038050000000BENS IMOVEIS                                                                                                  A06
2014339038990000000OUTROS ARRENDAMENTOS                                                                                          A06
2014339039000000000OUTROS SERVICOS DE TERCEIROS - PESSOA JURIDICA                                                                S05
2014339039010000000ASSINATURAS DE PERIODICOS E ANUIDADES                                                                         A06
2014339039020000000CONDOMINIOS                                                                                                   A06
2014339039030000000COMISSOES, CORRETAGENS E CUSTODIAS                                                                            A06
2014339039040000000DIREITOS AUTORAIS                                                                                             A06
2014339039050000000SERVICOS TECNICOS PROFISSIONAIS                                                                               A06
2014339039090000000ARMAZENAGEM                                                                                                   A06
2014339039100000000LOCACAO DE IMOVEIS                                                                                            A06
2014339039120000000LOCACAO DE MAQUINAS E EQUIPAMENTOS                                                                            A06
2014339039140000000LOCACAO BENS MOVEIS,  OUTRAS NATUREZAS E INTANGIVEIS                                                          A06
2014339039150000000TRIBUTOS A CONTA DO LOCATARIO                                                                                 A06
2014339039160000000MANUTENCAO E CONSERVACAO  DE BENS IMOVEIS                                                                     A06
2014339039170000000MANUTENCAO  E CONSERVACAO DE MAQUINAS E EQUIPAMENTOS                                                          A06
2014339039190000000MANUTENCAO E CONSERVACAO DE VEICULOS                                                                          A06
2014339039200000000MANUTENCAO E CONSERVACAO DE BENS MOVEIS DE OUTRAS NATUREZAS                                                   A06
2014339039210000000MANUTENCAO E CONSERVACAO  DE ESTRADAS E VIAS                                                                  A06
2014339039220000000EXPOSICOES, CONGRESSOS E CONFERENCIAS                                                                         A06
2014339039230000000FESTIVIDADES E HOMENAGENS                                                                                     A06
2014339039250000000TAXA DE ADMINISTRACAO                                                                                         A06
2014339039290000000HONORARIOS ADVOCATICIOS - ONUS DA SUCUMBENCIA                                                                 A06
2014339039370000000JUROS                                                                                                         A06
2014339039410000000FORNECIMENTO DE ALIMENTACAO                                                                                   A06
2014339039430000000SERVICOS DE ENERGIA ELETRICA                                                                                  A06
2014339039440000000SERVICOS DE AGUA E ESGOTO                                                                                     A06
2014339039450000000SERVICOS DE GAS                                                                                               A06
2014339039460000000SERVICOS DOMESTICOS                                                                                           A06
2014339039470000000SERVICOS DE COMUNICACAO EM GERAL                                                                              A06
2014339039480000000SERVICO DE SELECAO E TREINAMENTO                                                                              A06
2014339039490000000PRODUCOES JORNALISTICAS                                                                                       A06
2014339039500000000SERVICOS MEDICO-HOSPITALAR, ODONTOLOGICOS  E LABORATORIAIS                                                    A06
2014339039510000000SERVICOS DE ANALISES E PESQUISAS CIENTIFICAS                                                                  A06
2014339039520000000SERVICOS DE REABILITACAO PROFISSIONAL                                                                         A06
2014339039530000000SERVICOS DE ASSISTENCIA SOCIAL                                                                                A06
2014339039540000000SERVICOS DE CRECHES E ASSISTENCIA  PRE-ESCOLAR                                                                A06
2014339039560000000SERVICOS DE PERICIAS MEDICAS P/ BENEFICIOS                                                                    A06
2014339039570000000SERVICOS DE PROCESSAMENTO  DE DADOS                                                                           A06
2014339039580000000SERVICOS DE TELECOMUNICACOES                                                                                  S06
2014339039580100000TELEFONE                                                                                                      A07
2014339039580200000INTERNET                                                                                                      A07
2014339039580300000OUTROS SERVICOS DE TELECOMUNICACOES                                                                           A07
2014339039590000000SERVICOS DE AUDIO, VIDEO E FOTO                                                                               A06
2014339039610000000SERVICOS DE SOCORRO E SALVAMENTO                                                                              A06
2014339039630000000SERVICOS GRAFICOS E EDITORIAIS                                                                                A06
2014339039650000000SERVICOS DE APOIO AO ENSINO                                                                                   A06
2014339039660000000SERVICOS JUDICIARIOS                                                                                          A06
2014339039670000000SERVICOS FUNERARIOS                                                                                           A06
2014339039690000000SEGUROS EM GERAL                                                                                              A06
2014339039700000000CONFECCAO DE UNIFORMES, BANDEIRAS E FLAMULAS                                                                  A06
2014339039710000000CONFECCAO DE MATERIAL DE ACONDICIONAMENTO  E EMBALAGEM                                                        A06
2014339039720000000VALE-TRANSPORTE                                                                                               A06
2014339039730000000TRANSPORTE DE SERVIDORES                                                                                      A06
2014339039740000000FRETES E TRANSPORTES  DE ENCOMENDAS                                                                           A06
2014339039770000000VIGILANCIA OSTENSIVA E MONITORADA                                                                             A06
2014339039780000000LIMPEZA E CONSERVACAO                                                                                         A06
2014339039790000000SERVICO  DE APOIO ADMINISTRATIVO, TECNICO E OPERACIONAL                                                       A06
2014339039800000000HOSPEDAGENS                                                                                                   A06
2014339039810000000SERVICOS BANCARIOS                                                                                            A06
2014339039820000000SERVICOS DE CONTROLE AMBIENTAL                                                                                A06
2014339039830000000SERVICOS DE COPIAS E REPRODUCAO DE DOCUMENTOS                                                                 A06
2014339039900000000SERVICOS DE PUBLICIDADE LEGAL                                                                                 A06
2014339039920000000SERVICOS DE PUBLICIDADE INSTITUCIONAL                                                                         A06
2014339039930000000SERVICOS DE PUBLICIDADE DE UTILIDADE PUBLICA                                                                  A06
2014339039950000000MANUTENCAO E CONSERVACAO DE EQUIPAMENTOS DE PROCESSAMENTO DE DADOS                                            A06
2014339039960000000OUTROS SERV.DE TERCEIROS PESSOA JURIDICA- PAGAMENTO ANTECIPADO                                                A06
2014339039970000000DESPESAS DE TELEPROCESSAMENTO                                                                                 A06
2014339039990000000OUTROS SERVICOS DE TERCEIROS-PESSOA JURIDICA                                                                  S06
2014339039990100000SERVICOS DE ESTAGIARIOS                                                                                       A07
2014339039990200000ASSOCIACOES, FEDERACOES E CONFEDERACOES                                                                       A07
2014339039990300000TRANSPORTE ESCOLAR                                                                                            A07
2014339039990400000MULTAS DE TRANSITO                                                                                            A07
2014339039990500000MANUTENCAO E CONSERVACAO  DA REDE DE ILUMINACAO PUBLICA                                                       A07
2014339039990600000MULTA CONTRATUAL                                                                                              A07
2014339039990700000TRANSPORTE DE CIDADAOS                                                                                        A07
2014339039990800000INSCRICOES EM EVENTOS ESPORTIVOS                                                                              A07
2014339041000000000CONTRIBUICOES                                                                                                 S05
2014339041000100000CONTRIBUICOES AS FORCAS AUXILIARES                                                                            A07
2014339045000000000SUBVENCOES ECONOMICAS                                                                                         S05
2014339045990000000OUTRAS SUBVENCOES ECONOMICAS                                                                                  A06
2014339046000000000AUXILIO-ALIMENTACAO                                                                                           S05
2014339046010000000VALE-ALIMENTACAO                                                                                              A06
2014339047000000000OBRIGACOES TRIBUTARIAS E CONTRIBUTIVAS                                                                        S05
2014339047020000000IMPOSTO SOBRE PROPRIEDADE PREDIAL E TERRITORIAL URBANA - IPTU                                                 A06
2014339047030000000IMPOSTO DE RENDA                                                                                              A06
2014339047080000000IMPOSTO SOBRE SERVICOS DE QUALQUER NATUREZA - ISSQN                                                           A06
2014339047100000000TAXAS                                                                                                         A06
2014339047120000000CONTRIBUICAO PARA  O PIS/PASEP                                                                                A06
2014339047140000000CPMF                                                                                                          A06
2014339047150000000MULTAS                                                                                                        A06
2014339047160000000JUROS                                                                                                         A06
2014339047180000000CONTRIBUICOES  PREVIDENCIARIAS-SERVICOS DE TERCEIROS                                                          A06
2014339047200000000OBRIGACOES PATRONAIS SOBRE SERVICOS DE  PESSOA JURIDICA                                                       A06
2014339047220000000CONTRIBUICAO PARA O  CUSTEIO DE ILUMINACAO PUBLICA                                                            A06
2014339047960000000OBRIGACOES TRIBUTARIAS - PAGAMENTO ANTECIPADO                                                                 A06
2014339047990000000OUTRAS OBRIGACOES TRIBUTARIAS E CONTRIBUTIVAS                                                                 A06
2014339048000000000OUTROS AUXILIOS FINANCEIROS A PESSOAS FISICAS                                                                 S05
2014339048010000000AUXILIO A PESSOAS FISICAS                                                                                     S06
2014339048010100000DIVERSOS AUXILIOS A PESSOAS FISICAS                                                                           A07
2014339048010200000AUXILIO PARA INCENTIVO A TRANSFERENCIA DE VEICULOS                                                            A07
2014339048010300000AUXILIO PARA PROGRAMAS HABITACIONAIS                                                                          A07
2014339048010400000AUXILIO PROGRAMA MAIS MEDICOS LEI 2482/14                                                                     A07
2014339049000000000AUXILIO-TRANSPORTE                                                                                            S05
2014339049010000000INDENIZACAO AUXILIO-TRANSPORTE                                                                                A06
2014339062000000000AQUISICAO DE PRODUTOS PARA REVENDA                                                                            A05
2014339067000000000DEPOSITOS COMPULSORIOS                                                                                        S05
2014339067010000000DEPOSITOS E CAUCOES                                                                                           A06
2014339067020000000DEPOSITOS JUDICIAIS                                                                                           A06
2014339067030000000DEPOSITOS PARA RECURSOS                                                                                       A06
2014339067990000000OUTROS DEPOSITOS COMPULSORIOS                                                                                 A06
2014339091000000000SENTENCAS JUDICIAIS                                                                                           S05
2014339091010000000SENTENCAS JUDICIAIS TRANSITADAS EM JULGADO                                                                    A06
2014339091020000000PRECATORIOS INCLUIDOS NA LEI DO ORCAMENTO                                                                     A06
2014339091030000000DECISOES JUDICIAIS                                                                                            A06
2014339091990000000DIVERSAS SENTENCAS                                                                                            A06
2014339092000000000DESPESAS DE EXERCICIOS ANTERIORES                                                                             S05
2014339092140000000DIARIAS - PESSOAL CIVIL                                                                                       A06
2014339092180000000AUXILIO FINANCEIRO A ESTUDANTES                                                                               A06
2014339092310000000PREMIACOES CULTURAIS, CIENTIFICAS,  ARTISTICAS, DESPORTIVAS E OUTRAS                                          A06
2014339092320000000MATERIAL, BEM OU SERVICO PARA DISTRIBUICAO GRATUITA                                                           A06
2014339092330000000PASSAGENS E DESPESAS COM LOCOMOCAO                                                                            A06
2014339092360000000SERVICOS DE TERCEIROS - PESSOA FISICA                                                                         A06
2014339092370000000LOCACAO DE MAO-DE-OBRA                                                                                        A06
2014339092380000000ARRENDAMENTO MERCANTIL                                                                                        A06
2014339092390000000SERVICOS DE TERCEIROS - PESSOA JURIDICA                                                                       A06
2014339092460000000AUXILIO-ALIMENTACAO                                                                                           A06
2014339092470000000OBRIGACOES TRIBUTARIAS E CONTRIBUTIVAS                                                                        A06
2014339092490000000AUXILIO-TRANPORTE                                                                                             A06
2014339092850000000SERVICOS DE PUBLICIDADE LEGAL                                                                                 A06
2014339092880000000SERVICOS DE PUBLICIDADE INSTITUCIONAL                                                                         A06
2014339092890000000SERVICOS DE PUBLICIDADE DE UTILIDADE PUBLICA                                                                  A06
2014339092910000000SENTENCAS JUDICIAIS                                                                                           A06
2014339092920000000MATERIAL DE CONSUMO                                                                                           A06
2014339092930000000INDENIZACOES E RESTITUICOES                                                                                   A06
2014339092990000000OUTRAS DESPESAS CORRENTES                                                                                     A06
2014339093000000000INDENIZACOES E RESTITUICOES                                                                                   S05
2014339093010000000INDENIZACOES                                                                                                  S06
2014339093010100000INDENIZACAO IMOBILIARIA                                                                                       A07
2014339093010200000INDENIZACAO POR DANOS MATERIAIS A TERCEIROS                                                                   A07
2014339093010300000INDENIZACAO POR LOCACAO DE VEICULOS DE SERVIDORES                                                             A07
2014339093020000000RESTITUICOES                                                                                                  S06
2014339093020100000RESTITUICOES DE DESPESAS  EVENTUAIS COM ALIMENTACAO                                                           A07
2014339093020200000RESTITUICOES DE IMPOSTOS, TAXAS E CONTRIBUICOES DE MELHORIA                                                   A07
2014339093020300000RESTITUICOES DO INSS AOS AGENTES POLITICOS                                                                    A07
2014339093030000000AJUDA DE CUSTO - PESSOAL CIVIL                                                                                A06
2014339093050000000INDENIZACAO DE TRANSPORTE - PESSOAL CIVIL                                                                     A06
2014339093070000000INDENIZACAO DE MORADIA - PESSOAL CIVIL                                                                        A06
2014339093080000000RESSARCIMENTO ASSISTENCIA MEDICA/ODONTOLOGICA                                                                 A06
2014339093990000000DIVERSAS INDENIZACOES E RESTITUICOES                                                                          S06
2014339093990100000RESTITUICAO DE COPIAS E IMPRESSAO DE DOCUMENTOS                                                               A07
2014339093990200000INDENIZACAO POR HIDROMETRO DANIFICADO                                                                         A07
2014339093990300000DESPESAS COM CURSOS, TREINAMENTOS E SIMILARES                                                                 A07
2014339093990400000RESTITUICAO DE DESPESAS COM VEICULOS                                                                          A07
2014339095000000000INDENIZACAO PELA EXECUCAO DE TRABALHOS DE CAMPO                                                               S05
2014339095010000000INDENIZACOES A SERVIDORES PELA EXECUCAO DE  TRABALHO DE  CAMPO                                                A06
2014339100000000000APLICACAO DIRETA DECORRENTE DE OPERACAO ENTRE ORGAOS, FUNDOS E ENTIDADES INTEGRANTES DOS ORCAMENTOS           S04
2014339130000000000MATERIAL DE CONSUMO - OPERACOES INTRA-ORCAMENTARIAS                                                           A05
2014339139000000000OUTROS SERVICOS DE TERCEIROS-PESSOA JURIDICA - OPERACOES INTRA-ORCAMENTARIAS                                  S05
2014339139020000000CONDOMINIOS                                                                                                   A06
2014339139100000000LOCACAO DE IMOVEIS                                                                                            A06
2014339139440000000SERVICO DE AGUA E ESGOTO                                                                                      A06
2014339139470000000SERVICO DE COMUNICACAO EM GERAL                                                                               A06
2014339139500000000SERVICOS MEDICO-HOSPITALAR, ODONTOLOGICO E LABORATORIAIS                                                      A06
2014339139990000000OUTROS SERVICOS DE TERCEIROS - PESSOA JURIDICA                                                                A06
2014339147000000000OBRIGACOES TRIBUTARIAS E CONTRIBUTIVAS – OPERACOES INTRA-ORCAMENTARIAS                                        S05
2014339147900000000IMPOSTO SOBRE PROPRIEDADE PREDIAL E TERRITORIAL URBANA - IPTU                                                 A06
2014339192000000000DESPESAS DE EXERCICIOS ANTERIORES                                                                             S05
2014339192390000000SERVICOS DE TERCEIROS - PESSOA JURIDICA                                                                       A06
2014339192470000000OBRIGACOES TRIBUTARIAS E CONTRIBUTIVAS                                                                        A06
2014339192930000000INDENIZACOES E RESTITUICOES                                                                                   A06
2014339193000000000INDENIZACOES E RESTITUICOES                                                                                   S05
2014339193010000000INDENIZACOES                                                                                                  A06
2014339193020000000RESTITUICOES                                                                                                  A06
2014339197000000000AMORITZACAO DO PASSIVO ATUARIAL COM O RPPS - APORTE PERIODICO                                                 A05
2014339300000000000APLICACAO DIRETA DECORRENTE DE OPERACAO DE ORGAOS, FUNDOS E ENTIDADES INTEGRANTES DOS ORCAMENTOS FIS          S04
2014339330000000000MATERIAL DE CONSUMO                                                                                           S05
2014339330090000000MATERIAL FARMACOLOGICO                                                                                        A06
2014339339000000000OUTROS SERVICOS DE TERCEIROS - PESSOA JURIDICA                                                                A05
2014339400000000000APLICACAO DIRETA DECORRENTE DE OPERACAO DE ORGAOS, FUNDOS E ENTIDADES INTEGRANTES DOS ORCAMENTOS FIS          S04
2014339430000000000MATERIAL DE CONSUMO                                                                                           A05
2014339439000000000OUTROS SERVICOS DE TERCEIROS - PESSOA JURIDICA                                                                A05
2014400000000000000DESPESAS DE CAPITAL                                                                                           S01
2014440000000000000INVESTIMENTOS                                                                                                 S02
2014442000000000000TRANSFERENCIAS A UNIAO                                                                                        S03
2014442042000000000AUXILIOS                                                                                                      A05
2014442093000000000INDENIZACOES E RESTITUICOES                                                                                   S05
2014442093000100000RESTITUICAO DE CONVENIOS E TRANSFERENCIAS  RECEBIDAS UNIAO                                                    A07
2014442200000000000EXECUCAO ORCAMENTARIA DELEGADA A UNIAO                                                                        S04
2014442251000000000OBRAS E INSTALACOES                                                                                           A05
2014442252000000000EQUIPAMENTOS E MATERIAL PERMANENTE                                                                            A05
2014443000000000000TRANSFERENCIAS A ESTADOS E DISTRITO FEDERAL                                                                   S03
2014443041000000000CONTRIBUICOES                                                                                                 S05
2014443041390000000RIO GRANDE DO SUL                                                                                             A06
2014443042000000000AUXILIOS                                                                                                      S05
2014443042390000000RIO GRANDE DO SUL                                                                                             A06
2014443093000000000INDENIZACOES E RESTITUICOES                                                                                   S05
2014443093000100000RESTITUICOES DE CONVENIOS E TRANSFERENCIAS RECEBIDAS DO  ESTADO                                               A07
2014443100000000000TRANSFERENCIAS A ESTADOS E AO DISTRITO FEDERAL - FUNDO A FUNDO                                                S04
2014443142000000000AUXILIOS                                                                                                      A05
2014443200000000000EXECUCAO ORCAMENTARIA DELEGADA A ESTADOS E AO DISTRITO FEDERAL                                                S04
2014443251000000000OBRAS E INSTALACOES                                                                                           A05
2014443252000000000EQUIPAMENTOS E MATERIAL PERMANENTE                                                                            A05
2014444000000000000TRANSFERENCIAS A MUNICIPIOS                                                                                   S03
2014444041000000000CONTRIBUICOES                                                                                                 S05
2014444041390000000A MUNICIPIOS DO ESTADO DO RIO GRANDE DO SUL                                                                   A06
2014444042000000000AUXILIOS                                                                                                      S05
2014444042390000000A MUNICIPIOS DO ESTADO DO RIO GRANDE DO SUL                                                                   A06
2014444093000000000INDENIZACOES E RESTITUICOES                                                                                   S05
2014444093000100000RESTITUICOES DE CONVENIOS E TRANSFERENCIAS RECEBIDAS DOS MUNICIPIOS                                           A07
2014444200000000000EXECUCAO ORCAMENTARIA DELEGADA A MUNICIPIOS                                                                   S04
2014444251000000000OBRAS E INSTALACOES                                                                                           A05
2014445000000000000TRANSFERENCIAS A INSTITUICOES PRIVADAS SEM FINS LUCRATIVOS                                                    S03
2014445039000000000OUTROS SERVICOS DE TERCEIROS-PESSOA JURIDICA                                                                  S05
2014445039010000000INSTITUICOES DE CARATER ASSISTENCIAL, CULTURAL  E EDUCACIONAL                                                 A06
2014445039020000000INSTITUICOES DE CARATER INDUSTRIAL                                                                            A06
2014445041000000000CONTRIBUICOES                                                                                                 S05
2014445041010000000INSTITUICOES DE CARATER ASSISTENCIAL, CULTURAL OU EDUCACIONAL                                                 A06
2014445041020000000INSTITUICOES DE CARATER COMERCIAL OU FINANCEIRO                                                               A06
2014445041080000000ENTIDADES REPRESENTATIVAS DE CLASSE                                                                           A06
2014445041990000000OUTRAS INSTITUICOES PRIVADAS                                                                                  A06
2014445042000000000AUXILIOS                                                                                                      S05
2014445042010000000INSTITUICOES DE CARATER ASSISTENCIAL OU CULTURAL                                                              A06
2014445042020000000INSTITUICOES DE PESQUISA E DESENVOLVIMENTO TECNOLOGICO                                                        A06
2014445042990000000OUTRAS INSTITUICOES PRIVADAS                                                                                  A06
2014447000000000000TRANSFERENCIAS A INSTITUICOES MULTIGOVERNAMENTAIS                                                             S03
2014447041000000000CONTRIBUICOES                                                                                                 S05
2014447041990000000OUTRAS CONTRIBUICOES                                                                                          A06
2014447042000000000AUXILIOS                                                                                                      S05
2014447042990000000OUTROS AUXILIOS                                                                                               A06
2014447100000000000TRANSFERENCIAS A CONSORCIOS PUBLICOS                                                                          S04
2014447170000000000RATEIO PELA PARTICIPACAO EM CONSORCIO PUBLICO                                                                 S05
2014447170010000000COFRON                                                                                                        A06
2014447170020000000CISMISSOES                                                                                                    A06
2014447170030000000CIGRES                                                                                                        A06
2014447200000000000EXECUCAO ORCAMENTARIA DELEGADA A CONSORCIOS PUBLICOS                                                          S04
2014447251000000000OBRAS E INSTALACOES                                                                                           A05
2014449000000000000APLICACOES DIRETAS                                                                                            S03
2014449014000000000DIARIAS -  CIVIL                                                                                              S05
2014449014140000000DIARIAS NO PAIS                                                                                               A06
2014449014160000000DIARIAS NO EXTERIOR                                                                                           A06
2014449014990000000OUTRAS DIARIAS                                                                                                A06
2014449018000000000AUXILIO FINANCEIRO A ESTUDANTES                                                                               A05
2014449030000000000MATERIAL DE CONSUMO                                                                                           S05
2014449030160000000MATERIAL DE EXPEDIENTE                                                                                        A06
2014449030170000000MATERIAL DE PROCESSAMENTO DE DADOS                                                                            A06
2014449030240000000MATERIAL DE CONSTRUCAO                                                                                        A06
2014449030250000000MATERIAL PARA  MANUTENCAO DE BENS MOVEIS                                                                      A06
2014449030290000000MATERIAL PARA  AUDIO, VIDEO E FOTO                                                                            A06
2014449030390000000MATERIAL PARA  MANUTENCAO DE VEICULOS                                                                         A06
2014449030990000000OUTROS MATERIAIS DE CONSUMO                                                                                   A06
2014449035000000000SERVICOS DE CONSULTORIA                                                                                       S05
2014449035990000000OUTROS SERVICOS DE CONSULTORIA                                                                                A06
